{
	"contracts/while1.sol": {
		"WHILE": {
			"abi": [
				{
					"inputs": [
						{
							"internalType": "uint256",
							"name": "_n",
							"type": "uint256"
						}
					],
					"name": "while_1",
					"outputs": [
						{
							"internalType": "uint256",
							"name": "",
							"type": "uint256"
						}
					],
					"stateMutability": "pure",
					"type": "function"
				},
				{
					"inputs": [
						{
							"internalType": "uint256",
							"name": "_n",
							"type": "uint256"
						}
					],
					"name": "while_2",
					"outputs": [
						{
							"internalType": "uint256",
							"name": "",
							"type": "uint256"
						}
					],
					"stateMutability": "pure",
					"type": "function"
				},
				{
					"inputs": [
						{
							"internalType": "uint256",
							"name": "_n",
							"type": "uint256"
						}
					],
					"name": "while_3",
					"outputs": [
						{
							"internalType": "uint256",
							"name": "",
							"type": "uint256"
						}
					],
					"stateMutability": "pure",
					"type": "function"
				}
			],
			"devdoc": {
				"kind": "dev",
				"methods": {},
				"version": 1
			},
			"evm": {
				"assembly": "    /* \"contracts/while1.sol\":74:632  contract WHILE {... */\n  mstore(0x40, 0x80)\n  callvalue\n  dup1\n  iszero\n  tag_1\n  jumpi\n  0x00\n  dup1\n  revert\ntag_1:\n  pop\n  dataSize(sub_0)\n  dup1\n  dataOffset(sub_0)\n  0x00\n  codecopy\n  0x00\n  return\nstop\n\nsub_0: assembly {\n        /* \"contracts/while1.sol\":74:632  contract WHILE {... */\n      mstore(0x40, 0x80)\n      callvalue\n      dup1\n      iszero\n      tag_1\n      jumpi\n      0x00\n      dup1\n      revert\n    tag_1:\n      pop\n      jumpi(tag_2, lt(calldatasize, 0x04))\n      shr(0xe0, calldataload(0x00))\n      dup1\n      0x0bee723a\n      eq\n      tag_3\n      jumpi\n      dup1\n      0x4425506b\n      eq\n      tag_4\n      jumpi\n      dup1\n      0x5b6d42c2\n      eq\n      tag_5\n      jumpi\n    tag_2:\n      0x00\n      dup1\n      revert\n        /* \"contracts/while1.sol\":466:629  function while_3(uint _n) public pure returns(uint) {... */\n    tag_3:\n      tag_6\n      0x04\n      dup1\n      calldatasize\n      sub\n      dup2\n      add\n      swap1\n      tag_7\n      swap2\n      swap1\n      tag_8\n      jump\t// in\n    tag_7:\n      tag_9\n      jump\t// in\n    tag_6:\n      mload(0x40)\n      tag_10\n      swap2\n      swap1\n      tag_11\n      jump\t// in\n    tag_10:\n      mload(0x40)\n      dup1\n      swap2\n      sub\n      swap1\n      return\n        /* \"contracts/while1.sol\":269:458  function while_2(uint _n) public pure returns(uint) {... */\n    tag_4:\n      tag_12\n      0x04\n      dup1\n      calldatasize\n      sub\n      dup2\n      add\n      swap1\n      tag_13\n      swap2\n      swap1\n      tag_8\n      jump\t// in\n    tag_13:\n      tag_14\n      jump\t// in\n    tag_12:\n      mload(0x40)\n      tag_15\n      swap2\n      swap1\n      tag_11\n      jump\t// in\n    tag_15:\n      mload(0x40)\n      dup1\n      swap2\n      sub\n      swap1\n      return\n        /* \"contracts/while1.sol\":96:261  function while_1(uint _n) public pure returns(uint) {... */\n    tag_5:\n      tag_16\n      0x04\n      dup1\n      calldatasize\n      sub\n      dup2\n      add\n      swap1\n      tag_17\n      swap2\n      swap1\n      tag_8\n      jump\t// in\n    tag_17:\n      tag_18\n      jump\t// in\n    tag_16:\n      mload(0x40)\n      tag_19\n      swap2\n      swap1\n      tag_11\n      jump\t// in\n    tag_19:\n      mload(0x40)\n      dup1\n      swap2\n      sub\n      swap1\n      return\n        /* \"contracts/while1.sol\":466:629  function while_3(uint _n) public pure returns(uint) {... */\n    tag_9:\n        /* \"contracts/while1.sol\":512:516  uint */\n      0x00\n        /* \"contracts/while1.sol\":529:539  uint count */\n      dup1\n        /* \"contracts/while1.sol\":552:622  while(_n > 0) {... */\n    tag_21:\n        /* \"contracts/while1.sol\":563:564  0 */\n      0x00\n        /* \"contracts/while1.sol\":558:560  _n */\n      dup4\n        /* \"contracts/while1.sol\":558:564  _n > 0 */\n      gt\n        /* \"contracts/while1.sol\":552:622  while(_n > 0) {... */\n      iszero\n      tag_22\n      jumpi\n        /* \"contracts/while1.sol\":587:588  8 */\n      0x08\n        /* \"contracts/while1.sol\":581:588  _n /= 8 */\n      dup4\n      tag_23\n      swap2\n      swap1\n      tag_24\n      jump\t// in\n    tag_23:\n      swap3\n      pop\n        /* \"contracts/while1.sol\":603:610  count++ */\n      dup1\n      dup1\n      tag_25\n      swap1\n      tag_26\n      jump\t// in\n    tag_25:\n      swap2\n      pop\n      pop\n        /* \"contracts/while1.sol\":552:622  while(_n > 0) {... */\n      jump(tag_21)\n    tag_22:\n        /* \"contracts/while1.sol\":518:629  {... */\n      pop\n        /* \"contracts/while1.sol\":466:629  function while_3(uint _n) public pure returns(uint) {... */\n      swap2\n      swap1\n      pop\n      jump\t// out\n        /* \"contracts/while1.sol\":269:458  function while_2(uint _n) public pure returns(uint) {... */\n    tag_14:\n        /* \"contracts/while1.sol\":315:319  uint */\n      0x00\n        /* \"contracts/while1.sol\":332:342  uint count */\n      dup1\n        /* \"contracts/while1.sol\":355:426  while(_n > 0) {... */\n    tag_28:\n        /* \"contracts/while1.sol\":366:367  0 */\n      0x00\n        /* \"contracts/while1.sol\":361:363  _n */\n      dup4\n        /* \"contracts/while1.sol\":361:367  _n > 0 */\n      gt\n        /* \"contracts/while1.sol\":355:426  while(_n > 0) {... */\n      iszero\n      tag_29\n      jumpi\n        /* \"contracts/while1.sol\":390:392  10 */\n      0x0a\n        /* \"contracts/while1.sol\":384:392  _n /= 10 */\n      dup4\n      tag_30\n      swap2\n      swap1\n      tag_24\n      jump\t// in\n    tag_30:\n      swap3\n      pop\n        /* \"contracts/while1.sol\":407:414  count++ */\n      dup1\n      dup1\n      tag_31\n      swap1\n      tag_26\n      jump\t// in\n    tag_31:\n      swap2\n      pop\n      pop\n        /* \"contracts/while1.sol\":355:426  while(_n > 0) {... */\n      jump(tag_28)\n    tag_29:\n        /* \"contracts/while1.sol\":445:450  count */\n      dup1\n        /* \"contracts/while1.sol\":438:450  return count */\n      swap2\n      pop\n      pop\n        /* \"contracts/while1.sol\":269:458  function while_2(uint _n) public pure returns(uint) {... */\n      swap2\n      swap1\n      pop\n      jump\t// out\n        /* \"contracts/while1.sol\":96:261  function while_1(uint _n) public pure returns(uint) {... */\n    tag_18:\n        /* \"contracts/while1.sol\":142:146  uint */\n      0x00\n        /* \"contracts/while1.sol\":159:165  uint a */\n      dup1\n        /* \"contracts/while1.sol\":168:169  1 */\n      0x01\n        /* \"contracts/while1.sol\":159:169  uint a = 1 */\n      swap1\n      pop\n        /* \"contracts/while1.sol\":182:233  while(_n > a * 2) {... */\n    tag_33:\n        /* \"contracts/while1.sol\":197:198  2 */\n      0x02\n        /* \"contracts/while1.sol\":193:194  a */\n      dup2\n        /* \"contracts/while1.sol\":193:198  a * 2 */\n      tag_35\n      swap2\n      swap1\n      tag_36\n      jump\t// in\n    tag_35:\n        /* \"contracts/while1.sol\":188:190  _n */\n      dup4\n        /* \"contracts/while1.sol\":188:198  _n > a * 2 */\n      gt\n        /* \"contracts/while1.sol\":182:233  while(_n > a * 2) {... */\n      iszero\n      tag_34\n      jumpi\n        /* \"contracts/while1.sol\":220:221  2 */\n      0x02\n        /* \"contracts/while1.sol\":215:221  a *= 2 */\n      dup2\n      tag_37\n      swap2\n      swap1\n      tag_36\n      jump\t// in\n    tag_37:\n      swap1\n      pop\n        /* \"contracts/while1.sol\":182:233  while(_n > a * 2) {... */\n      jump(tag_33)\n    tag_34:\n        /* \"contracts/while1.sol\":252:253  a */\n      dup1\n        /* \"contracts/while1.sol\":245:253  return a */\n      swap2\n      pop\n      pop\n        /* \"contracts/while1.sol\":96:261  function while_1(uint _n) public pure returns(uint) {... */\n      swap2\n      swap1\n      pop\n      jump\t// out\n        /* \"#utility.yul\":88:205   */\n    tag_39:\n        /* \"#utility.yul\":197:198   */\n      0x00\n        /* \"#utility.yul\":194:195   */\n      dup1\n        /* \"#utility.yul\":187:199   */\n      revert\n        /* \"#utility.yul\":334:411   */\n    tag_41:\n        /* \"#utility.yul\":371:378   */\n      0x00\n        /* \"#utility.yul\":400:405   */\n      dup2\n        /* \"#utility.yul\":389:405   */\n      swap1\n      pop\n        /* \"#utility.yul\":334:411   */\n      swap2\n      swap1\n      pop\n      jump\t// out\n        /* \"#utility.yul\":417:539   */\n    tag_42:\n        /* \"#utility.yul\":490:514   */\n      tag_53\n        /* \"#utility.yul\":508:513   */\n      dup2\n        /* \"#utility.yul\":490:514   */\n      tag_41\n      jump\t// in\n    tag_53:\n        /* \"#utility.yul\":483:488   */\n      dup2\n        /* \"#utility.yul\":480:515   */\n      eq\n        /* \"#utility.yul\":470:533   */\n      tag_54\n      jumpi\n        /* \"#utility.yul\":529:530   */\n      0x00\n        /* \"#utility.yul\":526:527   */\n      dup1\n        /* \"#utility.yul\":519:531   */\n      revert\n        /* \"#utility.yul\":470:533   */\n    tag_54:\n        /* \"#utility.yul\":417:539   */\n      pop\n      jump\t// out\n        /* \"#utility.yul\":545:684   */\n    tag_43:\n        /* \"#utility.yul\":591:596   */\n      0x00\n        /* \"#utility.yul\":629:635   */\n      dup2\n        /* \"#utility.yul\":616:636   */\n      calldataload\n        /* \"#utility.yul\":607:636   */\n      swap1\n      pop\n        /* \"#utility.yul\":645:678   */\n      tag_56\n        /* \"#utility.yul\":672:677   */\n      dup2\n        /* \"#utility.yul\":645:678   */\n      tag_42\n      jump\t// in\n    tag_56:\n        /* \"#utility.yul\":545:684   */\n      swap3\n      swap2\n      pop\n      pop\n      jump\t// out\n        /* \"#utility.yul\":690:1019   */\n    tag_8:\n        /* \"#utility.yul\":749:755   */\n      0x00\n        /* \"#utility.yul\":798:800   */\n      0x20\n        /* \"#utility.yul\":786:795   */\n      dup3\n        /* \"#utility.yul\":777:784   */\n      dup5\n        /* \"#utility.yul\":773:796   */\n      sub\n        /* \"#utility.yul\":769:801   */\n      slt\n        /* \"#utility.yul\":766:885   */\n      iszero\n      tag_58\n      jumpi\n        /* \"#utility.yul\":804:883   */\n      tag_59\n      tag_39\n      jump\t// in\n    tag_59:\n        /* \"#utility.yul\":766:885   */\n    tag_58:\n        /* \"#utility.yul\":924:925   */\n      0x00\n        /* \"#utility.yul\":949:1002   */\n      tag_60\n        /* \"#utility.yul\":994:1001   */\n      dup5\n        /* \"#utility.yul\":985:991   */\n      dup3\n        /* \"#utility.yul\":974:983   */\n      dup6\n        /* \"#utility.yul\":970:992   */\n      add\n        /* \"#utility.yul\":949:1002   */\n      tag_43\n      jump\t// in\n    tag_60:\n        /* \"#utility.yul\":939:1002   */\n      swap2\n      pop\n        /* \"#utility.yul\":895:1012   */\n      pop\n        /* \"#utility.yul\":690:1019   */\n      swap3\n      swap2\n      pop\n      pop\n      jump\t// out\n        /* \"#utility.yul\":1025:1143   */\n    tag_44:\n        /* \"#utility.yul\":1112:1136   */\n      tag_62\n        /* \"#utility.yul\":1130:1135   */\n      dup2\n        /* \"#utility.yul\":1112:1136   */\n      tag_41\n      jump\t// in\n    tag_62:\n        /* \"#utility.yul\":1107:1110   */\n      dup3\n        /* \"#utility.yul\":1100:1137   */\n      mstore\n        /* \"#utility.yul\":1025:1143   */\n      pop\n      pop\n      jump\t// out\n        /* \"#utility.yul\":1149:1371   */\n    tag_11:\n        /* \"#utility.yul\":1242:1246   */\n      0x00\n        /* \"#utility.yul\":1280:1282   */\n      0x20\n        /* \"#utility.yul\":1269:1278   */\n      dup3\n        /* \"#utility.yul\":1265:1283   */\n      add\n        /* \"#utility.yul\":1257:1283   */\n      swap1\n      pop\n        /* \"#utility.yul\":1293:1364   */\n      tag_64\n        /* \"#utility.yul\":1361:1362   */\n      0x00\n        /* \"#utility.yul\":1350:1359   */\n      dup4\n        /* \"#utility.yul\":1346:1363   */\n      add\n        /* \"#utility.yul\":1337:1343   */\n      dup5\n        /* \"#utility.yul\":1293:1364   */\n      tag_44\n      jump\t// in\n    tag_64:\n        /* \"#utility.yul\":1149:1371   */\n      swap3\n      swap2\n      pop\n      pop\n      jump\t// out\n        /* \"#utility.yul\":1377:1557   */\n    tag_45:\n        /* \"#utility.yul\":1425:1502   */\n      0x4e487b7100000000000000000000000000000000000000000000000000000000\n        /* \"#utility.yul\":1422:1423   */\n      0x00\n        /* \"#utility.yul\":1415:1503   */\n      mstore\n        /* \"#utility.yul\":1522:1526   */\n      0x12\n        /* \"#utility.yul\":1519:1520   */\n      0x04\n        /* \"#utility.yul\":1512:1527   */\n      mstore\n        /* \"#utility.yul\":1546:1550   */\n      0x24\n        /* \"#utility.yul\":1543:1544   */\n      0x00\n        /* \"#utility.yul\":1536:1551   */\n      revert\n        /* \"#utility.yul\":1563:1743   */\n    tag_46:\n        /* \"#utility.yul\":1611:1688   */\n      0x4e487b7100000000000000000000000000000000000000000000000000000000\n        /* \"#utility.yul\":1608:1609   */\n      0x00\n        /* \"#utility.yul\":1601:1689   */\n      mstore\n        /* \"#utility.yul\":1708:1712   */\n      0x11\n        /* \"#utility.yul\":1705:1706   */\n      0x04\n        /* \"#utility.yul\":1698:1713   */\n      mstore\n        /* \"#utility.yul\":1732:1736   */\n      0x24\n        /* \"#utility.yul\":1729:1730   */\n      0x00\n        /* \"#utility.yul\":1722:1737   */\n      revert\n        /* \"#utility.yul\":1749:1934   */\n    tag_24:\n        /* \"#utility.yul\":1789:1790   */\n      0x00\n        /* \"#utility.yul\":1806:1826   */\n      tag_68\n        /* \"#utility.yul\":1824:1825   */\n      dup3\n        /* \"#utility.yul\":1806:1826   */\n      tag_41\n      jump\t// in\n    tag_68:\n        /* \"#utility.yul\":1801:1826   */\n      swap2\n      pop\n        /* \"#utility.yul\":1840:1860   */\n      tag_69\n        /* \"#utility.yul\":1858:1859   */\n      dup4\n        /* \"#utility.yul\":1840:1860   */\n      tag_41\n      jump\t// in\n    tag_69:\n        /* \"#utility.yul\":1835:1860   */\n      swap3\n      pop\n        /* \"#utility.yul\":1879:1880   */\n      dup3\n        /* \"#utility.yul\":1869:1904   */\n      tag_70\n      jumpi\n        /* \"#utility.yul\":1884:1902   */\n      tag_71\n      tag_45\n      jump\t// in\n    tag_71:\n        /* \"#utility.yul\":1869:1904   */\n    tag_70:\n        /* \"#utility.yul\":1926:1927   */\n      dup3\n        /* \"#utility.yul\":1923:1924   */\n      dup3\n        /* \"#utility.yul\":1919:1928   */\n      div\n        /* \"#utility.yul\":1914:1928   */\n      swap1\n      pop\n        /* \"#utility.yul\":1749:1934   */\n      swap3\n      swap2\n      pop\n      pop\n      jump\t// out\n        /* \"#utility.yul\":1940:2173   */\n    tag_26:\n        /* \"#utility.yul\":1979:1982   */\n      0x00\n        /* \"#utility.yul\":2002:2026   */\n      tag_73\n        /* \"#utility.yul\":2020:2025   */\n      dup3\n        /* \"#utility.yul\":2002:2026   */\n      tag_41\n      jump\t// in\n    tag_73:\n        /* \"#utility.yul\":1993:2026   */\n      swap2\n      pop\n        /* \"#utility.yul\":2048:2114   */\n      0xffffffffffffffffffffffffffffffffffffffffffffffffffffffffffffffff\n        /* \"#utility.yul\":2041:2046   */\n      dup3\n        /* \"#utility.yul\":2038:2115   */\n      sub\n        /* \"#utility.yul\":2035:2138   */\n      tag_74\n      jumpi\n        /* \"#utility.yul\":2118:2136   */\n      tag_75\n      tag_46\n      jump\t// in\n    tag_75:\n        /* \"#utility.yul\":2035:2138   */\n    tag_74:\n        /* \"#utility.yul\":2165:2166   */\n      0x01\n        /* \"#utility.yul\":2158:2163   */\n      dup3\n        /* \"#utility.yul\":2154:2167   */\n      add\n        /* \"#utility.yul\":2147:2167   */\n      swap1\n      pop\n        /* \"#utility.yul\":1940:2173   */\n      swap2\n      swap1\n      pop\n      jump\t// out\n        /* \"#utility.yul\":2179:2589   */\n    tag_36:\n        /* \"#utility.yul\":2219:2226   */\n      0x00\n        /* \"#utility.yul\":2242:2262   */\n      tag_77\n        /* \"#utility.yul\":2260:2261   */\n      dup3\n        /* \"#utility.yul\":2242:2262   */\n      tag_41\n      jump\t// in\n    tag_77:\n        /* \"#utility.yul\":2237:2262   */\n      swap2\n      pop\n        /* \"#utility.yul\":2276:2296   */\n      tag_78\n        /* \"#utility.yul\":2294:2295   */\n      dup4\n        /* \"#utility.yul\":2276:2296   */\n      tag_41\n      jump\t// in\n    tag_78:\n        /* \"#utility.yul\":2271:2296   */\n      swap3\n      pop\n        /* \"#utility.yul\":2331:2332   */\n      dup3\n        /* \"#utility.yul\":2328:2329   */\n      dup3\n        /* \"#utility.yul\":2324:2333   */\n      mul\n        /* \"#utility.yul\":2353:2383   */\n      tag_79\n        /* \"#utility.yul\":2371:2382   */\n      dup2\n        /* \"#utility.yul\":2353:2383   */\n      tag_41\n      jump\t// in\n    tag_79:\n        /* \"#utility.yul\":2342:2383   */\n      swap2\n      pop\n        /* \"#utility.yul\":2532:2533   */\n      dup3\n        /* \"#utility.yul\":2523:2530   */\n      dup3\n        /* \"#utility.yul\":2519:2534   */\n      div\n        /* \"#utility.yul\":2516:2517   */\n      dup5\n        /* \"#utility.yul\":2513:2535   */\n      eq\n        /* \"#utility.yul\":2493:2494   */\n      dup4\n        /* \"#utility.yul\":2486:2495   */\n      iszero\n        /* \"#utility.yul\":2466:2549   */\n      or\n        /* \"#utility.yul\":2443:2582   */\n      tag_80\n      jumpi\n        /* \"#utility.yul\":2562:2580   */\n      tag_81\n      tag_46\n      jump\t// in\n    tag_81:\n        /* \"#utility.yul\":2443:2582   */\n    tag_80:\n        /* \"#utility.yul\":2227:2589   */\n      pop\n        /* \"#utility.yul\":2179:2589   */\n      swap3\n      swap2\n      pop\n      pop\n      jump\t// out\n\n    auxdata: 0xa264697066735822122095d48e661db4223ac8f3bbbe163801e8bcb9d43494989bba541bac64fb3f3b9364736f6c634300081a0033\n}\n",
				"bytecode": {
					"linkReferences": {},
					"object": "6080604052348015600e575f80fd5b506103468061001c5f395ff3fe608060405234801561000f575f80fd5b506004361061003f575f3560e01c80630bee723a146100435780634425506b146100735780635b6d42c2146100a3575b5f80fd5b61005d600480360381019061005891906101ab565b6100d3565b60405161006a91906101e5565b60405180910390f35b61008d600480360381019061008891906101ab565b610106565b60405161009a91906101e5565b60405180910390f35b6100bd60048036038101906100b891906101ab565b61013c565b6040516100ca91906101e5565b60405180910390f35b5f805b5f831115610100576008836100eb9190610258565b925080806100f890610288565b9150506100d6565b50919050565b5f805b5f83111561013357600a8361011e9190610258565b9250808061012b90610288565b915050610109565b80915050919050565b5f80600190505b60028161015091906102cf565b83111561016b5760028161016491906102cf565b9050610143565b80915050919050565b5f80fd5b5f819050919050565b61018a81610178565b8114610194575f80fd5b50565b5f813590506101a581610181565b92915050565b5f602082840312156101c0576101bf610174565b5b5f6101cd84828501610197565b91505092915050565b6101df81610178565b82525050565b5f6020820190506101f85f8301846101d6565b92915050565b7f4e487b71000000000000000000000000000000000000000000000000000000005f52601260045260245ffd5b7f4e487b71000000000000000000000000000000000000000000000000000000005f52601160045260245ffd5b5f61026282610178565b915061026d83610178565b92508261027d5761027c6101fe565b5b828204905092915050565b5f61029282610178565b91507fffffffffffffffffffffffffffffffffffffffffffffffffffffffffffffffff82036102c4576102c361022b565b5b600182019050919050565b5f6102d982610178565b91506102e483610178565b92508282026102f281610178565b915082820484148315176103095761030861022b565b5b509291505056fea264697066735822122095d48e661db4223ac8f3bbbe163801e8bcb9d43494989bba541bac64fb3f3b9364736f6c634300081a0033",
					"opcodes": "PUSH1 0x80 PUSH1 0x40 MSTORE CALLVALUE DUP1 ISZERO PUSH1 0xE JUMPI PUSH0 DUP1 REVERT JUMPDEST POP PUSH2 0x346 DUP1 PUSH2 0x1C PUSH0 CODECOPY PUSH0 RETURN INVALID PUSH1 0x80 PUSH1 0x40 MSTORE CALLVALUE DUP1 ISZERO PUSH2 0xF JUMPI PUSH0 DUP1 REVERT JUMPDEST POP PUSH1 0x4 CALLDATASIZE LT PUSH2 0x3F JUMPI PUSH0 CALLDATALOAD PUSH1 0xE0 SHR DUP1 PUSH4 0xBEE723A EQ PUSH2 0x43 JUMPI DUP1 PUSH4 0x4425506B EQ PUSH2 0x73 JUMPI DUP1 PUSH4 0x5B6D42C2 EQ PUSH2 0xA3 JUMPI JUMPDEST PUSH0 DUP1 REVERT JUMPDEST PUSH2 0x5D PUSH1 0x4 DUP1 CALLDATASIZE SUB DUP2 ADD SWAP1 PUSH2 0x58 SWAP2 SWAP1 PUSH2 0x1AB JUMP JUMPDEST PUSH2 0xD3 JUMP JUMPDEST PUSH1 0x40 MLOAD PUSH2 0x6A SWAP2 SWAP1 PUSH2 0x1E5 JUMP JUMPDEST PUSH1 0x40 MLOAD DUP1 SWAP2 SUB SWAP1 RETURN JUMPDEST PUSH2 0x8D PUSH1 0x4 DUP1 CALLDATASIZE SUB DUP2 ADD SWAP1 PUSH2 0x88 SWAP2 SWAP1 PUSH2 0x1AB JUMP JUMPDEST PUSH2 0x106 JUMP JUMPDEST PUSH1 0x40 MLOAD PUSH2 0x9A SWAP2 SWAP1 PUSH2 0x1E5 JUMP JUMPDEST PUSH1 0x40 MLOAD DUP1 SWAP2 SUB SWAP1 RETURN JUMPDEST PUSH2 0xBD PUSH1 0x4 DUP1 CALLDATASIZE SUB DUP2 ADD SWAP1 PUSH2 0xB8 SWAP2 SWAP1 PUSH2 0x1AB JUMP JUMPDEST PUSH2 0x13C JUMP JUMPDEST PUSH1 0x40 MLOAD PUSH2 0xCA SWAP2 SWAP1 PUSH2 0x1E5 JUMP JUMPDEST PUSH1 0x40 MLOAD DUP1 SWAP2 SUB SWAP1 RETURN JUMPDEST PUSH0 DUP1 JUMPDEST PUSH0 DUP4 GT ISZERO PUSH2 0x100 JUMPI PUSH1 0x8 DUP4 PUSH2 0xEB SWAP2 SWAP1 PUSH2 0x258 JUMP JUMPDEST SWAP3 POP DUP1 DUP1 PUSH2 0xF8 SWAP1 PUSH2 0x288 JUMP JUMPDEST SWAP2 POP POP PUSH2 0xD6 JUMP JUMPDEST POP SWAP2 SWAP1 POP JUMP JUMPDEST PUSH0 DUP1 JUMPDEST PUSH0 DUP4 GT ISZERO PUSH2 0x133 JUMPI PUSH1 0xA DUP4 PUSH2 0x11E SWAP2 SWAP1 PUSH2 0x258 JUMP JUMPDEST SWAP3 POP DUP1 DUP1 PUSH2 0x12B SWAP1 PUSH2 0x288 JUMP JUMPDEST SWAP2 POP POP PUSH2 0x109 JUMP JUMPDEST DUP1 SWAP2 POP POP SWAP2 SWAP1 POP JUMP JUMPDEST PUSH0 DUP1 PUSH1 0x1 SWAP1 POP JUMPDEST PUSH1 0x2 DUP2 PUSH2 0x150 SWAP2 SWAP1 PUSH2 0x2CF JUMP JUMPDEST DUP4 GT ISZERO PUSH2 0x16B JUMPI PUSH1 0x2 DUP2 PUSH2 0x164 SWAP2 SWAP1 PUSH2 0x2CF JUMP JUMPDEST SWAP1 POP PUSH2 0x143 JUMP JUMPDEST DUP1 SWAP2 POP POP SWAP2 SWAP1 POP JUMP JUMPDEST PUSH0 DUP1 REVERT JUMPDEST PUSH0 DUP2 SWAP1 POP SWAP2 SWAP1 POP JUMP JUMPDEST PUSH2 0x18A DUP2 PUSH2 0x178 JUMP JUMPDEST DUP2 EQ PUSH2 0x194 JUMPI PUSH0 DUP1 REVERT JUMPDEST POP JUMP JUMPDEST PUSH0 DUP2 CALLDATALOAD SWAP1 POP PUSH2 0x1A5 DUP2 PUSH2 0x181 JUMP JUMPDEST SWAP3 SWAP2 POP POP JUMP JUMPDEST PUSH0 PUSH1 0x20 DUP3 DUP5 SUB SLT ISZERO PUSH2 0x1C0 JUMPI PUSH2 0x1BF PUSH2 0x174 JUMP JUMPDEST JUMPDEST PUSH0 PUSH2 0x1CD DUP5 DUP3 DUP6 ADD PUSH2 0x197 JUMP JUMPDEST SWAP2 POP POP SWAP3 SWAP2 POP POP JUMP JUMPDEST PUSH2 0x1DF DUP2 PUSH2 0x178 JUMP JUMPDEST DUP3 MSTORE POP POP JUMP JUMPDEST PUSH0 PUSH1 0x20 DUP3 ADD SWAP1 POP PUSH2 0x1F8 PUSH0 DUP4 ADD DUP5 PUSH2 0x1D6 JUMP JUMPDEST SWAP3 SWAP2 POP POP JUMP JUMPDEST PUSH32 0x4E487B7100000000000000000000000000000000000000000000000000000000 PUSH0 MSTORE PUSH1 0x12 PUSH1 0x4 MSTORE PUSH1 0x24 PUSH0 REVERT JUMPDEST PUSH32 0x4E487B7100000000000000000000000000000000000000000000000000000000 PUSH0 MSTORE PUSH1 0x11 PUSH1 0x4 MSTORE PUSH1 0x24 PUSH0 REVERT JUMPDEST PUSH0 PUSH2 0x262 DUP3 PUSH2 0x178 JUMP JUMPDEST SWAP2 POP PUSH2 0x26D DUP4 PUSH2 0x178 JUMP JUMPDEST SWAP3 POP DUP3 PUSH2 0x27D JUMPI PUSH2 0x27C PUSH2 0x1FE JUMP JUMPDEST JUMPDEST DUP3 DUP3 DIV SWAP1 POP SWAP3 SWAP2 POP POP JUMP JUMPDEST PUSH0 PUSH2 0x292 DUP3 PUSH2 0x178 JUMP JUMPDEST SWAP2 POP PUSH32 0xFFFFFFFFFFFFFFFFFFFFFFFFFFFFFFFFFFFFFFFFFFFFFFFFFFFFFFFFFFFFFFFF DUP3 SUB PUSH2 0x2C4 JUMPI PUSH2 0x2C3 PUSH2 0x22B JUMP JUMPDEST JUMPDEST PUSH1 0x1 DUP3 ADD SWAP1 POP SWAP2 SWAP1 POP JUMP JUMPDEST PUSH0 PUSH2 0x2D9 DUP3 PUSH2 0x178 JUMP JUMPDEST SWAP2 POP PUSH2 0x2E4 DUP4 PUSH2 0x178 JUMP JUMPDEST SWAP3 POP DUP3 DUP3 MUL PUSH2 0x2F2 DUP2 PUSH2 0x178 JUMP JUMPDEST SWAP2 POP DUP3 DUP3 DIV DUP5 EQ DUP4 ISZERO OR PUSH2 0x309 JUMPI PUSH2 0x308 PUSH2 0x22B JUMP JUMPDEST JUMPDEST POP SWAP3 SWAP2 POP POP JUMP INVALID LOG2 PUSH5 0x6970667358 0x22 SLT KECCAK256 SWAP6 0xD4 DUP15 PUSH7 0x1DB4223AC8F3BB 0xBE AND CODESIZE ADD 0xE8 0xBC 0xB9 0xD4 CALLVALUE SWAP5 SWAP9 SWAP12 0xBA SLOAD SHL 0xAC PUSH5 0xFB3F3B9364 PUSH20 0x6F6C634300081A00330000000000000000000000 "
				},
				"gasEstimates": {
					"creation": {
						"codeDepositCost": "167600",
						"executionCost": "212",
						"totalCost": "167812"
					},
					"external": {
						"while_1(uint256)": "infinite",
						"while_2(uint256)": "infinite",
						"while_3(uint256)": "infinite"
					}
				},
				"methodIdentifiers": {
					"while_1(uint256)": "5b6d42c2",
					"while_2(uint256)": "4425506b",
					"while_3(uint256)": "0bee723a"
				}
			},
			"storageLayout": {
				"storage": [],
				"types": null
			},
			"userdoc": {
				"kind": "user",
				"methods": {},
				"version": 1
			}
		}
	}
}