{
	"contracts/array3.sol": {
		"ARRAY": {
			"abi": [
				{
					"inputs": [
						{
							"internalType": "uint256",
							"name": "_n",
							"type": "uint256"
						}
					],
					"name": "getLetter",
					"outputs": [
						{
							"internalType": "string",
							"name": "",
							"type": "string"
						}
					],
					"stateMutability": "view",
					"type": "function"
				},
				{
					"inputs": [],
					"name": "getLetter",
					"outputs": [
						{
							"internalType": "uint256",
							"name": "",
							"type": "uint256"
						}
					],
					"stateMutability": "view",
					"type": "function"
				},
				{
					"inputs": [
						{
							"internalType": "uint256",
							"name": "_n",
							"type": "uint256"
						}
					],
					"name": "getLetter2",
					"outputs": [
						{
							"internalType": "string",
							"name": "",
							"type": "string"
						}
					],
					"stateMutability": "view",
					"type": "function"
				},
				{
					"inputs": [],
					"name": "popLetters",
					"outputs": [],
					"stateMutability": "nonpayable",
					"type": "function"
				},
				{
					"inputs": [
						{
							"internalType": "string",
							"name": "letter",
							"type": "string"
						}
					],
					"name": "pushLetters",
					"outputs": [],
					"stateMutability": "nonpayable",
					"type": "function"
				},
				{
					"inputs": [
						{
							"internalType": "uint256",
							"name": "_n",
							"type": "uint256"
						},
						{
							"internalType": "string",
							"name": "_s",
							"type": "string"
						}
					],
					"name": "setLetter",
					"outputs": [],
					"stateMutability": "nonpayable",
					"type": "function"
				},
				{
					"inputs": [
						{
							"internalType": "uint256",
							"name": "_n",
							"type": "uint256"
						},
						{
							"internalType": "string",
							"name": "_s",
							"type": "string"
						}
					],
					"name": "setLetter2",
					"outputs": [],
					"stateMutability": "nonpayable",
					"type": "function"
				}
			],
			"devdoc": {
				"kind": "dev",
				"methods": {},
				"version": 1
			},
			"evm": {
				"assembly": "    /* \"contracts/array3.sol\":74:823  contract ARRAY {... */\n  mstore(0x40, 0x80)\n  callvalue\n  dup1\n  iszero\n  tag_1\n  jumpi\n  0x00\n  dup1\n  revert\ntag_1:\n  pop\n  dataSize(sub_0)\n  dup1\n  dataOffset(sub_0)\n  0x00\n  codecopy\n  0x00\n  return\nstop\n\nsub_0: assembly {\n        /* \"contracts/array3.sol\":74:823  contract ARRAY {... */\n      mstore(0x40, 0x80)\n      callvalue\n      dup1\n      iszero\n      tag_1\n      jumpi\n      0x00\n      dup1\n      revert\n    tag_1:\n      pop\n      jumpi(tag_2, lt(calldatasize, 0x04))\n      shr(0xe0, calldataload(0x00))\n      dup1\n      0x96e583a9\n      gt\n      tag_10\n      jumpi\n      dup1\n      0x96e583a9\n      eq\n      tag_6\n      jumpi\n      dup1\n      0xb599dd85\n      eq\n      tag_7\n      jumpi\n      dup1\n      0xb810c80e\n      eq\n      tag_8\n      jumpi\n      dup1\n      0xef25d817\n      eq\n      tag_9\n      jumpi\n      jump(tag_2)\n    tag_10:\n      dup1\n      0x495931fb\n      eq\n      tag_3\n      jumpi\n      dup1\n      0x737c0166\n      eq\n      tag_4\n      jumpi\n      dup1\n      0x7563517e\n      eq\n      tag_5\n      jumpi\n    tag_2:\n      0x00\n      dup1\n      revert\n        /* \"contracts/array3.sol\":146:236  function pushLetters(string memory letter ) public {... */\n    tag_3:\n      tag_11\n      0x04\n      dup1\n      calldatasize\n      sub\n      dup2\n      add\n      swap1\n      tag_12\n      swap2\n      swap1\n      tag_13\n      jump\t// in\n    tag_12:\n      tag_14\n      jump\t// in\n    tag_11:\n      stop\n        /* \"contracts/array3.sol\":521:625  function getLetter2(uint _n) public view returns(string memory) {... */\n    tag_4:\n      tag_15\n      0x04\n      dup1\n      calldatasize\n      sub\n      dup2\n      add\n      swap1\n      tag_16\n      swap2\n      swap1\n      tag_17\n      jump\t// in\n    tag_16:\n      tag_18\n      jump\t// in\n    tag_15:\n      mload(0x40)\n      tag_19\n      swap2\n      swap1\n      tag_20\n      jump\t// in\n    tag_19:\n      mload(0x40)\n      dup1\n      swap2\n      sub\n      swap1\n      return\n        /* \"contracts/array3.sol\":423:513  function setLetter(uint _n, string memory _s) public {... */\n    tag_5:\n      tag_21\n      0x04\n      dup1\n      calldatasize\n      sub\n      dup2\n      add\n      swap1\n      tag_22\n      swap2\n      swap1\n      tag_23\n      jump\t// in\n    tag_22:\n      tag_24\n      jump\t// in\n    tag_21:\n      stop\n        /* \"contracts/array3.sol\":313:415  function getLetter(uint _n) public view returns(string memory) {... */\n    tag_6:\n      tag_25\n      0x04\n      dup1\n      calldatasize\n      sub\n      dup2\n      add\n      swap1\n      tag_26\n      swap2\n      swap1\n      tag_17\n      jump\t// in\n    tag_26:\n      tag_27\n      jump\t// in\n    tag_25:\n      mload(0x40)\n      tag_28\n      swap2\n      swap1\n      tag_20\n      jump\t// in\n    tag_28:\n      mload(0x40)\n      dup1\n      swap2\n      sub\n      swap1\n      return\n        /* \"contracts/array3.sol\":733:820  function getLetter() public view returns(uint) {... */\n    tag_7:\n      tag_29\n      tag_30\n      jump\t// in\n    tag_29:\n      mload(0x40)\n      tag_31\n      swap2\n      swap1\n      tag_32\n      jump\t// in\n    tag_31:\n      mload(0x40)\n      dup1\n      swap2\n      sub\n      swap1\n      return\n        /* \"contracts/array3.sol\":244:305  function popLetters() public {... */\n    tag_8:\n      tag_33\n      tag_34\n      jump\t// in\n    tag_33:\n      stop\n        /* \"contracts/array3.sol\":633:725  function setLetter2(uint _n, string memory _s) public {... */\n    tag_9:\n      tag_35\n      0x04\n      dup1\n      calldatasize\n      sub\n      dup2\n      add\n      swap1\n      tag_36\n      swap2\n      swap1\n      tag_23\n      jump\t// in\n    tag_36:\n      tag_37\n      jump\t// in\n    tag_35:\n      stop\n        /* \"contracts/array3.sol\":146:236  function pushLetters(string memory letter ) public {... */\n    tag_14:\n        /* \"contracts/array3.sol\":208:215  letters */\n      0x00\n        /* \"contracts/array3.sol\":221:227  letter */\n      dup2\n        /* \"contracts/array3.sol\":208:228  letters.push(letter) */\n      swap1\n      dup1\n      0x01\n      dup2\n      sload\n      add\n      dup1\n      dup3\n      sstore\n      dup1\n      swap2\n      pop\n      pop\n      0x01\n      swap1\n      sub\n      swap1\n      0x00\n      mstore\n      keccak256(0x00, 0x20)\n      add\n      0x00\n      swap1\n      swap2\n      swap1\n      swap2\n      swap1\n      swap2\n      pop\n      swap1\n      dup2\n      tag_40\n      swap2\n      swap1\n      tag_41\n      jump\t// in\n    tag_40:\n      pop\n        /* \"contracts/array3.sol\":146:236  function pushLetters(string memory letter ) public {... */\n      pop\n      jump\t// out\n        /* \"contracts/array3.sol\":521:625  function getLetter2(uint _n) public view returns(string memory) {... */\n    tag_18:\n        /* \"contracts/array3.sol\":570:583  string memory */\n      0x60\n        /* \"contracts/array3.sol\":603:611  letters2 */\n      0x01\n        /* \"contracts/array3.sol\":615:616  1 */\n      dup1\n        /* \"contracts/array3.sol\":612:614  _n */\n      dup4\n        /* \"contracts/array3.sol\":612:616  _n-1 */\n      tag_43\n      swap2\n      swap1\n      tag_44\n      jump\t// in\n    tag_43:\n        /* \"contracts/array3.sol\":603:617  letters2[_n-1] */\n      0x07\n      dup2\n      lt\n      tag_45\n      jumpi\n      tag_46\n      tag_47\n      jump\t// in\n    tag_46:\n    tag_45:\n      add\n        /* \"contracts/array3.sol\":596:617  return letters2[_n-1] */\n      dup1\n      sload\n      tag_49\n      swap1\n      tag_50\n      jump\t// in\n    tag_49:\n      dup1\n      0x1f\n      add\n      0x20\n      dup1\n      swap2\n      div\n      mul\n      0x20\n      add\n      mload(0x40)\n      swap1\n      dup2\n      add\n      0x40\n      mstore\n      dup1\n      swap3\n      swap2\n      swap1\n      dup2\n      dup2\n      mstore\n      0x20\n      add\n      dup3\n      dup1\n      sload\n      tag_51\n      swap1\n      tag_50\n      jump\t// in\n    tag_51:\n      dup1\n      iszero\n      tag_52\n      jumpi\n      dup1\n      0x1f\n      lt\n      tag_53\n      jumpi\n      0x0100\n      dup1\n      dup4\n      sload\n      div\n      mul\n      dup4\n      mstore\n      swap2\n      0x20\n      add\n      swap2\n      jump(tag_52)\n    tag_53:\n      dup3\n      add\n      swap2\n      swap1\n      0x00\n      mstore\n      keccak256(0x00, 0x20)\n      swap1\n    tag_54:\n      dup2\n      sload\n      dup2\n      mstore\n      swap1\n      0x01\n      add\n      swap1\n      0x20\n      add\n      dup1\n      dup4\n      gt\n      tag_54\n      jumpi\n      dup3\n      swap1\n      sub\n      0x1f\n      and\n      dup3\n      add\n      swap2\n    tag_52:\n      pop\n      pop\n      pop\n      pop\n      pop\n      swap1\n      pop\n        /* \"contracts/array3.sol\":521:625  function getLetter2(uint _n) public view returns(string memory) {... */\n      swap2\n      swap1\n      pop\n      jump\t// out\n        /* \"contracts/array3.sol\":423:513  function setLetter(uint _n, string memory _s) public {... */\n    tag_24:\n        /* \"contracts/array3.sol\":503:505  _s */\n      dup1\n        /* \"contracts/array3.sol\":487:494  letters */\n      0x00\n        /* \"contracts/array3.sol\":498:499  1 */\n      0x01\n        /* \"contracts/array3.sol\":495:497  _n */\n      dup5\n        /* \"contracts/array3.sol\":495:499  _n-1 */\n      tag_56\n      swap2\n      swap1\n      tag_44\n      jump\t// in\n    tag_56:\n        /* \"contracts/array3.sol\":487:500  letters[_n-1] */\n      dup2\n      sload\n      dup2\n      lt\n      tag_57\n      jumpi\n      tag_58\n      tag_47\n      jump\t// in\n    tag_58:\n    tag_57:\n      swap1\n      0x00\n      mstore\n      keccak256(0x00, 0x20)\n      add\n        /* \"contracts/array3.sol\":487:505  letters[_n-1] = _s */\n      swap1\n      dup2\n      tag_60\n      swap2\n      swap1\n      tag_41\n      jump\t// in\n    tag_60:\n      pop\n        /* \"contracts/array3.sol\":423:513  function setLetter(uint _n, string memory _s) public {... */\n      pop\n      pop\n      jump\t// out\n        /* \"contracts/array3.sol\":313:415  function getLetter(uint _n) public view returns(string memory) {... */\n    tag_27:\n        /* \"contracts/array3.sol\":361:374  string memory */\n      0x60\n        /* \"contracts/array3.sol\":394:401  letters */\n      0x00\n        /* \"contracts/array3.sol\":405:406  1 */\n      0x01\n        /* \"contracts/array3.sol\":402:404  _n */\n      dup4\n        /* \"contracts/array3.sol\":402:406  _n-1 */\n      tag_62\n      swap2\n      swap1\n      tag_44\n      jump\t// in\n    tag_62:\n        /* \"contracts/array3.sol\":394:407  letters[_n-1] */\n      dup2\n      sload\n      dup2\n      lt\n      tag_63\n      jumpi\n      tag_64\n      tag_47\n      jump\t// in\n    tag_64:\n    tag_63:\n      swap1\n      0x00\n      mstore\n      keccak256(0x00, 0x20)\n      add\n        /* \"contracts/array3.sol\":387:407  return letters[_n-1] */\n      dup1\n      sload\n      tag_66\n      swap1\n      tag_50\n      jump\t// in\n    tag_66:\n      dup1\n      0x1f\n      add\n      0x20\n      dup1\n      swap2\n      div\n      mul\n      0x20\n      add\n      mload(0x40)\n      swap1\n      dup2\n      add\n      0x40\n      mstore\n      dup1\n      swap3\n      swap2\n      swap1\n      dup2\n      dup2\n      mstore\n      0x20\n      add\n      dup3\n      dup1\n      sload\n      tag_67\n      swap1\n      tag_50\n      jump\t// in\n    tag_67:\n      dup1\n      iszero\n      tag_68\n      jumpi\n      dup1\n      0x1f\n      lt\n      tag_69\n      jumpi\n      0x0100\n      dup1\n      dup4\n      sload\n      div\n      mul\n      dup4\n      mstore\n      swap2\n      0x20\n      add\n      swap2\n      jump(tag_68)\n    tag_69:\n      dup3\n      add\n      swap2\n      swap1\n      0x00\n      mstore\n      keccak256(0x00, 0x20)\n      swap1\n    tag_70:\n      dup2\n      sload\n      dup2\n      mstore\n      swap1\n      0x01\n      add\n      swap1\n      0x20\n      add\n      dup1\n      dup4\n      gt\n      tag_70\n      jumpi\n      dup3\n      swap1\n      sub\n      0x1f\n      and\n      dup3\n      add\n      swap2\n    tag_68:\n      pop\n      pop\n      pop\n      pop\n      pop\n      swap1\n      pop\n        /* \"contracts/array3.sol\":313:415  function getLetter(uint _n) public view returns(string memory) {... */\n      swap2\n      swap1\n      pop\n      jump\t// out\n        /* \"contracts/array3.sol\":733:820  function getLetter() public view returns(uint) {... */\n    tag_30:\n        /* \"contracts/array3.sol\":774:778  uint */\n      0x00\n        /* \"contracts/array3.sol\":798:805  letters */\n      dup1\n        /* \"contracts/array3.sol\":798:812  letters.length */\n      dup1\n      sload\n      swap1\n      pop\n        /* \"contracts/array3.sol\":791:812  return letters.length */\n      swap1\n      pop\n        /* \"contracts/array3.sol\":733:820  function getLetter() public view returns(uint) {... */\n      swap1\n      jump\t// out\n        /* \"contracts/array3.sol\":244:305  function popLetters() public {... */\n    tag_34:\n        /* \"contracts/array3.sol\":284:291  letters */\n      0x00\n        /* \"contracts/array3.sol\":284:297  letters.pop() */\n      dup1\n      sload\n      dup1\n      tag_73\n      jumpi\n      tag_74\n      tag_75\n      jump\t// in\n    tag_74:\n    tag_73:\n      0x01\n      swap1\n      sub\n      dup2\n      dup2\n      swap1\n      0x00\n      mstore\n      keccak256(0x00, 0x20)\n      add\n      0x00\n      tag_77\n      swap2\n      swap1\n      tag_78\n      jump\t// in\n    tag_77:\n      swap1\n      sstore\n        /* \"contracts/array3.sol\":244:305  function popLetters() public {... */\n      jump\t// out\n        /* \"contracts/array3.sol\":633:725  function setLetter2(uint _n, string memory _s) public {... */\n    tag_37:\n        /* \"contracts/array3.sol\":715:717  _s */\n      dup1\n        /* \"contracts/array3.sol\":698:706  letters2 */\n      0x01\n        /* \"contracts/array3.sol\":710:711  1 */\n      dup1\n        /* \"contracts/array3.sol\":707:709  _n */\n      dup5\n        /* \"contracts/array3.sol\":707:711  _n-1 */\n      tag_80\n      swap2\n      swap1\n      tag_44\n      jump\t// in\n    tag_80:\n        /* \"contracts/array3.sol\":698:712  letters2[_n-1] */\n      0x07\n      dup2\n      lt\n      tag_81\n      jumpi\n      tag_82\n      tag_47\n      jump\t// in\n    tag_82:\n    tag_81:\n      add\n        /* \"contracts/array3.sol\":698:717  letters2[_n-1] = _s */\n      swap1\n      dup2\n      tag_84\n      swap2\n      swap1\n      tag_41\n      jump\t// in\n    tag_84:\n      pop\n        /* \"contracts/array3.sol\":633:725  function setLetter2(uint _n, string memory _s) public {... */\n      pop\n      pop\n      jump\t// out\n    tag_78:\n      pop\n      dup1\n      sload\n      tag_85\n      swap1\n      tag_50\n      jump\t// in\n    tag_85:\n      0x00\n      dup3\n      sstore\n      dup1\n      0x1f\n      lt\n      tag_87\n      jumpi\n      pop\n      jump(tag_86)\n    tag_87:\n      0x1f\n      add\n      0x20\n      swap1\n      div\n      swap1\n      0x00\n      mstore\n      keccak256(0x00, 0x20)\n      swap1\n      dup2\n      add\n      swap1\n      tag_88\n      swap2\n      swap1\n      tag_89\n      jump\t// in\n    tag_88:\n    tag_86:\n      pop\n      jump\t// out\n    tag_89:\n    tag_90:\n      dup1\n      dup3\n      gt\n      iszero\n      tag_91\n      jumpi\n      0x00\n      dup2\n      0x00\n      swap1\n      sstore\n      pop\n      0x01\n      add\n      jump(tag_90)\n    tag_91:\n      pop\n      swap1\n      jump\t// out\n        /* \"#utility.yul\":7:82   */\n    tag_92:\n        /* \"#utility.yul\":40:46   */\n      0x00\n        /* \"#utility.yul\":73:75   */\n      0x40\n        /* \"#utility.yul\":67:76   */\n      mload\n        /* \"#utility.yul\":57:76   */\n      swap1\n      pop\n        /* \"#utility.yul\":7:82   */\n      swap1\n      jump\t// out\n        /* \"#utility.yul\":88:205   */\n    tag_93:\n        /* \"#utility.yul\":197:198   */\n      0x00\n        /* \"#utility.yul\":194:195   */\n      dup1\n        /* \"#utility.yul\":187:199   */\n      revert\n        /* \"#utility.yul\":211:328   */\n    tag_94:\n        /* \"#utility.yul\":320:321   */\n      0x00\n        /* \"#utility.yul\":317:318   */\n      dup1\n        /* \"#utility.yul\":310:322   */\n      revert\n        /* \"#utility.yul\":334:451   */\n    tag_95:\n        /* \"#utility.yul\":443:444   */\n      0x00\n        /* \"#utility.yul\":440:441   */\n      dup1\n        /* \"#utility.yul\":433:445   */\n      revert\n        /* \"#utility.yul\":457:574   */\n    tag_96:\n        /* \"#utility.yul\":566:567   */\n      0x00\n        /* \"#utility.yul\":563:564   */\n      dup1\n        /* \"#utility.yul\":556:568   */\n      revert\n        /* \"#utility.yul\":580:682   */\n    tag_97:\n        /* \"#utility.yul\":621:627   */\n      0x00\n        /* \"#utility.yul\":672:674   */\n      0x1f\n        /* \"#utility.yul\":668:675   */\n      not\n        /* \"#utility.yul\":663:665   */\n      0x1f\n        /* \"#utility.yul\":656:661   */\n      dup4\n        /* \"#utility.yul\":652:666   */\n      add\n        /* \"#utility.yul\":648:676   */\n      and\n        /* \"#utility.yul\":638:676   */\n      swap1\n      pop\n        /* \"#utility.yul\":580:682   */\n      swap2\n      swap1\n      pop\n      jump\t// out\n        /* \"#utility.yul\":688:868   */\n    tag_98:\n        /* \"#utility.yul\":736:813   */\n      0x4e487b7100000000000000000000000000000000000000000000000000000000\n        /* \"#utility.yul\":733:734   */\n      0x00\n        /* \"#utility.yul\":726:814   */\n      mstore\n        /* \"#utility.yul\":833:837   */\n      0x41\n        /* \"#utility.yul\":830:831   */\n      0x04\n        /* \"#utility.yul\":823:838   */\n      mstore\n        /* \"#utility.yul\":857:861   */\n      0x24\n        /* \"#utility.yul\":854:855   */\n      0x00\n        /* \"#utility.yul\":847:862   */\n      revert\n        /* \"#utility.yul\":874:1155   */\n    tag_99:\n        /* \"#utility.yul\":957:984   */\n      tag_139\n        /* \"#utility.yul\":979:983   */\n      dup3\n        /* \"#utility.yul\":957:984   */\n      tag_97\n      jump\t// in\n    tag_139:\n        /* \"#utility.yul\":949:955   */\n      dup2\n        /* \"#utility.yul\":945:985   */\n      add\n        /* \"#utility.yul\":1087:1093   */\n      dup2\n        /* \"#utility.yul\":1075:1085   */\n      dup2\n        /* \"#utility.yul\":1072:1094   */\n      lt\n        /* \"#utility.yul\":1051:1069   */\n      0xffffffffffffffff\n        /* \"#utility.yul\":1039:1049   */\n      dup3\n        /* \"#utility.yul\":1036:1070   */\n      gt\n        /* \"#utility.yul\":1033:1095   */\n      or\n        /* \"#utility.yul\":1030:1118   */\n      iszero\n      tag_140\n      jumpi\n        /* \"#utility.yul\":1098:1116   */\n      tag_141\n      tag_98\n      jump\t// in\n    tag_141:\n        /* \"#utility.yul\":1030:1118   */\n    tag_140:\n        /* \"#utility.yul\":1138:1148   */\n      dup1\n        /* \"#utility.yul\":1134:1136   */\n      0x40\n        /* \"#utility.yul\":1127:1149   */\n      mstore\n        /* \"#utility.yul\":917:1155   */\n      pop\n        /* \"#utility.yul\":874:1155   */\n      pop\n      pop\n      jump\t// out\n        /* \"#utility.yul\":1161:1290   */\n    tag_100:\n        /* \"#utility.yul\":1195:1201   */\n      0x00\n        /* \"#utility.yul\":1222:1242   */\n      tag_143\n      tag_92\n      jump\t// in\n    tag_143:\n        /* \"#utility.yul\":1212:1242   */\n      swap1\n      pop\n        /* \"#utility.yul\":1251:1284   */\n      tag_144\n        /* \"#utility.yul\":1279:1283   */\n      dup3\n        /* \"#utility.yul\":1271:1277   */\n      dup3\n        /* \"#utility.yul\":1251:1284   */\n      tag_99\n      jump\t// in\n    tag_144:\n        /* \"#utility.yul\":1161:1290   */\n      swap2\n      swap1\n      pop\n      jump\t// out\n        /* \"#utility.yul\":1296:1604   */\n    tag_101:\n        /* \"#utility.yul\":1358:1362   */\n      0x00\n        /* \"#utility.yul\":1448:1466   */\n      0xffffffffffffffff\n        /* \"#utility.yul\":1440:1446   */\n      dup3\n        /* \"#utility.yul\":1437:1467   */\n      gt\n        /* \"#utility.yul\":1434:1490   */\n      iszero\n      tag_146\n      jumpi\n        /* \"#utility.yul\":1470:1488   */\n      tag_147\n      tag_98\n      jump\t// in\n    tag_147:\n        /* \"#utility.yul\":1434:1490   */\n    tag_146:\n        /* \"#utility.yul\":1508:1537   */\n      tag_148\n        /* \"#utility.yul\":1530:1536   */\n      dup3\n        /* \"#utility.yul\":1508:1537   */\n      tag_97\n      jump\t// in\n    tag_148:\n        /* \"#utility.yul\":1500:1537   */\n      swap1\n      pop\n        /* \"#utility.yul\":1592:1596   */\n      0x20\n        /* \"#utility.yul\":1586:1590   */\n      dup2\n        /* \"#utility.yul\":1582:1597   */\n      add\n        /* \"#utility.yul\":1574:1597   */\n      swap1\n      pop\n        /* \"#utility.yul\":1296:1604   */\n      swap2\n      swap1\n      pop\n      jump\t// out\n        /* \"#utility.yul\":1610:1758   */\n    tag_102:\n        /* \"#utility.yul\":1708:1714   */\n      dup3\n        /* \"#utility.yul\":1703:1706   */\n      dup2\n        /* \"#utility.yul\":1698:1701   */\n      dup4\n        /* \"#utility.yul\":1685:1715   */\n      calldatacopy\n        /* \"#utility.yul\":1749:1750   */\n      0x00\n        /* \"#utility.yul\":1740:1746   */\n      dup4\n        /* \"#utility.yul\":1735:1738   */\n      dup4\n        /* \"#utility.yul\":1731:1747   */\n      add\n        /* \"#utility.yul\":1724:1751   */\n      mstore\n        /* \"#utility.yul\":1610:1758   */\n      pop\n      pop\n      pop\n      jump\t// out\n        /* \"#utility.yul\":1764:2189   */\n    tag_103:\n        /* \"#utility.yul\":1842:1847   */\n      0x00\n        /* \"#utility.yul\":1867:1933   */\n      tag_151\n        /* \"#utility.yul\":1883:1932   */\n      tag_152\n        /* \"#utility.yul\":1925:1931   */\n      dup5\n        /* \"#utility.yul\":1883:1932   */\n      tag_101\n      jump\t// in\n    tag_152:\n        /* \"#utility.yul\":1867:1933   */\n      tag_100\n      jump\t// in\n    tag_151:\n        /* \"#utility.yul\":1858:1933   */\n      swap1\n      pop\n        /* \"#utility.yul\":1956:1962   */\n      dup3\n        /* \"#utility.yul\":1949:1954   */\n      dup2\n        /* \"#utility.yul\":1942:1963   */\n      mstore\n        /* \"#utility.yul\":1994:1998   */\n      0x20\n        /* \"#utility.yul\":1987:1992   */\n      dup2\n        /* \"#utility.yul\":1983:1999   */\n      add\n        /* \"#utility.yul\":2032:2035   */\n      dup5\n        /* \"#utility.yul\":2023:2029   */\n      dup5\n        /* \"#utility.yul\":2018:2021   */\n      dup5\n        /* \"#utility.yul\":2014:2030   */\n      add\n        /* \"#utility.yul\":2011:2036   */\n      gt\n        /* \"#utility.yul\":2008:2120   */\n      iszero\n      tag_153\n      jumpi\n        /* \"#utility.yul\":2039:2118   */\n      tag_154\n      tag_96\n      jump\t// in\n    tag_154:\n        /* \"#utility.yul\":2008:2120   */\n    tag_153:\n        /* \"#utility.yul\":2129:2183   */\n      tag_155\n        /* \"#utility.yul\":2176:2182   */\n      dup5\n        /* \"#utility.yul\":2171:2174   */\n      dup3\n        /* \"#utility.yul\":2166:2169   */\n      dup6\n        /* \"#utility.yul\":2129:2183   */\n      tag_102\n      jump\t// in\n    tag_155:\n        /* \"#utility.yul\":1848:2189   */\n      pop\n        /* \"#utility.yul\":1764:2189   */\n      swap4\n      swap3\n      pop\n      pop\n      pop\n      jump\t// out\n        /* \"#utility.yul\":2209:2549   */\n    tag_104:\n        /* \"#utility.yul\":2265:2270   */\n      0x00\n        /* \"#utility.yul\":2314:2317   */\n      dup3\n        /* \"#utility.yul\":2307:2311   */\n      0x1f\n        /* \"#utility.yul\":2299:2305   */\n      dup4\n        /* \"#utility.yul\":2295:2312   */\n      add\n        /* \"#utility.yul\":2291:2318   */\n      slt\n        /* \"#utility.yul\":2281:2403   */\n      tag_157\n      jumpi\n        /* \"#utility.yul\":2322:2401   */\n      tag_158\n      tag_95\n      jump\t// in\n    tag_158:\n        /* \"#utility.yul\":2281:2403   */\n    tag_157:\n        /* \"#utility.yul\":2439:2445   */\n      dup2\n        /* \"#utility.yul\":2426:2446   */\n      calldataload\n        /* \"#utility.yul\":2464:2543   */\n      tag_159\n        /* \"#utility.yul\":2539:2542   */\n      dup5\n        /* \"#utility.yul\":2531:2537   */\n      dup3\n        /* \"#utility.yul\":2524:2528   */\n      0x20\n        /* \"#utility.yul\":2516:2522   */\n      dup7\n        /* \"#utility.yul\":2512:2529   */\n      add\n        /* \"#utility.yul\":2464:2543   */\n      tag_103\n      jump\t// in\n    tag_159:\n        /* \"#utility.yul\":2455:2543   */\n      swap2\n      pop\n        /* \"#utility.yul\":2271:2549   */\n      pop\n        /* \"#utility.yul\":2209:2549   */\n      swap3\n      swap2\n      pop\n      pop\n      jump\t// out\n        /* \"#utility.yul\":2555:3064   */\n    tag_13:\n        /* \"#utility.yul\":2624:2630   */\n      0x00\n        /* \"#utility.yul\":2673:2675   */\n      0x20\n        /* \"#utility.yul\":2661:2670   */\n      dup3\n        /* \"#utility.yul\":2652:2659   */\n      dup5\n        /* \"#utility.yul\":2648:2671   */\n      sub\n        /* \"#utility.yul\":2644:2676   */\n      slt\n        /* \"#utility.yul\":2641:2760   */\n      iszero\n      tag_161\n      jumpi\n        /* \"#utility.yul\":2679:2758   */\n      tag_162\n      tag_93\n      jump\t// in\n    tag_162:\n        /* \"#utility.yul\":2641:2760   */\n    tag_161:\n        /* \"#utility.yul\":2827:2828   */\n      0x00\n        /* \"#utility.yul\":2816:2825   */\n      dup3\n        /* \"#utility.yul\":2812:2829   */\n      add\n        /* \"#utility.yul\":2799:2830   */\n      calldataload\n        /* \"#utility.yul\":2857:2875   */\n      0xffffffffffffffff\n        /* \"#utility.yul\":2849:2855   */\n      dup2\n        /* \"#utility.yul\":2846:2876   */\n      gt\n        /* \"#utility.yul\":2843:2960   */\n      iszero\n      tag_163\n      jumpi\n        /* \"#utility.yul\":2879:2958   */\n      tag_164\n      tag_94\n      jump\t// in\n    tag_164:\n        /* \"#utility.yul\":2843:2960   */\n    tag_163:\n        /* \"#utility.yul\":2984:3047   */\n      tag_165\n        /* \"#utility.yul\":3039:3046   */\n      dup5\n        /* \"#utility.yul\":3030:3036   */\n      dup3\n        /* \"#utility.yul\":3019:3028   */\n      dup6\n        /* \"#utility.yul\":3015:3037   */\n      add\n        /* \"#utility.yul\":2984:3047   */\n      tag_104\n      jump\t// in\n    tag_165:\n        /* \"#utility.yul\":2974:3047   */\n      swap2\n      pop\n        /* \"#utility.yul\":2770:3057   */\n      pop\n        /* \"#utility.yul\":2555:3064   */\n      swap3\n      swap2\n      pop\n      pop\n      jump\t// out\n        /* \"#utility.yul\":3070:3147   */\n    tag_105:\n        /* \"#utility.yul\":3107:3114   */\n      0x00\n        /* \"#utility.yul\":3136:3141   */\n      dup2\n        /* \"#utility.yul\":3125:3141   */\n      swap1\n      pop\n        /* \"#utility.yul\":3070:3147   */\n      swap2\n      swap1\n      pop\n      jump\t// out\n        /* \"#utility.yul\":3153:3275   */\n    tag_106:\n        /* \"#utility.yul\":3226:3250   */\n      tag_168\n        /* \"#utility.yul\":3244:3249   */\n      dup2\n        /* \"#utility.yul\":3226:3250   */\n      tag_105\n      jump\t// in\n    tag_168:\n        /* \"#utility.yul\":3219:3224   */\n      dup2\n        /* \"#utility.yul\":3216:3251   */\n      eq\n        /* \"#utility.yul\":3206:3269   */\n      tag_169\n      jumpi\n        /* \"#utility.yul\":3265:3266   */\n      0x00\n        /* \"#utility.yul\":3262:3263   */\n      dup1\n        /* \"#utility.yul\":3255:3267   */\n      revert\n        /* \"#utility.yul\":3206:3269   */\n    tag_169:\n        /* \"#utility.yul\":3153:3275   */\n      pop\n      jump\t// out\n        /* \"#utility.yul\":3281:3420   */\n    tag_107:\n        /* \"#utility.yul\":3327:3332   */\n      0x00\n        /* \"#utility.yul\":3365:3371   */\n      dup2\n        /* \"#utility.yul\":3352:3372   */\n      calldataload\n        /* \"#utility.yul\":3343:3372   */\n      swap1\n      pop\n        /* \"#utility.yul\":3381:3414   */\n      tag_171\n        /* \"#utility.yul\":3408:3413   */\n      dup2\n        /* \"#utility.yul\":3381:3414   */\n      tag_106\n      jump\t// in\n    tag_171:\n        /* \"#utility.yul\":3281:3420   */\n      swap3\n      swap2\n      pop\n      pop\n      jump\t// out\n        /* \"#utility.yul\":3426:3755   */\n    tag_17:\n        /* \"#utility.yul\":3485:3491   */\n      0x00\n        /* \"#utility.yul\":3534:3536   */\n      0x20\n        /* \"#utility.yul\":3522:3531   */\n      dup3\n        /* \"#utility.yul\":3513:3520   */\n      dup5\n        /* \"#utility.yul\":3509:3532   */\n      sub\n        /* \"#utility.yul\":3505:3537   */\n      slt\n        /* \"#utility.yul\":3502:3621   */\n      iszero\n      tag_173\n      jumpi\n        /* \"#utility.yul\":3540:3619   */\n      tag_174\n      tag_93\n      jump\t// in\n    tag_174:\n        /* \"#utility.yul\":3502:3621   */\n    tag_173:\n        /* \"#utility.yul\":3660:3661   */\n      0x00\n        /* \"#utility.yul\":3685:3738   */\n      tag_175\n        /* \"#utility.yul\":3730:3737   */\n      dup5\n        /* \"#utility.yul\":3721:3727   */\n      dup3\n        /* \"#utility.yul\":3710:3719   */\n      dup6\n        /* \"#utility.yul\":3706:3728   */\n      add\n        /* \"#utility.yul\":3685:3738   */\n      tag_107\n      jump\t// in\n    tag_175:\n        /* \"#utility.yul\":3675:3738   */\n      swap2\n      pop\n        /* \"#utility.yul\":3631:3748   */\n      pop\n        /* \"#utility.yul\":3426:3755   */\n      swap3\n      swap2\n      pop\n      pop\n      jump\t// out\n        /* \"#utility.yul\":3761:3860   */\n    tag_108:\n        /* \"#utility.yul\":3813:3819   */\n      0x00\n        /* \"#utility.yul\":3847:3852   */\n      dup2\n        /* \"#utility.yul\":3841:3853   */\n      mload\n        /* \"#utility.yul\":3831:3853   */\n      swap1\n      pop\n        /* \"#utility.yul\":3761:3860   */\n      swap2\n      swap1\n      pop\n      jump\t// out\n        /* \"#utility.yul\":3866:4035   */\n    tag_109:\n        /* \"#utility.yul\":3950:3961   */\n      0x00\n        /* \"#utility.yul\":3984:3990   */\n      dup3\n        /* \"#utility.yul\":3979:3982   */\n      dup3\n        /* \"#utility.yul\":3972:3991   */\n      mstore\n        /* \"#utility.yul\":4024:4028   */\n      0x20\n        /* \"#utility.yul\":4019:4022   */\n      dup3\n        /* \"#utility.yul\":4015:4029   */\n      add\n        /* \"#utility.yul\":4000:4029   */\n      swap1\n      pop\n        /* \"#utility.yul\":3866:4035   */\n      swap3\n      swap2\n      pop\n      pop\n      jump\t// out\n        /* \"#utility.yul\":4041:4180   */\n    tag_110:\n        /* \"#utility.yul\":4130:4136   */\n      dup3\n        /* \"#utility.yul\":4125:4128   */\n      dup2\n        /* \"#utility.yul\":4120:4123   */\n      dup4\n        /* \"#utility.yul\":4114:4137   */\n      mcopy\n        /* \"#utility.yul\":4171:4172   */\n      0x00\n        /* \"#utility.yul\":4162:4168   */\n      dup4\n        /* \"#utility.yul\":4157:4160   */\n      dup4\n        /* \"#utility.yul\":4153:4169   */\n      add\n        /* \"#utility.yul\":4146:4173   */\n      mstore\n        /* \"#utility.yul\":4041:4180   */\n      pop\n      pop\n      pop\n      jump\t// out\n        /* \"#utility.yul\":4186:4563   */\n    tag_111:\n        /* \"#utility.yul\":4274:4277   */\n      0x00\n        /* \"#utility.yul\":4302:4341   */\n      tag_180\n        /* \"#utility.yul\":4335:4340   */\n      dup3\n        /* \"#utility.yul\":4302:4341   */\n      tag_108\n      jump\t// in\n    tag_180:\n        /* \"#utility.yul\":4357:4428   */\n      tag_181\n        /* \"#utility.yul\":4421:4427   */\n      dup2\n        /* \"#utility.yul\":4416:4419   */\n      dup6\n        /* \"#utility.yul\":4357:4428   */\n      tag_109\n      jump\t// in\n    tag_181:\n        /* \"#utility.yul\":4350:4428   */\n      swap4\n      pop\n        /* \"#utility.yul\":4437:4502   */\n      tag_182\n        /* \"#utility.yul\":4495:4501   */\n      dup2\n        /* \"#utility.yul\":4490:4493   */\n      dup6\n        /* \"#utility.yul\":4483:4487   */\n      0x20\n        /* \"#utility.yul\":4476:4481   */\n      dup7\n        /* \"#utility.yul\":4472:4488   */\n      add\n        /* \"#utility.yul\":4437:4502   */\n      tag_110\n      jump\t// in\n    tag_182:\n        /* \"#utility.yul\":4527:4556   */\n      tag_183\n        /* \"#utility.yul\":4549:4555   */\n      dup2\n        /* \"#utility.yul\":4527:4556   */\n      tag_97\n      jump\t// in\n    tag_183:\n        /* \"#utility.yul\":4522:4525   */\n      dup5\n        /* \"#utility.yul\":4518:4557   */\n      add\n        /* \"#utility.yul\":4511:4557   */\n      swap2\n      pop\n        /* \"#utility.yul\":4278:4563   */\n      pop\n        /* \"#utility.yul\":4186:4563   */\n      swap3\n      swap2\n      pop\n      pop\n      jump\t// out\n        /* \"#utility.yul\":4569:4882   */\n    tag_20:\n        /* \"#utility.yul\":4682:4686   */\n      0x00\n        /* \"#utility.yul\":4720:4722   */\n      0x20\n        /* \"#utility.yul\":4709:4718   */\n      dup3\n        /* \"#utility.yul\":4705:4723   */\n      add\n        /* \"#utility.yul\":4697:4723   */\n      swap1\n      pop\n        /* \"#utility.yul\":4769:4778   */\n      dup2\n        /* \"#utility.yul\":4763:4767   */\n      dup2\n        /* \"#utility.yul\":4759:4779   */\n      sub\n        /* \"#utility.yul\":4755:4756   */\n      0x00\n        /* \"#utility.yul\":4744:4753   */\n      dup4\n        /* \"#utility.yul\":4740:4757   */\n      add\n        /* \"#utility.yul\":4733:4780   */\n      mstore\n        /* \"#utility.yul\":4797:4875   */\n      tag_185\n        /* \"#utility.yul\":4870:4874   */\n      dup2\n        /* \"#utility.yul\":4861:4867   */\n      dup5\n        /* \"#utility.yul\":4797:4875   */\n      tag_111\n      jump\t// in\n    tag_185:\n        /* \"#utility.yul\":4789:4875   */\n      swap1\n      pop\n        /* \"#utility.yul\":4569:4882   */\n      swap3\n      swap2\n      pop\n      pop\n      jump\t// out\n        /* \"#utility.yul\":4888:5542   */\n    tag_23:\n        /* \"#utility.yul\":4966:4972   */\n      0x00\n        /* \"#utility.yul\":4974:4980   */\n      dup1\n        /* \"#utility.yul\":5023:5025   */\n      0x40\n        /* \"#utility.yul\":5011:5020   */\n      dup4\n        /* \"#utility.yul\":5002:5009   */\n      dup6\n        /* \"#utility.yul\":4998:5021   */\n      sub\n        /* \"#utility.yul\":4994:5026   */\n      slt\n        /* \"#utility.yul\":4991:5110   */\n      iszero\n      tag_187\n      jumpi\n        /* \"#utility.yul\":5029:5108   */\n      tag_188\n      tag_93\n      jump\t// in\n    tag_188:\n        /* \"#utility.yul\":4991:5110   */\n    tag_187:\n        /* \"#utility.yul\":5149:5150   */\n      0x00\n        /* \"#utility.yul\":5174:5227   */\n      tag_189\n        /* \"#utility.yul\":5219:5226   */\n      dup6\n        /* \"#utility.yul\":5210:5216   */\n      dup3\n        /* \"#utility.yul\":5199:5208   */\n      dup7\n        /* \"#utility.yul\":5195:5217   */\n      add\n        /* \"#utility.yul\":5174:5227   */\n      tag_107\n      jump\t// in\n    tag_189:\n        /* \"#utility.yul\":5164:5227   */\n      swap3\n      pop\n        /* \"#utility.yul\":5120:5237   */\n      pop\n        /* \"#utility.yul\":5304:5306   */\n      0x20\n        /* \"#utility.yul\":5293:5302   */\n      dup4\n        /* \"#utility.yul\":5289:5307   */\n      add\n        /* \"#utility.yul\":5276:5308   */\n      calldataload\n        /* \"#utility.yul\":5335:5353   */\n      0xffffffffffffffff\n        /* \"#utility.yul\":5327:5333   */\n      dup2\n        /* \"#utility.yul\":5324:5354   */\n      gt\n        /* \"#utility.yul\":5321:5438   */\n      iszero\n      tag_190\n      jumpi\n        /* \"#utility.yul\":5357:5436   */\n      tag_191\n      tag_94\n      jump\t// in\n    tag_191:\n        /* \"#utility.yul\":5321:5438   */\n    tag_190:\n        /* \"#utility.yul\":5462:5525   */\n      tag_192\n        /* \"#utility.yul\":5517:5524   */\n      dup6\n        /* \"#utility.yul\":5508:5514   */\n      dup3\n        /* \"#utility.yul\":5497:5506   */\n      dup7\n        /* \"#utility.yul\":5493:5515   */\n      add\n        /* \"#utility.yul\":5462:5525   */\n      tag_104\n      jump\t// in\n    tag_192:\n        /* \"#utility.yul\":5452:5525   */\n      swap2\n      pop\n        /* \"#utility.yul\":5247:5535   */\n      pop\n        /* \"#utility.yul\":4888:5542   */\n      swap3\n      pop\n      swap3\n      swap1\n      pop\n      jump\t// out\n        /* \"#utility.yul\":5548:5666   */\n    tag_112:\n        /* \"#utility.yul\":5635:5659   */\n      tag_194\n        /* \"#utility.yul\":5653:5658   */\n      dup2\n        /* \"#utility.yul\":5635:5659   */\n      tag_105\n      jump\t// in\n    tag_194:\n        /* \"#utility.yul\":5630:5633   */\n      dup3\n        /* \"#utility.yul\":5623:5660   */\n      mstore\n        /* \"#utility.yul\":5548:5666   */\n      pop\n      pop\n      jump\t// out\n        /* \"#utility.yul\":5672:5894   */\n    tag_32:\n        /* \"#utility.yul\":5765:5769   */\n      0x00\n        /* \"#utility.yul\":5803:5805   */\n      0x20\n        /* \"#utility.yul\":5792:5801   */\n      dup3\n        /* \"#utility.yul\":5788:5806   */\n      add\n        /* \"#utility.yul\":5780:5806   */\n      swap1\n      pop\n        /* \"#utility.yul\":5816:5887   */\n      tag_196\n        /* \"#utility.yul\":5884:5885   */\n      0x00\n        /* \"#utility.yul\":5873:5882   */\n      dup4\n        /* \"#utility.yul\":5869:5886   */\n      add\n        /* \"#utility.yul\":5860:5866   */\n      dup5\n        /* \"#utility.yul\":5816:5887   */\n      tag_112\n      jump\t// in\n    tag_196:\n        /* \"#utility.yul\":5672:5894   */\n      swap3\n      swap2\n      pop\n      pop\n      jump\t// out\n        /* \"#utility.yul\":5900:6080   */\n    tag_113:\n        /* \"#utility.yul\":5948:6025   */\n      0x4e487b7100000000000000000000000000000000000000000000000000000000\n        /* \"#utility.yul\":5945:5946   */\n      0x00\n        /* \"#utility.yul\":5938:6026   */\n      mstore\n        /* \"#utility.yul\":6045:6049   */\n      0x22\n        /* \"#utility.yul\":6042:6043   */\n      0x04\n        /* \"#utility.yul\":6035:6050   */\n      mstore\n        /* \"#utility.yul\":6069:6073   */\n      0x24\n        /* \"#utility.yul\":6066:6067   */\n      0x00\n        /* \"#utility.yul\":6059:6074   */\n      revert\n        /* \"#utility.yul\":6086:6406   */\n    tag_50:\n        /* \"#utility.yul\":6130:6136   */\n      0x00\n        /* \"#utility.yul\":6167:6168   */\n      0x02\n        /* \"#utility.yul\":6161:6165   */\n      dup3\n        /* \"#utility.yul\":6157:6169   */\n      div\n        /* \"#utility.yul\":6147:6169   */\n      swap1\n      pop\n        /* \"#utility.yul\":6214:6215   */\n      0x01\n        /* \"#utility.yul\":6208:6212   */\n      dup3\n        /* \"#utility.yul\":6204:6216   */\n      and\n        /* \"#utility.yul\":6235:6253   */\n      dup1\n        /* \"#utility.yul\":6225:6306   */\n      tag_199\n      jumpi\n        /* \"#utility.yul\":6291:6295   */\n      0x7f\n        /* \"#utility.yul\":6283:6289   */\n      dup3\n        /* \"#utility.yul\":6279:6296   */\n      and\n        /* \"#utility.yul\":6269:6296   */\n      swap2\n      pop\n        /* \"#utility.yul\":6225:6306   */\n    tag_199:\n        /* \"#utility.yul\":6353:6355   */\n      0x20\n        /* \"#utility.yul\":6345:6351   */\n      dup3\n        /* \"#utility.yul\":6342:6356   */\n      lt\n        /* \"#utility.yul\":6322:6340   */\n      dup2\n        /* \"#utility.yul\":6319:6357   */\n      sub\n        /* \"#utility.yul\":6316:6400   */\n      tag_200\n      jumpi\n        /* \"#utility.yul\":6372:6390   */\n      tag_201\n      tag_113\n      jump\t// in\n    tag_201:\n        /* \"#utility.yul\":6316:6400   */\n    tag_200:\n        /* \"#utility.yul\":6137:6406   */\n      pop\n        /* \"#utility.yul\":6086:6406   */\n      swap2\n      swap1\n      pop\n      jump\t// out\n        /* \"#utility.yul\":6412:6553   */\n    tag_114:\n        /* \"#utility.yul\":6461:6465   */\n      0x00\n        /* \"#utility.yul\":6484:6487   */\n      dup2\n        /* \"#utility.yul\":6476:6487   */\n      swap1\n      pop\n        /* \"#utility.yul\":6507:6510   */\n      dup2\n        /* \"#utility.yul\":6504:6505   */\n      0x00\n        /* \"#utility.yul\":6497:6511   */\n      mstore\n        /* \"#utility.yul\":6541:6545   */\n      0x20\n        /* \"#utility.yul\":6538:6539   */\n      0x00\n        /* \"#utility.yul\":6528:6546   */\n      keccak256\n        /* \"#utility.yul\":6520:6546   */\n      swap1\n      pop\n        /* \"#utility.yul\":6412:6553   */\n      swap2\n      swap1\n      pop\n      jump\t// out\n        /* \"#utility.yul\":6559:6652   */\n    tag_115:\n        /* \"#utility.yul\":6596:6602   */\n      0x00\n        /* \"#utility.yul\":6643:6645   */\n      0x20\n        /* \"#utility.yul\":6638:6640   */\n      0x1f\n        /* \"#utility.yul\":6631:6636   */\n      dup4\n        /* \"#utility.yul\":6627:6641   */\n      add\n        /* \"#utility.yul\":6623:6646   */\n      div\n        /* \"#utility.yul\":6613:6646   */\n      swap1\n      pop\n        /* \"#utility.yul\":6559:6652   */\n      swap2\n      swap1\n      pop\n      jump\t// out\n        /* \"#utility.yul\":6658:6765   */\n    tag_116:\n        /* \"#utility.yul\":6702:6710   */\n      0x00\n        /* \"#utility.yul\":6752:6757   */\n      dup3\n        /* \"#utility.yul\":6746:6750   */\n      dup3\n        /* \"#utility.yul\":6742:6758   */\n      shl\n        /* \"#utility.yul\":6721:6758   */\n      swap1\n      pop\n        /* \"#utility.yul\":6658:6765   */\n      swap3\n      swap2\n      pop\n      pop\n      jump\t// out\n        /* \"#utility.yul\":6771:7164   */\n    tag_117:\n        /* \"#utility.yul\":6840:6846   */\n      0x00\n        /* \"#utility.yul\":6890:6891   */\n      0x08\n        /* \"#utility.yul\":6878:6888   */\n      dup4\n        /* \"#utility.yul\":6874:6892   */\n      mul\n        /* \"#utility.yul\":6913:7010   */\n      tag_206\n        /* \"#utility.yul\":6943:7009   */\n      0xffffffffffffffffffffffffffffffffffffffffffffffffffffffffffffffff\n        /* \"#utility.yul\":6932:6941   */\n      dup3\n        /* \"#utility.yul\":6913:7010   */\n      tag_116\n      jump\t// in\n    tag_206:\n        /* \"#utility.yul\":7031:7070   */\n      tag_207\n        /* \"#utility.yul\":7061:7069   */\n      dup7\n        /* \"#utility.yul\":7050:7059   */\n      dup4\n        /* \"#utility.yul\":7031:7070   */\n      tag_116\n      jump\t// in\n    tag_207:\n        /* \"#utility.yul\":7019:7070   */\n      swap6\n      pop\n        /* \"#utility.yul\":7103:7107   */\n      dup1\n        /* \"#utility.yul\":7099:7108   */\n      not\n        /* \"#utility.yul\":7092:7097   */\n      dup5\n        /* \"#utility.yul\":7088:7109   */\n      and\n        /* \"#utility.yul\":7079:7109   */\n      swap4\n      pop\n        /* \"#utility.yul\":7152:7156   */\n      dup1\n        /* \"#utility.yul\":7142:7150   */\n      dup7\n        /* \"#utility.yul\":7138:7157   */\n      and\n        /* \"#utility.yul\":7131:7136   */\n      dup5\n        /* \"#utility.yul\":7128:7158   */\n      or\n        /* \"#utility.yul\":7118:7158   */\n      swap3\n      pop\n        /* \"#utility.yul\":6847:7164   */\n      pop\n      pop\n        /* \"#utility.yul\":6771:7164   */\n      swap4\n      swap3\n      pop\n      pop\n      pop\n      jump\t// out\n        /* \"#utility.yul\":7170:7230   */\n    tag_118:\n        /* \"#utility.yul\":7198:7201   */\n      0x00\n        /* \"#utility.yul\":7219:7224   */\n      dup2\n        /* \"#utility.yul\":7212:7224   */\n      swap1\n      pop\n        /* \"#utility.yul\":7170:7230   */\n      swap2\n      swap1\n      pop\n      jump\t// out\n        /* \"#utility.yul\":7236:7378   */\n    tag_119:\n        /* \"#utility.yul\":7286:7295   */\n      0x00\n        /* \"#utility.yul\":7319:7372   */\n      tag_210\n        /* \"#utility.yul\":7337:7371   */\n      tag_211\n        /* \"#utility.yul\":7346:7370   */\n      tag_212\n        /* \"#utility.yul\":7364:7369   */\n      dup5\n        /* \"#utility.yul\":7346:7370   */\n      tag_105\n      jump\t// in\n    tag_212:\n        /* \"#utility.yul\":7337:7371   */\n      tag_118\n      jump\t// in\n    tag_211:\n        /* \"#utility.yul\":7319:7372   */\n      tag_105\n      jump\t// in\n    tag_210:\n        /* \"#utility.yul\":7306:7372   */\n      swap1\n      pop\n        /* \"#utility.yul\":7236:7378   */\n      swap2\n      swap1\n      pop\n      jump\t// out\n        /* \"#utility.yul\":7384:7459   */\n    tag_120:\n        /* \"#utility.yul\":7427:7430   */\n      0x00\n        /* \"#utility.yul\":7448:7453   */\n      dup2\n        /* \"#utility.yul\":7441:7453   */\n      swap1\n      pop\n        /* \"#utility.yul\":7384:7459   */\n      swap2\n      swap1\n      pop\n      jump\t// out\n        /* \"#utility.yul\":7465:7734   */\n    tag_121:\n        /* \"#utility.yul\":7575:7614   */\n      tag_215\n        /* \"#utility.yul\":7606:7613   */\n      dup4\n        /* \"#utility.yul\":7575:7614   */\n      tag_119\n      jump\t// in\n    tag_215:\n        /* \"#utility.yul\":7636:7727   */\n      tag_216\n        /* \"#utility.yul\":7685:7726   */\n      tag_217\n        /* \"#utility.yul\":7709:7725   */\n      dup3\n        /* \"#utility.yul\":7685:7726   */\n      tag_120\n      jump\t// in\n    tag_217:\n        /* \"#utility.yul\":7677:7683   */\n      dup5\n        /* \"#utility.yul\":7670:7674   */\n      dup5\n        /* \"#utility.yul\":7664:7675   */\n      sload\n        /* \"#utility.yul\":7636:7727   */\n      tag_117\n      jump\t// in\n    tag_216:\n        /* \"#utility.yul\":7630:7634   */\n      dup3\n        /* \"#utility.yul\":7623:7728   */\n      sstore\n        /* \"#utility.yul\":7541:7734   */\n      pop\n        /* \"#utility.yul\":7465:7734   */\n      pop\n      pop\n      pop\n      jump\t// out\n        /* \"#utility.yul\":7740:7813   */\n    tag_122:\n        /* \"#utility.yul\":7785:7788   */\n      0x00\n        /* \"#utility.yul\":7740:7813   */\n      swap1\n      jump\t// out\n        /* \"#utility.yul\":7819:8008   */\n    tag_123:\n        /* \"#utility.yul\":7896:7928   */\n      tag_220\n      tag_122\n      jump\t// in\n    tag_220:\n        /* \"#utility.yul\":7937:8002   */\n      tag_221\n        /* \"#utility.yul\":7995:8001   */\n      dup2\n        /* \"#utility.yul\":7987:7993   */\n      dup5\n        /* \"#utility.yul\":7981:7985   */\n      dup5\n        /* \"#utility.yul\":7937:8002   */\n      tag_121\n      jump\t// in\n    tag_221:\n        /* \"#utility.yul\":7872:8008   */\n      pop\n        /* \"#utility.yul\":7819:8008   */\n      pop\n      pop\n      jump\t// out\n        /* \"#utility.yul\":8014:8200   */\n    tag_124:\n        /* \"#utility.yul\":8074:8194   */\n    tag_223:\n        /* \"#utility.yul\":8091:8094   */\n      dup2\n        /* \"#utility.yul\":8084:8089   */\n      dup2\n        /* \"#utility.yul\":8081:8095   */\n      lt\n        /* \"#utility.yul\":8074:8194   */\n      iszero\n      tag_225\n      jumpi\n        /* \"#utility.yul\":8145:8184   */\n      tag_226\n        /* \"#utility.yul\":8182:8183   */\n      0x00\n        /* \"#utility.yul\":8175:8180   */\n      dup3\n        /* \"#utility.yul\":8145:8184   */\n      tag_123\n      jump\t// in\n    tag_226:\n        /* \"#utility.yul\":8118:8119   */\n      0x01\n        /* \"#utility.yul\":8111:8116   */\n      dup2\n        /* \"#utility.yul\":8107:8120   */\n      add\n        /* \"#utility.yul\":8098:8120   */\n      swap1\n      pop\n        /* \"#utility.yul\":8074:8194   */\n      jump(tag_223)\n    tag_225:\n        /* \"#utility.yul\":8014:8200   */\n      pop\n      pop\n      jump\t// out\n        /* \"#utility.yul\":8206:8749   */\n    tag_125:\n        /* \"#utility.yul\":8307:8309   */\n      0x1f\n        /* \"#utility.yul\":8302:8305   */\n      dup3\n        /* \"#utility.yul\":8299:8310   */\n      gt\n        /* \"#utility.yul\":8296:8742   */\n      iszero\n      tag_228\n      jumpi\n        /* \"#utility.yul\":8341:8379   */\n      tag_229\n        /* \"#utility.yul\":8373:8378   */\n      dup2\n        /* \"#utility.yul\":8341:8379   */\n      tag_114\n      jump\t// in\n    tag_229:\n        /* \"#utility.yul\":8425:8454   */\n      tag_230\n        /* \"#utility.yul\":8443:8453   */\n      dup5\n        /* \"#utility.yul\":8425:8454   */\n      tag_115\n      jump\t// in\n    tag_230:\n        /* \"#utility.yul\":8415:8423   */\n      dup2\n        /* \"#utility.yul\":8411:8455   */\n      add\n        /* \"#utility.yul\":8608:8610   */\n      0x20\n        /* \"#utility.yul\":8596:8606   */\n      dup6\n        /* \"#utility.yul\":8593:8611   */\n      lt\n        /* \"#utility.yul\":8590:8639   */\n      iszero\n      tag_231\n      jumpi\n        /* \"#utility.yul\":8629:8637   */\n      dup2\n        /* \"#utility.yul\":8614:8637   */\n      swap1\n      pop\n        /* \"#utility.yul\":8590:8639   */\n    tag_231:\n        /* \"#utility.yul\":8652:8732   */\n      tag_232\n        /* \"#utility.yul\":8708:8730   */\n      tag_233\n        /* \"#utility.yul\":8726:8729   */\n      dup6\n        /* \"#utility.yul\":8708:8730   */\n      tag_115\n      jump\t// in\n    tag_233:\n        /* \"#utility.yul\":8698:8706   */\n      dup4\n        /* \"#utility.yul\":8694:8731   */\n      add\n        /* \"#utility.yul\":8681:8692   */\n      dup3\n        /* \"#utility.yul\":8652:8732   */\n      tag_124\n      jump\t// in\n    tag_232:\n        /* \"#utility.yul\":8311:8742   */\n      pop\n      pop\n        /* \"#utility.yul\":8296:8742   */\n    tag_228:\n        /* \"#utility.yul\":8206:8749   */\n      pop\n      pop\n      pop\n      jump\t// out\n        /* \"#utility.yul\":8755:8872   */\n    tag_126:\n        /* \"#utility.yul\":8809:8817   */\n      0x00\n        /* \"#utility.yul\":8859:8864   */\n      dup3\n        /* \"#utility.yul\":8853:8857   */\n      dup3\n        /* \"#utility.yul\":8849:8865   */\n      shr\n        /* \"#utility.yul\":8828:8865   */\n      swap1\n      pop\n        /* \"#utility.yul\":8755:8872   */\n      swap3\n      swap2\n      pop\n      pop\n      jump\t// out\n        /* \"#utility.yul\":8878:9047   */\n    tag_127:\n        /* \"#utility.yul\":8922:8928   */\n      0x00\n        /* \"#utility.yul\":8955:9006   */\n      tag_236\n        /* \"#utility.yul\":9003:9004   */\n      0x00\n        /* \"#utility.yul\":8999:9005   */\n      not\n        /* \"#utility.yul\":8991:8996   */\n      dup5\n        /* \"#utility.yul\":8988:8989   */\n      0x08\n        /* \"#utility.yul\":8984:8997   */\n      mul\n        /* \"#utility.yul\":8955:9006   */\n      tag_126\n      jump\t// in\n    tag_236:\n        /* \"#utility.yul\":8951:9007   */\n      not\n        /* \"#utility.yul\":9036:9040   */\n      dup1\n        /* \"#utility.yul\":9030:9034   */\n      dup4\n        /* \"#utility.yul\":9026:9041   */\n      and\n        /* \"#utility.yul\":9016:9041   */\n      swap2\n      pop\n        /* \"#utility.yul\":8929:9047   */\n      pop\n        /* \"#utility.yul\":8878:9047   */\n      swap3\n      swap2\n      pop\n      pop\n      jump\t// out\n        /* \"#utility.yul\":9052:9347   */\n    tag_128:\n        /* \"#utility.yul\":9128:9132   */\n      0x00\n        /* \"#utility.yul\":9274:9303   */\n      tag_238\n        /* \"#utility.yul\":9299:9302   */\n      dup4\n        /* \"#utility.yul\":9293:9297   */\n      dup4\n        /* \"#utility.yul\":9274:9303   */\n      tag_127\n      jump\t// in\n    tag_238:\n        /* \"#utility.yul\":9266:9303   */\n      swap2\n      pop\n        /* \"#utility.yul\":9336:9339   */\n      dup3\n        /* \"#utility.yul\":9333:9334   */\n      0x02\n        /* \"#utility.yul\":9329:9340   */\n      mul\n        /* \"#utility.yul\":9323:9327   */\n      dup3\n        /* \"#utility.yul\":9320:9341   */\n      or\n        /* \"#utility.yul\":9312:9341   */\n      swap1\n      pop\n        /* \"#utility.yul\":9052:9347   */\n      swap3\n      swap2\n      pop\n      pop\n      jump\t// out\n        /* \"#utility.yul\":9352:10747   */\n    tag_41:\n        /* \"#utility.yul\":9469:9506   */\n      tag_240\n        /* \"#utility.yul\":9502:9505   */\n      dup3\n        /* \"#utility.yul\":9469:9506   */\n      tag_108\n      jump\t// in\n    tag_240:\n        /* \"#utility.yul\":9571:9589   */\n      0xffffffffffffffff\n        /* \"#utility.yul\":9563:9569   */\n      dup2\n        /* \"#utility.yul\":9560:9590   */\n      gt\n        /* \"#utility.yul\":9557:9613   */\n      iszero\n      tag_241\n      jumpi\n        /* \"#utility.yul\":9593:9611   */\n      tag_242\n      tag_98\n      jump\t// in\n    tag_242:\n        /* \"#utility.yul\":9557:9613   */\n    tag_241:\n        /* \"#utility.yul\":9637:9675   */\n      tag_243\n        /* \"#utility.yul\":9669:9673   */\n      dup3\n        /* \"#utility.yul\":9663:9674   */\n      sload\n        /* \"#utility.yul\":9637:9675   */\n      tag_50\n      jump\t// in\n    tag_243:\n        /* \"#utility.yul\":9722:9789   */\n      tag_244\n        /* \"#utility.yul\":9782:9788   */\n      dup3\n        /* \"#utility.yul\":9774:9780   */\n      dup3\n        /* \"#utility.yul\":9768:9772   */\n      dup6\n        /* \"#utility.yul\":9722:9789   */\n      tag_125\n      jump\t// in\n    tag_244:\n        /* \"#utility.yul\":9816:9817   */\n      0x00\n        /* \"#utility.yul\":9840:9844   */\n      0x20\n        /* \"#utility.yul\":9827:9844   */\n      swap1\n      pop\n        /* \"#utility.yul\":9872:9874   */\n      0x1f\n        /* \"#utility.yul\":9864:9870   */\n      dup4\n        /* \"#utility.yul\":9861:9875   */\n      gt\n        /* \"#utility.yul\":9889:9890   */\n      0x01\n        /* \"#utility.yul\":9884:10502   */\n      dup2\n      eq\n      tag_246\n      jumpi\n        /* \"#utility.yul\":10546:10547   */\n      0x00\n        /* \"#utility.yul\":10563:10569   */\n      dup5\n        /* \"#utility.yul\":10560:10637   */\n      iszero\n      tag_247\n      jumpi\n        /* \"#utility.yul\":10612:10621   */\n      dup3\n        /* \"#utility.yul\":10607:10610   */\n      dup8\n        /* \"#utility.yul\":10603:10622   */\n      add\n        /* \"#utility.yul\":10597:10623   */\n      mload\n        /* \"#utility.yul\":10588:10623   */\n      swap1\n      pop\n        /* \"#utility.yul\":10560:10637   */\n    tag_247:\n        /* \"#utility.yul\":10663:10730   */\n      tag_248\n        /* \"#utility.yul\":10723:10729   */\n      dup6\n        /* \"#utility.yul\":10716:10721   */\n      dup3\n        /* \"#utility.yul\":10663:10730   */\n      tag_128\n      jump\t// in\n    tag_248:\n        /* \"#utility.yul\":10657:10661   */\n      dup7\n        /* \"#utility.yul\":10650:10731   */\n      sstore\n        /* \"#utility.yul\":10519:10741   */\n      pop\n        /* \"#utility.yul\":9854:10741   */\n      jump(tag_245)\n        /* \"#utility.yul\":9884:10502   */\n    tag_246:\n        /* \"#utility.yul\":9936:9940   */\n      0x1f\n        /* \"#utility.yul\":9932:9941   */\n      not\n        /* \"#utility.yul\":9924:9930   */\n      dup5\n        /* \"#utility.yul\":9920:9942   */\n      and\n        /* \"#utility.yul\":9970:10007   */\n      tag_249\n        /* \"#utility.yul\":10002:10006   */\n      dup7\n        /* \"#utility.yul\":9970:10007   */\n      tag_114\n      jump\t// in\n    tag_249:\n        /* \"#utility.yul\":10029:10030   */\n      0x00\n        /* \"#utility.yul\":10043:10251   */\n    tag_250:\n        /* \"#utility.yul\":10057:10064   */\n      dup3\n        /* \"#utility.yul\":10054:10055   */\n      dup2\n        /* \"#utility.yul\":10051:10065   */\n      lt\n        /* \"#utility.yul\":10043:10251   */\n      iszero\n      tag_252\n      jumpi\n        /* \"#utility.yul\":10136:10145   */\n      dup5\n        /* \"#utility.yul\":10131:10134   */\n      dup10\n        /* \"#utility.yul\":10127:10146   */\n      add\n        /* \"#utility.yul\":10121:10147   */\n      mload\n        /* \"#utility.yul\":10113:10119   */\n      dup3\n        /* \"#utility.yul\":10106:10148   */\n      sstore\n        /* \"#utility.yul\":10187:10188   */\n      0x01\n        /* \"#utility.yul\":10179:10185   */\n      dup3\n        /* \"#utility.yul\":10175:10189   */\n      add\n        /* \"#utility.yul\":10165:10189   */\n      swap2\n      pop\n        /* \"#utility.yul\":10234:10236   */\n      0x20\n        /* \"#utility.yul\":10223:10232   */\n      dup6\n        /* \"#utility.yul\":10219:10237   */\n      add\n        /* \"#utility.yul\":10206:10237   */\n      swap5\n      pop\n        /* \"#utility.yul\":10080:10084   */\n      0x20\n        /* \"#utility.yul\":10077:10078   */\n      dup2\n        /* \"#utility.yul\":10073:10085   */\n      add\n        /* \"#utility.yul\":10068:10085   */\n      swap1\n      pop\n        /* \"#utility.yul\":10043:10251   */\n      jump(tag_250)\n    tag_252:\n        /* \"#utility.yul\":10279:10285   */\n      dup7\n        /* \"#utility.yul\":10270:10277   */\n      dup4\n        /* \"#utility.yul\":10267:10286   */\n      lt\n        /* \"#utility.yul\":10264:10443   */\n      iszero\n      tag_253\n      jumpi\n        /* \"#utility.yul\":10337:10346   */\n      dup5\n        /* \"#utility.yul\":10332:10335   */\n      dup10\n        /* \"#utility.yul\":10328:10347   */\n      add\n        /* \"#utility.yul\":10322:10348   */\n      mload\n        /* \"#utility.yul\":10380:10428   */\n      tag_254\n        /* \"#utility.yul\":10422:10426   */\n      0x1f\n        /* \"#utility.yul\":10414:10420   */\n      dup10\n        /* \"#utility.yul\":10410:10427   */\n      and\n        /* \"#utility.yul\":10399:10408   */\n      dup3\n        /* \"#utility.yul\":10380:10428   */\n      tag_127\n      jump\t// in\n    tag_254:\n        /* \"#utility.yul\":10372:10378   */\n      dup4\n        /* \"#utility.yul\":10365:10429   */\n      sstore\n        /* \"#utility.yul\":10287:10443   */\n      pop\n        /* \"#utility.yul\":10264:10443   */\n    tag_253:\n        /* \"#utility.yul\":10489:10490   */\n      0x01\n        /* \"#utility.yul\":10485:10486   */\n      0x02\n        /* \"#utility.yul\":10477:10483   */\n      dup9\n        /* \"#utility.yul\":10473:10487   */\n      mul\n        /* \"#utility.yul\":10469:10491   */\n      add\n        /* \"#utility.yul\":10463:10467   */\n      dup9\n        /* \"#utility.yul\":10456:10492   */\n      sstore\n        /* \"#utility.yul\":9891:10502   */\n      pop\n      pop\n      pop\n        /* \"#utility.yul\":9854:10741   */\n    tag_245:\n      pop\n        /* \"#utility.yul\":9444:10747   */\n      pop\n      pop\n      pop\n        /* \"#utility.yul\":9352:10747   */\n      pop\n      pop\n      jump\t// out\n        /* \"#utility.yul\":10753:10933   */\n    tag_129:\n        /* \"#utility.yul\":10801:10878   */\n      0x4e487b7100000000000000000000000000000000000000000000000000000000\n        /* \"#utility.yul\":10798:10799   */\n      0x00\n        /* \"#utility.yul\":10791:10879   */\n      mstore\n        /* \"#utility.yul\":10898:10902   */\n      0x11\n        /* \"#utility.yul\":10895:10896   */\n      0x04\n        /* \"#utility.yul\":10888:10903   */\n      mstore\n        /* \"#utility.yul\":10922:10926   */\n      0x24\n        /* \"#utility.yul\":10919:10920   */\n      0x00\n        /* \"#utility.yul\":10912:10927   */\n      revert\n        /* \"#utility.yul\":10939:11133   */\n    tag_44:\n        /* \"#utility.yul\":10979:10983   */\n      0x00\n        /* \"#utility.yul\":10999:11019   */\n      tag_257\n        /* \"#utility.yul\":11017:11018   */\n      dup3\n        /* \"#utility.yul\":10999:11019   */\n      tag_105\n      jump\t// in\n    tag_257:\n        /* \"#utility.yul\":10994:11019   */\n      swap2\n      pop\n        /* \"#utility.yul\":11033:11053   */\n      tag_258\n        /* \"#utility.yul\":11051:11052   */\n      dup4\n        /* \"#utility.yul\":11033:11053   */\n      tag_105\n      jump\t// in\n    tag_258:\n        /* \"#utility.yul\":11028:11053   */\n      swap3\n      pop\n        /* \"#utility.yul\":11077:11078   */\n      dup3\n        /* \"#utility.yul\":11074:11075   */\n      dup3\n        /* \"#utility.yul\":11070:11079   */\n      sub\n        /* \"#utility.yul\":11062:11079   */\n      swap1\n      pop\n        /* \"#utility.yul\":11101:11102   */\n      dup2\n        /* \"#utility.yul\":11095:11099   */\n      dup2\n        /* \"#utility.yul\":11092:11103   */\n      gt\n        /* \"#utility.yul\":11089:11126   */\n      iszero\n      tag_259\n      jumpi\n        /* \"#utility.yul\":11106:11124   */\n      tag_260\n      tag_129\n      jump\t// in\n    tag_260:\n        /* \"#utility.yul\":11089:11126   */\n    tag_259:\n        /* \"#utility.yul\":10939:11133   */\n      swap3\n      swap2\n      pop\n      pop\n      jump\t// out\n        /* \"#utility.yul\":11139:11319   */\n    tag_47:\n        /* \"#utility.yul\":11187:11264   */\n      0x4e487b7100000000000000000000000000000000000000000000000000000000\n        /* \"#utility.yul\":11184:11185   */\n      0x00\n        /* \"#utility.yul\":11177:11265   */\n      mstore\n        /* \"#utility.yul\":11284:11288   */\n      0x32\n        /* \"#utility.yul\":11281:11282   */\n      0x04\n        /* \"#utility.yul\":11274:11289   */\n      mstore\n        /* \"#utility.yul\":11308:11312   */\n      0x24\n        /* \"#utility.yul\":11305:11306   */\n      0x00\n        /* \"#utility.yul\":11298:11313   */\n      revert\n        /* \"#utility.yul\":11325:11505   */\n    tag_75:\n        /* \"#utility.yul\":11373:11450   */\n      0x4e487b7100000000000000000000000000000000000000000000000000000000\n        /* \"#utility.yul\":11370:11371   */\n      0x00\n        /* \"#utility.yul\":11363:11451   */\n      mstore\n        /* \"#utility.yul\":11470:11474   */\n      0x31\n        /* \"#utility.yul\":11467:11468   */\n      0x04\n        /* \"#utility.yul\":11460:11475   */\n      mstore\n        /* \"#utility.yul\":11494:11498   */\n      0x24\n        /* \"#utility.yul\":11491:11492   */\n      0x00\n        /* \"#utility.yul\":11484:11499   */\n      revert\n\n    auxdata: 0xa2646970667358221220da22f52d4a665c87c5a2ec8c63161a631799fecaf99dc1562f7b9872779aca4964736f6c634300081a0033\n}\n",
				"bytecode": {
					"linkReferences": {},
					"object": "6080604052348015600e575f80fd5b50610a9f8061001c5f395ff3fe608060405234801561000f575f80fd5b506004361061007b575f3560e01c806396e583a91161005957806396e583a9146100e7578063b599dd8514610117578063b810c80e14610135578063ef25d8171461013f5761007b565b8063495931fb1461007f578063737c01661461009b5780637563517e146100cb575b5f80fd5b6100996004803603810190610094919061053f565b61015b565b005b6100b560048036038101906100b091906105b9565b61018f565b6040516100c29190610644565b60405180910390f35b6100e560048036038101906100e09190610664565b61023f565b005b61010160048036038101906100fc91906105b9565b610278565b60405161010e9190610644565b60405180910390f35b61011f61032f565b60405161012c91906106cd565b60405180910390f35b61013d61033a565b005b61015960048036038101906101549190610664565b610368565b005b5f81908060018154018082558091505060019003905f5260205f20015f90919091909150908161018b91906108e0565b5050565b60606001808361019f91906109dc565b600781106101b0576101af610a0f565b5b0180546101bc90610713565b80601f01602080910402602001604051908101604052809291908181526020018280546101e890610713565b80156102335780601f1061020a57610100808354040283529160200191610233565b820191905f5260205f20905b81548152906001019060200180831161021657829003601f168201915b50505050509050919050565b805f60018461024e91906109dc565b8154811061025f5761025e610a0f565b5b905f5260205f2001908161027391906108e0565b505050565b60605f60018361028891906109dc565b8154811061029957610298610a0f565b5b905f5260205f200180546102ac90610713565b80601f01602080910402602001604051908101604052809291908181526020018280546102d890610713565b80156103235780601f106102fa57610100808354040283529160200191610323565b820191905f5260205f20905b81548152906001019060200180831161030657829003601f168201915b50505050509050919050565b5f8080549050905090565b5f80548061034b5761034a610a3c565b5b600190038181905f5260205f20015f610364919061039a565b9055565b806001808461037791906109dc565b6007811061038857610387610a0f565b5b01908161039591906108e0565b505050565b5080546103a690610713565b5f825580601f106103b757506103d4565b601f0160209004905f5260205f20908101906103d391906103d7565b5b50565b5b808211156103ee575f815f9055506001016103d8565b5090565b5f604051905090565b5f80fd5b5f80fd5b5f80fd5b5f80fd5b5f601f19601f8301169050919050565b7f4e487b71000000000000000000000000000000000000000000000000000000005f52604160045260245ffd5b6104518261040b565b810181811067ffffffffffffffff821117156104705761046f61041b565b5b80604052505050565b5f6104826103f2565b905061048e8282610448565b919050565b5f67ffffffffffffffff8211156104ad576104ac61041b565b5b6104b68261040b565b9050602081019050919050565b828183375f83830152505050565b5f6104e36104de84610493565b610479565b9050828152602081018484840111156104ff576104fe610407565b5b61050a8482856104c3565b509392505050565b5f82601f83011261052657610525610403565b5b81356105368482602086016104d1565b91505092915050565b5f60208284031215610554576105536103fb565b5b5f82013567ffffffffffffffff811115610571576105706103ff565b5b61057d84828501610512565b91505092915050565b5f819050919050565b61059881610586565b81146105a2575f80fd5b50565b5f813590506105b38161058f565b92915050565b5f602082840312156105ce576105cd6103fb565b5b5f6105db848285016105a5565b91505092915050565b5f81519050919050565b5f82825260208201905092915050565b8281835e5f83830152505050565b5f610616826105e4565b61062081856105ee565b93506106308185602086016105fe565b6106398161040b565b840191505092915050565b5f6020820190508181035f83015261065c818461060c565b905092915050565b5f806040838503121561067a576106796103fb565b5b5f610687858286016105a5565b925050602083013567ffffffffffffffff8111156106a8576106a76103ff565b5b6106b485828601610512565b9150509250929050565b6106c781610586565b82525050565b5f6020820190506106e05f8301846106be565b92915050565b7f4e487b71000000000000000000000000000000000000000000000000000000005f52602260045260245ffd5b5f600282049050600182168061072a57607f821691505b60208210810361073d5761073c6106e6565b5b50919050565b5f819050815f5260205f209050919050565b5f6020601f8301049050919050565b5f82821b905092915050565b5f6008830261079f7fffffffffffffffffffffffffffffffffffffffffffffffffffffffffffffffff82610764565b6107a98683610764565b95508019841693508086168417925050509392505050565b5f819050919050565b5f6107e46107df6107da84610586565b6107c1565b610586565b9050919050565b5f819050919050565b6107fd836107ca565b610811610809826107eb565b848454610770565b825550505050565b5f90565b610825610819565b6108308184846107f4565b505050565b5b81811015610853576108485f8261081d565b600181019050610836565b5050565b601f8211156108985761086981610743565b61087284610755565b81016020851015610881578190505b61089561088d85610755565b830182610835565b50505b505050565b5f82821c905092915050565b5f6108b85f198460080261089d565b1980831691505092915050565b5f6108d083836108a9565b9150826002028217905092915050565b6108e9826105e4565b67ffffffffffffffff8111156109025761090161041b565b5b61090c8254610713565b610917828285610857565b5f60209050601f831160018114610948575f8415610936578287015190505b61094085826108c5565b8655506109a7565b601f19841661095686610743565b5f5b8281101561097d57848901518255600182019150602085019450602081019050610958565b8683101561099a5784890151610996601f8916826108a9565b8355505b6001600288020188555050505b505050505050565b7f4e487b71000000000000000000000000000000000000000000000000000000005f52601160045260245ffd5b5f6109e682610586565b91506109f183610586565b9250828203905081811115610a0957610a086109af565b5b92915050565b7f4e487b71000000000000000000000000000000000000000000000000000000005f52603260045260245ffd5b7f4e487b71000000000000000000000000000000000000000000000000000000005f52603160045260245ffdfea2646970667358221220da22f52d4a665c87c5a2ec8c63161a631799fecaf99dc1562f7b9872779aca4964736f6c634300081a0033",
					"opcodes": "PUSH1 0x80 PUSH1 0x40 MSTORE CALLVALUE DUP1 ISZERO PUSH1 0xE JUMPI PUSH0 DUP1 REVERT JUMPDEST POP PUSH2 0xA9F DUP1 PUSH2 0x1C PUSH0 CODECOPY PUSH0 RETURN INVALID PUSH1 0x80 PUSH1 0x40 MSTORE CALLVALUE DUP1 ISZERO PUSH2 0xF JUMPI PUSH0 DUP1 REVERT JUMPDEST POP PUSH1 0x4 CALLDATASIZE LT PUSH2 0x7B JUMPI PUSH0 CALLDATALOAD PUSH1 0xE0 SHR DUP1 PUSH4 0x96E583A9 GT PUSH2 0x59 JUMPI DUP1 PUSH4 0x96E583A9 EQ PUSH2 0xE7 JUMPI DUP1 PUSH4 0xB599DD85 EQ PUSH2 0x117 JUMPI DUP1 PUSH4 0xB810C80E EQ PUSH2 0x135 JUMPI DUP1 PUSH4 0xEF25D817 EQ PUSH2 0x13F JUMPI PUSH2 0x7B JUMP JUMPDEST DUP1 PUSH4 0x495931FB EQ PUSH2 0x7F JUMPI DUP1 PUSH4 0x737C0166 EQ PUSH2 0x9B JUMPI DUP1 PUSH4 0x7563517E EQ PUSH2 0xCB JUMPI JUMPDEST PUSH0 DUP1 REVERT JUMPDEST PUSH2 0x99 PUSH1 0x4 DUP1 CALLDATASIZE SUB DUP2 ADD SWAP1 PUSH2 0x94 SWAP2 SWAP1 PUSH2 0x53F JUMP JUMPDEST PUSH2 0x15B JUMP JUMPDEST STOP JUMPDEST PUSH2 0xB5 PUSH1 0x4 DUP1 CALLDATASIZE SUB DUP2 ADD SWAP1 PUSH2 0xB0 SWAP2 SWAP1 PUSH2 0x5B9 JUMP JUMPDEST PUSH2 0x18F JUMP JUMPDEST PUSH1 0x40 MLOAD PUSH2 0xC2 SWAP2 SWAP1 PUSH2 0x644 JUMP JUMPDEST PUSH1 0x40 MLOAD DUP1 SWAP2 SUB SWAP1 RETURN JUMPDEST PUSH2 0xE5 PUSH1 0x4 DUP1 CALLDATASIZE SUB DUP2 ADD SWAP1 PUSH2 0xE0 SWAP2 SWAP1 PUSH2 0x664 JUMP JUMPDEST PUSH2 0x23F JUMP JUMPDEST STOP JUMPDEST PUSH2 0x101 PUSH1 0x4 DUP1 CALLDATASIZE SUB DUP2 ADD SWAP1 PUSH2 0xFC SWAP2 SWAP1 PUSH2 0x5B9 JUMP JUMPDEST PUSH2 0x278 JUMP JUMPDEST PUSH1 0x40 MLOAD PUSH2 0x10E SWAP2 SWAP1 PUSH2 0x644 JUMP JUMPDEST PUSH1 0x40 MLOAD DUP1 SWAP2 SUB SWAP1 RETURN JUMPDEST PUSH2 0x11F PUSH2 0x32F JUMP JUMPDEST PUSH1 0x40 MLOAD PUSH2 0x12C SWAP2 SWAP1 PUSH2 0x6CD JUMP JUMPDEST PUSH1 0x40 MLOAD DUP1 SWAP2 SUB SWAP1 RETURN JUMPDEST PUSH2 0x13D PUSH2 0x33A JUMP JUMPDEST STOP JUMPDEST PUSH2 0x159 PUSH1 0x4 DUP1 CALLDATASIZE SUB DUP2 ADD SWAP1 PUSH2 0x154 SWAP2 SWAP1 PUSH2 0x664 JUMP JUMPDEST PUSH2 0x368 JUMP JUMPDEST STOP JUMPDEST PUSH0 DUP2 SWAP1 DUP1 PUSH1 0x1 DUP2 SLOAD ADD DUP1 DUP3 SSTORE DUP1 SWAP2 POP POP PUSH1 0x1 SWAP1 SUB SWAP1 PUSH0 MSTORE PUSH1 0x20 PUSH0 KECCAK256 ADD PUSH0 SWAP1 SWAP2 SWAP1 SWAP2 SWAP1 SWAP2 POP SWAP1 DUP2 PUSH2 0x18B SWAP2 SWAP1 PUSH2 0x8E0 JUMP JUMPDEST POP POP JUMP JUMPDEST PUSH1 0x60 PUSH1 0x1 DUP1 DUP4 PUSH2 0x19F SWAP2 SWAP1 PUSH2 0x9DC JUMP JUMPDEST PUSH1 0x7 DUP2 LT PUSH2 0x1B0 JUMPI PUSH2 0x1AF PUSH2 0xA0F JUMP JUMPDEST JUMPDEST ADD DUP1 SLOAD PUSH2 0x1BC SWAP1 PUSH2 0x713 JUMP JUMPDEST DUP1 PUSH1 0x1F ADD PUSH1 0x20 DUP1 SWAP2 DIV MUL PUSH1 0x20 ADD PUSH1 0x40 MLOAD SWAP1 DUP2 ADD PUSH1 0x40 MSTORE DUP1 SWAP3 SWAP2 SWAP1 DUP2 DUP2 MSTORE PUSH1 0x20 ADD DUP3 DUP1 SLOAD PUSH2 0x1E8 SWAP1 PUSH2 0x713 JUMP JUMPDEST DUP1 ISZERO PUSH2 0x233 JUMPI DUP1 PUSH1 0x1F LT PUSH2 0x20A JUMPI PUSH2 0x100 DUP1 DUP4 SLOAD DIV MUL DUP4 MSTORE SWAP2 PUSH1 0x20 ADD SWAP2 PUSH2 0x233 JUMP JUMPDEST DUP3 ADD SWAP2 SWAP1 PUSH0 MSTORE PUSH1 0x20 PUSH0 KECCAK256 SWAP1 JUMPDEST DUP2 SLOAD DUP2 MSTORE SWAP1 PUSH1 0x1 ADD SWAP1 PUSH1 0x20 ADD DUP1 DUP4 GT PUSH2 0x216 JUMPI DUP3 SWAP1 SUB PUSH1 0x1F AND DUP3 ADD SWAP2 JUMPDEST POP POP POP POP POP SWAP1 POP SWAP2 SWAP1 POP JUMP JUMPDEST DUP1 PUSH0 PUSH1 0x1 DUP5 PUSH2 0x24E SWAP2 SWAP1 PUSH2 0x9DC JUMP JUMPDEST DUP2 SLOAD DUP2 LT PUSH2 0x25F JUMPI PUSH2 0x25E PUSH2 0xA0F JUMP JUMPDEST JUMPDEST SWAP1 PUSH0 MSTORE PUSH1 0x20 PUSH0 KECCAK256 ADD SWAP1 DUP2 PUSH2 0x273 SWAP2 SWAP1 PUSH2 0x8E0 JUMP JUMPDEST POP POP POP JUMP JUMPDEST PUSH1 0x60 PUSH0 PUSH1 0x1 DUP4 PUSH2 0x288 SWAP2 SWAP1 PUSH2 0x9DC JUMP JUMPDEST DUP2 SLOAD DUP2 LT PUSH2 0x299 JUMPI PUSH2 0x298 PUSH2 0xA0F JUMP JUMPDEST JUMPDEST SWAP1 PUSH0 MSTORE PUSH1 0x20 PUSH0 KECCAK256 ADD DUP1 SLOAD PUSH2 0x2AC SWAP1 PUSH2 0x713 JUMP JUMPDEST DUP1 PUSH1 0x1F ADD PUSH1 0x20 DUP1 SWAP2 DIV MUL PUSH1 0x20 ADD PUSH1 0x40 MLOAD SWAP1 DUP2 ADD PUSH1 0x40 MSTORE DUP1 SWAP3 SWAP2 SWAP1 DUP2 DUP2 MSTORE PUSH1 0x20 ADD DUP3 DUP1 SLOAD PUSH2 0x2D8 SWAP1 PUSH2 0x713 JUMP JUMPDEST DUP1 ISZERO PUSH2 0x323 JUMPI DUP1 PUSH1 0x1F LT PUSH2 0x2FA JUMPI PUSH2 0x100 DUP1 DUP4 SLOAD DIV MUL DUP4 MSTORE SWAP2 PUSH1 0x20 ADD SWAP2 PUSH2 0x323 JUMP JUMPDEST DUP3 ADD SWAP2 SWAP1 PUSH0 MSTORE PUSH1 0x20 PUSH0 KECCAK256 SWAP1 JUMPDEST DUP2 SLOAD DUP2 MSTORE SWAP1 PUSH1 0x1 ADD SWAP1 PUSH1 0x20 ADD DUP1 DUP4 GT PUSH2 0x306 JUMPI DUP3 SWAP1 SUB PUSH1 0x1F AND DUP3 ADD SWAP2 JUMPDEST POP POP POP POP POP SWAP1 POP SWAP2 SWAP1 POP JUMP JUMPDEST PUSH0 DUP1 DUP1 SLOAD SWAP1 POP SWAP1 POP SWAP1 JUMP JUMPDEST PUSH0 DUP1 SLOAD DUP1 PUSH2 0x34B JUMPI PUSH2 0x34A PUSH2 0xA3C JUMP JUMPDEST JUMPDEST PUSH1 0x1 SWAP1 SUB DUP2 DUP2 SWAP1 PUSH0 MSTORE PUSH1 0x20 PUSH0 KECCAK256 ADD PUSH0 PUSH2 0x364 SWAP2 SWAP1 PUSH2 0x39A JUMP JUMPDEST SWAP1 SSTORE JUMP JUMPDEST DUP1 PUSH1 0x1 DUP1 DUP5 PUSH2 0x377 SWAP2 SWAP1 PUSH2 0x9DC JUMP JUMPDEST PUSH1 0x7 DUP2 LT PUSH2 0x388 JUMPI PUSH2 0x387 PUSH2 0xA0F JUMP JUMPDEST JUMPDEST ADD SWAP1 DUP2 PUSH2 0x395 SWAP2 SWAP1 PUSH2 0x8E0 JUMP JUMPDEST POP POP POP JUMP JUMPDEST POP DUP1 SLOAD PUSH2 0x3A6 SWAP1 PUSH2 0x713 JUMP JUMPDEST PUSH0 DUP3 SSTORE DUP1 PUSH1 0x1F LT PUSH2 0x3B7 JUMPI POP PUSH2 0x3D4 JUMP JUMPDEST PUSH1 0x1F ADD PUSH1 0x20 SWAP1 DIV SWAP1 PUSH0 MSTORE PUSH1 0x20 PUSH0 KECCAK256 SWAP1 DUP2 ADD SWAP1 PUSH2 0x3D3 SWAP2 SWAP1 PUSH2 0x3D7 JUMP JUMPDEST JUMPDEST POP JUMP JUMPDEST JUMPDEST DUP1 DUP3 GT ISZERO PUSH2 0x3EE JUMPI PUSH0 DUP2 PUSH0 SWAP1 SSTORE POP PUSH1 0x1 ADD PUSH2 0x3D8 JUMP JUMPDEST POP SWAP1 JUMP JUMPDEST PUSH0 PUSH1 0x40 MLOAD SWAP1 POP SWAP1 JUMP JUMPDEST PUSH0 DUP1 REVERT JUMPDEST PUSH0 DUP1 REVERT JUMPDEST PUSH0 DUP1 REVERT JUMPDEST PUSH0 DUP1 REVERT JUMPDEST PUSH0 PUSH1 0x1F NOT PUSH1 0x1F DUP4 ADD AND SWAP1 POP SWAP2 SWAP1 POP JUMP JUMPDEST PUSH32 0x4E487B7100000000000000000000000000000000000000000000000000000000 PUSH0 MSTORE PUSH1 0x41 PUSH1 0x4 MSTORE PUSH1 0x24 PUSH0 REVERT JUMPDEST PUSH2 0x451 DUP3 PUSH2 0x40B JUMP JUMPDEST DUP2 ADD DUP2 DUP2 LT PUSH8 0xFFFFFFFFFFFFFFFF DUP3 GT OR ISZERO PUSH2 0x470 JUMPI PUSH2 0x46F PUSH2 0x41B JUMP JUMPDEST JUMPDEST DUP1 PUSH1 0x40 MSTORE POP POP POP JUMP JUMPDEST PUSH0 PUSH2 0x482 PUSH2 0x3F2 JUMP JUMPDEST SWAP1 POP PUSH2 0x48E DUP3 DUP3 PUSH2 0x448 JUMP JUMPDEST SWAP2 SWAP1 POP JUMP JUMPDEST PUSH0 PUSH8 0xFFFFFFFFFFFFFFFF DUP3 GT ISZERO PUSH2 0x4AD JUMPI PUSH2 0x4AC PUSH2 0x41B JUMP JUMPDEST JUMPDEST PUSH2 0x4B6 DUP3 PUSH2 0x40B JUMP JUMPDEST SWAP1 POP PUSH1 0x20 DUP2 ADD SWAP1 POP SWAP2 SWAP1 POP JUMP JUMPDEST DUP3 DUP2 DUP4 CALLDATACOPY PUSH0 DUP4 DUP4 ADD MSTORE POP POP POP JUMP JUMPDEST PUSH0 PUSH2 0x4E3 PUSH2 0x4DE DUP5 PUSH2 0x493 JUMP JUMPDEST PUSH2 0x479 JUMP JUMPDEST SWAP1 POP DUP3 DUP2 MSTORE PUSH1 0x20 DUP2 ADD DUP5 DUP5 DUP5 ADD GT ISZERO PUSH2 0x4FF JUMPI PUSH2 0x4FE PUSH2 0x407 JUMP JUMPDEST JUMPDEST PUSH2 0x50A DUP5 DUP3 DUP6 PUSH2 0x4C3 JUMP JUMPDEST POP SWAP4 SWAP3 POP POP POP JUMP JUMPDEST PUSH0 DUP3 PUSH1 0x1F DUP4 ADD SLT PUSH2 0x526 JUMPI PUSH2 0x525 PUSH2 0x403 JUMP JUMPDEST JUMPDEST DUP2 CALLDATALOAD PUSH2 0x536 DUP5 DUP3 PUSH1 0x20 DUP7 ADD PUSH2 0x4D1 JUMP JUMPDEST SWAP2 POP POP SWAP3 SWAP2 POP POP JUMP JUMPDEST PUSH0 PUSH1 0x20 DUP3 DUP5 SUB SLT ISZERO PUSH2 0x554 JUMPI PUSH2 0x553 PUSH2 0x3FB JUMP JUMPDEST JUMPDEST PUSH0 DUP3 ADD CALLDATALOAD PUSH8 0xFFFFFFFFFFFFFFFF DUP2 GT ISZERO PUSH2 0x571 JUMPI PUSH2 0x570 PUSH2 0x3FF JUMP JUMPDEST JUMPDEST PUSH2 0x57D DUP5 DUP3 DUP6 ADD PUSH2 0x512 JUMP JUMPDEST SWAP2 POP POP SWAP3 SWAP2 POP POP JUMP JUMPDEST PUSH0 DUP2 SWAP1 POP SWAP2 SWAP1 POP JUMP JUMPDEST PUSH2 0x598 DUP2 PUSH2 0x586 JUMP JUMPDEST DUP2 EQ PUSH2 0x5A2 JUMPI PUSH0 DUP1 REVERT JUMPDEST POP JUMP JUMPDEST PUSH0 DUP2 CALLDATALOAD SWAP1 POP PUSH2 0x5B3 DUP2 PUSH2 0x58F JUMP JUMPDEST SWAP3 SWAP2 POP POP JUMP JUMPDEST PUSH0 PUSH1 0x20 DUP3 DUP5 SUB SLT ISZERO PUSH2 0x5CE JUMPI PUSH2 0x5CD PUSH2 0x3FB JUMP JUMPDEST JUMPDEST PUSH0 PUSH2 0x5DB DUP5 DUP3 DUP6 ADD PUSH2 0x5A5 JUMP JUMPDEST SWAP2 POP POP SWAP3 SWAP2 POP POP JUMP JUMPDEST PUSH0 DUP2 MLOAD SWAP1 POP SWAP2 SWAP1 POP JUMP JUMPDEST PUSH0 DUP3 DUP3 MSTORE PUSH1 0x20 DUP3 ADD SWAP1 POP SWAP3 SWAP2 POP POP JUMP JUMPDEST DUP3 DUP2 DUP4 MCOPY PUSH0 DUP4 DUP4 ADD MSTORE POP POP POP JUMP JUMPDEST PUSH0 PUSH2 0x616 DUP3 PUSH2 0x5E4 JUMP JUMPDEST PUSH2 0x620 DUP2 DUP6 PUSH2 0x5EE JUMP JUMPDEST SWAP4 POP PUSH2 0x630 DUP2 DUP6 PUSH1 0x20 DUP7 ADD PUSH2 0x5FE JUMP JUMPDEST PUSH2 0x639 DUP2 PUSH2 0x40B JUMP JUMPDEST DUP5 ADD SWAP2 POP POP SWAP3 SWAP2 POP POP JUMP JUMPDEST PUSH0 PUSH1 0x20 DUP3 ADD SWAP1 POP DUP2 DUP2 SUB PUSH0 DUP4 ADD MSTORE PUSH2 0x65C DUP2 DUP5 PUSH2 0x60C JUMP JUMPDEST SWAP1 POP SWAP3 SWAP2 POP POP JUMP JUMPDEST PUSH0 DUP1 PUSH1 0x40 DUP4 DUP6 SUB SLT ISZERO PUSH2 0x67A JUMPI PUSH2 0x679 PUSH2 0x3FB JUMP JUMPDEST JUMPDEST PUSH0 PUSH2 0x687 DUP6 DUP3 DUP7 ADD PUSH2 0x5A5 JUMP JUMPDEST SWAP3 POP POP PUSH1 0x20 DUP4 ADD CALLDATALOAD PUSH8 0xFFFFFFFFFFFFFFFF DUP2 GT ISZERO PUSH2 0x6A8 JUMPI PUSH2 0x6A7 PUSH2 0x3FF JUMP JUMPDEST JUMPDEST PUSH2 0x6B4 DUP6 DUP3 DUP7 ADD PUSH2 0x512 JUMP JUMPDEST SWAP2 POP POP SWAP3 POP SWAP3 SWAP1 POP JUMP JUMPDEST PUSH2 0x6C7 DUP2 PUSH2 0x586 JUMP JUMPDEST DUP3 MSTORE POP POP JUMP JUMPDEST PUSH0 PUSH1 0x20 DUP3 ADD SWAP1 POP PUSH2 0x6E0 PUSH0 DUP4 ADD DUP5 PUSH2 0x6BE JUMP JUMPDEST SWAP3 SWAP2 POP POP JUMP JUMPDEST PUSH32 0x4E487B7100000000000000000000000000000000000000000000000000000000 PUSH0 MSTORE PUSH1 0x22 PUSH1 0x4 MSTORE PUSH1 0x24 PUSH0 REVERT JUMPDEST PUSH0 PUSH1 0x2 DUP3 DIV SWAP1 POP PUSH1 0x1 DUP3 AND DUP1 PUSH2 0x72A JUMPI PUSH1 0x7F DUP3 AND SWAP2 POP JUMPDEST PUSH1 0x20 DUP3 LT DUP2 SUB PUSH2 0x73D JUMPI PUSH2 0x73C PUSH2 0x6E6 JUMP JUMPDEST JUMPDEST POP SWAP2 SWAP1 POP JUMP JUMPDEST PUSH0 DUP2 SWAP1 POP DUP2 PUSH0 MSTORE PUSH1 0x20 PUSH0 KECCAK256 SWAP1 POP SWAP2 SWAP1 POP JUMP JUMPDEST PUSH0 PUSH1 0x20 PUSH1 0x1F DUP4 ADD DIV SWAP1 POP SWAP2 SWAP1 POP JUMP JUMPDEST PUSH0 DUP3 DUP3 SHL SWAP1 POP SWAP3 SWAP2 POP POP JUMP JUMPDEST PUSH0 PUSH1 0x8 DUP4 MUL PUSH2 0x79F PUSH32 0xFFFFFFFFFFFFFFFFFFFFFFFFFFFFFFFFFFFFFFFFFFFFFFFFFFFFFFFFFFFFFFFF DUP3 PUSH2 0x764 JUMP JUMPDEST PUSH2 0x7A9 DUP7 DUP4 PUSH2 0x764 JUMP JUMPDEST SWAP6 POP DUP1 NOT DUP5 AND SWAP4 POP DUP1 DUP7 AND DUP5 OR SWAP3 POP POP POP SWAP4 SWAP3 POP POP POP JUMP JUMPDEST PUSH0 DUP2 SWAP1 POP SWAP2 SWAP1 POP JUMP JUMPDEST PUSH0 PUSH2 0x7E4 PUSH2 0x7DF PUSH2 0x7DA DUP5 PUSH2 0x586 JUMP JUMPDEST PUSH2 0x7C1 JUMP JUMPDEST PUSH2 0x586 JUMP JUMPDEST SWAP1 POP SWAP2 SWAP1 POP JUMP JUMPDEST PUSH0 DUP2 SWAP1 POP SWAP2 SWAP1 POP JUMP JUMPDEST PUSH2 0x7FD DUP4 PUSH2 0x7CA JUMP JUMPDEST PUSH2 0x811 PUSH2 0x809 DUP3 PUSH2 0x7EB JUMP JUMPDEST DUP5 DUP5 SLOAD PUSH2 0x770 JUMP JUMPDEST DUP3 SSTORE POP POP POP POP JUMP JUMPDEST PUSH0 SWAP1 JUMP JUMPDEST PUSH2 0x825 PUSH2 0x819 JUMP JUMPDEST PUSH2 0x830 DUP2 DUP5 DUP5 PUSH2 0x7F4 JUMP JUMPDEST POP POP POP JUMP JUMPDEST JUMPDEST DUP2 DUP2 LT ISZERO PUSH2 0x853 JUMPI PUSH2 0x848 PUSH0 DUP3 PUSH2 0x81D JUMP JUMPDEST PUSH1 0x1 DUP2 ADD SWAP1 POP PUSH2 0x836 JUMP JUMPDEST POP POP JUMP JUMPDEST PUSH1 0x1F DUP3 GT ISZERO PUSH2 0x898 JUMPI PUSH2 0x869 DUP2 PUSH2 0x743 JUMP JUMPDEST PUSH2 0x872 DUP5 PUSH2 0x755 JUMP JUMPDEST DUP2 ADD PUSH1 0x20 DUP6 LT ISZERO PUSH2 0x881 JUMPI DUP2 SWAP1 POP JUMPDEST PUSH2 0x895 PUSH2 0x88D DUP6 PUSH2 0x755 JUMP JUMPDEST DUP4 ADD DUP3 PUSH2 0x835 JUMP JUMPDEST POP POP JUMPDEST POP POP POP JUMP JUMPDEST PUSH0 DUP3 DUP3 SHR SWAP1 POP SWAP3 SWAP2 POP POP JUMP JUMPDEST PUSH0 PUSH2 0x8B8 PUSH0 NOT DUP5 PUSH1 0x8 MUL PUSH2 0x89D JUMP JUMPDEST NOT DUP1 DUP4 AND SWAP2 POP POP SWAP3 SWAP2 POP POP JUMP JUMPDEST PUSH0 PUSH2 0x8D0 DUP4 DUP4 PUSH2 0x8A9 JUMP JUMPDEST SWAP2 POP DUP3 PUSH1 0x2 MUL DUP3 OR SWAP1 POP SWAP3 SWAP2 POP POP JUMP JUMPDEST PUSH2 0x8E9 DUP3 PUSH2 0x5E4 JUMP JUMPDEST PUSH8 0xFFFFFFFFFFFFFFFF DUP2 GT ISZERO PUSH2 0x902 JUMPI PUSH2 0x901 PUSH2 0x41B JUMP JUMPDEST JUMPDEST PUSH2 0x90C DUP3 SLOAD PUSH2 0x713 JUMP JUMPDEST PUSH2 0x917 DUP3 DUP3 DUP6 PUSH2 0x857 JUMP JUMPDEST PUSH0 PUSH1 0x20 SWAP1 POP PUSH1 0x1F DUP4 GT PUSH1 0x1 DUP2 EQ PUSH2 0x948 JUMPI PUSH0 DUP5 ISZERO PUSH2 0x936 JUMPI DUP3 DUP8 ADD MLOAD SWAP1 POP JUMPDEST PUSH2 0x940 DUP6 DUP3 PUSH2 0x8C5 JUMP JUMPDEST DUP7 SSTORE POP PUSH2 0x9A7 JUMP JUMPDEST PUSH1 0x1F NOT DUP5 AND PUSH2 0x956 DUP7 PUSH2 0x743 JUMP JUMPDEST PUSH0 JUMPDEST DUP3 DUP2 LT ISZERO PUSH2 0x97D JUMPI DUP5 DUP10 ADD MLOAD DUP3 SSTORE PUSH1 0x1 DUP3 ADD SWAP2 POP PUSH1 0x20 DUP6 ADD SWAP5 POP PUSH1 0x20 DUP2 ADD SWAP1 POP PUSH2 0x958 JUMP JUMPDEST DUP7 DUP4 LT ISZERO PUSH2 0x99A JUMPI DUP5 DUP10 ADD MLOAD PUSH2 0x996 PUSH1 0x1F DUP10 AND DUP3 PUSH2 0x8A9 JUMP JUMPDEST DUP4 SSTORE POP JUMPDEST PUSH1 0x1 PUSH1 0x2 DUP9 MUL ADD DUP9 SSTORE POP POP POP JUMPDEST POP POP POP POP POP POP JUMP JUMPDEST PUSH32 0x4E487B7100000000000000000000000000000000000000000000000000000000 PUSH0 MSTORE PUSH1 0x11 PUSH1 0x4 MSTORE PUSH1 0x24 PUSH0 REVERT JUMPDEST PUSH0 PUSH2 0x9E6 DUP3 PUSH2 0x586 JUMP JUMPDEST SWAP2 POP PUSH2 0x9F1 DUP4 PUSH2 0x586 JUMP JUMPDEST SWAP3 POP DUP3 DUP3 SUB SWAP1 POP DUP2 DUP2 GT ISZERO PUSH2 0xA09 JUMPI PUSH2 0xA08 PUSH2 0x9AF JUMP JUMPDEST JUMPDEST SWAP3 SWAP2 POP POP JUMP JUMPDEST PUSH32 0x4E487B7100000000000000000000000000000000000000000000000000000000 PUSH0 MSTORE PUSH1 0x32 PUSH1 0x4 MSTORE PUSH1 0x24 PUSH0 REVERT JUMPDEST PUSH32 0x4E487B7100000000000000000000000000000000000000000000000000000000 PUSH0 MSTORE PUSH1 0x31 PUSH1 0x4 MSTORE PUSH1 0x24 PUSH0 REVERT INVALID LOG2 PUSH5 0x6970667358 0x22 SLT KECCAK256 0xDA 0x22 CREATE2 0x2D BLOBBASEFEE PUSH7 0x5C87C5A2EC8C63 AND BYTE PUSH4 0x1799FECA 0xF9 SWAP14 0xC1 JUMP 0x2F PUSH28 0x9872779ACA4964736F6C634300081A00330000000000000000000000 "
				},
				"gasEstimates": {
					"creation": {
						"codeDepositCost": "543800",
						"executionCost": "573",
						"totalCost": "544373"
					},
					"external": {
						"getLetter()": "2462",
						"getLetter(uint256)": "infinite",
						"getLetter2(uint256)": "infinite",
						"popLetters()": "infinite",
						"pushLetters(string)": "infinite",
						"setLetter(uint256,string)": "infinite",
						"setLetter2(uint256,string)": "infinite"
					}
				},
				"methodIdentifiers": {
					"getLetter()": "b599dd85",
					"getLetter(uint256)": "96e583a9",
					"getLetter2(uint256)": "737c0166",
					"popLetters()": "b810c80e",
					"pushLetters(string)": "495931fb",
					"setLetter(uint256,string)": "7563517e",
					"setLetter2(uint256,string)": "ef25d817"
				}
			},
			"storageLayout": {
				"storage": [
					{
						"astId": 4,
						"contract": "contracts/array3.sol:ARRAY",
						"label": "letters",
						"offset": 0,
						"slot": "0",
						"type": "t_array(t_string_storage)dyn_storage"
					},
					{
						"astId": 8,
						"contract": "contracts/array3.sol:ARRAY",
						"label": "letters2",
						"offset": 0,
						"slot": "1",
						"type": "t_array(t_string_storage)7_storage"
					}
				],
				"types": {
					"t_array(t_string_storage)7_storage": {
						"base": "t_string_storage",
						"encoding": "inplace",
						"label": "string[7]",
						"numberOfBytes": "224"
					},
					"t_array(t_string_storage)dyn_storage": {
						"base": "t_string_storage",
						"encoding": "dynamic_array",
						"label": "string[]",
						"numberOfBytes": "32"
					},
					"t_string_storage": {
						"encoding": "bytes",
						"label": "string",
						"numberOfBytes": "32"
					}
				}
			},
			"userdoc": {
				"kind": "user",
				"methods": {},
				"version": 1
			}
		}
	}
}