{
	"contracts/if.sol": {
		"IF": {
			"abi": [
				{
					"inputs": [
						{
							"internalType": "uint256",
							"name": "_n",
							"type": "uint256"
						}
					],
					"name": "AND",
					"outputs": [
						{
							"internalType": "string",
							"name": "",
							"type": "string"
						}
					],
					"stateMutability": "pure",
					"type": "function"
				},
				{
					"inputs": [
						{
							"internalType": "uint256",
							"name": "_n",
							"type": "uint256"
						}
					],
					"name": "AND2",
					"outputs": [
						{
							"internalType": "string",
							"name": "",
							"type": "string"
						}
					],
					"stateMutability": "pure",
					"type": "function"
				},
				{
					"inputs": [
						{
							"internalType": "uint256",
							"name": "_n",
							"type": "uint256"
						}
					],
					"name": "OR",
					"outputs": [
						{
							"internalType": "bool",
							"name": "",
							"type": "bool"
						}
					],
					"stateMutability": "pure",
					"type": "function"
				},
				{
					"inputs": [
						{
							"internalType": "uint256",
							"name": "_n",
							"type": "uint256"
						}
					],
					"name": "hun",
					"outputs": [
						{
							"internalType": "bool",
							"name": "",
							"type": "bool"
						}
					],
					"stateMutability": "pure",
					"type": "function"
				},
				{
					"inputs": [
						{
							"internalType": "uint256",
							"name": "_n",
							"type": "uint256"
						}
					],
					"name": "oddEven",
					"outputs": [
						{
							"internalType": "bool",
							"name": "",
							"type": "bool"
						}
					],
					"stateMutability": "pure",
					"type": "function"
				},
				{
					"inputs": [
						{
							"internalType": "uint256",
							"name": "_n",
							"type": "uint256"
						}
					],
					"name": "thou",
					"outputs": [
						{
							"internalType": "string",
							"name": "",
							"type": "string"
						}
					],
					"stateMutability": "pure",
					"type": "function"
				},
				{
					"inputs": [
						{
							"internalType": "uint256",
							"name": "_n",
							"type": "uint256"
						}
					],
					"name": "tri",
					"outputs": [
						{
							"internalType": "string",
							"name": "",
							"type": "string"
						}
					],
					"stateMutability": "pure",
					"type": "function"
				}
			],
			"devdoc": {
				"kind": "dev",
				"methods": {},
				"version": 1
			},
			"evm": {
				"assembly": "    /* \"contracts/if.sol\":74:1490  contract IF {... */\n  mstore(0x40, 0x80)\n  callvalue\n  dup1\n  iszero\n  tag_1\n  jumpi\n  0x00\n  dup1\n  revert\ntag_1:\n  pop\n  dataSize(sub_0)\n  dup1\n  dataOffset(sub_0)\n  0x00\n  codecopy\n  0x00\n  return\nstop\n\nsub_0: assembly {\n        /* \"contracts/if.sol\":74:1490  contract IF {... */\n      mstore(0x40, 0x80)\n      callvalue\n      dup1\n      iszero\n      tag_1\n      jumpi\n      0x00\n      dup1\n      revert\n    tag_1:\n      pop\n      jumpi(tag_2, lt(calldatasize, 0x04))\n      shr(0xe0, calldataload(0x00))\n      dup1\n      0xabee3d6e\n      gt\n      tag_10\n      jumpi\n      dup1\n      0xabee3d6e\n      eq\n      tag_6\n      jumpi\n      dup1\n      0xc8c2df79\n      eq\n      tag_7\n      jumpi\n      dup1\n      0xd621b461\n      eq\n      tag_8\n      jumpi\n      dup1\n      0xee5b5a56\n      eq\n      tag_9\n      jumpi\n      jump(tag_2)\n    tag_10:\n      dup1\n      0x2477bb1c\n      eq\n      tag_3\n      jumpi\n      dup1\n      0x32dff23f\n      eq\n      tag_4\n      jumpi\n      dup1\n      0x59807014\n      eq\n      tag_5\n      jumpi\n    tag_2:\n      0x00\n      dup1\n      revert\n        /* \"contracts/if.sol\":93:248  function oddEven (uint _n) public pure returns(bool) {... */\n    tag_3:\n      tag_11\n      0x04\n      dup1\n      calldatasize\n      sub\n      dup2\n      add\n      swap1\n      tag_12\n      swap2\n      swap1\n      tag_13\n      jump\t// in\n    tag_12:\n      tag_14\n      jump\t// in\n    tag_11:\n      mload(0x40)\n      tag_15\n      swap2\n      swap1\n      tag_16\n      jump\t// in\n    tag_15:\n      mload(0x40)\n      dup1\n      swap2\n      sub\n      swap1\n      return\n        /* \"contracts/if.sol\":475:696  function AND(uint _n) public pure returns(string memory) {... */\n    tag_4:\n      tag_17\n      0x04\n      dup1\n      calldatasize\n      sub\n      dup2\n      add\n      swap1\n      tag_18\n      swap2\n      swap1\n      tag_13\n      jump\t// in\n    tag_18:\n      tag_19\n      jump\t// in\n    tag_17:\n      mload(0x40)\n      tag_20\n      swap2\n      swap1\n      tag_21\n      jump\t// in\n    tag_20:\n      mload(0x40)\n      dup1\n      swap2\n      sub\n      swap1\n      return\n        /* \"contracts/if.sol\":1122:1270  function hun (uint _n) public pure returns(bool) {... */\n    tag_5:\n      tag_22\n      0x04\n      dup1\n      calldatasize\n      sub\n      dup2\n      add\n      swap1\n      tag_23\n      swap2\n      swap1\n      tag_13\n      jump\t// in\n    tag_23:\n      tag_24\n      jump\t// in\n    tag_22:\n      mload(0x40)\n      tag_25\n      swap2\n      swap1\n      tag_16\n      jump\t// in\n    tag_25:\n      mload(0x40)\n      dup1\n      swap2\n      sub\n      swap1\n      return\n        /* \"contracts/if.sol\":704:867  function OR(uint _n) public pure returns(bool) {... */\n    tag_6:\n      tag_26\n      0x04\n      dup1\n      calldatasize\n      sub\n      dup2\n      add\n      swap1\n      tag_27\n      swap2\n      swap1\n      tag_13\n      jump\t// in\n    tag_27:\n      tag_28\n      jump\t// in\n    tag_26:\n      mload(0x40)\n      tag_29\n      swap2\n      swap1\n      tag_16\n      jump\t// in\n    tag_29:\n      mload(0x40)\n      dup1\n      swap2\n      sub\n      swap1\n      return\n        /* \"contracts/if.sol\":1278:1487  function thou(uint _n) public pure returns(string memory) {... */\n    tag_7:\n      tag_30\n      0x04\n      dup1\n      calldatasize\n      sub\n      dup2\n      add\n      swap1\n      tag_31\n      swap2\n      swap1\n      tag_13\n      jump\t// in\n    tag_31:\n      tag_32\n      jump\t// in\n    tag_30:\n      mload(0x40)\n      tag_33\n      swap2\n      swap1\n      tag_21\n      jump\t// in\n    tag_33:\n      mload(0x40)\n      dup1\n      swap2\n      sub\n      swap1\n      return\n        /* \"contracts/if.sol\":875:1114  function AND2 (uint _n) public pure returns(string memory) {... */\n    tag_8:\n      tag_34\n      0x04\n      dup1\n      calldatasize\n      sub\n      dup2\n      add\n      swap1\n      tag_35\n      swap2\n      swap1\n      tag_13\n      jump\t// in\n    tag_35:\n      tag_36\n      jump\t// in\n    tag_34:\n      mload(0x40)\n      tag_37\n      swap2\n      swap1\n      tag_21\n      jump\t// in\n    tag_37:\n      mload(0x40)\n      dup1\n      swap2\n      sub\n      swap1\n      return\n        /* \"contracts/if.sol\":256:467  function tri(uint _n) public pure returns(string memory) {... */\n    tag_9:\n      tag_38\n      0x04\n      dup1\n      calldatasize\n      sub\n      dup2\n      add\n      swap1\n      tag_39\n      swap2\n      swap1\n      tag_13\n      jump\t// in\n    tag_39:\n      tag_40\n      jump\t// in\n    tag_38:\n      mload(0x40)\n      tag_41\n      swap2\n      swap1\n      tag_21\n      jump\t// in\n    tag_41:\n      mload(0x40)\n      dup1\n      swap2\n      sub\n      swap1\n      return\n        /* \"contracts/if.sol\":93:248  function oddEven (uint _n) public pure returns(bool) {... */\n    tag_14:\n        /* \"contracts/if.sol\":140:144  bool */\n      0x00\n        /* \"contracts/if.sol\":171:172  0 */\n      dup1\n        /* \"contracts/if.sol\":166:167  2 */\n      0x02\n        /* \"contracts/if.sol\":161:163  _n */\n      dup4\n        /* \"contracts/if.sol\":161:167  _n % 2 */\n      tag_43\n      swap2\n      swap1\n      tag_44\n      jump\t// in\n    tag_43:\n        /* \"contracts/if.sol\":161:172  _n % 2 == 0 */\n      sub\n        /* \"contracts/if.sol\":157:240  if (_n % 2 == 0) ... */\n      tag_45\n      jumpi\n        /* \"contracts/if.sol\":195:199  true */\n      0x01\n        /* \"contracts/if.sol\":188:199  return true */\n      swap1\n      pop\n      jump(tag_42)\n        /* \"contracts/if.sol\":157:240  if (_n % 2 == 0) ... */\n    tag_45:\n        /* \"contracts/if.sol\":235:240  false */\n      0x00\n        /* \"contracts/if.sol\":228:240  return false */\n      swap1\n      pop\n        /* \"contracts/if.sol\":93:248  function oddEven (uint _n) public pure returns(bool) {... */\n    tag_42:\n      swap2\n      swap1\n      pop\n      jump\t// out\n        /* \"contracts/if.sol\":475:696  function AND(uint _n) public pure returns(string memory) {... */\n    tag_19:\n        /* \"contracts/if.sol\":517:530  string memory */\n      0x60\n        /* \"contracts/if.sol\":553:556  100 */\n      0x64\n        /* \"contracts/if.sol\":547:549  _n */\n      dup3\n        /* \"contracts/if.sol\":547:556  _n >= 100 */\n      lt\n      iszero\n        /* \"contracts/if.sol\":547:569  _n >= 100 && _n < 1000 */\n      dup1\n      iszero\n      tag_48\n      jumpi\n      pop\n        /* \"contracts/if.sol\":565:569  1000 */\n      0x03e8\n        /* \"contracts/if.sol\":560:562  _n */\n      dup3\n        /* \"contracts/if.sol\":560:569  _n < 1000 */\n      lt\n        /* \"contracts/if.sol\":547:569  _n >= 100 && _n < 1000 */\n    tag_48:\n        /* \"contracts/if.sol\":543:688  if (_n >= 100 && _n < 1000)... */\n      iszero\n      tag_49\n      jumpi\n        /* \"contracts/if.sol\":584:594  return \"b\" */\n      mload(0x40)\n      dup1\n      0x40\n      add\n      0x40\n      mstore\n      dup1\n      0x01\n      dup2\n      mstore\n      0x20\n      add\n      0x6200000000000000000000000000000000000000000000000000000000000000\n      dup2\n      mstore\n      pop\n      swap1\n      pop\n      jump(tag_47)\n        /* \"contracts/if.sol\":543:688  if (_n >= 100 && _n < 1000)... */\n    tag_49:\n        /* \"contracts/if.sol\":620:624  1000 */\n      0x03e8\n        /* \"contracts/if.sol\":614:616  _n */\n      dup3\n        /* \"contracts/if.sol\":614:624  _n >= 1000 */\n      lt\n        /* \"contracts/if.sol\":610:688  if (_n >= 1000)... */\n      tag_51\n      jumpi\n        /* \"contracts/if.sol\":639:649  return \"a\" */\n      mload(0x40)\n      dup1\n      0x40\n      add\n      0x40\n      mstore\n      dup1\n      0x01\n      dup2\n      mstore\n      0x20\n      add\n      0x6100000000000000000000000000000000000000000000000000000000000000\n      dup2\n      mstore\n      pop\n      swap1\n      pop\n      jump(tag_47)\n        /* \"contracts/if.sol\":610:688  if (_n >= 1000)... */\n    tag_51:\n        /* \"contracts/if.sol\":678:688  return \"c\" */\n      mload(0x40)\n      dup1\n      0x40\n      add\n      0x40\n      mstore\n      dup1\n      0x01\n      dup2\n      mstore\n      0x20\n      add\n      0x6300000000000000000000000000000000000000000000000000000000000000\n      dup2\n      mstore\n      pop\n      swap1\n      pop\n        /* \"contracts/if.sol\":475:696  function AND(uint _n) public pure returns(string memory) {... */\n    tag_47:\n      swap2\n      swap1\n      pop\n      jump\t// out\n        /* \"contracts/if.sol\":1122:1270  function hun (uint _n) public pure returns(bool) {... */\n    tag_24:\n        /* \"contracts/if.sol\":1165:1169  bool */\n      0x00\n        /* \"contracts/if.sol\":1192:1195  100 */\n      0x64\n        /* \"contracts/if.sol\":1186:1188  _n */\n      dup3\n        /* \"contracts/if.sol\":1186:1195  _n >= 100 */\n      lt\n        /* \"contracts/if.sol\":1182:1262  if (_n >= 100)... */\n      tag_54\n      jumpi\n        /* \"contracts/if.sol\":1217:1221  true */\n      0x01\n        /* \"contracts/if.sol\":1210:1221  return true */\n      swap1\n      pop\n      jump(tag_53)\n        /* \"contracts/if.sol\":1182:1262  if (_n >= 100)... */\n    tag_54:\n        /* \"contracts/if.sol\":1257:1262  false */\n      0x00\n        /* \"contracts/if.sol\":1250:1262  return false */\n      swap1\n      pop\n        /* \"contracts/if.sol\":1122:1270  function hun (uint _n) public pure returns(bool) {... */\n    tag_53:\n      swap2\n      swap1\n      pop\n      jump\t// out\n        /* \"contracts/if.sol\":704:867  function OR(uint _n) public pure returns(bool) {... */\n    tag_28:\n        /* \"contracts/if.sol\":745:749  bool */\n      0x00\n        /* \"contracts/if.sol\":776:777  0 */\n      dup1\n        /* \"contracts/if.sol\":771:772  3 */\n      0x03\n        /* \"contracts/if.sol\":766:768  _n */\n      dup4\n        /* \"contracts/if.sol\":766:772  _n % 3 */\n      tag_57\n      swap2\n      swap1\n      tag_44\n      jump\t// in\n    tag_57:\n        /* \"contracts/if.sol\":766:777  _n % 3 == 0 */\n      eq\n        /* \"contracts/if.sol\":766:792  _n % 3 == 0 || _n % 2 == 0 */\n      dup1\n      tag_58\n      jumpi\n      pop\n        /* \"contracts/if.sol\":791:792  0 */\n      0x00\n        /* \"contracts/if.sol\":786:787  2 */\n      0x02\n        /* \"contracts/if.sol\":781:783  _n */\n      dup4\n        /* \"contracts/if.sol\":781:787  _n % 2 */\n      tag_59\n      swap2\n      swap1\n      tag_44\n      jump\t// in\n    tag_59:\n        /* \"contracts/if.sol\":781:792  _n % 2 == 0 */\n      eq\n        /* \"contracts/if.sol\":766:792  _n % 3 == 0 || _n % 2 == 0 */\n    tag_58:\n        /* \"contracts/if.sol\":762:859  if (_n % 3 == 0 || _n % 2 == 0)... */\n      iszero\n      tag_60\n      jumpi\n        /* \"contracts/if.sol\":814:818  true */\n      0x01\n        /* \"contracts/if.sol\":807:818  return true */\n      swap1\n      pop\n      jump(tag_56)\n        /* \"contracts/if.sol\":762:859  if (_n % 3 == 0 || _n % 2 == 0)... */\n    tag_60:\n        /* \"contracts/if.sol\":854:859  false */\n      0x00\n        /* \"contracts/if.sol\":847:859  return false */\n      swap1\n      pop\n        /* \"contracts/if.sol\":704:867  function OR(uint _n) public pure returns(bool) {... */\n    tag_56:\n      swap2\n      swap1\n      pop\n      jump\t// out\n        /* \"contracts/if.sol\":1278:1487  function thou(uint _n) public pure returns(string memory) {... */\n    tag_32:\n        /* \"contracts/if.sol\":1321:1334  string memory */\n      0x60\n        /* \"contracts/if.sol\":1357:1361  1000 */\n      0x03e8\n        /* \"contracts/if.sol\":1351:1353  _n */\n      dup3\n        /* \"contracts/if.sol\":1351:1361  _n >= 1000 */\n      lt\n        /* \"contracts/if.sol\":1347:1479  if (_n >= 1000)... */\n      tag_63\n      jumpi\n        /* \"contracts/if.sol\":1376:1386  return \"a\" */\n      mload(0x40)\n      dup1\n      0x40\n      add\n      0x40\n      mstore\n      dup1\n      0x01\n      dup2\n      mstore\n      0x20\n      add\n      0x6100000000000000000000000000000000000000000000000000000000000000\n      dup2\n      mstore\n      pop\n      swap1\n      pop\n      jump(tag_62)\n        /* \"contracts/if.sol\":1347:1479  if (_n >= 1000)... */\n    tag_63:\n        /* \"contracts/if.sol\":1412:1415  100 */\n      0x64\n        /* \"contracts/if.sol\":1406:1408  _n */\n      dup3\n        /* \"contracts/if.sol\":1406:1415  _n >= 100 */\n      lt\n        /* \"contracts/if.sol\":1402:1479  if (_n >= 100)... */\n      tag_65\n      jumpi\n        /* \"contracts/if.sol\":1430:1440  return \"b\" */\n      mload(0x40)\n      dup1\n      0x40\n      add\n      0x40\n      mstore\n      dup1\n      0x01\n      dup2\n      mstore\n      0x20\n      add\n      0x6200000000000000000000000000000000000000000000000000000000000000\n      dup2\n      mstore\n      pop\n      swap1\n      pop\n      jump(tag_62)\n        /* \"contracts/if.sol\":1402:1479  if (_n >= 100)... */\n    tag_65:\n        /* \"contracts/if.sol\":1469:1479  return \"c\" */\n      mload(0x40)\n      dup1\n      0x40\n      add\n      0x40\n      mstore\n      dup1\n      0x01\n      dup2\n      mstore\n      0x20\n      add\n      0x6300000000000000000000000000000000000000000000000000000000000000\n      dup2\n      mstore\n      pop\n      swap1\n      pop\n        /* \"contracts/if.sol\":1278:1487  function thou(uint _n) public pure returns(string memory) {... */\n    tag_62:\n      swap2\n      swap1\n      pop\n      jump\t// out\n        /* \"contracts/if.sol\":875:1114  function AND2 (uint _n) public pure returns(string memory) {... */\n    tag_36:\n        /* \"contracts/if.sol\":919:932  string memory */\n      0x60\n        /* \"contracts/if.sol\":955:958  100 */\n      0x64\n        /* \"contracts/if.sol\":949:951  _n */\n      dup3\n        /* \"contracts/if.sol\":949:958  _n >= 100 */\n      lt\n      iszero\n        /* \"contracts/if.sol\":949:973  _n >= 100 && _n % 2 == 0 */\n      dup1\n      iszero\n      tag_68\n      jumpi\n      pop\n        /* \"contracts/if.sol\":972:973  0 */\n      0x00\n        /* \"contracts/if.sol\":967:968  2 */\n      0x02\n        /* \"contracts/if.sol\":962:964  _n */\n      dup4\n        /* \"contracts/if.sol\":962:968  _n % 2 */\n      tag_69\n      swap2\n      swap1\n      tag_44\n      jump\t// in\n    tag_69:\n        /* \"contracts/if.sol\":962:973  _n % 2 == 0 */\n      eq\n        /* \"contracts/if.sol\":949:973  _n >= 100 && _n % 2 == 0 */\n    tag_68:\n        /* \"contracts/if.sol\":945:1106  if (_n >= 100 && _n % 2 == 0)... */\n      iszero\n      tag_70\n      jumpi\n        /* \"contracts/if.sol\":988:998  return \"a\" */\n      mload(0x40)\n      dup1\n      0x40\n      add\n      0x40\n      mstore\n      dup1\n      0x01\n      dup2\n      mstore\n      0x20\n      add\n      0x6100000000000000000000000000000000000000000000000000000000000000\n      dup2\n      mstore\n      pop\n      swap1\n      pop\n      jump(tag_67)\n        /* \"contracts/if.sol\":945:1106  if (_n >= 100 && _n % 2 == 0)... */\n    tag_70:\n        /* \"contracts/if.sol\":1024:1026  50 */\n      0x32\n        /* \"contracts/if.sol\":1018:1020  _n */\n      dup3\n        /* \"contracts/if.sol\":1018:1026  _n >= 50 */\n      lt\n      iszero\n        /* \"contracts/if.sol\":1018:1041  _n >= 50 && _n % 2 == 1 */\n      dup1\n      iszero\n      tag_72\n      jumpi\n      pop\n        /* \"contracts/if.sol\":1040:1041  1 */\n      0x01\n        /* \"contracts/if.sol\":1035:1036  2 */\n      0x02\n        /* \"contracts/if.sol\":1030:1032  _n */\n      dup4\n        /* \"contracts/if.sol\":1030:1036  _n % 2 */\n      tag_73\n      swap2\n      swap1\n      tag_44\n      jump\t// in\n    tag_73:\n        /* \"contracts/if.sol\":1030:1041  _n % 2 == 1 */\n      eq\n        /* \"contracts/if.sol\":1018:1041  _n >= 50 && _n % 2 == 1 */\n    tag_72:\n        /* \"contracts/if.sol\":1014:1106  if (_n >= 50 && _n % 2 == 1)... */\n      iszero\n      tag_74\n      jumpi\n        /* \"contracts/if.sol\":1056:1066  return \"b\" */\n      mload(0x40)\n      dup1\n      0x40\n      add\n      0x40\n      mstore\n      dup1\n      0x01\n      dup2\n      mstore\n      0x20\n      add\n      0x6200000000000000000000000000000000000000000000000000000000000000\n      dup2\n      mstore\n      pop\n      swap1\n      pop\n      jump(tag_67)\n        /* \"contracts/if.sol\":1014:1106  if (_n >= 50 && _n % 2 == 1)... */\n    tag_74:\n        /* \"contracts/if.sol\":1096:1106  return \"c\" */\n      mload(0x40)\n      dup1\n      0x40\n      add\n      0x40\n      mstore\n      dup1\n      0x01\n      dup2\n      mstore\n      0x20\n      add\n      0x6300000000000000000000000000000000000000000000000000000000000000\n      dup2\n      mstore\n      pop\n      swap1\n      pop\n        /* \"contracts/if.sol\":875:1114  function AND2 (uint _n) public pure returns(string memory) {... */\n    tag_67:\n      swap2\n      swap1\n      pop\n      jump\t// out\n        /* \"contracts/if.sol\":256:467  function tri(uint _n) public pure returns(string memory) {... */\n    tag_40:\n        /* \"contracts/if.sol\":298:311  string memory */\n      0x60\n        /* \"contracts/if.sol\":338:339  0 */\n      0x00\n        /* \"contracts/if.sol\":333:334  3 */\n      0x03\n        /* \"contracts/if.sol\":328:330  _n */\n      dup4\n        /* \"contracts/if.sol\":328:334  _n % 3 */\n      tag_77\n      swap2\n      swap1\n      tag_44\n      jump\t// in\n    tag_77:\n        /* \"contracts/if.sol\":328:339  _n % 3 == 0 */\n      sub\n        /* \"contracts/if.sol\":324:459  if (_n % 3 == 0)... */\n      tag_78\n      jumpi\n        /* \"contracts/if.sol\":354:364  return \"a\" */\n      mload(0x40)\n      dup1\n      0x40\n      add\n      0x40\n      mstore\n      dup1\n      0x01\n      dup2\n      mstore\n      0x20\n      add\n      0x6100000000000000000000000000000000000000000000000000000000000000\n      dup2\n      mstore\n      pop\n      swap1\n      pop\n      jump(tag_76)\n        /* \"contracts/if.sol\":324:459  if (_n % 3 == 0)... */\n    tag_78:\n        /* \"contracts/if.sol\":394:395  1 */\n      0x01\n        /* \"contracts/if.sol\":389:390  3 */\n      0x03\n        /* \"contracts/if.sol\":384:386  _n */\n      dup4\n        /* \"contracts/if.sol\":384:390  _n % 3 */\n      tag_80\n      swap2\n      swap1\n      tag_44\n      jump\t// in\n    tag_80:\n        /* \"contracts/if.sol\":384:395  _n % 3 == 1 */\n      sub\n        /* \"contracts/if.sol\":380:459  if (_n % 3 == 1)... */\n      tag_81\n      jumpi\n        /* \"contracts/if.sol\":410:420  return \"b\" */\n      mload(0x40)\n      dup1\n      0x40\n      add\n      0x40\n      mstore\n      dup1\n      0x01\n      dup2\n      mstore\n      0x20\n      add\n      0x6200000000000000000000000000000000000000000000000000000000000000\n      dup2\n      mstore\n      pop\n      swap1\n      pop\n      jump(tag_76)\n        /* \"contracts/if.sol\":380:459  if (_n % 3 == 1)... */\n    tag_81:\n        /* \"contracts/if.sol\":449:459  return \"c\" */\n      mload(0x40)\n      dup1\n      0x40\n      add\n      0x40\n      mstore\n      dup1\n      0x01\n      dup2\n      mstore\n      0x20\n      add\n      0x6300000000000000000000000000000000000000000000000000000000000000\n      dup2\n      mstore\n      pop\n      swap1\n      pop\n        /* \"contracts/if.sol\":256:467  function tri(uint _n) public pure returns(string memory) {... */\n    tag_76:\n      swap2\n      swap1\n      pop\n      jump\t// out\n        /* \"#utility.yul\":88:205   */\n    tag_84:\n        /* \"#utility.yul\":197:198   */\n      0x00\n        /* \"#utility.yul\":194:195   */\n      dup1\n        /* \"#utility.yul\":187:199   */\n      revert\n        /* \"#utility.yul\":334:411   */\n    tag_86:\n        /* \"#utility.yul\":371:378   */\n      0x00\n        /* \"#utility.yul\":400:405   */\n      dup2\n        /* \"#utility.yul\":389:405   */\n      swap1\n      pop\n        /* \"#utility.yul\":334:411   */\n      swap2\n      swap1\n      pop\n      jump\t// out\n        /* \"#utility.yul\":417:539   */\n    tag_87:\n        /* \"#utility.yul\":490:514   */\n      tag_103\n        /* \"#utility.yul\":508:513   */\n      dup2\n        /* \"#utility.yul\":490:514   */\n      tag_86\n      jump\t// in\n    tag_103:\n        /* \"#utility.yul\":483:488   */\n      dup2\n        /* \"#utility.yul\":480:515   */\n      eq\n        /* \"#utility.yul\":470:533   */\n      tag_104\n      jumpi\n        /* \"#utility.yul\":529:530   */\n      0x00\n        /* \"#utility.yul\":526:527   */\n      dup1\n        /* \"#utility.yul\":519:531   */\n      revert\n        /* \"#utility.yul\":470:533   */\n    tag_104:\n        /* \"#utility.yul\":417:539   */\n      pop\n      jump\t// out\n        /* \"#utility.yul\":545:684   */\n    tag_88:\n        /* \"#utility.yul\":591:596   */\n      0x00\n        /* \"#utility.yul\":629:635   */\n      dup2\n        /* \"#utility.yul\":616:636   */\n      calldataload\n        /* \"#utility.yul\":607:636   */\n      swap1\n      pop\n        /* \"#utility.yul\":645:678   */\n      tag_106\n        /* \"#utility.yul\":672:677   */\n      dup2\n        /* \"#utility.yul\":645:678   */\n      tag_87\n      jump\t// in\n    tag_106:\n        /* \"#utility.yul\":545:684   */\n      swap3\n      swap2\n      pop\n      pop\n      jump\t// out\n        /* \"#utility.yul\":690:1019   */\n    tag_13:\n        /* \"#utility.yul\":749:755   */\n      0x00\n        /* \"#utility.yul\":798:800   */\n      0x20\n        /* \"#utility.yul\":786:795   */\n      dup3\n        /* \"#utility.yul\":777:784   */\n      dup5\n        /* \"#utility.yul\":773:796   */\n      sub\n        /* \"#utility.yul\":769:801   */\n      slt\n        /* \"#utility.yul\":766:885   */\n      iszero\n      tag_108\n      jumpi\n        /* \"#utility.yul\":804:883   */\n      tag_109\n      tag_84\n      jump\t// in\n    tag_109:\n        /* \"#utility.yul\":766:885   */\n    tag_108:\n        /* \"#utility.yul\":924:925   */\n      0x00\n        /* \"#utility.yul\":949:1002   */\n      tag_110\n        /* \"#utility.yul\":994:1001   */\n      dup5\n        /* \"#utility.yul\":985:991   */\n      dup3\n        /* \"#utility.yul\":974:983   */\n      dup6\n        /* \"#utility.yul\":970:992   */\n      add\n        /* \"#utility.yul\":949:1002   */\n      tag_88\n      jump\t// in\n    tag_110:\n        /* \"#utility.yul\":939:1002   */\n      swap2\n      pop\n        /* \"#utility.yul\":895:1012   */\n      pop\n        /* \"#utility.yul\":690:1019   */\n      swap3\n      swap2\n      pop\n      pop\n      jump\t// out\n        /* \"#utility.yul\":1025:1115   */\n    tag_89:\n        /* \"#utility.yul\":1059:1066   */\n      0x00\n        /* \"#utility.yul\":1102:1107   */\n      dup2\n        /* \"#utility.yul\":1095:1108   */\n      iszero\n        /* \"#utility.yul\":1088:1109   */\n      iszero\n        /* \"#utility.yul\":1077:1109   */\n      swap1\n      pop\n        /* \"#utility.yul\":1025:1115   */\n      swap2\n      swap1\n      pop\n      jump\t// out\n        /* \"#utility.yul\":1121:1230   */\n    tag_90:\n        /* \"#utility.yul\":1202:1223   */\n      tag_113\n        /* \"#utility.yul\":1217:1222   */\n      dup2\n        /* \"#utility.yul\":1202:1223   */\n      tag_89\n      jump\t// in\n    tag_113:\n        /* \"#utility.yul\":1197:1200   */\n      dup3\n        /* \"#utility.yul\":1190:1224   */\n      mstore\n        /* \"#utility.yul\":1121:1230   */\n      pop\n      pop\n      jump\t// out\n        /* \"#utility.yul\":1236:1446   */\n    tag_16:\n        /* \"#utility.yul\":1323:1327   */\n      0x00\n        /* \"#utility.yul\":1361:1363   */\n      0x20\n        /* \"#utility.yul\":1350:1359   */\n      dup3\n        /* \"#utility.yul\":1346:1364   */\n      add\n        /* \"#utility.yul\":1338:1364   */\n      swap1\n      pop\n        /* \"#utility.yul\":1374:1439   */\n      tag_115\n        /* \"#utility.yul\":1436:1437   */\n      0x00\n        /* \"#utility.yul\":1425:1434   */\n      dup4\n        /* \"#utility.yul\":1421:1438   */\n      add\n        /* \"#utility.yul\":1412:1418   */\n      dup5\n        /* \"#utility.yul\":1374:1439   */\n      tag_90\n      jump\t// in\n    tag_115:\n        /* \"#utility.yul\":1236:1446   */\n      swap3\n      swap2\n      pop\n      pop\n      jump\t// out\n        /* \"#utility.yul\":1452:1551   */\n    tag_91:\n        /* \"#utility.yul\":1504:1510   */\n      0x00\n        /* \"#utility.yul\":1538:1543   */\n      dup2\n        /* \"#utility.yul\":1532:1544   */\n      mload\n        /* \"#utility.yul\":1522:1544   */\n      swap1\n      pop\n        /* \"#utility.yul\":1452:1551   */\n      swap2\n      swap1\n      pop\n      jump\t// out\n        /* \"#utility.yul\":1557:1726   */\n    tag_92:\n        /* \"#utility.yul\":1641:1652   */\n      0x00\n        /* \"#utility.yul\":1675:1681   */\n      dup3\n        /* \"#utility.yul\":1670:1673   */\n      dup3\n        /* \"#utility.yul\":1663:1682   */\n      mstore\n        /* \"#utility.yul\":1715:1719   */\n      0x20\n        /* \"#utility.yul\":1710:1713   */\n      dup3\n        /* \"#utility.yul\":1706:1720   */\n      add\n        /* \"#utility.yul\":1691:1720   */\n      swap1\n      pop\n        /* \"#utility.yul\":1557:1726   */\n      swap3\n      swap2\n      pop\n      pop\n      jump\t// out\n        /* \"#utility.yul\":1732:1871   */\n    tag_93:\n        /* \"#utility.yul\":1821:1827   */\n      dup3\n        /* \"#utility.yul\":1816:1819   */\n      dup2\n        /* \"#utility.yul\":1811:1814   */\n      dup4\n        /* \"#utility.yul\":1805:1828   */\n      mcopy\n        /* \"#utility.yul\":1862:1863   */\n      0x00\n        /* \"#utility.yul\":1853:1859   */\n      dup4\n        /* \"#utility.yul\":1848:1851   */\n      dup4\n        /* \"#utility.yul\":1844:1860   */\n      add\n        /* \"#utility.yul\":1837:1864   */\n      mstore\n        /* \"#utility.yul\":1732:1871   */\n      pop\n      pop\n      pop\n      jump\t// out\n        /* \"#utility.yul\":1877:1979   */\n    tag_94:\n        /* \"#utility.yul\":1918:1924   */\n      0x00\n        /* \"#utility.yul\":1969:1971   */\n      0x1f\n        /* \"#utility.yul\":1965:1972   */\n      not\n        /* \"#utility.yul\":1960:1962   */\n      0x1f\n        /* \"#utility.yul\":1953:1958   */\n      dup4\n        /* \"#utility.yul\":1949:1963   */\n      add\n        /* \"#utility.yul\":1945:1973   */\n      and\n        /* \"#utility.yul\":1935:1973   */\n      swap1\n      pop\n        /* \"#utility.yul\":1877:1979   */\n      swap2\n      swap1\n      pop\n      jump\t// out\n        /* \"#utility.yul\":1985:2362   */\n    tag_95:\n        /* \"#utility.yul\":2073:2076   */\n      0x00\n        /* \"#utility.yul\":2101:2140   */\n      tag_121\n        /* \"#utility.yul\":2134:2139   */\n      dup3\n        /* \"#utility.yul\":2101:2140   */\n      tag_91\n      jump\t// in\n    tag_121:\n        /* \"#utility.yul\":2156:2227   */\n      tag_122\n        /* \"#utility.yul\":2220:2226   */\n      dup2\n        /* \"#utility.yul\":2215:2218   */\n      dup6\n        /* \"#utility.yul\":2156:2227   */\n      tag_92\n      jump\t// in\n    tag_122:\n        /* \"#utility.yul\":2149:2227   */\n      swap4\n      pop\n        /* \"#utility.yul\":2236:2301   */\n      tag_123\n        /* \"#utility.yul\":2294:2300   */\n      dup2\n        /* \"#utility.yul\":2289:2292   */\n      dup6\n        /* \"#utility.yul\":2282:2286   */\n      0x20\n        /* \"#utility.yul\":2275:2280   */\n      dup7\n        /* \"#utility.yul\":2271:2287   */\n      add\n        /* \"#utility.yul\":2236:2301   */\n      tag_93\n      jump\t// in\n    tag_123:\n        /* \"#utility.yul\":2326:2355   */\n      tag_124\n        /* \"#utility.yul\":2348:2354   */\n      dup2\n        /* \"#utility.yul\":2326:2355   */\n      tag_94\n      jump\t// in\n    tag_124:\n        /* \"#utility.yul\":2321:2324   */\n      dup5\n        /* \"#utility.yul\":2317:2356   */\n      add\n        /* \"#utility.yul\":2310:2356   */\n      swap2\n      pop\n        /* \"#utility.yul\":2077:2362   */\n      pop\n        /* \"#utility.yul\":1985:2362   */\n      swap3\n      swap2\n      pop\n      pop\n      jump\t// out\n        /* \"#utility.yul\":2368:2681   */\n    tag_21:\n        /* \"#utility.yul\":2481:2485   */\n      0x00\n        /* \"#utility.yul\":2519:2521   */\n      0x20\n        /* \"#utility.yul\":2508:2517   */\n      dup3\n        /* \"#utility.yul\":2504:2522   */\n      add\n        /* \"#utility.yul\":2496:2522   */\n      swap1\n      pop\n        /* \"#utility.yul\":2568:2577   */\n      dup2\n        /* \"#utility.yul\":2562:2566   */\n      dup2\n        /* \"#utility.yul\":2558:2578   */\n      sub\n        /* \"#utility.yul\":2554:2555   */\n      0x00\n        /* \"#utility.yul\":2543:2552   */\n      dup4\n        /* \"#utility.yul\":2539:2556   */\n      add\n        /* \"#utility.yul\":2532:2579   */\n      mstore\n        /* \"#utility.yul\":2596:2674   */\n      tag_126\n        /* \"#utility.yul\":2669:2673   */\n      dup2\n        /* \"#utility.yul\":2660:2666   */\n      dup5\n        /* \"#utility.yul\":2596:2674   */\n      tag_95\n      jump\t// in\n    tag_126:\n        /* \"#utility.yul\":2588:2674   */\n      swap1\n      pop\n        /* \"#utility.yul\":2368:2681   */\n      swap3\n      swap2\n      pop\n      pop\n      jump\t// out\n        /* \"#utility.yul\":2687:2867   */\n    tag_96:\n        /* \"#utility.yul\":2735:2812   */\n      0x4e487b7100000000000000000000000000000000000000000000000000000000\n        /* \"#utility.yul\":2732:2733   */\n      0x00\n        /* \"#utility.yul\":2725:2813   */\n      mstore\n        /* \"#utility.yul\":2832:2836   */\n      0x12\n        /* \"#utility.yul\":2829:2830   */\n      0x04\n        /* \"#utility.yul\":2822:2837   */\n      mstore\n        /* \"#utility.yul\":2856:2860   */\n      0x24\n        /* \"#utility.yul\":2853:2854   */\n      0x00\n        /* \"#utility.yul\":2846:2861   */\n      revert\n        /* \"#utility.yul\":2873:3049   */\n    tag_44:\n        /* \"#utility.yul\":2905:2906   */\n      0x00\n        /* \"#utility.yul\":2922:2942   */\n      tag_129\n        /* \"#utility.yul\":2940:2941   */\n      dup3\n        /* \"#utility.yul\":2922:2942   */\n      tag_86\n      jump\t// in\n    tag_129:\n        /* \"#utility.yul\":2917:2942   */\n      swap2\n      pop\n        /* \"#utility.yul\":2956:2976   */\n      tag_130\n        /* \"#utility.yul\":2974:2975   */\n      dup4\n        /* \"#utility.yul\":2956:2976   */\n      tag_86\n      jump\t// in\n    tag_130:\n        /* \"#utility.yul\":2951:2976   */\n      swap3\n      pop\n        /* \"#utility.yul\":2995:2996   */\n      dup3\n        /* \"#utility.yul\":2985:3020   */\n      tag_131\n      jumpi\n        /* \"#utility.yul\":3000:3018   */\n      tag_132\n      tag_96\n      jump\t// in\n    tag_132:\n        /* \"#utility.yul\":2985:3020   */\n    tag_131:\n        /* \"#utility.yul\":3041:3042   */\n      dup3\n        /* \"#utility.yul\":3038:3039   */\n      dup3\n        /* \"#utility.yul\":3034:3043   */\n      mod\n        /* \"#utility.yul\":3029:3043   */\n      swap1\n      pop\n        /* \"#utility.yul\":2873:3049   */\n      swap3\n      swap2\n      pop\n      pop\n      jump\t// out\n\n    auxdata: 0xa2646970667358221220f2ed4e1d81be9b9969f4f97bee4a03d2f0e8930352af1e5c778a1f8bf82108fb64736f6c634300081a0033\n}\n",
				"bytecode": {
					"linkReferences": {},
					"object": "6080604052348015600e575f80fd5b506107888061001c5f395ff3fe608060405234801561000f575f80fd5b506004361061007b575f3560e01c8063abee3d6e11610059578063abee3d6e1461010f578063c8c2df791461013f578063d621b4611461016f578063ee5b5a561461019f5761007b565b80632477bb1c1461007f57806332dff23f146100af57806359807014146100df575b5f80fd5b61009960048036038101906100949190610607565b6101cf565b6040516100a6919061064c565b60405180910390f35b6100c960048036038101906100c49190610607565b6101f5565b6040516100d691906106d5565b60405180910390f35b6100f960048036038101906100f49190610607565b6102cf565b604051610106919061064c565b60405180910390f35b61012960048036038101906101249190610607565b6102ea565b604051610136919061064c565b60405180910390f35b61015960048036038101906101549190610607565b610327565b60405161016691906106d5565b60405180910390f35b61018960048036038101906101849190610607565b6103f2565b60405161019691906106d5565b60405180910390f35b6101b960048036038101906101b49190610607565b6104ef565b6040516101c691906106d5565b60405180910390f35b5f806002836101de9190610722565b036101ec57600190506101f0565b5f90505b919050565b60606064821015801561020957506103e882105b1561024b576040518060400160405280600181526020017f620000000000000000000000000000000000000000000000000000000000000081525090506102ca565b6103e88210610291576040518060400160405280600181526020017f610000000000000000000000000000000000000000000000000000000000000081525090506102ca565b6040518060400160405280600181526020017f630000000000000000000000000000000000000000000000000000000000000081525090505b919050565b5f606482106102e157600190506102e5565b5f90505b919050565b5f806003836102f99190610722565b148061031057505f60028361030e9190610722565b145b1561031e5760019050610322565b5f90505b919050565b60606103e8821061036f576040518060400160405280600181526020017f610000000000000000000000000000000000000000000000000000000000000081525090506103ed565b606482106103b4576040518060400160405280600181526020017f620000000000000000000000000000000000000000000000000000000000000081525090506103ed565b6040518060400160405280600181526020017f630000000000000000000000000000000000000000000000000000000000000081525090505b919050565b60606064821015801561041057505f60028361040e9190610722565b145b15610452576040518060400160405280600181526020017f610000000000000000000000000000000000000000000000000000000000000081525090506104ea565b6032821015801561046f5750600160028361046d9190610722565b145b156104b1576040518060400160405280600181526020017f620000000000000000000000000000000000000000000000000000000000000081525090506104ea565b6040518060400160405280600181526020017f630000000000000000000000000000000000000000000000000000000000000081525090505b919050565b60605f6003836104ff9190610722565b03610541576040518060400160405280600181526020017f610000000000000000000000000000000000000000000000000000000000000081525090506105cb565b60016003836105509190610722565b03610592576040518060400160405280600181526020017f620000000000000000000000000000000000000000000000000000000000000081525090506105cb565b6040518060400160405280600181526020017f630000000000000000000000000000000000000000000000000000000000000081525090505b919050565b5f80fd5b5f819050919050565b6105e6816105d4565b81146105f0575f80fd5b50565b5f81359050610601816105dd565b92915050565b5f6020828403121561061c5761061b6105d0565b5b5f610629848285016105f3565b91505092915050565b5f8115159050919050565b61064681610632565b82525050565b5f60208201905061065f5f83018461063d565b92915050565b5f81519050919050565b5f82825260208201905092915050565b8281835e5f83830152505050565b5f601f19601f8301169050919050565b5f6106a782610665565b6106b1818561066f565b93506106c181856020860161067f565b6106ca8161068d565b840191505092915050565b5f6020820190508181035f8301526106ed818461069d565b905092915050565b7f4e487b71000000000000000000000000000000000000000000000000000000005f52601260045260245ffd5b5f61072c826105d4565b9150610737836105d4565b925082610747576107466106f5565b5b82820690509291505056fea2646970667358221220f2ed4e1d81be9b9969f4f97bee4a03d2f0e8930352af1e5c778a1f8bf82108fb64736f6c634300081a0033",
					"opcodes": "PUSH1 0x80 PUSH1 0x40 MSTORE CALLVALUE DUP1 ISZERO PUSH1 0xE JUMPI PUSH0 DUP1 REVERT JUMPDEST POP PUSH2 0x788 DUP1 PUSH2 0x1C PUSH0 CODECOPY PUSH0 RETURN INVALID PUSH1 0x80 PUSH1 0x40 MSTORE CALLVALUE DUP1 ISZERO PUSH2 0xF JUMPI PUSH0 DUP1 REVERT JUMPDEST POP PUSH1 0x4 CALLDATASIZE LT PUSH2 0x7B JUMPI PUSH0 CALLDATALOAD PUSH1 0xE0 SHR DUP1 PUSH4 0xABEE3D6E GT PUSH2 0x59 JUMPI DUP1 PUSH4 0xABEE3D6E EQ PUSH2 0x10F JUMPI DUP1 PUSH4 0xC8C2DF79 EQ PUSH2 0x13F JUMPI DUP1 PUSH4 0xD621B461 EQ PUSH2 0x16F JUMPI DUP1 PUSH4 0xEE5B5A56 EQ PUSH2 0x19F JUMPI PUSH2 0x7B JUMP JUMPDEST DUP1 PUSH4 0x2477BB1C EQ PUSH2 0x7F JUMPI DUP1 PUSH4 0x32DFF23F EQ PUSH2 0xAF JUMPI DUP1 PUSH4 0x59807014 EQ PUSH2 0xDF JUMPI JUMPDEST PUSH0 DUP1 REVERT JUMPDEST PUSH2 0x99 PUSH1 0x4 DUP1 CALLDATASIZE SUB DUP2 ADD SWAP1 PUSH2 0x94 SWAP2 SWAP1 PUSH2 0x607 JUMP JUMPDEST PUSH2 0x1CF JUMP JUMPDEST PUSH1 0x40 MLOAD PUSH2 0xA6 SWAP2 SWAP1 PUSH2 0x64C JUMP JUMPDEST PUSH1 0x40 MLOAD DUP1 SWAP2 SUB SWAP1 RETURN JUMPDEST PUSH2 0xC9 PUSH1 0x4 DUP1 CALLDATASIZE SUB DUP2 ADD SWAP1 PUSH2 0xC4 SWAP2 SWAP1 PUSH2 0x607 JUMP JUMPDEST PUSH2 0x1F5 JUMP JUMPDEST PUSH1 0x40 MLOAD PUSH2 0xD6 SWAP2 SWAP1 PUSH2 0x6D5 JUMP JUMPDEST PUSH1 0x40 MLOAD DUP1 SWAP2 SUB SWAP1 RETURN JUMPDEST PUSH2 0xF9 PUSH1 0x4 DUP1 CALLDATASIZE SUB DUP2 ADD SWAP1 PUSH2 0xF4 SWAP2 SWAP1 PUSH2 0x607 JUMP JUMPDEST PUSH2 0x2CF JUMP JUMPDEST PUSH1 0x40 MLOAD PUSH2 0x106 SWAP2 SWAP1 PUSH2 0x64C JUMP JUMPDEST PUSH1 0x40 MLOAD DUP1 SWAP2 SUB SWAP1 RETURN JUMPDEST PUSH2 0x129 PUSH1 0x4 DUP1 CALLDATASIZE SUB DUP2 ADD SWAP1 PUSH2 0x124 SWAP2 SWAP1 PUSH2 0x607 JUMP JUMPDEST PUSH2 0x2EA JUMP JUMPDEST PUSH1 0x40 MLOAD PUSH2 0x136 SWAP2 SWAP1 PUSH2 0x64C JUMP JUMPDEST PUSH1 0x40 MLOAD DUP1 SWAP2 SUB SWAP1 RETURN JUMPDEST PUSH2 0x159 PUSH1 0x4 DUP1 CALLDATASIZE SUB DUP2 ADD SWAP1 PUSH2 0x154 SWAP2 SWAP1 PUSH2 0x607 JUMP JUMPDEST PUSH2 0x327 JUMP JUMPDEST PUSH1 0x40 MLOAD PUSH2 0x166 SWAP2 SWAP1 PUSH2 0x6D5 JUMP JUMPDEST PUSH1 0x40 MLOAD DUP1 SWAP2 SUB SWAP1 RETURN JUMPDEST PUSH2 0x189 PUSH1 0x4 DUP1 CALLDATASIZE SUB DUP2 ADD SWAP1 PUSH2 0x184 SWAP2 SWAP1 PUSH2 0x607 JUMP JUMPDEST PUSH2 0x3F2 JUMP JUMPDEST PUSH1 0x40 MLOAD PUSH2 0x196 SWAP2 SWAP1 PUSH2 0x6D5 JUMP JUMPDEST PUSH1 0x40 MLOAD DUP1 SWAP2 SUB SWAP1 RETURN JUMPDEST PUSH2 0x1B9 PUSH1 0x4 DUP1 CALLDATASIZE SUB DUP2 ADD SWAP1 PUSH2 0x1B4 SWAP2 SWAP1 PUSH2 0x607 JUMP JUMPDEST PUSH2 0x4EF JUMP JUMPDEST PUSH1 0x40 MLOAD PUSH2 0x1C6 SWAP2 SWAP1 PUSH2 0x6D5 JUMP JUMPDEST PUSH1 0x40 MLOAD DUP1 SWAP2 SUB SWAP1 RETURN JUMPDEST PUSH0 DUP1 PUSH1 0x2 DUP4 PUSH2 0x1DE SWAP2 SWAP1 PUSH2 0x722 JUMP JUMPDEST SUB PUSH2 0x1EC JUMPI PUSH1 0x1 SWAP1 POP PUSH2 0x1F0 JUMP JUMPDEST PUSH0 SWAP1 POP JUMPDEST SWAP2 SWAP1 POP JUMP JUMPDEST PUSH1 0x60 PUSH1 0x64 DUP3 LT ISZERO DUP1 ISZERO PUSH2 0x209 JUMPI POP PUSH2 0x3E8 DUP3 LT JUMPDEST ISZERO PUSH2 0x24B JUMPI PUSH1 0x40 MLOAD DUP1 PUSH1 0x40 ADD PUSH1 0x40 MSTORE DUP1 PUSH1 0x1 DUP2 MSTORE PUSH1 0x20 ADD PUSH32 0x6200000000000000000000000000000000000000000000000000000000000000 DUP2 MSTORE POP SWAP1 POP PUSH2 0x2CA JUMP JUMPDEST PUSH2 0x3E8 DUP3 LT PUSH2 0x291 JUMPI PUSH1 0x40 MLOAD DUP1 PUSH1 0x40 ADD PUSH1 0x40 MSTORE DUP1 PUSH1 0x1 DUP2 MSTORE PUSH1 0x20 ADD PUSH32 0x6100000000000000000000000000000000000000000000000000000000000000 DUP2 MSTORE POP SWAP1 POP PUSH2 0x2CA JUMP JUMPDEST PUSH1 0x40 MLOAD DUP1 PUSH1 0x40 ADD PUSH1 0x40 MSTORE DUP1 PUSH1 0x1 DUP2 MSTORE PUSH1 0x20 ADD PUSH32 0x6300000000000000000000000000000000000000000000000000000000000000 DUP2 MSTORE POP SWAP1 POP JUMPDEST SWAP2 SWAP1 POP JUMP JUMPDEST PUSH0 PUSH1 0x64 DUP3 LT PUSH2 0x2E1 JUMPI PUSH1 0x1 SWAP1 POP PUSH2 0x2E5 JUMP JUMPDEST PUSH0 SWAP1 POP JUMPDEST SWAP2 SWAP1 POP JUMP JUMPDEST PUSH0 DUP1 PUSH1 0x3 DUP4 PUSH2 0x2F9 SWAP2 SWAP1 PUSH2 0x722 JUMP JUMPDEST EQ DUP1 PUSH2 0x310 JUMPI POP PUSH0 PUSH1 0x2 DUP4 PUSH2 0x30E SWAP2 SWAP1 PUSH2 0x722 JUMP JUMPDEST EQ JUMPDEST ISZERO PUSH2 0x31E JUMPI PUSH1 0x1 SWAP1 POP PUSH2 0x322 JUMP JUMPDEST PUSH0 SWAP1 POP JUMPDEST SWAP2 SWAP1 POP JUMP JUMPDEST PUSH1 0x60 PUSH2 0x3E8 DUP3 LT PUSH2 0x36F JUMPI PUSH1 0x40 MLOAD DUP1 PUSH1 0x40 ADD PUSH1 0x40 MSTORE DUP1 PUSH1 0x1 DUP2 MSTORE PUSH1 0x20 ADD PUSH32 0x6100000000000000000000000000000000000000000000000000000000000000 DUP2 MSTORE POP SWAP1 POP PUSH2 0x3ED JUMP JUMPDEST PUSH1 0x64 DUP3 LT PUSH2 0x3B4 JUMPI PUSH1 0x40 MLOAD DUP1 PUSH1 0x40 ADD PUSH1 0x40 MSTORE DUP1 PUSH1 0x1 DUP2 MSTORE PUSH1 0x20 ADD PUSH32 0x6200000000000000000000000000000000000000000000000000000000000000 DUP2 MSTORE POP SWAP1 POP PUSH2 0x3ED JUMP JUMPDEST PUSH1 0x40 MLOAD DUP1 PUSH1 0x40 ADD PUSH1 0x40 MSTORE DUP1 PUSH1 0x1 DUP2 MSTORE PUSH1 0x20 ADD PUSH32 0x6300000000000000000000000000000000000000000000000000000000000000 DUP2 MSTORE POP SWAP1 POP JUMPDEST SWAP2 SWAP1 POP JUMP JUMPDEST PUSH1 0x60 PUSH1 0x64 DUP3 LT ISZERO DUP1 ISZERO PUSH2 0x410 JUMPI POP PUSH0 PUSH1 0x2 DUP4 PUSH2 0x40E SWAP2 SWAP1 PUSH2 0x722 JUMP JUMPDEST EQ JUMPDEST ISZERO PUSH2 0x452 JUMPI PUSH1 0x40 MLOAD DUP1 PUSH1 0x40 ADD PUSH1 0x40 MSTORE DUP1 PUSH1 0x1 DUP2 MSTORE PUSH1 0x20 ADD PUSH32 0x6100000000000000000000000000000000000000000000000000000000000000 DUP2 MSTORE POP SWAP1 POP PUSH2 0x4EA JUMP JUMPDEST PUSH1 0x32 DUP3 LT ISZERO DUP1 ISZERO PUSH2 0x46F JUMPI POP PUSH1 0x1 PUSH1 0x2 DUP4 PUSH2 0x46D SWAP2 SWAP1 PUSH2 0x722 JUMP JUMPDEST EQ JUMPDEST ISZERO PUSH2 0x4B1 JUMPI PUSH1 0x40 MLOAD DUP1 PUSH1 0x40 ADD PUSH1 0x40 MSTORE DUP1 PUSH1 0x1 DUP2 MSTORE PUSH1 0x20 ADD PUSH32 0x6200000000000000000000000000000000000000000000000000000000000000 DUP2 MSTORE POP SWAP1 POP PUSH2 0x4EA JUMP JUMPDEST PUSH1 0x40 MLOAD DUP1 PUSH1 0x40 ADD PUSH1 0x40 MSTORE DUP1 PUSH1 0x1 DUP2 MSTORE PUSH1 0x20 ADD PUSH32 0x6300000000000000000000000000000000000000000000000000000000000000 DUP2 MSTORE POP SWAP1 POP JUMPDEST SWAP2 SWAP1 POP JUMP JUMPDEST PUSH1 0x60 PUSH0 PUSH1 0x3 DUP4 PUSH2 0x4FF SWAP2 SWAP1 PUSH2 0x722 JUMP JUMPDEST SUB PUSH2 0x541 JUMPI PUSH1 0x40 MLOAD DUP1 PUSH1 0x40 ADD PUSH1 0x40 MSTORE DUP1 PUSH1 0x1 DUP2 MSTORE PUSH1 0x20 ADD PUSH32 0x6100000000000000000000000000000000000000000000000000000000000000 DUP2 MSTORE POP SWAP1 POP PUSH2 0x5CB JUMP JUMPDEST PUSH1 0x1 PUSH1 0x3 DUP4 PUSH2 0x550 SWAP2 SWAP1 PUSH2 0x722 JUMP JUMPDEST SUB PUSH2 0x592 JUMPI PUSH1 0x40 MLOAD DUP1 PUSH1 0x40 ADD PUSH1 0x40 MSTORE DUP1 PUSH1 0x1 DUP2 MSTORE PUSH1 0x20 ADD PUSH32 0x6200000000000000000000000000000000000000000000000000000000000000 DUP2 MSTORE POP SWAP1 POP PUSH2 0x5CB JUMP JUMPDEST PUSH1 0x40 MLOAD DUP1 PUSH1 0x40 ADD PUSH1 0x40 MSTORE DUP1 PUSH1 0x1 DUP2 MSTORE PUSH1 0x20 ADD PUSH32 0x6300000000000000000000000000000000000000000000000000000000000000 DUP2 MSTORE POP SWAP1 POP JUMPDEST SWAP2 SWAP1 POP JUMP JUMPDEST PUSH0 DUP1 REVERT JUMPDEST PUSH0 DUP2 SWAP1 POP SWAP2 SWAP1 POP JUMP JUMPDEST PUSH2 0x5E6 DUP2 PUSH2 0x5D4 JUMP JUMPDEST DUP2 EQ PUSH2 0x5F0 JUMPI PUSH0 DUP1 REVERT JUMPDEST POP JUMP JUMPDEST PUSH0 DUP2 CALLDATALOAD SWAP1 POP PUSH2 0x601 DUP2 PUSH2 0x5DD JUMP JUMPDEST SWAP3 SWAP2 POP POP JUMP JUMPDEST PUSH0 PUSH1 0x20 DUP3 DUP5 SUB SLT ISZERO PUSH2 0x61C JUMPI PUSH2 0x61B PUSH2 0x5D0 JUMP JUMPDEST JUMPDEST PUSH0 PUSH2 0x629 DUP5 DUP3 DUP6 ADD PUSH2 0x5F3 JUMP JUMPDEST SWAP2 POP POP SWAP3 SWAP2 POP POP JUMP JUMPDEST PUSH0 DUP2 ISZERO ISZERO SWAP1 POP SWAP2 SWAP1 POP JUMP JUMPDEST PUSH2 0x646 DUP2 PUSH2 0x632 JUMP JUMPDEST DUP3 MSTORE POP POP JUMP JUMPDEST PUSH0 PUSH1 0x20 DUP3 ADD SWAP1 POP PUSH2 0x65F PUSH0 DUP4 ADD DUP5 PUSH2 0x63D JUMP JUMPDEST SWAP3 SWAP2 POP POP JUMP JUMPDEST PUSH0 DUP2 MLOAD SWAP1 POP SWAP2 SWAP1 POP JUMP JUMPDEST PUSH0 DUP3 DUP3 MSTORE PUSH1 0x20 DUP3 ADD SWAP1 POP SWAP3 SWAP2 POP POP JUMP JUMPDEST DUP3 DUP2 DUP4 MCOPY PUSH0 DUP4 DUP4 ADD MSTORE POP POP POP JUMP JUMPDEST PUSH0 PUSH1 0x1F NOT PUSH1 0x1F DUP4 ADD AND SWAP1 POP SWAP2 SWAP1 POP JUMP JUMPDEST PUSH0 PUSH2 0x6A7 DUP3 PUSH2 0x665 JUMP JUMPDEST PUSH2 0x6B1 DUP2 DUP6 PUSH2 0x66F JUMP JUMPDEST SWAP4 POP PUSH2 0x6C1 DUP2 DUP6 PUSH1 0x20 DUP7 ADD PUSH2 0x67F JUMP JUMPDEST PUSH2 0x6CA DUP2 PUSH2 0x68D JUMP JUMPDEST DUP5 ADD SWAP2 POP POP SWAP3 SWAP2 POP POP JUMP JUMPDEST PUSH0 PUSH1 0x20 DUP3 ADD SWAP1 POP DUP2 DUP2 SUB PUSH0 DUP4 ADD MSTORE PUSH2 0x6ED DUP2 DUP5 PUSH2 0x69D JUMP JUMPDEST SWAP1 POP SWAP3 SWAP2 POP POP JUMP JUMPDEST PUSH32 0x4E487B7100000000000000000000000000000000000000000000000000000000 PUSH0 MSTORE PUSH1 0x12 PUSH1 0x4 MSTORE PUSH1 0x24 PUSH0 REVERT JUMPDEST PUSH0 PUSH2 0x72C DUP3 PUSH2 0x5D4 JUMP JUMPDEST SWAP2 POP PUSH2 0x737 DUP4 PUSH2 0x5D4 JUMP JUMPDEST SWAP3 POP DUP3 PUSH2 0x747 JUMPI PUSH2 0x746 PUSH2 0x6F5 JUMP JUMPDEST JUMPDEST DUP3 DUP3 MOD SWAP1 POP SWAP3 SWAP2 POP POP JUMP INVALID LOG2 PUSH5 0x6970667358 0x22 SLT KECCAK256 CALLCODE 0xED 0x4E SAR DUP2 0xBE SWAP12 SWAP10 PUSH10 0xF4F97BEE4A03D2F0E893 SUB MSTORE 0xAF 0x1E TLOAD PUSH24 0x8A1F8BF82108FB64736F6C634300081A0033000000000000 "
				},
				"gasEstimates": {
					"creation": {
						"codeDepositCost": "385600",
						"executionCost": "422",
						"totalCost": "386022"
					},
					"external": {
						"AND(uint256)": "infinite",
						"AND2(uint256)": "infinite",
						"OR(uint256)": "infinite",
						"hun(uint256)": "678",
						"oddEven(uint256)": "infinite",
						"thou(uint256)": "infinite",
						"tri(uint256)": "infinite"
					}
				},
				"methodIdentifiers": {
					"AND(uint256)": "32dff23f",
					"AND2(uint256)": "d621b461",
					"OR(uint256)": "abee3d6e",
					"hun(uint256)": "59807014",
					"oddEven(uint256)": "2477bb1c",
					"thou(uint256)": "c8c2df79",
					"tri(uint256)": "ee5b5a56"
				}
			},
			"storageLayout": {
				"storage": [],
				"types": null
			},
			"userdoc": {
				"kind": "user",
				"methods": {},
				"version": 1
			}
		}
	}
}