{
	"contracts/struct3.sol": {
		"STRUCT3": {
			"abi": [
				{
					"inputs": [
						{
							"components": [
								{
									"internalType": "string",
									"name": "name",
									"type": "string"
								},
								{
									"internalType": "uint256",
									"name": "number",
									"type": "uint256"
								},
								{
									"internalType": "string[]",
									"name": "classes",
									"type": "string[]"
								}
							],
							"internalType": "struct STRUCT3.student",
							"name": "_s1",
							"type": "tuple"
						}
					],
					"name": "setS1_1",
					"outputs": [],
					"stateMutability": "nonpayable",
					"type": "function"
				},
				{
					"inputs": [
						{
							"internalType": "string",
							"name": "_name",
							"type": "string"
						},
						{
							"internalType": "uint256",
							"name": "_number",
							"type": "uint256"
						},
						{
							"internalType": "string[]",
							"name": "_classes",
							"type": "string[]"
						}
					],
					"name": "setS1_2",
					"outputs": [],
					"stateMutability": "nonpayable",
					"type": "function"
				}
			],
			"devdoc": {
				"kind": "dev",
				"methods": {},
				"version": 1
			},
			"evm": {
				"assembly": "    /* \"contracts/struct3.sol\":70:439  contract STRUCT3 {... */\n  mstore(0x40, 0x80)\n  callvalue\n  dup1\n  iszero\n  tag_1\n  jumpi\n  0x00\n  dup1\n  revert\ntag_1:\n  pop\n  dataSize(sub_0)\n  dup1\n  dataOffset(sub_0)\n  0x00\n  codecopy\n  0x00\n  return\nstop\n\nsub_0: assembly {\n        /* \"contracts/struct3.sol\":70:439  contract STRUCT3 {... */\n      mstore(0x40, 0x80)\n      callvalue\n      dup1\n      iszero\n      tag_1\n      jumpi\n      0x00\n      dup1\n      revert\n    tag_1:\n      pop\n      jumpi(tag_2, lt(calldatasize, 0x04))\n      shr(0xe0, calldataload(0x00))\n      dup1\n      0x4817a739\n      eq\n      tag_3\n      jumpi\n      dup1\n      0x8808f524\n      eq\n      tag_4\n      jumpi\n    tag_2:\n      0x00\n      dup1\n      revert\n        /* \"contracts/struct3.sol\":294:436  function setS1_2(string memory _name, uint _number, string[] memory _classes) public {... */\n    tag_3:\n      tag_5\n      0x04\n      dup1\n      calldatasize\n      sub\n      dup2\n      add\n      swap1\n      tag_6\n      swap2\n      swap1\n      tag_7\n      jump\t// in\n    tag_6:\n      tag_8\n      jump\t// in\n    tag_5:\n      stop\n        /* \"contracts/struct3.sol\":215:286  function setS1_1(student memory _s1) public {... */\n    tag_4:\n      tag_9\n      0x04\n      dup1\n      calldatasize\n      sub\n      dup2\n      add\n      swap1\n      tag_10\n      swap2\n      swap1\n      tag_11\n      jump\t// in\n    tag_10:\n      tag_12\n      jump\t// in\n    tag_9:\n      stop\n        /* \"contracts/struct3.sol\":294:436  function setS1_2(string memory _name, uint _number, string[] memory _classes) public {... */\n    tag_8:\n        /* \"contracts/struct3.sol\":395:428  student(_name, _number, _classes) */\n      mload(0x40)\n      dup1\n      0x60\n      add\n      0x40\n      mstore\n      dup1\n        /* \"contracts/struct3.sol\":403:408  _name */\n      dup5\n        /* \"contracts/struct3.sol\":395:428  student(_name, _number, _classes) */\n      dup2\n      mstore\n      0x20\n      add\n        /* \"contracts/struct3.sol\":410:417  _number */\n      dup4\n        /* \"contracts/struct3.sol\":395:428  student(_name, _number, _classes) */\n      dup2\n      mstore\n      0x20\n      add\n        /* \"contracts/struct3.sol\":419:427  _classes */\n      dup3\n        /* \"contracts/struct3.sol\":395:428  student(_name, _number, _classes) */\n      dup2\n      mstore\n      pop\n        /* \"contracts/struct3.sol\":390:392  s1 */\n      0x00\n        /* \"contracts/struct3.sol\":390:428  s1 = student(_name, _number, _classes) */\n      dup1\n      dup3\n      add\n      mload\n      dup2\n      0x00\n      add\n      swap1\n      dup2\n      tag_14\n      swap2\n      swap1\n      tag_15\n      jump\t// in\n    tag_14:\n      pop\n      0x20\n      dup3\n      add\n      mload\n      dup2\n      0x01\n      add\n      sstore\n      0x40\n      dup3\n      add\n      mload\n      dup2\n      0x02\n      add\n      swap1\n      dup1\n      mload\n      swap1\n      0x20\n      add\n      swap1\n      tag_16\n      swap3\n      swap2\n      swap1\n      tag_17\n      jump\t// in\n    tag_16:\n      pop\n      swap1\n      pop\n      pop\n        /* \"contracts/struct3.sol\":294:436  function setS1_2(string memory _name, uint _number, string[] memory _classes) public {... */\n      pop\n      pop\n      pop\n      jump\t// out\n        /* \"contracts/struct3.sol\":215:286  function setS1_1(student memory _s1) public {... */\n    tag_12:\n        /* \"contracts/struct3.sol\":275:278  _s1 */\n      dup1\n        /* \"contracts/struct3.sol\":270:272  s1 */\n      0x00\n        /* \"contracts/struct3.sol\":270:278  s1 = _s1 */\n      dup1\n      dup3\n      add\n      mload\n      dup2\n      0x00\n      add\n      swap1\n      dup2\n      tag_19\n      swap2\n      swap1\n      tag_15\n      jump\t// in\n    tag_19:\n      pop\n      0x20\n      dup3\n      add\n      mload\n      dup2\n      0x01\n      add\n      sstore\n      0x40\n      dup3\n      add\n      mload\n      dup2\n      0x02\n      add\n      swap1\n      dup1\n      mload\n      swap1\n      0x20\n      add\n      swap1\n      tag_20\n      swap3\n      swap2\n      swap1\n      tag_17\n      jump\t// in\n    tag_20:\n      pop\n      swap1\n      pop\n      pop\n        /* \"contracts/struct3.sol\":215:286  function setS1_1(student memory _s1) public {... */\n      pop\n      jump\t// out\n    tag_17:\n      dup3\n      dup1\n      sload\n      dup3\n      dup3\n      sstore\n      swap1\n      0x00\n      mstore\n      keccak256(0x00, 0x20)\n      swap1\n      dup2\n      add\n      swap3\n      dup3\n      iszero\n      tag_21\n      jumpi\n      swap2\n      0x20\n      mul\n      dup3\n      add\n    tag_22:\n      dup3\n      dup2\n      gt\n      iszero\n      tag_23\n      jumpi\n      dup3\n      mload\n      dup3\n      swap1\n      dup2\n      tag_24\n      swap2\n      swap1\n      tag_15\n      jump\t// in\n    tag_24:\n      pop\n      swap2\n      0x20\n      add\n      swap2\n      swap1\n      0x01\n      add\n      swap1\n      jump(tag_22)\n    tag_23:\n    tag_21:\n      pop\n      swap1\n      pop\n      tag_25\n      swap2\n      swap1\n      tag_26\n      jump\t// in\n    tag_25:\n      pop\n      swap1\n      jump\t// out\n    tag_26:\n    tag_27:\n      dup1\n      dup3\n      gt\n      iszero\n      tag_28\n      jumpi\n      0x00\n      dup2\n      dup2\n      tag_29\n      swap2\n      swap1\n      tag_30\n      jump\t// in\n    tag_29:\n      pop\n      0x01\n      add\n      jump(tag_27)\n    tag_28:\n      pop\n      swap1\n      jump\t// out\n    tag_30:\n      pop\n      dup1\n      sload\n      tag_31\n      swap1\n      tag_32\n      jump\t// in\n    tag_31:\n      0x00\n      dup3\n      sstore\n      dup1\n      0x1f\n      lt\n      tag_34\n      jumpi\n      pop\n      jump(tag_33)\n    tag_34:\n      0x1f\n      add\n      0x20\n      swap1\n      div\n      swap1\n      0x00\n      mstore\n      keccak256(0x00, 0x20)\n      swap1\n      dup2\n      add\n      swap1\n      tag_35\n      swap2\n      swap1\n      tag_36\n      jump\t// in\n    tag_35:\n    tag_33:\n      pop\n      jump\t// out\n    tag_36:\n    tag_37:\n      dup1\n      dup3\n      gt\n      iszero\n      tag_38\n      jumpi\n      0x00\n      dup2\n      0x00\n      swap1\n      sstore\n      pop\n      0x01\n      add\n      jump(tag_37)\n    tag_38:\n      pop\n      swap1\n      jump\t// out\n        /* \"#utility.yul\":7:82   */\n    tag_39:\n        /* \"#utility.yul\":40:46   */\n      0x00\n        /* \"#utility.yul\":73:75   */\n      0x40\n        /* \"#utility.yul\":67:76   */\n      mload\n        /* \"#utility.yul\":57:76   */\n      swap1\n      pop\n        /* \"#utility.yul\":7:82   */\n      swap1\n      jump\t// out\n        /* \"#utility.yul\":88:205   */\n    tag_40:\n        /* \"#utility.yul\":197:198   */\n      0x00\n        /* \"#utility.yul\":194:195   */\n      dup1\n        /* \"#utility.yul\":187:199   */\n      revert\n        /* \"#utility.yul\":211:328   */\n    tag_41:\n        /* \"#utility.yul\":320:321   */\n      0x00\n        /* \"#utility.yul\":317:318   */\n      dup1\n        /* \"#utility.yul\":310:322   */\n      revert\n        /* \"#utility.yul\":334:451   */\n    tag_42:\n        /* \"#utility.yul\":443:444   */\n      0x00\n        /* \"#utility.yul\":440:441   */\n      dup1\n        /* \"#utility.yul\":433:445   */\n      revert\n        /* \"#utility.yul\":457:574   */\n    tag_43:\n        /* \"#utility.yul\":566:567   */\n      0x00\n        /* \"#utility.yul\":563:564   */\n      dup1\n        /* \"#utility.yul\":556:568   */\n      revert\n        /* \"#utility.yul\":580:682   */\n    tag_44:\n        /* \"#utility.yul\":621:627   */\n      0x00\n        /* \"#utility.yul\":672:674   */\n      0x1f\n        /* \"#utility.yul\":668:675   */\n      not\n        /* \"#utility.yul\":663:665   */\n      0x1f\n        /* \"#utility.yul\":656:661   */\n      dup4\n        /* \"#utility.yul\":652:666   */\n      add\n        /* \"#utility.yul\":648:676   */\n      and\n        /* \"#utility.yul\":638:676   */\n      swap1\n      pop\n        /* \"#utility.yul\":580:682   */\n      swap2\n      swap1\n      pop\n      jump\t// out\n        /* \"#utility.yul\":688:868   */\n    tag_45:\n        /* \"#utility.yul\":736:813   */\n      0x4e487b7100000000000000000000000000000000000000000000000000000000\n        /* \"#utility.yul\":733:734   */\n      0x00\n        /* \"#utility.yul\":726:814   */\n      mstore\n        /* \"#utility.yul\":833:837   */\n      0x41\n        /* \"#utility.yul\":830:831   */\n      0x04\n        /* \"#utility.yul\":823:838   */\n      mstore\n        /* \"#utility.yul\":857:861   */\n      0x24\n        /* \"#utility.yul\":854:855   */\n      0x00\n        /* \"#utility.yul\":847:862   */\n      revert\n        /* \"#utility.yul\":874:1155   */\n    tag_46:\n        /* \"#utility.yul\":957:984   */\n      tag_88\n        /* \"#utility.yul\":979:983   */\n      dup3\n        /* \"#utility.yul\":957:984   */\n      tag_44\n      jump\t// in\n    tag_88:\n        /* \"#utility.yul\":949:955   */\n      dup2\n        /* \"#utility.yul\":945:985   */\n      add\n        /* \"#utility.yul\":1087:1093   */\n      dup2\n        /* \"#utility.yul\":1075:1085   */\n      dup2\n        /* \"#utility.yul\":1072:1094   */\n      lt\n        /* \"#utility.yul\":1051:1069   */\n      0xffffffffffffffff\n        /* \"#utility.yul\":1039:1049   */\n      dup3\n        /* \"#utility.yul\":1036:1070   */\n      gt\n        /* \"#utility.yul\":1033:1095   */\n      or\n        /* \"#utility.yul\":1030:1118   */\n      iszero\n      tag_89\n      jumpi\n        /* \"#utility.yul\":1098:1116   */\n      tag_90\n      tag_45\n      jump\t// in\n    tag_90:\n        /* \"#utility.yul\":1030:1118   */\n    tag_89:\n        /* \"#utility.yul\":1138:1148   */\n      dup1\n        /* \"#utility.yul\":1134:1136   */\n      0x40\n        /* \"#utility.yul\":1127:1149   */\n      mstore\n        /* \"#utility.yul\":917:1155   */\n      pop\n        /* \"#utility.yul\":874:1155   */\n      pop\n      pop\n      jump\t// out\n        /* \"#utility.yul\":1161:1290   */\n    tag_47:\n        /* \"#utility.yul\":1195:1201   */\n      0x00\n        /* \"#utility.yul\":1222:1242   */\n      tag_92\n      tag_39\n      jump\t// in\n    tag_92:\n        /* \"#utility.yul\":1212:1242   */\n      swap1\n      pop\n        /* \"#utility.yul\":1251:1284   */\n      tag_93\n        /* \"#utility.yul\":1279:1283   */\n      dup3\n        /* \"#utility.yul\":1271:1277   */\n      dup3\n        /* \"#utility.yul\":1251:1284   */\n      tag_46\n      jump\t// in\n    tag_93:\n        /* \"#utility.yul\":1161:1290   */\n      swap2\n      swap1\n      pop\n      jump\t// out\n        /* \"#utility.yul\":1296:1604   */\n    tag_48:\n        /* \"#utility.yul\":1358:1362   */\n      0x00\n        /* \"#utility.yul\":1448:1466   */\n      0xffffffffffffffff\n        /* \"#utility.yul\":1440:1446   */\n      dup3\n        /* \"#utility.yul\":1437:1467   */\n      gt\n        /* \"#utility.yul\":1434:1490   */\n      iszero\n      tag_95\n      jumpi\n        /* \"#utility.yul\":1470:1488   */\n      tag_96\n      tag_45\n      jump\t// in\n    tag_96:\n        /* \"#utility.yul\":1434:1490   */\n    tag_95:\n        /* \"#utility.yul\":1508:1537   */\n      tag_97\n        /* \"#utility.yul\":1530:1536   */\n      dup3\n        /* \"#utility.yul\":1508:1537   */\n      tag_44\n      jump\t// in\n    tag_97:\n        /* \"#utility.yul\":1500:1537   */\n      swap1\n      pop\n        /* \"#utility.yul\":1592:1596   */\n      0x20\n        /* \"#utility.yul\":1586:1590   */\n      dup2\n        /* \"#utility.yul\":1582:1597   */\n      add\n        /* \"#utility.yul\":1574:1597   */\n      swap1\n      pop\n        /* \"#utility.yul\":1296:1604   */\n      swap2\n      swap1\n      pop\n      jump\t// out\n        /* \"#utility.yul\":1610:1758   */\n    tag_49:\n        /* \"#utility.yul\":1708:1714   */\n      dup3\n        /* \"#utility.yul\":1703:1706   */\n      dup2\n        /* \"#utility.yul\":1698:1701   */\n      dup4\n        /* \"#utility.yul\":1685:1715   */\n      calldatacopy\n        /* \"#utility.yul\":1749:1750   */\n      0x00\n        /* \"#utility.yul\":1740:1746   */\n      dup4\n        /* \"#utility.yul\":1735:1738   */\n      dup4\n        /* \"#utility.yul\":1731:1747   */\n      add\n        /* \"#utility.yul\":1724:1751   */\n      mstore\n        /* \"#utility.yul\":1610:1758   */\n      pop\n      pop\n      pop\n      jump\t// out\n        /* \"#utility.yul\":1764:2189   */\n    tag_50:\n        /* \"#utility.yul\":1842:1847   */\n      0x00\n        /* \"#utility.yul\":1867:1933   */\n      tag_100\n        /* \"#utility.yul\":1883:1932   */\n      tag_101\n        /* \"#utility.yul\":1925:1931   */\n      dup5\n        /* \"#utility.yul\":1883:1932   */\n      tag_48\n      jump\t// in\n    tag_101:\n        /* \"#utility.yul\":1867:1933   */\n      tag_47\n      jump\t// in\n    tag_100:\n        /* \"#utility.yul\":1858:1933   */\n      swap1\n      pop\n        /* \"#utility.yul\":1956:1962   */\n      dup3\n        /* \"#utility.yul\":1949:1954   */\n      dup2\n        /* \"#utility.yul\":1942:1963   */\n      mstore\n        /* \"#utility.yul\":1994:1998   */\n      0x20\n        /* \"#utility.yul\":1987:1992   */\n      dup2\n        /* \"#utility.yul\":1983:1999   */\n      add\n        /* \"#utility.yul\":2032:2035   */\n      dup5\n        /* \"#utility.yul\":2023:2029   */\n      dup5\n        /* \"#utility.yul\":2018:2021   */\n      dup5\n        /* \"#utility.yul\":2014:2030   */\n      add\n        /* \"#utility.yul\":2011:2036   */\n      gt\n        /* \"#utility.yul\":2008:2120   */\n      iszero\n      tag_102\n      jumpi\n        /* \"#utility.yul\":2039:2118   */\n      tag_103\n      tag_43\n      jump\t// in\n    tag_103:\n        /* \"#utility.yul\":2008:2120   */\n    tag_102:\n        /* \"#utility.yul\":2129:2183   */\n      tag_104\n        /* \"#utility.yul\":2176:2182   */\n      dup5\n        /* \"#utility.yul\":2171:2174   */\n      dup3\n        /* \"#utility.yul\":2166:2169   */\n      dup6\n        /* \"#utility.yul\":2129:2183   */\n      tag_49\n      jump\t// in\n    tag_104:\n        /* \"#utility.yul\":1848:2189   */\n      pop\n        /* \"#utility.yul\":1764:2189   */\n      swap4\n      swap3\n      pop\n      pop\n      pop\n      jump\t// out\n        /* \"#utility.yul\":2209:2549   */\n    tag_51:\n        /* \"#utility.yul\":2265:2270   */\n      0x00\n        /* \"#utility.yul\":2314:2317   */\n      dup3\n        /* \"#utility.yul\":2307:2311   */\n      0x1f\n        /* \"#utility.yul\":2299:2305   */\n      dup4\n        /* \"#utility.yul\":2295:2312   */\n      add\n        /* \"#utility.yul\":2291:2318   */\n      slt\n        /* \"#utility.yul\":2281:2403   */\n      tag_106\n      jumpi\n        /* \"#utility.yul\":2322:2401   */\n      tag_107\n      tag_42\n      jump\t// in\n    tag_107:\n        /* \"#utility.yul\":2281:2403   */\n    tag_106:\n        /* \"#utility.yul\":2439:2445   */\n      dup2\n        /* \"#utility.yul\":2426:2446   */\n      calldataload\n        /* \"#utility.yul\":2464:2543   */\n      tag_108\n        /* \"#utility.yul\":2539:2542   */\n      dup5\n        /* \"#utility.yul\":2531:2537   */\n      dup3\n        /* \"#utility.yul\":2524:2528   */\n      0x20\n        /* \"#utility.yul\":2516:2522   */\n      dup7\n        /* \"#utility.yul\":2512:2529   */\n      add\n        /* \"#utility.yul\":2464:2543   */\n      tag_50\n      jump\t// in\n    tag_108:\n        /* \"#utility.yul\":2455:2543   */\n      swap2\n      pop\n        /* \"#utility.yul\":2271:2549   */\n      pop\n        /* \"#utility.yul\":2209:2549   */\n      swap3\n      swap2\n      pop\n      pop\n      jump\t// out\n        /* \"#utility.yul\":2555:2632   */\n    tag_52:\n        /* \"#utility.yul\":2592:2599   */\n      0x00\n        /* \"#utility.yul\":2621:2626   */\n      dup2\n        /* \"#utility.yul\":2610:2626   */\n      swap1\n      pop\n        /* \"#utility.yul\":2555:2632   */\n      swap2\n      swap1\n      pop\n      jump\t// out\n        /* \"#utility.yul\":2638:2760   */\n    tag_53:\n        /* \"#utility.yul\":2711:2735   */\n      tag_111\n        /* \"#utility.yul\":2729:2734   */\n      dup2\n        /* \"#utility.yul\":2711:2735   */\n      tag_52\n      jump\t// in\n    tag_111:\n        /* \"#utility.yul\":2704:2709   */\n      dup2\n        /* \"#utility.yul\":2701:2736   */\n      eq\n        /* \"#utility.yul\":2691:2754   */\n      tag_112\n      jumpi\n        /* \"#utility.yul\":2750:2751   */\n      0x00\n        /* \"#utility.yul\":2747:2748   */\n      dup1\n        /* \"#utility.yul\":2740:2752   */\n      revert\n        /* \"#utility.yul\":2691:2754   */\n    tag_112:\n        /* \"#utility.yul\":2638:2760   */\n      pop\n      jump\t// out\n        /* \"#utility.yul\":2766:2905   */\n    tag_54:\n        /* \"#utility.yul\":2812:2817   */\n      0x00\n        /* \"#utility.yul\":2850:2856   */\n      dup2\n        /* \"#utility.yul\":2837:2857   */\n      calldataload\n        /* \"#utility.yul\":2828:2857   */\n      swap1\n      pop\n        /* \"#utility.yul\":2866:2899   */\n      tag_114\n        /* \"#utility.yul\":2893:2898   */\n      dup2\n        /* \"#utility.yul\":2866:2899   */\n      tag_53\n      jump\t// in\n    tag_114:\n        /* \"#utility.yul\":2766:2905   */\n      swap3\n      swap2\n      pop\n      pop\n      jump\t// out\n        /* \"#utility.yul\":2911:3232   */\n    tag_55:\n        /* \"#utility.yul\":2998:3002   */\n      0x00\n        /* \"#utility.yul\":3088:3106   */\n      0xffffffffffffffff\n        /* \"#utility.yul\":3080:3086   */\n      dup3\n        /* \"#utility.yul\":3077:3107   */\n      gt\n        /* \"#utility.yul\":3074:3130   */\n      iszero\n      tag_116\n      jumpi\n        /* \"#utility.yul\":3110:3128   */\n      tag_117\n      tag_45\n      jump\t// in\n    tag_117:\n        /* \"#utility.yul\":3074:3130   */\n    tag_116:\n        /* \"#utility.yul\":3160:3164   */\n      0x20\n        /* \"#utility.yul\":3152:3158   */\n      dup3\n        /* \"#utility.yul\":3148:3165   */\n      mul\n        /* \"#utility.yul\":3140:3165   */\n      swap1\n      pop\n        /* \"#utility.yul\":3220:3224   */\n      0x20\n        /* \"#utility.yul\":3214:3218   */\n      dup2\n        /* \"#utility.yul\":3210:3225   */\n      add\n        /* \"#utility.yul\":3202:3225   */\n      swap1\n      pop\n        /* \"#utility.yul\":2911:3232   */\n      swap2\n      swap1\n      pop\n      jump\t// out\n        /* \"#utility.yul\":3238:3355   */\n    tag_56:\n        /* \"#utility.yul\":3347:3348   */\n      0x00\n        /* \"#utility.yul\":3344:3345   */\n      dup1\n        /* \"#utility.yul\":3337:3349   */\n      revert\n        /* \"#utility.yul\":3377:4322   */\n    tag_57:\n        /* \"#utility.yul\":3483:3488   */\n      0x00\n        /* \"#utility.yul\":3508:3599   */\n      tag_120\n        /* \"#utility.yul\":3524:3598   */\n      tag_121\n        /* \"#utility.yul\":3591:3597   */\n      dup5\n        /* \"#utility.yul\":3524:3598   */\n      tag_55\n      jump\t// in\n    tag_121:\n        /* \"#utility.yul\":3508:3599   */\n      tag_47\n      jump\t// in\n    tag_120:\n        /* \"#utility.yul\":3499:3599   */\n      swap1\n      pop\n        /* \"#utility.yul\":3619:3624   */\n      dup1\n        /* \"#utility.yul\":3648:3654   */\n      dup4\n        /* \"#utility.yul\":3641:3646   */\n      dup3\n        /* \"#utility.yul\":3634:3655   */\n      mstore\n        /* \"#utility.yul\":3682:3686   */\n      0x20\n        /* \"#utility.yul\":3675:3680   */\n      dup3\n        /* \"#utility.yul\":3671:3687   */\n      add\n        /* \"#utility.yul\":3664:3687   */\n      swap1\n      pop\n        /* \"#utility.yul\":3735:3739   */\n      0x20\n        /* \"#utility.yul\":3727:3733   */\n      dup5\n        /* \"#utility.yul\":3723:3740   */\n      mul\n        /* \"#utility.yul\":3715:3721   */\n      dup4\n        /* \"#utility.yul\":3711:3741   */\n      add\n        /* \"#utility.yul\":3764:3767   */\n      dup6\n        /* \"#utility.yul\":3756:3762   */\n      dup2\n        /* \"#utility.yul\":3753:3768   */\n      gt\n        /* \"#utility.yul\":3750:3872   */\n      iszero\n      tag_122\n      jumpi\n        /* \"#utility.yul\":3783:3862   */\n      tag_123\n      tag_56\n      jump\t// in\n    tag_123:\n        /* \"#utility.yul\":3750:3872   */\n    tag_122:\n        /* \"#utility.yul\":3898:3904   */\n      dup4\n        /* \"#utility.yul\":3881:4316   */\n    tag_124:\n        /* \"#utility.yul\":3915:3921   */\n      dup2\n        /* \"#utility.yul\":3910:3913   */\n      dup2\n        /* \"#utility.yul\":3907:3922   */\n      lt\n        /* \"#utility.yul\":3881:4316   */\n      iszero\n      tag_126\n      jumpi\n        /* \"#utility.yul\":4004:4007   */\n      dup1\n        /* \"#utility.yul\":3991:4008   */\n      calldataload\n        /* \"#utility.yul\":4040:4058   */\n      0xffffffffffffffff\n        /* \"#utility.yul\":4027:4038   */\n      dup2\n        /* \"#utility.yul\":4024:4059   */\n      gt\n        /* \"#utility.yul\":4021:4143   */\n      iszero\n      tag_127\n      jumpi\n        /* \"#utility.yul\":4062:4141   */\n      tag_128\n      tag_42\n      jump\t// in\n    tag_128:\n        /* \"#utility.yul\":4021:4143   */\n    tag_127:\n        /* \"#utility.yul\":4186:4197   */\n      dup1\n        /* \"#utility.yul\":4178:4184   */\n      dup7\n        /* \"#utility.yul\":4174:4198   */\n      add\n        /* \"#utility.yul\":4224:4271   */\n      tag_129\n        /* \"#utility.yul\":4267:4270   */\n      dup10\n        /* \"#utility.yul\":4255:4265   */\n      dup3\n        /* \"#utility.yul\":4224:4271   */\n      tag_51\n      jump\t// in\n    tag_129:\n        /* \"#utility.yul\":4219:4222   */\n      dup6\n        /* \"#utility.yul\":4212:4272   */\n      mstore\n        /* \"#utility.yul\":4301:4305   */\n      0x20\n        /* \"#utility.yul\":4296:4299   */\n      dup6\n        /* \"#utility.yul\":4292:4306   */\n      add\n        /* \"#utility.yul\":4285:4306   */\n      swap5\n      pop\n        /* \"#utility.yul\":3957:4316   */\n      pop\n      pop\n        /* \"#utility.yul\":3941:3945   */\n      0x20\n        /* \"#utility.yul\":3936:3939   */\n      dup2\n        /* \"#utility.yul\":3932:3946   */\n      add\n        /* \"#utility.yul\":3925:3946   */\n      swap1\n      pop\n        /* \"#utility.yul\":3881:4316   */\n      jump(tag_124)\n    tag_126:\n        /* \"#utility.yul\":3885:3906   */\n      pop\n        /* \"#utility.yul\":3489:4322   */\n      pop\n      pop\n        /* \"#utility.yul\":3377:4322   */\n      swap4\n      swap3\n      pop\n      pop\n      pop\n      jump\t// out\n        /* \"#utility.yul\":4344:4734   */\n    tag_58:\n        /* \"#utility.yul\":4425:4430   */\n      0x00\n        /* \"#utility.yul\":4474:4477   */\n      dup3\n        /* \"#utility.yul\":4467:4471   */\n      0x1f\n        /* \"#utility.yul\":4459:4465   */\n      dup4\n        /* \"#utility.yul\":4455:4472   */\n      add\n        /* \"#utility.yul\":4451:4478   */\n      slt\n        /* \"#utility.yul\":4441:4563   */\n      tag_131\n      jumpi\n        /* \"#utility.yul\":4482:4561   */\n      tag_132\n      tag_42\n      jump\t// in\n    tag_132:\n        /* \"#utility.yul\":4441:4563   */\n    tag_131:\n        /* \"#utility.yul\":4599:4605   */\n      dup2\n        /* \"#utility.yul\":4586:4606   */\n      calldataload\n        /* \"#utility.yul\":4624:4728   */\n      tag_133\n        /* \"#utility.yul\":4724:4727   */\n      dup5\n        /* \"#utility.yul\":4716:4722   */\n      dup3\n        /* \"#utility.yul\":4709:4713   */\n      0x20\n        /* \"#utility.yul\":4701:4707   */\n      dup7\n        /* \"#utility.yul\":4697:4714   */\n      add\n        /* \"#utility.yul\":4624:4728   */\n      tag_57\n      jump\t// in\n    tag_133:\n        /* \"#utility.yul\":4615:4728   */\n      swap2\n      pop\n        /* \"#utility.yul\":4431:4734   */\n      pop\n        /* \"#utility.yul\":4344:4734   */\n      swap3\n      swap2\n      pop\n      pop\n      jump\t// out\n        /* \"#utility.yul\":4740:5769   */\n    tag_7:\n        /* \"#utility.yul\":4862:4868   */\n      0x00\n        /* \"#utility.yul\":4870:4876   */\n      dup1\n        /* \"#utility.yul\":4878:4884   */\n      0x00\n        /* \"#utility.yul\":4927:4929   */\n      0x60\n        /* \"#utility.yul\":4915:4924   */\n      dup5\n        /* \"#utility.yul\":4906:4913   */\n      dup7\n        /* \"#utility.yul\":4902:4925   */\n      sub\n        /* \"#utility.yul\":4898:4930   */\n      slt\n        /* \"#utility.yul\":4895:5014   */\n      iszero\n      tag_135\n      jumpi\n        /* \"#utility.yul\":4933:5012   */\n      tag_136\n      tag_40\n      jump\t// in\n    tag_136:\n        /* \"#utility.yul\":4895:5014   */\n    tag_135:\n        /* \"#utility.yul\":5081:5082   */\n      0x00\n        /* \"#utility.yul\":5070:5079   */\n      dup5\n        /* \"#utility.yul\":5066:5083   */\n      add\n        /* \"#utility.yul\":5053:5084   */\n      calldataload\n        /* \"#utility.yul\":5111:5129   */\n      0xffffffffffffffff\n        /* \"#utility.yul\":5103:5109   */\n      dup2\n        /* \"#utility.yul\":5100:5130   */\n      gt\n        /* \"#utility.yul\":5097:5214   */\n      iszero\n      tag_137\n      jumpi\n        /* \"#utility.yul\":5133:5212   */\n      tag_138\n      tag_41\n      jump\t// in\n    tag_138:\n        /* \"#utility.yul\":5097:5214   */\n    tag_137:\n        /* \"#utility.yul\":5238:5301   */\n      tag_139\n        /* \"#utility.yul\":5293:5300   */\n      dup7\n        /* \"#utility.yul\":5284:5290   */\n      dup3\n        /* \"#utility.yul\":5273:5282   */\n      dup8\n        /* \"#utility.yul\":5269:5291   */\n      add\n        /* \"#utility.yul\":5238:5301   */\n      tag_51\n      jump\t// in\n    tag_139:\n        /* \"#utility.yul\":5228:5301   */\n      swap4\n      pop\n        /* \"#utility.yul\":5024:5311   */\n      pop\n        /* \"#utility.yul\":5350:5352   */\n      0x20\n        /* \"#utility.yul\":5376:5429   */\n      tag_140\n        /* \"#utility.yul\":5421:5428   */\n      dup7\n        /* \"#utility.yul\":5412:5418   */\n      dup3\n        /* \"#utility.yul\":5401:5410   */\n      dup8\n        /* \"#utility.yul\":5397:5419   */\n      add\n        /* \"#utility.yul\":5376:5429   */\n      tag_54\n      jump\t// in\n    tag_140:\n        /* \"#utility.yul\":5366:5429   */\n      swap3\n      pop\n        /* \"#utility.yul\":5321:5439   */\n      pop\n        /* \"#utility.yul\":5506:5508   */\n      0x40\n        /* \"#utility.yul\":5495:5504   */\n      dup5\n        /* \"#utility.yul\":5491:5509   */\n      add\n        /* \"#utility.yul\":5478:5510   */\n      calldataload\n        /* \"#utility.yul\":5537:5555   */\n      0xffffffffffffffff\n        /* \"#utility.yul\":5529:5535   */\n      dup2\n        /* \"#utility.yul\":5526:5556   */\n      gt\n        /* \"#utility.yul\":5523:5640   */\n      iszero\n      tag_141\n      jumpi\n        /* \"#utility.yul\":5559:5638   */\n      tag_142\n      tag_41\n      jump\t// in\n    tag_142:\n        /* \"#utility.yul\":5523:5640   */\n    tag_141:\n        /* \"#utility.yul\":5664:5752   */\n      tag_143\n        /* \"#utility.yul\":5744:5751   */\n      dup7\n        /* \"#utility.yul\":5735:5741   */\n      dup3\n        /* \"#utility.yul\":5724:5733   */\n      dup8\n        /* \"#utility.yul\":5720:5742   */\n      add\n        /* \"#utility.yul\":5664:5752   */\n      tag_58\n      jump\t// in\n    tag_143:\n        /* \"#utility.yul\":5654:5752   */\n      swap2\n      pop\n        /* \"#utility.yul\":5449:5762   */\n      pop\n        /* \"#utility.yul\":4740:5769   */\n      swap3\n      pop\n      swap3\n      pop\n      swap3\n      jump\t// out\n        /* \"#utility.yul\":5775:5892   */\n    tag_59:\n        /* \"#utility.yul\":5884:5885   */\n      0x00\n        /* \"#utility.yul\":5881:5882   */\n      dup1\n        /* \"#utility.yul\":5874:5886   */\n      revert\n        /* \"#utility.yul\":5898:6015   */\n    tag_60:\n        /* \"#utility.yul\":6007:6008   */\n      0x00\n        /* \"#utility.yul\":6004:6005   */\n      dup1\n        /* \"#utility.yul\":5997:6009   */\n      revert\n        /* \"#utility.yul\":6051:7153   */\n    tag_61:\n        /* \"#utility.yul\":6122:6127   */\n      0x00\n        /* \"#utility.yul\":6166:6170   */\n      0x60\n        /* \"#utility.yul\":6154:6163   */\n      dup3\n        /* \"#utility.yul\":6149:6152   */\n      dup5\n        /* \"#utility.yul\":6145:6164   */\n      sub\n        /* \"#utility.yul\":6141:6171   */\n      slt\n        /* \"#utility.yul\":6138:6255   */\n      iszero\n      tag_147\n      jumpi\n        /* \"#utility.yul\":6174:6253   */\n      tag_148\n      tag_59\n      jump\t// in\n    tag_148:\n        /* \"#utility.yul\":6138:6255   */\n    tag_147:\n        /* \"#utility.yul\":6273:6294   */\n      tag_149\n        /* \"#utility.yul\":6289:6293   */\n      0x60\n        /* \"#utility.yul\":6273:6294   */\n      tag_47\n      jump\t// in\n    tag_149:\n        /* \"#utility.yul\":6264:6294   */\n      swap1\n      pop\n        /* \"#utility.yul\":6381:6382   */\n      0x00\n        /* \"#utility.yul\":6370:6379   */\n      dup3\n        /* \"#utility.yul\":6366:6383   */\n      add\n        /* \"#utility.yul\":6353:6384   */\n      calldataload\n        /* \"#utility.yul\":6411:6429   */\n      0xffffffffffffffff\n        /* \"#utility.yul\":6403:6409   */\n      dup2\n        /* \"#utility.yul\":6400:6430   */\n      gt\n        /* \"#utility.yul\":6397:6514   */\n      iszero\n      tag_150\n      jumpi\n        /* \"#utility.yul\":6433:6512   */\n      tag_151\n      tag_60\n      jump\t// in\n    tag_151:\n        /* \"#utility.yul\":6397:6514   */\n    tag_150:\n        /* \"#utility.yul\":6553:6612   */\n      tag_152\n        /* \"#utility.yul\":6608:6611   */\n      dup5\n        /* \"#utility.yul\":6599:6605   */\n      dup3\n        /* \"#utility.yul\":6588:6597   */\n      dup6\n        /* \"#utility.yul\":6584:6606   */\n      add\n        /* \"#utility.yul\":6553:6612   */\n      tag_51\n      jump\t// in\n    tag_152:\n        /* \"#utility.yul\":6546:6550   */\n      0x00\n        /* \"#utility.yul\":6539:6544   */\n      dup4\n        /* \"#utility.yul\":6535:6551   */\n      add\n        /* \"#utility.yul\":6528:6613   */\n      mstore\n        /* \"#utility.yul\":6304:6624   */\n      pop\n        /* \"#utility.yul\":6685:6687   */\n      0x20\n        /* \"#utility.yul\":6726:6775   */\n      tag_153\n        /* \"#utility.yul\":6771:6774   */\n      dup5\n        /* \"#utility.yul\":6762:6768   */\n      dup3\n        /* \"#utility.yul\":6751:6760   */\n      dup6\n        /* \"#utility.yul\":6747:6769   */\n      add\n        /* \"#utility.yul\":6726:6775   */\n      tag_54\n      jump\t// in\n    tag_153:\n        /* \"#utility.yul\":6719:6723   */\n      0x20\n        /* \"#utility.yul\":6712:6717   */\n      dup4\n        /* \"#utility.yul\":6708:6724   */\n      add\n        /* \"#utility.yul\":6701:6776   */\n      mstore\n        /* \"#utility.yul\":6634:6787   */\n      pop\n        /* \"#utility.yul\":6877:6879   */\n      0x40\n        /* \"#utility.yul\":6866:6875   */\n      dup3\n        /* \"#utility.yul\":6862:6880   */\n      add\n        /* \"#utility.yul\":6849:6881   */\n      calldataload\n        /* \"#utility.yul\":6908:6926   */\n      0xffffffffffffffff\n        /* \"#utility.yul\":6900:6906   */\n      dup2\n        /* \"#utility.yul\":6897:6927   */\n      gt\n        /* \"#utility.yul\":6894:7011   */\n      iszero\n      tag_154\n      jumpi\n        /* \"#utility.yul\":6930:7009   */\n      tag_155\n      tag_60\n      jump\t// in\n    tag_155:\n        /* \"#utility.yul\":6894:7011   */\n    tag_154:\n        /* \"#utility.yul\":7050:7134   */\n      tag_156\n        /* \"#utility.yul\":7130:7133   */\n      dup5\n        /* \"#utility.yul\":7121:7127   */\n      dup3\n        /* \"#utility.yul\":7110:7119   */\n      dup6\n        /* \"#utility.yul\":7106:7128   */\n      add\n        /* \"#utility.yul\":7050:7134   */\n      tag_58\n      jump\t// in\n    tag_156:\n        /* \"#utility.yul\":7043:7047   */\n      0x40\n        /* \"#utility.yul\":7036:7041   */\n      dup4\n        /* \"#utility.yul\":7032:7048   */\n      add\n        /* \"#utility.yul\":7025:7135   */\n      mstore\n        /* \"#utility.yul\":6797:7146   */\n      pop\n        /* \"#utility.yul\":6051:7153   */\n      swap3\n      swap2\n      pop\n      pop\n      jump\t// out\n        /* \"#utility.yul\":7159:7692   */\n    tag_11:\n        /* \"#utility.yul\":7240:7246   */\n      0x00\n        /* \"#utility.yul\":7289:7291   */\n      0x20\n        /* \"#utility.yul\":7277:7286   */\n      dup3\n        /* \"#utility.yul\":7268:7275   */\n      dup5\n        /* \"#utility.yul\":7264:7287   */\n      sub\n        /* \"#utility.yul\":7260:7292   */\n      slt\n        /* \"#utility.yul\":7257:7376   */\n      iszero\n      tag_158\n      jumpi\n        /* \"#utility.yul\":7295:7374   */\n      tag_159\n      tag_40\n      jump\t// in\n    tag_159:\n        /* \"#utility.yul\":7257:7376   */\n    tag_158:\n        /* \"#utility.yul\":7443:7444   */\n      0x00\n        /* \"#utility.yul\":7432:7441   */\n      dup3\n        /* \"#utility.yul\":7428:7445   */\n      add\n        /* \"#utility.yul\":7415:7446   */\n      calldataload\n        /* \"#utility.yul\":7473:7491   */\n      0xffffffffffffffff\n        /* \"#utility.yul\":7465:7471   */\n      dup2\n        /* \"#utility.yul\":7462:7492   */\n      gt\n        /* \"#utility.yul\":7459:7576   */\n      iszero\n      tag_160\n      jumpi\n        /* \"#utility.yul\":7495:7574   */\n      tag_161\n      tag_41\n      jump\t// in\n    tag_161:\n        /* \"#utility.yul\":7459:7576   */\n    tag_160:\n        /* \"#utility.yul\":7600:7675   */\n      tag_162\n        /* \"#utility.yul\":7667:7674   */\n      dup5\n        /* \"#utility.yul\":7658:7664   */\n      dup3\n        /* \"#utility.yul\":7647:7656   */\n      dup6\n        /* \"#utility.yul\":7643:7665   */\n      add\n        /* \"#utility.yul\":7600:7675   */\n      tag_61\n      jump\t// in\n    tag_162:\n        /* \"#utility.yul\":7590:7675   */\n      swap2\n      pop\n        /* \"#utility.yul\":7386:7685   */\n      pop\n        /* \"#utility.yul\":7159:7692   */\n      swap3\n      swap2\n      pop\n      pop\n      jump\t// out\n        /* \"#utility.yul\":7698:7797   */\n    tag_62:\n        /* \"#utility.yul\":7750:7756   */\n      0x00\n        /* \"#utility.yul\":7784:7789   */\n      dup2\n        /* \"#utility.yul\":7778:7790   */\n      mload\n        /* \"#utility.yul\":7768:7790   */\n      swap1\n      pop\n        /* \"#utility.yul\":7698:7797   */\n      swap2\n      swap1\n      pop\n      jump\t// out\n        /* \"#utility.yul\":7803:7983   */\n    tag_63:\n        /* \"#utility.yul\":7851:7928   */\n      0x4e487b7100000000000000000000000000000000000000000000000000000000\n        /* \"#utility.yul\":7848:7849   */\n      0x00\n        /* \"#utility.yul\":7841:7929   */\n      mstore\n        /* \"#utility.yul\":7948:7952   */\n      0x22\n        /* \"#utility.yul\":7945:7946   */\n      0x04\n        /* \"#utility.yul\":7938:7953   */\n      mstore\n        /* \"#utility.yul\":7972:7976   */\n      0x24\n        /* \"#utility.yul\":7969:7970   */\n      0x00\n        /* \"#utility.yul\":7962:7977   */\n      revert\n        /* \"#utility.yul\":7989:8309   */\n    tag_32:\n        /* \"#utility.yul\":8033:8039   */\n      0x00\n        /* \"#utility.yul\":8070:8071   */\n      0x02\n        /* \"#utility.yul\":8064:8068   */\n      dup3\n        /* \"#utility.yul\":8060:8072   */\n      div\n        /* \"#utility.yul\":8050:8072   */\n      swap1\n      pop\n        /* \"#utility.yul\":8117:8118   */\n      0x01\n        /* \"#utility.yul\":8111:8115   */\n      dup3\n        /* \"#utility.yul\":8107:8119   */\n      and\n        /* \"#utility.yul\":8138:8156   */\n      dup1\n        /* \"#utility.yul\":8128:8209   */\n      tag_166\n      jumpi\n        /* \"#utility.yul\":8194:8198   */\n      0x7f\n        /* \"#utility.yul\":8186:8192   */\n      dup3\n        /* \"#utility.yul\":8182:8199   */\n      and\n        /* \"#utility.yul\":8172:8199   */\n      swap2\n      pop\n        /* \"#utility.yul\":8128:8209   */\n    tag_166:\n        /* \"#utility.yul\":8256:8258   */\n      0x20\n        /* \"#utility.yul\":8248:8254   */\n      dup3\n        /* \"#utility.yul\":8245:8259   */\n      lt\n        /* \"#utility.yul\":8225:8243   */\n      dup2\n        /* \"#utility.yul\":8222:8260   */\n      sub\n        /* \"#utility.yul\":8219:8303   */\n      tag_167\n      jumpi\n        /* \"#utility.yul\":8275:8293   */\n      tag_168\n      tag_63\n      jump\t// in\n    tag_168:\n        /* \"#utility.yul\":8219:8303   */\n    tag_167:\n        /* \"#utility.yul\":8040:8309   */\n      pop\n        /* \"#utility.yul\":7989:8309   */\n      swap2\n      swap1\n      pop\n      jump\t// out\n        /* \"#utility.yul\":8315:8456   */\n    tag_64:\n        /* \"#utility.yul\":8364:8368   */\n      0x00\n        /* \"#utility.yul\":8387:8390   */\n      dup2\n        /* \"#utility.yul\":8379:8390   */\n      swap1\n      pop\n        /* \"#utility.yul\":8410:8413   */\n      dup2\n        /* \"#utility.yul\":8407:8408   */\n      0x00\n        /* \"#utility.yul\":8400:8414   */\n      mstore\n        /* \"#utility.yul\":8444:8448   */\n      0x20\n        /* \"#utility.yul\":8441:8442   */\n      0x00\n        /* \"#utility.yul\":8431:8449   */\n      keccak256\n        /* \"#utility.yul\":8423:8449   */\n      swap1\n      pop\n        /* \"#utility.yul\":8315:8456   */\n      swap2\n      swap1\n      pop\n      jump\t// out\n        /* \"#utility.yul\":8462:8555   */\n    tag_65:\n        /* \"#utility.yul\":8499:8505   */\n      0x00\n        /* \"#utility.yul\":8546:8548   */\n      0x20\n        /* \"#utility.yul\":8541:8543   */\n      0x1f\n        /* \"#utility.yul\":8534:8539   */\n      dup4\n        /* \"#utility.yul\":8530:8544   */\n      add\n        /* \"#utility.yul\":8526:8549   */\n      div\n        /* \"#utility.yul\":8516:8549   */\n      swap1\n      pop\n        /* \"#utility.yul\":8462:8555   */\n      swap2\n      swap1\n      pop\n      jump\t// out\n        /* \"#utility.yul\":8561:8668   */\n    tag_66:\n        /* \"#utility.yul\":8605:8613   */\n      0x00\n        /* \"#utility.yul\":8655:8660   */\n      dup3\n        /* \"#utility.yul\":8649:8653   */\n      dup3\n        /* \"#utility.yul\":8645:8661   */\n      shl\n        /* \"#utility.yul\":8624:8661   */\n      swap1\n      pop\n        /* \"#utility.yul\":8561:8668   */\n      swap3\n      swap2\n      pop\n      pop\n      jump\t// out\n        /* \"#utility.yul\":8674:9067   */\n    tag_67:\n        /* \"#utility.yul\":8743:8749   */\n      0x00\n        /* \"#utility.yul\":8793:8794   */\n      0x08\n        /* \"#utility.yul\":8781:8791   */\n      dup4\n        /* \"#utility.yul\":8777:8795   */\n      mul\n        /* \"#utility.yul\":8816:8913   */\n      tag_173\n        /* \"#utility.yul\":8846:8912   */\n      0xffffffffffffffffffffffffffffffffffffffffffffffffffffffffffffffff\n        /* \"#utility.yul\":8835:8844   */\n      dup3\n        /* \"#utility.yul\":8816:8913   */\n      tag_66\n      jump\t// in\n    tag_173:\n        /* \"#utility.yul\":8934:8973   */\n      tag_174\n        /* \"#utility.yul\":8964:8972   */\n      dup7\n        /* \"#utility.yul\":8953:8962   */\n      dup4\n        /* \"#utility.yul\":8934:8973   */\n      tag_66\n      jump\t// in\n    tag_174:\n        /* \"#utility.yul\":8922:8973   */\n      swap6\n      pop\n        /* \"#utility.yul\":9006:9010   */\n      dup1\n        /* \"#utility.yul\":9002:9011   */\n      not\n        /* \"#utility.yul\":8995:9000   */\n      dup5\n        /* \"#utility.yul\":8991:9012   */\n      and\n        /* \"#utility.yul\":8982:9012   */\n      swap4\n      pop\n        /* \"#utility.yul\":9055:9059   */\n      dup1\n        /* \"#utility.yul\":9045:9053   */\n      dup7\n        /* \"#utility.yul\":9041:9060   */\n      and\n        /* \"#utility.yul\":9034:9039   */\n      dup5\n        /* \"#utility.yul\":9031:9061   */\n      or\n        /* \"#utility.yul\":9021:9061   */\n      swap3\n      pop\n        /* \"#utility.yul\":8750:9067   */\n      pop\n      pop\n        /* \"#utility.yul\":8674:9067   */\n      swap4\n      swap3\n      pop\n      pop\n      pop\n      jump\t// out\n        /* \"#utility.yul\":9073:9133   */\n    tag_68:\n        /* \"#utility.yul\":9101:9104   */\n      0x00\n        /* \"#utility.yul\":9122:9127   */\n      dup2\n        /* \"#utility.yul\":9115:9127   */\n      swap1\n      pop\n        /* \"#utility.yul\":9073:9133   */\n      swap2\n      swap1\n      pop\n      jump\t// out\n        /* \"#utility.yul\":9139:9281   */\n    tag_69:\n        /* \"#utility.yul\":9189:9198   */\n      0x00\n        /* \"#utility.yul\":9222:9275   */\n      tag_177\n        /* \"#utility.yul\":9240:9274   */\n      tag_178\n        /* \"#utility.yul\":9249:9273   */\n      tag_179\n        /* \"#utility.yul\":9267:9272   */\n      dup5\n        /* \"#utility.yul\":9249:9273   */\n      tag_52\n      jump\t// in\n    tag_179:\n        /* \"#utility.yul\":9240:9274   */\n      tag_68\n      jump\t// in\n    tag_178:\n        /* \"#utility.yul\":9222:9275   */\n      tag_52\n      jump\t// in\n    tag_177:\n        /* \"#utility.yul\":9209:9275   */\n      swap1\n      pop\n        /* \"#utility.yul\":9139:9281   */\n      swap2\n      swap1\n      pop\n      jump\t// out\n        /* \"#utility.yul\":9287:9362   */\n    tag_70:\n        /* \"#utility.yul\":9330:9333   */\n      0x00\n        /* \"#utility.yul\":9351:9356   */\n      dup2\n        /* \"#utility.yul\":9344:9356   */\n      swap1\n      pop\n        /* \"#utility.yul\":9287:9362   */\n      swap2\n      swap1\n      pop\n      jump\t// out\n        /* \"#utility.yul\":9368:9637   */\n    tag_71:\n        /* \"#utility.yul\":9478:9517   */\n      tag_182\n        /* \"#utility.yul\":9509:9516   */\n      dup4\n        /* \"#utility.yul\":9478:9517   */\n      tag_69\n      jump\t// in\n    tag_182:\n        /* \"#utility.yul\":9539:9630   */\n      tag_183\n        /* \"#utility.yul\":9588:9629   */\n      tag_184\n        /* \"#utility.yul\":9612:9628   */\n      dup3\n        /* \"#utility.yul\":9588:9629   */\n      tag_70\n      jump\t// in\n    tag_184:\n        /* \"#utility.yul\":9580:9586   */\n      dup5\n        /* \"#utility.yul\":9573:9577   */\n      dup5\n        /* \"#utility.yul\":9567:9578   */\n      sload\n        /* \"#utility.yul\":9539:9630   */\n      tag_67\n      jump\t// in\n    tag_183:\n        /* \"#utility.yul\":9533:9537   */\n      dup3\n        /* \"#utility.yul\":9526:9631   */\n      sstore\n        /* \"#utility.yul\":9444:9637   */\n      pop\n        /* \"#utility.yul\":9368:9637   */\n      pop\n      pop\n      pop\n      jump\t// out\n        /* \"#utility.yul\":9643:9716   */\n    tag_72:\n        /* \"#utility.yul\":9688:9691   */\n      0x00\n        /* \"#utility.yul\":9643:9716   */\n      swap1\n      jump\t// out\n        /* \"#utility.yul\":9722:9911   */\n    tag_73:\n        /* \"#utility.yul\":9799:9831   */\n      tag_187\n      tag_72\n      jump\t// in\n    tag_187:\n        /* \"#utility.yul\":9840:9905   */\n      tag_188\n        /* \"#utility.yul\":9898:9904   */\n      dup2\n        /* \"#utility.yul\":9890:9896   */\n      dup5\n        /* \"#utility.yul\":9884:9888   */\n      dup5\n        /* \"#utility.yul\":9840:9905   */\n      tag_71\n      jump\t// in\n    tag_188:\n        /* \"#utility.yul\":9775:9911   */\n      pop\n        /* \"#utility.yul\":9722:9911   */\n      pop\n      pop\n      jump\t// out\n        /* \"#utility.yul\":9917:10103   */\n    tag_74:\n        /* \"#utility.yul\":9977:10097   */\n    tag_190:\n        /* \"#utility.yul\":9994:9997   */\n      dup2\n        /* \"#utility.yul\":9987:9992   */\n      dup2\n        /* \"#utility.yul\":9984:9998   */\n      lt\n        /* \"#utility.yul\":9977:10097   */\n      iszero\n      tag_192\n      jumpi\n        /* \"#utility.yul\":10048:10087   */\n      tag_193\n        /* \"#utility.yul\":10085:10086   */\n      0x00\n        /* \"#utility.yul\":10078:10083   */\n      dup3\n        /* \"#utility.yul\":10048:10087   */\n      tag_73\n      jump\t// in\n    tag_193:\n        /* \"#utility.yul\":10021:10022   */\n      0x01\n        /* \"#utility.yul\":10014:10019   */\n      dup2\n        /* \"#utility.yul\":10010:10023   */\n      add\n        /* \"#utility.yul\":10001:10023   */\n      swap1\n      pop\n        /* \"#utility.yul\":9977:10097   */\n      jump(tag_190)\n    tag_192:\n        /* \"#utility.yul\":9917:10103   */\n      pop\n      pop\n      jump\t// out\n        /* \"#utility.yul\":10109:10652   */\n    tag_75:\n        /* \"#utility.yul\":10210:10212   */\n      0x1f\n        /* \"#utility.yul\":10205:10208   */\n      dup3\n        /* \"#utility.yul\":10202:10213   */\n      gt\n        /* \"#utility.yul\":10199:10645   */\n      iszero\n      tag_195\n      jumpi\n        /* \"#utility.yul\":10244:10282   */\n      tag_196\n        /* \"#utility.yul\":10276:10281   */\n      dup2\n        /* \"#utility.yul\":10244:10282   */\n      tag_64\n      jump\t// in\n    tag_196:\n        /* \"#utility.yul\":10328:10357   */\n      tag_197\n        /* \"#utility.yul\":10346:10356   */\n      dup5\n        /* \"#utility.yul\":10328:10357   */\n      tag_65\n      jump\t// in\n    tag_197:\n        /* \"#utility.yul\":10318:10326   */\n      dup2\n        /* \"#utility.yul\":10314:10358   */\n      add\n        /* \"#utility.yul\":10511:10513   */\n      0x20\n        /* \"#utility.yul\":10499:10509   */\n      dup6\n        /* \"#utility.yul\":10496:10514   */\n      lt\n        /* \"#utility.yul\":10493:10542   */\n      iszero\n      tag_198\n      jumpi\n        /* \"#utility.yul\":10532:10540   */\n      dup2\n        /* \"#utility.yul\":10517:10540   */\n      swap1\n      pop\n        /* \"#utility.yul\":10493:10542   */\n    tag_198:\n        /* \"#utility.yul\":10555:10635   */\n      tag_199\n        /* \"#utility.yul\":10611:10633   */\n      tag_200\n        /* \"#utility.yul\":10629:10632   */\n      dup6\n        /* \"#utility.yul\":10611:10633   */\n      tag_65\n      jump\t// in\n    tag_200:\n        /* \"#utility.yul\":10601:10609   */\n      dup4\n        /* \"#utility.yul\":10597:10634   */\n      add\n        /* \"#utility.yul\":10584:10595   */\n      dup3\n        /* \"#utility.yul\":10555:10635   */\n      tag_74\n      jump\t// in\n    tag_199:\n        /* \"#utility.yul\":10214:10645   */\n      pop\n      pop\n        /* \"#utility.yul\":10199:10645   */\n    tag_195:\n        /* \"#utility.yul\":10109:10652   */\n      pop\n      pop\n      pop\n      jump\t// out\n        /* \"#utility.yul\":10658:10775   */\n    tag_76:\n        /* \"#utility.yul\":10712:10720   */\n      0x00\n        /* \"#utility.yul\":10762:10767   */\n      dup3\n        /* \"#utility.yul\":10756:10760   */\n      dup3\n        /* \"#utility.yul\":10752:10768   */\n      shr\n        /* \"#utility.yul\":10731:10768   */\n      swap1\n      pop\n        /* \"#utility.yul\":10658:10775   */\n      swap3\n      swap2\n      pop\n      pop\n      jump\t// out\n        /* \"#utility.yul\":10781:10950   */\n    tag_77:\n        /* \"#utility.yul\":10825:10831   */\n      0x00\n        /* \"#utility.yul\":10858:10909   */\n      tag_203\n        /* \"#utility.yul\":10906:10907   */\n      0x00\n        /* \"#utility.yul\":10902:10908   */\n      not\n        /* \"#utility.yul\":10894:10899   */\n      dup5\n        /* \"#utility.yul\":10891:10892   */\n      0x08\n        /* \"#utility.yul\":10887:10900   */\n      mul\n        /* \"#utility.yul\":10858:10909   */\n      tag_76\n      jump\t// in\n    tag_203:\n        /* \"#utility.yul\":10854:10910   */\n      not\n        /* \"#utility.yul\":10939:10943   */\n      dup1\n        /* \"#utility.yul\":10933:10937   */\n      dup4\n        /* \"#utility.yul\":10929:10944   */\n      and\n        /* \"#utility.yul\":10919:10944   */\n      swap2\n      pop\n        /* \"#utility.yul\":10832:10950   */\n      pop\n        /* \"#utility.yul\":10781:10950   */\n      swap3\n      swap2\n      pop\n      pop\n      jump\t// out\n        /* \"#utility.yul\":10955:11250   */\n    tag_78:\n        /* \"#utility.yul\":11031:11035   */\n      0x00\n        /* \"#utility.yul\":11177:11206   */\n      tag_205\n        /* \"#utility.yul\":11202:11205   */\n      dup4\n        /* \"#utility.yul\":11196:11200   */\n      dup4\n        /* \"#utility.yul\":11177:11206   */\n      tag_77\n      jump\t// in\n    tag_205:\n        /* \"#utility.yul\":11169:11206   */\n      swap2\n      pop\n        /* \"#utility.yul\":11239:11242   */\n      dup3\n        /* \"#utility.yul\":11236:11237   */\n      0x02\n        /* \"#utility.yul\":11232:11243   */\n      mul\n        /* \"#utility.yul\":11226:11230   */\n      dup3\n        /* \"#utility.yul\":11223:11244   */\n      or\n        /* \"#utility.yul\":11215:11244   */\n      swap1\n      pop\n        /* \"#utility.yul\":10955:11250   */\n      swap3\n      swap2\n      pop\n      pop\n      jump\t// out\n        /* \"#utility.yul\":11255:12650   */\n    tag_15:\n        /* \"#utility.yul\":11372:11409   */\n      tag_207\n        /* \"#utility.yul\":11405:11408   */\n      dup3\n        /* \"#utility.yul\":11372:11409   */\n      tag_62\n      jump\t// in\n    tag_207:\n        /* \"#utility.yul\":11474:11492   */\n      0xffffffffffffffff\n        /* \"#utility.yul\":11466:11472   */\n      dup2\n        /* \"#utility.yul\":11463:11493   */\n      gt\n        /* \"#utility.yul\":11460:11516   */\n      iszero\n      tag_208\n      jumpi\n        /* \"#utility.yul\":11496:11514   */\n      tag_209\n      tag_45\n      jump\t// in\n    tag_209:\n        /* \"#utility.yul\":11460:11516   */\n    tag_208:\n        /* \"#utility.yul\":11540:11578   */\n      tag_210\n        /* \"#utility.yul\":11572:11576   */\n      dup3\n        /* \"#utility.yul\":11566:11577   */\n      sload\n        /* \"#utility.yul\":11540:11578   */\n      tag_32\n      jump\t// in\n    tag_210:\n        /* \"#utility.yul\":11625:11692   */\n      tag_211\n        /* \"#utility.yul\":11685:11691   */\n      dup3\n        /* \"#utility.yul\":11677:11683   */\n      dup3\n        /* \"#utility.yul\":11671:11675   */\n      dup6\n        /* \"#utility.yul\":11625:11692   */\n      tag_75\n      jump\t// in\n    tag_211:\n        /* \"#utility.yul\":11719:11720   */\n      0x00\n        /* \"#utility.yul\":11743:11747   */\n      0x20\n        /* \"#utility.yul\":11730:11747   */\n      swap1\n      pop\n        /* \"#utility.yul\":11775:11777   */\n      0x1f\n        /* \"#utility.yul\":11767:11773   */\n      dup4\n        /* \"#utility.yul\":11764:11778   */\n      gt\n        /* \"#utility.yul\":11792:11793   */\n      0x01\n        /* \"#utility.yul\":11787:12405   */\n      dup2\n      eq\n      tag_213\n      jumpi\n        /* \"#utility.yul\":12449:12450   */\n      0x00\n        /* \"#utility.yul\":12466:12472   */\n      dup5\n        /* \"#utility.yul\":12463:12540   */\n      iszero\n      tag_214\n      jumpi\n        /* \"#utility.yul\":12515:12524   */\n      dup3\n        /* \"#utility.yul\":12510:12513   */\n      dup8\n        /* \"#utility.yul\":12506:12525   */\n      add\n        /* \"#utility.yul\":12500:12526   */\n      mload\n        /* \"#utility.yul\":12491:12526   */\n      swap1\n      pop\n        /* \"#utility.yul\":12463:12540   */\n    tag_214:\n        /* \"#utility.yul\":12566:12633   */\n      tag_215\n        /* \"#utility.yul\":12626:12632   */\n      dup6\n        /* \"#utility.yul\":12619:12624   */\n      dup3\n        /* \"#utility.yul\":12566:12633   */\n      tag_78\n      jump\t// in\n    tag_215:\n        /* \"#utility.yul\":12560:12564   */\n      dup7\n        /* \"#utility.yul\":12553:12634   */\n      sstore\n        /* \"#utility.yul\":12422:12644   */\n      pop\n        /* \"#utility.yul\":11757:12644   */\n      jump(tag_212)\n        /* \"#utility.yul\":11787:12405   */\n    tag_213:\n        /* \"#utility.yul\":11839:11843   */\n      0x1f\n        /* \"#utility.yul\":11835:11844   */\n      not\n        /* \"#utility.yul\":11827:11833   */\n      dup5\n        /* \"#utility.yul\":11823:11845   */\n      and\n        /* \"#utility.yul\":11873:11910   */\n      tag_216\n        /* \"#utility.yul\":11905:11909   */\n      dup7\n        /* \"#utility.yul\":11873:11910   */\n      tag_64\n      jump\t// in\n    tag_216:\n        /* \"#utility.yul\":11932:11933   */\n      0x00\n        /* \"#utility.yul\":11946:12154   */\n    tag_217:\n        /* \"#utility.yul\":11960:11967   */\n      dup3\n        /* \"#utility.yul\":11957:11958   */\n      dup2\n        /* \"#utility.yul\":11954:11968   */\n      lt\n        /* \"#utility.yul\":11946:12154   */\n      iszero\n      tag_219\n      jumpi\n        /* \"#utility.yul\":12039:12048   */\n      dup5\n        /* \"#utility.yul\":12034:12037   */\n      dup10\n        /* \"#utility.yul\":12030:12049   */\n      add\n        /* \"#utility.yul\":12024:12050   */\n      mload\n        /* \"#utility.yul\":12016:12022   */\n      dup3\n        /* \"#utility.yul\":12009:12051   */\n      sstore\n        /* \"#utility.yul\":12090:12091   */\n      0x01\n        /* \"#utility.yul\":12082:12088   */\n      dup3\n        /* \"#utility.yul\":12078:12092   */\n      add\n        /* \"#utility.yul\":12068:12092   */\n      swap2\n      pop\n        /* \"#utility.yul\":12137:12139   */\n      0x20\n        /* \"#utility.yul\":12126:12135   */\n      dup6\n        /* \"#utility.yul\":12122:12140   */\n      add\n        /* \"#utility.yul\":12109:12140   */\n      swap5\n      pop\n        /* \"#utility.yul\":11983:11987   */\n      0x20\n        /* \"#utility.yul\":11980:11981   */\n      dup2\n        /* \"#utility.yul\":11976:11988   */\n      add\n        /* \"#utility.yul\":11971:11988   */\n      swap1\n      pop\n        /* \"#utility.yul\":11946:12154   */\n      jump(tag_217)\n    tag_219:\n        /* \"#utility.yul\":12182:12188   */\n      dup7\n        /* \"#utility.yul\":12173:12180   */\n      dup4\n        /* \"#utility.yul\":12170:12189   */\n      lt\n        /* \"#utility.yul\":12167:12346   */\n      iszero\n      tag_220\n      jumpi\n        /* \"#utility.yul\":12240:12249   */\n      dup5\n        /* \"#utility.yul\":12235:12238   */\n      dup10\n        /* \"#utility.yul\":12231:12250   */\n      add\n        /* \"#utility.yul\":12225:12251   */\n      mload\n        /* \"#utility.yul\":12283:12331   */\n      tag_221\n        /* \"#utility.yul\":12325:12329   */\n      0x1f\n        /* \"#utility.yul\":12317:12323   */\n      dup10\n        /* \"#utility.yul\":12313:12330   */\n      and\n        /* \"#utility.yul\":12302:12311   */\n      dup3\n        /* \"#utility.yul\":12283:12331   */\n      tag_77\n      jump\t// in\n    tag_221:\n        /* \"#utility.yul\":12275:12281   */\n      dup4\n        /* \"#utility.yul\":12268:12332   */\n      sstore\n        /* \"#utility.yul\":12190:12346   */\n      pop\n        /* \"#utility.yul\":12167:12346   */\n    tag_220:\n        /* \"#utility.yul\":12392:12393   */\n      0x01\n        /* \"#utility.yul\":12388:12389   */\n      0x02\n        /* \"#utility.yul\":12380:12386   */\n      dup9\n        /* \"#utility.yul\":12376:12390   */\n      mul\n        /* \"#utility.yul\":12372:12394   */\n      add\n        /* \"#utility.yul\":12366:12370   */\n      dup9\n        /* \"#utility.yul\":12359:12395   */\n      sstore\n        /* \"#utility.yul\":11794:12405   */\n      pop\n      pop\n      pop\n        /* \"#utility.yul\":11757:12644   */\n    tag_212:\n      pop\n        /* \"#utility.yul\":11347:12650   */\n      pop\n      pop\n      pop\n        /* \"#utility.yul\":11255:12650   */\n      pop\n      pop\n      jump\t// out\n\n    auxdata: 0xa2646970667358221220abeeefa635e25dbb7d0563a5102d7c86fc488b5c70efce7d31b2beb9afbaef3464736f6c634300081a0033\n}\n",
				"bytecode": {
					"linkReferences": {},
					"object": "6080604052348015600e575f80fd5b506108bf8061001c5f395ff3fe608060405234801561000f575f80fd5b5060043610610034575f3560e01c80634817a739146100385780638808f52414610054575b5f80fd5b610052600480360381019061004d9190610446565b610070565b005b61006e6004803603810190610069919061056f565b6100cf565b005b6040518060600160405280848152602001838152602001828152505f80820151815f01908161009f91906107ba565b506020820151816001015560408201518160020190805190602001906100c6929190610112565b50905050505050565b805f80820151815f0190816100e491906107ba565b5060208201518160010155604082015181600201908051906020019061010b929190610112565b5090505050565b828054828255905f5260205f20908101928215610158579160200282015b8281111561015757825182908161014791906107ba565b5091602001919060010190610130565b5b5090506101659190610169565b5090565b5b80821115610188575f818161017f919061018c565b5060010161016a565b5090565b508054610198906105ed565b5f825580601f106101a957506101c6565b601f0160209004905f5260205f20908101906101c591906101c9565b5b50565b5b808211156101e0575f815f9055506001016101ca565b5090565b5f604051905090565b5f80fd5b5f80fd5b5f80fd5b5f80fd5b5f601f19601f8301169050919050565b7f4e487b71000000000000000000000000000000000000000000000000000000005f52604160045260245ffd5b610243826101fd565b810181811067ffffffffffffffff821117156102625761026161020d565b5b80604052505050565b5f6102746101e4565b9050610280828261023a565b919050565b5f67ffffffffffffffff82111561029f5761029e61020d565b5b6102a8826101fd565b9050602081019050919050565b828183375f83830152505050565b5f6102d56102d084610285565b61026b565b9050828152602081018484840111156102f1576102f06101f9565b5b6102fc8482856102b5565b509392505050565b5f82601f830112610318576103176101f5565b5b81356103288482602086016102c3565b91505092915050565b5f819050919050565b61034381610331565b811461034d575f80fd5b50565b5f8135905061035e8161033a565b92915050565b5f67ffffffffffffffff82111561037e5761037d61020d565b5b602082029050602081019050919050565b5f80fd5b5f6103a56103a084610364565b61026b565b905080838252602082019050602084028301858111156103c8576103c761038f565b5b835b8181101561040f57803567ffffffffffffffff8111156103ed576103ec6101f5565b5b8086016103fa8982610304565b855260208501945050506020810190506103ca565b5050509392505050565b5f82601f83011261042d5761042c6101f5565b5b813561043d848260208601610393565b91505092915050565b5f805f6060848603121561045d5761045c6101ed565b5b5f84013567ffffffffffffffff81111561047a576104796101f1565b5b61048686828701610304565b935050602061049786828701610350565b925050604084013567ffffffffffffffff8111156104b8576104b76101f1565b5b6104c486828701610419565b9150509250925092565b5f80fd5b5f80fd5b5f606082840312156104eb576104ea6104ce565b5b6104f5606061026b565b90505f82013567ffffffffffffffff811115610514576105136104d2565b5b61052084828501610304565b5f83015250602061053384828501610350565b602083015250604082013567ffffffffffffffff811115610557576105566104d2565b5b61056384828501610419565b60408301525092915050565b5f60208284031215610584576105836101ed565b5b5f82013567ffffffffffffffff8111156105a1576105a06101f1565b5b6105ad848285016104d6565b91505092915050565b5f81519050919050565b7f4e487b71000000000000000000000000000000000000000000000000000000005f52602260045260245ffd5b5f600282049050600182168061060457607f821691505b602082108103610617576106166105c0565b5b50919050565b5f819050815f5260205f209050919050565b5f6020601f8301049050919050565b5f82821b905092915050565b5f600883026106797fffffffffffffffffffffffffffffffffffffffffffffffffffffffffffffffff8261063e565b610683868361063e565b95508019841693508086168417925050509392505050565b5f819050919050565b5f6106be6106b96106b484610331565b61069b565b610331565b9050919050565b5f819050919050565b6106d7836106a4565b6106eb6106e3826106c5565b84845461064a565b825550505050565b5f90565b6106ff6106f3565b61070a8184846106ce565b505050565b5b8181101561072d576107225f826106f7565b600181019050610710565b5050565b601f821115610772576107438161061d565b61074c8461062f565b8101602085101561075b578190505b61076f6107678561062f565b83018261070f565b50505b505050565b5f82821c905092915050565b5f6107925f1984600802610777565b1980831691505092915050565b5f6107aa8383610783565b9150826002028217905092915050565b6107c3826105b6565b67ffffffffffffffff8111156107dc576107db61020d565b5b6107e682546105ed565b6107f1828285610731565b5f60209050601f831160018114610822575f8415610810578287015190505b61081a858261079f565b865550610881565b601f1984166108308661061d565b5f5b8281101561085757848901518255600182019150602085019450602081019050610832565b868310156108745784890151610870601f891682610783565b8355505b6001600288020188555050505b50505050505056fea2646970667358221220abeeefa635e25dbb7d0563a5102d7c86fc488b5c70efce7d31b2beb9afbaef3464736f6c634300081a0033",
					"opcodes": "PUSH1 0x80 PUSH1 0x40 MSTORE CALLVALUE DUP1 ISZERO PUSH1 0xE JUMPI PUSH0 DUP1 REVERT JUMPDEST POP PUSH2 0x8BF DUP1 PUSH2 0x1C PUSH0 CODECOPY PUSH0 RETURN INVALID PUSH1 0x80 PUSH1 0x40 MSTORE CALLVALUE DUP1 ISZERO PUSH2 0xF JUMPI PUSH0 DUP1 REVERT JUMPDEST POP PUSH1 0x4 CALLDATASIZE LT PUSH2 0x34 JUMPI PUSH0 CALLDATALOAD PUSH1 0xE0 SHR DUP1 PUSH4 0x4817A739 EQ PUSH2 0x38 JUMPI DUP1 PUSH4 0x8808F524 EQ PUSH2 0x54 JUMPI JUMPDEST PUSH0 DUP1 REVERT JUMPDEST PUSH2 0x52 PUSH1 0x4 DUP1 CALLDATASIZE SUB DUP2 ADD SWAP1 PUSH2 0x4D SWAP2 SWAP1 PUSH2 0x446 JUMP JUMPDEST PUSH2 0x70 JUMP JUMPDEST STOP JUMPDEST PUSH2 0x6E PUSH1 0x4 DUP1 CALLDATASIZE SUB DUP2 ADD SWAP1 PUSH2 0x69 SWAP2 SWAP1 PUSH2 0x56F JUMP JUMPDEST PUSH2 0xCF JUMP JUMPDEST STOP JUMPDEST PUSH1 0x40 MLOAD DUP1 PUSH1 0x60 ADD PUSH1 0x40 MSTORE DUP1 DUP5 DUP2 MSTORE PUSH1 0x20 ADD DUP4 DUP2 MSTORE PUSH1 0x20 ADD DUP3 DUP2 MSTORE POP PUSH0 DUP1 DUP3 ADD MLOAD DUP2 PUSH0 ADD SWAP1 DUP2 PUSH2 0x9F SWAP2 SWAP1 PUSH2 0x7BA JUMP JUMPDEST POP PUSH1 0x20 DUP3 ADD MLOAD DUP2 PUSH1 0x1 ADD SSTORE PUSH1 0x40 DUP3 ADD MLOAD DUP2 PUSH1 0x2 ADD SWAP1 DUP1 MLOAD SWAP1 PUSH1 0x20 ADD SWAP1 PUSH2 0xC6 SWAP3 SWAP2 SWAP1 PUSH2 0x112 JUMP JUMPDEST POP SWAP1 POP POP POP POP POP JUMP JUMPDEST DUP1 PUSH0 DUP1 DUP3 ADD MLOAD DUP2 PUSH0 ADD SWAP1 DUP2 PUSH2 0xE4 SWAP2 SWAP1 PUSH2 0x7BA JUMP JUMPDEST POP PUSH1 0x20 DUP3 ADD MLOAD DUP2 PUSH1 0x1 ADD SSTORE PUSH1 0x40 DUP3 ADD MLOAD DUP2 PUSH1 0x2 ADD SWAP1 DUP1 MLOAD SWAP1 PUSH1 0x20 ADD SWAP1 PUSH2 0x10B SWAP3 SWAP2 SWAP1 PUSH2 0x112 JUMP JUMPDEST POP SWAP1 POP POP POP JUMP JUMPDEST DUP3 DUP1 SLOAD DUP3 DUP3 SSTORE SWAP1 PUSH0 MSTORE PUSH1 0x20 PUSH0 KECCAK256 SWAP1 DUP2 ADD SWAP3 DUP3 ISZERO PUSH2 0x158 JUMPI SWAP2 PUSH1 0x20 MUL DUP3 ADD JUMPDEST DUP3 DUP2 GT ISZERO PUSH2 0x157 JUMPI DUP3 MLOAD DUP3 SWAP1 DUP2 PUSH2 0x147 SWAP2 SWAP1 PUSH2 0x7BA JUMP JUMPDEST POP SWAP2 PUSH1 0x20 ADD SWAP2 SWAP1 PUSH1 0x1 ADD SWAP1 PUSH2 0x130 JUMP JUMPDEST JUMPDEST POP SWAP1 POP PUSH2 0x165 SWAP2 SWAP1 PUSH2 0x169 JUMP JUMPDEST POP SWAP1 JUMP JUMPDEST JUMPDEST DUP1 DUP3 GT ISZERO PUSH2 0x188 JUMPI PUSH0 DUP2 DUP2 PUSH2 0x17F SWAP2 SWAP1 PUSH2 0x18C JUMP JUMPDEST POP PUSH1 0x1 ADD PUSH2 0x16A JUMP JUMPDEST POP SWAP1 JUMP JUMPDEST POP DUP1 SLOAD PUSH2 0x198 SWAP1 PUSH2 0x5ED JUMP JUMPDEST PUSH0 DUP3 SSTORE DUP1 PUSH1 0x1F LT PUSH2 0x1A9 JUMPI POP PUSH2 0x1C6 JUMP JUMPDEST PUSH1 0x1F ADD PUSH1 0x20 SWAP1 DIV SWAP1 PUSH0 MSTORE PUSH1 0x20 PUSH0 KECCAK256 SWAP1 DUP2 ADD SWAP1 PUSH2 0x1C5 SWAP2 SWAP1 PUSH2 0x1C9 JUMP JUMPDEST JUMPDEST POP JUMP JUMPDEST JUMPDEST DUP1 DUP3 GT ISZERO PUSH2 0x1E0 JUMPI PUSH0 DUP2 PUSH0 SWAP1 SSTORE POP PUSH1 0x1 ADD PUSH2 0x1CA JUMP JUMPDEST POP SWAP1 JUMP JUMPDEST PUSH0 PUSH1 0x40 MLOAD SWAP1 POP SWAP1 JUMP JUMPDEST PUSH0 DUP1 REVERT JUMPDEST PUSH0 DUP1 REVERT JUMPDEST PUSH0 DUP1 REVERT JUMPDEST PUSH0 DUP1 REVERT JUMPDEST PUSH0 PUSH1 0x1F NOT PUSH1 0x1F DUP4 ADD AND SWAP1 POP SWAP2 SWAP1 POP JUMP JUMPDEST PUSH32 0x4E487B7100000000000000000000000000000000000000000000000000000000 PUSH0 MSTORE PUSH1 0x41 PUSH1 0x4 MSTORE PUSH1 0x24 PUSH0 REVERT JUMPDEST PUSH2 0x243 DUP3 PUSH2 0x1FD JUMP JUMPDEST DUP2 ADD DUP2 DUP2 LT PUSH8 0xFFFFFFFFFFFFFFFF DUP3 GT OR ISZERO PUSH2 0x262 JUMPI PUSH2 0x261 PUSH2 0x20D JUMP JUMPDEST JUMPDEST DUP1 PUSH1 0x40 MSTORE POP POP POP JUMP JUMPDEST PUSH0 PUSH2 0x274 PUSH2 0x1E4 JUMP JUMPDEST SWAP1 POP PUSH2 0x280 DUP3 DUP3 PUSH2 0x23A JUMP JUMPDEST SWAP2 SWAP1 POP JUMP JUMPDEST PUSH0 PUSH8 0xFFFFFFFFFFFFFFFF DUP3 GT ISZERO PUSH2 0x29F JUMPI PUSH2 0x29E PUSH2 0x20D JUMP JUMPDEST JUMPDEST PUSH2 0x2A8 DUP3 PUSH2 0x1FD JUMP JUMPDEST SWAP1 POP PUSH1 0x20 DUP2 ADD SWAP1 POP SWAP2 SWAP1 POP JUMP JUMPDEST DUP3 DUP2 DUP4 CALLDATACOPY PUSH0 DUP4 DUP4 ADD MSTORE POP POP POP JUMP JUMPDEST PUSH0 PUSH2 0x2D5 PUSH2 0x2D0 DUP5 PUSH2 0x285 JUMP JUMPDEST PUSH2 0x26B JUMP JUMPDEST SWAP1 POP DUP3 DUP2 MSTORE PUSH1 0x20 DUP2 ADD DUP5 DUP5 DUP5 ADD GT ISZERO PUSH2 0x2F1 JUMPI PUSH2 0x2F0 PUSH2 0x1F9 JUMP JUMPDEST JUMPDEST PUSH2 0x2FC DUP5 DUP3 DUP6 PUSH2 0x2B5 JUMP JUMPDEST POP SWAP4 SWAP3 POP POP POP JUMP JUMPDEST PUSH0 DUP3 PUSH1 0x1F DUP4 ADD SLT PUSH2 0x318 JUMPI PUSH2 0x317 PUSH2 0x1F5 JUMP JUMPDEST JUMPDEST DUP2 CALLDATALOAD PUSH2 0x328 DUP5 DUP3 PUSH1 0x20 DUP7 ADD PUSH2 0x2C3 JUMP JUMPDEST SWAP2 POP POP SWAP3 SWAP2 POP POP JUMP JUMPDEST PUSH0 DUP2 SWAP1 POP SWAP2 SWAP1 POP JUMP JUMPDEST PUSH2 0x343 DUP2 PUSH2 0x331 JUMP JUMPDEST DUP2 EQ PUSH2 0x34D JUMPI PUSH0 DUP1 REVERT JUMPDEST POP JUMP JUMPDEST PUSH0 DUP2 CALLDATALOAD SWAP1 POP PUSH2 0x35E DUP2 PUSH2 0x33A JUMP JUMPDEST SWAP3 SWAP2 POP POP JUMP JUMPDEST PUSH0 PUSH8 0xFFFFFFFFFFFFFFFF DUP3 GT ISZERO PUSH2 0x37E JUMPI PUSH2 0x37D PUSH2 0x20D JUMP JUMPDEST JUMPDEST PUSH1 0x20 DUP3 MUL SWAP1 POP PUSH1 0x20 DUP2 ADD SWAP1 POP SWAP2 SWAP1 POP JUMP JUMPDEST PUSH0 DUP1 REVERT JUMPDEST PUSH0 PUSH2 0x3A5 PUSH2 0x3A0 DUP5 PUSH2 0x364 JUMP JUMPDEST PUSH2 0x26B JUMP JUMPDEST SWAP1 POP DUP1 DUP4 DUP3 MSTORE PUSH1 0x20 DUP3 ADD SWAP1 POP PUSH1 0x20 DUP5 MUL DUP4 ADD DUP6 DUP2 GT ISZERO PUSH2 0x3C8 JUMPI PUSH2 0x3C7 PUSH2 0x38F JUMP JUMPDEST JUMPDEST DUP4 JUMPDEST DUP2 DUP2 LT ISZERO PUSH2 0x40F JUMPI DUP1 CALLDATALOAD PUSH8 0xFFFFFFFFFFFFFFFF DUP2 GT ISZERO PUSH2 0x3ED JUMPI PUSH2 0x3EC PUSH2 0x1F5 JUMP JUMPDEST JUMPDEST DUP1 DUP7 ADD PUSH2 0x3FA DUP10 DUP3 PUSH2 0x304 JUMP JUMPDEST DUP6 MSTORE PUSH1 0x20 DUP6 ADD SWAP5 POP POP POP PUSH1 0x20 DUP2 ADD SWAP1 POP PUSH2 0x3CA JUMP JUMPDEST POP POP POP SWAP4 SWAP3 POP POP POP JUMP JUMPDEST PUSH0 DUP3 PUSH1 0x1F DUP4 ADD SLT PUSH2 0x42D JUMPI PUSH2 0x42C PUSH2 0x1F5 JUMP JUMPDEST JUMPDEST DUP2 CALLDATALOAD PUSH2 0x43D DUP5 DUP3 PUSH1 0x20 DUP7 ADD PUSH2 0x393 JUMP JUMPDEST SWAP2 POP POP SWAP3 SWAP2 POP POP JUMP JUMPDEST PUSH0 DUP1 PUSH0 PUSH1 0x60 DUP5 DUP7 SUB SLT ISZERO PUSH2 0x45D JUMPI PUSH2 0x45C PUSH2 0x1ED JUMP JUMPDEST JUMPDEST PUSH0 DUP5 ADD CALLDATALOAD PUSH8 0xFFFFFFFFFFFFFFFF DUP2 GT ISZERO PUSH2 0x47A JUMPI PUSH2 0x479 PUSH2 0x1F1 JUMP JUMPDEST JUMPDEST PUSH2 0x486 DUP7 DUP3 DUP8 ADD PUSH2 0x304 JUMP JUMPDEST SWAP4 POP POP PUSH1 0x20 PUSH2 0x497 DUP7 DUP3 DUP8 ADD PUSH2 0x350 JUMP JUMPDEST SWAP3 POP POP PUSH1 0x40 DUP5 ADD CALLDATALOAD PUSH8 0xFFFFFFFFFFFFFFFF DUP2 GT ISZERO PUSH2 0x4B8 JUMPI PUSH2 0x4B7 PUSH2 0x1F1 JUMP JUMPDEST JUMPDEST PUSH2 0x4C4 DUP7 DUP3 DUP8 ADD PUSH2 0x419 JUMP JUMPDEST SWAP2 POP POP SWAP3 POP SWAP3 POP SWAP3 JUMP JUMPDEST PUSH0 DUP1 REVERT JUMPDEST PUSH0 DUP1 REVERT JUMPDEST PUSH0 PUSH1 0x60 DUP3 DUP5 SUB SLT ISZERO PUSH2 0x4EB JUMPI PUSH2 0x4EA PUSH2 0x4CE JUMP JUMPDEST JUMPDEST PUSH2 0x4F5 PUSH1 0x60 PUSH2 0x26B JUMP JUMPDEST SWAP1 POP PUSH0 DUP3 ADD CALLDATALOAD PUSH8 0xFFFFFFFFFFFFFFFF DUP2 GT ISZERO PUSH2 0x514 JUMPI PUSH2 0x513 PUSH2 0x4D2 JUMP JUMPDEST JUMPDEST PUSH2 0x520 DUP5 DUP3 DUP6 ADD PUSH2 0x304 JUMP JUMPDEST PUSH0 DUP4 ADD MSTORE POP PUSH1 0x20 PUSH2 0x533 DUP5 DUP3 DUP6 ADD PUSH2 0x350 JUMP JUMPDEST PUSH1 0x20 DUP4 ADD MSTORE POP PUSH1 0x40 DUP3 ADD CALLDATALOAD PUSH8 0xFFFFFFFFFFFFFFFF DUP2 GT ISZERO PUSH2 0x557 JUMPI PUSH2 0x556 PUSH2 0x4D2 JUMP JUMPDEST JUMPDEST PUSH2 0x563 DUP5 DUP3 DUP6 ADD PUSH2 0x419 JUMP JUMPDEST PUSH1 0x40 DUP4 ADD MSTORE POP SWAP3 SWAP2 POP POP JUMP JUMPDEST PUSH0 PUSH1 0x20 DUP3 DUP5 SUB SLT ISZERO PUSH2 0x584 JUMPI PUSH2 0x583 PUSH2 0x1ED JUMP JUMPDEST JUMPDEST PUSH0 DUP3 ADD CALLDATALOAD PUSH8 0xFFFFFFFFFFFFFFFF DUP2 GT ISZERO PUSH2 0x5A1 JUMPI PUSH2 0x5A0 PUSH2 0x1F1 JUMP JUMPDEST JUMPDEST PUSH2 0x5AD DUP5 DUP3 DUP6 ADD PUSH2 0x4D6 JUMP JUMPDEST SWAP2 POP POP SWAP3 SWAP2 POP POP JUMP JUMPDEST PUSH0 DUP2 MLOAD SWAP1 POP SWAP2 SWAP1 POP JUMP JUMPDEST PUSH32 0x4E487B7100000000000000000000000000000000000000000000000000000000 PUSH0 MSTORE PUSH1 0x22 PUSH1 0x4 MSTORE PUSH1 0x24 PUSH0 REVERT JUMPDEST PUSH0 PUSH1 0x2 DUP3 DIV SWAP1 POP PUSH1 0x1 DUP3 AND DUP1 PUSH2 0x604 JUMPI PUSH1 0x7F DUP3 AND SWAP2 POP JUMPDEST PUSH1 0x20 DUP3 LT DUP2 SUB PUSH2 0x617 JUMPI PUSH2 0x616 PUSH2 0x5C0 JUMP JUMPDEST JUMPDEST POP SWAP2 SWAP1 POP JUMP JUMPDEST PUSH0 DUP2 SWAP1 POP DUP2 PUSH0 MSTORE PUSH1 0x20 PUSH0 KECCAK256 SWAP1 POP SWAP2 SWAP1 POP JUMP JUMPDEST PUSH0 PUSH1 0x20 PUSH1 0x1F DUP4 ADD DIV SWAP1 POP SWAP2 SWAP1 POP JUMP JUMPDEST PUSH0 DUP3 DUP3 SHL SWAP1 POP SWAP3 SWAP2 POP POP JUMP JUMPDEST PUSH0 PUSH1 0x8 DUP4 MUL PUSH2 0x679 PUSH32 0xFFFFFFFFFFFFFFFFFFFFFFFFFFFFFFFFFFFFFFFFFFFFFFFFFFFFFFFFFFFFFFFF DUP3 PUSH2 0x63E JUMP JUMPDEST PUSH2 0x683 DUP7 DUP4 PUSH2 0x63E JUMP JUMPDEST SWAP6 POP DUP1 NOT DUP5 AND SWAP4 POP DUP1 DUP7 AND DUP5 OR SWAP3 POP POP POP SWAP4 SWAP3 POP POP POP JUMP JUMPDEST PUSH0 DUP2 SWAP1 POP SWAP2 SWAP1 POP JUMP JUMPDEST PUSH0 PUSH2 0x6BE PUSH2 0x6B9 PUSH2 0x6B4 DUP5 PUSH2 0x331 JUMP JUMPDEST PUSH2 0x69B JUMP JUMPDEST PUSH2 0x331 JUMP JUMPDEST SWAP1 POP SWAP2 SWAP1 POP JUMP JUMPDEST PUSH0 DUP2 SWAP1 POP SWAP2 SWAP1 POP JUMP JUMPDEST PUSH2 0x6D7 DUP4 PUSH2 0x6A4 JUMP JUMPDEST PUSH2 0x6EB PUSH2 0x6E3 DUP3 PUSH2 0x6C5 JUMP JUMPDEST DUP5 DUP5 SLOAD PUSH2 0x64A JUMP JUMPDEST DUP3 SSTORE POP POP POP POP JUMP JUMPDEST PUSH0 SWAP1 JUMP JUMPDEST PUSH2 0x6FF PUSH2 0x6F3 JUMP JUMPDEST PUSH2 0x70A DUP2 DUP5 DUP5 PUSH2 0x6CE JUMP JUMPDEST POP POP POP JUMP JUMPDEST JUMPDEST DUP2 DUP2 LT ISZERO PUSH2 0x72D JUMPI PUSH2 0x722 PUSH0 DUP3 PUSH2 0x6F7 JUMP JUMPDEST PUSH1 0x1 DUP2 ADD SWAP1 POP PUSH2 0x710 JUMP JUMPDEST POP POP JUMP JUMPDEST PUSH1 0x1F DUP3 GT ISZERO PUSH2 0x772 JUMPI PUSH2 0x743 DUP2 PUSH2 0x61D JUMP JUMPDEST PUSH2 0x74C DUP5 PUSH2 0x62F JUMP JUMPDEST DUP2 ADD PUSH1 0x20 DUP6 LT ISZERO PUSH2 0x75B JUMPI DUP2 SWAP1 POP JUMPDEST PUSH2 0x76F PUSH2 0x767 DUP6 PUSH2 0x62F JUMP JUMPDEST DUP4 ADD DUP3 PUSH2 0x70F JUMP JUMPDEST POP POP JUMPDEST POP POP POP JUMP JUMPDEST PUSH0 DUP3 DUP3 SHR SWAP1 POP SWAP3 SWAP2 POP POP JUMP JUMPDEST PUSH0 PUSH2 0x792 PUSH0 NOT DUP5 PUSH1 0x8 MUL PUSH2 0x777 JUMP JUMPDEST NOT DUP1 DUP4 AND SWAP2 POP POP SWAP3 SWAP2 POP POP JUMP JUMPDEST PUSH0 PUSH2 0x7AA DUP4 DUP4 PUSH2 0x783 JUMP JUMPDEST SWAP2 POP DUP3 PUSH1 0x2 MUL DUP3 OR SWAP1 POP SWAP3 SWAP2 POP POP JUMP JUMPDEST PUSH2 0x7C3 DUP3 PUSH2 0x5B6 JUMP JUMPDEST PUSH8 0xFFFFFFFFFFFFFFFF DUP2 GT ISZERO PUSH2 0x7DC JUMPI PUSH2 0x7DB PUSH2 0x20D JUMP JUMPDEST JUMPDEST PUSH2 0x7E6 DUP3 SLOAD PUSH2 0x5ED JUMP JUMPDEST PUSH2 0x7F1 DUP3 DUP3 DUP6 PUSH2 0x731 JUMP JUMPDEST PUSH0 PUSH1 0x20 SWAP1 POP PUSH1 0x1F DUP4 GT PUSH1 0x1 DUP2 EQ PUSH2 0x822 JUMPI PUSH0 DUP5 ISZERO PUSH2 0x810 JUMPI DUP3 DUP8 ADD MLOAD SWAP1 POP JUMPDEST PUSH2 0x81A DUP6 DUP3 PUSH2 0x79F JUMP JUMPDEST DUP7 SSTORE POP PUSH2 0x881 JUMP JUMPDEST PUSH1 0x1F NOT DUP5 AND PUSH2 0x830 DUP7 PUSH2 0x61D JUMP JUMPDEST PUSH0 JUMPDEST DUP3 DUP2 LT ISZERO PUSH2 0x857 JUMPI DUP5 DUP10 ADD MLOAD DUP3 SSTORE PUSH1 0x1 DUP3 ADD SWAP2 POP PUSH1 0x20 DUP6 ADD SWAP5 POP PUSH1 0x20 DUP2 ADD SWAP1 POP PUSH2 0x832 JUMP JUMPDEST DUP7 DUP4 LT ISZERO PUSH2 0x874 JUMPI DUP5 DUP10 ADD MLOAD PUSH2 0x870 PUSH1 0x1F DUP10 AND DUP3 PUSH2 0x783 JUMP JUMPDEST DUP4 SSTORE POP JUMPDEST PUSH1 0x1 PUSH1 0x2 DUP9 MUL ADD DUP9 SSTORE POP POP POP JUMPDEST POP POP POP POP POP POP JUMP INVALID LOG2 PUSH5 0x6970667358 0x22 SLT KECCAK256 0xAB 0xEE 0xEF 0xA6 CALLDATALOAD 0xE2 TSTORE 0xBB PUSH30 0x563A5102D7C86FC488B5C70EFCE7D31B2BEB9AFBAEF3464736F6C634300 ADDMOD BYTE STOP CALLER "
				},
				"gasEstimates": {
					"creation": {
						"codeDepositCost": "447800",
						"executionCost": "478",
						"totalCost": "448278"
					},
					"external": {
						"setS1_1((string,uint256,string[]))": "infinite",
						"setS1_2(string,uint256,string[])": "infinite"
					}
				},
				"methodIdentifiers": {
					"setS1_1((string,uint256,string[]))": "8808f524",
					"setS1_2(string,uint256,string[])": "4817a739"
				}
			},
			"storageLayout": {
				"storage": [
					{
						"astId": 12,
						"contract": "contracts/struct3.sol:STRUCT3",
						"label": "s1",
						"offset": 0,
						"slot": "0",
						"type": "t_struct(student)9_storage"
					}
				],
				"types": {
					"t_array(t_string_storage)dyn_storage": {
						"base": "t_string_storage",
						"encoding": "dynamic_array",
						"label": "string[]",
						"numberOfBytes": "32"
					},
					"t_string_storage": {
						"encoding": "bytes",
						"label": "string",
						"numberOfBytes": "32"
					},
					"t_struct(student)9_storage": {
						"encoding": "inplace",
						"label": "struct STRUCT3.student",
						"members": [
							{
								"astId": 3,
								"contract": "contracts/struct3.sol:STRUCT3",
								"label": "name",
								"offset": 0,
								"slot": "0",
								"type": "t_string_storage"
							},
							{
								"astId": 5,
								"contract": "contracts/struct3.sol:STRUCT3",
								"label": "number",
								"offset": 0,
								"slot": "1",
								"type": "t_uint256"
							},
							{
								"astId": 8,
								"contract": "contracts/struct3.sol:STRUCT3",
								"label": "classes",
								"offset": 0,
								"slot": "2",
								"type": "t_array(t_string_storage)dyn_storage"
							}
						],
						"numberOfBytes": "96"
					},
					"t_uint256": {
						"encoding": "inplace",
						"label": "uint256",
						"numberOfBytes": "32"
					}
				}
			},
			"userdoc": {
				"kind": "user",
				"methods": {},
				"version": 1
			}
		}
	}
}