{
	"contracts/mapping4.sol": {
		"MAPPING4": {
			"abi": [
				{
					"inputs": [
						{
							"internalType": "string",
							"name": "_s",
							"type": "string"
						},
						{
							"components": [
								{
									"internalType": "string",
									"name": "name",
									"type": "string"
								},
								{
									"internalType": "uint256",
									"name": "number",
									"type": "uint256"
								}
							],
							"internalType": "struct MAPPING4.Student",
							"name": "_student",
							"type": "tuple"
						}
					],
					"name": "setStudent",
					"outputs": [],
					"stateMutability": "nonpayable",
					"type": "function"
				},
				{
					"inputs": [
						{
							"internalType": "string",
							"name": "_s",
							"type": "string"
						},
						{
							"internalType": "uint256",
							"name": "_n",
							"type": "uint256"
						},
						{
							"components": [
								{
									"internalType": "string",
									"name": "name",
									"type": "string"
								},
								{
									"internalType": "uint256",
									"name": "number",
									"type": "uint256"
								}
							],
							"internalType": "struct MAPPING4.Student",
							"name": "_student",
							"type": "tuple"
						}
					],
					"name": "setStudent2",
					"outputs": [],
					"stateMutability": "nonpayable",
					"type": "function"
				}
			],
			"devdoc": {
				"kind": "dev",
				"methods": {},
				"version": 1
			},
			"evm": {
				"assembly": "    /* \"contracts/mapping4.sol\":74:484  contract MAPPING4 {... */\n  mstore(0x40, 0x80)\n  callvalue\n  dup1\n  iszero\n  tag_1\n  jumpi\n  0x00\n  dup1\n  revert\ntag_1:\n  pop\n  dataSize(sub_0)\n  dup1\n  dataOffset(sub_0)\n  0x00\n  codecopy\n  0x00\n  return\nstop\n\nsub_0: assembly {\n        /* \"contracts/mapping4.sol\":74:484  contract MAPPING4 {... */\n      mstore(0x40, 0x80)\n      callvalue\n      dup1\n      iszero\n      tag_1\n      jumpi\n      0x00\n      dup1\n      revert\n    tag_1:\n      pop\n      jumpi(tag_2, lt(calldatasize, 0x04))\n      shr(0xe0, calldataload(0x00))\n      dup1\n      0x5198b3fb\n      eq\n      tag_3\n      jumpi\n      dup1\n      0x9e0d2360\n      eq\n      tag_4\n      jumpi\n    tag_2:\n      0x00\n      dup1\n      revert\n        /* \"contracts/mapping4.sol\":350:481  function setStudent2(string memory _s, uint _n, Student memory _student) public {... */\n    tag_3:\n      tag_5\n      0x04\n      dup1\n      calldatasize\n      sub\n      dup2\n      add\n      swap1\n      tag_6\n      swap2\n      swap1\n      tag_7\n      jump\t// in\n    tag_6:\n      tag_8\n      jump\t// in\n    tag_5:\n      stop\n        /* \"contracts/mapping4.sol\":223:342  function setStudent(string memory _s, Student memory _student) public {... */\n    tag_4:\n      tag_9\n      0x04\n      dup1\n      calldatasize\n      sub\n      dup2\n      add\n      swap1\n      tag_10\n      swap2\n      swap1\n      tag_11\n      jump\t// in\n    tag_10:\n      tag_12\n      jump\t// in\n    tag_9:\n      stop\n        /* \"contracts/mapping4.sol\":350:481  function setStudent2(string memory _s, uint _n, Student memory _student) public {... */\n    tag_8:\n        /* \"contracts/mapping4.sol\":465:473  _student */\n      dup1\n        /* \"contracts/mapping4.sol\":441:452  StudentList */\n      0x00\n        /* \"contracts/mapping4.sol\":453:455  _s */\n      dup5\n        /* \"contracts/mapping4.sol\":441:456  StudentList[_s] */\n      mload(0x40)\n      tag_14\n      swap2\n      swap1\n      tag_15\n      jump\t// in\n    tag_14:\n      swap1\n      dup2\n      mstore\n      0x20\n      add\n      mload(0x40)\n      dup1\n      swap2\n      sub\n      swap1\n      keccak256\n        /* \"contracts/mapping4.sol\":460:461  1 */\n      0x01\n        /* \"contracts/mapping4.sol\":457:459  _n */\n      dup5\n        /* \"contracts/mapping4.sol\":457:461  _n-1 */\n      tag_16\n      swap2\n      swap1\n      tag_17\n      jump\t// in\n    tag_16:\n        /* \"contracts/mapping4.sol\":441:462  StudentList[_s][_n-1] */\n      dup2\n      sload\n      dup2\n      lt\n      tag_18\n      jumpi\n      tag_19\n      tag_20\n      jump\t// in\n    tag_19:\n    tag_18:\n      swap1\n      0x00\n      mstore\n      keccak256(0x00, 0x20)\n      swap1\n      0x02\n      mul\n      add\n        /* \"contracts/mapping4.sol\":441:473  StudentList[_s][_n-1] = _student */\n      0x00\n      dup3\n      add\n      mload\n      dup2\n      0x00\n      add\n      swap1\n      dup2\n      tag_22\n      swap2\n      swap1\n      tag_23\n      jump\t// in\n    tag_22:\n      pop\n      0x20\n      dup3\n      add\n      mload\n      dup2\n      0x01\n      add\n      sstore\n      swap1\n      pop\n      pop\n        /* \"contracts/mapping4.sol\":350:481  function setStudent2(string memory _s, uint _n, Student memory _student) public {... */\n      pop\n      pop\n      pop\n      jump\t// out\n        /* \"contracts/mapping4.sol\":223:342  function setStudent(string memory _s, Student memory _student) public {... */\n    tag_12:\n        /* \"contracts/mapping4.sol\":304:315  StudentList */\n      0x00\n        /* \"contracts/mapping4.sol\":316:318  _s */\n      dup3\n        /* \"contracts/mapping4.sol\":304:319  StudentList[_s] */\n      mload(0x40)\n      tag_25\n      swap2\n      swap1\n      tag_15\n      jump\t// in\n    tag_25:\n      swap1\n      dup2\n      mstore\n      0x20\n      add\n      mload(0x40)\n      dup1\n      swap2\n      sub\n      swap1\n      keccak256\n        /* \"contracts/mapping4.sol\":325:333  _student */\n      dup2\n        /* \"contracts/mapping4.sol\":304:334  StudentList[_s].push(_student) */\n      swap1\n      dup1\n      0x01\n      dup2\n      sload\n      add\n      dup1\n      dup3\n      sstore\n      dup1\n      swap2\n      pop\n      pop\n      0x01\n      swap1\n      sub\n      swap1\n      0x00\n      mstore\n      keccak256(0x00, 0x20)\n      swap1\n      0x02\n      mul\n      add\n      0x00\n      swap1\n      swap2\n      swap1\n      swap2\n      swap1\n      swap2\n      pop\n      0x00\n      dup3\n      add\n      mload\n      dup2\n      0x00\n      add\n      swap1\n      dup2\n      tag_27\n      swap2\n      swap1\n      tag_23\n      jump\t// in\n    tag_27:\n      pop\n      0x20\n      dup3\n      add\n      mload\n      dup2\n      0x01\n      add\n      sstore\n      pop\n      pop\n        /* \"contracts/mapping4.sol\":223:342  function setStudent(string memory _s, Student memory _student) public {... */\n      pop\n      pop\n      jump\t// out\n        /* \"#utility.yul\":7:82   */\n    tag_28:\n        /* \"#utility.yul\":40:46   */\n      0x00\n        /* \"#utility.yul\":73:75   */\n      0x40\n        /* \"#utility.yul\":67:76   */\n      mload\n        /* \"#utility.yul\":57:76   */\n      swap1\n      pop\n        /* \"#utility.yul\":7:82   */\n      swap1\n      jump\t// out\n        /* \"#utility.yul\":88:205   */\n    tag_29:\n        /* \"#utility.yul\":197:198   */\n      0x00\n        /* \"#utility.yul\":194:195   */\n      dup1\n        /* \"#utility.yul\":187:199   */\n      revert\n        /* \"#utility.yul\":211:328   */\n    tag_30:\n        /* \"#utility.yul\":320:321   */\n      0x00\n        /* \"#utility.yul\":317:318   */\n      dup1\n        /* \"#utility.yul\":310:322   */\n      revert\n        /* \"#utility.yul\":334:451   */\n    tag_31:\n        /* \"#utility.yul\":443:444   */\n      0x00\n        /* \"#utility.yul\":440:441   */\n      dup1\n        /* \"#utility.yul\":433:445   */\n      revert\n        /* \"#utility.yul\":457:574   */\n    tag_32:\n        /* \"#utility.yul\":566:567   */\n      0x00\n        /* \"#utility.yul\":563:564   */\n      dup1\n        /* \"#utility.yul\":556:568   */\n      revert\n        /* \"#utility.yul\":580:682   */\n    tag_33:\n        /* \"#utility.yul\":621:627   */\n      0x00\n        /* \"#utility.yul\":672:674   */\n      0x1f\n        /* \"#utility.yul\":668:675   */\n      not\n        /* \"#utility.yul\":663:665   */\n      0x1f\n        /* \"#utility.yul\":656:661   */\n      dup4\n        /* \"#utility.yul\":652:666   */\n      add\n        /* \"#utility.yul\":648:676   */\n      and\n        /* \"#utility.yul\":638:676   */\n      swap1\n      pop\n        /* \"#utility.yul\":580:682   */\n      swap2\n      swap1\n      pop\n      jump\t// out\n        /* \"#utility.yul\":688:868   */\n    tag_34:\n        /* \"#utility.yul\":736:813   */\n      0x4e487b7100000000000000000000000000000000000000000000000000000000\n        /* \"#utility.yul\":733:734   */\n      0x00\n        /* \"#utility.yul\":726:814   */\n      mstore\n        /* \"#utility.yul\":833:837   */\n      0x41\n        /* \"#utility.yul\":830:831   */\n      0x04\n        /* \"#utility.yul\":823:838   */\n      mstore\n        /* \"#utility.yul\":857:861   */\n      0x24\n        /* \"#utility.yul\":854:855   */\n      0x00\n        /* \"#utility.yul\":847:862   */\n      revert\n        /* \"#utility.yul\":874:1155   */\n    tag_35:\n        /* \"#utility.yul\":957:984   */\n      tag_78\n        /* \"#utility.yul\":979:983   */\n      dup3\n        /* \"#utility.yul\":957:984   */\n      tag_33\n      jump\t// in\n    tag_78:\n        /* \"#utility.yul\":949:955   */\n      dup2\n        /* \"#utility.yul\":945:985   */\n      add\n        /* \"#utility.yul\":1087:1093   */\n      dup2\n        /* \"#utility.yul\":1075:1085   */\n      dup2\n        /* \"#utility.yul\":1072:1094   */\n      lt\n        /* \"#utility.yul\":1051:1069   */\n      0xffffffffffffffff\n        /* \"#utility.yul\":1039:1049   */\n      dup3\n        /* \"#utility.yul\":1036:1070   */\n      gt\n        /* \"#utility.yul\":1033:1095   */\n      or\n        /* \"#utility.yul\":1030:1118   */\n      iszero\n      tag_79\n      jumpi\n        /* \"#utility.yul\":1098:1116   */\n      tag_80\n      tag_34\n      jump\t// in\n    tag_80:\n        /* \"#utility.yul\":1030:1118   */\n    tag_79:\n        /* \"#utility.yul\":1138:1148   */\n      dup1\n        /* \"#utility.yul\":1134:1136   */\n      0x40\n        /* \"#utility.yul\":1127:1149   */\n      mstore\n        /* \"#utility.yul\":917:1155   */\n      pop\n        /* \"#utility.yul\":874:1155   */\n      pop\n      pop\n      jump\t// out\n        /* \"#utility.yul\":1161:1290   */\n    tag_36:\n        /* \"#utility.yul\":1195:1201   */\n      0x00\n        /* \"#utility.yul\":1222:1242   */\n      tag_82\n      tag_28\n      jump\t// in\n    tag_82:\n        /* \"#utility.yul\":1212:1242   */\n      swap1\n      pop\n        /* \"#utility.yul\":1251:1284   */\n      tag_83\n        /* \"#utility.yul\":1279:1283   */\n      dup3\n        /* \"#utility.yul\":1271:1277   */\n      dup3\n        /* \"#utility.yul\":1251:1284   */\n      tag_35\n      jump\t// in\n    tag_83:\n        /* \"#utility.yul\":1161:1290   */\n      swap2\n      swap1\n      pop\n      jump\t// out\n        /* \"#utility.yul\":1296:1604   */\n    tag_37:\n        /* \"#utility.yul\":1358:1362   */\n      0x00\n        /* \"#utility.yul\":1448:1466   */\n      0xffffffffffffffff\n        /* \"#utility.yul\":1440:1446   */\n      dup3\n        /* \"#utility.yul\":1437:1467   */\n      gt\n        /* \"#utility.yul\":1434:1490   */\n      iszero\n      tag_85\n      jumpi\n        /* \"#utility.yul\":1470:1488   */\n      tag_86\n      tag_34\n      jump\t// in\n    tag_86:\n        /* \"#utility.yul\":1434:1490   */\n    tag_85:\n        /* \"#utility.yul\":1508:1537   */\n      tag_87\n        /* \"#utility.yul\":1530:1536   */\n      dup3\n        /* \"#utility.yul\":1508:1537   */\n      tag_33\n      jump\t// in\n    tag_87:\n        /* \"#utility.yul\":1500:1537   */\n      swap1\n      pop\n        /* \"#utility.yul\":1592:1596   */\n      0x20\n        /* \"#utility.yul\":1586:1590   */\n      dup2\n        /* \"#utility.yul\":1582:1597   */\n      add\n        /* \"#utility.yul\":1574:1597   */\n      swap1\n      pop\n        /* \"#utility.yul\":1296:1604   */\n      swap2\n      swap1\n      pop\n      jump\t// out\n        /* \"#utility.yul\":1610:1758   */\n    tag_38:\n        /* \"#utility.yul\":1708:1714   */\n      dup3\n        /* \"#utility.yul\":1703:1706   */\n      dup2\n        /* \"#utility.yul\":1698:1701   */\n      dup4\n        /* \"#utility.yul\":1685:1715   */\n      calldatacopy\n        /* \"#utility.yul\":1749:1750   */\n      0x00\n        /* \"#utility.yul\":1740:1746   */\n      dup4\n        /* \"#utility.yul\":1735:1738   */\n      dup4\n        /* \"#utility.yul\":1731:1747   */\n      add\n        /* \"#utility.yul\":1724:1751   */\n      mstore\n        /* \"#utility.yul\":1610:1758   */\n      pop\n      pop\n      pop\n      jump\t// out\n        /* \"#utility.yul\":1764:2189   */\n    tag_39:\n        /* \"#utility.yul\":1842:1847   */\n      0x00\n        /* \"#utility.yul\":1867:1933   */\n      tag_90\n        /* \"#utility.yul\":1883:1932   */\n      tag_91\n        /* \"#utility.yul\":1925:1931   */\n      dup5\n        /* \"#utility.yul\":1883:1932   */\n      tag_37\n      jump\t// in\n    tag_91:\n        /* \"#utility.yul\":1867:1933   */\n      tag_36\n      jump\t// in\n    tag_90:\n        /* \"#utility.yul\":1858:1933   */\n      swap1\n      pop\n        /* \"#utility.yul\":1956:1962   */\n      dup3\n        /* \"#utility.yul\":1949:1954   */\n      dup2\n        /* \"#utility.yul\":1942:1963   */\n      mstore\n        /* \"#utility.yul\":1994:1998   */\n      0x20\n        /* \"#utility.yul\":1987:1992   */\n      dup2\n        /* \"#utility.yul\":1983:1999   */\n      add\n        /* \"#utility.yul\":2032:2035   */\n      dup5\n        /* \"#utility.yul\":2023:2029   */\n      dup5\n        /* \"#utility.yul\":2018:2021   */\n      dup5\n        /* \"#utility.yul\":2014:2030   */\n      add\n        /* \"#utility.yul\":2011:2036   */\n      gt\n        /* \"#utility.yul\":2008:2120   */\n      iszero\n      tag_92\n      jumpi\n        /* \"#utility.yul\":2039:2118   */\n      tag_93\n      tag_32\n      jump\t// in\n    tag_93:\n        /* \"#utility.yul\":2008:2120   */\n    tag_92:\n        /* \"#utility.yul\":2129:2183   */\n      tag_94\n        /* \"#utility.yul\":2176:2182   */\n      dup5\n        /* \"#utility.yul\":2171:2174   */\n      dup3\n        /* \"#utility.yul\":2166:2169   */\n      dup6\n        /* \"#utility.yul\":2129:2183   */\n      tag_38\n      jump\t// in\n    tag_94:\n        /* \"#utility.yul\":1848:2189   */\n      pop\n        /* \"#utility.yul\":1764:2189   */\n      swap4\n      swap3\n      pop\n      pop\n      pop\n      jump\t// out\n        /* \"#utility.yul\":2209:2549   */\n    tag_40:\n        /* \"#utility.yul\":2265:2270   */\n      0x00\n        /* \"#utility.yul\":2314:2317   */\n      dup3\n        /* \"#utility.yul\":2307:2311   */\n      0x1f\n        /* \"#utility.yul\":2299:2305   */\n      dup4\n        /* \"#utility.yul\":2295:2312   */\n      add\n        /* \"#utility.yul\":2291:2318   */\n      slt\n        /* \"#utility.yul\":2281:2403   */\n      tag_96\n      jumpi\n        /* \"#utility.yul\":2322:2401   */\n      tag_97\n      tag_31\n      jump\t// in\n    tag_97:\n        /* \"#utility.yul\":2281:2403   */\n    tag_96:\n        /* \"#utility.yul\":2439:2445   */\n      dup2\n        /* \"#utility.yul\":2426:2446   */\n      calldataload\n        /* \"#utility.yul\":2464:2543   */\n      tag_98\n        /* \"#utility.yul\":2539:2542   */\n      dup5\n        /* \"#utility.yul\":2531:2537   */\n      dup3\n        /* \"#utility.yul\":2524:2528   */\n      0x20\n        /* \"#utility.yul\":2516:2522   */\n      dup7\n        /* \"#utility.yul\":2512:2529   */\n      add\n        /* \"#utility.yul\":2464:2543   */\n      tag_39\n      jump\t// in\n    tag_98:\n        /* \"#utility.yul\":2455:2543   */\n      swap2\n      pop\n        /* \"#utility.yul\":2271:2549   */\n      pop\n        /* \"#utility.yul\":2209:2549   */\n      swap3\n      swap2\n      pop\n      pop\n      jump\t// out\n        /* \"#utility.yul\":2555:2632   */\n    tag_41:\n        /* \"#utility.yul\":2592:2599   */\n      0x00\n        /* \"#utility.yul\":2621:2626   */\n      dup2\n        /* \"#utility.yul\":2610:2626   */\n      swap1\n      pop\n        /* \"#utility.yul\":2555:2632   */\n      swap2\n      swap1\n      pop\n      jump\t// out\n        /* \"#utility.yul\":2638:2760   */\n    tag_42:\n        /* \"#utility.yul\":2711:2735   */\n      tag_101\n        /* \"#utility.yul\":2729:2734   */\n      dup2\n        /* \"#utility.yul\":2711:2735   */\n      tag_41\n      jump\t// in\n    tag_101:\n        /* \"#utility.yul\":2704:2709   */\n      dup2\n        /* \"#utility.yul\":2701:2736   */\n      eq\n        /* \"#utility.yul\":2691:2754   */\n      tag_102\n      jumpi\n        /* \"#utility.yul\":2750:2751   */\n      0x00\n        /* \"#utility.yul\":2747:2748   */\n      dup1\n        /* \"#utility.yul\":2740:2752   */\n      revert\n        /* \"#utility.yul\":2691:2754   */\n    tag_102:\n        /* \"#utility.yul\":2638:2760   */\n      pop\n      jump\t// out\n        /* \"#utility.yul\":2766:2905   */\n    tag_43:\n        /* \"#utility.yul\":2812:2817   */\n      0x00\n        /* \"#utility.yul\":2850:2856   */\n      dup2\n        /* \"#utility.yul\":2837:2857   */\n      calldataload\n        /* \"#utility.yul\":2828:2857   */\n      swap1\n      pop\n        /* \"#utility.yul\":2866:2899   */\n      tag_104\n        /* \"#utility.yul\":2893:2898   */\n      dup2\n        /* \"#utility.yul\":2866:2899   */\n      tag_42\n      jump\t// in\n    tag_104:\n        /* \"#utility.yul\":2766:2905   */\n      swap3\n      swap2\n      pop\n      pop\n      jump\t// out\n        /* \"#utility.yul\":2911:3028   */\n    tag_44:\n        /* \"#utility.yul\":3020:3021   */\n      0x00\n        /* \"#utility.yul\":3017:3018   */\n      dup1\n        /* \"#utility.yul\":3010:3022   */\n      revert\n        /* \"#utility.yul\":3034:3151   */\n    tag_45:\n        /* \"#utility.yul\":3143:3144   */\n      0x00\n        /* \"#utility.yul\":3140:3141   */\n      dup1\n        /* \"#utility.yul\":3133:3145   */\n      revert\n        /* \"#utility.yul\":3188:3931   */\n    tag_46:\n        /* \"#utility.yul\":3259:3264   */\n      0x00\n        /* \"#utility.yul\":3303:3307   */\n      0x40\n        /* \"#utility.yul\":3291:3300   */\n      dup3\n        /* \"#utility.yul\":3286:3289   */\n      dup5\n        /* \"#utility.yul\":3282:3301   */\n      sub\n        /* \"#utility.yul\":3278:3308   */\n      slt\n        /* \"#utility.yul\":3275:3392   */\n      iszero\n      tag_108\n      jumpi\n        /* \"#utility.yul\":3311:3390   */\n      tag_109\n      tag_44\n      jump\t// in\n    tag_109:\n        /* \"#utility.yul\":3275:3392   */\n    tag_108:\n        /* \"#utility.yul\":3410:3431   */\n      tag_110\n        /* \"#utility.yul\":3426:3430   */\n      0x40\n        /* \"#utility.yul\":3410:3431   */\n      tag_36\n      jump\t// in\n    tag_110:\n        /* \"#utility.yul\":3401:3431   */\n      swap1\n      pop\n        /* \"#utility.yul\":3518:3519   */\n      0x00\n        /* \"#utility.yul\":3507:3516   */\n      dup3\n        /* \"#utility.yul\":3503:3520   */\n      add\n        /* \"#utility.yul\":3490:3521   */\n      calldataload\n        /* \"#utility.yul\":3548:3566   */\n      0xffffffffffffffff\n        /* \"#utility.yul\":3540:3546   */\n      dup2\n        /* \"#utility.yul\":3537:3567   */\n      gt\n        /* \"#utility.yul\":3534:3651   */\n      iszero\n      tag_111\n      jumpi\n        /* \"#utility.yul\":3570:3649   */\n      tag_112\n      tag_45\n      jump\t// in\n    tag_112:\n        /* \"#utility.yul\":3534:3651   */\n    tag_111:\n        /* \"#utility.yul\":3690:3749   */\n      tag_113\n        /* \"#utility.yul\":3745:3748   */\n      dup5\n        /* \"#utility.yul\":3736:3742   */\n      dup3\n        /* \"#utility.yul\":3725:3734   */\n      dup6\n        /* \"#utility.yul\":3721:3743   */\n      add\n        /* \"#utility.yul\":3690:3749   */\n      tag_40\n      jump\t// in\n    tag_113:\n        /* \"#utility.yul\":3683:3687   */\n      0x00\n        /* \"#utility.yul\":3676:3681   */\n      dup4\n        /* \"#utility.yul\":3672:3688   */\n      add\n        /* \"#utility.yul\":3665:3750   */\n      mstore\n        /* \"#utility.yul\":3441:3761   */\n      pop\n        /* \"#utility.yul\":3822:3824   */\n      0x20\n        /* \"#utility.yul\":3863:3912   */\n      tag_114\n        /* \"#utility.yul\":3908:3911   */\n      dup5\n        /* \"#utility.yul\":3899:3905   */\n      dup3\n        /* \"#utility.yul\":3888:3897   */\n      dup6\n        /* \"#utility.yul\":3884:3906   */\n      add\n        /* \"#utility.yul\":3863:3912   */\n      tag_43\n      jump\t// in\n    tag_114:\n        /* \"#utility.yul\":3856:3860   */\n      0x20\n        /* \"#utility.yul\":3849:3854   */\n      dup4\n        /* \"#utility.yul\":3845:3861   */\n      add\n        /* \"#utility.yul\":3838:3913   */\n      mstore\n        /* \"#utility.yul\":3771:3924   */\n      pop\n        /* \"#utility.yul\":3188:3931   */\n      swap3\n      swap2\n      pop\n      pop\n      jump\t// out\n        /* \"#utility.yul\":3937:4940   */\n    tag_7:\n        /* \"#utility.yul\":4046:4052   */\n      0x00\n        /* \"#utility.yul\":4054:4060   */\n      dup1\n        /* \"#utility.yul\":4062:4068   */\n      0x00\n        /* \"#utility.yul\":4111:4113   */\n      0x60\n        /* \"#utility.yul\":4099:4108   */\n      dup5\n        /* \"#utility.yul\":4090:4097   */\n      dup7\n        /* \"#utility.yul\":4086:4109   */\n      sub\n        /* \"#utility.yul\":4082:4114   */\n      slt\n        /* \"#utility.yul\":4079:4198   */\n      iszero\n      tag_116\n      jumpi\n        /* \"#utility.yul\":4117:4196   */\n      tag_117\n      tag_29\n      jump\t// in\n    tag_117:\n        /* \"#utility.yul\":4079:4198   */\n    tag_116:\n        /* \"#utility.yul\":4265:4266   */\n      0x00\n        /* \"#utility.yul\":4254:4263   */\n      dup5\n        /* \"#utility.yul\":4250:4267   */\n      add\n        /* \"#utility.yul\":4237:4268   */\n      calldataload\n        /* \"#utility.yul\":4295:4313   */\n      0xffffffffffffffff\n        /* \"#utility.yul\":4287:4293   */\n      dup2\n        /* \"#utility.yul\":4284:4314   */\n      gt\n        /* \"#utility.yul\":4281:4398   */\n      iszero\n      tag_118\n      jumpi\n        /* \"#utility.yul\":4317:4396   */\n      tag_119\n      tag_30\n      jump\t// in\n    tag_119:\n        /* \"#utility.yul\":4281:4398   */\n    tag_118:\n        /* \"#utility.yul\":4422:4485   */\n      tag_120\n        /* \"#utility.yul\":4477:4484   */\n      dup7\n        /* \"#utility.yul\":4468:4474   */\n      dup3\n        /* \"#utility.yul\":4457:4466   */\n      dup8\n        /* \"#utility.yul\":4453:4475   */\n      add\n        /* \"#utility.yul\":4422:4485   */\n      tag_40\n      jump\t// in\n    tag_120:\n        /* \"#utility.yul\":4412:4485   */\n      swap4\n      pop\n        /* \"#utility.yul\":4208:4495   */\n      pop\n        /* \"#utility.yul\":4534:4536   */\n      0x20\n        /* \"#utility.yul\":4560:4613   */\n      tag_121\n        /* \"#utility.yul\":4605:4612   */\n      dup7\n        /* \"#utility.yul\":4596:4602   */\n      dup3\n        /* \"#utility.yul\":4585:4594   */\n      dup8\n        /* \"#utility.yul\":4581:4603   */\n      add\n        /* \"#utility.yul\":4560:4613   */\n      tag_43\n      jump\t// in\n    tag_121:\n        /* \"#utility.yul\":4550:4613   */\n      swap3\n      pop\n        /* \"#utility.yul\":4505:4623   */\n      pop\n        /* \"#utility.yul\":4690:4692   */\n      0x40\n        /* \"#utility.yul\":4679:4688   */\n      dup5\n        /* \"#utility.yul\":4675:4693   */\n      add\n        /* \"#utility.yul\":4662:4694   */\n      calldataload\n        /* \"#utility.yul\":4721:4739   */\n      0xffffffffffffffff\n        /* \"#utility.yul\":4713:4719   */\n      dup2\n        /* \"#utility.yul\":4710:4740   */\n      gt\n        /* \"#utility.yul\":4707:4824   */\n      iszero\n      tag_122\n      jumpi\n        /* \"#utility.yul\":4743:4822   */\n      tag_123\n      tag_30\n      jump\t// in\n    tag_123:\n        /* \"#utility.yul\":4707:4824   */\n    tag_122:\n        /* \"#utility.yul\":4848:4923   */\n      tag_124\n        /* \"#utility.yul\":4915:4922   */\n      dup7\n        /* \"#utility.yul\":4906:4912   */\n      dup3\n        /* \"#utility.yul\":4895:4904   */\n      dup8\n        /* \"#utility.yul\":4891:4913   */\n      add\n        /* \"#utility.yul\":4848:4923   */\n      tag_46\n      jump\t// in\n    tag_124:\n        /* \"#utility.yul\":4838:4923   */\n      swap2\n      pop\n        /* \"#utility.yul\":4633:4933   */\n      pop\n        /* \"#utility.yul\":3937:4940   */\n      swap3\n      pop\n      swap3\n      pop\n      swap3\n      jump\t// out\n        /* \"#utility.yul\":4946:5804   */\n    tag_11:\n        /* \"#utility.yul\":5046:5052   */\n      0x00\n        /* \"#utility.yul\":5054:5060   */\n      dup1\n        /* \"#utility.yul\":5103:5105   */\n      0x40\n        /* \"#utility.yul\":5091:5100   */\n      dup4\n        /* \"#utility.yul\":5082:5089   */\n      dup6\n        /* \"#utility.yul\":5078:5101   */\n      sub\n        /* \"#utility.yul\":5074:5106   */\n      slt\n        /* \"#utility.yul\":5071:5190   */\n      iszero\n      tag_126\n      jumpi\n        /* \"#utility.yul\":5109:5188   */\n      tag_127\n      tag_29\n      jump\t// in\n    tag_127:\n        /* \"#utility.yul\":5071:5190   */\n    tag_126:\n        /* \"#utility.yul\":5257:5258   */\n      0x00\n        /* \"#utility.yul\":5246:5255   */\n      dup4\n        /* \"#utility.yul\":5242:5259   */\n      add\n        /* \"#utility.yul\":5229:5260   */\n      calldataload\n        /* \"#utility.yul\":5287:5305   */\n      0xffffffffffffffff\n        /* \"#utility.yul\":5279:5285   */\n      dup2\n        /* \"#utility.yul\":5276:5306   */\n      gt\n        /* \"#utility.yul\":5273:5390   */\n      iszero\n      tag_128\n      jumpi\n        /* \"#utility.yul\":5309:5388   */\n      tag_129\n      tag_30\n      jump\t// in\n    tag_129:\n        /* \"#utility.yul\":5273:5390   */\n    tag_128:\n        /* \"#utility.yul\":5414:5477   */\n      tag_130\n        /* \"#utility.yul\":5469:5476   */\n      dup6\n        /* \"#utility.yul\":5460:5466   */\n      dup3\n        /* \"#utility.yul\":5449:5458   */\n      dup7\n        /* \"#utility.yul\":5445:5467   */\n      add\n        /* \"#utility.yul\":5414:5477   */\n      tag_40\n      jump\t// in\n    tag_130:\n        /* \"#utility.yul\":5404:5477   */\n      swap3\n      pop\n        /* \"#utility.yul\":5200:5487   */\n      pop\n        /* \"#utility.yul\":5554:5556   */\n      0x20\n        /* \"#utility.yul\":5543:5552   */\n      dup4\n        /* \"#utility.yul\":5539:5557   */\n      add\n        /* \"#utility.yul\":5526:5558   */\n      calldataload\n        /* \"#utility.yul\":5585:5603   */\n      0xffffffffffffffff\n        /* \"#utility.yul\":5577:5583   */\n      dup2\n        /* \"#utility.yul\":5574:5604   */\n      gt\n        /* \"#utility.yul\":5571:5688   */\n      iszero\n      tag_131\n      jumpi\n        /* \"#utility.yul\":5607:5686   */\n      tag_132\n      tag_30\n      jump\t// in\n    tag_132:\n        /* \"#utility.yul\":5571:5688   */\n    tag_131:\n        /* \"#utility.yul\":5712:5787   */\n      tag_133\n        /* \"#utility.yul\":5779:5786   */\n      dup6\n        /* \"#utility.yul\":5770:5776   */\n      dup3\n        /* \"#utility.yul\":5759:5768   */\n      dup7\n        /* \"#utility.yul\":5755:5777   */\n      add\n        /* \"#utility.yul\":5712:5787   */\n      tag_46\n      jump\t// in\n    tag_133:\n        /* \"#utility.yul\":5702:5787   */\n      swap2\n      pop\n        /* \"#utility.yul\":5497:5797   */\n      pop\n        /* \"#utility.yul\":4946:5804   */\n      swap3\n      pop\n      swap3\n      swap1\n      pop\n      jump\t// out\n        /* \"#utility.yul\":5810:5909   */\n    tag_47:\n        /* \"#utility.yul\":5862:5868   */\n      0x00\n        /* \"#utility.yul\":5896:5901   */\n      dup2\n        /* \"#utility.yul\":5890:5902   */\n      mload\n        /* \"#utility.yul\":5880:5902   */\n      swap1\n      pop\n        /* \"#utility.yul\":5810:5909   */\n      swap2\n      swap1\n      pop\n      jump\t// out\n        /* \"#utility.yul\":5915:6063   */\n    tag_48:\n        /* \"#utility.yul\":6017:6028   */\n      0x00\n        /* \"#utility.yul\":6054:6057   */\n      dup2\n        /* \"#utility.yul\":6039:6057   */\n      swap1\n      pop\n        /* \"#utility.yul\":5915:6063   */\n      swap3\n      swap2\n      pop\n      pop\n      jump\t// out\n        /* \"#utility.yul\":6069:6208   */\n    tag_49:\n        /* \"#utility.yul\":6158:6164   */\n      dup3\n        /* \"#utility.yul\":6153:6156   */\n      dup2\n        /* \"#utility.yul\":6148:6151   */\n      dup4\n        /* \"#utility.yul\":6142:6165   */\n      mcopy\n        /* \"#utility.yul\":6199:6200   */\n      0x00\n        /* \"#utility.yul\":6190:6196   */\n      dup4\n        /* \"#utility.yul\":6185:6188   */\n      dup4\n        /* \"#utility.yul\":6181:6197   */\n      add\n        /* \"#utility.yul\":6174:6201   */\n      mstore\n        /* \"#utility.yul\":6069:6208   */\n      pop\n      pop\n      pop\n      jump\t// out\n        /* \"#utility.yul\":6214:6604   */\n    tag_50:\n        /* \"#utility.yul\":6320:6323   */\n      0x00\n        /* \"#utility.yul\":6348:6387   */\n      tag_138\n        /* \"#utility.yul\":6381:6386   */\n      dup3\n        /* \"#utility.yul\":6348:6387   */\n      tag_47\n      jump\t// in\n    tag_138:\n        /* \"#utility.yul\":6403:6492   */\n      tag_139\n        /* \"#utility.yul\":6485:6491   */\n      dup2\n        /* \"#utility.yul\":6480:6483   */\n      dup6\n        /* \"#utility.yul\":6403:6492   */\n      tag_48\n      jump\t// in\n    tag_139:\n        /* \"#utility.yul\":6396:6492   */\n      swap4\n      pop\n        /* \"#utility.yul\":6501:6566   */\n      tag_140\n        /* \"#utility.yul\":6559:6565   */\n      dup2\n        /* \"#utility.yul\":6554:6557   */\n      dup6\n        /* \"#utility.yul\":6547:6551   */\n      0x20\n        /* \"#utility.yul\":6540:6545   */\n      dup7\n        /* \"#utility.yul\":6536:6552   */\n      add\n        /* \"#utility.yul\":6501:6566   */\n      tag_49\n      jump\t// in\n    tag_140:\n        /* \"#utility.yul\":6591:6597   */\n      dup1\n        /* \"#utility.yul\":6586:6589   */\n      dup5\n        /* \"#utility.yul\":6582:6598   */\n      add\n        /* \"#utility.yul\":6575:6598   */\n      swap2\n      pop\n        /* \"#utility.yul\":6324:6604   */\n      pop\n        /* \"#utility.yul\":6214:6604   */\n      swap3\n      swap2\n      pop\n      pop\n      jump\t// out\n        /* \"#utility.yul\":6610:6885   */\n    tag_15:\n        /* \"#utility.yul\":6742:6745   */\n      0x00\n        /* \"#utility.yul\":6764:6859   */\n      tag_142\n        /* \"#utility.yul\":6855:6858   */\n      dup3\n        /* \"#utility.yul\":6846:6852   */\n      dup5\n        /* \"#utility.yul\":6764:6859   */\n      tag_50\n      jump\t// in\n    tag_142:\n        /* \"#utility.yul\":6757:6859   */\n      swap2\n      pop\n        /* \"#utility.yul\":6876:6879   */\n      dup2\n        /* \"#utility.yul\":6869:6879   */\n      swap1\n      pop\n        /* \"#utility.yul\":6610:6885   */\n      swap3\n      swap2\n      pop\n      pop\n      jump\t// out\n        /* \"#utility.yul\":6891:7071   */\n    tag_51:\n        /* \"#utility.yul\":6939:7016   */\n      0x4e487b7100000000000000000000000000000000000000000000000000000000\n        /* \"#utility.yul\":6936:6937   */\n      0x00\n        /* \"#utility.yul\":6929:7017   */\n      mstore\n        /* \"#utility.yul\":7036:7040   */\n      0x11\n        /* \"#utility.yul\":7033:7034   */\n      0x04\n        /* \"#utility.yul\":7026:7041   */\n      mstore\n        /* \"#utility.yul\":7060:7064   */\n      0x24\n        /* \"#utility.yul\":7057:7058   */\n      0x00\n        /* \"#utility.yul\":7050:7065   */\n      revert\n        /* \"#utility.yul\":7077:7271   */\n    tag_17:\n        /* \"#utility.yul\":7117:7121   */\n      0x00\n        /* \"#utility.yul\":7137:7157   */\n      tag_145\n        /* \"#utility.yul\":7155:7156   */\n      dup3\n        /* \"#utility.yul\":7137:7157   */\n      tag_41\n      jump\t// in\n    tag_145:\n        /* \"#utility.yul\":7132:7157   */\n      swap2\n      pop\n        /* \"#utility.yul\":7171:7191   */\n      tag_146\n        /* \"#utility.yul\":7189:7190   */\n      dup4\n        /* \"#utility.yul\":7171:7191   */\n      tag_41\n      jump\t// in\n    tag_146:\n        /* \"#utility.yul\":7166:7191   */\n      swap3\n      pop\n        /* \"#utility.yul\":7215:7216   */\n      dup3\n        /* \"#utility.yul\":7212:7213   */\n      dup3\n        /* \"#utility.yul\":7208:7217   */\n      sub\n        /* \"#utility.yul\":7200:7217   */\n      swap1\n      pop\n        /* \"#utility.yul\":7239:7240   */\n      dup2\n        /* \"#utility.yul\":7233:7237   */\n      dup2\n        /* \"#utility.yul\":7230:7241   */\n      gt\n        /* \"#utility.yul\":7227:7264   */\n      iszero\n      tag_147\n      jumpi\n        /* \"#utility.yul\":7244:7262   */\n      tag_148\n      tag_51\n      jump\t// in\n    tag_148:\n        /* \"#utility.yul\":7227:7264   */\n    tag_147:\n        /* \"#utility.yul\":7077:7271   */\n      swap3\n      swap2\n      pop\n      pop\n      jump\t// out\n        /* \"#utility.yul\":7277:7457   */\n    tag_20:\n        /* \"#utility.yul\":7325:7402   */\n      0x4e487b7100000000000000000000000000000000000000000000000000000000\n        /* \"#utility.yul\":7322:7323   */\n      0x00\n        /* \"#utility.yul\":7315:7403   */\n      mstore\n        /* \"#utility.yul\":7422:7426   */\n      0x32\n        /* \"#utility.yul\":7419:7420   */\n      0x04\n        /* \"#utility.yul\":7412:7427   */\n      mstore\n        /* \"#utility.yul\":7446:7450   */\n      0x24\n        /* \"#utility.yul\":7443:7444   */\n      0x00\n        /* \"#utility.yul\":7436:7451   */\n      revert\n        /* \"#utility.yul\":7463:7643   */\n    tag_52:\n        /* \"#utility.yul\":7511:7588   */\n      0x4e487b7100000000000000000000000000000000000000000000000000000000\n        /* \"#utility.yul\":7508:7509   */\n      0x00\n        /* \"#utility.yul\":7501:7589   */\n      mstore\n        /* \"#utility.yul\":7608:7612   */\n      0x22\n        /* \"#utility.yul\":7605:7606   */\n      0x04\n        /* \"#utility.yul\":7598:7613   */\n      mstore\n        /* \"#utility.yul\":7632:7636   */\n      0x24\n        /* \"#utility.yul\":7629:7630   */\n      0x00\n        /* \"#utility.yul\":7622:7637   */\n      revert\n        /* \"#utility.yul\":7649:7969   */\n    tag_53:\n        /* \"#utility.yul\":7693:7699   */\n      0x00\n        /* \"#utility.yul\":7730:7731   */\n      0x02\n        /* \"#utility.yul\":7724:7728   */\n      dup3\n        /* \"#utility.yul\":7720:7732   */\n      div\n        /* \"#utility.yul\":7710:7732   */\n      swap1\n      pop\n        /* \"#utility.yul\":7777:7778   */\n      0x01\n        /* \"#utility.yul\":7771:7775   */\n      dup3\n        /* \"#utility.yul\":7767:7779   */\n      and\n        /* \"#utility.yul\":7798:7816   */\n      dup1\n        /* \"#utility.yul\":7788:7869   */\n      tag_152\n      jumpi\n        /* \"#utility.yul\":7854:7858   */\n      0x7f\n        /* \"#utility.yul\":7846:7852   */\n      dup3\n        /* \"#utility.yul\":7842:7859   */\n      and\n        /* \"#utility.yul\":7832:7859   */\n      swap2\n      pop\n        /* \"#utility.yul\":7788:7869   */\n    tag_152:\n        /* \"#utility.yul\":7916:7918   */\n      0x20\n        /* \"#utility.yul\":7908:7914   */\n      dup3\n        /* \"#utility.yul\":7905:7919   */\n      lt\n        /* \"#utility.yul\":7885:7903   */\n      dup2\n        /* \"#utility.yul\":7882:7920   */\n      sub\n        /* \"#utility.yul\":7879:7963   */\n      tag_153\n      jumpi\n        /* \"#utility.yul\":7935:7953   */\n      tag_154\n      tag_52\n      jump\t// in\n    tag_154:\n        /* \"#utility.yul\":7879:7963   */\n    tag_153:\n        /* \"#utility.yul\":7700:7969   */\n      pop\n        /* \"#utility.yul\":7649:7969   */\n      swap2\n      swap1\n      pop\n      jump\t// out\n        /* \"#utility.yul\":7975:8116   */\n    tag_54:\n        /* \"#utility.yul\":8024:8028   */\n      0x00\n        /* \"#utility.yul\":8047:8050   */\n      dup2\n        /* \"#utility.yul\":8039:8050   */\n      swap1\n      pop\n        /* \"#utility.yul\":8070:8073   */\n      dup2\n        /* \"#utility.yul\":8067:8068   */\n      0x00\n        /* \"#utility.yul\":8060:8074   */\n      mstore\n        /* \"#utility.yul\":8104:8108   */\n      0x20\n        /* \"#utility.yul\":8101:8102   */\n      0x00\n        /* \"#utility.yul\":8091:8109   */\n      keccak256\n        /* \"#utility.yul\":8083:8109   */\n      swap1\n      pop\n        /* \"#utility.yul\":7975:8116   */\n      swap2\n      swap1\n      pop\n      jump\t// out\n        /* \"#utility.yul\":8122:8215   */\n    tag_55:\n        /* \"#utility.yul\":8159:8165   */\n      0x00\n        /* \"#utility.yul\":8206:8208   */\n      0x20\n        /* \"#utility.yul\":8201:8203   */\n      0x1f\n        /* \"#utility.yul\":8194:8199   */\n      dup4\n        /* \"#utility.yul\":8190:8204   */\n      add\n        /* \"#utility.yul\":8186:8209   */\n      div\n        /* \"#utility.yul\":8176:8209   */\n      swap1\n      pop\n        /* \"#utility.yul\":8122:8215   */\n      swap2\n      swap1\n      pop\n      jump\t// out\n        /* \"#utility.yul\":8221:8328   */\n    tag_56:\n        /* \"#utility.yul\":8265:8273   */\n      0x00\n        /* \"#utility.yul\":8315:8320   */\n      dup3\n        /* \"#utility.yul\":8309:8313   */\n      dup3\n        /* \"#utility.yul\":8305:8321   */\n      shl\n        /* \"#utility.yul\":8284:8321   */\n      swap1\n      pop\n        /* \"#utility.yul\":8221:8328   */\n      swap3\n      swap2\n      pop\n      pop\n      jump\t// out\n        /* \"#utility.yul\":8334:8727   */\n    tag_57:\n        /* \"#utility.yul\":8403:8409   */\n      0x00\n        /* \"#utility.yul\":8453:8454   */\n      0x08\n        /* \"#utility.yul\":8441:8451   */\n      dup4\n        /* \"#utility.yul\":8437:8455   */\n      mul\n        /* \"#utility.yul\":8476:8573   */\n      tag_159\n        /* \"#utility.yul\":8506:8572   */\n      0xffffffffffffffffffffffffffffffffffffffffffffffffffffffffffffffff\n        /* \"#utility.yul\":8495:8504   */\n      dup3\n        /* \"#utility.yul\":8476:8573   */\n      tag_56\n      jump\t// in\n    tag_159:\n        /* \"#utility.yul\":8594:8633   */\n      tag_160\n        /* \"#utility.yul\":8624:8632   */\n      dup7\n        /* \"#utility.yul\":8613:8622   */\n      dup4\n        /* \"#utility.yul\":8594:8633   */\n      tag_56\n      jump\t// in\n    tag_160:\n        /* \"#utility.yul\":8582:8633   */\n      swap6\n      pop\n        /* \"#utility.yul\":8666:8670   */\n      dup1\n        /* \"#utility.yul\":8662:8671   */\n      not\n        /* \"#utility.yul\":8655:8660   */\n      dup5\n        /* \"#utility.yul\":8651:8672   */\n      and\n        /* \"#utility.yul\":8642:8672   */\n      swap4\n      pop\n        /* \"#utility.yul\":8715:8719   */\n      dup1\n        /* \"#utility.yul\":8705:8713   */\n      dup7\n        /* \"#utility.yul\":8701:8720   */\n      and\n        /* \"#utility.yul\":8694:8699   */\n      dup5\n        /* \"#utility.yul\":8691:8721   */\n      or\n        /* \"#utility.yul\":8681:8721   */\n      swap3\n      pop\n        /* \"#utility.yul\":8410:8727   */\n      pop\n      pop\n        /* \"#utility.yul\":8334:8727   */\n      swap4\n      swap3\n      pop\n      pop\n      pop\n      jump\t// out\n        /* \"#utility.yul\":8733:8793   */\n    tag_58:\n        /* \"#utility.yul\":8761:8764   */\n      0x00\n        /* \"#utility.yul\":8782:8787   */\n      dup2\n        /* \"#utility.yul\":8775:8787   */\n      swap1\n      pop\n        /* \"#utility.yul\":8733:8793   */\n      swap2\n      swap1\n      pop\n      jump\t// out\n        /* \"#utility.yul\":8799:8941   */\n    tag_59:\n        /* \"#utility.yul\":8849:8858   */\n      0x00\n        /* \"#utility.yul\":8882:8935   */\n      tag_163\n        /* \"#utility.yul\":8900:8934   */\n      tag_164\n        /* \"#utility.yul\":8909:8933   */\n      tag_165\n        /* \"#utility.yul\":8927:8932   */\n      dup5\n        /* \"#utility.yul\":8909:8933   */\n      tag_41\n      jump\t// in\n    tag_165:\n        /* \"#utility.yul\":8900:8934   */\n      tag_58\n      jump\t// in\n    tag_164:\n        /* \"#utility.yul\":8882:8935   */\n      tag_41\n      jump\t// in\n    tag_163:\n        /* \"#utility.yul\":8869:8935   */\n      swap1\n      pop\n        /* \"#utility.yul\":8799:8941   */\n      swap2\n      swap1\n      pop\n      jump\t// out\n        /* \"#utility.yul\":8947:9022   */\n    tag_60:\n        /* \"#utility.yul\":8990:8993   */\n      0x00\n        /* \"#utility.yul\":9011:9016   */\n      dup2\n        /* \"#utility.yul\":9004:9016   */\n      swap1\n      pop\n        /* \"#utility.yul\":8947:9022   */\n      swap2\n      swap1\n      pop\n      jump\t// out\n        /* \"#utility.yul\":9028:9297   */\n    tag_61:\n        /* \"#utility.yul\":9138:9177   */\n      tag_168\n        /* \"#utility.yul\":9169:9176   */\n      dup4\n        /* \"#utility.yul\":9138:9177   */\n      tag_59\n      jump\t// in\n    tag_168:\n        /* \"#utility.yul\":9199:9290   */\n      tag_169\n        /* \"#utility.yul\":9248:9289   */\n      tag_170\n        /* \"#utility.yul\":9272:9288   */\n      dup3\n        /* \"#utility.yul\":9248:9289   */\n      tag_60\n      jump\t// in\n    tag_170:\n        /* \"#utility.yul\":9240:9246   */\n      dup5\n        /* \"#utility.yul\":9233:9237   */\n      dup5\n        /* \"#utility.yul\":9227:9238   */\n      sload\n        /* \"#utility.yul\":9199:9290   */\n      tag_57\n      jump\t// in\n    tag_169:\n        /* \"#utility.yul\":9193:9197   */\n      dup3\n        /* \"#utility.yul\":9186:9291   */\n      sstore\n        /* \"#utility.yul\":9104:9297   */\n      pop\n        /* \"#utility.yul\":9028:9297   */\n      pop\n      pop\n      pop\n      jump\t// out\n        /* \"#utility.yul\":9303:9376   */\n    tag_62:\n        /* \"#utility.yul\":9348:9351   */\n      0x00\n        /* \"#utility.yul\":9303:9376   */\n      swap1\n      jump\t// out\n        /* \"#utility.yul\":9382:9571   */\n    tag_63:\n        /* \"#utility.yul\":9459:9491   */\n      tag_173\n      tag_62\n      jump\t// in\n    tag_173:\n        /* \"#utility.yul\":9500:9565   */\n      tag_174\n        /* \"#utility.yul\":9558:9564   */\n      dup2\n        /* \"#utility.yul\":9550:9556   */\n      dup5\n        /* \"#utility.yul\":9544:9548   */\n      dup5\n        /* \"#utility.yul\":9500:9565   */\n      tag_61\n      jump\t// in\n    tag_174:\n        /* \"#utility.yul\":9435:9571   */\n      pop\n        /* \"#utility.yul\":9382:9571   */\n      pop\n      pop\n      jump\t// out\n        /* \"#utility.yul\":9577:9763   */\n    tag_64:\n        /* \"#utility.yul\":9637:9757   */\n    tag_176:\n        /* \"#utility.yul\":9654:9657   */\n      dup2\n        /* \"#utility.yul\":9647:9652   */\n      dup2\n        /* \"#utility.yul\":9644:9658   */\n      lt\n        /* \"#utility.yul\":9637:9757   */\n      iszero\n      tag_178\n      jumpi\n        /* \"#utility.yul\":9708:9747   */\n      tag_179\n        /* \"#utility.yul\":9745:9746   */\n      0x00\n        /* \"#utility.yul\":9738:9743   */\n      dup3\n        /* \"#utility.yul\":9708:9747   */\n      tag_63\n      jump\t// in\n    tag_179:\n        /* \"#utility.yul\":9681:9682   */\n      0x01\n        /* \"#utility.yul\":9674:9679   */\n      dup2\n        /* \"#utility.yul\":9670:9683   */\n      add\n        /* \"#utility.yul\":9661:9683   */\n      swap1\n      pop\n        /* \"#utility.yul\":9637:9757   */\n      jump(tag_176)\n    tag_178:\n        /* \"#utility.yul\":9577:9763   */\n      pop\n      pop\n      jump\t// out\n        /* \"#utility.yul\":9769:10312   */\n    tag_65:\n        /* \"#utility.yul\":9870:9872   */\n      0x1f\n        /* \"#utility.yul\":9865:9868   */\n      dup3\n        /* \"#utility.yul\":9862:9873   */\n      gt\n        /* \"#utility.yul\":9859:10305   */\n      iszero\n      tag_181\n      jumpi\n        /* \"#utility.yul\":9904:9942   */\n      tag_182\n        /* \"#utility.yul\":9936:9941   */\n      dup2\n        /* \"#utility.yul\":9904:9942   */\n      tag_54\n      jump\t// in\n    tag_182:\n        /* \"#utility.yul\":9988:10017   */\n      tag_183\n        /* \"#utility.yul\":10006:10016   */\n      dup5\n        /* \"#utility.yul\":9988:10017   */\n      tag_55\n      jump\t// in\n    tag_183:\n        /* \"#utility.yul\":9978:9986   */\n      dup2\n        /* \"#utility.yul\":9974:10018   */\n      add\n        /* \"#utility.yul\":10171:10173   */\n      0x20\n        /* \"#utility.yul\":10159:10169   */\n      dup6\n        /* \"#utility.yul\":10156:10174   */\n      lt\n        /* \"#utility.yul\":10153:10202   */\n      iszero\n      tag_184\n      jumpi\n        /* \"#utility.yul\":10192:10200   */\n      dup2\n        /* \"#utility.yul\":10177:10200   */\n      swap1\n      pop\n        /* \"#utility.yul\":10153:10202   */\n    tag_184:\n        /* \"#utility.yul\":10215:10295   */\n      tag_185\n        /* \"#utility.yul\":10271:10293   */\n      tag_186\n        /* \"#utility.yul\":10289:10292   */\n      dup6\n        /* \"#utility.yul\":10271:10293   */\n      tag_55\n      jump\t// in\n    tag_186:\n        /* \"#utility.yul\":10261:10269   */\n      dup4\n        /* \"#utility.yul\":10257:10294   */\n      add\n        /* \"#utility.yul\":10244:10255   */\n      dup3\n        /* \"#utility.yul\":10215:10295   */\n      tag_64\n      jump\t// in\n    tag_185:\n        /* \"#utility.yul\":9874:10305   */\n      pop\n      pop\n        /* \"#utility.yul\":9859:10305   */\n    tag_181:\n        /* \"#utility.yul\":9769:10312   */\n      pop\n      pop\n      pop\n      jump\t// out\n        /* \"#utility.yul\":10318:10435   */\n    tag_66:\n        /* \"#utility.yul\":10372:10380   */\n      0x00\n        /* \"#utility.yul\":10422:10427   */\n      dup3\n        /* \"#utility.yul\":10416:10420   */\n      dup3\n        /* \"#utility.yul\":10412:10428   */\n      shr\n        /* \"#utility.yul\":10391:10428   */\n      swap1\n      pop\n        /* \"#utility.yul\":10318:10435   */\n      swap3\n      swap2\n      pop\n      pop\n      jump\t// out\n        /* \"#utility.yul\":10441:10610   */\n    tag_67:\n        /* \"#utility.yul\":10485:10491   */\n      0x00\n        /* \"#utility.yul\":10518:10569   */\n      tag_189\n        /* \"#utility.yul\":10566:10567   */\n      0x00\n        /* \"#utility.yul\":10562:10568   */\n      not\n        /* \"#utility.yul\":10554:10559   */\n      dup5\n        /* \"#utility.yul\":10551:10552   */\n      0x08\n        /* \"#utility.yul\":10547:10560   */\n      mul\n        /* \"#utility.yul\":10518:10569   */\n      tag_66\n      jump\t// in\n    tag_189:\n        /* \"#utility.yul\":10514:10570   */\n      not\n        /* \"#utility.yul\":10599:10603   */\n      dup1\n        /* \"#utility.yul\":10593:10597   */\n      dup4\n        /* \"#utility.yul\":10589:10604   */\n      and\n        /* \"#utility.yul\":10579:10604   */\n      swap2\n      pop\n        /* \"#utility.yul\":10492:10610   */\n      pop\n        /* \"#utility.yul\":10441:10610   */\n      swap3\n      swap2\n      pop\n      pop\n      jump\t// out\n        /* \"#utility.yul\":10615:10910   */\n    tag_68:\n        /* \"#utility.yul\":10691:10695   */\n      0x00\n        /* \"#utility.yul\":10837:10866   */\n      tag_191\n        /* \"#utility.yul\":10862:10865   */\n      dup4\n        /* \"#utility.yul\":10856:10860   */\n      dup4\n        /* \"#utility.yul\":10837:10866   */\n      tag_67\n      jump\t// in\n    tag_191:\n        /* \"#utility.yul\":10829:10866   */\n      swap2\n      pop\n        /* \"#utility.yul\":10899:10902   */\n      dup3\n        /* \"#utility.yul\":10896:10897   */\n      0x02\n        /* \"#utility.yul\":10892:10903   */\n      mul\n        /* \"#utility.yul\":10886:10890   */\n      dup3\n        /* \"#utility.yul\":10883:10904   */\n      or\n        /* \"#utility.yul\":10875:10904   */\n      swap1\n      pop\n        /* \"#utility.yul\":10615:10910   */\n      swap3\n      swap2\n      pop\n      pop\n      jump\t// out\n        /* \"#utility.yul\":10915:12310   */\n    tag_23:\n        /* \"#utility.yul\":11032:11069   */\n      tag_193\n        /* \"#utility.yul\":11065:11068   */\n      dup3\n        /* \"#utility.yul\":11032:11069   */\n      tag_47\n      jump\t// in\n    tag_193:\n        /* \"#utility.yul\":11134:11152   */\n      0xffffffffffffffff\n        /* \"#utility.yul\":11126:11132   */\n      dup2\n        /* \"#utility.yul\":11123:11153   */\n      gt\n        /* \"#utility.yul\":11120:11176   */\n      iszero\n      tag_194\n      jumpi\n        /* \"#utility.yul\":11156:11174   */\n      tag_195\n      tag_34\n      jump\t// in\n    tag_195:\n        /* \"#utility.yul\":11120:11176   */\n    tag_194:\n        /* \"#utility.yul\":11200:11238   */\n      tag_196\n        /* \"#utility.yul\":11232:11236   */\n      dup3\n        /* \"#utility.yul\":11226:11237   */\n      sload\n        /* \"#utility.yul\":11200:11238   */\n      tag_53\n      jump\t// in\n    tag_196:\n        /* \"#utility.yul\":11285:11352   */\n      tag_197\n        /* \"#utility.yul\":11345:11351   */\n      dup3\n        /* \"#utility.yul\":11337:11343   */\n      dup3\n        /* \"#utility.yul\":11331:11335   */\n      dup6\n        /* \"#utility.yul\":11285:11352   */\n      tag_65\n      jump\t// in\n    tag_197:\n        /* \"#utility.yul\":11379:11380   */\n      0x00\n        /* \"#utility.yul\":11403:11407   */\n      0x20\n        /* \"#utility.yul\":11390:11407   */\n      swap1\n      pop\n        /* \"#utility.yul\":11435:11437   */\n      0x1f\n        /* \"#utility.yul\":11427:11433   */\n      dup4\n        /* \"#utility.yul\":11424:11438   */\n      gt\n        /* \"#utility.yul\":11452:11453   */\n      0x01\n        /* \"#utility.yul\":11447:12065   */\n      dup2\n      eq\n      tag_199\n      jumpi\n        /* \"#utility.yul\":12109:12110   */\n      0x00\n        /* \"#utility.yul\":12126:12132   */\n      dup5\n        /* \"#utility.yul\":12123:12200   */\n      iszero\n      tag_200\n      jumpi\n        /* \"#utility.yul\":12175:12184   */\n      dup3\n        /* \"#utility.yul\":12170:12173   */\n      dup8\n        /* \"#utility.yul\":12166:12185   */\n      add\n        /* \"#utility.yul\":12160:12186   */\n      mload\n        /* \"#utility.yul\":12151:12186   */\n      swap1\n      pop\n        /* \"#utility.yul\":12123:12200   */\n    tag_200:\n        /* \"#utility.yul\":12226:12293   */\n      tag_201\n        /* \"#utility.yul\":12286:12292   */\n      dup6\n        /* \"#utility.yul\":12279:12284   */\n      dup3\n        /* \"#utility.yul\":12226:12293   */\n      tag_68\n      jump\t// in\n    tag_201:\n        /* \"#utility.yul\":12220:12224   */\n      dup7\n        /* \"#utility.yul\":12213:12294   */\n      sstore\n        /* \"#utility.yul\":12082:12304   */\n      pop\n        /* \"#utility.yul\":11417:12304   */\n      jump(tag_198)\n        /* \"#utility.yul\":11447:12065   */\n    tag_199:\n        /* \"#utility.yul\":11499:11503   */\n      0x1f\n        /* \"#utility.yul\":11495:11504   */\n      not\n        /* \"#utility.yul\":11487:11493   */\n      dup5\n        /* \"#utility.yul\":11483:11505   */\n      and\n        /* \"#utility.yul\":11533:11570   */\n      tag_202\n        /* \"#utility.yul\":11565:11569   */\n      dup7\n        /* \"#utility.yul\":11533:11570   */\n      tag_54\n      jump\t// in\n    tag_202:\n        /* \"#utility.yul\":11592:11593   */\n      0x00\n        /* \"#utility.yul\":11606:11814   */\n    tag_203:\n        /* \"#utility.yul\":11620:11627   */\n      dup3\n        /* \"#utility.yul\":11617:11618   */\n      dup2\n        /* \"#utility.yul\":11614:11628   */\n      lt\n        /* \"#utility.yul\":11606:11814   */\n      iszero\n      tag_205\n      jumpi\n        /* \"#utility.yul\":11699:11708   */\n      dup5\n        /* \"#utility.yul\":11694:11697   */\n      dup10\n        /* \"#utility.yul\":11690:11709   */\n      add\n        /* \"#utility.yul\":11684:11710   */\n      mload\n        /* \"#utility.yul\":11676:11682   */\n      dup3\n        /* \"#utility.yul\":11669:11711   */\n      sstore\n        /* \"#utility.yul\":11750:11751   */\n      0x01\n        /* \"#utility.yul\":11742:11748   */\n      dup3\n        /* \"#utility.yul\":11738:11752   */\n      add\n        /* \"#utility.yul\":11728:11752   */\n      swap2\n      pop\n        /* \"#utility.yul\":11797:11799   */\n      0x20\n        /* \"#utility.yul\":11786:11795   */\n      dup6\n        /* \"#utility.yul\":11782:11800   */\n      add\n        /* \"#utility.yul\":11769:11800   */\n      swap5\n      pop\n        /* \"#utility.yul\":11643:11647   */\n      0x20\n        /* \"#utility.yul\":11640:11641   */\n      dup2\n        /* \"#utility.yul\":11636:11648   */\n      add\n        /* \"#utility.yul\":11631:11648   */\n      swap1\n      pop\n        /* \"#utility.yul\":11606:11814   */\n      jump(tag_203)\n    tag_205:\n        /* \"#utility.yul\":11842:11848   */\n      dup7\n        /* \"#utility.yul\":11833:11840   */\n      dup4\n        /* \"#utility.yul\":11830:11849   */\n      lt\n        /* \"#utility.yul\":11827:12006   */\n      iszero\n      tag_206\n      jumpi\n        /* \"#utility.yul\":11900:11909   */\n      dup5\n        /* \"#utility.yul\":11895:11898   */\n      dup10\n        /* \"#utility.yul\":11891:11910   */\n      add\n        /* \"#utility.yul\":11885:11911   */\n      mload\n        /* \"#utility.yul\":11943:11991   */\n      tag_207\n        /* \"#utility.yul\":11985:11989   */\n      0x1f\n        /* \"#utility.yul\":11977:11983   */\n      dup10\n        /* \"#utility.yul\":11973:11990   */\n      and\n        /* \"#utility.yul\":11962:11971   */\n      dup3\n        /* \"#utility.yul\":11943:11991   */\n      tag_67\n      jump\t// in\n    tag_207:\n        /* \"#utility.yul\":11935:11941   */\n      dup4\n        /* \"#utility.yul\":11928:11992   */\n      sstore\n        /* \"#utility.yul\":11850:12006   */\n      pop\n        /* \"#utility.yul\":11827:12006   */\n    tag_206:\n        /* \"#utility.yul\":12052:12053   */\n      0x01\n        /* \"#utility.yul\":12048:12049   */\n      0x02\n        /* \"#utility.yul\":12040:12046   */\n      dup9\n        /* \"#utility.yul\":12036:12050   */\n      mul\n        /* \"#utility.yul\":12032:12054   */\n      add\n        /* \"#utility.yul\":12026:12030   */\n      dup9\n        /* \"#utility.yul\":12019:12055   */\n      sstore\n        /* \"#utility.yul\":11454:12065   */\n      pop\n      pop\n      pop\n        /* \"#utility.yul\":11417:12304   */\n    tag_198:\n      pop\n        /* \"#utility.yul\":11007:12310   */\n      pop\n      pop\n      pop\n        /* \"#utility.yul\":10915:12310   */\n      pop\n      pop\n      jump\t// out\n\n    auxdata: 0xa264697066735822122031d583f3452776520214bc151f567a4768427955490b0c7efbd8739be2cfa6bc64736f6c634300081a0033\n}\n",
				"bytecode": {
					"linkReferences": {},
					"object": "6080604052348015600e575f80fd5b506108298061001c5f395ff3fe608060405234801561000f575f80fd5b5060043610610034575f3560e01c80635198b3fb146100385780639e0d236014610054575b5f80fd5b610052600480360381019061004d9190610337565b610070565b005b61006e600480360381019061006991906103bf565b6100de565b005b805f846040516100809190610487565b908152602001604051809103902060018461009b91906104ca565b815481106100ac576100ab6104fd565b5b905f5260205f2090600202015f820151815f0190816100cb9190610724565b5060208201518160010155905050505050565b5f826040516100ed9190610487565b908152602001604051809103902081908060018154018082558091505060019003905f5260205f2090600202015f909190919091505f820151815f0190816101359190610724565b506020820151816001015550505050565b5f604051905090565b5f80fd5b5f80fd5b5f80fd5b5f80fd5b5f601f19601f8301169050919050565b7f4e487b71000000000000000000000000000000000000000000000000000000005f52604160045260245ffd5b6101a58261015f565b810181811067ffffffffffffffff821117156101c4576101c361016f565b5b80604052505050565b5f6101d6610146565b90506101e2828261019c565b919050565b5f67ffffffffffffffff8211156102015761020061016f565b5b61020a8261015f565b9050602081019050919050565b828183375f83830152505050565b5f610237610232846101e7565b6101cd565b9050828152602081018484840111156102535761025261015b565b5b61025e848285610217565b509392505050565b5f82601f83011261027a57610279610157565b5b813561028a848260208601610225565b91505092915050565b5f819050919050565b6102a581610293565b81146102af575f80fd5b50565b5f813590506102c08161029c565b92915050565b5f80fd5b5f80fd5b5f604082840312156102e3576102e26102c6565b5b6102ed60406101cd565b90505f82013567ffffffffffffffff81111561030c5761030b6102ca565b5b61031884828501610266565b5f83015250602061032b848285016102b2565b60208301525092915050565b5f805f6060848603121561034e5761034d61014f565b5b5f84013567ffffffffffffffff81111561036b5761036a610153565b5b61037786828701610266565b9350506020610388868287016102b2565b925050604084013567ffffffffffffffff8111156103a9576103a8610153565b5b6103b5868287016102ce565b9150509250925092565b5f80604083850312156103d5576103d461014f565b5b5f83013567ffffffffffffffff8111156103f2576103f1610153565b5b6103fe85828601610266565b925050602083013567ffffffffffffffff81111561041f5761041e610153565b5b61042b858286016102ce565b9150509250929050565b5f81519050919050565b5f81905092915050565b8281835e5f83830152505050565b5f61046182610435565b61046b818561043f565b935061047b818560208601610449565b80840191505092915050565b5f6104928284610457565b915081905092915050565b7f4e487b71000000000000000000000000000000000000000000000000000000005f52601160045260245ffd5b5f6104d482610293565b91506104df83610293565b92508282039050818111156104f7576104f661049d565b5b92915050565b7f4e487b71000000000000000000000000000000000000000000000000000000005f52603260045260245ffd5b7f4e487b71000000000000000000000000000000000000000000000000000000005f52602260045260245ffd5b5f600282049050600182168061056e57607f821691505b6020821081036105815761058061052a565b5b50919050565b5f819050815f5260205f209050919050565b5f6020601f8301049050919050565b5f82821b905092915050565b5f600883026105e37fffffffffffffffffffffffffffffffffffffffffffffffffffffffffffffffff826105a8565b6105ed86836105a8565b95508019841693508086168417925050509392505050565b5f819050919050565b5f61062861062361061e84610293565b610605565b610293565b9050919050565b5f819050919050565b6106418361060e565b61065561064d8261062f565b8484546105b4565b825550505050565b5f90565b61066961065d565b610674818484610638565b505050565b5b818110156106975761068c5f82610661565b60018101905061067a565b5050565b601f8211156106dc576106ad81610587565b6106b684610599565b810160208510156106c5578190505b6106d96106d185610599565b830182610679565b50505b505050565b5f82821c905092915050565b5f6106fc5f19846008026106e1565b1980831691505092915050565b5f61071483836106ed565b9150826002028217905092915050565b61072d82610435565b67ffffffffffffffff8111156107465761074561016f565b5b6107508254610557565b61075b82828561069b565b5f60209050601f83116001811461078c575f841561077a578287015190505b6107848582610709565b8655506107eb565b601f19841661079a86610587565b5f5b828110156107c15784890151825560018201915060208501945060208101905061079c565b868310156107de57848901516107da601f8916826106ed565b8355505b6001600288020188555050505b50505050505056fea264697066735822122031d583f3452776520214bc151f567a4768427955490b0c7efbd8739be2cfa6bc64736f6c634300081a0033",
					"opcodes": "PUSH1 0x80 PUSH1 0x40 MSTORE CALLVALUE DUP1 ISZERO PUSH1 0xE JUMPI PUSH0 DUP1 REVERT JUMPDEST POP PUSH2 0x829 DUP1 PUSH2 0x1C PUSH0 CODECOPY PUSH0 RETURN INVALID PUSH1 0x80 PUSH1 0x40 MSTORE CALLVALUE DUP1 ISZERO PUSH2 0xF JUMPI PUSH0 DUP1 REVERT JUMPDEST POP PUSH1 0x4 CALLDATASIZE LT PUSH2 0x34 JUMPI PUSH0 CALLDATALOAD PUSH1 0xE0 SHR DUP1 PUSH4 0x5198B3FB EQ PUSH2 0x38 JUMPI DUP1 PUSH4 0x9E0D2360 EQ PUSH2 0x54 JUMPI JUMPDEST PUSH0 DUP1 REVERT JUMPDEST PUSH2 0x52 PUSH1 0x4 DUP1 CALLDATASIZE SUB DUP2 ADD SWAP1 PUSH2 0x4D SWAP2 SWAP1 PUSH2 0x337 JUMP JUMPDEST PUSH2 0x70 JUMP JUMPDEST STOP JUMPDEST PUSH2 0x6E PUSH1 0x4 DUP1 CALLDATASIZE SUB DUP2 ADD SWAP1 PUSH2 0x69 SWAP2 SWAP1 PUSH2 0x3BF JUMP JUMPDEST PUSH2 0xDE JUMP JUMPDEST STOP JUMPDEST DUP1 PUSH0 DUP5 PUSH1 0x40 MLOAD PUSH2 0x80 SWAP2 SWAP1 PUSH2 0x487 JUMP JUMPDEST SWAP1 DUP2 MSTORE PUSH1 0x20 ADD PUSH1 0x40 MLOAD DUP1 SWAP2 SUB SWAP1 KECCAK256 PUSH1 0x1 DUP5 PUSH2 0x9B SWAP2 SWAP1 PUSH2 0x4CA JUMP JUMPDEST DUP2 SLOAD DUP2 LT PUSH2 0xAC JUMPI PUSH2 0xAB PUSH2 0x4FD JUMP JUMPDEST JUMPDEST SWAP1 PUSH0 MSTORE PUSH1 0x20 PUSH0 KECCAK256 SWAP1 PUSH1 0x2 MUL ADD PUSH0 DUP3 ADD MLOAD DUP2 PUSH0 ADD SWAP1 DUP2 PUSH2 0xCB SWAP2 SWAP1 PUSH2 0x724 JUMP JUMPDEST POP PUSH1 0x20 DUP3 ADD MLOAD DUP2 PUSH1 0x1 ADD SSTORE SWAP1 POP POP POP POP POP JUMP JUMPDEST PUSH0 DUP3 PUSH1 0x40 MLOAD PUSH2 0xED SWAP2 SWAP1 PUSH2 0x487 JUMP JUMPDEST SWAP1 DUP2 MSTORE PUSH1 0x20 ADD PUSH1 0x40 MLOAD DUP1 SWAP2 SUB SWAP1 KECCAK256 DUP2 SWAP1 DUP1 PUSH1 0x1 DUP2 SLOAD ADD DUP1 DUP3 SSTORE DUP1 SWAP2 POP POP PUSH1 0x1 SWAP1 SUB SWAP1 PUSH0 MSTORE PUSH1 0x20 PUSH0 KECCAK256 SWAP1 PUSH1 0x2 MUL ADD PUSH0 SWAP1 SWAP2 SWAP1 SWAP2 SWAP1 SWAP2 POP PUSH0 DUP3 ADD MLOAD DUP2 PUSH0 ADD SWAP1 DUP2 PUSH2 0x135 SWAP2 SWAP1 PUSH2 0x724 JUMP JUMPDEST POP PUSH1 0x20 DUP3 ADD MLOAD DUP2 PUSH1 0x1 ADD SSTORE POP POP POP POP JUMP JUMPDEST PUSH0 PUSH1 0x40 MLOAD SWAP1 POP SWAP1 JUMP JUMPDEST PUSH0 DUP1 REVERT JUMPDEST PUSH0 DUP1 REVERT JUMPDEST PUSH0 DUP1 REVERT JUMPDEST PUSH0 DUP1 REVERT JUMPDEST PUSH0 PUSH1 0x1F NOT PUSH1 0x1F DUP4 ADD AND SWAP1 POP SWAP2 SWAP1 POP JUMP JUMPDEST PUSH32 0x4E487B7100000000000000000000000000000000000000000000000000000000 PUSH0 MSTORE PUSH1 0x41 PUSH1 0x4 MSTORE PUSH1 0x24 PUSH0 REVERT JUMPDEST PUSH2 0x1A5 DUP3 PUSH2 0x15F JUMP JUMPDEST DUP2 ADD DUP2 DUP2 LT PUSH8 0xFFFFFFFFFFFFFFFF DUP3 GT OR ISZERO PUSH2 0x1C4 JUMPI PUSH2 0x1C3 PUSH2 0x16F JUMP JUMPDEST JUMPDEST DUP1 PUSH1 0x40 MSTORE POP POP POP JUMP JUMPDEST PUSH0 PUSH2 0x1D6 PUSH2 0x146 JUMP JUMPDEST SWAP1 POP PUSH2 0x1E2 DUP3 DUP3 PUSH2 0x19C JUMP JUMPDEST SWAP2 SWAP1 POP JUMP JUMPDEST PUSH0 PUSH8 0xFFFFFFFFFFFFFFFF DUP3 GT ISZERO PUSH2 0x201 JUMPI PUSH2 0x200 PUSH2 0x16F JUMP JUMPDEST JUMPDEST PUSH2 0x20A DUP3 PUSH2 0x15F JUMP JUMPDEST SWAP1 POP PUSH1 0x20 DUP2 ADD SWAP1 POP SWAP2 SWAP1 POP JUMP JUMPDEST DUP3 DUP2 DUP4 CALLDATACOPY PUSH0 DUP4 DUP4 ADD MSTORE POP POP POP JUMP JUMPDEST PUSH0 PUSH2 0x237 PUSH2 0x232 DUP5 PUSH2 0x1E7 JUMP JUMPDEST PUSH2 0x1CD JUMP JUMPDEST SWAP1 POP DUP3 DUP2 MSTORE PUSH1 0x20 DUP2 ADD DUP5 DUP5 DUP5 ADD GT ISZERO PUSH2 0x253 JUMPI PUSH2 0x252 PUSH2 0x15B JUMP JUMPDEST JUMPDEST PUSH2 0x25E DUP5 DUP3 DUP6 PUSH2 0x217 JUMP JUMPDEST POP SWAP4 SWAP3 POP POP POP JUMP JUMPDEST PUSH0 DUP3 PUSH1 0x1F DUP4 ADD SLT PUSH2 0x27A JUMPI PUSH2 0x279 PUSH2 0x157 JUMP JUMPDEST JUMPDEST DUP2 CALLDATALOAD PUSH2 0x28A DUP5 DUP3 PUSH1 0x20 DUP7 ADD PUSH2 0x225 JUMP JUMPDEST SWAP2 POP POP SWAP3 SWAP2 POP POP JUMP JUMPDEST PUSH0 DUP2 SWAP1 POP SWAP2 SWAP1 POP JUMP JUMPDEST PUSH2 0x2A5 DUP2 PUSH2 0x293 JUMP JUMPDEST DUP2 EQ PUSH2 0x2AF JUMPI PUSH0 DUP1 REVERT JUMPDEST POP JUMP JUMPDEST PUSH0 DUP2 CALLDATALOAD SWAP1 POP PUSH2 0x2C0 DUP2 PUSH2 0x29C JUMP JUMPDEST SWAP3 SWAP2 POP POP JUMP JUMPDEST PUSH0 DUP1 REVERT JUMPDEST PUSH0 DUP1 REVERT JUMPDEST PUSH0 PUSH1 0x40 DUP3 DUP5 SUB SLT ISZERO PUSH2 0x2E3 JUMPI PUSH2 0x2E2 PUSH2 0x2C6 JUMP JUMPDEST JUMPDEST PUSH2 0x2ED PUSH1 0x40 PUSH2 0x1CD JUMP JUMPDEST SWAP1 POP PUSH0 DUP3 ADD CALLDATALOAD PUSH8 0xFFFFFFFFFFFFFFFF DUP2 GT ISZERO PUSH2 0x30C JUMPI PUSH2 0x30B PUSH2 0x2CA JUMP JUMPDEST JUMPDEST PUSH2 0x318 DUP5 DUP3 DUP6 ADD PUSH2 0x266 JUMP JUMPDEST PUSH0 DUP4 ADD MSTORE POP PUSH1 0x20 PUSH2 0x32B DUP5 DUP3 DUP6 ADD PUSH2 0x2B2 JUMP JUMPDEST PUSH1 0x20 DUP4 ADD MSTORE POP SWAP3 SWAP2 POP POP JUMP JUMPDEST PUSH0 DUP1 PUSH0 PUSH1 0x60 DUP5 DUP7 SUB SLT ISZERO PUSH2 0x34E JUMPI PUSH2 0x34D PUSH2 0x14F JUMP JUMPDEST JUMPDEST PUSH0 DUP5 ADD CALLDATALOAD PUSH8 0xFFFFFFFFFFFFFFFF DUP2 GT ISZERO PUSH2 0x36B JUMPI PUSH2 0x36A PUSH2 0x153 JUMP JUMPDEST JUMPDEST PUSH2 0x377 DUP7 DUP3 DUP8 ADD PUSH2 0x266 JUMP JUMPDEST SWAP4 POP POP PUSH1 0x20 PUSH2 0x388 DUP7 DUP3 DUP8 ADD PUSH2 0x2B2 JUMP JUMPDEST SWAP3 POP POP PUSH1 0x40 DUP5 ADD CALLDATALOAD PUSH8 0xFFFFFFFFFFFFFFFF DUP2 GT ISZERO PUSH2 0x3A9 JUMPI PUSH2 0x3A8 PUSH2 0x153 JUMP JUMPDEST JUMPDEST PUSH2 0x3B5 DUP7 DUP3 DUP8 ADD PUSH2 0x2CE JUMP JUMPDEST SWAP2 POP POP SWAP3 POP SWAP3 POP SWAP3 JUMP JUMPDEST PUSH0 DUP1 PUSH1 0x40 DUP4 DUP6 SUB SLT ISZERO PUSH2 0x3D5 JUMPI PUSH2 0x3D4 PUSH2 0x14F JUMP JUMPDEST JUMPDEST PUSH0 DUP4 ADD CALLDATALOAD PUSH8 0xFFFFFFFFFFFFFFFF DUP2 GT ISZERO PUSH2 0x3F2 JUMPI PUSH2 0x3F1 PUSH2 0x153 JUMP JUMPDEST JUMPDEST PUSH2 0x3FE DUP6 DUP3 DUP7 ADD PUSH2 0x266 JUMP JUMPDEST SWAP3 POP POP PUSH1 0x20 DUP4 ADD CALLDATALOAD PUSH8 0xFFFFFFFFFFFFFFFF DUP2 GT ISZERO PUSH2 0x41F JUMPI PUSH2 0x41E PUSH2 0x153 JUMP JUMPDEST JUMPDEST PUSH2 0x42B DUP6 DUP3 DUP7 ADD PUSH2 0x2CE JUMP JUMPDEST SWAP2 POP POP SWAP3 POP SWAP3 SWAP1 POP JUMP JUMPDEST PUSH0 DUP2 MLOAD SWAP1 POP SWAP2 SWAP1 POP JUMP JUMPDEST PUSH0 DUP2 SWAP1 POP SWAP3 SWAP2 POP POP JUMP JUMPDEST DUP3 DUP2 DUP4 MCOPY PUSH0 DUP4 DUP4 ADD MSTORE POP POP POP JUMP JUMPDEST PUSH0 PUSH2 0x461 DUP3 PUSH2 0x435 JUMP JUMPDEST PUSH2 0x46B DUP2 DUP6 PUSH2 0x43F JUMP JUMPDEST SWAP4 POP PUSH2 0x47B DUP2 DUP6 PUSH1 0x20 DUP7 ADD PUSH2 0x449 JUMP JUMPDEST DUP1 DUP5 ADD SWAP2 POP POP SWAP3 SWAP2 POP POP JUMP JUMPDEST PUSH0 PUSH2 0x492 DUP3 DUP5 PUSH2 0x457 JUMP JUMPDEST SWAP2 POP DUP2 SWAP1 POP SWAP3 SWAP2 POP POP JUMP JUMPDEST PUSH32 0x4E487B7100000000000000000000000000000000000000000000000000000000 PUSH0 MSTORE PUSH1 0x11 PUSH1 0x4 MSTORE PUSH1 0x24 PUSH0 REVERT JUMPDEST PUSH0 PUSH2 0x4D4 DUP3 PUSH2 0x293 JUMP JUMPDEST SWAP2 POP PUSH2 0x4DF DUP4 PUSH2 0x293 JUMP JUMPDEST SWAP3 POP DUP3 DUP3 SUB SWAP1 POP DUP2 DUP2 GT ISZERO PUSH2 0x4F7 JUMPI PUSH2 0x4F6 PUSH2 0x49D JUMP JUMPDEST JUMPDEST SWAP3 SWAP2 POP POP JUMP JUMPDEST PUSH32 0x4E487B7100000000000000000000000000000000000000000000000000000000 PUSH0 MSTORE PUSH1 0x32 PUSH1 0x4 MSTORE PUSH1 0x24 PUSH0 REVERT JUMPDEST PUSH32 0x4E487B7100000000000000000000000000000000000000000000000000000000 PUSH0 MSTORE PUSH1 0x22 PUSH1 0x4 MSTORE PUSH1 0x24 PUSH0 REVERT JUMPDEST PUSH0 PUSH1 0x2 DUP3 DIV SWAP1 POP PUSH1 0x1 DUP3 AND DUP1 PUSH2 0x56E JUMPI PUSH1 0x7F DUP3 AND SWAP2 POP JUMPDEST PUSH1 0x20 DUP3 LT DUP2 SUB PUSH2 0x581 JUMPI PUSH2 0x580 PUSH2 0x52A JUMP JUMPDEST JUMPDEST POP SWAP2 SWAP1 POP JUMP JUMPDEST PUSH0 DUP2 SWAP1 POP DUP2 PUSH0 MSTORE PUSH1 0x20 PUSH0 KECCAK256 SWAP1 POP SWAP2 SWAP1 POP JUMP JUMPDEST PUSH0 PUSH1 0x20 PUSH1 0x1F DUP4 ADD DIV SWAP1 POP SWAP2 SWAP1 POP JUMP JUMPDEST PUSH0 DUP3 DUP3 SHL SWAP1 POP SWAP3 SWAP2 POP POP JUMP JUMPDEST PUSH0 PUSH1 0x8 DUP4 MUL PUSH2 0x5E3 PUSH32 0xFFFFFFFFFFFFFFFFFFFFFFFFFFFFFFFFFFFFFFFFFFFFFFFFFFFFFFFFFFFFFFFF DUP3 PUSH2 0x5A8 JUMP JUMPDEST PUSH2 0x5ED DUP7 DUP4 PUSH2 0x5A8 JUMP JUMPDEST SWAP6 POP DUP1 NOT DUP5 AND SWAP4 POP DUP1 DUP7 AND DUP5 OR SWAP3 POP POP POP SWAP4 SWAP3 POP POP POP JUMP JUMPDEST PUSH0 DUP2 SWAP1 POP SWAP2 SWAP1 POP JUMP JUMPDEST PUSH0 PUSH2 0x628 PUSH2 0x623 PUSH2 0x61E DUP5 PUSH2 0x293 JUMP JUMPDEST PUSH2 0x605 JUMP JUMPDEST PUSH2 0x293 JUMP JUMPDEST SWAP1 POP SWAP2 SWAP1 POP JUMP JUMPDEST PUSH0 DUP2 SWAP1 POP SWAP2 SWAP1 POP JUMP JUMPDEST PUSH2 0x641 DUP4 PUSH2 0x60E JUMP JUMPDEST PUSH2 0x655 PUSH2 0x64D DUP3 PUSH2 0x62F JUMP JUMPDEST DUP5 DUP5 SLOAD PUSH2 0x5B4 JUMP JUMPDEST DUP3 SSTORE POP POP POP POP JUMP JUMPDEST PUSH0 SWAP1 JUMP JUMPDEST PUSH2 0x669 PUSH2 0x65D JUMP JUMPDEST PUSH2 0x674 DUP2 DUP5 DUP5 PUSH2 0x638 JUMP JUMPDEST POP POP POP JUMP JUMPDEST JUMPDEST DUP2 DUP2 LT ISZERO PUSH2 0x697 JUMPI PUSH2 0x68C PUSH0 DUP3 PUSH2 0x661 JUMP JUMPDEST PUSH1 0x1 DUP2 ADD SWAP1 POP PUSH2 0x67A JUMP JUMPDEST POP POP JUMP JUMPDEST PUSH1 0x1F DUP3 GT ISZERO PUSH2 0x6DC JUMPI PUSH2 0x6AD DUP2 PUSH2 0x587 JUMP JUMPDEST PUSH2 0x6B6 DUP5 PUSH2 0x599 JUMP JUMPDEST DUP2 ADD PUSH1 0x20 DUP6 LT ISZERO PUSH2 0x6C5 JUMPI DUP2 SWAP1 POP JUMPDEST PUSH2 0x6D9 PUSH2 0x6D1 DUP6 PUSH2 0x599 JUMP JUMPDEST DUP4 ADD DUP3 PUSH2 0x679 JUMP JUMPDEST POP POP JUMPDEST POP POP POP JUMP JUMPDEST PUSH0 DUP3 DUP3 SHR SWAP1 POP SWAP3 SWAP2 POP POP JUMP JUMPDEST PUSH0 PUSH2 0x6FC PUSH0 NOT DUP5 PUSH1 0x8 MUL PUSH2 0x6E1 JUMP JUMPDEST NOT DUP1 DUP4 AND SWAP2 POP POP SWAP3 SWAP2 POP POP JUMP JUMPDEST PUSH0 PUSH2 0x714 DUP4 DUP4 PUSH2 0x6ED JUMP JUMPDEST SWAP2 POP DUP3 PUSH1 0x2 MUL DUP3 OR SWAP1 POP SWAP3 SWAP2 POP POP JUMP JUMPDEST PUSH2 0x72D DUP3 PUSH2 0x435 JUMP JUMPDEST PUSH8 0xFFFFFFFFFFFFFFFF DUP2 GT ISZERO PUSH2 0x746 JUMPI PUSH2 0x745 PUSH2 0x16F JUMP JUMPDEST JUMPDEST PUSH2 0x750 DUP3 SLOAD PUSH2 0x557 JUMP JUMPDEST PUSH2 0x75B DUP3 DUP3 DUP6 PUSH2 0x69B JUMP JUMPDEST PUSH0 PUSH1 0x20 SWAP1 POP PUSH1 0x1F DUP4 GT PUSH1 0x1 DUP2 EQ PUSH2 0x78C JUMPI PUSH0 DUP5 ISZERO PUSH2 0x77A JUMPI DUP3 DUP8 ADD MLOAD SWAP1 POP JUMPDEST PUSH2 0x784 DUP6 DUP3 PUSH2 0x709 JUMP JUMPDEST DUP7 SSTORE POP PUSH2 0x7EB JUMP JUMPDEST PUSH1 0x1F NOT DUP5 AND PUSH2 0x79A DUP7 PUSH2 0x587 JUMP JUMPDEST PUSH0 JUMPDEST DUP3 DUP2 LT ISZERO PUSH2 0x7C1 JUMPI DUP5 DUP10 ADD MLOAD DUP3 SSTORE PUSH1 0x1 DUP3 ADD SWAP2 POP PUSH1 0x20 DUP6 ADD SWAP5 POP PUSH1 0x20 DUP2 ADD SWAP1 POP PUSH2 0x79C JUMP JUMPDEST DUP7 DUP4 LT ISZERO PUSH2 0x7DE JUMPI DUP5 DUP10 ADD MLOAD PUSH2 0x7DA PUSH1 0x1F DUP10 AND DUP3 PUSH2 0x6ED JUMP JUMPDEST DUP4 SSTORE POP JUMPDEST PUSH1 0x1 PUSH1 0x2 DUP9 MUL ADD DUP9 SSTORE POP POP POP JUMPDEST POP POP POP POP POP POP JUMP INVALID LOG2 PUSH5 0x6970667358 0x22 SLT KECCAK256 BALANCE 0xD5 DUP4 RETURN GASLIMIT 0x27 PUSH23 0x520214BC151F567A4768427955490B0C7EFBD8739BE2CF 0xA6 0xBC PUSH5 0x736F6C6343 STOP ADDMOD BYTE STOP CALLER "
				},
				"gasEstimates": {
					"creation": {
						"codeDepositCost": "417800",
						"executionCost": "453",
						"totalCost": "418253"
					},
					"external": {
						"setStudent(string,(string,uint256))": "infinite",
						"setStudent2(string,uint256,(string,uint256))": "infinite"
					}
				},
				"methodIdentifiers": {
					"setStudent(string,(string,uint256))": "9e0d2360",
					"setStudent2(string,uint256,(string,uint256))": "5198b3fb"
				}
			},
			"storageLayout": {
				"storage": [
					{
						"astId": 12,
						"contract": "contracts/mapping4.sol:MAPPING4",
						"label": "StudentList",
						"offset": 0,
						"slot": "0",
						"type": "t_mapping(t_string_memory_ptr,t_array(t_struct(Student)6_storage)dyn_storage)"
					}
				],
				"types": {
					"t_array(t_struct(Student)6_storage)dyn_storage": {
						"base": "t_struct(Student)6_storage",
						"encoding": "dynamic_array",
						"label": "struct MAPPING4.Student[]",
						"numberOfBytes": "32"
					},
					"t_mapping(t_string_memory_ptr,t_array(t_struct(Student)6_storage)dyn_storage)": {
						"encoding": "mapping",
						"key": "t_string_memory_ptr",
						"label": "mapping(string => struct MAPPING4.Student[])",
						"numberOfBytes": "32",
						"value": "t_array(t_struct(Student)6_storage)dyn_storage"
					},
					"t_string_memory_ptr": {
						"encoding": "bytes",
						"label": "string",
						"numberOfBytes": "32"
					},
					"t_string_storage": {
						"encoding": "bytes",
						"label": "string",
						"numberOfBytes": "32"
					},
					"t_struct(Student)6_storage": {
						"encoding": "inplace",
						"label": "struct MAPPING4.Student",
						"members": [
							{
								"astId": 3,
								"contract": "contracts/mapping4.sol:MAPPING4",
								"label": "name",
								"offset": 0,
								"slot": "0",
								"type": "t_string_storage"
							},
							{
								"astId": 5,
								"contract": "contracts/mapping4.sol:MAPPING4",
								"label": "number",
								"offset": 0,
								"slot": "1",
								"type": "t_uint256"
							}
						],
						"numberOfBytes": "64"
					},
					"t_uint256": {
						"encoding": "inplace",
						"label": "uint256",
						"numberOfBytes": "32"
					}
				}
			},
			"userdoc": {
				"kind": "user",
				"methods": {},
				"version": 1
			}
		}
	}
}