{
	"contracts/array_mul_1.sol": {
		"MUlTI_DIM": {
			"abi": [
				{
					"inputs": [],
					"name": "getLength",
					"outputs": [
						{
							"internalType": "uint256",
							"name": "",
							"type": "uint256"
						},
						{
							"internalType": "uint256",
							"name": "",
							"type": "uint256"
						},
						{
							"internalType": "uint256",
							"name": "",
							"type": "uint256"
						},
						{
							"internalType": "uint256",
							"name": "",
							"type": "uint256"
						}
					],
					"stateMutability": "view",
					"type": "function"
				},
				{
					"inputs": [],
					"name": "getNumbers",
					"outputs": [
						{
							"internalType": "uint256[][]",
							"name": "",
							"type": "uint256[][]"
						},
						{
							"internalType": "uint256[][5]",
							"name": "",
							"type": "uint256[][5]"
						},
						{
							"internalType": "uint256[5][]",
							"name": "",
							"type": "uint256[5][]"
						},
						{
							"internalType": "uint256[5][5]",
							"name": "",
							"type": "uint256[5][5]"
						}
					],
					"stateMutability": "view",
					"type": "function"
				},
				{
					"inputs": [
						{
							"internalType": "uint256",
							"name": "_n",
							"type": "uint256"
						}
					],
					"name": "pushNumber",
					"outputs": [],
					"stateMutability": "nonpayable",
					"type": "function"
				},
				{
					"inputs": [
						{
							"internalType": "uint256[]",
							"name": "_n",
							"type": "uint256[]"
						}
					],
					"name": "pushNumber1",
					"outputs": [],
					"stateMutability": "nonpayable",
					"type": "function"
				},
				{
					"inputs": [
						{
							"internalType": "uint256",
							"name": "idx",
							"type": "uint256"
						},
						{
							"internalType": "uint256[]",
							"name": "_n",
							"type": "uint256[]"
						}
					],
					"name": "pushNumber2",
					"outputs": [],
					"stateMutability": "nonpayable",
					"type": "function"
				},
				{
					"inputs": [
						{
							"internalType": "uint256[5]",
							"name": "_n",
							"type": "uint256[5]"
						}
					],
					"name": "pushNumber3",
					"outputs": [],
					"stateMutability": "nonpayable",
					"type": "function"
				},
				{
					"inputs": [
						{
							"internalType": "uint256",
							"name": "idx",
							"type": "uint256"
						},
						{
							"internalType": "uint256[5]",
							"name": "_n",
							"type": "uint256[5]"
						}
					],
					"name": "pushNumber4",
					"outputs": [],
					"stateMutability": "nonpayable",
					"type": "function"
				}
			],
			"devdoc": {
				"kind": "dev",
				"methods": {},
				"version": 1
			},
			"evm": {
				"assembly": "    /* \"contracts/array_mul_1.sol\":70:1081  contract MUlTI_DIM {... */\n  mstore(0x40, 0x80)\n  callvalue\n  dup1\n  iszero\n  tag_1\n  jumpi\n  0x00\n  dup1\n  revert\ntag_1:\n  pop\n  dataSize(sub_0)\n  dup1\n  dataOffset(sub_0)\n  0x00\n  codecopy\n  0x00\n  return\nstop\n\nsub_0: assembly {\n        /* \"contracts/array_mul_1.sol\":70:1081  contract MUlTI_DIM {... */\n      mstore(0x40, 0x80)\n      callvalue\n      dup1\n      iszero\n      tag_1\n      jumpi\n      0x00\n      dup1\n      revert\n    tag_1:\n      pop\n      jumpi(tag_2, lt(calldatasize, 0x04))\n      shr(0xe0, calldataload(0x00))\n      dup1\n      0x2d00b0d8\n      gt\n      tag_10\n      jumpi\n      dup1\n      0x2d00b0d8\n      eq\n      tag_6\n      jumpi\n      dup1\n      0x2d7d7910\n      eq\n      tag_7\n      jumpi\n      dup1\n      0x89f915f6\n      eq\n      tag_8\n      jumpi\n      dup1\n      0xbe1c766b\n      eq\n      tag_9\n      jumpi\n      jump(tag_2)\n    tag_10:\n      dup1\n      0x23009fa8\n      eq\n      tag_3\n      jumpi\n      dup1\n      0x29ed8c7b\n      eq\n      tag_4\n      jumpi\n      dup1\n      0x2bfe1805\n      eq\n      tag_5\n      jumpi\n    tag_2:\n      0x00\n      dup1\n      revert\n        /* \"contracts/array_mul_1.sol\":526:610  function pushNumber3(uint[5] memory _n) public {... */\n    tag_3:\n      tag_11\n      0x04\n      dup1\n      calldatasize\n      sub\n      dup2\n      add\n      swap1\n      tag_12\n      swap2\n      swap1\n      tag_13\n      jump\t// in\n    tag_12:\n      tag_14\n      jump\t// in\n    tag_11:\n      stop\n        /* \"contracts/array_mul_1.sol\":422:518  function pushNumber2(uint idx, uint[] memory _n) public {... */\n    tag_4:\n      tag_15\n      0x04\n      dup1\n      calldatasize\n      sub\n      dup2\n      add\n      swap1\n      tag_16\n      swap2\n      swap1\n      tag_17\n      jump\t// in\n    tag_16:\n      tag_18\n      jump\t// in\n    tag_15:\n      stop\n        /* \"contracts/array_mul_1.sol\":248:323  function pushNumber(uint _n) public {... */\n    tag_5:\n      tag_19\n      0x04\n      dup1\n      calldatasize\n      sub\n      dup2\n      add\n      swap1\n      tag_20\n      swap2\n      swap1\n      tag_21\n      jump\t// in\n    tag_20:\n      tag_22\n      jump\t// in\n    tag_19:\n      stop\n        /* \"contracts/array_mul_1.sol\":618:716  function pushNumber4(uint idx, uint[5] memory _n) public  {... */\n    tag_6:\n      tag_23\n      0x04\n      dup1\n      calldatasize\n      sub\n      dup2\n      add\n      swap1\n      tag_24\n      swap2\n      swap1\n      tag_25\n      jump\t// in\n    tag_24:\n      tag_26\n      jump\t// in\n    tag_23:\n      stop\n        /* \"contracts/array_mul_1.sol\":331:414  function pushNumber1(uint[] memory _n) public {... */\n    tag_7:\n      tag_27\n      0x04\n      dup1\n      calldatasize\n      sub\n      dup2\n      add\n      swap1\n      tag_28\n      swap2\n      swap1\n      tag_29\n      jump\t// in\n    tag_28:\n      tag_30\n      jump\t// in\n    tag_27:\n      stop\n        /* \"contracts/array_mul_1.sol\":895:1078  function getNumbers() public view returns(uint[][] memory, uint[][5] memory, uint[5][] memory, uint[5][5] memory) {... */\n    tag_8:\n      tag_31\n      tag_32\n      jump\t// in\n    tag_31:\n      mload(0x40)\n      tag_33\n      swap5\n      swap4\n      swap3\n      swap2\n      swap1\n      tag_34\n      jump\t// in\n    tag_33:\n      mload(0x40)\n      dup1\n      swap2\n      sub\n      swap1\n      return\n        /* \"contracts/array_mul_1.sol\":724:887  function getLength() public view returns(uint, uint, uint, uint) {... */\n    tag_9:\n      tag_35\n      tag_36\n      jump\t// in\n    tag_35:\n      mload(0x40)\n      tag_37\n      swap5\n      swap4\n      swap3\n      swap2\n      swap1\n      tag_38\n      jump\t// in\n    tag_37:\n      mload(0x40)\n      dup1\n      swap2\n      sub\n      swap1\n      return\n        /* \"contracts/array_mul_1.sol\":526:610  function pushNumber3(uint[5] memory _n) public {... */\n    tag_14:\n        /* \"contracts/array_mul_1.sol\":584:593  numbers_3 */\n      0x0c\n        /* \"contracts/array_mul_1.sol\":599:601  _n */\n      dup2\n        /* \"contracts/array_mul_1.sol\":584:602  numbers_3.push(_n) */\n      swap1\n      dup1\n      0x01\n      dup2\n      sload\n      add\n      dup1\n      dup3\n      sstore\n      dup1\n      swap2\n      pop\n      pop\n      0x01\n      swap1\n      sub\n      swap1\n      0x00\n      mstore\n      keccak256(0x00, 0x20)\n      swap1\n      0x05\n      mul\n      add\n      0x00\n      swap1\n      swap2\n      swap1\n      swap2\n      swap1\n      swap2\n      pop\n      swap1\n      0x05\n      tag_41\n      swap3\n      swap2\n      swap1\n      tag_42\n      jump\t// in\n    tag_41:\n      pop\n        /* \"contracts/array_mul_1.sol\":526:610  function pushNumber3(uint[5] memory _n) public {... */\n      pop\n      jump\t// out\n        /* \"contracts/array_mul_1.sol\":422:518  function pushNumber2(uint idx, uint[] memory _n) public {... */\n    tag_18:\n        /* \"contracts/array_mul_1.sol\":508:510  _n */\n      dup1\n        /* \"contracts/array_mul_1.sol\":489:498  numbers_2 */\n      0x07\n        /* \"contracts/array_mul_1.sol\":503:504  1 */\n      0x01\n        /* \"contracts/array_mul_1.sol\":499:502  idx */\n      dup5\n        /* \"contracts/array_mul_1.sol\":499:504  idx-1 */\n      tag_44\n      swap2\n      swap1\n      tag_45\n      jump\t// in\n    tag_44:\n        /* \"contracts/array_mul_1.sol\":489:505  numbers_2[idx-1] */\n      0x05\n      dup2\n      lt\n      tag_46\n      jumpi\n      tag_47\n      tag_48\n      jump\t// in\n    tag_47:\n    tag_46:\n      add\n        /* \"contracts/array_mul_1.sol\":489:510  numbers_2[idx-1] = _n */\n      swap1\n      dup1\n      mload\n      swap1\n      0x20\n      add\n      swap1\n      tag_50\n      swap3\n      swap2\n      swap1\n      tag_51\n      jump\t// in\n    tag_50:\n      pop\n        /* \"contracts/array_mul_1.sol\":422:518  function pushNumber2(uint idx, uint[] memory _n) public {... */\n      pop\n      pop\n      jump\t// out\n        /* \"contracts/array_mul_1.sol\":248:323  function pushNumber(uint _n) public {... */\n    tag_22:\n        /* \"contracts/array_mul_1.sol\":295:304  numbers_1 */\n      0x06\n        /* \"contracts/array_mul_1.sol\":295:315  numbers_1.push([_n]) */\n      mload(0x40)\n      dup1\n      0x20\n      add\n      0x40\n      mstore\n      dup1\n        /* \"contracts/array_mul_1.sol\":311:313  _n */\n      dup4\n        /* \"contracts/array_mul_1.sol\":295:315  numbers_1.push([_n]) */\n      dup2\n      mstore\n      pop\n      swap1\n      dup1\n      0x01\n      dup2\n      sload\n      add\n      dup1\n      dup3\n      sstore\n      dup1\n      swap2\n      pop\n      pop\n      0x01\n      swap1\n      sub\n      swap1\n      0x00\n      mstore\n      keccak256(0x00, 0x20)\n      add\n      0x00\n      swap1\n      swap2\n      swap1\n      swap2\n      swap1\n      swap2\n      pop\n      swap1\n      0x01\n      tag_54\n      swap3\n      swap2\n      swap1\n      tag_55\n      jump\t// in\n    tag_54:\n      pop\n        /* \"contracts/array_mul_1.sol\":248:323  function pushNumber(uint _n) public {... */\n      pop\n      jump\t// out\n        /* \"contracts/array_mul_1.sol\":618:716  function pushNumber4(uint idx, uint[5] memory _n) public  {... */\n    tag_26:\n        /* \"contracts/array_mul_1.sol\":706:708  _n */\n      dup1\n        /* \"contracts/array_mul_1.sol\":687:696  numbers_4 */\n      0x0d\n        /* \"contracts/array_mul_1.sol\":701:702  1 */\n      0x01\n        /* \"contracts/array_mul_1.sol\":697:700  idx */\n      dup5\n        /* \"contracts/array_mul_1.sol\":697:702  idx-1 */\n      tag_57\n      swap2\n      swap1\n      tag_45\n      jump\t// in\n    tag_57:\n        /* \"contracts/array_mul_1.sol\":687:703  numbers_4[idx-1] */\n      0x05\n      dup2\n      lt\n      tag_58\n      jumpi\n      tag_59\n      tag_48\n      jump\t// in\n    tag_59:\n    tag_58:\n      0x05\n      mul\n      add\n        /* \"contracts/array_mul_1.sol\":687:708  numbers_4[idx-1] = _n */\n      swap1\n      0x05\n      tag_61\n      swap3\n      swap2\n      swap1\n      tag_42\n      jump\t// in\n    tag_61:\n      pop\n        /* \"contracts/array_mul_1.sol\":618:716  function pushNumber4(uint idx, uint[5] memory _n) public  {... */\n      pop\n      pop\n      jump\t// out\n        /* \"contracts/array_mul_1.sol\":331:414  function pushNumber1(uint[] memory _n) public {... */\n    tag_30:\n        /* \"contracts/array_mul_1.sol\":388:397  numbers_1 */\n      0x06\n        /* \"contracts/array_mul_1.sol\":403:405  _n */\n      dup2\n        /* \"contracts/array_mul_1.sol\":388:406  numbers_1.push(_n) */\n      swap1\n      dup1\n      0x01\n      dup2\n      sload\n      add\n      dup1\n      dup3\n      sstore\n      dup1\n      swap2\n      pop\n      pop\n      0x01\n      swap1\n      sub\n      swap1\n      0x00\n      mstore\n      keccak256(0x00, 0x20)\n      add\n      0x00\n      swap1\n      swap2\n      swap1\n      swap2\n      swap1\n      swap2\n      pop\n      swap1\n      dup1\n      mload\n      swap1\n      0x20\n      add\n      swap1\n      tag_64\n      swap3\n      swap2\n      swap1\n      tag_51\n      jump\t// in\n    tag_64:\n      pop\n        /* \"contracts/array_mul_1.sol\":331:414  function pushNumber1(uint[] memory _n) public {... */\n      pop\n      jump\t// out\n        /* \"contracts/array_mul_1.sol\":895:1078  function getNumbers() public view returns(uint[][] memory, uint[][5] memory, uint[5][] memory, uint[5][5] memory) {... */\n    tag_32:\n        /* \"contracts/array_mul_1.sol\":937:952  uint[][] memory */\n      0x60\n        /* \"contracts/array_mul_1.sol\":954:970  uint[][5] memory */\n      tag_65\n      tag_66\n      jump\t// in\n    tag_65:\n        /* \"contracts/array_mul_1.sol\":972:988  uint[5][] memory */\n      0x60\n        /* \"contracts/array_mul_1.sol\":990:1007  uint[5][5] memory */\n      tag_67\n      tag_68\n      jump\t// in\n    tag_67:\n        /* \"contracts/array_mul_1.sol\":1027:1036  numbers_1 */\n      0x06\n        /* \"contracts/array_mul_1.sol\":1038:1047  numbers_2 */\n      0x07\n        /* \"contracts/array_mul_1.sol\":1049:1058  numbers_3 */\n      0x0c\n        /* \"contracts/array_mul_1.sol\":1060:1069  numbers_4 */\n      0x0d\n        /* \"contracts/array_mul_1.sol\":1020:1070  return(numbers_1, numbers_2, numbers_3, numbers_4) */\n      dup4\n      dup1\n      sload\n      dup1\n      0x20\n      mul\n      0x20\n      add\n      mload(0x40)\n      swap1\n      dup2\n      add\n      0x40\n      mstore\n      dup1\n      swap3\n      swap2\n      swap1\n      dup2\n      dup2\n      mstore\n      0x20\n      add\n      0x00\n      swap1\n    tag_70:\n      dup3\n      dup3\n      lt\n      iszero\n      tag_71\n      jumpi\n      dup4\n      dup3\n      swap1\n      0x00\n      mstore\n      keccak256(0x00, 0x20)\n      add\n      dup1\n      sload\n      dup1\n      0x20\n      mul\n      0x20\n      add\n      mload(0x40)\n      swap1\n      dup2\n      add\n      0x40\n      mstore\n      dup1\n      swap3\n      swap2\n      swap1\n      dup2\n      dup2\n      mstore\n      0x20\n      add\n      dup3\n      dup1\n      sload\n      dup1\n      iszero\n      tag_73\n      jumpi\n      0x20\n      mul\n      dup3\n      add\n      swap2\n      swap1\n      0x00\n      mstore\n      keccak256(0x00, 0x20)\n      swap1\n    tag_74:\n      dup2\n      sload\n      dup2\n      mstore\n      0x20\n      add\n      swap1\n      0x01\n      add\n      swap1\n      dup1\n      dup4\n      gt\n      tag_74\n      jumpi\n    tag_73:\n      pop\n      pop\n      pop\n      pop\n      pop\n      dup2\n      mstore\n      0x20\n      add\n      swap1\n      0x01\n      add\n      swap1\n      jump(tag_70)\n    tag_71:\n      pop\n      pop\n      pop\n      pop\n      swap4\n      pop\n      dup3\n      0x05\n      dup1\n      0x20\n      mul\n      mload(0x40)\n      swap1\n      dup2\n      add\n      0x40\n      mstore\n      dup1\n      swap3\n      swap2\n      swap1\n      0x00\n      swap1\n    tag_75:\n      dup3\n      dup3\n      lt\n      iszero\n      tag_76\n      jumpi\n      dup4\n      dup3\n      add\n      dup1\n      sload\n      dup1\n      0x20\n      mul\n      0x20\n      add\n      mload(0x40)\n      swap1\n      dup2\n      add\n      0x40\n      mstore\n      dup1\n      swap3\n      swap2\n      swap1\n      dup2\n      dup2\n      mstore\n      0x20\n      add\n      dup3\n      dup1\n      sload\n      dup1\n      iszero\n      tag_78\n      jumpi\n      0x20\n      mul\n      dup3\n      add\n      swap2\n      swap1\n      0x00\n      mstore\n      keccak256(0x00, 0x20)\n      swap1\n    tag_79:\n      dup2\n      sload\n      dup2\n      mstore\n      0x20\n      add\n      swap1\n      0x01\n      add\n      swap1\n      dup1\n      dup4\n      gt\n      tag_79\n      jumpi\n    tag_78:\n      pop\n      pop\n      pop\n      pop\n      pop\n      dup2\n      mstore\n      0x20\n      add\n      swap1\n      0x01\n      add\n      swap1\n      jump(tag_75)\n    tag_76:\n      pop\n      pop\n      pop\n      pop\n      swap3\n      pop\n      dup2\n      dup1\n      sload\n      dup1\n      0x20\n      mul\n      0x20\n      add\n      mload(0x40)\n      swap1\n      dup2\n      add\n      0x40\n      mstore\n      dup1\n      swap3\n      swap2\n      swap1\n      dup2\n      dup2\n      mstore\n      0x20\n      add\n      0x00\n      swap1\n    tag_80:\n      dup3\n      dup3\n      lt\n      iszero\n      tag_81\n      jumpi\n      dup4\n      dup3\n      swap1\n      0x00\n      mstore\n      keccak256(0x00, 0x20)\n      swap1\n      0x05\n      mul\n      add\n      0x05\n      dup1\n      0x20\n      mul\n      mload(0x40)\n      swap1\n      dup2\n      add\n      0x40\n      mstore\n      dup1\n      swap3\n      swap2\n      swap1\n      dup3\n      0x05\n      dup1\n      iszero\n      tag_83\n      jumpi\n      0x20\n      mul\n      dup3\n      add\n      swap2\n    tag_84:\n      dup2\n      sload\n      dup2\n      mstore\n      0x20\n      add\n      swap1\n      0x01\n      add\n      swap1\n      dup1\n      dup4\n      gt\n      tag_84\n      jumpi\n    tag_83:\n      pop\n      pop\n      pop\n      pop\n      pop\n      dup2\n      mstore\n      0x20\n      add\n      swap1\n      0x01\n      add\n      swap1\n      jump(tag_80)\n    tag_81:\n      pop\n      pop\n      pop\n      pop\n      swap2\n      pop\n      dup1\n      0x05\n      dup1\n      0x20\n      mul\n      mload(0x40)\n      swap1\n      dup2\n      add\n      0x40\n      mstore\n      dup1\n      swap3\n      swap2\n      swap1\n      0x00\n      swap1\n    tag_85:\n      dup3\n      dup3\n      lt\n      iszero\n      tag_86\n      jumpi\n      dup4\n      dup3\n      0x05\n      mul\n      add\n      0x05\n      dup1\n      0x20\n      mul\n      mload(0x40)\n      swap1\n      dup2\n      add\n      0x40\n      mstore\n      dup1\n      swap3\n      swap2\n      swap1\n      dup3\n      0x05\n      dup1\n      iszero\n      tag_88\n      jumpi\n      0x20\n      mul\n      dup3\n      add\n      swap2\n    tag_89:\n      dup2\n      sload\n      dup2\n      mstore\n      0x20\n      add\n      swap1\n      0x01\n      add\n      swap1\n      dup1\n      dup4\n      gt\n      tag_89\n      jumpi\n    tag_88:\n      pop\n      pop\n      pop\n      pop\n      pop\n      dup2\n      mstore\n      0x20\n      add\n      swap1\n      0x01\n      add\n      swap1\n      jump(tag_85)\n    tag_86:\n      pop\n      pop\n      pop\n      pop\n      swap1\n      pop\n      swap4\n      pop\n      swap4\n      pop\n      swap4\n      pop\n      swap4\n      pop\n        /* \"contracts/array_mul_1.sol\":895:1078  function getNumbers() public view returns(uint[][] memory, uint[][5] memory, uint[5][] memory, uint[5][5] memory) {... */\n      swap1\n      swap2\n      swap3\n      swap4\n      jump\t// out\n        /* \"contracts/array_mul_1.sol\":724:887  function getLength() public view returns(uint, uint, uint, uint) {... */\n    tag_36:\n        /* \"contracts/array_mul_1.sol\":765:769  uint */\n      0x00\n        /* \"contracts/array_mul_1.sol\":771:775  uint */\n      dup1\n        /* \"contracts/array_mul_1.sol\":777:781  uint */\n      0x00\n        /* \"contracts/array_mul_1.sol\":783:787  uint */\n      dup1\n        /* \"contracts/array_mul_1.sol\":808:817  numbers_1 */\n      0x06\n        /* \"contracts/array_mul_1.sol\":808:824  numbers_1.length */\n      dup1\n      sload\n      swap1\n      pop\n        /* \"contracts/array_mul_1.sol\":826:842  numbers_2.length */\n      0x05\n        /* \"contracts/array_mul_1.sol\":844:853  numbers_3 */\n      0x0c\n        /* \"contracts/array_mul_1.sol\":844:860  numbers_3.length */\n      dup1\n      sload\n      swap1\n      pop\n        /* \"contracts/array_mul_1.sol\":862:878  numbers_4.length */\n      0x05\n        /* \"contracts/array_mul_1.sol\":800:879  return (numbers_1.length, numbers_2.length, numbers_3.length, numbers_4.length) */\n      swap4\n      pop\n      swap4\n      pop\n      swap4\n      pop\n      swap4\n      pop\n        /* \"contracts/array_mul_1.sol\":724:887  function getLength() public view returns(uint, uint, uint, uint) {... */\n      swap1\n      swap2\n      swap3\n      swap4\n      jump\t// out\n    tag_42:\n      dup3\n      0x05\n      dup2\n      add\n      swap3\n      dup3\n      iszero\n      tag_91\n      jumpi\n      swap2\n      0x20\n      mul\n      dup3\n      add\n    tag_92:\n      dup3\n      dup2\n      gt\n      iszero\n      tag_93\n      jumpi\n      dup3\n      mload\n      dup3\n      sstore\n      swap2\n      0x20\n      add\n      swap2\n      swap1\n      0x01\n      add\n      swap1\n      jump(tag_92)\n    tag_93:\n    tag_91:\n      pop\n      swap1\n      pop\n      tag_94\n      swap2\n      swap1\n      tag_95\n      jump\t// in\n    tag_94:\n      pop\n      swap1\n      jump\t// out\n    tag_51:\n      dup3\n      dup1\n      sload\n      dup3\n      dup3\n      sstore\n      swap1\n      0x00\n      mstore\n      keccak256(0x00, 0x20)\n      swap1\n      dup2\n      add\n      swap3\n      dup3\n      iszero\n      tag_96\n      jumpi\n      swap2\n      0x20\n      mul\n      dup3\n      add\n    tag_97:\n      dup3\n      dup2\n      gt\n      iszero\n      tag_98\n      jumpi\n      dup3\n      mload\n      dup3\n      sstore\n      swap2\n      0x20\n      add\n      swap2\n      swap1\n      0x01\n      add\n      swap1\n      jump(tag_97)\n    tag_98:\n    tag_96:\n      pop\n      swap1\n      pop\n      tag_99\n      swap2\n      swap1\n      tag_95\n      jump\t// in\n    tag_99:\n      pop\n      swap1\n      jump\t// out\n    tag_55:\n      dup3\n      dup1\n      sload\n      dup3\n      dup3\n      sstore\n      swap1\n      0x00\n      mstore\n      keccak256(0x00, 0x20)\n      swap1\n      dup2\n      add\n      swap3\n      dup3\n      iszero\n      tag_100\n      jumpi\n      swap2\n      0x20\n      mul\n      dup3\n      add\n    tag_101:\n      dup3\n      dup2\n      gt\n      iszero\n      tag_102\n      jumpi\n      dup3\n      mload\n      dup3\n      sstore\n      swap2\n      0x20\n      add\n      swap2\n      swap1\n      0x01\n      add\n      swap1\n      jump(tag_101)\n    tag_102:\n    tag_100:\n      pop\n      swap1\n      pop\n      tag_103\n      swap2\n      swap1\n      tag_95\n      jump\t// in\n    tag_103:\n      pop\n      swap1\n      jump\t// out\n    tag_66:\n      mload(0x40)\n      dup1\n      0xa0\n      add\n      0x40\n      mstore\n      dup1\n      0x05\n      swap1\n    tag_104:\n      0x60\n      dup2\n      mstore\n      0x20\n      add\n      swap1\n      0x01\n      swap1\n      sub\n      swap1\n      dup2\n      tag_104\n      jumpi\n      swap1\n      pop\n      pop\n      swap1\n      jump\t// out\n    tag_68:\n      mload(0x40)\n      dup1\n      0xa0\n      add\n      0x40\n      mstore\n      dup1\n      0x05\n      swap1\n    tag_105:\n      tag_106\n      tag_107\n      jump\t// in\n    tag_106:\n      dup2\n      mstore\n      0x20\n      add\n      swap1\n      0x01\n      swap1\n      sub\n      swap1\n      dup2\n      tag_105\n      jumpi\n      swap1\n      pop\n      pop\n      swap1\n      jump\t// out\n    tag_95:\n    tag_108:\n      dup1\n      dup3\n      gt\n      iszero\n      tag_109\n      jumpi\n      0x00\n      dup2\n      0x00\n      swap1\n      sstore\n      pop\n      0x01\n      add\n      jump(tag_108)\n    tag_109:\n      pop\n      swap1\n      jump\t// out\n    tag_107:\n      mload(0x40)\n      dup1\n      0xa0\n      add\n      0x40\n      mstore\n      dup1\n      0x05\n      swap1\n      0x20\n      dup3\n      mul\n      dup1\n      calldatasize\n      dup4\n      calldatacopy\n      dup1\n      dup3\n      add\n      swap2\n      pop\n      pop\n      swap1\n      pop\n      pop\n      swap1\n      jump\t// out\n        /* \"#utility.yul\":7:82   */\n    tag_110:\n        /* \"#utility.yul\":40:46   */\n      0x00\n        /* \"#utility.yul\":73:75   */\n      0x40\n        /* \"#utility.yul\":67:76   */\n      mload\n        /* \"#utility.yul\":57:76   */\n      swap1\n      pop\n        /* \"#utility.yul\":7:82   */\n      swap1\n      jump\t// out\n        /* \"#utility.yul\":88:205   */\n    tag_111:\n        /* \"#utility.yul\":197:198   */\n      0x00\n        /* \"#utility.yul\":194:195   */\n      dup1\n        /* \"#utility.yul\":187:199   */\n      revert\n        /* \"#utility.yul\":211:328   */\n    tag_112:\n        /* \"#utility.yul\":320:321   */\n      0x00\n        /* \"#utility.yul\":317:318   */\n      dup1\n        /* \"#utility.yul\":310:322   */\n      revert\n        /* \"#utility.yul\":334:451   */\n    tag_113:\n        /* \"#utility.yul\":443:444   */\n      0x00\n        /* \"#utility.yul\":440:441   */\n      dup1\n        /* \"#utility.yul\":433:445   */\n      revert\n        /* \"#utility.yul\":457:559   */\n    tag_114:\n        /* \"#utility.yul\":498:504   */\n      0x00\n        /* \"#utility.yul\":549:551   */\n      0x1f\n        /* \"#utility.yul\":545:552   */\n      not\n        /* \"#utility.yul\":540:542   */\n      0x1f\n        /* \"#utility.yul\":533:538   */\n      dup4\n        /* \"#utility.yul\":529:543   */\n      add\n        /* \"#utility.yul\":525:553   */\n      and\n        /* \"#utility.yul\":515:553   */\n      swap1\n      pop\n        /* \"#utility.yul\":457:559   */\n      swap2\n      swap1\n      pop\n      jump\t// out\n        /* \"#utility.yul\":565:745   */\n    tag_115:\n        /* \"#utility.yul\":613:690   */\n      0x4e487b7100000000000000000000000000000000000000000000000000000000\n        /* \"#utility.yul\":610:611   */\n      0x00\n        /* \"#utility.yul\":603:691   */\n      mstore\n        /* \"#utility.yul\":710:714   */\n      0x41\n        /* \"#utility.yul\":707:708   */\n      0x04\n        /* \"#utility.yul\":700:715   */\n      mstore\n        /* \"#utility.yul\":734:738   */\n      0x24\n        /* \"#utility.yul\":731:732   */\n      0x00\n        /* \"#utility.yul\":724:739   */\n      revert\n        /* \"#utility.yul\":751:1032   */\n    tag_116:\n        /* \"#utility.yul\":834:861   */\n      tag_172\n        /* \"#utility.yul\":856:860   */\n      dup3\n        /* \"#utility.yul\":834:861   */\n      tag_114\n      jump\t// in\n    tag_172:\n        /* \"#utility.yul\":826:832   */\n      dup2\n        /* \"#utility.yul\":822:862   */\n      add\n        /* \"#utility.yul\":964:970   */\n      dup2\n        /* \"#utility.yul\":952:962   */\n      dup2\n        /* \"#utility.yul\":949:971   */\n      lt\n        /* \"#utility.yul\":928:946   */\n      0xffffffffffffffff\n        /* \"#utility.yul\":916:926   */\n      dup3\n        /* \"#utility.yul\":913:947   */\n      gt\n        /* \"#utility.yul\":910:972   */\n      or\n        /* \"#utility.yul\":907:995   */\n      iszero\n      tag_173\n      jumpi\n        /* \"#utility.yul\":975:993   */\n      tag_174\n      tag_115\n      jump\t// in\n    tag_174:\n        /* \"#utility.yul\":907:995   */\n    tag_173:\n        /* \"#utility.yul\":1015:1025   */\n      dup1\n        /* \"#utility.yul\":1011:1013   */\n      0x40\n        /* \"#utility.yul\":1004:1026   */\n      mstore\n        /* \"#utility.yul\":794:1032   */\n      pop\n        /* \"#utility.yul\":751:1032   */\n      pop\n      pop\n      jump\t// out\n        /* \"#utility.yul\":1038:1167   */\n    tag_117:\n        /* \"#utility.yul\":1072:1078   */\n      0x00\n        /* \"#utility.yul\":1099:1119   */\n      tag_176\n      tag_110\n      jump\t// in\n    tag_176:\n        /* \"#utility.yul\":1089:1119   */\n      swap1\n      pop\n        /* \"#utility.yul\":1128:1161   */\n      tag_177\n        /* \"#utility.yul\":1156:1160   */\n      dup3\n        /* \"#utility.yul\":1148:1154   */\n      dup3\n        /* \"#utility.yul\":1128:1161   */\n      tag_116\n      jump\t// in\n    tag_177:\n        /* \"#utility.yul\":1038:1167   */\n      swap2\n      swap1\n      pop\n      jump\t// out\n        /* \"#utility.yul\":1173:1422   */\n    tag_118:\n        /* \"#utility.yul\":1248:1252   */\n      0x00\n        /* \"#utility.yul\":1338:1356   */\n      0xffffffffffffffff\n        /* \"#utility.yul\":1330:1336   */\n      dup3\n        /* \"#utility.yul\":1327:1357   */\n      gt\n        /* \"#utility.yul\":1324:1380   */\n      iszero\n      tag_179\n      jumpi\n        /* \"#utility.yul\":1360:1378   */\n      tag_180\n      tag_115\n      jump\t// in\n    tag_180:\n        /* \"#utility.yul\":1324:1380   */\n    tag_179:\n        /* \"#utility.yul\":1410:1414   */\n      0x20\n        /* \"#utility.yul\":1402:1408   */\n      dup3\n        /* \"#utility.yul\":1398:1415   */\n      mul\n        /* \"#utility.yul\":1390:1415   */\n      swap1\n      pop\n        /* \"#utility.yul\":1173:1422   */\n      swap2\n      swap1\n      pop\n      jump\t// out\n        /* \"#utility.yul\":1428:1545   */\n    tag_119:\n        /* \"#utility.yul\":1537:1538   */\n      0x00\n        /* \"#utility.yul\":1534:1535   */\n      dup1\n        /* \"#utility.yul\":1527:1539   */\n      revert\n        /* \"#utility.yul\":1551:1628   */\n    tag_120:\n        /* \"#utility.yul\":1588:1595   */\n      0x00\n        /* \"#utility.yul\":1617:1622   */\n      dup2\n        /* \"#utility.yul\":1606:1622   */\n      swap1\n      pop\n        /* \"#utility.yul\":1551:1628   */\n      swap2\n      swap1\n      pop\n      jump\t// out\n        /* \"#utility.yul\":1634:1756   */\n    tag_121:\n        /* \"#utility.yul\":1707:1731   */\n      tag_184\n        /* \"#utility.yul\":1725:1730   */\n      dup2\n        /* \"#utility.yul\":1707:1731   */\n      tag_120\n      jump\t// in\n    tag_184:\n        /* \"#utility.yul\":1700:1705   */\n      dup2\n        /* \"#utility.yul\":1697:1732   */\n      eq\n        /* \"#utility.yul\":1687:1750   */\n      tag_185\n      jumpi\n        /* \"#utility.yul\":1746:1747   */\n      0x00\n        /* \"#utility.yul\":1743:1744   */\n      dup1\n        /* \"#utility.yul\":1736:1748   */\n      revert\n        /* \"#utility.yul\":1687:1750   */\n    tag_185:\n        /* \"#utility.yul\":1634:1756   */\n      pop\n      jump\t// out\n        /* \"#utility.yul\":1762:1901   */\n    tag_122:\n        /* \"#utility.yul\":1808:1813   */\n      0x00\n        /* \"#utility.yul\":1846:1852   */\n      dup2\n        /* \"#utility.yul\":1833:1853   */\n      calldataload\n        /* \"#utility.yul\":1824:1853   */\n      swap1\n      pop\n        /* \"#utility.yul\":1862:1895   */\n      tag_187\n        /* \"#utility.yul\":1889:1894   */\n      dup2\n        /* \"#utility.yul\":1862:1895   */\n      tag_121\n      jump\t// in\n    tag_187:\n        /* \"#utility.yul\":1762:1901   */\n      swap3\n      swap2\n      pop\n      pop\n      jump\t// out\n        /* \"#utility.yul\":1925:2568   */\n    tag_123:\n        /* \"#utility.yul\":2019:2024   */\n      0x00\n        /* \"#utility.yul\":2044:2123   */\n      tag_189\n        /* \"#utility.yul\":2060:2122   */\n      tag_190\n        /* \"#utility.yul\":2115:2121   */\n      dup5\n        /* \"#utility.yul\":2060:2122   */\n      tag_118\n      jump\t// in\n    tag_190:\n        /* \"#utility.yul\":2044:2123   */\n      tag_117\n      jump\t// in\n    tag_189:\n        /* \"#utility.yul\":2035:2123   */\n      swap1\n      pop\n        /* \"#utility.yul\":2143:2148   */\n      dup1\n        /* \"#utility.yul\":2196:2200   */\n      0x20\n        /* \"#utility.yul\":2188:2194   */\n      dup5\n        /* \"#utility.yul\":2184:2201   */\n      mul\n        /* \"#utility.yul\":2176:2182   */\n      dup4\n        /* \"#utility.yul\":2172:2202   */\n      add\n        /* \"#utility.yul\":2225:2228   */\n      dup6\n        /* \"#utility.yul\":2217:2223   */\n      dup2\n        /* \"#utility.yul\":2214:2229   */\n      gt\n        /* \"#utility.yul\":2211:2333   */\n      iszero\n      tag_191\n      jumpi\n        /* \"#utility.yul\":2244:2323   */\n      tag_192\n      tag_119\n      jump\t// in\n    tag_192:\n        /* \"#utility.yul\":2211:2333   */\n    tag_191:\n        /* \"#utility.yul\":2359:2365   */\n      dup4\n        /* \"#utility.yul\":2342:2562   */\n    tag_193:\n        /* \"#utility.yul\":2376:2382   */\n      dup2\n        /* \"#utility.yul\":2371:2374   */\n      dup2\n        /* \"#utility.yul\":2368:2383   */\n      lt\n        /* \"#utility.yul\":2342:2562   */\n      iszero\n      tag_195\n      jumpi\n        /* \"#utility.yul\":2451:2454   */\n      dup1\n        /* \"#utility.yul\":2480:2517   */\n      tag_196\n        /* \"#utility.yul\":2513:2516   */\n      dup9\n        /* \"#utility.yul\":2501:2511   */\n      dup3\n        /* \"#utility.yul\":2480:2517   */\n      tag_122\n      jump\t// in\n    tag_196:\n        /* \"#utility.yul\":2475:2478   */\n      dup5\n        /* \"#utility.yul\":2468:2518   */\n      mstore\n        /* \"#utility.yul\":2547:2551   */\n      0x20\n        /* \"#utility.yul\":2542:2545   */\n      dup5\n        /* \"#utility.yul\":2538:2552   */\n      add\n        /* \"#utility.yul\":2531:2552   */\n      swap4\n      pop\n        /* \"#utility.yul\":2418:2562   */\n      pop\n        /* \"#utility.yul\":2402:2406   */\n      0x20\n        /* \"#utility.yul\":2397:2400   */\n      dup2\n        /* \"#utility.yul\":2393:2407   */\n      add\n        /* \"#utility.yul\":2386:2407   */\n      swap1\n      pop\n        /* \"#utility.yul\":2342:2562   */\n      jump(tag_193)\n    tag_195:\n        /* \"#utility.yul\":2346:2367   */\n      pop\n        /* \"#utility.yul\":2025:2568   */\n      pop\n      pop\n        /* \"#utility.yul\":1925:2568   */\n      swap4\n      swap3\n      pop\n      pop\n      pop\n      jump\t// out\n        /* \"#utility.yul\":2592:2931   */\n    tag_124:\n        /* \"#utility.yul\":2661:2666   */\n      0x00\n        /* \"#utility.yul\":2710:2713   */\n      dup3\n        /* \"#utility.yul\":2703:2707   */\n      0x1f\n        /* \"#utility.yul\":2695:2701   */\n      dup4\n        /* \"#utility.yul\":2691:2708   */\n      add\n        /* \"#utility.yul\":2687:2714   */\n      slt\n        /* \"#utility.yul\":2677:2799   */\n      tag_198\n      jumpi\n        /* \"#utility.yul\":2718:2797   */\n      tag_199\n      tag_113\n      jump\t// in\n    tag_199:\n        /* \"#utility.yul\":2677:2799   */\n    tag_198:\n        /* \"#utility.yul\":2822:2826   */\n      0x05\n        /* \"#utility.yul\":2844:2925   */\n      tag_200\n        /* \"#utility.yul\":2921:2924   */\n      dup5\n        /* \"#utility.yul\":2913:2919   */\n      dup3\n        /* \"#utility.yul\":2905:2911   */\n      dup6\n        /* \"#utility.yul\":2844:2925   */\n      tag_123\n      jump\t// in\n    tag_200:\n        /* \"#utility.yul\":2835:2925   */\n      swap2\n      pop\n        /* \"#utility.yul\":2667:2931   */\n      pop\n        /* \"#utility.yul\":2592:2931   */\n      swap3\n      swap2\n      pop\n      pop\n      jump\t// out\n        /* \"#utility.yul\":2937:3313   */\n    tag_13:\n        /* \"#utility.yul\":3019:3025   */\n      0x00\n        /* \"#utility.yul\":3068:3071   */\n      0xa0\n        /* \"#utility.yul\":3056:3065   */\n      dup3\n        /* \"#utility.yul\":3047:3054   */\n      dup5\n        /* \"#utility.yul\":3043:3066   */\n      sub\n        /* \"#utility.yul\":3039:3072   */\n      slt\n        /* \"#utility.yul\":3036:3156   */\n      iszero\n      tag_202\n      jumpi\n        /* \"#utility.yul\":3075:3154   */\n      tag_203\n      tag_111\n      jump\t// in\n    tag_203:\n        /* \"#utility.yul\":3036:3156   */\n    tag_202:\n        /* \"#utility.yul\":3195:3196   */\n      0x00\n        /* \"#utility.yul\":3220:3296   */\n      tag_204\n        /* \"#utility.yul\":3288:3295   */\n      dup5\n        /* \"#utility.yul\":3279:3285   */\n      dup3\n        /* \"#utility.yul\":3268:3277   */\n      dup6\n        /* \"#utility.yul\":3264:3286   */\n      add\n        /* \"#utility.yul\":3220:3296   */\n      tag_124\n      jump\t// in\n    tag_204:\n        /* \"#utility.yul\":3210:3296   */\n      swap2\n      pop\n        /* \"#utility.yul\":3166:3306   */\n      pop\n        /* \"#utility.yul\":2937:3313   */\n      swap3\n      swap2\n      pop\n      pop\n      jump\t// out\n        /* \"#utility.yul\":3319:3630   */\n    tag_125:\n        /* \"#utility.yul\":3396:3400   */\n      0x00\n        /* \"#utility.yul\":3486:3504   */\n      0xffffffffffffffff\n        /* \"#utility.yul\":3478:3484   */\n      dup3\n        /* \"#utility.yul\":3475:3505   */\n      gt\n        /* \"#utility.yul\":3472:3528   */\n      iszero\n      tag_206\n      jumpi\n        /* \"#utility.yul\":3508:3526   */\n      tag_207\n      tag_115\n      jump\t// in\n    tag_207:\n        /* \"#utility.yul\":3472:3528   */\n    tag_206:\n        /* \"#utility.yul\":3558:3562   */\n      0x20\n        /* \"#utility.yul\":3550:3556   */\n      dup3\n        /* \"#utility.yul\":3546:3563   */\n      mul\n        /* \"#utility.yul\":3538:3563   */\n      swap1\n      pop\n        /* \"#utility.yul\":3618:3622   */\n      0x20\n        /* \"#utility.yul\":3612:3616   */\n      dup2\n        /* \"#utility.yul\":3608:3623   */\n      add\n        /* \"#utility.yul\":3600:3623   */\n      swap1\n      pop\n        /* \"#utility.yul\":3319:3630   */\n      swap2\n      swap1\n      pop\n      jump\t// out\n        /* \"#utility.yul\":3653:4363   */\n    tag_126:\n        /* \"#utility.yul\":3749:3754   */\n      0x00\n        /* \"#utility.yul\":3774:3855   */\n      tag_209\n        /* \"#utility.yul\":3790:3854   */\n      tag_210\n        /* \"#utility.yul\":3847:3853   */\n      dup5\n        /* \"#utility.yul\":3790:3854   */\n      tag_125\n      jump\t// in\n    tag_210:\n        /* \"#utility.yul\":3774:3855   */\n      tag_117\n      jump\t// in\n    tag_209:\n        /* \"#utility.yul\":3765:3855   */\n      swap1\n      pop\n        /* \"#utility.yul\":3875:3880   */\n      dup1\n        /* \"#utility.yul\":3904:3910   */\n      dup4\n        /* \"#utility.yul\":3897:3902   */\n      dup3\n        /* \"#utility.yul\":3890:3911   */\n      mstore\n        /* \"#utility.yul\":3938:3942   */\n      0x20\n        /* \"#utility.yul\":3931:3936   */\n      dup3\n        /* \"#utility.yul\":3927:3943   */\n      add\n        /* \"#utility.yul\":3920:3943   */\n      swap1\n      pop\n        /* \"#utility.yul\":3991:3995   */\n      0x20\n        /* \"#utility.yul\":3983:3989   */\n      dup5\n        /* \"#utility.yul\":3979:3996   */\n      mul\n        /* \"#utility.yul\":3971:3977   */\n      dup4\n        /* \"#utility.yul\":3967:3997   */\n      add\n        /* \"#utility.yul\":4020:4023   */\n      dup6\n        /* \"#utility.yul\":4012:4018   */\n      dup2\n        /* \"#utility.yul\":4009:4024   */\n      gt\n        /* \"#utility.yul\":4006:4128   */\n      iszero\n      tag_211\n      jumpi\n        /* \"#utility.yul\":4039:4118   */\n      tag_212\n      tag_119\n      jump\t// in\n    tag_212:\n        /* \"#utility.yul\":4006:4128   */\n    tag_211:\n        /* \"#utility.yul\":4154:4160   */\n      dup4\n        /* \"#utility.yul\":4137:4357   */\n    tag_213:\n        /* \"#utility.yul\":4171:4177   */\n      dup2\n        /* \"#utility.yul\":4166:4169   */\n      dup2\n        /* \"#utility.yul\":4163:4178   */\n      lt\n        /* \"#utility.yul\":4137:4357   */\n      iszero\n      tag_215\n      jumpi\n        /* \"#utility.yul\":4246:4249   */\n      dup1\n        /* \"#utility.yul\":4275:4312   */\n      tag_216\n        /* \"#utility.yul\":4308:4311   */\n      dup9\n        /* \"#utility.yul\":4296:4306   */\n      dup3\n        /* \"#utility.yul\":4275:4312   */\n      tag_122\n      jump\t// in\n    tag_216:\n        /* \"#utility.yul\":4270:4273   */\n      dup5\n        /* \"#utility.yul\":4263:4313   */\n      mstore\n        /* \"#utility.yul\":4342:4346   */\n      0x20\n        /* \"#utility.yul\":4337:4340   */\n      dup5\n        /* \"#utility.yul\":4333:4347   */\n      add\n        /* \"#utility.yul\":4326:4347   */\n      swap4\n      pop\n        /* \"#utility.yul\":4213:4357   */\n      pop\n        /* \"#utility.yul\":4197:4201   */\n      0x20\n        /* \"#utility.yul\":4192:4195   */\n      dup2\n        /* \"#utility.yul\":4188:4202   */\n      add\n        /* \"#utility.yul\":4181:4202   */\n      swap1\n      pop\n        /* \"#utility.yul\":4137:4357   */\n      jump(tag_213)\n    tag_215:\n        /* \"#utility.yul\":4141:4162   */\n      pop\n        /* \"#utility.yul\":3755:4363   */\n      pop\n      pop\n        /* \"#utility.yul\":3653:4363   */\n      swap4\n      swap3\n      pop\n      pop\n      pop\n      jump\t// out\n        /* \"#utility.yul\":4386:4756   */\n    tag_127:\n        /* \"#utility.yul\":4457:4462   */\n      0x00\n        /* \"#utility.yul\":4506:4509   */\n      dup3\n        /* \"#utility.yul\":4499:4503   */\n      0x1f\n        /* \"#utility.yul\":4491:4497   */\n      dup4\n        /* \"#utility.yul\":4487:4504   */\n      add\n        /* \"#utility.yul\":4483:4510   */\n      slt\n        /* \"#utility.yul\":4473:4595   */\n      tag_218\n      jumpi\n        /* \"#utility.yul\":4514:4593   */\n      tag_219\n      tag_113\n      jump\t// in\n    tag_219:\n        /* \"#utility.yul\":4473:4595   */\n    tag_218:\n        /* \"#utility.yul\":4631:4637   */\n      dup2\n        /* \"#utility.yul\":4618:4638   */\n      calldataload\n        /* \"#utility.yul\":4656:4750   */\n      tag_220\n        /* \"#utility.yul\":4746:4749   */\n      dup5\n        /* \"#utility.yul\":4738:4744   */\n      dup3\n        /* \"#utility.yul\":4731:4735   */\n      0x20\n        /* \"#utility.yul\":4723:4729   */\n      dup7\n        /* \"#utility.yul\":4719:4736   */\n      add\n        /* \"#utility.yul\":4656:4750   */\n      tag_126\n      jump\t// in\n    tag_220:\n        /* \"#utility.yul\":4647:4750   */\n      swap2\n      pop\n        /* \"#utility.yul\":4463:4756   */\n      pop\n        /* \"#utility.yul\":4386:4756   */\n      swap3\n      swap2\n      pop\n      pop\n      jump\t// out\n        /* \"#utility.yul\":4762:5446   */\n    tag_17:\n        /* \"#utility.yul\":4855:4861   */\n      0x00\n        /* \"#utility.yul\":4863:4869   */\n      dup1\n        /* \"#utility.yul\":4912:4914   */\n      0x40\n        /* \"#utility.yul\":4900:4909   */\n      dup4\n        /* \"#utility.yul\":4891:4898   */\n      dup6\n        /* \"#utility.yul\":4887:4910   */\n      sub\n        /* \"#utility.yul\":4883:4915   */\n      slt\n        /* \"#utility.yul\":4880:4999   */\n      iszero\n      tag_222\n      jumpi\n        /* \"#utility.yul\":4918:4997   */\n      tag_223\n      tag_111\n      jump\t// in\n    tag_223:\n        /* \"#utility.yul\":4880:4999   */\n    tag_222:\n        /* \"#utility.yul\":5038:5039   */\n      0x00\n        /* \"#utility.yul\":5063:5116   */\n      tag_224\n        /* \"#utility.yul\":5108:5115   */\n      dup6\n        /* \"#utility.yul\":5099:5105   */\n      dup3\n        /* \"#utility.yul\":5088:5097   */\n      dup7\n        /* \"#utility.yul\":5084:5106   */\n      add\n        /* \"#utility.yul\":5063:5116   */\n      tag_122\n      jump\t// in\n    tag_224:\n        /* \"#utility.yul\":5053:5116   */\n      swap3\n      pop\n        /* \"#utility.yul\":5009:5126   */\n      pop\n        /* \"#utility.yul\":5193:5195   */\n      0x20\n        /* \"#utility.yul\":5182:5191   */\n      dup4\n        /* \"#utility.yul\":5178:5196   */\n      add\n        /* \"#utility.yul\":5165:5197   */\n      calldataload\n        /* \"#utility.yul\":5224:5242   */\n      0xffffffffffffffff\n        /* \"#utility.yul\":5216:5222   */\n      dup2\n        /* \"#utility.yul\":5213:5243   */\n      gt\n        /* \"#utility.yul\":5210:5327   */\n      iszero\n      tag_225\n      jumpi\n        /* \"#utility.yul\":5246:5325   */\n      tag_226\n      tag_112\n      jump\t// in\n    tag_226:\n        /* \"#utility.yul\":5210:5327   */\n    tag_225:\n        /* \"#utility.yul\":5351:5429   */\n      tag_227\n        /* \"#utility.yul\":5421:5428   */\n      dup6\n        /* \"#utility.yul\":5412:5418   */\n      dup3\n        /* \"#utility.yul\":5401:5410   */\n      dup7\n        /* \"#utility.yul\":5397:5419   */\n      add\n        /* \"#utility.yul\":5351:5429   */\n      tag_127\n      jump\t// in\n    tag_227:\n        /* \"#utility.yul\":5341:5429   */\n      swap2\n      pop\n        /* \"#utility.yul\":5136:5439   */\n      pop\n        /* \"#utility.yul\":4762:5446   */\n      swap3\n      pop\n      swap3\n      swap1\n      pop\n      jump\t// out\n        /* \"#utility.yul\":5452:5781   */\n    tag_21:\n        /* \"#utility.yul\":5511:5517   */\n      0x00\n        /* \"#utility.yul\":5560:5562   */\n      0x20\n        /* \"#utility.yul\":5548:5557   */\n      dup3\n        /* \"#utility.yul\":5539:5546   */\n      dup5\n        /* \"#utility.yul\":5535:5558   */\n      sub\n        /* \"#utility.yul\":5531:5563   */\n      slt\n        /* \"#utility.yul\":5528:5647   */\n      iszero\n      tag_229\n      jumpi\n        /* \"#utility.yul\":5566:5645   */\n      tag_230\n      tag_111\n      jump\t// in\n    tag_230:\n        /* \"#utility.yul\":5528:5647   */\n    tag_229:\n        /* \"#utility.yul\":5686:5687   */\n      0x00\n        /* \"#utility.yul\":5711:5764   */\n      tag_231\n        /* \"#utility.yul\":5756:5763   */\n      dup5\n        /* \"#utility.yul\":5747:5753   */\n      dup3\n        /* \"#utility.yul\":5736:5745   */\n      dup6\n        /* \"#utility.yul\":5732:5754   */\n      add\n        /* \"#utility.yul\":5711:5764   */\n      tag_122\n      jump\t// in\n    tag_231:\n        /* \"#utility.yul\":5701:5764   */\n      swap2\n      pop\n        /* \"#utility.yul\":5657:5774   */\n      pop\n        /* \"#utility.yul\":5452:5781   */\n      swap3\n      swap2\n      pop\n      pop\n      jump\t// out\n        /* \"#utility.yul\":5787:6308   */\n    tag_25:\n        /* \"#utility.yul\":5878:5884   */\n      0x00\n        /* \"#utility.yul\":5886:5892   */\n      dup1\n        /* \"#utility.yul\":5935:5938   */\n      0xc0\n        /* \"#utility.yul\":5923:5932   */\n      dup4\n        /* \"#utility.yul\":5914:5921   */\n      dup6\n        /* \"#utility.yul\":5910:5933   */\n      sub\n        /* \"#utility.yul\":5906:5939   */\n      slt\n        /* \"#utility.yul\":5903:6023   */\n      iszero\n      tag_233\n      jumpi\n        /* \"#utility.yul\":5942:6021   */\n      tag_234\n      tag_111\n      jump\t// in\n    tag_234:\n        /* \"#utility.yul\":5903:6023   */\n    tag_233:\n        /* \"#utility.yul\":6062:6063   */\n      0x00\n        /* \"#utility.yul\":6087:6140   */\n      tag_235\n        /* \"#utility.yul\":6132:6139   */\n      dup6\n        /* \"#utility.yul\":6123:6129   */\n      dup3\n        /* \"#utility.yul\":6112:6121   */\n      dup7\n        /* \"#utility.yul\":6108:6130   */\n      add\n        /* \"#utility.yul\":6087:6140   */\n      tag_122\n      jump\t// in\n    tag_235:\n        /* \"#utility.yul\":6077:6140   */\n      swap3\n      pop\n        /* \"#utility.yul\":6033:6150   */\n      pop\n        /* \"#utility.yul\":6189:6191   */\n      0x20\n        /* \"#utility.yul\":6215:6291   */\n      tag_236\n        /* \"#utility.yul\":6283:6290   */\n      dup6\n        /* \"#utility.yul\":6274:6280   */\n      dup3\n        /* \"#utility.yul\":6263:6272   */\n      dup7\n        /* \"#utility.yul\":6259:6281   */\n      add\n        /* \"#utility.yul\":6215:6291   */\n      tag_124\n      jump\t// in\n    tag_236:\n        /* \"#utility.yul\":6205:6291   */\n      swap2\n      pop\n        /* \"#utility.yul\":6160:6301   */\n      pop\n        /* \"#utility.yul\":5787:6308   */\n      swap3\n      pop\n      swap3\n      swap1\n      pop\n      jump\t// out\n        /* \"#utility.yul\":6314:6853   */\n    tag_29:\n        /* \"#utility.yul\":6398:6404   */\n      0x00\n        /* \"#utility.yul\":6447:6449   */\n      0x20\n        /* \"#utility.yul\":6435:6444   */\n      dup3\n        /* \"#utility.yul\":6426:6433   */\n      dup5\n        /* \"#utility.yul\":6422:6445   */\n      sub\n        /* \"#utility.yul\":6418:6450   */\n      slt\n        /* \"#utility.yul\":6415:6534   */\n      iszero\n      tag_238\n      jumpi\n        /* \"#utility.yul\":6453:6532   */\n      tag_239\n      tag_111\n      jump\t// in\n    tag_239:\n        /* \"#utility.yul\":6415:6534   */\n    tag_238:\n        /* \"#utility.yul\":6601:6602   */\n      0x00\n        /* \"#utility.yul\":6590:6599   */\n      dup3\n        /* \"#utility.yul\":6586:6603   */\n      add\n        /* \"#utility.yul\":6573:6604   */\n      calldataload\n        /* \"#utility.yul\":6631:6649   */\n      0xffffffffffffffff\n        /* \"#utility.yul\":6623:6629   */\n      dup2\n        /* \"#utility.yul\":6620:6650   */\n      gt\n        /* \"#utility.yul\":6617:6734   */\n      iszero\n      tag_240\n      jumpi\n        /* \"#utility.yul\":6653:6732   */\n      tag_241\n      tag_112\n      jump\t// in\n    tag_241:\n        /* \"#utility.yul\":6617:6734   */\n    tag_240:\n        /* \"#utility.yul\":6758:6836   */\n      tag_242\n        /* \"#utility.yul\":6828:6835   */\n      dup5\n        /* \"#utility.yul\":6819:6825   */\n      dup3\n        /* \"#utility.yul\":6808:6817   */\n      dup6\n        /* \"#utility.yul\":6804:6826   */\n      add\n        /* \"#utility.yul\":6758:6836   */\n      tag_127\n      jump\t// in\n    tag_242:\n        /* \"#utility.yul\":6748:6836   */\n      swap2\n      pop\n        /* \"#utility.yul\":6544:6846   */\n      pop\n        /* \"#utility.yul\":6314:6853   */\n      swap3\n      swap2\n      pop\n      pop\n      jump\t// out\n        /* \"#utility.yul\":6859:6998   */\n    tag_128:\n        /* \"#utility.yul\":6951:6957   */\n      0x00\n        /* \"#utility.yul\":6985:6990   */\n      dup2\n        /* \"#utility.yul\":6979:6991   */\n      mload\n        /* \"#utility.yul\":6969:6991   */\n      swap1\n      pop\n        /* \"#utility.yul\":6859:6998   */\n      swap2\n      swap1\n      pop\n      jump\t// out\n        /* \"#utility.yul\":7004:7213   */\n    tag_129:\n        /* \"#utility.yul\":7128:7139   */\n      0x00\n        /* \"#utility.yul\":7162:7168   */\n      dup3\n        /* \"#utility.yul\":7157:7160   */\n      dup3\n        /* \"#utility.yul\":7150:7169   */\n      mstore\n        /* \"#utility.yul\":7202:7206   */\n      0x20\n        /* \"#utility.yul\":7197:7200   */\n      dup3\n        /* \"#utility.yul\":7193:7207   */\n      add\n        /* \"#utility.yul\":7178:7207   */\n      swap1\n      pop\n        /* \"#utility.yul\":7004:7213   */\n      swap3\n      swap2\n      pop\n      pop\n      jump\t// out\n        /* \"#utility.yul\":7219:7376   */\n    tag_130:\n        /* \"#utility.yul\":7311:7315   */\n      0x00\n        /* \"#utility.yul\":7334:7337   */\n      dup2\n        /* \"#utility.yul\":7326:7337   */\n      swap1\n      pop\n        /* \"#utility.yul\":7364:7368   */\n      0x20\n        /* \"#utility.yul\":7359:7362   */\n      dup3\n        /* \"#utility.yul\":7355:7369   */\n      add\n        /* \"#utility.yul\":7347:7369   */\n      swap1\n      pop\n        /* \"#utility.yul\":7219:7376   */\n      swap2\n      swap1\n      pop\n      jump\t// out\n        /* \"#utility.yul\":7382:7496   */\n    tag_131:\n        /* \"#utility.yul\":7449:7455   */\n      0x00\n        /* \"#utility.yul\":7483:7488   */\n      dup2\n        /* \"#utility.yul\":7477:7489   */\n      mload\n        /* \"#utility.yul\":7467:7489   */\n      swap1\n      pop\n        /* \"#utility.yul\":7382:7496   */\n      swap2\n      swap1\n      pop\n      jump\t// out\n        /* \"#utility.yul\":7502:7676   */\n    tag_132:\n        /* \"#utility.yul\":7591:7602   */\n      0x00\n        /* \"#utility.yul\":7625:7631   */\n      dup3\n        /* \"#utility.yul\":7620:7623   */\n      dup3\n        /* \"#utility.yul\":7613:7632   */\n      mstore\n        /* \"#utility.yul\":7665:7669   */\n      0x20\n        /* \"#utility.yul\":7660:7663   */\n      dup3\n        /* \"#utility.yul\":7656:7670   */\n      add\n        /* \"#utility.yul\":7641:7670   */\n      swap1\n      pop\n        /* \"#utility.yul\":7502:7676   */\n      swap3\n      swap2\n      pop\n      pop\n      jump\t// out\n        /* \"#utility.yul\":7682:7814   */\n    tag_133:\n        /* \"#utility.yul\":7749:7753   */\n      0x00\n        /* \"#utility.yul\":7772:7775   */\n      dup2\n        /* \"#utility.yul\":7764:7775   */\n      swap1\n      pop\n        /* \"#utility.yul\":7802:7806   */\n      0x20\n        /* \"#utility.yul\":7797:7800   */\n      dup3\n        /* \"#utility.yul\":7793:7807   */\n      add\n        /* \"#utility.yul\":7785:7807   */\n      swap1\n      pop\n        /* \"#utility.yul\":7682:7814   */\n      swap2\n      swap1\n      pop\n      jump\t// out\n        /* \"#utility.yul\":7820:7928   */\n    tag_134:\n        /* \"#utility.yul\":7897:7921   */\n      tag_250\n        /* \"#utility.yul\":7915:7920   */\n      dup2\n        /* \"#utility.yul\":7897:7921   */\n      tag_120\n      jump\t// in\n    tag_250:\n        /* \"#utility.yul\":7892:7895   */\n      dup3\n        /* \"#utility.yul\":7885:7922   */\n      mstore\n        /* \"#utility.yul\":7820:7928   */\n      pop\n      pop\n      jump\t// out\n        /* \"#utility.yul\":7934:8113   */\n    tag_135:\n        /* \"#utility.yul\":8003:8013   */\n      0x00\n        /* \"#utility.yul\":8024:8070   */\n      tag_252\n        /* \"#utility.yul\":8066:8069   */\n      dup4\n        /* \"#utility.yul\":8058:8064   */\n      dup4\n        /* \"#utility.yul\":8024:8070   */\n      tag_134\n      jump\t// in\n    tag_252:\n        /* \"#utility.yul\":8102:8106   */\n      0x20\n        /* \"#utility.yul\":8097:8100   */\n      dup4\n        /* \"#utility.yul\":8093:8107   */\n      add\n        /* \"#utility.yul\":8079:8107   */\n      swap1\n      pop\n        /* \"#utility.yul\":7934:8113   */\n      swap3\n      swap2\n      pop\n      pop\n      jump\t// out\n        /* \"#utility.yul\":8119:8232   */\n    tag_136:\n        /* \"#utility.yul\":8189:8193   */\n      0x00\n        /* \"#utility.yul\":8221:8225   */\n      0x20\n        /* \"#utility.yul\":8216:8219   */\n      dup3\n        /* \"#utility.yul\":8212:8226   */\n      add\n        /* \"#utility.yul\":8204:8226   */\n      swap1\n      pop\n        /* \"#utility.yul\":8119:8232   */\n      swap2\n      swap1\n      pop\n      jump\t// out\n        /* \"#utility.yul\":8268:8980   */\n    tag_137:\n        /* \"#utility.yul\":8377:8380   */\n      0x00\n        /* \"#utility.yul\":8406:8460   */\n      tag_255\n        /* \"#utility.yul\":8454:8459   */\n      dup3\n        /* \"#utility.yul\":8406:8460   */\n      tag_131\n      jump\t// in\n    tag_255:\n        /* \"#utility.yul\":8476:8552   */\n      tag_256\n        /* \"#utility.yul\":8545:8551   */\n      dup2\n        /* \"#utility.yul\":8540:8543   */\n      dup6\n        /* \"#utility.yul\":8476:8552   */\n      tag_132\n      jump\t// in\n    tag_256:\n        /* \"#utility.yul\":8469:8552   */\n      swap4\n      pop\n        /* \"#utility.yul\":8576:8632   */\n      tag_257\n        /* \"#utility.yul\":8626:8631   */\n      dup4\n        /* \"#utility.yul\":8576:8632   */\n      tag_133\n      jump\t// in\n    tag_257:\n        /* \"#utility.yul\":8655:8662   */\n      dup1\n        /* \"#utility.yul\":8686:8687   */\n      0x00\n        /* \"#utility.yul\":8671:8955   */\n    tag_258:\n        /* \"#utility.yul\":8696:8702   */\n      dup4\n        /* \"#utility.yul\":8693:8694   */\n      dup2\n        /* \"#utility.yul\":8690:8703   */\n      lt\n        /* \"#utility.yul\":8671:8955   */\n      iszero\n      tag_260\n      jumpi\n        /* \"#utility.yul\":8772:8778   */\n      dup2\n        /* \"#utility.yul\":8766:8779   */\n      mload\n        /* \"#utility.yul\":8799:8862   */\n      tag_261\n        /* \"#utility.yul\":8858:8861   */\n      dup9\n        /* \"#utility.yul\":8843:8856   */\n      dup3\n        /* \"#utility.yul\":8799:8862   */\n      tag_135\n      jump\t// in\n    tag_261:\n        /* \"#utility.yul\":8792:8862   */\n      swap8\n      pop\n        /* \"#utility.yul\":8885:8945   */\n      tag_262\n        /* \"#utility.yul\":8938:8944   */\n      dup4\n        /* \"#utility.yul\":8885:8945   */\n      tag_136\n      jump\t// in\n    tag_262:\n        /* \"#utility.yul\":8875:8945   */\n      swap3\n      pop\n        /* \"#utility.yul\":8731:8955   */\n      pop\n        /* \"#utility.yul\":8718:8719   */\n      0x01\n        /* \"#utility.yul\":8715:8716   */\n      dup2\n        /* \"#utility.yul\":8711:8720   */\n      add\n        /* \"#utility.yul\":8706:8720   */\n      swap1\n      pop\n        /* \"#utility.yul\":8671:8955   */\n      jump(tag_258)\n    tag_260:\n        /* \"#utility.yul\":8675:8689   */\n      pop\n        /* \"#utility.yul\":8971:8974   */\n      dup6\n        /* \"#utility.yul\":8964:8974   */\n      swap4\n      pop\n        /* \"#utility.yul\":8382:8980   */\n      pop\n      pop\n      pop\n        /* \"#utility.yul\":8268:8980   */\n      swap3\n      swap2\n      pop\n      pop\n      jump\t// out\n        /* \"#utility.yul\":8986:9242   */\n    tag_138:\n        /* \"#utility.yul\":9105:9115   */\n      0x00\n        /* \"#utility.yul\":9140:9236   */\n      tag_264\n        /* \"#utility.yul\":9232:9235   */\n      dup4\n        /* \"#utility.yul\":9224:9230   */\n      dup4\n        /* \"#utility.yul\":9140:9236   */\n      tag_137\n      jump\t// in\n    tag_264:\n        /* \"#utility.yul\":9126:9236   */\n      swap1\n      pop\n        /* \"#utility.yul\":8986:9242   */\n      swap3\n      swap2\n      pop\n      pop\n      jump\t// out\n        /* \"#utility.yul\":9248:9386   */\n    tag_139:\n        /* \"#utility.yul\":9343:9347   */\n      0x00\n        /* \"#utility.yul\":9375:9379   */\n      0x20\n        /* \"#utility.yul\":9370:9373   */\n      dup3\n        /* \"#utility.yul\":9366:9380   */\n      add\n        /* \"#utility.yul\":9358:9380   */\n      swap1\n      pop\n        /* \"#utility.yul\":9248:9386   */\n      swap2\n      swap1\n      pop\n      jump\t// out\n        /* \"#utility.yul\":9426:10537   */\n    tag_140:\n        /* \"#utility.yul\":9595:9598   */\n      0x00\n        /* \"#utility.yul\":9624:9703   */\n      tag_267\n        /* \"#utility.yul\":9697:9702   */\n      dup3\n        /* \"#utility.yul\":9624:9703   */\n      tag_128\n      jump\t// in\n    tag_267:\n        /* \"#utility.yul\":9719:9830   */\n      tag_268\n        /* \"#utility.yul\":9823:9829   */\n      dup2\n        /* \"#utility.yul\":9818:9821   */\n      dup6\n        /* \"#utility.yul\":9719:9830   */\n      tag_129\n      jump\t// in\n    tag_268:\n        /* \"#utility.yul\":9712:9830   */\n      swap4\n      pop\n        /* \"#utility.yul\":9856:9859   */\n      dup4\n        /* \"#utility.yul\":9901:9905   */\n      0x20\n        /* \"#utility.yul\":9893:9899   */\n      dup3\n        /* \"#utility.yul\":9889:9906   */\n      mul\n        /* \"#utility.yul\":9884:9887   */\n      dup6\n        /* \"#utility.yul\":9880:9907   */\n      add\n        /* \"#utility.yul\":9931:10012   */\n      tag_269\n        /* \"#utility.yul\":10006:10011   */\n      dup6\n        /* \"#utility.yul\":9931:10012   */\n      tag_130\n      jump\t// in\n    tag_269:\n        /* \"#utility.yul\":10035:10042   */\n      dup1\n        /* \"#utility.yul\":10066:10067   */\n      0x00\n        /* \"#utility.yul\":10051:10492   */\n    tag_270:\n        /* \"#utility.yul\":10076:10082   */\n      dup6\n        /* \"#utility.yul\":10073:10074   */\n      dup2\n        /* \"#utility.yul\":10070:10083   */\n      lt\n        /* \"#utility.yul\":10051:10492   */\n      iszero\n      tag_272\n      jumpi\n        /* \"#utility.yul\":10147:10156   */\n      dup5\n        /* \"#utility.yul\":10141:10145   */\n      dup5\n        /* \"#utility.yul\":10137:10157   */\n      sub\n        /* \"#utility.yul\":10132:10135   */\n      dup10\n        /* \"#utility.yul\":10125:10158   */\n      mstore\n        /* \"#utility.yul\":10198:10204   */\n      dup2\n        /* \"#utility.yul\":10192:10205   */\n      mload\n        /* \"#utility.yul\":10226:10340   */\n      tag_273\n        /* \"#utility.yul\":10335:10339   */\n      dup6\n        /* \"#utility.yul\":10320:10333   */\n      dup3\n        /* \"#utility.yul\":10226:10340   */\n      tag_138\n      jump\t// in\n    tag_273:\n        /* \"#utility.yul\":10218:10340   */\n      swap5\n      pop\n        /* \"#utility.yul\":10363:10448   */\n      tag_274\n        /* \"#utility.yul\":10441:10447   */\n      dup4\n        /* \"#utility.yul\":10363:10448   */\n      tag_139\n      jump\t// in\n    tag_274:\n        /* \"#utility.yul\":10353:10448   */\n      swap3\n      pop\n        /* \"#utility.yul\":10477:10481   */\n      0x20\n        /* \"#utility.yul\":10472:10475   */\n      dup11\n        /* \"#utility.yul\":10468:10482   */\n      add\n        /* \"#utility.yul\":10461:10482   */\n      swap10\n      pop\n        /* \"#utility.yul\":10111:10492   */\n      pop\n        /* \"#utility.yul\":10098:10099   */\n      0x01\n        /* \"#utility.yul\":10095:10096   */\n      dup2\n        /* \"#utility.yul\":10091:10100   */\n      add\n        /* \"#utility.yul\":10086:10100   */\n      swap1\n      pop\n        /* \"#utility.yul\":10051:10492   */\n      jump(tag_270)\n    tag_272:\n        /* \"#utility.yul\":10055:10069   */\n      pop\n        /* \"#utility.yul\":10508:10512   */\n      dup3\n        /* \"#utility.yul\":10501:10512   */\n      swap8\n      pop\n        /* \"#utility.yul\":10528:10531   */\n      dup8\n        /* \"#utility.yul\":10521:10531   */\n      swap6\n      pop\n        /* \"#utility.yul\":9600:10537   */\n      pop\n      pop\n      pop\n      pop\n      pop\n        /* \"#utility.yul\":9426:10537   */\n      swap3\n      swap2\n      pop\n      pop\n      jump\t// out\n        /* \"#utility.yul\":10543:10672   */\n    tag_141:\n        /* \"#utility.yul\":10633:10639   */\n      0x00\n        /* \"#utility.yul\":10661:10665   */\n      0x05\n        /* \"#utility.yul\":10651:10665   */\n      swap1\n      pop\n        /* \"#utility.yul\":10543:10672   */\n      swap2\n      swap1\n      pop\n      jump\t// out\n        /* \"#utility.yul\":10678:10846   */\n    tag_142:\n        /* \"#utility.yul\":10800:10811   */\n      0x00\n        /* \"#utility.yul\":10837:10840   */\n      dup2\n        /* \"#utility.yul\":10822:10840   */\n      swap1\n      pop\n        /* \"#utility.yul\":10678:10846   */\n      swap3\n      swap2\n      pop\n      pop\n      jump\t// out\n        /* \"#utility.yul\":10852:10975   */\n    tag_143:\n        /* \"#utility.yul\":10942:10946   */\n      0x00\n        /* \"#utility.yul\":10965:10968   */\n      dup2\n        /* \"#utility.yul\":10957:10968   */\n      swap1\n      pop\n        /* \"#utility.yul\":10852:10975   */\n      swap2\n      swap1\n      pop\n      jump\t// out\n        /* \"#utility.yul\":10981:11117   */\n    tag_144:\n        /* \"#utility.yul\":11074:11078   */\n      0x00\n        /* \"#utility.yul\":11106:11110   */\n      0x20\n        /* \"#utility.yul\":11101:11104   */\n      dup3\n        /* \"#utility.yul\":11097:11111   */\n      add\n        /* \"#utility.yul\":11089:11111   */\n      swap1\n      pop\n        /* \"#utility.yul\":10981:11117   */\n      swap2\n      swap1\n      pop\n      jump\t// out\n        /* \"#utility.yul\":11159:12258   */\n    tag_145:\n        /* \"#utility.yul\":11324:11327   */\n      0x00\n        /* \"#utility.yul\":11353:11430   */\n      tag_280\n        /* \"#utility.yul\":11424:11429   */\n      dup3\n        /* \"#utility.yul\":11353:11430   */\n      tag_141\n      jump\t// in\n    tag_280:\n        /* \"#utility.yul\":11446:11555   */\n      tag_281\n        /* \"#utility.yul\":11548:11554   */\n      dup2\n        /* \"#utility.yul\":11543:11546   */\n      dup6\n        /* \"#utility.yul\":11446:11555   */\n      tag_142\n      jump\t// in\n    tag_281:\n        /* \"#utility.yul\":11439:11555   */\n      swap4\n      pop\n        /* \"#utility.yul\":11581:11584   */\n      dup4\n        /* \"#utility.yul\":11626:11630   */\n      0x20\n        /* \"#utility.yul\":11618:11624   */\n      dup3\n        /* \"#utility.yul\":11614:11631   */\n      mul\n        /* \"#utility.yul\":11609:11612   */\n      dup6\n        /* \"#utility.yul\":11605:11632   */\n      add\n        /* \"#utility.yul\":11656:11735   */\n      tag_282\n        /* \"#utility.yul\":11729:11734   */\n      dup6\n        /* \"#utility.yul\":11656:11735   */\n      tag_143\n      jump\t// in\n    tag_282:\n        /* \"#utility.yul\":11758:11765   */\n      dup1\n        /* \"#utility.yul\":11789:11790   */\n      0x00\n        /* \"#utility.yul\":11774:12213   */\n    tag_283:\n        /* \"#utility.yul\":11799:11805   */\n      dup6\n        /* \"#utility.yul\":11796:11797   */\n      dup2\n        /* \"#utility.yul\":11793:11806   */\n      lt\n        /* \"#utility.yul\":11774:12213   */\n      iszero\n      tag_285\n      jumpi\n        /* \"#utility.yul\":11870:11879   */\n      dup5\n        /* \"#utility.yul\":11864:11868   */\n      dup5\n        /* \"#utility.yul\":11860:11880   */\n      sub\n        /* \"#utility.yul\":11855:11858   */\n      dup10\n        /* \"#utility.yul\":11848:11881   */\n      mstore\n        /* \"#utility.yul\":11921:11927   */\n      dup2\n        /* \"#utility.yul\":11915:11928   */\n      mload\n        /* \"#utility.yul\":11949:12063   */\n      tag_286\n        /* \"#utility.yul\":12058:12062   */\n      dup6\n        /* \"#utility.yul\":12043:12056   */\n      dup3\n        /* \"#utility.yul\":11949:12063   */\n      tag_138\n      jump\t// in\n    tag_286:\n        /* \"#utility.yul\":11941:12063   */\n      swap5\n      pop\n        /* \"#utility.yul\":12086:12169   */\n      tag_287\n        /* \"#utility.yul\":12162:12168   */\n      dup4\n        /* \"#utility.yul\":12086:12169   */\n      tag_144\n      jump\t// in\n    tag_287:\n        /* \"#utility.yul\":12076:12169   */\n      swap3\n      pop\n        /* \"#utility.yul\":12198:12202   */\n      0x20\n        /* \"#utility.yul\":12193:12196   */\n      dup11\n        /* \"#utility.yul\":12189:12203   */\n      add\n        /* \"#utility.yul\":12182:12203   */\n      swap10\n      pop\n        /* \"#utility.yul\":11834:12213   */\n      pop\n        /* \"#utility.yul\":11821:11822   */\n      0x01\n        /* \"#utility.yul\":11818:11819   */\n      dup2\n        /* \"#utility.yul\":11814:11823   */\n      add\n        /* \"#utility.yul\":11809:11823   */\n      swap1\n      pop\n        /* \"#utility.yul\":11774:12213   */\n      jump(tag_283)\n    tag_285:\n        /* \"#utility.yul\":11778:11792   */\n      pop\n        /* \"#utility.yul\":12229:12233   */\n      dup3\n        /* \"#utility.yul\":12222:12233   */\n      swap8\n      pop\n        /* \"#utility.yul\":12249:12252   */\n      dup8\n        /* \"#utility.yul\":12242:12252   */\n      swap6\n      pop\n        /* \"#utility.yul\":11329:12258   */\n      pop\n      pop\n      pop\n      pop\n      pop\n        /* \"#utility.yul\":11159:12258   */\n      swap3\n      swap2\n      pop\n      pop\n      jump\t// out\n        /* \"#utility.yul\":12264:12401   */\n    tag_146:\n        /* \"#utility.yul\":12354:12360   */\n      0x00\n        /* \"#utility.yul\":12388:12393   */\n      dup2\n        /* \"#utility.yul\":12382:12394   */\n      mload\n        /* \"#utility.yul\":12372:12394   */\n      swap1\n      pop\n        /* \"#utility.yul\":12264:12401   */\n      swap2\n      swap1\n      pop\n      jump\t// out\n        /* \"#utility.yul\":12407:12614   */\n    tag_147:\n        /* \"#utility.yul\":12529:12540   */\n      0x00\n        /* \"#utility.yul\":12563:12569   */\n      dup3\n        /* \"#utility.yul\":12558:12561   */\n      dup3\n        /* \"#utility.yul\":12551:12570   */\n      mstore\n        /* \"#utility.yul\":12603:12607   */\n      0x20\n        /* \"#utility.yul\":12598:12601   */\n      dup3\n        /* \"#utility.yul\":12594:12608   */\n      add\n        /* \"#utility.yul\":12579:12608   */\n      swap1\n      pop\n        /* \"#utility.yul\":12407:12614   */\n      swap3\n      swap2\n      pop\n      pop\n      jump\t// out\n        /* \"#utility.yul\":12620:12775   */\n    tag_148:\n        /* \"#utility.yul\":12710:12714   */\n      0x00\n        /* \"#utility.yul\":12733:12736   */\n      dup2\n        /* \"#utility.yul\":12725:12736   */\n      swap1\n      pop\n        /* \"#utility.yul\":12763:12767   */\n      0x20\n        /* \"#utility.yul\":12758:12761   */\n      dup3\n        /* \"#utility.yul\":12754:12768   */\n      add\n        /* \"#utility.yul\":12746:12768   */\n      swap1\n      pop\n        /* \"#utility.yul\":12620:12775   */\n      swap2\n      swap1\n      pop\n      jump\t// out\n        /* \"#utility.yul\":12781:12885   */\n    tag_149:\n        /* \"#utility.yul\":12846:12852   */\n      0x00\n        /* \"#utility.yul\":12874:12878   */\n      0x05\n        /* \"#utility.yul\":12864:12878   */\n      swap1\n      pop\n        /* \"#utility.yul\":12781:12885   */\n      swap2\n      swap1\n      pop\n      jump\t// out\n        /* \"#utility.yul\":12891:13024   */\n    tag_150:\n        /* \"#utility.yul\":12978:12989   */\n      0x00\n        /* \"#utility.yul\":13015:13018   */\n      dup2\n        /* \"#utility.yul\":13000:13018   */\n      swap1\n      pop\n        /* \"#utility.yul\":12891:13024   */\n      swap3\n      swap2\n      pop\n      pop\n      jump\t// out\n        /* \"#utility.yul\":13030:13128   */\n    tag_151:\n        /* \"#utility.yul\":13095:13099   */\n      0x00\n        /* \"#utility.yul\":13118:13121   */\n      dup2\n        /* \"#utility.yul\":13110:13121   */\n      swap1\n      pop\n        /* \"#utility.yul\":13030:13128   */\n      swap2\n      swap1\n      pop\n      jump\t// out\n        /* \"#utility.yul\":13134:13245   */\n    tag_152:\n        /* \"#utility.yul\":13202:13206   */\n      0x00\n        /* \"#utility.yul\":13234:13238   */\n      0x20\n        /* \"#utility.yul\":13229:13232   */\n      dup3\n        /* \"#utility.yul\":13225:13239   */\n      add\n        /* \"#utility.yul\":13217:13239   */\n      swap1\n      pop\n        /* \"#utility.yul\":13134:13245   */\n      swap2\n      swap1\n      pop\n      jump\t// out\n        /* \"#utility.yul\":13283:13957   */\n    tag_153:\n        /* \"#utility.yul\":13409:13461   */\n      tag_296\n        /* \"#utility.yul\":13455:13460   */\n      dup2\n        /* \"#utility.yul\":13409:13461   */\n      tag_149\n      jump\t// in\n    tag_296:\n        /* \"#utility.yul\":13477:13551   */\n      tag_297\n        /* \"#utility.yul\":13544:13550   */\n      dup2\n        /* \"#utility.yul\":13539:13542   */\n      dup5\n        /* \"#utility.yul\":13477:13551   */\n      tag_150\n      jump\t// in\n    tag_297:\n        /* \"#utility.yul\":13470:13551   */\n      swap3\n      pop\n        /* \"#utility.yul\":13575:13629   */\n      tag_298\n        /* \"#utility.yul\":13623:13628   */\n      dup3\n        /* \"#utility.yul\":13575:13629   */\n      tag_151\n      jump\t// in\n    tag_298:\n        /* \"#utility.yul\":13652:13659   */\n      dup1\n        /* \"#utility.yul\":13683:13684   */\n      0x00\n        /* \"#utility.yul\":13668:13950   */\n    tag_299:\n        /* \"#utility.yul\":13693:13699   */\n      dup4\n        /* \"#utility.yul\":13690:13691   */\n      dup2\n        /* \"#utility.yul\":13687:13700   */\n      lt\n        /* \"#utility.yul\":13668:13950   */\n      iszero\n      tag_301\n      jumpi\n        /* \"#utility.yul\":13769:13775   */\n      dup2\n        /* \"#utility.yul\":13763:13776   */\n      mload\n        /* \"#utility.yul\":13796:13859   */\n      tag_302\n        /* \"#utility.yul\":13855:13858   */\n      dup8\n        /* \"#utility.yul\":13840:13853   */\n      dup3\n        /* \"#utility.yul\":13796:13859   */\n      tag_135\n      jump\t// in\n    tag_302:\n        /* \"#utility.yul\":13789:13859   */\n      swap7\n      pop\n        /* \"#utility.yul\":13882:13940   */\n      tag_303\n        /* \"#utility.yul\":13933:13939   */\n      dup4\n        /* \"#utility.yul\":13882:13940   */\n      tag_152\n      jump\t// in\n    tag_303:\n        /* \"#utility.yul\":13872:13940   */\n      swap3\n      pop\n        /* \"#utility.yul\":13728:13950   */\n      pop\n        /* \"#utility.yul\":13715:13716   */\n      0x01\n        /* \"#utility.yul\":13712:13713   */\n      dup2\n        /* \"#utility.yul\":13708:13717   */\n      add\n        /* \"#utility.yul\":13703:13717   */\n      swap1\n      pop\n        /* \"#utility.yul\":13668:13950   */\n      jump(tag_299)\n    tag_301:\n        /* \"#utility.yul\":13672:13686   */\n      pop\n        /* \"#utility.yul\":13385:13957   */\n      pop\n      pop\n      pop\n        /* \"#utility.yul\":13283:13957   */\n      pop\n      pop\n      jump\t// out\n        /* \"#utility.yul\":13963:14234   */\n    tag_154:\n        /* \"#utility.yul\":14078:14088   */\n      0x00\n        /* \"#utility.yul\":14099:14191   */\n      tag_305\n        /* \"#utility.yul\":14187:14190   */\n      dup4\n        /* \"#utility.yul\":14179:14185   */\n      dup4\n        /* \"#utility.yul\":14099:14191   */\n      tag_153\n      jump\t// in\n    tag_305:\n        /* \"#utility.yul\":14223:14227   */\n      0xa0\n        /* \"#utility.yul\":14218:14221   */\n      dup4\n        /* \"#utility.yul\":14214:14228   */\n      add\n        /* \"#utility.yul\":14200:14228   */\n      swap1\n      pop\n        /* \"#utility.yul\":13963:14234   */\n      swap3\n      swap2\n      pop\n      pop\n      jump\t// out\n        /* \"#utility.yul\":14240:14376   */\n    tag_155:\n        /* \"#utility.yul\":14333:14337   */\n      0x00\n        /* \"#utility.yul\":14365:14369   */\n      0x20\n        /* \"#utility.yul\":14360:14363   */\n      dup3\n        /* \"#utility.yul\":14356:14370   */\n      add\n        /* \"#utility.yul\":14348:14370   */\n      swap1\n      pop\n        /* \"#utility.yul\":14240:14376   */\n      swap2\n      swap1\n      pop\n      jump\t// out\n        /* \"#utility.yul\":14418:15334   */\n    tag_156:\n        /* \"#utility.yul\":14583:14586   */\n      0x00\n        /* \"#utility.yul\":14612:14689   */\n      tag_308\n        /* \"#utility.yul\":14683:14688   */\n      dup3\n        /* \"#utility.yul\":14612:14689   */\n      tag_146\n      jump\t// in\n    tag_308:\n        /* \"#utility.yul\":14705:14814   */\n      tag_309\n        /* \"#utility.yul\":14807:14813   */\n      dup2\n        /* \"#utility.yul\":14802:14805   */\n      dup6\n        /* \"#utility.yul\":14705:14814   */\n      tag_147\n      jump\t// in\n    tag_309:\n        /* \"#utility.yul\":14698:14814   */\n      swap4\n      pop\n        /* \"#utility.yul\":14838:14917   */\n      tag_310\n        /* \"#utility.yul\":14911:14916   */\n      dup4\n        /* \"#utility.yul\":14838:14917   */\n      tag_148\n      jump\t// in\n    tag_310:\n        /* \"#utility.yul\":14940:14947   */\n      dup1\n        /* \"#utility.yul\":14971:14972   */\n      0x00\n        /* \"#utility.yul\":14956:15309   */\n    tag_311:\n        /* \"#utility.yul\":14981:14987   */\n      dup4\n        /* \"#utility.yul\":14978:14979   */\n      dup2\n        /* \"#utility.yul\":14975:14988   */\n      lt\n        /* \"#utility.yul\":14956:15309   */\n      iszero\n      tag_313\n      jumpi\n        /* \"#utility.yul\":15057:15063   */\n      dup2\n        /* \"#utility.yul\":15051:15064   */\n      mload\n        /* \"#utility.yul\":15084:15193   */\n      tag_314\n        /* \"#utility.yul\":15189:15192   */\n      dup9\n        /* \"#utility.yul\":15174:15187   */\n      dup3\n        /* \"#utility.yul\":15084:15193   */\n      tag_154\n      jump\t// in\n    tag_314:\n        /* \"#utility.yul\":15077:15193   */\n      swap8\n      pop\n        /* \"#utility.yul\":15216:15299   */\n      tag_315\n        /* \"#utility.yul\":15292:15298   */\n      dup4\n        /* \"#utility.yul\":15216:15299   */\n      tag_155\n      jump\t// in\n    tag_315:\n        /* \"#utility.yul\":15206:15299   */\n      swap3\n      pop\n        /* \"#utility.yul\":15016:15309   */\n      pop\n        /* \"#utility.yul\":15003:15004   */\n      0x01\n        /* \"#utility.yul\":15000:15001   */\n      dup2\n        /* \"#utility.yul\":14996:15005   */\n      add\n        /* \"#utility.yul\":14991:15005   */\n      swap1\n      pop\n        /* \"#utility.yul\":14956:15309   */\n      jump(tag_311)\n    tag_313:\n        /* \"#utility.yul\":14960:14974   */\n      pop\n        /* \"#utility.yul\":15325:15328   */\n      dup6\n        /* \"#utility.yul\":15318:15328   */\n      swap4\n      pop\n        /* \"#utility.yul\":14588:15334   */\n      pop\n      pop\n      pop\n        /* \"#utility.yul\":14418:15334   */\n      swap3\n      swap2\n      pop\n      pop\n      jump\t// out\n        /* \"#utility.yul\":15340:15467   */\n    tag_157:\n        /* \"#utility.yul\":15428:15434   */\n      0x00\n        /* \"#utility.yul\":15456:15460   */\n      0x05\n        /* \"#utility.yul\":15446:15460   */\n      swap1\n      pop\n        /* \"#utility.yul\":15340:15467   */\n      swap2\n      swap1\n      pop\n      jump\t// out\n        /* \"#utility.yul\":15473:15639   */\n    tag_158:\n        /* \"#utility.yul\":15593:15604   */\n      0x00\n        /* \"#utility.yul\":15630:15633   */\n      dup2\n        /* \"#utility.yul\":15615:15633   */\n      swap1\n      pop\n        /* \"#utility.yul\":15473:15639   */\n      swap3\n      swap2\n      pop\n      pop\n      jump\t// out\n        /* \"#utility.yul\":15645:15766   */\n    tag_159:\n        /* \"#utility.yul\":15733:15737   */\n      0x00\n        /* \"#utility.yul\":15756:15759   */\n      dup2\n        /* \"#utility.yul\":15748:15759   */\n      swap1\n      pop\n        /* \"#utility.yul\":15645:15766   */\n      swap2\n      swap1\n      pop\n      jump\t// out\n        /* \"#utility.yul\":15772:15906   */\n    tag_160:\n        /* \"#utility.yul\":15863:15867   */\n      0x00\n        /* \"#utility.yul\":15895:15899   */\n      0x20\n        /* \"#utility.yul\":15890:15893   */\n      dup3\n        /* \"#utility.yul\":15886:15900   */\n      add\n        /* \"#utility.yul\":15878:15900   */\n      swap1\n      pop\n        /* \"#utility.yul\":15772:15906   */\n      swap2\n      swap1\n      pop\n      jump\t// out\n        /* \"#utility.yul\":15950:16828   */\n    tag_161:\n        /* \"#utility.yul\":16132:16207   */\n      tag_321\n        /* \"#utility.yul\":16201:16206   */\n      dup2\n        /* \"#utility.yul\":16132:16207   */\n      tag_157\n      jump\t// in\n    tag_321:\n        /* \"#utility.yul\":16223:16330   */\n      tag_322\n        /* \"#utility.yul\":16323:16329   */\n      dup2\n        /* \"#utility.yul\":16318:16321   */\n      dup5\n        /* \"#utility.yul\":16223:16330   */\n      tag_158\n      jump\t// in\n    tag_322:\n        /* \"#utility.yul\":16216:16330   */\n      swap3\n      pop\n        /* \"#utility.yul\":16354:16431   */\n      tag_323\n        /* \"#utility.yul\":16425:16430   */\n      dup3\n        /* \"#utility.yul\":16354:16431   */\n      tag_159\n      jump\t// in\n    tag_323:\n        /* \"#utility.yul\":16454:16461   */\n      dup1\n        /* \"#utility.yul\":16485:16486   */\n      0x00\n        /* \"#utility.yul\":16470:16821   */\n    tag_324:\n        /* \"#utility.yul\":16495:16501   */\n      dup4\n        /* \"#utility.yul\":16492:16493   */\n      dup2\n        /* \"#utility.yul\":16489:16502   */\n      lt\n        /* \"#utility.yul\":16470:16821   */\n      iszero\n      tag_326\n      jumpi\n        /* \"#utility.yul\":16571:16577   */\n      dup2\n        /* \"#utility.yul\":16565:16578   */\n      mload\n        /* \"#utility.yul\":16598:16707   */\n      tag_327\n        /* \"#utility.yul\":16703:16706   */\n      dup8\n        /* \"#utility.yul\":16688:16701   */\n      dup3\n        /* \"#utility.yul\":16598:16707   */\n      tag_154\n      jump\t// in\n    tag_327:\n        /* \"#utility.yul\":16591:16707   */\n      swap7\n      pop\n        /* \"#utility.yul\":16730:16811   */\n      tag_328\n        /* \"#utility.yul\":16804:16810   */\n      dup4\n        /* \"#utility.yul\":16730:16811   */\n      tag_160\n      jump\t// in\n    tag_328:\n        /* \"#utility.yul\":16720:16811   */\n      swap3\n      pop\n        /* \"#utility.yul\":16530:16821   */\n      pop\n        /* \"#utility.yul\":16517:16518   */\n      0x01\n        /* \"#utility.yul\":16514:16515   */\n      dup2\n        /* \"#utility.yul\":16510:16519   */\n      add\n        /* \"#utility.yul\":16505:16519   */\n      swap1\n      pop\n        /* \"#utility.yul\":16470:16821   */\n      jump(tag_324)\n    tag_326:\n        /* \"#utility.yul\":16474:16488   */\n      pop\n        /* \"#utility.yul\":16108:16828   */\n      pop\n      pop\n      pop\n        /* \"#utility.yul\":15950:16828   */\n      pop\n      pop\n      jump\t// out\n        /* \"#utility.yul\":16834:18308   */\n    tag_34:\n        /* \"#utility.yul\":17395:17399   */\n      0x00\n        /* \"#utility.yul\":17433:17436   */\n      0x0380\n        /* \"#utility.yul\":17422:17431   */\n      dup3\n        /* \"#utility.yul\":17418:17437   */\n      add\n        /* \"#utility.yul\":17410:17437   */\n      swap1\n      pop\n        /* \"#utility.yul\":17483:17492   */\n      dup2\n        /* \"#utility.yul\":17477:17481   */\n      dup2\n        /* \"#utility.yul\":17473:17493   */\n      sub\n        /* \"#utility.yul\":17469:17470   */\n      0x00\n        /* \"#utility.yul\":17458:17467   */\n      dup4\n        /* \"#utility.yul\":17454:17471   */\n      add\n        /* \"#utility.yul\":17447:17494   */\n      mstore\n        /* \"#utility.yul\":17511:17669   */\n      tag_330\n        /* \"#utility.yul\":17664:17668   */\n      dup2\n        /* \"#utility.yul\":17655:17661   */\n      dup8\n        /* \"#utility.yul\":17511:17669   */\n      tag_140\n      jump\t// in\n    tag_330:\n        /* \"#utility.yul\":17503:17669   */\n      swap1\n      pop\n        /* \"#utility.yul\":17716:17725   */\n      dup2\n        /* \"#utility.yul\":17710:17714   */\n      dup2\n        /* \"#utility.yul\":17706:17726   */\n      sub\n        /* \"#utility.yul\":17701:17703   */\n      0x20\n        /* \"#utility.yul\":17690:17699   */\n      dup4\n        /* \"#utility.yul\":17686:17704   */\n      add\n        /* \"#utility.yul\":17679:17727   */\n      mstore\n        /* \"#utility.yul\":17744:17898   */\n      tag_331\n        /* \"#utility.yul\":17893:17897   */\n      dup2\n        /* \"#utility.yul\":17884:17890   */\n      dup7\n        /* \"#utility.yul\":17744:17898   */\n      tag_145\n      jump\t// in\n    tag_331:\n        /* \"#utility.yul\":17736:17898   */\n      swap1\n      pop\n        /* \"#utility.yul\":17945:17954   */\n      dup2\n        /* \"#utility.yul\":17939:17943   */\n      dup2\n        /* \"#utility.yul\":17935:17955   */\n      sub\n        /* \"#utility.yul\":17930:17932   */\n      0x40\n        /* \"#utility.yul\":17919:17928   */\n      dup4\n        /* \"#utility.yul\":17915:17933   */\n      add\n        /* \"#utility.yul\":17908:17956   */\n      mstore\n        /* \"#utility.yul\":17973:18127   */\n      tag_332\n        /* \"#utility.yul\":18122:18126   */\n      dup2\n        /* \"#utility.yul\":18113:18119   */\n      dup6\n        /* \"#utility.yul\":17973:18127   */\n      tag_156\n      jump\t// in\n    tag_332:\n        /* \"#utility.yul\":17965:18127   */\n      swap1\n      pop\n        /* \"#utility.yul\":18137:18301   */\n      tag_333\n        /* \"#utility.yul\":18297:18299   */\n      0x60\n        /* \"#utility.yul\":18286:18295   */\n      dup4\n        /* \"#utility.yul\":18282:18300   */\n      add\n        /* \"#utility.yul\":18273:18279   */\n      dup5\n        /* \"#utility.yul\":18137:18301   */\n      tag_161\n      jump\t// in\n    tag_333:\n        /* \"#utility.yul\":16834:18308   */\n      swap6\n      swap5\n      pop\n      pop\n      pop\n      pop\n      pop\n      jump\t// out\n        /* \"#utility.yul\":18314:18432   */\n    tag_162:\n        /* \"#utility.yul\":18401:18425   */\n      tag_335\n        /* \"#utility.yul\":18419:18424   */\n      dup2\n        /* \"#utility.yul\":18401:18425   */\n      tag_120\n      jump\t// in\n    tag_335:\n        /* \"#utility.yul\":18396:18399   */\n      dup3\n        /* \"#utility.yul\":18389:18426   */\n      mstore\n        /* \"#utility.yul\":18314:18432   */\n      pop\n      pop\n      jump\t// out\n        /* \"#utility.yul\":18438:18991   */\n    tag_38:\n        /* \"#utility.yul\":18615:18619   */\n      0x00\n        /* \"#utility.yul\":18653:18656   */\n      0x80\n        /* \"#utility.yul\":18642:18651   */\n      dup3\n        /* \"#utility.yul\":18638:18657   */\n      add\n        /* \"#utility.yul\":18630:18657   */\n      swap1\n      pop\n        /* \"#utility.yul\":18667:18738   */\n      tag_337\n        /* \"#utility.yul\":18735:18736   */\n      0x00\n        /* \"#utility.yul\":18724:18733   */\n      dup4\n        /* \"#utility.yul\":18720:18737   */\n      add\n        /* \"#utility.yul\":18711:18717   */\n      dup8\n        /* \"#utility.yul\":18667:18738   */\n      tag_162\n      jump\t// in\n    tag_337:\n        /* \"#utility.yul\":18748:18820   */\n      tag_338\n        /* \"#utility.yul\":18816:18818   */\n      0x20\n        /* \"#utility.yul\":18805:18814   */\n      dup4\n        /* \"#utility.yul\":18801:18819   */\n      add\n        /* \"#utility.yul\":18792:18798   */\n      dup7\n        /* \"#utility.yul\":18748:18820   */\n      tag_162\n      jump\t// in\n    tag_338:\n        /* \"#utility.yul\":18830:18902   */\n      tag_339\n        /* \"#utility.yul\":18898:18900   */\n      0x40\n        /* \"#utility.yul\":18887:18896   */\n      dup4\n        /* \"#utility.yul\":18883:18901   */\n      add\n        /* \"#utility.yul\":18874:18880   */\n      dup6\n        /* \"#utility.yul\":18830:18902   */\n      tag_162\n      jump\t// in\n    tag_339:\n        /* \"#utility.yul\":18912:18984   */\n      tag_340\n        /* \"#utility.yul\":18980:18982   */\n      0x60\n        /* \"#utility.yul\":18969:18978   */\n      dup4\n        /* \"#utility.yul\":18965:18983   */\n      add\n        /* \"#utility.yul\":18956:18962   */\n      dup5\n        /* \"#utility.yul\":18912:18984   */\n      tag_162\n      jump\t// in\n    tag_340:\n        /* \"#utility.yul\":18438:18991   */\n      swap6\n      swap5\n      pop\n      pop\n      pop\n      pop\n      pop\n      jump\t// out\n        /* \"#utility.yul\":18997:19177   */\n    tag_163:\n        /* \"#utility.yul\":19045:19122   */\n      0x4e487b7100000000000000000000000000000000000000000000000000000000\n        /* \"#utility.yul\":19042:19043   */\n      0x00\n        /* \"#utility.yul\":19035:19123   */\n      mstore\n        /* \"#utility.yul\":19142:19146   */\n      0x11\n        /* \"#utility.yul\":19139:19140   */\n      0x04\n        /* \"#utility.yul\":19132:19147   */\n      mstore\n        /* \"#utility.yul\":19166:19170   */\n      0x24\n        /* \"#utility.yul\":19163:19164   */\n      0x00\n        /* \"#utility.yul\":19156:19171   */\n      revert\n        /* \"#utility.yul\":19183:19377   */\n    tag_45:\n        /* \"#utility.yul\":19223:19227   */\n      0x00\n        /* \"#utility.yul\":19243:19263   */\n      tag_343\n        /* \"#utility.yul\":19261:19262   */\n      dup3\n        /* \"#utility.yul\":19243:19263   */\n      tag_120\n      jump\t// in\n    tag_343:\n        /* \"#utility.yul\":19238:19263   */\n      swap2\n      pop\n        /* \"#utility.yul\":19277:19297   */\n      tag_344\n        /* \"#utility.yul\":19295:19296   */\n      dup4\n        /* \"#utility.yul\":19277:19297   */\n      tag_120\n      jump\t// in\n    tag_344:\n        /* \"#utility.yul\":19272:19297   */\n      swap3\n      pop\n        /* \"#utility.yul\":19321:19322   */\n      dup3\n        /* \"#utility.yul\":19318:19319   */\n      dup3\n        /* \"#utility.yul\":19314:19323   */\n      sub\n        /* \"#utility.yul\":19306:19323   */\n      swap1\n      pop\n        /* \"#utility.yul\":19345:19346   */\n      dup2\n        /* \"#utility.yul\":19339:19343   */\n      dup2\n        /* \"#utility.yul\":19336:19347   */\n      gt\n        /* \"#utility.yul\":19333:19370   */\n      iszero\n      tag_345\n      jumpi\n        /* \"#utility.yul\":19350:19368   */\n      tag_346\n      tag_163\n      jump\t// in\n    tag_346:\n        /* \"#utility.yul\":19333:19370   */\n    tag_345:\n        /* \"#utility.yul\":19183:19377   */\n      swap3\n      swap2\n      pop\n      pop\n      jump\t// out\n        /* \"#utility.yul\":19383:19563   */\n    tag_48:\n        /* \"#utility.yul\":19431:19508   */\n      0x4e487b7100000000000000000000000000000000000000000000000000000000\n        /* \"#utility.yul\":19428:19429   */\n      0x00\n        /* \"#utility.yul\":19421:19509   */\n      mstore\n        /* \"#utility.yul\":19528:19532   */\n      0x32\n        /* \"#utility.yul\":19525:19526   */\n      0x04\n        /* \"#utility.yul\":19518:19533   */\n      mstore\n        /* \"#utility.yul\":19552:19556   */\n      0x24\n        /* \"#utility.yul\":19549:19550   */\n      0x00\n        /* \"#utility.yul\":19542:19557   */\n      revert\n\n    auxdata: 0xa26469706673582212201482342f232132284c444925f89595aa3f0e62cda285008b12ace200aed5abff64736f6c634300081a0033\n}\n",
				"bytecode": {
					"linkReferences": {},
					"object": "6080604052348015600e575f80fd5b50610edc8061001c5f395ff3fe608060405234801561000f575f80fd5b506004361061007b575f3560e01c80632d00b0d8116100595780632d00b0d8146100d35780632d7d7910146100ef57806389f915f61461010b578063be1c766b1461012c5761007b565b806323009fa81461007f57806329ed8c7b1461009b5780632bfe1805146100b7575b5f80fd5b610099600480360381019061009491906107c5565b61014d565b005b6100b560048036038101906100b091906108b0565b610188565b005b6100d160048036038101906100cc919061090a565b6101c2565b005b6100ed60048036038101906100e89190610935565b610207565b005b61010960048036038101906101049190610973565b61023f565b005b61011361027b565b6040516101239493929190610d6e565b60405180910390f35b6101346104ba565b6040516101449493929190610dd6565b60405180910390f35b600c81908060018154018082558091505060019003905f5260205f2090600502015f909190919091509060056101849291906104dc565b5050565b8060076001846101989190610e46565b600581106101a9576101a8610e79565b5b0190805190602001906101bd92919061051c565b505050565b6006604051806020016040528083815250908060018154018082558091505060019003905f5260205f20015f90919091909150906001610203929190610567565b5050565b80600d6001846102179190610e46565b6005811061022857610227610e79565b5b6005020190600561023a9291906104dc565b505050565b600681908060018154018082558091505060019003905f5260205f20015f90919091909150908051906020019061027792919061051c565b5050565b60606102856105b2565b606061028f6105d9565b60066007600c600d83805480602002602001604051908101604052809291908181526020015f905b82821015610325578382905f5260205f200180548060200260200160405190810160405280929190818152602001828054801561031157602002820191905f5260205f20905b8154815260200190600101908083116102fd575b5050505050815260200190600101906102b7565b50505050935082600580602002604051908101604052809291905f905b828210156103a95783820180548060200260200160405190810160405280929190818152602001828054801561039557602002820191905f5260205f20905b815481526020019060010190808311610381575b505050505081526020019060010190610342565b50505050925081805480602002602001604051908101604052809291908181526020015f905b82821015610430578382905f5260205f20906005020160058060200260405190810160405280929190826005801561041c576020028201915b815481526020019060010190808311610408575b5050505050815260200190600101906103cf565b50505050915080600580602002604051908101604052809291905f905b828210156104a657838260050201600580602002604051908101604052809291908260058015610492576020028201915b81548152602001906001019080831161047e575b50505050508152602001906001019061044d565b505050509050935093509350935090919293565b5f805f806006805490506005600c805490506005935093509350935090919293565b826005810192821561050b579160200282015b8281111561050a5782518255916020019190600101906104ef565b5b5090506105189190610606565b5090565b828054828255905f5260205f20908101928215610556579160200282015b8281111561055557825182559160200191906001019061053a565b5b5090506105639190610606565b5090565b828054828255905f5260205f209081019282156105a1579160200282015b828111156105a0578251825591602001919060010190610585565b5b5090506105ae9190610606565b5090565b6040518060a001604052806005905b60608152602001906001900390816105c15790505090565b6040518060a001604052806005905b6105f0610621565b8152602001906001900390816105e85790505090565b5b8082111561061d575f815f905550600101610607565b5090565b6040518060a00160405280600590602082028036833780820191505090505090565b5f604051905090565b5f80fd5b5f80fd5b5f80fd5b5f601f19601f8301169050919050565b7f4e487b71000000000000000000000000000000000000000000000000000000005f52604160045260245ffd5b61069e82610658565b810181811067ffffffffffffffff821117156106bd576106bc610668565b5b80604052505050565b5f6106cf610643565b90506106db8282610695565b919050565b5f67ffffffffffffffff8211156106fa576106f9610668565b5b602082029050919050565b5f80fd5b5f819050919050565b61071b81610709565b8114610725575f80fd5b50565b5f8135905061073681610712565b92915050565b5f61074e610749846106e0565b6106c6565b9050806020840283018581111561076857610767610705565b5b835b81811015610791578061077d8882610728565b84526020840193505060208101905061076a565b5050509392505050565b5f82601f8301126107af576107ae610654565b5b60056107bc84828561073c565b91505092915050565b5f60a082840312156107da576107d961064c565b5b5f6107e78482850161079b565b91505092915050565b5f67ffffffffffffffff82111561080a57610809610668565b5b602082029050602081019050919050565b5f61082d610828846107f0565b6106c6565b905080838252602082019050602084028301858111156108505761084f610705565b5b835b8181101561087957806108658882610728565b845260208401935050602081019050610852565b5050509392505050565b5f82601f83011261089757610896610654565b5b81356108a784826020860161081b565b91505092915050565b5f80604083850312156108c6576108c561064c565b5b5f6108d385828601610728565b925050602083013567ffffffffffffffff8111156108f4576108f3610650565b5b61090085828601610883565b9150509250929050565b5f6020828403121561091f5761091e61064c565b5b5f61092c84828501610728565b91505092915050565b5f8060c0838503121561094b5761094a61064c565b5b5f61095885828601610728565b92505060206109698582860161079b565b9150509250929050565b5f602082840312156109885761098761064c565b5b5f82013567ffffffffffffffff8111156109a5576109a4610650565b5b6109b184828501610883565b91505092915050565b5f81519050919050565b5f82825260208201905092915050565b5f819050602082019050919050565b5f81519050919050565b5f82825260208201905092915050565b5f819050602082019050919050565b610a1581610709565b82525050565b5f610a268383610a0c565b60208301905092915050565b5f602082019050919050565b5f610a48826109e3565b610a5281856109ed565b9350610a5d836109fd565b805f5b83811015610a8d578151610a748882610a1b565b9750610a7f83610a32565b925050600181019050610a60565b5085935050505092915050565b5f610aa58383610a3e565b905092915050565b5f602082019050919050565b5f610ac3826109ba565b610acd81856109c4565b935083602082028501610adf856109d4565b805f5b85811015610b1a5784840389528151610afb8582610a9a565b9450610b0683610aad565b925060208a01995050600181019050610ae2565b50829750879550505050505092915050565b5f60059050919050565b5f81905092915050565b5f819050919050565b5f602082019050919050565b5f610b5f82610b2c565b610b698185610b36565b935083602082028501610b7b85610b40565b805f5b85811015610bb65784840389528151610b978582610a9a565b9450610ba283610b49565b925060208a01995050600181019050610b7e565b50829750879550505050505092915050565b5f81519050919050565b5f82825260208201905092915050565b5f819050602082019050919050565b5f60059050919050565b5f81905092915050565b5f819050919050565b5f602082019050919050565b610c2381610bf1565b610c2d8184610bfb565b9250610c3882610c05565b805f5b83811015610c68578151610c4f8782610a1b565b9650610c5a83610c0e565b925050600181019050610c3b565b505050505050565b5f610c7b8383610c1a565b60a08301905092915050565b5f602082019050919050565b5f610c9d82610bc8565b610ca78185610bd2565b9350610cb283610be2565b805f5b83811015610ce2578151610cc98882610c70565b9750610cd483610c87565b925050600181019050610cb5565b5085935050505092915050565b5f60059050919050565b5f81905092915050565b5f819050919050565b5f602082019050919050565b610d2181610cef565b610d2b8184610cf9565b9250610d3682610d03565b805f5b83811015610d66578151610d4d8782610c70565b9650610d5883610d0c565b925050600181019050610d39565b505050505050565b5f610380820190508181035f830152610d878187610ab9565b90508181036020830152610d9b8186610b55565b90508181036040830152610daf8185610c93565b9050610dbe6060830184610d18565b95945050505050565b610dd081610709565b82525050565b5f608082019050610de95f830187610dc7565b610df66020830186610dc7565b610e036040830185610dc7565b610e106060830184610dc7565b95945050505050565b7f4e487b71000000000000000000000000000000000000000000000000000000005f52601160045260245ffd5b5f610e5082610709565b9150610e5b83610709565b9250828203905081811115610e7357610e72610e19565b5b92915050565b7f4e487b71000000000000000000000000000000000000000000000000000000005f52603260045260245ffdfea26469706673582212201482342f232132284c444925f89595aa3f0e62cda285008b12ace200aed5abff64736f6c634300081a0033",
					"opcodes": "PUSH1 0x80 PUSH1 0x40 MSTORE CALLVALUE DUP1 ISZERO PUSH1 0xE JUMPI PUSH0 DUP1 REVERT JUMPDEST POP PUSH2 0xEDC DUP1 PUSH2 0x1C PUSH0 CODECOPY PUSH0 RETURN INVALID PUSH1 0x80 PUSH1 0x40 MSTORE CALLVALUE DUP1 ISZERO PUSH2 0xF JUMPI PUSH0 DUP1 REVERT JUMPDEST POP PUSH1 0x4 CALLDATASIZE LT PUSH2 0x7B JUMPI PUSH0 CALLDATALOAD PUSH1 0xE0 SHR DUP1 PUSH4 0x2D00B0D8 GT PUSH2 0x59 JUMPI DUP1 PUSH4 0x2D00B0D8 EQ PUSH2 0xD3 JUMPI DUP1 PUSH4 0x2D7D7910 EQ PUSH2 0xEF JUMPI DUP1 PUSH4 0x89F915F6 EQ PUSH2 0x10B JUMPI DUP1 PUSH4 0xBE1C766B EQ PUSH2 0x12C JUMPI PUSH2 0x7B JUMP JUMPDEST DUP1 PUSH4 0x23009FA8 EQ PUSH2 0x7F JUMPI DUP1 PUSH4 0x29ED8C7B EQ PUSH2 0x9B JUMPI DUP1 PUSH4 0x2BFE1805 EQ PUSH2 0xB7 JUMPI JUMPDEST PUSH0 DUP1 REVERT JUMPDEST PUSH2 0x99 PUSH1 0x4 DUP1 CALLDATASIZE SUB DUP2 ADD SWAP1 PUSH2 0x94 SWAP2 SWAP1 PUSH2 0x7C5 JUMP JUMPDEST PUSH2 0x14D JUMP JUMPDEST STOP JUMPDEST PUSH2 0xB5 PUSH1 0x4 DUP1 CALLDATASIZE SUB DUP2 ADD SWAP1 PUSH2 0xB0 SWAP2 SWAP1 PUSH2 0x8B0 JUMP JUMPDEST PUSH2 0x188 JUMP JUMPDEST STOP JUMPDEST PUSH2 0xD1 PUSH1 0x4 DUP1 CALLDATASIZE SUB DUP2 ADD SWAP1 PUSH2 0xCC SWAP2 SWAP1 PUSH2 0x90A JUMP JUMPDEST PUSH2 0x1C2 JUMP JUMPDEST STOP JUMPDEST PUSH2 0xED PUSH1 0x4 DUP1 CALLDATASIZE SUB DUP2 ADD SWAP1 PUSH2 0xE8 SWAP2 SWAP1 PUSH2 0x935 JUMP JUMPDEST PUSH2 0x207 JUMP JUMPDEST STOP JUMPDEST PUSH2 0x109 PUSH1 0x4 DUP1 CALLDATASIZE SUB DUP2 ADD SWAP1 PUSH2 0x104 SWAP2 SWAP1 PUSH2 0x973 JUMP JUMPDEST PUSH2 0x23F JUMP JUMPDEST STOP JUMPDEST PUSH2 0x113 PUSH2 0x27B JUMP JUMPDEST PUSH1 0x40 MLOAD PUSH2 0x123 SWAP5 SWAP4 SWAP3 SWAP2 SWAP1 PUSH2 0xD6E JUMP JUMPDEST PUSH1 0x40 MLOAD DUP1 SWAP2 SUB SWAP1 RETURN JUMPDEST PUSH2 0x134 PUSH2 0x4BA JUMP JUMPDEST PUSH1 0x40 MLOAD PUSH2 0x144 SWAP5 SWAP4 SWAP3 SWAP2 SWAP1 PUSH2 0xDD6 JUMP JUMPDEST PUSH1 0x40 MLOAD DUP1 SWAP2 SUB SWAP1 RETURN JUMPDEST PUSH1 0xC DUP2 SWAP1 DUP1 PUSH1 0x1 DUP2 SLOAD ADD DUP1 DUP3 SSTORE DUP1 SWAP2 POP POP PUSH1 0x1 SWAP1 SUB SWAP1 PUSH0 MSTORE PUSH1 0x20 PUSH0 KECCAK256 SWAP1 PUSH1 0x5 MUL ADD PUSH0 SWAP1 SWAP2 SWAP1 SWAP2 SWAP1 SWAP2 POP SWAP1 PUSH1 0x5 PUSH2 0x184 SWAP3 SWAP2 SWAP1 PUSH2 0x4DC JUMP JUMPDEST POP POP JUMP JUMPDEST DUP1 PUSH1 0x7 PUSH1 0x1 DUP5 PUSH2 0x198 SWAP2 SWAP1 PUSH2 0xE46 JUMP JUMPDEST PUSH1 0x5 DUP2 LT PUSH2 0x1A9 JUMPI PUSH2 0x1A8 PUSH2 0xE79 JUMP JUMPDEST JUMPDEST ADD SWAP1 DUP1 MLOAD SWAP1 PUSH1 0x20 ADD SWAP1 PUSH2 0x1BD SWAP3 SWAP2 SWAP1 PUSH2 0x51C JUMP JUMPDEST POP POP POP JUMP JUMPDEST PUSH1 0x6 PUSH1 0x40 MLOAD DUP1 PUSH1 0x20 ADD PUSH1 0x40 MSTORE DUP1 DUP4 DUP2 MSTORE POP SWAP1 DUP1 PUSH1 0x1 DUP2 SLOAD ADD DUP1 DUP3 SSTORE DUP1 SWAP2 POP POP PUSH1 0x1 SWAP1 SUB SWAP1 PUSH0 MSTORE PUSH1 0x20 PUSH0 KECCAK256 ADD PUSH0 SWAP1 SWAP2 SWAP1 SWAP2 SWAP1 SWAP2 POP SWAP1 PUSH1 0x1 PUSH2 0x203 SWAP3 SWAP2 SWAP1 PUSH2 0x567 JUMP JUMPDEST POP POP JUMP JUMPDEST DUP1 PUSH1 0xD PUSH1 0x1 DUP5 PUSH2 0x217 SWAP2 SWAP1 PUSH2 0xE46 JUMP JUMPDEST PUSH1 0x5 DUP2 LT PUSH2 0x228 JUMPI PUSH2 0x227 PUSH2 0xE79 JUMP JUMPDEST JUMPDEST PUSH1 0x5 MUL ADD SWAP1 PUSH1 0x5 PUSH2 0x23A SWAP3 SWAP2 SWAP1 PUSH2 0x4DC JUMP JUMPDEST POP POP POP JUMP JUMPDEST PUSH1 0x6 DUP2 SWAP1 DUP1 PUSH1 0x1 DUP2 SLOAD ADD DUP1 DUP3 SSTORE DUP1 SWAP2 POP POP PUSH1 0x1 SWAP1 SUB SWAP1 PUSH0 MSTORE PUSH1 0x20 PUSH0 KECCAK256 ADD PUSH0 SWAP1 SWAP2 SWAP1 SWAP2 SWAP1 SWAP2 POP SWAP1 DUP1 MLOAD SWAP1 PUSH1 0x20 ADD SWAP1 PUSH2 0x277 SWAP3 SWAP2 SWAP1 PUSH2 0x51C JUMP JUMPDEST POP POP JUMP JUMPDEST PUSH1 0x60 PUSH2 0x285 PUSH2 0x5B2 JUMP JUMPDEST PUSH1 0x60 PUSH2 0x28F PUSH2 0x5D9 JUMP JUMPDEST PUSH1 0x6 PUSH1 0x7 PUSH1 0xC PUSH1 0xD DUP4 DUP1 SLOAD DUP1 PUSH1 0x20 MUL PUSH1 0x20 ADD PUSH1 0x40 MLOAD SWAP1 DUP2 ADD PUSH1 0x40 MSTORE DUP1 SWAP3 SWAP2 SWAP1 DUP2 DUP2 MSTORE PUSH1 0x20 ADD PUSH0 SWAP1 JUMPDEST DUP3 DUP3 LT ISZERO PUSH2 0x325 JUMPI DUP4 DUP3 SWAP1 PUSH0 MSTORE PUSH1 0x20 PUSH0 KECCAK256 ADD DUP1 SLOAD DUP1 PUSH1 0x20 MUL PUSH1 0x20 ADD PUSH1 0x40 MLOAD SWAP1 DUP2 ADD PUSH1 0x40 MSTORE DUP1 SWAP3 SWAP2 SWAP1 DUP2 DUP2 MSTORE PUSH1 0x20 ADD DUP3 DUP1 SLOAD DUP1 ISZERO PUSH2 0x311 JUMPI PUSH1 0x20 MUL DUP3 ADD SWAP2 SWAP1 PUSH0 MSTORE PUSH1 0x20 PUSH0 KECCAK256 SWAP1 JUMPDEST DUP2 SLOAD DUP2 MSTORE PUSH1 0x20 ADD SWAP1 PUSH1 0x1 ADD SWAP1 DUP1 DUP4 GT PUSH2 0x2FD JUMPI JUMPDEST POP POP POP POP POP DUP2 MSTORE PUSH1 0x20 ADD SWAP1 PUSH1 0x1 ADD SWAP1 PUSH2 0x2B7 JUMP JUMPDEST POP POP POP POP SWAP4 POP DUP3 PUSH1 0x5 DUP1 PUSH1 0x20 MUL PUSH1 0x40 MLOAD SWAP1 DUP2 ADD PUSH1 0x40 MSTORE DUP1 SWAP3 SWAP2 SWAP1 PUSH0 SWAP1 JUMPDEST DUP3 DUP3 LT ISZERO PUSH2 0x3A9 JUMPI DUP4 DUP3 ADD DUP1 SLOAD DUP1 PUSH1 0x20 MUL PUSH1 0x20 ADD PUSH1 0x40 MLOAD SWAP1 DUP2 ADD PUSH1 0x40 MSTORE DUP1 SWAP3 SWAP2 SWAP1 DUP2 DUP2 MSTORE PUSH1 0x20 ADD DUP3 DUP1 SLOAD DUP1 ISZERO PUSH2 0x395 JUMPI PUSH1 0x20 MUL DUP3 ADD SWAP2 SWAP1 PUSH0 MSTORE PUSH1 0x20 PUSH0 KECCAK256 SWAP1 JUMPDEST DUP2 SLOAD DUP2 MSTORE PUSH1 0x20 ADD SWAP1 PUSH1 0x1 ADD SWAP1 DUP1 DUP4 GT PUSH2 0x381 JUMPI JUMPDEST POP POP POP POP POP DUP2 MSTORE PUSH1 0x20 ADD SWAP1 PUSH1 0x1 ADD SWAP1 PUSH2 0x342 JUMP JUMPDEST POP POP POP POP SWAP3 POP DUP2 DUP1 SLOAD DUP1 PUSH1 0x20 MUL PUSH1 0x20 ADD PUSH1 0x40 MLOAD SWAP1 DUP2 ADD PUSH1 0x40 MSTORE DUP1 SWAP3 SWAP2 SWAP1 DUP2 DUP2 MSTORE PUSH1 0x20 ADD PUSH0 SWAP1 JUMPDEST DUP3 DUP3 LT ISZERO PUSH2 0x430 JUMPI DUP4 DUP3 SWAP1 PUSH0 MSTORE PUSH1 0x20 PUSH0 KECCAK256 SWAP1 PUSH1 0x5 MUL ADD PUSH1 0x5 DUP1 PUSH1 0x20 MUL PUSH1 0x40 MLOAD SWAP1 DUP2 ADD PUSH1 0x40 MSTORE DUP1 SWAP3 SWAP2 SWAP1 DUP3 PUSH1 0x5 DUP1 ISZERO PUSH2 0x41C JUMPI PUSH1 0x20 MUL DUP3 ADD SWAP2 JUMPDEST DUP2 SLOAD DUP2 MSTORE PUSH1 0x20 ADD SWAP1 PUSH1 0x1 ADD SWAP1 DUP1 DUP4 GT PUSH2 0x408 JUMPI JUMPDEST POP POP POP POP POP DUP2 MSTORE PUSH1 0x20 ADD SWAP1 PUSH1 0x1 ADD SWAP1 PUSH2 0x3CF JUMP JUMPDEST POP POP POP POP SWAP2 POP DUP1 PUSH1 0x5 DUP1 PUSH1 0x20 MUL PUSH1 0x40 MLOAD SWAP1 DUP2 ADD PUSH1 0x40 MSTORE DUP1 SWAP3 SWAP2 SWAP1 PUSH0 SWAP1 JUMPDEST DUP3 DUP3 LT ISZERO PUSH2 0x4A6 JUMPI DUP4 DUP3 PUSH1 0x5 MUL ADD PUSH1 0x5 DUP1 PUSH1 0x20 MUL PUSH1 0x40 MLOAD SWAP1 DUP2 ADD PUSH1 0x40 MSTORE DUP1 SWAP3 SWAP2 SWAP1 DUP3 PUSH1 0x5 DUP1 ISZERO PUSH2 0x492 JUMPI PUSH1 0x20 MUL DUP3 ADD SWAP2 JUMPDEST DUP2 SLOAD DUP2 MSTORE PUSH1 0x20 ADD SWAP1 PUSH1 0x1 ADD SWAP1 DUP1 DUP4 GT PUSH2 0x47E JUMPI JUMPDEST POP POP POP POP POP DUP2 MSTORE PUSH1 0x20 ADD SWAP1 PUSH1 0x1 ADD SWAP1 PUSH2 0x44D JUMP JUMPDEST POP POP POP POP SWAP1 POP SWAP4 POP SWAP4 POP SWAP4 POP SWAP4 POP SWAP1 SWAP2 SWAP3 SWAP4 JUMP JUMPDEST PUSH0 DUP1 PUSH0 DUP1 PUSH1 0x6 DUP1 SLOAD SWAP1 POP PUSH1 0x5 PUSH1 0xC DUP1 SLOAD SWAP1 POP PUSH1 0x5 SWAP4 POP SWAP4 POP SWAP4 POP SWAP4 POP SWAP1 SWAP2 SWAP3 SWAP4 JUMP JUMPDEST DUP3 PUSH1 0x5 DUP2 ADD SWAP3 DUP3 ISZERO PUSH2 0x50B JUMPI SWAP2 PUSH1 0x20 MUL DUP3 ADD JUMPDEST DUP3 DUP2 GT ISZERO PUSH2 0x50A JUMPI DUP3 MLOAD DUP3 SSTORE SWAP2 PUSH1 0x20 ADD SWAP2 SWAP1 PUSH1 0x1 ADD SWAP1 PUSH2 0x4EF JUMP JUMPDEST JUMPDEST POP SWAP1 POP PUSH2 0x518 SWAP2 SWAP1 PUSH2 0x606 JUMP JUMPDEST POP SWAP1 JUMP JUMPDEST DUP3 DUP1 SLOAD DUP3 DUP3 SSTORE SWAP1 PUSH0 MSTORE PUSH1 0x20 PUSH0 KECCAK256 SWAP1 DUP2 ADD SWAP3 DUP3 ISZERO PUSH2 0x556 JUMPI SWAP2 PUSH1 0x20 MUL DUP3 ADD JUMPDEST DUP3 DUP2 GT ISZERO PUSH2 0x555 JUMPI DUP3 MLOAD DUP3 SSTORE SWAP2 PUSH1 0x20 ADD SWAP2 SWAP1 PUSH1 0x1 ADD SWAP1 PUSH2 0x53A JUMP JUMPDEST JUMPDEST POP SWAP1 POP PUSH2 0x563 SWAP2 SWAP1 PUSH2 0x606 JUMP JUMPDEST POP SWAP1 JUMP JUMPDEST DUP3 DUP1 SLOAD DUP3 DUP3 SSTORE SWAP1 PUSH0 MSTORE PUSH1 0x20 PUSH0 KECCAK256 SWAP1 DUP2 ADD SWAP3 DUP3 ISZERO PUSH2 0x5A1 JUMPI SWAP2 PUSH1 0x20 MUL DUP3 ADD JUMPDEST DUP3 DUP2 GT ISZERO PUSH2 0x5A0 JUMPI DUP3 MLOAD DUP3 SSTORE SWAP2 PUSH1 0x20 ADD SWAP2 SWAP1 PUSH1 0x1 ADD SWAP1 PUSH2 0x585 JUMP JUMPDEST JUMPDEST POP SWAP1 POP PUSH2 0x5AE SWAP2 SWAP1 PUSH2 0x606 JUMP JUMPDEST POP SWAP1 JUMP JUMPDEST PUSH1 0x40 MLOAD DUP1 PUSH1 0xA0 ADD PUSH1 0x40 MSTORE DUP1 PUSH1 0x5 SWAP1 JUMPDEST PUSH1 0x60 DUP2 MSTORE PUSH1 0x20 ADD SWAP1 PUSH1 0x1 SWAP1 SUB SWAP1 DUP2 PUSH2 0x5C1 JUMPI SWAP1 POP POP SWAP1 JUMP JUMPDEST PUSH1 0x40 MLOAD DUP1 PUSH1 0xA0 ADD PUSH1 0x40 MSTORE DUP1 PUSH1 0x5 SWAP1 JUMPDEST PUSH2 0x5F0 PUSH2 0x621 JUMP JUMPDEST DUP2 MSTORE PUSH1 0x20 ADD SWAP1 PUSH1 0x1 SWAP1 SUB SWAP1 DUP2 PUSH2 0x5E8 JUMPI SWAP1 POP POP SWAP1 JUMP JUMPDEST JUMPDEST DUP1 DUP3 GT ISZERO PUSH2 0x61D JUMPI PUSH0 DUP2 PUSH0 SWAP1 SSTORE POP PUSH1 0x1 ADD PUSH2 0x607 JUMP JUMPDEST POP SWAP1 JUMP JUMPDEST PUSH1 0x40 MLOAD DUP1 PUSH1 0xA0 ADD PUSH1 0x40 MSTORE DUP1 PUSH1 0x5 SWAP1 PUSH1 0x20 DUP3 MUL DUP1 CALLDATASIZE DUP4 CALLDATACOPY DUP1 DUP3 ADD SWAP2 POP POP SWAP1 POP POP SWAP1 JUMP JUMPDEST PUSH0 PUSH1 0x40 MLOAD SWAP1 POP SWAP1 JUMP JUMPDEST PUSH0 DUP1 REVERT JUMPDEST PUSH0 DUP1 REVERT JUMPDEST PUSH0 DUP1 REVERT JUMPDEST PUSH0 PUSH1 0x1F NOT PUSH1 0x1F DUP4 ADD AND SWAP1 POP SWAP2 SWAP1 POP JUMP JUMPDEST PUSH32 0x4E487B7100000000000000000000000000000000000000000000000000000000 PUSH0 MSTORE PUSH1 0x41 PUSH1 0x4 MSTORE PUSH1 0x24 PUSH0 REVERT JUMPDEST PUSH2 0x69E DUP3 PUSH2 0x658 JUMP JUMPDEST DUP2 ADD DUP2 DUP2 LT PUSH8 0xFFFFFFFFFFFFFFFF DUP3 GT OR ISZERO PUSH2 0x6BD JUMPI PUSH2 0x6BC PUSH2 0x668 JUMP JUMPDEST JUMPDEST DUP1 PUSH1 0x40 MSTORE POP POP POP JUMP JUMPDEST PUSH0 PUSH2 0x6CF PUSH2 0x643 JUMP JUMPDEST SWAP1 POP PUSH2 0x6DB DUP3 DUP3 PUSH2 0x695 JUMP JUMPDEST SWAP2 SWAP1 POP JUMP JUMPDEST PUSH0 PUSH8 0xFFFFFFFFFFFFFFFF DUP3 GT ISZERO PUSH2 0x6FA JUMPI PUSH2 0x6F9 PUSH2 0x668 JUMP JUMPDEST JUMPDEST PUSH1 0x20 DUP3 MUL SWAP1 POP SWAP2 SWAP1 POP JUMP JUMPDEST PUSH0 DUP1 REVERT JUMPDEST PUSH0 DUP2 SWAP1 POP SWAP2 SWAP1 POP JUMP JUMPDEST PUSH2 0x71B DUP2 PUSH2 0x709 JUMP JUMPDEST DUP2 EQ PUSH2 0x725 JUMPI PUSH0 DUP1 REVERT JUMPDEST POP JUMP JUMPDEST PUSH0 DUP2 CALLDATALOAD SWAP1 POP PUSH2 0x736 DUP2 PUSH2 0x712 JUMP JUMPDEST SWAP3 SWAP2 POP POP JUMP JUMPDEST PUSH0 PUSH2 0x74E PUSH2 0x749 DUP5 PUSH2 0x6E0 JUMP JUMPDEST PUSH2 0x6C6 JUMP JUMPDEST SWAP1 POP DUP1 PUSH1 0x20 DUP5 MUL DUP4 ADD DUP6 DUP2 GT ISZERO PUSH2 0x768 JUMPI PUSH2 0x767 PUSH2 0x705 JUMP JUMPDEST JUMPDEST DUP4 JUMPDEST DUP2 DUP2 LT ISZERO PUSH2 0x791 JUMPI DUP1 PUSH2 0x77D DUP9 DUP3 PUSH2 0x728 JUMP JUMPDEST DUP5 MSTORE PUSH1 0x20 DUP5 ADD SWAP4 POP POP PUSH1 0x20 DUP2 ADD SWAP1 POP PUSH2 0x76A JUMP JUMPDEST POP POP POP SWAP4 SWAP3 POP POP POP JUMP JUMPDEST PUSH0 DUP3 PUSH1 0x1F DUP4 ADD SLT PUSH2 0x7AF JUMPI PUSH2 0x7AE PUSH2 0x654 JUMP JUMPDEST JUMPDEST PUSH1 0x5 PUSH2 0x7BC DUP5 DUP3 DUP6 PUSH2 0x73C JUMP JUMPDEST SWAP2 POP POP SWAP3 SWAP2 POP POP JUMP JUMPDEST PUSH0 PUSH1 0xA0 DUP3 DUP5 SUB SLT ISZERO PUSH2 0x7DA JUMPI PUSH2 0x7D9 PUSH2 0x64C JUMP JUMPDEST JUMPDEST PUSH0 PUSH2 0x7E7 DUP5 DUP3 DUP6 ADD PUSH2 0x79B JUMP JUMPDEST SWAP2 POP POP SWAP3 SWAP2 POP POP JUMP JUMPDEST PUSH0 PUSH8 0xFFFFFFFFFFFFFFFF DUP3 GT ISZERO PUSH2 0x80A JUMPI PUSH2 0x809 PUSH2 0x668 JUMP JUMPDEST JUMPDEST PUSH1 0x20 DUP3 MUL SWAP1 POP PUSH1 0x20 DUP2 ADD SWAP1 POP SWAP2 SWAP1 POP JUMP JUMPDEST PUSH0 PUSH2 0x82D PUSH2 0x828 DUP5 PUSH2 0x7F0 JUMP JUMPDEST PUSH2 0x6C6 JUMP JUMPDEST SWAP1 POP DUP1 DUP4 DUP3 MSTORE PUSH1 0x20 DUP3 ADD SWAP1 POP PUSH1 0x20 DUP5 MUL DUP4 ADD DUP6 DUP2 GT ISZERO PUSH2 0x850 JUMPI PUSH2 0x84F PUSH2 0x705 JUMP JUMPDEST JUMPDEST DUP4 JUMPDEST DUP2 DUP2 LT ISZERO PUSH2 0x879 JUMPI DUP1 PUSH2 0x865 DUP9 DUP3 PUSH2 0x728 JUMP JUMPDEST DUP5 MSTORE PUSH1 0x20 DUP5 ADD SWAP4 POP POP PUSH1 0x20 DUP2 ADD SWAP1 POP PUSH2 0x852 JUMP JUMPDEST POP POP POP SWAP4 SWAP3 POP POP POP JUMP JUMPDEST PUSH0 DUP3 PUSH1 0x1F DUP4 ADD SLT PUSH2 0x897 JUMPI PUSH2 0x896 PUSH2 0x654 JUMP JUMPDEST JUMPDEST DUP2 CALLDATALOAD PUSH2 0x8A7 DUP5 DUP3 PUSH1 0x20 DUP7 ADD PUSH2 0x81B JUMP JUMPDEST SWAP2 POP POP SWAP3 SWAP2 POP POP JUMP JUMPDEST PUSH0 DUP1 PUSH1 0x40 DUP4 DUP6 SUB SLT ISZERO PUSH2 0x8C6 JUMPI PUSH2 0x8C5 PUSH2 0x64C JUMP JUMPDEST JUMPDEST PUSH0 PUSH2 0x8D3 DUP6 DUP3 DUP7 ADD PUSH2 0x728 JUMP JUMPDEST SWAP3 POP POP PUSH1 0x20 DUP4 ADD CALLDATALOAD PUSH8 0xFFFFFFFFFFFFFFFF DUP2 GT ISZERO PUSH2 0x8F4 JUMPI PUSH2 0x8F3 PUSH2 0x650 JUMP JUMPDEST JUMPDEST PUSH2 0x900 DUP6 DUP3 DUP7 ADD PUSH2 0x883 JUMP JUMPDEST SWAP2 POP POP SWAP3 POP SWAP3 SWAP1 POP JUMP JUMPDEST PUSH0 PUSH1 0x20 DUP3 DUP5 SUB SLT ISZERO PUSH2 0x91F JUMPI PUSH2 0x91E PUSH2 0x64C JUMP JUMPDEST JUMPDEST PUSH0 PUSH2 0x92C DUP5 DUP3 DUP6 ADD PUSH2 0x728 JUMP JUMPDEST SWAP2 POP POP SWAP3 SWAP2 POP POP JUMP JUMPDEST PUSH0 DUP1 PUSH1 0xC0 DUP4 DUP6 SUB SLT ISZERO PUSH2 0x94B JUMPI PUSH2 0x94A PUSH2 0x64C JUMP JUMPDEST JUMPDEST PUSH0 PUSH2 0x958 DUP6 DUP3 DUP7 ADD PUSH2 0x728 JUMP JUMPDEST SWAP3 POP POP PUSH1 0x20 PUSH2 0x969 DUP6 DUP3 DUP7 ADD PUSH2 0x79B JUMP JUMPDEST SWAP2 POP POP SWAP3 POP SWAP3 SWAP1 POP JUMP JUMPDEST PUSH0 PUSH1 0x20 DUP3 DUP5 SUB SLT ISZERO PUSH2 0x988 JUMPI PUSH2 0x987 PUSH2 0x64C JUMP JUMPDEST JUMPDEST PUSH0 DUP3 ADD CALLDATALOAD PUSH8 0xFFFFFFFFFFFFFFFF DUP2 GT ISZERO PUSH2 0x9A5 JUMPI PUSH2 0x9A4 PUSH2 0x650 JUMP JUMPDEST JUMPDEST PUSH2 0x9B1 DUP5 DUP3 DUP6 ADD PUSH2 0x883 JUMP JUMPDEST SWAP2 POP POP SWAP3 SWAP2 POP POP JUMP JUMPDEST PUSH0 DUP2 MLOAD SWAP1 POP SWAP2 SWAP1 POP JUMP JUMPDEST PUSH0 DUP3 DUP3 MSTORE PUSH1 0x20 DUP3 ADD SWAP1 POP SWAP3 SWAP2 POP POP JUMP JUMPDEST PUSH0 DUP2 SWAP1 POP PUSH1 0x20 DUP3 ADD SWAP1 POP SWAP2 SWAP1 POP JUMP JUMPDEST PUSH0 DUP2 MLOAD SWAP1 POP SWAP2 SWAP1 POP JUMP JUMPDEST PUSH0 DUP3 DUP3 MSTORE PUSH1 0x20 DUP3 ADD SWAP1 POP SWAP3 SWAP2 POP POP JUMP JUMPDEST PUSH0 DUP2 SWAP1 POP PUSH1 0x20 DUP3 ADD SWAP1 POP SWAP2 SWAP1 POP JUMP JUMPDEST PUSH2 0xA15 DUP2 PUSH2 0x709 JUMP JUMPDEST DUP3 MSTORE POP POP JUMP JUMPDEST PUSH0 PUSH2 0xA26 DUP4 DUP4 PUSH2 0xA0C JUMP JUMPDEST PUSH1 0x20 DUP4 ADD SWAP1 POP SWAP3 SWAP2 POP POP JUMP JUMPDEST PUSH0 PUSH1 0x20 DUP3 ADD SWAP1 POP SWAP2 SWAP1 POP JUMP JUMPDEST PUSH0 PUSH2 0xA48 DUP3 PUSH2 0x9E3 JUMP JUMPDEST PUSH2 0xA52 DUP2 DUP6 PUSH2 0x9ED JUMP JUMPDEST SWAP4 POP PUSH2 0xA5D DUP4 PUSH2 0x9FD JUMP JUMPDEST DUP1 PUSH0 JUMPDEST DUP4 DUP2 LT ISZERO PUSH2 0xA8D JUMPI DUP2 MLOAD PUSH2 0xA74 DUP9 DUP3 PUSH2 0xA1B JUMP JUMPDEST SWAP8 POP PUSH2 0xA7F DUP4 PUSH2 0xA32 JUMP JUMPDEST SWAP3 POP POP PUSH1 0x1 DUP2 ADD SWAP1 POP PUSH2 0xA60 JUMP JUMPDEST POP DUP6 SWAP4 POP POP POP POP SWAP3 SWAP2 POP POP JUMP JUMPDEST PUSH0 PUSH2 0xAA5 DUP4 DUP4 PUSH2 0xA3E JUMP JUMPDEST SWAP1 POP SWAP3 SWAP2 POP POP JUMP JUMPDEST PUSH0 PUSH1 0x20 DUP3 ADD SWAP1 POP SWAP2 SWAP1 POP JUMP JUMPDEST PUSH0 PUSH2 0xAC3 DUP3 PUSH2 0x9BA JUMP JUMPDEST PUSH2 0xACD DUP2 DUP6 PUSH2 0x9C4 JUMP JUMPDEST SWAP4 POP DUP4 PUSH1 0x20 DUP3 MUL DUP6 ADD PUSH2 0xADF DUP6 PUSH2 0x9D4 JUMP JUMPDEST DUP1 PUSH0 JUMPDEST DUP6 DUP2 LT ISZERO PUSH2 0xB1A JUMPI DUP5 DUP5 SUB DUP10 MSTORE DUP2 MLOAD PUSH2 0xAFB DUP6 DUP3 PUSH2 0xA9A JUMP JUMPDEST SWAP5 POP PUSH2 0xB06 DUP4 PUSH2 0xAAD JUMP JUMPDEST SWAP3 POP PUSH1 0x20 DUP11 ADD SWAP10 POP POP PUSH1 0x1 DUP2 ADD SWAP1 POP PUSH2 0xAE2 JUMP JUMPDEST POP DUP3 SWAP8 POP DUP8 SWAP6 POP POP POP POP POP POP SWAP3 SWAP2 POP POP JUMP JUMPDEST PUSH0 PUSH1 0x5 SWAP1 POP SWAP2 SWAP1 POP JUMP JUMPDEST PUSH0 DUP2 SWAP1 POP SWAP3 SWAP2 POP POP JUMP JUMPDEST PUSH0 DUP2 SWAP1 POP SWAP2 SWAP1 POP JUMP JUMPDEST PUSH0 PUSH1 0x20 DUP3 ADD SWAP1 POP SWAP2 SWAP1 POP JUMP JUMPDEST PUSH0 PUSH2 0xB5F DUP3 PUSH2 0xB2C JUMP JUMPDEST PUSH2 0xB69 DUP2 DUP6 PUSH2 0xB36 JUMP JUMPDEST SWAP4 POP DUP4 PUSH1 0x20 DUP3 MUL DUP6 ADD PUSH2 0xB7B DUP6 PUSH2 0xB40 JUMP JUMPDEST DUP1 PUSH0 JUMPDEST DUP6 DUP2 LT ISZERO PUSH2 0xBB6 JUMPI DUP5 DUP5 SUB DUP10 MSTORE DUP2 MLOAD PUSH2 0xB97 DUP6 DUP3 PUSH2 0xA9A JUMP JUMPDEST SWAP5 POP PUSH2 0xBA2 DUP4 PUSH2 0xB49 JUMP JUMPDEST SWAP3 POP PUSH1 0x20 DUP11 ADD SWAP10 POP POP PUSH1 0x1 DUP2 ADD SWAP1 POP PUSH2 0xB7E JUMP JUMPDEST POP DUP3 SWAP8 POP DUP8 SWAP6 POP POP POP POP POP POP SWAP3 SWAP2 POP POP JUMP JUMPDEST PUSH0 DUP2 MLOAD SWAP1 POP SWAP2 SWAP1 POP JUMP JUMPDEST PUSH0 DUP3 DUP3 MSTORE PUSH1 0x20 DUP3 ADD SWAP1 POP SWAP3 SWAP2 POP POP JUMP JUMPDEST PUSH0 DUP2 SWAP1 POP PUSH1 0x20 DUP3 ADD SWAP1 POP SWAP2 SWAP1 POP JUMP JUMPDEST PUSH0 PUSH1 0x5 SWAP1 POP SWAP2 SWAP1 POP JUMP JUMPDEST PUSH0 DUP2 SWAP1 POP SWAP3 SWAP2 POP POP JUMP JUMPDEST PUSH0 DUP2 SWAP1 POP SWAP2 SWAP1 POP JUMP JUMPDEST PUSH0 PUSH1 0x20 DUP3 ADD SWAP1 POP SWAP2 SWAP1 POP JUMP JUMPDEST PUSH2 0xC23 DUP2 PUSH2 0xBF1 JUMP JUMPDEST PUSH2 0xC2D DUP2 DUP5 PUSH2 0xBFB JUMP JUMPDEST SWAP3 POP PUSH2 0xC38 DUP3 PUSH2 0xC05 JUMP JUMPDEST DUP1 PUSH0 JUMPDEST DUP4 DUP2 LT ISZERO PUSH2 0xC68 JUMPI DUP2 MLOAD PUSH2 0xC4F DUP8 DUP3 PUSH2 0xA1B JUMP JUMPDEST SWAP7 POP PUSH2 0xC5A DUP4 PUSH2 0xC0E JUMP JUMPDEST SWAP3 POP POP PUSH1 0x1 DUP2 ADD SWAP1 POP PUSH2 0xC3B JUMP JUMPDEST POP POP POP POP POP POP JUMP JUMPDEST PUSH0 PUSH2 0xC7B DUP4 DUP4 PUSH2 0xC1A JUMP JUMPDEST PUSH1 0xA0 DUP4 ADD SWAP1 POP SWAP3 SWAP2 POP POP JUMP JUMPDEST PUSH0 PUSH1 0x20 DUP3 ADD SWAP1 POP SWAP2 SWAP1 POP JUMP JUMPDEST PUSH0 PUSH2 0xC9D DUP3 PUSH2 0xBC8 JUMP JUMPDEST PUSH2 0xCA7 DUP2 DUP6 PUSH2 0xBD2 JUMP JUMPDEST SWAP4 POP PUSH2 0xCB2 DUP4 PUSH2 0xBE2 JUMP JUMPDEST DUP1 PUSH0 JUMPDEST DUP4 DUP2 LT ISZERO PUSH2 0xCE2 JUMPI DUP2 MLOAD PUSH2 0xCC9 DUP9 DUP3 PUSH2 0xC70 JUMP JUMPDEST SWAP8 POP PUSH2 0xCD4 DUP4 PUSH2 0xC87 JUMP JUMPDEST SWAP3 POP POP PUSH1 0x1 DUP2 ADD SWAP1 POP PUSH2 0xCB5 JUMP JUMPDEST POP DUP6 SWAP4 POP POP POP POP SWAP3 SWAP2 POP POP JUMP JUMPDEST PUSH0 PUSH1 0x5 SWAP1 POP SWAP2 SWAP1 POP JUMP JUMPDEST PUSH0 DUP2 SWAP1 POP SWAP3 SWAP2 POP POP JUMP JUMPDEST PUSH0 DUP2 SWAP1 POP SWAP2 SWAP1 POP JUMP JUMPDEST PUSH0 PUSH1 0x20 DUP3 ADD SWAP1 POP SWAP2 SWAP1 POP JUMP JUMPDEST PUSH2 0xD21 DUP2 PUSH2 0xCEF JUMP JUMPDEST PUSH2 0xD2B DUP2 DUP5 PUSH2 0xCF9 JUMP JUMPDEST SWAP3 POP PUSH2 0xD36 DUP3 PUSH2 0xD03 JUMP JUMPDEST DUP1 PUSH0 JUMPDEST DUP4 DUP2 LT ISZERO PUSH2 0xD66 JUMPI DUP2 MLOAD PUSH2 0xD4D DUP8 DUP3 PUSH2 0xC70 JUMP JUMPDEST SWAP7 POP PUSH2 0xD58 DUP4 PUSH2 0xD0C JUMP JUMPDEST SWAP3 POP POP PUSH1 0x1 DUP2 ADD SWAP1 POP PUSH2 0xD39 JUMP JUMPDEST POP POP POP POP POP POP JUMP JUMPDEST PUSH0 PUSH2 0x380 DUP3 ADD SWAP1 POP DUP2 DUP2 SUB PUSH0 DUP4 ADD MSTORE PUSH2 0xD87 DUP2 DUP8 PUSH2 0xAB9 JUMP JUMPDEST SWAP1 POP DUP2 DUP2 SUB PUSH1 0x20 DUP4 ADD MSTORE PUSH2 0xD9B DUP2 DUP7 PUSH2 0xB55 JUMP JUMPDEST SWAP1 POP DUP2 DUP2 SUB PUSH1 0x40 DUP4 ADD MSTORE PUSH2 0xDAF DUP2 DUP6 PUSH2 0xC93 JUMP JUMPDEST SWAP1 POP PUSH2 0xDBE PUSH1 0x60 DUP4 ADD DUP5 PUSH2 0xD18 JUMP JUMPDEST SWAP6 SWAP5 POP POP POP POP POP JUMP JUMPDEST PUSH2 0xDD0 DUP2 PUSH2 0x709 JUMP JUMPDEST DUP3 MSTORE POP POP JUMP JUMPDEST PUSH0 PUSH1 0x80 DUP3 ADD SWAP1 POP PUSH2 0xDE9 PUSH0 DUP4 ADD DUP8 PUSH2 0xDC7 JUMP JUMPDEST PUSH2 0xDF6 PUSH1 0x20 DUP4 ADD DUP7 PUSH2 0xDC7 JUMP JUMPDEST PUSH2 0xE03 PUSH1 0x40 DUP4 ADD DUP6 PUSH2 0xDC7 JUMP JUMPDEST PUSH2 0xE10 PUSH1 0x60 DUP4 ADD DUP5 PUSH2 0xDC7 JUMP JUMPDEST SWAP6 SWAP5 POP POP POP POP POP JUMP JUMPDEST PUSH32 0x4E487B7100000000000000000000000000000000000000000000000000000000 PUSH0 MSTORE PUSH1 0x11 PUSH1 0x4 MSTORE PUSH1 0x24 PUSH0 REVERT JUMPDEST PUSH0 PUSH2 0xE50 DUP3 PUSH2 0x709 JUMP JUMPDEST SWAP2 POP PUSH2 0xE5B DUP4 PUSH2 0x709 JUMP JUMPDEST SWAP3 POP DUP3 DUP3 SUB SWAP1 POP DUP2 DUP2 GT ISZERO PUSH2 0xE73 JUMPI PUSH2 0xE72 PUSH2 0xE19 JUMP JUMPDEST JUMPDEST SWAP3 SWAP2 POP POP JUMP JUMPDEST PUSH32 0x4E487B7100000000000000000000000000000000000000000000000000000000 PUSH0 MSTORE PUSH1 0x32 PUSH1 0x4 MSTORE PUSH1 0x24 PUSH0 REVERT INVALID LOG2 PUSH5 0x6970667358 0x22 SLT KECCAK256 EQ DUP3 CALLVALUE 0x2F 0x23 0x21 ORIGIN 0x28 0x4C PREVRANDAO BLOBHASH 0x25 0xF8 SWAP6 SWAP6 0xAA EXTCODEHASH 0xE PUSH3 0xCDA285 STOP DUP12 SLT 0xAC 0xE2 STOP 0xAE 0xD5 0xAB SELFDESTRUCT PUSH5 0x736F6C6343 STOP ADDMOD BYTE STOP CALLER "
				},
				"gasEstimates": {
					"creation": {
						"codeDepositCost": "760800",
						"executionCost": "790",
						"totalCost": "761590"
					},
					"external": {
						"getLength()": "infinite",
						"getNumbers()": "infinite",
						"pushNumber(uint256)": "infinite",
						"pushNumber1(uint256[])": "infinite",
						"pushNumber2(uint256,uint256[])": "infinite",
						"pushNumber3(uint256[5])": "infinite",
						"pushNumber4(uint256,uint256[5])": "infinite"
					}
				},
				"methodIdentifiers": {
					"getLength()": "be1c766b",
					"getNumbers()": "89f915f6",
					"pushNumber(uint256)": "2bfe1805",
					"pushNumber1(uint256[])": "2d7d7910",
					"pushNumber2(uint256,uint256[])": "29ed8c7b",
					"pushNumber3(uint256[5])": "23009fa8",
					"pushNumber4(uint256,uint256[5])": "2d00b0d8"
				}
			},
			"storageLayout": {
				"storage": [
					{
						"astId": 4,
						"contract": "contracts/array_mul_1.sol:MUlTI_DIM",
						"label": "numbers",
						"offset": 0,
						"slot": "0",
						"type": "t_array(t_uint256)dyn_storage"
					},
					{
						"astId": 8,
						"contract": "contracts/array_mul_1.sol:MUlTI_DIM",
						"label": "numbers2",
						"offset": 0,
						"slot": "1",
						"type": "t_array(t_uint256)5_storage"
					},
					{
						"astId": 12,
						"contract": "contracts/array_mul_1.sol:MUlTI_DIM",
						"label": "numbers_1",
						"offset": 0,
						"slot": "6",
						"type": "t_array(t_array(t_uint256)dyn_storage)dyn_storage"
					},
					{
						"astId": 17,
						"contract": "contracts/array_mul_1.sol:MUlTI_DIM",
						"label": "numbers_2",
						"offset": 0,
						"slot": "7",
						"type": "t_array(t_array(t_uint256)dyn_storage)5_storage"
					},
					{
						"astId": 22,
						"contract": "contracts/array_mul_1.sol:MUlTI_DIM",
						"label": "numbers_3",
						"offset": 0,
						"slot": "12",
						"type": "t_array(t_array(t_uint256)5_storage)dyn_storage"
					},
					{
						"astId": 28,
						"contract": "contracts/array_mul_1.sol:MUlTI_DIM",
						"label": "numbers_4",
						"offset": 0,
						"slot": "13",
						"type": "t_array(t_array(t_uint256)5_storage)5_storage"
					}
				],
				"types": {
					"t_array(t_array(t_uint256)5_storage)5_storage": {
						"base": "t_array(t_uint256)5_storage",
						"encoding": "inplace",
						"label": "uint256[5][5]",
						"numberOfBytes": "800"
					},
					"t_array(t_array(t_uint256)5_storage)dyn_storage": {
						"base": "t_array(t_uint256)5_storage",
						"encoding": "dynamic_array",
						"label": "uint256[5][]",
						"numberOfBytes": "32"
					},
					"t_array(t_array(t_uint256)dyn_storage)5_storage": {
						"base": "t_array(t_uint256)dyn_storage",
						"encoding": "inplace",
						"label": "uint256[][5]",
						"numberOfBytes": "160"
					},
					"t_array(t_array(t_uint256)dyn_storage)dyn_storage": {
						"base": "t_array(t_uint256)dyn_storage",
						"encoding": "dynamic_array",
						"label": "uint256[][]",
						"numberOfBytes": "32"
					},
					"t_array(t_uint256)5_storage": {
						"base": "t_uint256",
						"encoding": "inplace",
						"label": "uint256[5]",
						"numberOfBytes": "160"
					},
					"t_array(t_uint256)dyn_storage": {
						"base": "t_uint256",
						"encoding": "dynamic_array",
						"label": "uint256[]",
						"numberOfBytes": "32"
					},
					"t_uint256": {
						"encoding": "inplace",
						"label": "uint256",
						"numberOfBytes": "32"
					}
				}
			},
			"userdoc": {
				"kind": "user",
				"methods": {},
				"version": 1
			}
		}
	}
}