{
	"contracts/basic5.sol": {
		"BASIC5": {
			"abi": [
				{
					"inputs": [],
					"name": "Fun",
					"outputs": [],
					"stateMutability": "nonpayable",
					"type": "function"
				},
				{
					"inputs": [],
					"name": "notFun",
					"outputs": [],
					"stateMutability": "nonpayable",
					"type": "function"
				}
			],
			"devdoc": {
				"kind": "dev",
				"methods": {},
				"version": 1
			},
			"evm": {
				"assembly": "    /* \"contracts/basic5.sol\":70:239  contract BASIC5 {... */\n  mstore(0x40, 0x80)\n  callvalue\n  dup1\n  iszero\n  tag_1\n  jumpi\n  0x00\n  dup1\n  revert\ntag_1:\n  pop\n  dataSize(sub_0)\n  dup1\n  dataOffset(sub_0)\n  0x00\n  codecopy\n  0x00\n  return\nstop\n\nsub_0: assembly {\n        /* \"contracts/basic5.sol\":70:239  contract BASIC5 {... */\n      mstore(0x40, 0x80)\n      callvalue\n      dup1\n      iszero\n      tag_1\n      jumpi\n      0x00\n      dup1\n      revert\n    tag_1:\n      pop\n      jumpi(tag_2, lt(calldatasize, 0x04))\n      shr(0xe0, calldataload(0x00))\n      dup1\n      0x2e9d4a9f\n      eq\n      tag_3\n      jumpi\n      dup1\n      0xfc2d603f\n      eq\n      tag_4\n      jumpi\n    tag_2:\n      0x00\n      dup1\n      revert\n        /* \"contracts/basic5.sol\":114:169  function Fun() public {... */\n    tag_3:\n      tag_5\n      tag_6\n      jump\t// in\n    tag_5:\n      stop\n        /* \"contracts/basic5.sol\":177:236  function notFun() public {... */\n    tag_4:\n      tag_7\n      tag_8\n      jump\t// in\n    tag_7:\n      stop\n        /* \"contracts/basic5.sol\":114:169  function Fun() public {... */\n    tag_6:\n        /* \"contracts/basic5.sol\":157:161  true */\n      0x01\n        /* \"contracts/basic5.sol\":147:154  isitFun */\n      0x00\n      dup1\n        /* \"contracts/basic5.sol\":147:161  isitFun = true */\n      0x0100\n      exp\n      dup2\n      sload\n      dup2\n      0xff\n      mul\n      not\n      and\n      swap1\n      dup4\n      iszero\n      iszero\n      mul\n      or\n      swap1\n      sstore\n      pop\n        /* \"contracts/basic5.sol\":114:169  function Fun() public {... */\n      jump\t// out\n        /* \"contracts/basic5.sol\":177:236  function notFun() public {... */\n    tag_8:\n        /* \"contracts/basic5.sol\":223:228  false */\n      0x00\n        /* \"contracts/basic5.sol\":213:220  isitFun */\n      dup1\n      0x00\n        /* \"contracts/basic5.sol\":213:228  isitFun = false */\n      0x0100\n      exp\n      dup2\n      sload\n      dup2\n      0xff\n      mul\n      not\n      and\n      swap1\n      dup4\n      iszero\n      iszero\n      mul\n      or\n      swap1\n      sstore\n      pop\n        /* \"contracts/basic5.sol\":177:236  function notFun() public {... */\n      jump\t// out\n\n    auxdata: 0xa2646970667358221220b9841a5c5ce8fc1b3124463fe64971ca9cb5d0219d678eeb5600195086efe70064736f6c634300081a0033\n}\n",
				"bytecode": {
					"linkReferences": {},
					"object": "6080604052348015600e575f80fd5b5060af80601a5f395ff3fe6080604052348015600e575f80fd5b50600436106030575f3560e01c80632e9d4a9f146034578063fc2d603f14603c575b5f80fd5b603a6044565b005b6042605f565b005b60015f806101000a81548160ff021916908315150217905550565b5f805f6101000a81548160ff02191690831515021790555056fea2646970667358221220b9841a5c5ce8fc1b3124463fe64971ca9cb5d0219d678eeb5600195086efe70064736f6c634300081a0033",
					"opcodes": "PUSH1 0x80 PUSH1 0x40 MSTORE CALLVALUE DUP1 ISZERO PUSH1 0xE JUMPI PUSH0 DUP1 REVERT JUMPDEST POP PUSH1 0xAF DUP1 PUSH1 0x1A PUSH0 CODECOPY PUSH0 RETURN INVALID PUSH1 0x80 PUSH1 0x40 MSTORE CALLVALUE DUP1 ISZERO PUSH1 0xE JUMPI PUSH0 DUP1 REVERT JUMPDEST POP PUSH1 0x4 CALLDATASIZE LT PUSH1 0x30 JUMPI PUSH0 CALLDATALOAD PUSH1 0xE0 SHR DUP1 PUSH4 0x2E9D4A9F EQ PUSH1 0x34 JUMPI DUP1 PUSH4 0xFC2D603F EQ PUSH1 0x3C JUMPI JUMPDEST PUSH0 DUP1 REVERT JUMPDEST PUSH1 0x3A PUSH1 0x44 JUMP JUMPDEST STOP JUMPDEST PUSH1 0x42 PUSH1 0x5F JUMP JUMPDEST STOP JUMPDEST PUSH1 0x1 PUSH0 DUP1 PUSH2 0x100 EXP DUP2 SLOAD DUP2 PUSH1 0xFF MUL NOT AND SWAP1 DUP4 ISZERO ISZERO MUL OR SWAP1 SSTORE POP JUMP JUMPDEST PUSH0 DUP1 PUSH0 PUSH2 0x100 EXP DUP2 SLOAD DUP2 PUSH1 0xFF MUL NOT AND SWAP1 DUP4 ISZERO ISZERO MUL OR SWAP1 SSTORE POP JUMP INVALID LOG2 PUSH5 0x6970667358 0x22 SLT KECCAK256 0xB9 DUP5 BYTE TLOAD TLOAD 0xE8 0xFC SHL BALANCE 0x24 CHAINID EXTCODEHASH 0xE6 BLOBHASH PUSH18 0xCA9CB5D0219D678EEB5600195086EFE70064 PUSH20 0x6F6C634300081A00330000000000000000000000 "
				},
				"gasEstimates": {
					"creation": {
						"codeDepositCost": "35000",
						"executionCost": "85",
						"totalCost": "35085"
					},
					"external": {
						"Fun()": "24387",
						"notFun()": "24408"
					}
				},
				"methodIdentifiers": {
					"Fun()": "2e9d4a9f",
					"notFun()": "fc2d603f"
				}
			},
			"storageLayout": {
				"storage": [
					{
						"astId": 3,
						"contract": "contracts/basic5.sol:BASIC5",
						"label": "isitFun",
						"offset": 0,
						"slot": "0",
						"type": "t_bool"
					}
				],
				"types": {
					"t_bool": {
						"encoding": "inplace",
						"label": "bool",
						"numberOfBytes": "1"
					}
				}
			},
			"userdoc": {
				"kind": "user",
				"methods": {},
				"version": 1
			}
		}
	}
}