{
	"contracts/for.sol": {
		"FOR": {
			"abi": [
				{
					"inputs": [
						{
							"internalType": "uint256",
							"name": "_n",
							"type": "uint256"
						}
					],
					"name": "add2",
					"outputs": [],
					"stateMutability": "nonpayable",
					"type": "function"
				},
				{
					"inputs": [],
					"name": "getNumbers",
					"outputs": [
						{
							"internalType": "uint256[]",
							"name": "",
							"type": "uint256[]"
						}
					],
					"stateMutability": "view",
					"type": "function"
				},
				{
					"inputs": [],
					"name": "loop1",
					"outputs": [
						{
							"internalType": "uint256",
							"name": "",
							"type": "uint256"
						},
						{
							"internalType": "uint256",
							"name": "",
							"type": "uint256"
						}
					],
					"stateMutability": "pure",
					"type": "function"
				},
				{
					"inputs": [
						{
							"internalType": "uint256",
							"name": "_n",
							"type": "uint256"
						}
					],
					"name": "loop2",
					"outputs": [],
					"stateMutability": "nonpayable",
					"type": "function"
				},
				{
					"inputs": [
						{
							"internalType": "uint256",
							"name": "_n",
							"type": "uint256"
						}
					],
					"name": "loop3",
					"outputs": [],
					"stateMutability": "nonpayable",
					"type": "function"
				},
				{
					"inputs": [
						{
							"internalType": "uint256",
							"name": "_n",
							"type": "uint256"
						}
					],
					"name": "onlyOdd",
					"outputs": [],
					"stateMutability": "nonpayable",
					"type": "function"
				}
			],
			"devdoc": {
				"kind": "dev",
				"methods": {},
				"version": 1
			},
			"evm": {
				"assembly": "    /* \"contracts/for.sol\":74:966  contract FOR {... */\n  mstore(0x40, 0x80)\n  callvalue\n  dup1\n  iszero\n  tag_1\n  jumpi\n  0x00\n  dup1\n  revert\ntag_1:\n  pop\n  dataSize(sub_0)\n  dup1\n  dataOffset(sub_0)\n  0x00\n  codecopy\n  0x00\n  return\nstop\n\nsub_0: assembly {\n        /* \"contracts/for.sol\":74:966  contract FOR {... */\n      mstore(0x40, 0x80)\n      callvalue\n      dup1\n      iszero\n      tag_1\n      jumpi\n      0x00\n      dup1\n      revert\n    tag_1:\n      pop\n      jumpi(tag_2, lt(calldatasize, 0x04))\n      shr(0xe0, calldataload(0x00))\n      dup1\n      0x04c58438\n      eq\n      tag_3\n      jumpi\n      dup1\n      0x89f915f6\n      eq\n      tag_4\n      jumpi\n      dup1\n      0x8cb4b9cf\n      eq\n      tag_5\n      jumpi\n      dup1\n      0x94534414\n      eq\n      tag_6\n      jumpi\n      dup1\n      0xe15f594c\n      eq\n      tag_7\n      jumpi\n      dup1\n      0xf5fb1bf8\n      eq\n      tag_8\n      jumpi\n    tag_2:\n      0x00\n      dup1\n      revert\n        /* \"contracts/for.sol\":734:865  function add2(uint _n) public {... */\n    tag_3:\n      tag_9\n      0x04\n      dup1\n      calldatasize\n      sub\n      dup2\n      add\n      swap1\n      tag_10\n      swap2\n      swap1\n      tag_11\n      jump\t// in\n    tag_10:\n      tag_12\n      jump\t// in\n    tag_9:\n      stop\n        /* \"contracts/for.sol\":873:963  function getNumbers() public view returns(uint[] memory) {... */\n    tag_4:\n      tag_13\n      tag_14\n      jump\t// in\n    tag_13:\n      mload(0x40)\n      tag_15\n      swap2\n      swap1\n      tag_16\n      jump\t// in\n    tag_15:\n      mload(0x40)\n      dup1\n      swap2\n      sub\n      swap1\n      return\n        /* \"contracts/for.sol\":598:724  function onlyOdd(uint _n) public {... */\n    tag_5:\n      tag_17\n      0x04\n      dup1\n      calldatasize\n      sub\n      dup2\n      add\n      swap1\n      tag_18\n      swap2\n      swap1\n      tag_11\n      jump\t// in\n    tag_18:\n      tag_19\n      jump\t// in\n    tag_17:\n      stop\n        /* \"contracts/for.sol\":470:590  function loop3(uint _n) public {... */\n    tag_6:\n      tag_20\n      0x04\n      dup1\n      calldatasize\n      sub\n      dup2\n      add\n      swap1\n      tag_21\n      swap2\n      swap1\n      tag_11\n      jump\t// in\n    tag_21:\n      tag_22\n      jump\t// in\n    tag_20:\n      stop\n        /* \"contracts/for.sol\":341:462  function loop2(uint _n) public {... */\n    tag_7:\n      tag_23\n      0x04\n      dup1\n      calldatasize\n      sub\n      dup2\n      add\n      swap1\n      tag_24\n      swap2\n      swap1\n      tag_11\n      jump\t// in\n    tag_24:\n      tag_25\n      jump\t// in\n    tag_23:\n      stop\n        /* \"contracts/for.sol\":94:310  function loop1() public pure returns(uint, uint) {... */\n    tag_8:\n      tag_26\n      tag_27\n      jump\t// in\n    tag_26:\n      mload(0x40)\n      tag_28\n      swap3\n      swap2\n      swap1\n      tag_29\n      jump\t// in\n    tag_28:\n      mload(0x40)\n      dup1\n      swap2\n      sub\n      swap1\n      return\n        /* \"contracts/for.sol\":734:865  function add2(uint _n) public {... */\n    tag_12:\n        /* \"contracts/for.sol\":779:785  uint i */\n      0x00\n        /* \"contracts/for.sol\":775:858  for(uint i = 0; i < numbers.length; i++) {... */\n    tag_31:\n        /* \"contracts/for.sol\":795:802  numbers */\n      0x00\n        /* \"contracts/for.sol\":795:809  numbers.length */\n      dup1\n      sload\n      swap1\n      pop\n        /* \"contracts/for.sol\":791:792  i */\n      dup2\n        /* \"contracts/for.sol\":791:809  i < numbers.length */\n      lt\n        /* \"contracts/for.sol\":775:858  for(uint i = 0; i < numbers.length; i++) {... */\n      iszero\n      tag_32\n      jumpi\n        /* \"contracts/for.sol\":845:846  2 */\n      0x02\n        /* \"contracts/for.sol\":831:838  numbers */\n      0x00\n        /* \"contracts/for.sol\":839:840  i */\n      dup3\n        /* \"contracts/for.sol\":831:841  numbers[i] */\n      dup2\n      sload\n      dup2\n      lt\n      tag_34\n      jumpi\n      tag_35\n      tag_36\n      jump\t// in\n    tag_35:\n    tag_34:\n      swap1\n      0x00\n      mstore\n      keccak256(0x00, 0x20)\n      add\n      0x00\n        /* \"contracts/for.sol\":831:846  numbers[i] += 2 */\n      dup3\n      dup3\n      sload\n      tag_38\n      swap2\n      swap1\n      tag_39\n      jump\t// in\n    tag_38:\n      swap3\n      pop\n      pop\n      dup2\n      swap1\n      sstore\n      pop\n        /* \"contracts/for.sol\":811:814  i++ */\n      dup1\n      dup1\n      0x01\n      add\n      swap2\n      pop\n      pop\n        /* \"contracts/for.sol\":775:858  for(uint i = 0; i < numbers.length; i++) {... */\n      jump(tag_31)\n    tag_32:\n      pop\n        /* \"contracts/for.sol\":734:865  function add2(uint _n) public {... */\n      pop\n      jump\t// out\n        /* \"contracts/for.sol\":873:963  function getNumbers() public view returns(uint[] memory) {... */\n    tag_14:\n        /* \"contracts/for.sol\":915:928  uint[] memory */\n      0x60\n        /* \"contracts/for.sol\":948:955  numbers */\n      0x00\n        /* \"contracts/for.sol\":941:955  return numbers */\n      dup1\n      sload\n      dup1\n      0x20\n      mul\n      0x20\n      add\n      mload(0x40)\n      swap1\n      dup2\n      add\n      0x40\n      mstore\n      dup1\n      swap3\n      swap2\n      swap1\n      dup2\n      dup2\n      mstore\n      0x20\n      add\n      dup3\n      dup1\n      sload\n      dup1\n      iszero\n      tag_41\n      jumpi\n      0x20\n      mul\n      dup3\n      add\n      swap2\n      swap1\n      0x00\n      mstore\n      keccak256(0x00, 0x20)\n      swap1\n    tag_42:\n      dup2\n      sload\n      dup2\n      mstore\n      0x20\n      add\n      swap1\n      0x01\n      add\n      swap1\n      dup1\n      dup4\n      gt\n      tag_42\n      jumpi\n    tag_41:\n      pop\n      pop\n      pop\n      pop\n      pop\n      swap1\n      pop\n        /* \"contracts/for.sol\":873:963  function getNumbers() public view returns(uint[] memory) {... */\n      swap1\n      jump\t// out\n        /* \"contracts/for.sol\":598:724  function onlyOdd(uint _n) public {... */\n    tag_19:\n        /* \"contracts/for.sol\":646:652  uint i */\n      0x00\n        /* \"contracts/for.sol\":655:656  1 */\n      0x01\n        /* \"contracts/for.sol\":646:656  uint i = 1 */\n      swap1\n      pop\n        /* \"contracts/for.sol\":642:717  for(uint i = 1; i <= _n; i += 2) {... */\n    tag_44:\n        /* \"contracts/for.sol\":663:665  _n */\n      dup2\n        /* \"contracts/for.sol\":658:659  i */\n      dup2\n        /* \"contracts/for.sol\":658:665  i <= _n */\n      gt\n        /* \"contracts/for.sol\":642:717  for(uint i = 1; i <= _n; i += 2) {... */\n      tag_45\n      jumpi\n        /* \"contracts/for.sol\":690:697  numbers */\n      0x00\n        /* \"contracts/for.sol\":703:704  i */\n      dup2\n        /* \"contracts/for.sol\":690:705  numbers.push(i) */\n      swap1\n      dup1\n      0x01\n      dup2\n      sload\n      add\n      dup1\n      dup3\n      sstore\n      dup1\n      swap2\n      pop\n      pop\n      0x01\n      swap1\n      sub\n      swap1\n      0x00\n      mstore\n      keccak256(0x00, 0x20)\n      add\n      0x00\n      swap1\n      swap2\n      swap1\n      swap2\n      swap1\n      swap2\n      pop\n      sstore\n        /* \"contracts/for.sol\":672:673  2 */\n      0x02\n        /* \"contracts/for.sol\":667:673  i += 2 */\n      dup2\n      tag_48\n      swap2\n      swap1\n      tag_39\n      jump\t// in\n    tag_48:\n      swap1\n      pop\n        /* \"contracts/for.sol\":642:717  for(uint i = 1; i <= _n; i += 2) {... */\n      jump(tag_44)\n    tag_45:\n      pop\n        /* \"contracts/for.sol\":598:724  function onlyOdd(uint _n) public {... */\n      pop\n      jump\t// out\n        /* \"contracts/for.sol\":470:590  function loop3(uint _n) public {... */\n    tag_22:\n        /* \"contracts/for.sol\":516:522  uint i */\n      0x00\n        /* \"contracts/for.sol\":525:527  _n */\n      dup2\n        /* \"contracts/for.sol\":516:527  uint i = _n */\n      swap1\n      pop\n        /* \"contracts/for.sol\":512:583  for(uint i = _n; i > 0; i--) {... */\n    tag_50:\n        /* \"contracts/for.sol\":533:534  0 */\n      0x00\n        /* \"contracts/for.sol\":529:530  i */\n      dup2\n        /* \"contracts/for.sol\":529:534  i > 0 */\n      gt\n        /* \"contracts/for.sol\":512:583  for(uint i = _n; i > 0; i--) {... */\n      iszero\n      tag_51\n      jumpi\n        /* \"contracts/for.sol\":556:563  numbers */\n      0x00\n        /* \"contracts/for.sol\":569:570  i */\n      dup2\n        /* \"contracts/for.sol\":556:571  numbers.push(i) */\n      swap1\n      dup1\n      0x01\n      dup2\n      sload\n      add\n      dup1\n      dup3\n      sstore\n      dup1\n      swap2\n      pop\n      pop\n      0x01\n      swap1\n      sub\n      swap1\n      0x00\n      mstore\n      keccak256(0x00, 0x20)\n      add\n      0x00\n      swap1\n      swap2\n      swap1\n      swap2\n      swap1\n      swap2\n      pop\n      sstore\n        /* \"contracts/for.sol\":536:539  i-- */\n      dup1\n      dup1\n      tag_54\n      swap1\n      tag_55\n      jump\t// in\n    tag_54:\n      swap2\n      pop\n      pop\n        /* \"contracts/for.sol\":512:583  for(uint i = _n; i > 0; i--) {... */\n      jump(tag_50)\n    tag_51:\n      pop\n        /* \"contracts/for.sol\":470:590  function loop3(uint _n) public {... */\n      pop\n      jump\t// out\n        /* \"contracts/for.sol\":341:462  function loop2(uint _n) public {... */\n    tag_25:\n        /* \"contracts/for.sol\":387:393  uint i */\n      0x00\n        /* \"contracts/for.sol\":396:397  1 */\n      0x01\n        /* \"contracts/for.sol\":387:397  uint i = 1 */\n      swap1\n      pop\n        /* \"contracts/for.sol\":383:455  for(uint i = 1; i <= _n; i++) {... */\n    tag_57:\n        /* \"contracts/for.sol\":404:406  _n */\n      dup2\n        /* \"contracts/for.sol\":399:400  i */\n      dup2\n        /* \"contracts/for.sol\":399:406  i <= _n */\n      gt\n        /* \"contracts/for.sol\":383:455  for(uint i = 1; i <= _n; i++) {... */\n      tag_58\n      jumpi\n        /* \"contracts/for.sol\":428:435  numbers */\n      0x00\n        /* \"contracts/for.sol\":441:442  i */\n      dup2\n        /* \"contracts/for.sol\":428:443  numbers.push(i) */\n      swap1\n      dup1\n      0x01\n      dup2\n      sload\n      add\n      dup1\n      dup3\n      sstore\n      dup1\n      swap2\n      pop\n      pop\n      0x01\n      swap1\n      sub\n      swap1\n      0x00\n      mstore\n      keccak256(0x00, 0x20)\n      add\n      0x00\n      swap1\n      swap2\n      swap1\n      swap2\n      swap1\n      swap2\n      pop\n      sstore\n        /* \"contracts/for.sol\":408:411  i++ */\n      dup1\n      dup1\n      tag_61\n      swap1\n      tag_62\n      jump\t// in\n    tag_61:\n      swap2\n      pop\n      pop\n        /* \"contracts/for.sol\":383:455  for(uint i = 1; i <= _n; i++) {... */\n      jump(tag_57)\n    tag_58:\n      pop\n        /* \"contracts/for.sol\":341:462  function loop2(uint _n) public {... */\n      pop\n      jump\t// out\n        /* \"contracts/for.sol\":94:310  function loop1() public pure returns(uint, uint) {... */\n    tag_27:\n        /* \"contracts/for.sol\":131:135  uint */\n      0x00\n        /* \"contracts/for.sol\":137:141  uint */\n      dup1\n        /* \"contracts/for.sol\":154:160  uint a */\n      0x00\n        /* \"contracts/for.sol\":171:177  uint i */\n      dup1\n        /* \"contracts/for.sol\":194:200  uint i */\n      0x00\n        /* \"contracts/for.sol\":190:278  for(uint i = 0; i < 5; i++) {... */\n    tag_64:\n        /* \"contracts/for.sol\":210:211  5 */\n      0x05\n        /* \"contracts/for.sol\":206:207  i */\n      dup2\n        /* \"contracts/for.sol\":206:211  i < 5 */\n      lt\n        /* \"contracts/for.sol\":190:278  for(uint i = 0; i < 5; i++) {... */\n      iszero\n      tag_65\n      jumpi\n        /* \"contracts/for.sol\":241:242  i */\n      dup1\n        /* \"contracts/for.sol\":237:238  a */\n      dup4\n        /* \"contracts/for.sol\":237:242  a + i */\n      tag_67\n      swap2\n      swap1\n      tag_39\n      jump\t// in\n    tag_67:\n        /* \"contracts/for.sol\":233:242  a = a + i */\n      swap3\n      pop\n        /* \"contracts/for.sol\":213:216  i++ */\n      dup1\n      dup1\n      0x01\n      add\n      swap2\n      pop\n      pop\n        /* \"contracts/for.sol\":190:278  for(uint i = 0; i < 5; i++) {... */\n      jump(tag_64)\n    tag_65:\n      pop\n        /* \"contracts/for.sol\":298:299  a */\n      dup2\n        /* \"contracts/for.sol\":300:301  i */\n      dup2\n        /* \"contracts/for.sol\":290:302  return (a,i) */\n      swap4\n      pop\n      swap4\n      pop\n      pop\n      pop\n        /* \"contracts/for.sol\":94:310  function loop1() public pure returns(uint, uint) {... */\n      swap1\n      swap2\n      jump\t// out\n        /* \"#utility.yul\":88:205   */\n    tag_69:\n        /* \"#utility.yul\":197:198   */\n      0x00\n        /* \"#utility.yul\":194:195   */\n      dup1\n        /* \"#utility.yul\":187:199   */\n      revert\n        /* \"#utility.yul\":334:411   */\n    tag_71:\n        /* \"#utility.yul\":371:378   */\n      0x00\n        /* \"#utility.yul\":400:405   */\n      dup2\n        /* \"#utility.yul\":389:405   */\n      swap1\n      pop\n        /* \"#utility.yul\":334:411   */\n      swap2\n      swap1\n      pop\n      jump\t// out\n        /* \"#utility.yul\":417:539   */\n    tag_72:\n        /* \"#utility.yul\":490:514   */\n      tag_89\n        /* \"#utility.yul\":508:513   */\n      dup2\n        /* \"#utility.yul\":490:514   */\n      tag_71\n      jump\t// in\n    tag_89:\n        /* \"#utility.yul\":483:488   */\n      dup2\n        /* \"#utility.yul\":480:515   */\n      eq\n        /* \"#utility.yul\":470:533   */\n      tag_90\n      jumpi\n        /* \"#utility.yul\":529:530   */\n      0x00\n        /* \"#utility.yul\":526:527   */\n      dup1\n        /* \"#utility.yul\":519:531   */\n      revert\n        /* \"#utility.yul\":470:533   */\n    tag_90:\n        /* \"#utility.yul\":417:539   */\n      pop\n      jump\t// out\n        /* \"#utility.yul\":545:684   */\n    tag_73:\n        /* \"#utility.yul\":591:596   */\n      0x00\n        /* \"#utility.yul\":629:635   */\n      dup2\n        /* \"#utility.yul\":616:636   */\n      calldataload\n        /* \"#utility.yul\":607:636   */\n      swap1\n      pop\n        /* \"#utility.yul\":645:678   */\n      tag_92\n        /* \"#utility.yul\":672:677   */\n      dup2\n        /* \"#utility.yul\":645:678   */\n      tag_72\n      jump\t// in\n    tag_92:\n        /* \"#utility.yul\":545:684   */\n      swap3\n      swap2\n      pop\n      pop\n      jump\t// out\n        /* \"#utility.yul\":690:1019   */\n    tag_11:\n        /* \"#utility.yul\":749:755   */\n      0x00\n        /* \"#utility.yul\":798:800   */\n      0x20\n        /* \"#utility.yul\":786:795   */\n      dup3\n        /* \"#utility.yul\":777:784   */\n      dup5\n        /* \"#utility.yul\":773:796   */\n      sub\n        /* \"#utility.yul\":769:801   */\n      slt\n        /* \"#utility.yul\":766:885   */\n      iszero\n      tag_94\n      jumpi\n        /* \"#utility.yul\":804:883   */\n      tag_95\n      tag_69\n      jump\t// in\n    tag_95:\n        /* \"#utility.yul\":766:885   */\n    tag_94:\n        /* \"#utility.yul\":924:925   */\n      0x00\n        /* \"#utility.yul\":949:1002   */\n      tag_96\n        /* \"#utility.yul\":994:1001   */\n      dup5\n        /* \"#utility.yul\":985:991   */\n      dup3\n        /* \"#utility.yul\":974:983   */\n      dup6\n        /* \"#utility.yul\":970:992   */\n      add\n        /* \"#utility.yul\":949:1002   */\n      tag_73\n      jump\t// in\n    tag_96:\n        /* \"#utility.yul\":939:1002   */\n      swap2\n      pop\n        /* \"#utility.yul\":895:1012   */\n      pop\n        /* \"#utility.yul\":690:1019   */\n      swap3\n      swap2\n      pop\n      pop\n      jump\t// out\n        /* \"#utility.yul\":1025:1139   */\n    tag_74:\n        /* \"#utility.yul\":1092:1098   */\n      0x00\n        /* \"#utility.yul\":1126:1131   */\n      dup2\n        /* \"#utility.yul\":1120:1132   */\n      mload\n        /* \"#utility.yul\":1110:1132   */\n      swap1\n      pop\n        /* \"#utility.yul\":1025:1139   */\n      swap2\n      swap1\n      pop\n      jump\t// out\n        /* \"#utility.yul\":1145:1329   */\n    tag_75:\n        /* \"#utility.yul\":1244:1255   */\n      0x00\n        /* \"#utility.yul\":1278:1284   */\n      dup3\n        /* \"#utility.yul\":1273:1276   */\n      dup3\n        /* \"#utility.yul\":1266:1285   */\n      mstore\n        /* \"#utility.yul\":1318:1322   */\n      0x20\n        /* \"#utility.yul\":1313:1316   */\n      dup3\n        /* \"#utility.yul\":1309:1323   */\n      add\n        /* \"#utility.yul\":1294:1323   */\n      swap1\n      pop\n        /* \"#utility.yul\":1145:1329   */\n      swap3\n      swap2\n      pop\n      pop\n      jump\t// out\n        /* \"#utility.yul\":1335:1467   */\n    tag_76:\n        /* \"#utility.yul\":1402:1406   */\n      0x00\n        /* \"#utility.yul\":1425:1428   */\n      dup2\n        /* \"#utility.yul\":1417:1428   */\n      swap1\n      pop\n        /* \"#utility.yul\":1455:1459   */\n      0x20\n        /* \"#utility.yul\":1450:1453   */\n      dup3\n        /* \"#utility.yul\":1446:1460   */\n      add\n        /* \"#utility.yul\":1438:1460   */\n      swap1\n      pop\n        /* \"#utility.yul\":1335:1467   */\n      swap2\n      swap1\n      pop\n      jump\t// out\n        /* \"#utility.yul\":1473:1581   */\n    tag_77:\n        /* \"#utility.yul\":1550:1574   */\n      tag_101\n        /* \"#utility.yul\":1568:1573   */\n      dup2\n        /* \"#utility.yul\":1550:1574   */\n      tag_71\n      jump\t// in\n    tag_101:\n        /* \"#utility.yul\":1545:1548   */\n      dup3\n        /* \"#utility.yul\":1538:1575   */\n      mstore\n        /* \"#utility.yul\":1473:1581   */\n      pop\n      pop\n      jump\t// out\n        /* \"#utility.yul\":1587:1766   */\n    tag_78:\n        /* \"#utility.yul\":1656:1666   */\n      0x00\n        /* \"#utility.yul\":1677:1723   */\n      tag_103\n        /* \"#utility.yul\":1719:1722   */\n      dup4\n        /* \"#utility.yul\":1711:1717   */\n      dup4\n        /* \"#utility.yul\":1677:1723   */\n      tag_77\n      jump\t// in\n    tag_103:\n        /* \"#utility.yul\":1755:1759   */\n      0x20\n        /* \"#utility.yul\":1750:1753   */\n      dup4\n        /* \"#utility.yul\":1746:1760   */\n      add\n        /* \"#utility.yul\":1732:1760   */\n      swap1\n      pop\n        /* \"#utility.yul\":1587:1766   */\n      swap3\n      swap2\n      pop\n      pop\n      jump\t// out\n        /* \"#utility.yul\":1772:1885   */\n    tag_79:\n        /* \"#utility.yul\":1842:1846   */\n      0x00\n        /* \"#utility.yul\":1874:1878   */\n      0x20\n        /* \"#utility.yul\":1869:1872   */\n      dup3\n        /* \"#utility.yul\":1865:1879   */\n      add\n        /* \"#utility.yul\":1857:1879   */\n      swap1\n      pop\n        /* \"#utility.yul\":1772:1885   */\n      swap2\n      swap1\n      pop\n      jump\t// out\n        /* \"#utility.yul\":1921:2653   */\n    tag_80:\n        /* \"#utility.yul\":2040:2043   */\n      0x00\n        /* \"#utility.yul\":2069:2123   */\n      tag_106\n        /* \"#utility.yul\":2117:2122   */\n      dup3\n        /* \"#utility.yul\":2069:2123   */\n      tag_74\n      jump\t// in\n    tag_106:\n        /* \"#utility.yul\":2139:2225   */\n      tag_107\n        /* \"#utility.yul\":2218:2224   */\n      dup2\n        /* \"#utility.yul\":2213:2216   */\n      dup6\n        /* \"#utility.yul\":2139:2225   */\n      tag_75\n      jump\t// in\n    tag_107:\n        /* \"#utility.yul\":2132:2225   */\n      swap4\n      pop\n        /* \"#utility.yul\":2249:2305   */\n      tag_108\n        /* \"#utility.yul\":2299:2304   */\n      dup4\n        /* \"#utility.yul\":2249:2305   */\n      tag_76\n      jump\t// in\n    tag_108:\n        /* \"#utility.yul\":2328:2335   */\n      dup1\n        /* \"#utility.yul\":2359:2360   */\n      0x00\n        /* \"#utility.yul\":2344:2628   */\n    tag_109:\n        /* \"#utility.yul\":2369:2375   */\n      dup4\n        /* \"#utility.yul\":2366:2367   */\n      dup2\n        /* \"#utility.yul\":2363:2376   */\n      lt\n        /* \"#utility.yul\":2344:2628   */\n      iszero\n      tag_111\n      jumpi\n        /* \"#utility.yul\":2445:2451   */\n      dup2\n        /* \"#utility.yul\":2439:2452   */\n      mload\n        /* \"#utility.yul\":2472:2535   */\n      tag_112\n        /* \"#utility.yul\":2531:2534   */\n      dup9\n        /* \"#utility.yul\":2516:2529   */\n      dup3\n        /* \"#utility.yul\":2472:2535   */\n      tag_78\n      jump\t// in\n    tag_112:\n        /* \"#utility.yul\":2465:2535   */\n      swap8\n      pop\n        /* \"#utility.yul\":2558:2618   */\n      tag_113\n        /* \"#utility.yul\":2611:2617   */\n      dup4\n        /* \"#utility.yul\":2558:2618   */\n      tag_79\n      jump\t// in\n    tag_113:\n        /* \"#utility.yul\":2548:2618   */\n      swap3\n      pop\n        /* \"#utility.yul\":2404:2628   */\n      pop\n        /* \"#utility.yul\":2391:2392   */\n      0x01\n        /* \"#utility.yul\":2388:2389   */\n      dup2\n        /* \"#utility.yul\":2384:2393   */\n      add\n        /* \"#utility.yul\":2379:2393   */\n      swap1\n      pop\n        /* \"#utility.yul\":2344:2628   */\n      jump(tag_109)\n    tag_111:\n        /* \"#utility.yul\":2348:2362   */\n      pop\n        /* \"#utility.yul\":2644:2647   */\n      dup6\n        /* \"#utility.yul\":2637:2647   */\n      swap4\n      pop\n        /* \"#utility.yul\":2045:2653   */\n      pop\n      pop\n      pop\n        /* \"#utility.yul\":1921:2653   */\n      swap3\n      swap2\n      pop\n      pop\n      jump\t// out\n        /* \"#utility.yul\":2659:3032   */\n    tag_16:\n        /* \"#utility.yul\":2802:2806   */\n      0x00\n        /* \"#utility.yul\":2840:2842   */\n      0x20\n        /* \"#utility.yul\":2829:2838   */\n      dup3\n        /* \"#utility.yul\":2825:2843   */\n      add\n        /* \"#utility.yul\":2817:2843   */\n      swap1\n      pop\n        /* \"#utility.yul\":2889:2898   */\n      dup2\n        /* \"#utility.yul\":2883:2887   */\n      dup2\n        /* \"#utility.yul\":2879:2899   */\n      sub\n        /* \"#utility.yul\":2875:2876   */\n      0x00\n        /* \"#utility.yul\":2864:2873   */\n      dup4\n        /* \"#utility.yul\":2860:2877   */\n      add\n        /* \"#utility.yul\":2853:2900   */\n      mstore\n        /* \"#utility.yul\":2917:3025   */\n      tag_115\n        /* \"#utility.yul\":3020:3024   */\n      dup2\n        /* \"#utility.yul\":3011:3017   */\n      dup5\n        /* \"#utility.yul\":2917:3025   */\n      tag_80\n      jump\t// in\n    tag_115:\n        /* \"#utility.yul\":2909:3025   */\n      swap1\n      pop\n        /* \"#utility.yul\":2659:3032   */\n      swap3\n      swap2\n      pop\n      pop\n      jump\t// out\n        /* \"#utility.yul\":3038:3156   */\n    tag_81:\n        /* \"#utility.yul\":3125:3149   */\n      tag_117\n        /* \"#utility.yul\":3143:3148   */\n      dup2\n        /* \"#utility.yul\":3125:3149   */\n      tag_71\n      jump\t// in\n    tag_117:\n        /* \"#utility.yul\":3120:3123   */\n      dup3\n        /* \"#utility.yul\":3113:3150   */\n      mstore\n        /* \"#utility.yul\":3038:3156   */\n      pop\n      pop\n      jump\t// out\n        /* \"#utility.yul\":3162:3494   */\n    tag_29:\n        /* \"#utility.yul\":3283:3287   */\n      0x00\n        /* \"#utility.yul\":3321:3323   */\n      0x40\n        /* \"#utility.yul\":3310:3319   */\n      dup3\n        /* \"#utility.yul\":3306:3324   */\n      add\n        /* \"#utility.yul\":3298:3324   */\n      swap1\n      pop\n        /* \"#utility.yul\":3334:3405   */\n      tag_119\n        /* \"#utility.yul\":3402:3403   */\n      0x00\n        /* \"#utility.yul\":3391:3400   */\n      dup4\n        /* \"#utility.yul\":3387:3404   */\n      add\n        /* \"#utility.yul\":3378:3384   */\n      dup6\n        /* \"#utility.yul\":3334:3405   */\n      tag_81\n      jump\t// in\n    tag_119:\n        /* \"#utility.yul\":3415:3487   */\n      tag_120\n        /* \"#utility.yul\":3483:3485   */\n      0x20\n        /* \"#utility.yul\":3472:3481   */\n      dup4\n        /* \"#utility.yul\":3468:3486   */\n      add\n        /* \"#utility.yul\":3459:3465   */\n      dup5\n        /* \"#utility.yul\":3415:3487   */\n      tag_81\n      jump\t// in\n    tag_120:\n        /* \"#utility.yul\":3162:3494   */\n      swap4\n      swap3\n      pop\n      pop\n      pop\n      jump\t// out\n        /* \"#utility.yul\":3500:3680   */\n    tag_36:\n        /* \"#utility.yul\":3548:3625   */\n      0x4e487b7100000000000000000000000000000000000000000000000000000000\n        /* \"#utility.yul\":3545:3546   */\n      0x00\n        /* \"#utility.yul\":3538:3626   */\n      mstore\n        /* \"#utility.yul\":3645:3649   */\n      0x32\n        /* \"#utility.yul\":3642:3643   */\n      0x04\n        /* \"#utility.yul\":3635:3650   */\n      mstore\n        /* \"#utility.yul\":3669:3673   */\n      0x24\n        /* \"#utility.yul\":3666:3667   */\n      0x00\n        /* \"#utility.yul\":3659:3674   */\n      revert\n        /* \"#utility.yul\":3686:3866   */\n    tag_82:\n        /* \"#utility.yul\":3734:3811   */\n      0x4e487b7100000000000000000000000000000000000000000000000000000000\n        /* \"#utility.yul\":3731:3732   */\n      0x00\n        /* \"#utility.yul\":3724:3812   */\n      mstore\n        /* \"#utility.yul\":3831:3835   */\n      0x11\n        /* \"#utility.yul\":3828:3829   */\n      0x04\n        /* \"#utility.yul\":3821:3836   */\n      mstore\n        /* \"#utility.yul\":3855:3859   */\n      0x24\n        /* \"#utility.yul\":3852:3853   */\n      0x00\n        /* \"#utility.yul\":3845:3860   */\n      revert\n        /* \"#utility.yul\":3872:4063   */\n    tag_39:\n        /* \"#utility.yul\":3912:3915   */\n      0x00\n        /* \"#utility.yul\":3931:3951   */\n      tag_124\n        /* \"#utility.yul\":3949:3950   */\n      dup3\n        /* \"#utility.yul\":3931:3951   */\n      tag_71\n      jump\t// in\n    tag_124:\n        /* \"#utility.yul\":3926:3951   */\n      swap2\n      pop\n        /* \"#utility.yul\":3965:3985   */\n      tag_125\n        /* \"#utility.yul\":3983:3984   */\n      dup4\n        /* \"#utility.yul\":3965:3985   */\n      tag_71\n      jump\t// in\n    tag_125:\n        /* \"#utility.yul\":3960:3985   */\n      swap3\n      pop\n        /* \"#utility.yul\":4008:4009   */\n      dup3\n        /* \"#utility.yul\":4005:4006   */\n      dup3\n        /* \"#utility.yul\":4001:4010   */\n      add\n        /* \"#utility.yul\":3994:4010   */\n      swap1\n      pop\n        /* \"#utility.yul\":4029:4032   */\n      dup1\n        /* \"#utility.yul\":4026:4027   */\n      dup3\n        /* \"#utility.yul\":4023:4033   */\n      gt\n        /* \"#utility.yul\":4020:4056   */\n      iszero\n      tag_126\n      jumpi\n        /* \"#utility.yul\":4036:4054   */\n      tag_127\n      tag_82\n      jump\t// in\n    tag_127:\n        /* \"#utility.yul\":4020:4056   */\n    tag_126:\n        /* \"#utility.yul\":3872:4063   */\n      swap3\n      swap2\n      pop\n      pop\n      jump\t// out\n        /* \"#utility.yul\":4069:4240   */\n    tag_55:\n        /* \"#utility.yul\":4108:4111   */\n      0x00\n        /* \"#utility.yul\":4131:4155   */\n      tag_129\n        /* \"#utility.yul\":4149:4154   */\n      dup3\n        /* \"#utility.yul\":4131:4155   */\n      tag_71\n      jump\t// in\n    tag_129:\n        /* \"#utility.yul\":4122:4155   */\n      swap2\n      pop\n        /* \"#utility.yul\":4177:4181   */\n      0x00\n        /* \"#utility.yul\":4170:4175   */\n      dup3\n        /* \"#utility.yul\":4167:4182   */\n      sub\n        /* \"#utility.yul\":4164:4205   */\n      tag_130\n      jumpi\n        /* \"#utility.yul\":4185:4203   */\n      tag_131\n      tag_82\n      jump\t// in\n    tag_131:\n        /* \"#utility.yul\":4164:4205   */\n    tag_130:\n        /* \"#utility.yul\":4232:4233   */\n      0x01\n        /* \"#utility.yul\":4225:4230   */\n      dup3\n        /* \"#utility.yul\":4221:4234   */\n      sub\n        /* \"#utility.yul\":4214:4234   */\n      swap1\n      pop\n        /* \"#utility.yul\":4069:4240   */\n      swap2\n      swap1\n      pop\n      jump\t// out\n        /* \"#utility.yul\":4246:4479   */\n    tag_62:\n        /* \"#utility.yul\":4285:4288   */\n      0x00\n        /* \"#utility.yul\":4308:4332   */\n      tag_133\n        /* \"#utility.yul\":4326:4331   */\n      dup3\n        /* \"#utility.yul\":4308:4332   */\n      tag_71\n      jump\t// in\n    tag_133:\n        /* \"#utility.yul\":4299:4332   */\n      swap2\n      pop\n        /* \"#utility.yul\":4354:4420   */\n      0xffffffffffffffffffffffffffffffffffffffffffffffffffffffffffffffff\n        /* \"#utility.yul\":4347:4352   */\n      dup3\n        /* \"#utility.yul\":4344:4421   */\n      sub\n        /* \"#utility.yul\":4341:4444   */\n      tag_134\n      jumpi\n        /* \"#utility.yul\":4424:4442   */\n      tag_135\n      tag_82\n      jump\t// in\n    tag_135:\n        /* \"#utility.yul\":4341:4444   */\n    tag_134:\n        /* \"#utility.yul\":4471:4472   */\n      0x01\n        /* \"#utility.yul\":4464:4469   */\n      dup3\n        /* \"#utility.yul\":4460:4473   */\n      add\n        /* \"#utility.yul\":4453:4473   */\n      swap1\n      pop\n        /* \"#utility.yul\":4246:4479   */\n      swap2\n      swap1\n      pop\n      jump\t// out\n\n    auxdata: 0xa26469706673582212204bc009aec8d2a7c55388c80bfa4a22b219accf5b943dd4ec1a9de0a0064059b164736f6c634300081a0033\n}\n",
				"bytecode": {
					"linkReferences": {},
					"object": "6080604052348015600e575f80fd5b5061056a8061001c5f395ff3fe608060405234801561000f575f80fd5b5060043610610060575f3560e01c806304c584381461006457806389f915f6146100805780638cb4b9cf1461009e57806394534414146100ba578063e15f594c146100d6578063f5fb1bf8146100f2575b5f80fd5b61007e60048036038101906100799190610301565b610111565b005b610088610162565b60405161009591906103e3565b60405180910390f35b6100b860048036038101906100b39190610301565b6101b7565b005b6100d460048036038101906100cf9190610301565b610201565b005b6100f060048036038101906100eb9190610301565b61024a565b005b6100fa610293565b604051610108929190610412565b60405180910390f35b5f5b5f8054905081101561015e5760025f828154811061013457610133610439565b5b905f5260205f20015f82825461014a9190610493565b925050819055508080600101915050610113565b5050565b60605f8054806020026020016040519081016040528092919081815260200182805480156101ad57602002820191905f5260205f20905b815481526020019060010190808311610199575b5050505050905090565b5f600190505b8181116101fd575f81908060018154018082558091505060019003905f5260205f20015f90919091909150556002816101f69190610493565b90506101bd565b5050565b5f8190505b5f811115610246575f81908060018154018082558091505060019003905f5260205f20015f9091909190915055808061023e906104c6565b915050610206565b5050565b5f600190505b81811161028f575f81908060018154018082558091505060019003905f5260205f20015f90919091909150558080610287906104ed565b915050610250565b5050565b5f805f805f5b60058110156102bd5780836102ae9190610493565b92508080600101915050610299565b5081819350935050509091565b5f80fd5b5f819050919050565b6102e0816102ce565b81146102ea575f80fd5b50565b5f813590506102fb816102d7565b92915050565b5f60208284031215610316576103156102ca565b5b5f610323848285016102ed565b91505092915050565b5f81519050919050565b5f82825260208201905092915050565b5f819050602082019050919050565b61035e816102ce565b82525050565b5f61036f8383610355565b60208301905092915050565b5f602082019050919050565b5f6103918261032c565b61039b8185610336565b93506103a683610346565b805f5b838110156103d65781516103bd8882610364565b97506103c88361037b565b9250506001810190506103a9565b5085935050505092915050565b5f6020820190508181035f8301526103fb8184610387565b905092915050565b61040c816102ce565b82525050565b5f6040820190506104255f830185610403565b6104326020830184610403565b9392505050565b7f4e487b71000000000000000000000000000000000000000000000000000000005f52603260045260245ffd5b7f4e487b71000000000000000000000000000000000000000000000000000000005f52601160045260245ffd5b5f61049d826102ce565b91506104a8836102ce565b92508282019050808211156104c0576104bf610466565b5b92915050565b5f6104d0826102ce565b91505f82036104e2576104e1610466565b5b600182039050919050565b5f6104f7826102ce565b91507fffffffffffffffffffffffffffffffffffffffffffffffffffffffffffffffff820361052957610528610466565b5b60018201905091905056fea26469706673582212204bc009aec8d2a7c55388c80bfa4a22b219accf5b943dd4ec1a9de0a0064059b164736f6c634300081a0033",
					"opcodes": "PUSH1 0x80 PUSH1 0x40 MSTORE CALLVALUE DUP1 ISZERO PUSH1 0xE JUMPI PUSH0 DUP1 REVERT JUMPDEST POP PUSH2 0x56A DUP1 PUSH2 0x1C PUSH0 CODECOPY PUSH0 RETURN INVALID PUSH1 0x80 PUSH1 0x40 MSTORE CALLVALUE DUP1 ISZERO PUSH2 0xF JUMPI PUSH0 DUP1 REVERT JUMPDEST POP PUSH1 0x4 CALLDATASIZE LT PUSH2 0x60 JUMPI PUSH0 CALLDATALOAD PUSH1 0xE0 SHR DUP1 PUSH4 0x4C58438 EQ PUSH2 0x64 JUMPI DUP1 PUSH4 0x89F915F6 EQ PUSH2 0x80 JUMPI DUP1 PUSH4 0x8CB4B9CF EQ PUSH2 0x9E JUMPI DUP1 PUSH4 0x94534414 EQ PUSH2 0xBA JUMPI DUP1 PUSH4 0xE15F594C EQ PUSH2 0xD6 JUMPI DUP1 PUSH4 0xF5FB1BF8 EQ PUSH2 0xF2 JUMPI JUMPDEST PUSH0 DUP1 REVERT JUMPDEST PUSH2 0x7E PUSH1 0x4 DUP1 CALLDATASIZE SUB DUP2 ADD SWAP1 PUSH2 0x79 SWAP2 SWAP1 PUSH2 0x301 JUMP JUMPDEST PUSH2 0x111 JUMP JUMPDEST STOP JUMPDEST PUSH2 0x88 PUSH2 0x162 JUMP JUMPDEST PUSH1 0x40 MLOAD PUSH2 0x95 SWAP2 SWAP1 PUSH2 0x3E3 JUMP JUMPDEST PUSH1 0x40 MLOAD DUP1 SWAP2 SUB SWAP1 RETURN JUMPDEST PUSH2 0xB8 PUSH1 0x4 DUP1 CALLDATASIZE SUB DUP2 ADD SWAP1 PUSH2 0xB3 SWAP2 SWAP1 PUSH2 0x301 JUMP JUMPDEST PUSH2 0x1B7 JUMP JUMPDEST STOP JUMPDEST PUSH2 0xD4 PUSH1 0x4 DUP1 CALLDATASIZE SUB DUP2 ADD SWAP1 PUSH2 0xCF SWAP2 SWAP1 PUSH2 0x301 JUMP JUMPDEST PUSH2 0x201 JUMP JUMPDEST STOP JUMPDEST PUSH2 0xF0 PUSH1 0x4 DUP1 CALLDATASIZE SUB DUP2 ADD SWAP1 PUSH2 0xEB SWAP2 SWAP1 PUSH2 0x301 JUMP JUMPDEST PUSH2 0x24A JUMP JUMPDEST STOP JUMPDEST PUSH2 0xFA PUSH2 0x293 JUMP JUMPDEST PUSH1 0x40 MLOAD PUSH2 0x108 SWAP3 SWAP2 SWAP1 PUSH2 0x412 JUMP JUMPDEST PUSH1 0x40 MLOAD DUP1 SWAP2 SUB SWAP1 RETURN JUMPDEST PUSH0 JUMPDEST PUSH0 DUP1 SLOAD SWAP1 POP DUP2 LT ISZERO PUSH2 0x15E JUMPI PUSH1 0x2 PUSH0 DUP3 DUP2 SLOAD DUP2 LT PUSH2 0x134 JUMPI PUSH2 0x133 PUSH2 0x439 JUMP JUMPDEST JUMPDEST SWAP1 PUSH0 MSTORE PUSH1 0x20 PUSH0 KECCAK256 ADD PUSH0 DUP3 DUP3 SLOAD PUSH2 0x14A SWAP2 SWAP1 PUSH2 0x493 JUMP JUMPDEST SWAP3 POP POP DUP2 SWAP1 SSTORE POP DUP1 DUP1 PUSH1 0x1 ADD SWAP2 POP POP PUSH2 0x113 JUMP JUMPDEST POP POP JUMP JUMPDEST PUSH1 0x60 PUSH0 DUP1 SLOAD DUP1 PUSH1 0x20 MUL PUSH1 0x20 ADD PUSH1 0x40 MLOAD SWAP1 DUP2 ADD PUSH1 0x40 MSTORE DUP1 SWAP3 SWAP2 SWAP1 DUP2 DUP2 MSTORE PUSH1 0x20 ADD DUP3 DUP1 SLOAD DUP1 ISZERO PUSH2 0x1AD JUMPI PUSH1 0x20 MUL DUP3 ADD SWAP2 SWAP1 PUSH0 MSTORE PUSH1 0x20 PUSH0 KECCAK256 SWAP1 JUMPDEST DUP2 SLOAD DUP2 MSTORE PUSH1 0x20 ADD SWAP1 PUSH1 0x1 ADD SWAP1 DUP1 DUP4 GT PUSH2 0x199 JUMPI JUMPDEST POP POP POP POP POP SWAP1 POP SWAP1 JUMP JUMPDEST PUSH0 PUSH1 0x1 SWAP1 POP JUMPDEST DUP2 DUP2 GT PUSH2 0x1FD JUMPI PUSH0 DUP2 SWAP1 DUP1 PUSH1 0x1 DUP2 SLOAD ADD DUP1 DUP3 SSTORE DUP1 SWAP2 POP POP PUSH1 0x1 SWAP1 SUB SWAP1 PUSH0 MSTORE PUSH1 0x20 PUSH0 KECCAK256 ADD PUSH0 SWAP1 SWAP2 SWAP1 SWAP2 SWAP1 SWAP2 POP SSTORE PUSH1 0x2 DUP2 PUSH2 0x1F6 SWAP2 SWAP1 PUSH2 0x493 JUMP JUMPDEST SWAP1 POP PUSH2 0x1BD JUMP JUMPDEST POP POP JUMP JUMPDEST PUSH0 DUP2 SWAP1 POP JUMPDEST PUSH0 DUP2 GT ISZERO PUSH2 0x246 JUMPI PUSH0 DUP2 SWAP1 DUP1 PUSH1 0x1 DUP2 SLOAD ADD DUP1 DUP3 SSTORE DUP1 SWAP2 POP POP PUSH1 0x1 SWAP1 SUB SWAP1 PUSH0 MSTORE PUSH1 0x20 PUSH0 KECCAK256 ADD PUSH0 SWAP1 SWAP2 SWAP1 SWAP2 SWAP1 SWAP2 POP SSTORE DUP1 DUP1 PUSH2 0x23E SWAP1 PUSH2 0x4C6 JUMP JUMPDEST SWAP2 POP POP PUSH2 0x206 JUMP JUMPDEST POP POP JUMP JUMPDEST PUSH0 PUSH1 0x1 SWAP1 POP JUMPDEST DUP2 DUP2 GT PUSH2 0x28F JUMPI PUSH0 DUP2 SWAP1 DUP1 PUSH1 0x1 DUP2 SLOAD ADD DUP1 DUP3 SSTORE DUP1 SWAP2 POP POP PUSH1 0x1 SWAP1 SUB SWAP1 PUSH0 MSTORE PUSH1 0x20 PUSH0 KECCAK256 ADD PUSH0 SWAP1 SWAP2 SWAP1 SWAP2 SWAP1 SWAP2 POP SSTORE DUP1 DUP1 PUSH2 0x287 SWAP1 PUSH2 0x4ED JUMP JUMPDEST SWAP2 POP POP PUSH2 0x250 JUMP JUMPDEST POP POP JUMP JUMPDEST PUSH0 DUP1 PUSH0 DUP1 PUSH0 JUMPDEST PUSH1 0x5 DUP2 LT ISZERO PUSH2 0x2BD JUMPI DUP1 DUP4 PUSH2 0x2AE SWAP2 SWAP1 PUSH2 0x493 JUMP JUMPDEST SWAP3 POP DUP1 DUP1 PUSH1 0x1 ADD SWAP2 POP POP PUSH2 0x299 JUMP JUMPDEST POP DUP2 DUP2 SWAP4 POP SWAP4 POP POP POP SWAP1 SWAP2 JUMP JUMPDEST PUSH0 DUP1 REVERT JUMPDEST PUSH0 DUP2 SWAP1 POP SWAP2 SWAP1 POP JUMP JUMPDEST PUSH2 0x2E0 DUP2 PUSH2 0x2CE JUMP JUMPDEST DUP2 EQ PUSH2 0x2EA JUMPI PUSH0 DUP1 REVERT JUMPDEST POP JUMP JUMPDEST PUSH0 DUP2 CALLDATALOAD SWAP1 POP PUSH2 0x2FB DUP2 PUSH2 0x2D7 JUMP JUMPDEST SWAP3 SWAP2 POP POP JUMP JUMPDEST PUSH0 PUSH1 0x20 DUP3 DUP5 SUB SLT ISZERO PUSH2 0x316 JUMPI PUSH2 0x315 PUSH2 0x2CA JUMP JUMPDEST JUMPDEST PUSH0 PUSH2 0x323 DUP5 DUP3 DUP6 ADD PUSH2 0x2ED JUMP JUMPDEST SWAP2 POP POP SWAP3 SWAP2 POP POP JUMP JUMPDEST PUSH0 DUP2 MLOAD SWAP1 POP SWAP2 SWAP1 POP JUMP JUMPDEST PUSH0 DUP3 DUP3 MSTORE PUSH1 0x20 DUP3 ADD SWAP1 POP SWAP3 SWAP2 POP POP JUMP JUMPDEST PUSH0 DUP2 SWAP1 POP PUSH1 0x20 DUP3 ADD SWAP1 POP SWAP2 SWAP1 POP JUMP JUMPDEST PUSH2 0x35E DUP2 PUSH2 0x2CE JUMP JUMPDEST DUP3 MSTORE POP POP JUMP JUMPDEST PUSH0 PUSH2 0x36F DUP4 DUP4 PUSH2 0x355 JUMP JUMPDEST PUSH1 0x20 DUP4 ADD SWAP1 POP SWAP3 SWAP2 POP POP JUMP JUMPDEST PUSH0 PUSH1 0x20 DUP3 ADD SWAP1 POP SWAP2 SWAP1 POP JUMP JUMPDEST PUSH0 PUSH2 0x391 DUP3 PUSH2 0x32C JUMP JUMPDEST PUSH2 0x39B DUP2 DUP6 PUSH2 0x336 JUMP JUMPDEST SWAP4 POP PUSH2 0x3A6 DUP4 PUSH2 0x346 JUMP JUMPDEST DUP1 PUSH0 JUMPDEST DUP4 DUP2 LT ISZERO PUSH2 0x3D6 JUMPI DUP2 MLOAD PUSH2 0x3BD DUP9 DUP3 PUSH2 0x364 JUMP JUMPDEST SWAP8 POP PUSH2 0x3C8 DUP4 PUSH2 0x37B JUMP JUMPDEST SWAP3 POP POP PUSH1 0x1 DUP2 ADD SWAP1 POP PUSH2 0x3A9 JUMP JUMPDEST POP DUP6 SWAP4 POP POP POP POP SWAP3 SWAP2 POP POP JUMP JUMPDEST PUSH0 PUSH1 0x20 DUP3 ADD SWAP1 POP DUP2 DUP2 SUB PUSH0 DUP4 ADD MSTORE PUSH2 0x3FB DUP2 DUP5 PUSH2 0x387 JUMP JUMPDEST SWAP1 POP SWAP3 SWAP2 POP POP JUMP JUMPDEST PUSH2 0x40C DUP2 PUSH2 0x2CE JUMP JUMPDEST DUP3 MSTORE POP POP JUMP JUMPDEST PUSH0 PUSH1 0x40 DUP3 ADD SWAP1 POP PUSH2 0x425 PUSH0 DUP4 ADD DUP6 PUSH2 0x403 JUMP JUMPDEST PUSH2 0x432 PUSH1 0x20 DUP4 ADD DUP5 PUSH2 0x403 JUMP JUMPDEST SWAP4 SWAP3 POP POP POP JUMP JUMPDEST PUSH32 0x4E487B7100000000000000000000000000000000000000000000000000000000 PUSH0 MSTORE PUSH1 0x32 PUSH1 0x4 MSTORE PUSH1 0x24 PUSH0 REVERT JUMPDEST PUSH32 0x4E487B7100000000000000000000000000000000000000000000000000000000 PUSH0 MSTORE PUSH1 0x11 PUSH1 0x4 MSTORE PUSH1 0x24 PUSH0 REVERT JUMPDEST PUSH0 PUSH2 0x49D DUP3 PUSH2 0x2CE JUMP JUMPDEST SWAP2 POP PUSH2 0x4A8 DUP4 PUSH2 0x2CE JUMP JUMPDEST SWAP3 POP DUP3 DUP3 ADD SWAP1 POP DUP1 DUP3 GT ISZERO PUSH2 0x4C0 JUMPI PUSH2 0x4BF PUSH2 0x466 JUMP JUMPDEST JUMPDEST SWAP3 SWAP2 POP POP JUMP JUMPDEST PUSH0 PUSH2 0x4D0 DUP3 PUSH2 0x2CE JUMP JUMPDEST SWAP2 POP PUSH0 DUP3 SUB PUSH2 0x4E2 JUMPI PUSH2 0x4E1 PUSH2 0x466 JUMP JUMPDEST JUMPDEST PUSH1 0x1 DUP3 SUB SWAP1 POP SWAP2 SWAP1 POP JUMP JUMPDEST PUSH0 PUSH2 0x4F7 DUP3 PUSH2 0x2CE JUMP JUMPDEST SWAP2 POP PUSH32 0xFFFFFFFFFFFFFFFFFFFFFFFFFFFFFFFFFFFFFFFFFFFFFFFFFFFFFFFFFFFFFFFF DUP3 SUB PUSH2 0x529 JUMPI PUSH2 0x528 PUSH2 0x466 JUMP JUMPDEST JUMPDEST PUSH1 0x1 DUP3 ADD SWAP1 POP SWAP2 SWAP1 POP JUMP INVALID LOG2 PUSH5 0x6970667358 0x22 SLT KECCAK256 0x4B 0xC0 MULMOD 0xAE 0xC8 0xD2 0xA7 0xC5 MSTORE8 DUP9 0xC8 SIGNEXTEND STATICCALL BLOBBASEFEE 0x22 0xB2 NOT 0xAC 0xCF JUMPDEST SWAP5 RETURNDATASIZE 0xD4 0xEC BYTE SWAP14 0xE0 LOG0 MOD BLOCKHASH MSIZE 0xB1 PUSH5 0x736F6C6343 STOP ADDMOD BYTE STOP CALLER "
				},
				"gasEstimates": {
					"creation": {
						"codeDepositCost": "277200",
						"executionCost": "316",
						"totalCost": "277516"
					},
					"external": {
						"add2(uint256)": "infinite",
						"getNumbers()": "infinite",
						"loop1()": "infinite",
						"loop2(uint256)": "infinite",
						"loop3(uint256)": "infinite",
						"onlyOdd(uint256)": "infinite"
					}
				},
				"methodIdentifiers": {
					"add2(uint256)": "04c58438",
					"getNumbers()": "89f915f6",
					"loop1()": "f5fb1bf8",
					"loop2(uint256)": "e15f594c",
					"loop3(uint256)": "94534414",
					"onlyOdd(uint256)": "8cb4b9cf"
				}
			},
			"storageLayout": {
				"storage": [
					{
						"astId": 40,
						"contract": "contracts/for.sol:FOR",
						"label": "numbers",
						"offset": 0,
						"slot": "0",
						"type": "t_array(t_uint256)dyn_storage"
					}
				],
				"types": {
					"t_array(t_uint256)dyn_storage": {
						"base": "t_uint256",
						"encoding": "dynamic_array",
						"label": "uint256[]",
						"numberOfBytes": "32"
					},
					"t_uint256": {
						"encoding": "inplace",
						"label": "uint256",
						"numberOfBytes": "32"
					}
				}
			},
			"userdoc": {
				"kind": "user",
				"methods": {},
				"version": 1
			}
		}
	}
}