{
	"contracts/lecture/sorting.sol": {
		"ARRAY_LOCAL": {
			"abi": [
				{
					"inputs": [
						{
							"internalType": "uint256",
							"name": "_a",
							"type": "uint256"
						},
						{
							"internalType": "uint256",
							"name": "_b",
							"type": "uint256"
						},
						{
							"internalType": "uint256",
							"name": "_c",
							"type": "uint256"
						},
						{
							"internalType": "uint256",
							"name": "_d",
							"type": "uint256"
						}
					],
					"name": "setArray",
					"outputs": [
						{
							"internalType": "uint256[4]",
							"name": "",
							"type": "uint256[4]"
						}
					],
					"stateMutability": "pure",
					"type": "function"
				},
				{
					"inputs": [
						{
							"internalType": "uint256",
							"name": "_n",
							"type": "uint256"
						}
					],
					"name": "setArray2",
					"outputs": [
						{
							"internalType": "uint256[]",
							"name": "",
							"type": "uint256[]"
						}
					],
					"stateMutability": "pure",
					"type": "function"
				},
				{
					"inputs": [
						{
							"internalType": "uint256",
							"name": "_n",
							"type": "uint256"
						}
					],
					"name": "setArray3",
					"outputs": [
						{
							"internalType": "uint256[3]",
							"name": "",
							"type": "uint256[3]"
						}
					],
					"stateMutability": "view",
					"type": "function"
				},
				{
					"inputs": [
						{
							"internalType": "uint256",
							"name": "_n",
							"type": "uint256"
						}
					],
					"name": "setArray4",
					"outputs": [
						{
							"internalType": "uint256[]",
							"name": "",
							"type": "uint256[]"
						}
					],
					"stateMutability": "view",
					"type": "function"
				},
				{
					"inputs": [],
					"name": "setArray5",
					"outputs": [
						{
							"internalType": "uint256[]",
							"name": "",
							"type": "uint256[]"
						}
					],
					"stateMutability": "view",
					"type": "function"
				}
			],
			"devdoc": {
				"kind": "dev",
				"methods": {},
				"version": 1
			},
			"evm": {
				"assembly": "    /* \"contracts/lecture/sorting.sol\":1007:2144  contract ARRAY_LOCAL {... */\n  mstore(0x40, 0x80)\n    /* \"contracts/lecture/sorting.sol\":1060:1088  uint[3] numbers1 = [5,10,15] */\n  mload(0x40)\n  dup1\n  0x60\n  add\n  0x40\n  mstore\n  dup1\n    /* \"contracts/lecture/sorting.sol\":1080:1081  5 */\n  0x05\n    /* \"contracts/lecture/sorting.sol\":1060:1088  uint[3] numbers1 = [5,10,15] */\n  0xff\n  and\n  dup2\n  mstore\n  0x20\n  add\n    /* \"contracts/lecture/sorting.sol\":1082:1084  10 */\n  0x0a\n    /* \"contracts/lecture/sorting.sol\":1060:1088  uint[3] numbers1 = [5,10,15] */\n  0xff\n  and\n  dup2\n  mstore\n  0x20\n  add\n    /* \"contracts/lecture/sorting.sol\":1085:1087  15 */\n  0x0f\n    /* \"contracts/lecture/sorting.sol\":1060:1088  uint[3] numbers1 = [5,10,15] */\n  0xff\n  and\n  dup2\n  mstore\n  pop\n  0x00\n  swap1\n  0x03\n  tag_1\n  swap3\n  swap2\n  swap1\n  tag_2\n  jump\t// in\ntag_1:\n  pop\n    /* \"contracts/lecture/sorting.sol\":1095:1124  uint[] numbers2 = [4,8,12,16] */\n  mload(0x40)\n  dup1\n  0x80\n  add\n  0x40\n  mstore\n  dup1\n    /* \"contracts/lecture/sorting.sol\":1114:1115  4 */\n  0x04\n    /* \"contracts/lecture/sorting.sol\":1095:1124  uint[] numbers2 = [4,8,12,16] */\n  0xff\n  and\n  dup2\n  mstore\n  0x20\n  add\n    /* \"contracts/lecture/sorting.sol\":1116:1117  8 */\n  0x08\n    /* \"contracts/lecture/sorting.sol\":1095:1124  uint[] numbers2 = [4,8,12,16] */\n  0xff\n  and\n  dup2\n  mstore\n  0x20\n  add\n    /* \"contracts/lecture/sorting.sol\":1118:1120  12 */\n  0x0c\n    /* \"contracts/lecture/sorting.sol\":1095:1124  uint[] numbers2 = [4,8,12,16] */\n  0xff\n  and\n  dup2\n  mstore\n  0x20\n  add\n    /* \"contracts/lecture/sorting.sol\":1121:1123  16 */\n  0x10\n    /* \"contracts/lecture/sorting.sol\":1095:1124  uint[] numbers2 = [4,8,12,16] */\n  0xff\n  and\n  dup2\n  mstore\n  pop\n  0x03\n  swap1\n  0x04\n  tag_3\n  swap3\n  swap2\n  swap1\n  tag_4\n  jump\t// in\ntag_3:\n  pop\n    /* \"contracts/lecture/sorting.sol\":1131:1163  uint[] numbers3 = [4,8,12,16,20] */\n  mload(0x40)\n  dup1\n  0xa0\n  add\n  0x40\n  mstore\n  dup1\n    /* \"contracts/lecture/sorting.sol\":1150:1151  4 */\n  0x04\n    /* \"contracts/lecture/sorting.sol\":1131:1163  uint[] numbers3 = [4,8,12,16,20] */\n  0xff\n  and\n  dup2\n  mstore\n  0x20\n  add\n    /* \"contracts/lecture/sorting.sol\":1152:1153  8 */\n  0x08\n    /* \"contracts/lecture/sorting.sol\":1131:1163  uint[] numbers3 = [4,8,12,16,20] */\n  0xff\n  and\n  dup2\n  mstore\n  0x20\n  add\n    /* \"contracts/lecture/sorting.sol\":1154:1156  12 */\n  0x0c\n    /* \"contracts/lecture/sorting.sol\":1131:1163  uint[] numbers3 = [4,8,12,16,20] */\n  0xff\n  and\n  dup2\n  mstore\n  0x20\n  add\n    /* \"contracts/lecture/sorting.sol\":1157:1159  16 */\n  0x10\n    /* \"contracts/lecture/sorting.sol\":1131:1163  uint[] numbers3 = [4,8,12,16,20] */\n  0xff\n  and\n  dup2\n  mstore\n  0x20\n  add\n    /* \"contracts/lecture/sorting.sol\":1160:1162  20 */\n  0x14\n    /* \"contracts/lecture/sorting.sol\":1131:1163  uint[] numbers3 = [4,8,12,16,20] */\n  0xff\n  and\n  dup2\n  mstore\n  pop\n  0x04\n  swap1\n  0x05\n  tag_5\n  swap3\n  swap2\n  swap1\n  tag_6\n  jump\t// in\ntag_5:\n  pop\n    /* \"contracts/lecture/sorting.sol\":1007:2144  contract ARRAY_LOCAL {... */\n  callvalue\n  dup1\n  iszero\n  tag_7\n  jumpi\n  0x00\n  dup1\n  revert\ntag_7:\n  pop\n  jump(tag_8)\ntag_2:\n  dup3\n  0x03\n  dup2\n  add\n  swap3\n  dup3\n  iszero\n  tag_9\n  jumpi\n  swap2\n  0x20\n  mul\n  dup3\n  add\ntag_10:\n  dup3\n  dup2\n  gt\n  iszero\n  tag_11\n  jumpi\n  dup3\n  mload\n  dup3\n  swap1\n  0xff\n  and\n  swap1\n  sstore\n  swap2\n  0x20\n  add\n  swap2\n  swap1\n  0x01\n  add\n  swap1\n  jump(tag_10)\ntag_11:\ntag_9:\n  pop\n  swap1\n  pop\n  tag_12\n  swap2\n  swap1\n  tag_13\n  jump\t// in\ntag_12:\n  pop\n  swap1\n  jump\t// out\ntag_4:\n  dup3\n  dup1\n  sload\n  dup3\n  dup3\n  sstore\n  swap1\n  0x00\n  mstore\n  keccak256(0x00, 0x20)\n  swap1\n  dup2\n  add\n  swap3\n  dup3\n  iszero\n  tag_14\n  jumpi\n  swap2\n  0x20\n  mul\n  dup3\n  add\ntag_15:\n  dup3\n  dup2\n  gt\n  iszero\n  tag_16\n  jumpi\n  dup3\n  mload\n  dup3\n  swap1\n  0xff\n  and\n  swap1\n  sstore\n  swap2\n  0x20\n  add\n  swap2\n  swap1\n  0x01\n  add\n  swap1\n  jump(tag_15)\ntag_16:\ntag_14:\n  pop\n  swap1\n  pop\n  tag_17\n  swap2\n  swap1\n  tag_13\n  jump\t// in\ntag_17:\n  pop\n  swap1\n  jump\t// out\ntag_6:\n  dup3\n  dup1\n  sload\n  dup3\n  dup3\n  sstore\n  swap1\n  0x00\n  mstore\n  keccak256(0x00, 0x20)\n  swap1\n  dup2\n  add\n  swap3\n  dup3\n  iszero\n  tag_18\n  jumpi\n  swap2\n  0x20\n  mul\n  dup3\n  add\ntag_19:\n  dup3\n  dup2\n  gt\n  iszero\n  tag_20\n  jumpi\n  dup3\n  mload\n  dup3\n  swap1\n  0xff\n  and\n  swap1\n  sstore\n  swap2\n  0x20\n  add\n  swap2\n  swap1\n  0x01\n  add\n  swap1\n  jump(tag_19)\ntag_20:\ntag_18:\n  pop\n  swap1\n  pop\n  tag_21\n  swap2\n  swap1\n  tag_13\n  jump\t// in\ntag_21:\n  pop\n  swap1\n  jump\t// out\ntag_13:\ntag_22:\n  dup1\n  dup3\n  gt\n  iszero\n  tag_23\n  jumpi\n  0x00\n  dup2\n  0x00\n  swap1\n  sstore\n  pop\n  0x01\n  add\n  jump(tag_22)\ntag_23:\n  pop\n  swap1\n  jump\t// out\ntag_8:\n  dataSize(sub_0)\n  dup1\n  dataOffset(sub_0)\n  0x00\n  codecopy\n  0x00\n  return\nstop\n\nsub_0: assembly {\n        /* \"contracts/lecture/sorting.sol\":1007:2144  contract ARRAY_LOCAL {... */\n      mstore(0x40, 0x80)\n      callvalue\n      dup1\n      iszero\n      tag_1\n      jumpi\n      0x00\n      dup1\n      revert\n    tag_1:\n      pop\n      jumpi(tag_2, lt(calldatasize, 0x04))\n      shr(0xe0, calldataload(0x00))\n      dup1\n      0x0acd5902\n      eq\n      tag_3\n      jumpi\n      dup1\n      0x2beaef6f\n      eq\n      tag_4\n      jumpi\n      dup1\n      0x64446278\n      eq\n      tag_5\n      jumpi\n      dup1\n      0x65df8f7f\n      eq\n      tag_6\n      jumpi\n      dup1\n      0xd5de87e8\n      eq\n      tag_7\n      jumpi\n    tag_2:\n      0x00\n      dup1\n      revert\n        /* \"contracts/lecture/sorting.sol\":1172:1434  function setArray(uint _a, uint _b, uint _c, uint _d) public pure returns(uint[4] memory) {... */\n    tag_3:\n      tag_8\n      0x04\n      dup1\n      calldatasize\n      sub\n      dup2\n      add\n      swap1\n      tag_9\n      swap2\n      swap1\n      tag_10\n      jump\t// in\n    tag_9:\n      tag_11\n      jump\t// in\n    tag_8:\n      mload(0x40)\n      tag_12\n      swap2\n      swap1\n      tag_13\n      jump\t// in\n    tag_12:\n      mload(0x40)\n      dup1\n      swap2\n      sub\n      swap1\n      return\n        /* \"contracts/lecture/sorting.sol\":1595:1770  function setArray3(uint _n) public view returns(uint[3] memory) {... */\n    tag_4:\n      tag_14\n      0x04\n      dup1\n      calldatasize\n      sub\n      dup2\n      add\n      swap1\n      tag_15\n      swap2\n      swap1\n      tag_16\n      jump\t// in\n    tag_15:\n      tag_17\n      jump\t// in\n    tag_14:\n      mload(0x40)\n      tag_18\n      swap2\n      swap1\n      tag_19\n      jump\t// in\n    tag_18:\n      mload(0x40)\n      dup1\n      swap2\n      sub\n      swap1\n      return\n        /* \"contracts/lecture/sorting.sol\":1442:1587  function setArray2(uint _n) public pure returns(uint[] memory) {... */\n    tag_5:\n      tag_20\n      0x04\n      dup1\n      calldatasize\n      sub\n      dup2\n      add\n      swap1\n      tag_21\n      swap2\n      swap1\n      tag_16\n      jump\t// in\n    tag_21:\n      tag_22\n      jump\t// in\n    tag_20:\n      mload(0x40)\n      tag_23\n      swap2\n      swap1\n      tag_24\n      jump\t// in\n    tag_23:\n      mload(0x40)\n      dup1\n      swap2\n      sub\n      swap1\n      return\n        /* \"contracts/lecture/sorting.sol\":1959:2141  function setArray5() public view returns(uint[] memory) {... */\n    tag_6:\n      tag_25\n      tag_26\n      jump\t// in\n    tag_25:\n      mload(0x40)\n      tag_27\n      swap2\n      swap1\n      tag_24\n      jump\t// in\n    tag_27:\n      mload(0x40)\n      dup1\n      swap2\n      sub\n      swap1\n      return\n        /* \"contracts/lecture/sorting.sol\":1778:1951  function setArray4(uint _n) public view returns(uint[] memory) {... */\n    tag_7:\n      tag_28\n      0x04\n      dup1\n      calldatasize\n      sub\n      dup2\n      add\n      swap1\n      tag_29\n      swap2\n      swap1\n      tag_16\n      jump\t// in\n    tag_29:\n      tag_30\n      jump\t// in\n    tag_28:\n      mload(0x40)\n      tag_31\n      swap2\n      swap1\n      tag_24\n      jump\t// in\n    tag_31:\n      mload(0x40)\n      dup1\n      swap2\n      sub\n      swap1\n      return\n        /* \"contracts/lecture/sorting.sol\":1172:1434  function setArray(uint _a, uint _b, uint _c, uint _d) public pure returns(uint[4] memory) {... */\n    tag_11:\n        /* \"contracts/lecture/sorting.sol\":1246:1260  uint[4] memory */\n      tag_32\n      tag_33\n      jump\t// in\n    tag_32:\n        /* \"contracts/lecture/sorting.sol\":1273:1295  uint[4] memory numbers */\n      tag_35\n      tag_33\n      jump\t// in\n    tag_35:\n        /* \"contracts/lecture/sorting.sol\":1319:1321  _a */\n      dup6\n        /* \"contracts/lecture/sorting.sol\":1306:1313  numbers */\n      dup2\n        /* \"contracts/lecture/sorting.sol\":1314:1315  0 */\n      0x00\n        /* \"contracts/lecture/sorting.sol\":1306:1316  numbers[0] */\n      0x04\n      dup2\n      lt\n      tag_36\n      jumpi\n      tag_37\n      tag_38\n      jump\t// in\n    tag_37:\n    tag_36:\n      0x20\n      mul\n      add\n        /* \"contracts/lecture/sorting.sol\":1306:1321  numbers[0] = _a */\n      dup2\n      dup2\n      mstore\n      pop\n      pop\n        /* \"contracts/lecture/sorting.sol\":1345:1347  _b */\n      dup5\n        /* \"contracts/lecture/sorting.sol\":1332:1339  numbers */\n      dup2\n        /* \"contracts/lecture/sorting.sol\":1340:1341  1 */\n      0x01\n        /* \"contracts/lecture/sorting.sol\":1332:1342  numbers[1] */\n      0x04\n      dup2\n      lt\n      tag_39\n      jumpi\n      tag_40\n      tag_38\n      jump\t// in\n    tag_40:\n    tag_39:\n      0x20\n      mul\n      add\n        /* \"contracts/lecture/sorting.sol\":1332:1347  numbers[1] = _b */\n      dup2\n      dup2\n      mstore\n      pop\n      pop\n        /* \"contracts/lecture/sorting.sol\":1371:1373  _c */\n      dup4\n        /* \"contracts/lecture/sorting.sol\":1358:1365  numbers */\n      dup2\n        /* \"contracts/lecture/sorting.sol\":1366:1367  2 */\n      0x02\n        /* \"contracts/lecture/sorting.sol\":1358:1368  numbers[2] */\n      0x04\n      dup2\n      lt\n      tag_41\n      jumpi\n      tag_42\n      tag_38\n      jump\t// in\n    tag_42:\n    tag_41:\n      0x20\n      mul\n      add\n        /* \"contracts/lecture/sorting.sol\":1358:1373  numbers[2] = _c */\n      dup2\n      dup2\n      mstore\n      pop\n      pop\n        /* \"contracts/lecture/sorting.sol\":1397:1399  _d */\n      dup3\n        /* \"contracts/lecture/sorting.sol\":1384:1391  numbers */\n      dup2\n        /* \"contracts/lecture/sorting.sol\":1392:1393  3 */\n      0x03\n        /* \"contracts/lecture/sorting.sol\":1384:1394  numbers[3] */\n      0x04\n      dup2\n      lt\n      tag_43\n      jumpi\n      tag_44\n      tag_38\n      jump\t// in\n    tag_44:\n    tag_43:\n      0x20\n      mul\n      add\n        /* \"contracts/lecture/sorting.sol\":1384:1399  numbers[3] = _d */\n      dup2\n      dup2\n      mstore\n      pop\n      pop\n        /* \"contracts/lecture/sorting.sol\":1419:1426  numbers */\n      dup1\n        /* \"contracts/lecture/sorting.sol\":1412:1426  return numbers */\n      swap2\n      pop\n      pop\n        /* \"contracts/lecture/sorting.sol\":1172:1434  function setArray(uint _a, uint _b, uint _c, uint _d) public pure returns(uint[4] memory) {... */\n      swap5\n      swap4\n      pop\n      pop\n      pop\n      pop\n      jump\t// out\n        /* \"contracts/lecture/sorting.sol\":1595:1770  function setArray3(uint _n) public view returns(uint[3] memory) {... */\n    tag_17:\n        /* \"contracts/lecture/sorting.sol\":1643:1657  uint[3] memory */\n      tag_45\n      tag_46\n      jump\t// in\n    tag_45:\n        /* \"contracts/lecture/sorting.sol\":1670:1694  uint[3] memory _numbers1 */\n      0x00\n        /* \"contracts/lecture/sorting.sol\":1697:1705  numbers1 */\n      dup1\n        /* \"contracts/lecture/sorting.sol\":1670:1705  uint[3] memory _numbers1 = numbers1 */\n      0x03\n      dup1\n      0x20\n      mul\n      mload(0x40)\n      swap1\n      dup2\n      add\n      0x40\n      mstore\n      dup1\n      swap3\n      swap2\n      swap1\n      dup3\n      0x03\n      dup1\n      iszero\n      tag_48\n      jumpi\n      0x20\n      mul\n      dup3\n      add\n      swap2\n    tag_49:\n      dup2\n      sload\n      dup2\n      mstore\n      0x20\n      add\n      swap1\n      0x01\n      add\n      swap1\n      dup1\n      dup4\n      gt\n      tag_49\n      jumpi\n    tag_48:\n      pop\n      pop\n      pop\n      pop\n      pop\n      swap1\n      pop\n        /* \"contracts/lecture/sorting.sol\":1731:1733  _n */\n      dup3\n        /* \"contracts/lecture/sorting.sol\":1716:1725  _numbers1 */\n      dup2\n        /* \"contracts/lecture/sorting.sol\":1726:1727  1 */\n      0x01\n        /* \"contracts/lecture/sorting.sol\":1716:1728  _numbers1[1] */\n      0x03\n      dup2\n      lt\n      tag_50\n      jumpi\n      tag_51\n      tag_38\n      jump\t// in\n    tag_51:\n    tag_50:\n      0x20\n      mul\n      add\n        /* \"contracts/lecture/sorting.sol\":1716:1733  _numbers1[1] = _n */\n      dup2\n      dup2\n      mstore\n      pop\n      pop\n        /* \"contracts/lecture/sorting.sol\":1753:1762  _numbers1 */\n      dup1\n        /* \"contracts/lecture/sorting.sol\":1746:1762  return _numbers1 */\n      swap2\n      pop\n      pop\n        /* \"contracts/lecture/sorting.sol\":1595:1770  function setArray3(uint _n) public view returns(uint[3] memory) {... */\n      swap2\n      swap1\n      pop\n      jump\t// out\n        /* \"contracts/lecture/sorting.sol\":1442:1587  function setArray2(uint _n) public pure returns(uint[] memory) {... */\n    tag_22:\n        /* \"contracts/lecture/sorting.sol\":1490:1503  uint[] memory */\n      0x60\n        /* \"contracts/lecture/sorting.sol\":1516:1537  uint[] memory numbers */\n      0x00\n        /* \"contracts/lecture/sorting.sol\":1551:1553  _n */\n      dup3\n        /* \"contracts/lecture/sorting.sol\":1540:1554  new uint[](_n) */\n      0xffffffffffffffff\n      dup2\n      gt\n      iszero\n      tag_53\n      jumpi\n      tag_54\n      tag_55\n      jump\t// in\n    tag_54:\n    tag_53:\n      mload(0x40)\n      swap1\n      dup1\n      dup3\n      mstore\n      dup1\n      0x20\n      mul\n      0x20\n      add\n      dup3\n      add\n      0x40\n      mstore\n      dup1\n      iszero\n      tag_56\n      jumpi\n      dup2\n      0x20\n      add\n      0x20\n      dup3\n      mul\n      dup1\n      calldatasize\n      dup4\n      calldatacopy\n      dup1\n      dup3\n      add\n      swap2\n      pop\n      pop\n      swap1\n      pop\n    tag_56:\n      pop\n        /* \"contracts/lecture/sorting.sol\":1516:1554  uint[] memory numbers = new uint[](_n) */\n      swap1\n      pop\n        /* \"contracts/lecture/sorting.sol\":1572:1579  numbers */\n      dup1\n        /* \"contracts/lecture/sorting.sol\":1565:1579  return numbers */\n      swap2\n      pop\n      pop\n        /* \"contracts/lecture/sorting.sol\":1442:1587  function setArray2(uint _n) public pure returns(uint[] memory) {... */\n      swap2\n      swap1\n      pop\n      jump\t// out\n        /* \"contracts/lecture/sorting.sol\":1959:2141  function setArray5() public view returns(uint[] memory) {... */\n    tag_26:\n        /* \"contracts/lecture/sorting.sol\":2000:2013  uint[] memory */\n      0x60\n        /* \"contracts/lecture/sorting.sol\":2026:2049  uint[] memory _numbers2 */\n      0x00\n        /* \"contracts/lecture/sorting.sol\":2052:2060  numbers2 */\n      0x03\n        /* \"contracts/lecture/sorting.sol\":2026:2060  uint[] memory _numbers2 = numbers2 */\n      dup1\n      sload\n      dup1\n      0x20\n      mul\n      0x20\n      add\n      mload(0x40)\n      swap1\n      dup2\n      add\n      0x40\n      mstore\n      dup1\n      swap3\n      swap2\n      swap1\n      dup2\n      dup2\n      mstore\n      0x20\n      add\n      dup3\n      dup1\n      sload\n      dup1\n      iszero\n      tag_58\n      jumpi\n      0x20\n      mul\n      dup3\n      add\n      swap2\n      swap1\n      0x00\n      mstore\n      keccak256(0x00, 0x20)\n      swap1\n    tag_59:\n      dup2\n      sload\n      dup2\n      mstore\n      0x20\n      add\n      swap1\n      0x01\n      add\n      swap1\n      dup1\n      dup4\n      gt\n      tag_59\n      jumpi\n    tag_58:\n      pop\n      pop\n      pop\n      pop\n      pop\n      swap1\n      pop\n        /* \"contracts/lecture/sorting.sol\":2098:2106  numbers3 */\n      0x04\n        /* \"contracts/lecture/sorting.sol\":2086:2106  _numbers2 = numbers3 */\n      dup1\n      sload\n      dup1\n      0x20\n      mul\n      0x20\n      add\n      mload(0x40)\n      swap1\n      dup2\n      add\n      0x40\n      mstore\n      dup1\n      swap3\n      swap2\n      swap1\n      dup2\n      dup2\n      mstore\n      0x20\n      add\n      dup3\n      dup1\n      sload\n      dup1\n      iszero\n      tag_60\n      jumpi\n      0x20\n      mul\n      dup3\n      add\n      swap2\n      swap1\n      0x00\n      mstore\n      keccak256(0x00, 0x20)\n      swap1\n    tag_61:\n      dup2\n      sload\n      dup2\n      mstore\n      0x20\n      add\n      swap1\n      0x01\n      add\n      swap1\n      dup1\n      dup4\n      gt\n      tag_61\n      jumpi\n    tag_60:\n      pop\n      pop\n      pop\n      pop\n      pop\n      swap1\n      pop\n        /* \"contracts/lecture/sorting.sol\":2124:2133  _numbers2 */\n      dup1\n        /* \"contracts/lecture/sorting.sol\":2117:2133  return _numbers2 */\n      swap2\n      pop\n      pop\n        /* \"contracts/lecture/sorting.sol\":1959:2141  function setArray5() public view returns(uint[] memory) {... */\n      swap1\n      jump\t// out\n        /* \"contracts/lecture/sorting.sol\":1778:1951  function setArray4(uint _n) public view returns(uint[] memory) {... */\n    tag_30:\n        /* \"contracts/lecture/sorting.sol\":1826:1839  uint[] memory */\n      0x60\n        /* \"contracts/lecture/sorting.sol\":1852:1875  uint[] memory _numbers2 */\n      0x00\n        /* \"contracts/lecture/sorting.sol\":1878:1886  numbers2 */\n      0x03\n        /* \"contracts/lecture/sorting.sol\":1852:1886  uint[] memory _numbers2 = numbers2 */\n      dup1\n      sload\n      dup1\n      0x20\n      mul\n      0x20\n      add\n      mload(0x40)\n      swap1\n      dup2\n      add\n      0x40\n      mstore\n      dup1\n      swap3\n      swap2\n      swap1\n      dup2\n      dup2\n      mstore\n      0x20\n      add\n      dup3\n      dup1\n      sload\n      dup1\n      iszero\n      tag_63\n      jumpi\n      0x20\n      mul\n      dup3\n      add\n      swap2\n      swap1\n      0x00\n      mstore\n      keccak256(0x00, 0x20)\n      swap1\n    tag_64:\n      dup2\n      sload\n      dup2\n      mstore\n      0x20\n      add\n      swap1\n      0x01\n      add\n      swap1\n      dup1\n      dup4\n      gt\n      tag_64\n      jumpi\n    tag_63:\n      pop\n      pop\n      pop\n      pop\n      pop\n      swap1\n      pop\n        /* \"contracts/lecture/sorting.sol\":1912:1914  _n */\n      dup3\n        /* \"contracts/lecture/sorting.sol\":1897:1906  _numbers2 */\n      dup2\n        /* \"contracts/lecture/sorting.sol\":1907:1908  1 */\n      0x01\n        /* \"contracts/lecture/sorting.sol\":1897:1909  _numbers2[1] */\n      dup2\n      mload\n      dup2\n      lt\n      tag_65\n      jumpi\n      tag_66\n      tag_38\n      jump\t// in\n    tag_66:\n    tag_65:\n      0x20\n      mul\n      0x20\n      add\n      add\n        /* \"contracts/lecture/sorting.sol\":1897:1914  _numbers2[1] = _n */\n      dup2\n      dup2\n      mstore\n      pop\n      pop\n        /* \"contracts/lecture/sorting.sol\":1934:1943  _numbers2 */\n      dup1\n        /* \"contracts/lecture/sorting.sol\":1927:1943  return _numbers2 */\n      swap2\n      pop\n      pop\n        /* \"contracts/lecture/sorting.sol\":1778:1951  function setArray4(uint _n) public view returns(uint[] memory) {... */\n      swap2\n      swap1\n      pop\n      jump\t// out\n    tag_33:\n      mload(0x40)\n      dup1\n      0x80\n      add\n      0x40\n      mstore\n      dup1\n      0x04\n      swap1\n      0x20\n      dup3\n      mul\n      dup1\n      calldatasize\n      dup4\n      calldatacopy\n      dup1\n      dup3\n      add\n      swap2\n      pop\n      pop\n      swap1\n      pop\n      pop\n      swap1\n      jump\t// out\n    tag_46:\n      mload(0x40)\n      dup1\n      0x60\n      add\n      0x40\n      mstore\n      dup1\n      0x03\n      swap1\n      0x20\n      dup3\n      mul\n      dup1\n      calldatasize\n      dup4\n      calldatacopy\n      dup1\n      dup3\n      add\n      swap2\n      pop\n      pop\n      swap1\n      pop\n      pop\n      swap1\n      jump\t// out\n        /* \"#utility.yul\":88:205   */\n    tag_68:\n        /* \"#utility.yul\":197:198   */\n      0x00\n        /* \"#utility.yul\":194:195   */\n      dup1\n        /* \"#utility.yul\":187:199   */\n      revert\n        /* \"#utility.yul\":334:411   */\n    tag_70:\n        /* \"#utility.yul\":371:378   */\n      0x00\n        /* \"#utility.yul\":400:405   */\n      dup2\n        /* \"#utility.yul\":389:405   */\n      swap1\n      pop\n        /* \"#utility.yul\":334:411   */\n      swap2\n      swap1\n      pop\n      jump\t// out\n        /* \"#utility.yul\":417:539   */\n    tag_71:\n        /* \"#utility.yul\":490:514   */\n      tag_96\n        /* \"#utility.yul\":508:513   */\n      dup2\n        /* \"#utility.yul\":490:514   */\n      tag_70\n      jump\t// in\n    tag_96:\n        /* \"#utility.yul\":483:488   */\n      dup2\n        /* \"#utility.yul\":480:515   */\n      eq\n        /* \"#utility.yul\":470:533   */\n      tag_97\n      jumpi\n        /* \"#utility.yul\":529:530   */\n      0x00\n        /* \"#utility.yul\":526:527   */\n      dup1\n        /* \"#utility.yul\":519:531   */\n      revert\n        /* \"#utility.yul\":470:533   */\n    tag_97:\n        /* \"#utility.yul\":417:539   */\n      pop\n      jump\t// out\n        /* \"#utility.yul\":545:684   */\n    tag_72:\n        /* \"#utility.yul\":591:596   */\n      0x00\n        /* \"#utility.yul\":629:635   */\n      dup2\n        /* \"#utility.yul\":616:636   */\n      calldataload\n        /* \"#utility.yul\":607:636   */\n      swap1\n      pop\n        /* \"#utility.yul\":645:678   */\n      tag_99\n        /* \"#utility.yul\":672:677   */\n      dup2\n        /* \"#utility.yul\":645:678   */\n      tag_71\n      jump\t// in\n    tag_99:\n        /* \"#utility.yul\":545:684   */\n      swap3\n      swap2\n      pop\n      pop\n      jump\t// out\n        /* \"#utility.yul\":690:1455   */\n    tag_10:\n        /* \"#utility.yul\":776:782   */\n      0x00\n        /* \"#utility.yul\":784:790   */\n      dup1\n        /* \"#utility.yul\":792:798   */\n      0x00\n        /* \"#utility.yul\":800:806   */\n      dup1\n        /* \"#utility.yul\":849:852   */\n      0x80\n        /* \"#utility.yul\":837:846   */\n      dup6\n        /* \"#utility.yul\":828:835   */\n      dup8\n        /* \"#utility.yul\":824:847   */\n      sub\n        /* \"#utility.yul\":820:853   */\n      slt\n        /* \"#utility.yul\":817:937   */\n      iszero\n      tag_101\n      jumpi\n        /* \"#utility.yul\":856:935   */\n      tag_102\n      tag_68\n      jump\t// in\n    tag_102:\n        /* \"#utility.yul\":817:937   */\n    tag_101:\n        /* \"#utility.yul\":976:977   */\n      0x00\n        /* \"#utility.yul\":1001:1054   */\n      tag_103\n        /* \"#utility.yul\":1046:1053   */\n      dup8\n        /* \"#utility.yul\":1037:1043   */\n      dup3\n        /* \"#utility.yul\":1026:1035   */\n      dup9\n        /* \"#utility.yul\":1022:1044   */\n      add\n        /* \"#utility.yul\":1001:1054   */\n      tag_72\n      jump\t// in\n    tag_103:\n        /* \"#utility.yul\":991:1054   */\n      swap5\n      pop\n        /* \"#utility.yul\":947:1064   */\n      pop\n        /* \"#utility.yul\":1103:1105   */\n      0x20\n        /* \"#utility.yul\":1129:1182   */\n      tag_104\n        /* \"#utility.yul\":1174:1181   */\n      dup8\n        /* \"#utility.yul\":1165:1171   */\n      dup3\n        /* \"#utility.yul\":1154:1163   */\n      dup9\n        /* \"#utility.yul\":1150:1172   */\n      add\n        /* \"#utility.yul\":1129:1182   */\n      tag_72\n      jump\t// in\n    tag_104:\n        /* \"#utility.yul\":1119:1182   */\n      swap4\n      pop\n        /* \"#utility.yul\":1074:1192   */\n      pop\n        /* \"#utility.yul\":1231:1233   */\n      0x40\n        /* \"#utility.yul\":1257:1310   */\n      tag_105\n        /* \"#utility.yul\":1302:1309   */\n      dup8\n        /* \"#utility.yul\":1293:1299   */\n      dup3\n        /* \"#utility.yul\":1282:1291   */\n      dup9\n        /* \"#utility.yul\":1278:1300   */\n      add\n        /* \"#utility.yul\":1257:1310   */\n      tag_72\n      jump\t// in\n    tag_105:\n        /* \"#utility.yul\":1247:1310   */\n      swap3\n      pop\n        /* \"#utility.yul\":1202:1320   */\n      pop\n        /* \"#utility.yul\":1359:1361   */\n      0x60\n        /* \"#utility.yul\":1385:1438   */\n      tag_106\n        /* \"#utility.yul\":1430:1437   */\n      dup8\n        /* \"#utility.yul\":1421:1427   */\n      dup3\n        /* \"#utility.yul\":1410:1419   */\n      dup9\n        /* \"#utility.yul\":1406:1428   */\n      add\n        /* \"#utility.yul\":1385:1438   */\n      tag_72\n      jump\t// in\n    tag_106:\n        /* \"#utility.yul\":1375:1438   */\n      swap2\n      pop\n        /* \"#utility.yul\":1330:1448   */\n      pop\n        /* \"#utility.yul\":690:1455   */\n      swap3\n      swap6\n      swap2\n      swap5\n      pop\n      swap3\n      pop\n      jump\t// out\n        /* \"#utility.yul\":1461:1565   */\n    tag_73:\n        /* \"#utility.yul\":1526:1532   */\n      0x00\n        /* \"#utility.yul\":1554:1558   */\n      0x04\n        /* \"#utility.yul\":1544:1558   */\n      swap1\n      pop\n        /* \"#utility.yul\":1461:1565   */\n      swap2\n      swap1\n      pop\n      jump\t// out\n        /* \"#utility.yul\":1571:1714   */\n    tag_74:\n        /* \"#utility.yul\":1668:1679   */\n      0x00\n        /* \"#utility.yul\":1705:1708   */\n      dup2\n        /* \"#utility.yul\":1690:1708   */\n      swap1\n      pop\n        /* \"#utility.yul\":1571:1714   */\n      swap3\n      swap2\n      pop\n      pop\n      jump\t// out\n        /* \"#utility.yul\":1720:1818   */\n    tag_75:\n        /* \"#utility.yul\":1785:1789   */\n      0x00\n        /* \"#utility.yul\":1808:1811   */\n      dup2\n        /* \"#utility.yul\":1800:1811   */\n      swap1\n      pop\n        /* \"#utility.yul\":1720:1818   */\n      swap2\n      swap1\n      pop\n      jump\t// out\n        /* \"#utility.yul\":1824:1932   */\n    tag_76:\n        /* \"#utility.yul\":1901:1925   */\n      tag_111\n        /* \"#utility.yul\":1919:1924   */\n      dup2\n        /* \"#utility.yul\":1901:1925   */\n      tag_70\n      jump\t// in\n    tag_111:\n        /* \"#utility.yul\":1896:1899   */\n      dup3\n        /* \"#utility.yul\":1889:1926   */\n      mstore\n        /* \"#utility.yul\":1824:1932   */\n      pop\n      pop\n      jump\t// out\n        /* \"#utility.yul\":1938:2117   */\n    tag_77:\n        /* \"#utility.yul\":2007:2017   */\n      0x00\n        /* \"#utility.yul\":2028:2074   */\n      tag_113\n        /* \"#utility.yul\":2070:2073   */\n      dup4\n        /* \"#utility.yul\":2062:2068   */\n      dup4\n        /* \"#utility.yul\":2028:2074   */\n      tag_76\n      jump\t// in\n    tag_113:\n        /* \"#utility.yul\":2106:2110   */\n      0x20\n        /* \"#utility.yul\":2101:2104   */\n      dup4\n        /* \"#utility.yul\":2097:2111   */\n      add\n        /* \"#utility.yul\":2083:2111   */\n      swap1\n      pop\n        /* \"#utility.yul\":1938:2117   */\n      swap3\n      swap2\n      pop\n      pop\n      jump\t// out\n        /* \"#utility.yul\":2123:2234   */\n    tag_78:\n        /* \"#utility.yul\":2191:2195   */\n      0x00\n        /* \"#utility.yul\":2223:2227   */\n      0x20\n        /* \"#utility.yul\":2218:2221   */\n      dup3\n        /* \"#utility.yul\":2214:2228   */\n      add\n        /* \"#utility.yul\":2206:2228   */\n      swap1\n      pop\n        /* \"#utility.yul\":2123:2234   */\n      swap2\n      swap1\n      pop\n      jump\t// out\n        /* \"#utility.yul\":2272:2966   */\n    tag_79:\n        /* \"#utility.yul\":2408:2460   */\n      tag_116\n        /* \"#utility.yul\":2454:2459   */\n      dup2\n        /* \"#utility.yul\":2408:2460   */\n      tag_73\n      jump\t// in\n    tag_116:\n        /* \"#utility.yul\":2476:2560   */\n      tag_117\n        /* \"#utility.yul\":2553:2559   */\n      dup2\n        /* \"#utility.yul\":2548:2551   */\n      dup5\n        /* \"#utility.yul\":2476:2560   */\n      tag_74\n      jump\t// in\n    tag_117:\n        /* \"#utility.yul\":2469:2560   */\n      swap3\n      pop\n        /* \"#utility.yul\":2584:2638   */\n      tag_118\n        /* \"#utility.yul\":2632:2637   */\n      dup3\n        /* \"#utility.yul\":2584:2638   */\n      tag_75\n      jump\t// in\n    tag_118:\n        /* \"#utility.yul\":2661:2668   */\n      dup1\n        /* \"#utility.yul\":2692:2693   */\n      0x00\n        /* \"#utility.yul\":2677:2959   */\n    tag_119:\n        /* \"#utility.yul\":2702:2708   */\n      dup4\n        /* \"#utility.yul\":2699:2700   */\n      dup2\n        /* \"#utility.yul\":2696:2709   */\n      lt\n        /* \"#utility.yul\":2677:2959   */\n      iszero\n      tag_121\n      jumpi\n        /* \"#utility.yul\":2778:2784   */\n      dup2\n        /* \"#utility.yul\":2772:2785   */\n      mload\n        /* \"#utility.yul\":2805:2868   */\n      tag_122\n        /* \"#utility.yul\":2864:2867   */\n      dup8\n        /* \"#utility.yul\":2849:2862   */\n      dup3\n        /* \"#utility.yul\":2805:2868   */\n      tag_77\n      jump\t// in\n    tag_122:\n        /* \"#utility.yul\":2798:2868   */\n      swap7\n      pop\n        /* \"#utility.yul\":2891:2949   */\n      tag_123\n        /* \"#utility.yul\":2942:2948   */\n      dup4\n        /* \"#utility.yul\":2891:2949   */\n      tag_78\n      jump\t// in\n    tag_123:\n        /* \"#utility.yul\":2881:2949   */\n      swap3\n      pop\n        /* \"#utility.yul\":2737:2959   */\n      pop\n        /* \"#utility.yul\":2724:2725   */\n      0x01\n        /* \"#utility.yul\":2721:2722   */\n      dup2\n        /* \"#utility.yul\":2717:2726   */\n      add\n        /* \"#utility.yul\":2712:2726   */\n      swap1\n      pop\n        /* \"#utility.yul\":2677:2959   */\n      jump(tag_119)\n    tag_121:\n        /* \"#utility.yul\":2681:2695   */\n      pop\n        /* \"#utility.yul\":2384:2966   */\n      pop\n      pop\n      pop\n        /* \"#utility.yul\":2272:2966   */\n      pop\n      pop\n      jump\t// out\n        /* \"#utility.yul\":2972:3287   */\n    tag_13:\n        /* \"#utility.yul\":3111:3115   */\n      0x00\n        /* \"#utility.yul\":3149:3152   */\n      0x80\n        /* \"#utility.yul\":3138:3147   */\n      dup3\n        /* \"#utility.yul\":3134:3153   */\n      add\n        /* \"#utility.yul\":3126:3153   */\n      swap1\n      pop\n        /* \"#utility.yul\":3163:3280   */\n      tag_125\n        /* \"#utility.yul\":3277:3278   */\n      0x00\n        /* \"#utility.yul\":3266:3275   */\n      dup4\n        /* \"#utility.yul\":3262:3279   */\n      add\n        /* \"#utility.yul\":3253:3259   */\n      dup5\n        /* \"#utility.yul\":3163:3280   */\n      tag_79\n      jump\t// in\n    tag_125:\n        /* \"#utility.yul\":2972:3287   */\n      swap3\n      swap2\n      pop\n      pop\n      jump\t// out\n        /* \"#utility.yul\":3293:3622   */\n    tag_16:\n        /* \"#utility.yul\":3352:3358   */\n      0x00\n        /* \"#utility.yul\":3401:3403   */\n      0x20\n        /* \"#utility.yul\":3389:3398   */\n      dup3\n        /* \"#utility.yul\":3380:3387   */\n      dup5\n        /* \"#utility.yul\":3376:3399   */\n      sub\n        /* \"#utility.yul\":3372:3404   */\n      slt\n        /* \"#utility.yul\":3369:3488   */\n      iszero\n      tag_127\n      jumpi\n        /* \"#utility.yul\":3407:3486   */\n      tag_128\n      tag_68\n      jump\t// in\n    tag_128:\n        /* \"#utility.yul\":3369:3488   */\n    tag_127:\n        /* \"#utility.yul\":3527:3528   */\n      0x00\n        /* \"#utility.yul\":3552:3605   */\n      tag_129\n        /* \"#utility.yul\":3597:3604   */\n      dup5\n        /* \"#utility.yul\":3588:3594   */\n      dup3\n        /* \"#utility.yul\":3577:3586   */\n      dup6\n        /* \"#utility.yul\":3573:3595   */\n      add\n        /* \"#utility.yul\":3552:3605   */\n      tag_72\n      jump\t// in\n    tag_129:\n        /* \"#utility.yul\":3542:3605   */\n      swap2\n      pop\n        /* \"#utility.yul\":3498:3615   */\n      pop\n        /* \"#utility.yul\":3293:3622   */\n      swap3\n      swap2\n      pop\n      pop\n      jump\t// out\n        /* \"#utility.yul\":3628:3732   */\n    tag_80:\n        /* \"#utility.yul\":3693:3699   */\n      0x00\n        /* \"#utility.yul\":3721:3725   */\n      0x03\n        /* \"#utility.yul\":3711:3725   */\n      swap1\n      pop\n        /* \"#utility.yul\":3628:3732   */\n      swap2\n      swap1\n      pop\n      jump\t// out\n        /* \"#utility.yul\":3738:3881   */\n    tag_81:\n        /* \"#utility.yul\":3835:3846   */\n      0x00\n        /* \"#utility.yul\":3872:3875   */\n      dup2\n        /* \"#utility.yul\":3857:3875   */\n      swap1\n      pop\n        /* \"#utility.yul\":3738:3881   */\n      swap3\n      swap2\n      pop\n      pop\n      jump\t// out\n        /* \"#utility.yul\":3887:3985   */\n    tag_82:\n        /* \"#utility.yul\":3952:3956   */\n      0x00\n        /* \"#utility.yul\":3975:3978   */\n      dup2\n        /* \"#utility.yul\":3967:3978   */\n      swap1\n      pop\n        /* \"#utility.yul\":3887:3985   */\n      swap2\n      swap1\n      pop\n      jump\t// out\n        /* \"#utility.yul\":3991:4102   */\n    tag_83:\n        /* \"#utility.yul\":4059:4063   */\n      0x00\n        /* \"#utility.yul\":4091:4095   */\n      0x20\n        /* \"#utility.yul\":4086:4089   */\n      dup3\n        /* \"#utility.yul\":4082:4096   */\n      add\n        /* \"#utility.yul\":4074:4096   */\n      swap1\n      pop\n        /* \"#utility.yul\":3991:4102   */\n      swap2\n      swap1\n      pop\n      jump\t// out\n        /* \"#utility.yul\":4140:4834   */\n    tag_84:\n        /* \"#utility.yul\":4276:4328   */\n      tag_135\n        /* \"#utility.yul\":4322:4327   */\n      dup2\n        /* \"#utility.yul\":4276:4328   */\n      tag_80\n      jump\t// in\n    tag_135:\n        /* \"#utility.yul\":4344:4428   */\n      tag_136\n        /* \"#utility.yul\":4421:4427   */\n      dup2\n        /* \"#utility.yul\":4416:4419   */\n      dup5\n        /* \"#utility.yul\":4344:4428   */\n      tag_81\n      jump\t// in\n    tag_136:\n        /* \"#utility.yul\":4337:4428   */\n      swap3\n      pop\n        /* \"#utility.yul\":4452:4506   */\n      tag_137\n        /* \"#utility.yul\":4500:4505   */\n      dup3\n        /* \"#utility.yul\":4452:4506   */\n      tag_82\n      jump\t// in\n    tag_137:\n        /* \"#utility.yul\":4529:4536   */\n      dup1\n        /* \"#utility.yul\":4560:4561   */\n      0x00\n        /* \"#utility.yul\":4545:4827   */\n    tag_138:\n        /* \"#utility.yul\":4570:4576   */\n      dup4\n        /* \"#utility.yul\":4567:4568   */\n      dup2\n        /* \"#utility.yul\":4564:4577   */\n      lt\n        /* \"#utility.yul\":4545:4827   */\n      iszero\n      tag_140\n      jumpi\n        /* \"#utility.yul\":4646:4652   */\n      dup2\n        /* \"#utility.yul\":4640:4653   */\n      mload\n        /* \"#utility.yul\":4673:4736   */\n      tag_141\n        /* \"#utility.yul\":4732:4735   */\n      dup8\n        /* \"#utility.yul\":4717:4730   */\n      dup3\n        /* \"#utility.yul\":4673:4736   */\n      tag_77\n      jump\t// in\n    tag_141:\n        /* \"#utility.yul\":4666:4736   */\n      swap7\n      pop\n        /* \"#utility.yul\":4759:4817   */\n      tag_142\n        /* \"#utility.yul\":4810:4816   */\n      dup4\n        /* \"#utility.yul\":4759:4817   */\n      tag_83\n      jump\t// in\n    tag_142:\n        /* \"#utility.yul\":4749:4817   */\n      swap3\n      pop\n        /* \"#utility.yul\":4605:4827   */\n      pop\n        /* \"#utility.yul\":4592:4593   */\n      0x01\n        /* \"#utility.yul\":4589:4590   */\n      dup2\n        /* \"#utility.yul\":4585:4594   */\n      add\n        /* \"#utility.yul\":4580:4594   */\n      swap1\n      pop\n        /* \"#utility.yul\":4545:4827   */\n      jump(tag_138)\n    tag_140:\n        /* \"#utility.yul\":4549:4563   */\n      pop\n        /* \"#utility.yul\":4252:4834   */\n      pop\n      pop\n      pop\n        /* \"#utility.yul\":4140:4834   */\n      pop\n      pop\n      jump\t// out\n        /* \"#utility.yul\":4840:5154   */\n    tag_19:\n        /* \"#utility.yul\":4979:4983   */\n      0x00\n        /* \"#utility.yul\":5017:5019   */\n      0x60\n        /* \"#utility.yul\":5006:5015   */\n      dup3\n        /* \"#utility.yul\":5002:5020   */\n      add\n        /* \"#utility.yul\":4994:5020   */\n      swap1\n      pop\n        /* \"#utility.yul\":5030:5147   */\n      tag_144\n        /* \"#utility.yul\":5144:5145   */\n      0x00\n        /* \"#utility.yul\":5133:5142   */\n      dup4\n        /* \"#utility.yul\":5129:5146   */\n      add\n        /* \"#utility.yul\":5120:5126   */\n      dup5\n        /* \"#utility.yul\":5030:5147   */\n      tag_84\n      jump\t// in\n    tag_144:\n        /* \"#utility.yul\":4840:5154   */\n      swap3\n      swap2\n      pop\n      pop\n      jump\t// out\n        /* \"#utility.yul\":5160:5274   */\n    tag_85:\n        /* \"#utility.yul\":5227:5233   */\n      0x00\n        /* \"#utility.yul\":5261:5266   */\n      dup2\n        /* \"#utility.yul\":5255:5267   */\n      mload\n        /* \"#utility.yul\":5245:5267   */\n      swap1\n      pop\n        /* \"#utility.yul\":5160:5274   */\n      swap2\n      swap1\n      pop\n      jump\t// out\n        /* \"#utility.yul\":5280:5464   */\n    tag_86:\n        /* \"#utility.yul\":5379:5390   */\n      0x00\n        /* \"#utility.yul\":5413:5419   */\n      dup3\n        /* \"#utility.yul\":5408:5411   */\n      dup3\n        /* \"#utility.yul\":5401:5420   */\n      mstore\n        /* \"#utility.yul\":5453:5457   */\n      0x20\n        /* \"#utility.yul\":5448:5451   */\n      dup3\n        /* \"#utility.yul\":5444:5458   */\n      add\n        /* \"#utility.yul\":5429:5458   */\n      swap1\n      pop\n        /* \"#utility.yul\":5280:5464   */\n      swap3\n      swap2\n      pop\n      pop\n      jump\t// out\n        /* \"#utility.yul\":5470:5602   */\n    tag_87:\n        /* \"#utility.yul\":5537:5541   */\n      0x00\n        /* \"#utility.yul\":5560:5563   */\n      dup2\n        /* \"#utility.yul\":5552:5563   */\n      swap1\n      pop\n        /* \"#utility.yul\":5590:5594   */\n      0x20\n        /* \"#utility.yul\":5585:5588   */\n      dup3\n        /* \"#utility.yul\":5581:5595   */\n      add\n        /* \"#utility.yul\":5573:5595   */\n      swap1\n      pop\n        /* \"#utility.yul\":5470:5602   */\n      swap2\n      swap1\n      pop\n      jump\t// out\n        /* \"#utility.yul\":5608:5721   */\n    tag_88:\n        /* \"#utility.yul\":5678:5682   */\n      0x00\n        /* \"#utility.yul\":5710:5714   */\n      0x20\n        /* \"#utility.yul\":5705:5708   */\n      dup3\n        /* \"#utility.yul\":5701:5715   */\n      add\n        /* \"#utility.yul\":5693:5715   */\n      swap1\n      pop\n        /* \"#utility.yul\":5608:5721   */\n      swap2\n      swap1\n      pop\n      jump\t// out\n        /* \"#utility.yul\":5757:6489   */\n    tag_89:\n        /* \"#utility.yul\":5876:5879   */\n      0x00\n        /* \"#utility.yul\":5905:5959   */\n      tag_150\n        /* \"#utility.yul\":5953:5958   */\n      dup3\n        /* \"#utility.yul\":5905:5959   */\n      tag_85\n      jump\t// in\n    tag_150:\n        /* \"#utility.yul\":5975:6061   */\n      tag_151\n        /* \"#utility.yul\":6054:6060   */\n      dup2\n        /* \"#utility.yul\":6049:6052   */\n      dup6\n        /* \"#utility.yul\":5975:6061   */\n      tag_86\n      jump\t// in\n    tag_151:\n        /* \"#utility.yul\":5968:6061   */\n      swap4\n      pop\n        /* \"#utility.yul\":6085:6141   */\n      tag_152\n        /* \"#utility.yul\":6135:6140   */\n      dup4\n        /* \"#utility.yul\":6085:6141   */\n      tag_87\n      jump\t// in\n    tag_152:\n        /* \"#utility.yul\":6164:6171   */\n      dup1\n        /* \"#utility.yul\":6195:6196   */\n      0x00\n        /* \"#utility.yul\":6180:6464   */\n    tag_153:\n        /* \"#utility.yul\":6205:6211   */\n      dup4\n        /* \"#utility.yul\":6202:6203   */\n      dup2\n        /* \"#utility.yul\":6199:6212   */\n      lt\n        /* \"#utility.yul\":6180:6464   */\n      iszero\n      tag_155\n      jumpi\n        /* \"#utility.yul\":6281:6287   */\n      dup2\n        /* \"#utility.yul\":6275:6288   */\n      mload\n        /* \"#utility.yul\":6308:6371   */\n      tag_156\n        /* \"#utility.yul\":6367:6370   */\n      dup9\n        /* \"#utility.yul\":6352:6365   */\n      dup3\n        /* \"#utility.yul\":6308:6371   */\n      tag_77\n      jump\t// in\n    tag_156:\n        /* \"#utility.yul\":6301:6371   */\n      swap8\n      pop\n        /* \"#utility.yul\":6394:6454   */\n      tag_157\n        /* \"#utility.yul\":6447:6453   */\n      dup4\n        /* \"#utility.yul\":6394:6454   */\n      tag_88\n      jump\t// in\n    tag_157:\n        /* \"#utility.yul\":6384:6454   */\n      swap3\n      pop\n        /* \"#utility.yul\":6240:6464   */\n      pop\n        /* \"#utility.yul\":6227:6228   */\n      0x01\n        /* \"#utility.yul\":6224:6225   */\n      dup2\n        /* \"#utility.yul\":6220:6229   */\n      add\n        /* \"#utility.yul\":6215:6229   */\n      swap1\n      pop\n        /* \"#utility.yul\":6180:6464   */\n      jump(tag_153)\n    tag_155:\n        /* \"#utility.yul\":6184:6198   */\n      pop\n        /* \"#utility.yul\":6480:6483   */\n      dup6\n        /* \"#utility.yul\":6473:6483   */\n      swap4\n      pop\n        /* \"#utility.yul\":5881:6489   */\n      pop\n      pop\n      pop\n        /* \"#utility.yul\":5757:6489   */\n      swap3\n      swap2\n      pop\n      pop\n      jump\t// out\n        /* \"#utility.yul\":6495:6868   */\n    tag_24:\n        /* \"#utility.yul\":6638:6642   */\n      0x00\n        /* \"#utility.yul\":6676:6678   */\n      0x20\n        /* \"#utility.yul\":6665:6674   */\n      dup3\n        /* \"#utility.yul\":6661:6679   */\n      add\n        /* \"#utility.yul\":6653:6679   */\n      swap1\n      pop\n        /* \"#utility.yul\":6725:6734   */\n      dup2\n        /* \"#utility.yul\":6719:6723   */\n      dup2\n        /* \"#utility.yul\":6715:6735   */\n      sub\n        /* \"#utility.yul\":6711:6712   */\n      0x00\n        /* \"#utility.yul\":6700:6709   */\n      dup4\n        /* \"#utility.yul\":6696:6713   */\n      add\n        /* \"#utility.yul\":6689:6736   */\n      mstore\n        /* \"#utility.yul\":6753:6861   */\n      tag_159\n        /* \"#utility.yul\":6856:6860   */\n      dup2\n        /* \"#utility.yul\":6847:6853   */\n      dup5\n        /* \"#utility.yul\":6753:6861   */\n      tag_89\n      jump\t// in\n    tag_159:\n        /* \"#utility.yul\":6745:6861   */\n      swap1\n      pop\n        /* \"#utility.yul\":6495:6868   */\n      swap3\n      swap2\n      pop\n      pop\n      jump\t// out\n        /* \"#utility.yul\":6874:7054   */\n    tag_38:\n        /* \"#utility.yul\":6922:6999   */\n      0x4e487b7100000000000000000000000000000000000000000000000000000000\n        /* \"#utility.yul\":6919:6920   */\n      0x00\n        /* \"#utility.yul\":6912:7000   */\n      mstore\n        /* \"#utility.yul\":7019:7023   */\n      0x32\n        /* \"#utility.yul\":7016:7017   */\n      0x04\n        /* \"#utility.yul\":7009:7024   */\n      mstore\n        /* \"#utility.yul\":7043:7047   */\n      0x24\n        /* \"#utility.yul\":7040:7041   */\n      0x00\n        /* \"#utility.yul\":7033:7048   */\n      revert\n        /* \"#utility.yul\":7060:7240   */\n    tag_55:\n        /* \"#utility.yul\":7108:7185   */\n      0x4e487b7100000000000000000000000000000000000000000000000000000000\n        /* \"#utility.yul\":7105:7106   */\n      0x00\n        /* \"#utility.yul\":7098:7186   */\n      mstore\n        /* \"#utility.yul\":7205:7209   */\n      0x41\n        /* \"#utility.yul\":7202:7203   */\n      0x04\n        /* \"#utility.yul\":7195:7210   */\n      mstore\n        /* \"#utility.yul\":7229:7233   */\n      0x24\n        /* \"#utility.yul\":7226:7227   */\n      0x00\n        /* \"#utility.yul\":7219:7234   */\n      revert\n\n    auxdata: 0xa2646970667358221220e4568535bbf9b6ff3f152c3891b092f6efa4fe70bc2023bd694dce48533fab0764736f6c634300081a0033\n}\n",
				"bytecode": {
					"linkReferences": {},
					"object": "60806040526040518060600160405280600560ff168152602001600a60ff168152602001600f60ff168152505f90600361003a9291906100da565b506040518060800160405280600460ff168152602001600860ff168152602001600c60ff168152602001601060ff16815250600390600461007c92919061011f565b506040518060a00160405280600460ff168152602001600860ff168152602001600c60ff168152602001601060ff168152602001601460ff1681525060049060056100c892919061016f565b503480156100d4575f80fd5b506101da565b826003810192821561010e579160200282015b8281111561010d578251829060ff169055916020019190600101906100ed565b5b50905061011b91906101bf565b5090565b828054828255905f5260205f2090810192821561015e579160200282015b8281111561015d578251829060ff1690559160200191906001019061013d565b5b50905061016b91906101bf565b5090565b828054828255905f5260205f209081019282156101ae579160200282015b828111156101ad578251829060ff1690559160200191906001019061018d565b5b5090506101bb91906101bf565b5090565b5b808211156101d6575f815f9055506001016101c0565b5090565b61075b806101e75f395ff3fe608060405234801561000f575f80fd5b5060043610610055575f3560e01c80630acd5902146100595780632beaef6f1461008957806364446278146100b957806365df8f7f146100e9578063d5de87e814610107575b5f80fd5b610073600480360381019061006e9190610435565b610137565b604051610080919061053e565b60405180910390f35b6100a3600480360381019061009e9190610557565b6101ca565b6040516100b09190610601565b60405180910390f35b6100d360048036038101906100ce9190610557565b610239565b6040516100e091906106ab565b60405180910390f35b6100f1610290565b6040516100fe91906106ab565b60405180910390f35b610121600480360381019061011c9190610557565b61033c565b60405161012e91906106ab565b60405180910390f35b61013f6103ba565b6101476103ba565b85815f6004811061015b5761015a6106cb565b5b6020020181815250508481600160048110610179576101786106cb565b5b6020020181815250508381600260048110610197576101966106cb565b5b60200201818152505082816003600481106101b5576101b46106cb565b5b60200201818152505080915050949350505050565b6101d26103dc565b5f8060038060200260405190810160405280929190826003801561020b576020028201915b8154815260200190600101908083116101f7575b505050505090508281600160038110610227576102266106cb565b5b60200201818152505080915050919050565b60605f8267ffffffffffffffff811115610256576102556106f8565b5b6040519080825280602002602001820160405280156102845781602001602082028036833780820191505090505b50905080915050919050565b60605f60038054806020026020016040519081016040528092919081815260200182805480156102dd57602002820191905f5260205f20905b8154815260200190600101908083116102c9575b50505050509050600480548060200260200160405190810160405280929190818152602001828054801561032e57602002820191905f5260205f20905b81548152602001906001019080831161031a575b505050505090508091505090565b60605f600380548060200260200160405190810160405280929190818152602001828054801561038957602002820191905f5260205f20905b815481526020019060010190808311610375575b5050505050905082816001815181106103a5576103a46106cb565b5b60200260200101818152505080915050919050565b6040518060800160405280600490602082028036833780820191505090505090565b6040518060600160405280600390602082028036833780820191505090505090565b5f80fd5b5f819050919050565b61041481610402565b811461041e575f80fd5b50565b5f8135905061042f8161040b565b92915050565b5f805f806080858703121561044d5761044c6103fe565b5b5f61045a87828801610421565b945050602061046b87828801610421565b935050604061047c87828801610421565b925050606061048d87828801610421565b91505092959194509250565b5f60049050919050565b5f81905092915050565b5f819050919050565b6104bf81610402565b82525050565b5f6104d083836104b6565b60208301905092915050565b5f602082019050919050565b6104f181610499565b6104fb81846104a3565b9250610506826104ad565b805f5b8381101561053657815161051d87826104c5565b9650610528836104dc565b925050600181019050610509565b505050505050565b5f6080820190506105515f8301846104e8565b92915050565b5f6020828403121561056c5761056b6103fe565b5b5f61057984828501610421565b91505092915050565b5f60039050919050565b5f81905092915050565b5f819050919050565b5f602082019050919050565b6105b481610582565b6105be818461058c565b92506105c982610596565b805f5b838110156105f95781516105e087826104c5565b96506105eb8361059f565b9250506001810190506105cc565b505050505050565b5f6060820190506106145f8301846105ab565b92915050565b5f81519050919050565b5f82825260208201905092915050565b5f819050602082019050919050565b5f602082019050919050565b5f6106598261061a565b6106638185610624565b935061066e83610634565b805f5b8381101561069e57815161068588826104c5565b975061069083610643565b925050600181019050610671565b5085935050505092915050565b5f6020820190508181035f8301526106c3818461064f565b905092915050565b7f4e487b71000000000000000000000000000000000000000000000000000000005f52603260045260245ffd5b7f4e487b71000000000000000000000000000000000000000000000000000000005f52604160045260245ffdfea2646970667358221220e4568535bbf9b6ff3f152c3891b092f6efa4fe70bc2023bd694dce48533fab0764736f6c634300081a0033",
					"opcodes": "PUSH1 0x80 PUSH1 0x40 MSTORE PUSH1 0x40 MLOAD DUP1 PUSH1 0x60 ADD PUSH1 0x40 MSTORE DUP1 PUSH1 0x5 PUSH1 0xFF AND DUP2 MSTORE PUSH1 0x20 ADD PUSH1 0xA PUSH1 0xFF AND DUP2 MSTORE PUSH1 0x20 ADD PUSH1 0xF PUSH1 0xFF AND DUP2 MSTORE POP PUSH0 SWAP1 PUSH1 0x3 PUSH2 0x3A SWAP3 SWAP2 SWAP1 PUSH2 0xDA JUMP JUMPDEST POP PUSH1 0x40 MLOAD DUP1 PUSH1 0x80 ADD PUSH1 0x40 MSTORE DUP1 PUSH1 0x4 PUSH1 0xFF AND DUP2 MSTORE PUSH1 0x20 ADD PUSH1 0x8 PUSH1 0xFF AND DUP2 MSTORE PUSH1 0x20 ADD PUSH1 0xC PUSH1 0xFF AND DUP2 MSTORE PUSH1 0x20 ADD PUSH1 0x10 PUSH1 0xFF AND DUP2 MSTORE POP PUSH1 0x3 SWAP1 PUSH1 0x4 PUSH2 0x7C SWAP3 SWAP2 SWAP1 PUSH2 0x11F JUMP JUMPDEST POP PUSH1 0x40 MLOAD DUP1 PUSH1 0xA0 ADD PUSH1 0x40 MSTORE DUP1 PUSH1 0x4 PUSH1 0xFF AND DUP2 MSTORE PUSH1 0x20 ADD PUSH1 0x8 PUSH1 0xFF AND DUP2 MSTORE PUSH1 0x20 ADD PUSH1 0xC PUSH1 0xFF AND DUP2 MSTORE PUSH1 0x20 ADD PUSH1 0x10 PUSH1 0xFF AND DUP2 MSTORE PUSH1 0x20 ADD PUSH1 0x14 PUSH1 0xFF AND DUP2 MSTORE POP PUSH1 0x4 SWAP1 PUSH1 0x5 PUSH2 0xC8 SWAP3 SWAP2 SWAP1 PUSH2 0x16F JUMP JUMPDEST POP CALLVALUE DUP1 ISZERO PUSH2 0xD4 JUMPI PUSH0 DUP1 REVERT JUMPDEST POP PUSH2 0x1DA JUMP JUMPDEST DUP3 PUSH1 0x3 DUP2 ADD SWAP3 DUP3 ISZERO PUSH2 0x10E JUMPI SWAP2 PUSH1 0x20 MUL DUP3 ADD JUMPDEST DUP3 DUP2 GT ISZERO PUSH2 0x10D JUMPI DUP3 MLOAD DUP3 SWAP1 PUSH1 0xFF AND SWAP1 SSTORE SWAP2 PUSH1 0x20 ADD SWAP2 SWAP1 PUSH1 0x1 ADD SWAP1 PUSH2 0xED JUMP JUMPDEST JUMPDEST POP SWAP1 POP PUSH2 0x11B SWAP2 SWAP1 PUSH2 0x1BF JUMP JUMPDEST POP SWAP1 JUMP JUMPDEST DUP3 DUP1 SLOAD DUP3 DUP3 SSTORE SWAP1 PUSH0 MSTORE PUSH1 0x20 PUSH0 KECCAK256 SWAP1 DUP2 ADD SWAP3 DUP3 ISZERO PUSH2 0x15E JUMPI SWAP2 PUSH1 0x20 MUL DUP3 ADD JUMPDEST DUP3 DUP2 GT ISZERO PUSH2 0x15D JUMPI DUP3 MLOAD DUP3 SWAP1 PUSH1 0xFF AND SWAP1 SSTORE SWAP2 PUSH1 0x20 ADD SWAP2 SWAP1 PUSH1 0x1 ADD SWAP1 PUSH2 0x13D JUMP JUMPDEST JUMPDEST POP SWAP1 POP PUSH2 0x16B SWAP2 SWAP1 PUSH2 0x1BF JUMP JUMPDEST POP SWAP1 JUMP JUMPDEST DUP3 DUP1 SLOAD DUP3 DUP3 SSTORE SWAP1 PUSH0 MSTORE PUSH1 0x20 PUSH0 KECCAK256 SWAP1 DUP2 ADD SWAP3 DUP3 ISZERO PUSH2 0x1AE JUMPI SWAP2 PUSH1 0x20 MUL DUP3 ADD JUMPDEST DUP3 DUP2 GT ISZERO PUSH2 0x1AD JUMPI DUP3 MLOAD DUP3 SWAP1 PUSH1 0xFF AND SWAP1 SSTORE SWAP2 PUSH1 0x20 ADD SWAP2 SWAP1 PUSH1 0x1 ADD SWAP1 PUSH2 0x18D JUMP JUMPDEST JUMPDEST POP SWAP1 POP PUSH2 0x1BB SWAP2 SWAP1 PUSH2 0x1BF JUMP JUMPDEST POP SWAP1 JUMP JUMPDEST JUMPDEST DUP1 DUP3 GT ISZERO PUSH2 0x1D6 JUMPI PUSH0 DUP2 PUSH0 SWAP1 SSTORE POP PUSH1 0x1 ADD PUSH2 0x1C0 JUMP JUMPDEST POP SWAP1 JUMP JUMPDEST PUSH2 0x75B DUP1 PUSH2 0x1E7 PUSH0 CODECOPY PUSH0 RETURN INVALID PUSH1 0x80 PUSH1 0x40 MSTORE CALLVALUE DUP1 ISZERO PUSH2 0xF JUMPI PUSH0 DUP1 REVERT JUMPDEST POP PUSH1 0x4 CALLDATASIZE LT PUSH2 0x55 JUMPI PUSH0 CALLDATALOAD PUSH1 0xE0 SHR DUP1 PUSH4 0xACD5902 EQ PUSH2 0x59 JUMPI DUP1 PUSH4 0x2BEAEF6F EQ PUSH2 0x89 JUMPI DUP1 PUSH4 0x64446278 EQ PUSH2 0xB9 JUMPI DUP1 PUSH4 0x65DF8F7F EQ PUSH2 0xE9 JUMPI DUP1 PUSH4 0xD5DE87E8 EQ PUSH2 0x107 JUMPI JUMPDEST PUSH0 DUP1 REVERT JUMPDEST PUSH2 0x73 PUSH1 0x4 DUP1 CALLDATASIZE SUB DUP2 ADD SWAP1 PUSH2 0x6E SWAP2 SWAP1 PUSH2 0x435 JUMP JUMPDEST PUSH2 0x137 JUMP JUMPDEST PUSH1 0x40 MLOAD PUSH2 0x80 SWAP2 SWAP1 PUSH2 0x53E JUMP JUMPDEST PUSH1 0x40 MLOAD DUP1 SWAP2 SUB SWAP1 RETURN JUMPDEST PUSH2 0xA3 PUSH1 0x4 DUP1 CALLDATASIZE SUB DUP2 ADD SWAP1 PUSH2 0x9E SWAP2 SWAP1 PUSH2 0x557 JUMP JUMPDEST PUSH2 0x1CA JUMP JUMPDEST PUSH1 0x40 MLOAD PUSH2 0xB0 SWAP2 SWAP1 PUSH2 0x601 JUMP JUMPDEST PUSH1 0x40 MLOAD DUP1 SWAP2 SUB SWAP1 RETURN JUMPDEST PUSH2 0xD3 PUSH1 0x4 DUP1 CALLDATASIZE SUB DUP2 ADD SWAP1 PUSH2 0xCE SWAP2 SWAP1 PUSH2 0x557 JUMP JUMPDEST PUSH2 0x239 JUMP JUMPDEST PUSH1 0x40 MLOAD PUSH2 0xE0 SWAP2 SWAP1 PUSH2 0x6AB JUMP JUMPDEST PUSH1 0x40 MLOAD DUP1 SWAP2 SUB SWAP1 RETURN JUMPDEST PUSH2 0xF1 PUSH2 0x290 JUMP JUMPDEST PUSH1 0x40 MLOAD PUSH2 0xFE SWAP2 SWAP1 PUSH2 0x6AB JUMP JUMPDEST PUSH1 0x40 MLOAD DUP1 SWAP2 SUB SWAP1 RETURN JUMPDEST PUSH2 0x121 PUSH1 0x4 DUP1 CALLDATASIZE SUB DUP2 ADD SWAP1 PUSH2 0x11C SWAP2 SWAP1 PUSH2 0x557 JUMP JUMPDEST PUSH2 0x33C JUMP JUMPDEST PUSH1 0x40 MLOAD PUSH2 0x12E SWAP2 SWAP1 PUSH2 0x6AB JUMP JUMPDEST PUSH1 0x40 MLOAD DUP1 SWAP2 SUB SWAP1 RETURN JUMPDEST PUSH2 0x13F PUSH2 0x3BA JUMP JUMPDEST PUSH2 0x147 PUSH2 0x3BA JUMP JUMPDEST DUP6 DUP2 PUSH0 PUSH1 0x4 DUP2 LT PUSH2 0x15B JUMPI PUSH2 0x15A PUSH2 0x6CB JUMP JUMPDEST JUMPDEST PUSH1 0x20 MUL ADD DUP2 DUP2 MSTORE POP POP DUP5 DUP2 PUSH1 0x1 PUSH1 0x4 DUP2 LT PUSH2 0x179 JUMPI PUSH2 0x178 PUSH2 0x6CB JUMP JUMPDEST JUMPDEST PUSH1 0x20 MUL ADD DUP2 DUP2 MSTORE POP POP DUP4 DUP2 PUSH1 0x2 PUSH1 0x4 DUP2 LT PUSH2 0x197 JUMPI PUSH2 0x196 PUSH2 0x6CB JUMP JUMPDEST JUMPDEST PUSH1 0x20 MUL ADD DUP2 DUP2 MSTORE POP POP DUP3 DUP2 PUSH1 0x3 PUSH1 0x4 DUP2 LT PUSH2 0x1B5 JUMPI PUSH2 0x1B4 PUSH2 0x6CB JUMP JUMPDEST JUMPDEST PUSH1 0x20 MUL ADD DUP2 DUP2 MSTORE POP POP DUP1 SWAP2 POP POP SWAP5 SWAP4 POP POP POP POP JUMP JUMPDEST PUSH2 0x1D2 PUSH2 0x3DC JUMP JUMPDEST PUSH0 DUP1 PUSH1 0x3 DUP1 PUSH1 0x20 MUL PUSH1 0x40 MLOAD SWAP1 DUP2 ADD PUSH1 0x40 MSTORE DUP1 SWAP3 SWAP2 SWAP1 DUP3 PUSH1 0x3 DUP1 ISZERO PUSH2 0x20B JUMPI PUSH1 0x20 MUL DUP3 ADD SWAP2 JUMPDEST DUP2 SLOAD DUP2 MSTORE PUSH1 0x20 ADD SWAP1 PUSH1 0x1 ADD SWAP1 DUP1 DUP4 GT PUSH2 0x1F7 JUMPI JUMPDEST POP POP POP POP POP SWAP1 POP DUP3 DUP2 PUSH1 0x1 PUSH1 0x3 DUP2 LT PUSH2 0x227 JUMPI PUSH2 0x226 PUSH2 0x6CB JUMP JUMPDEST JUMPDEST PUSH1 0x20 MUL ADD DUP2 DUP2 MSTORE POP POP DUP1 SWAP2 POP POP SWAP2 SWAP1 POP JUMP JUMPDEST PUSH1 0x60 PUSH0 DUP3 PUSH8 0xFFFFFFFFFFFFFFFF DUP2 GT ISZERO PUSH2 0x256 JUMPI PUSH2 0x255 PUSH2 0x6F8 JUMP JUMPDEST JUMPDEST PUSH1 0x40 MLOAD SWAP1 DUP1 DUP3 MSTORE DUP1 PUSH1 0x20 MUL PUSH1 0x20 ADD DUP3 ADD PUSH1 0x40 MSTORE DUP1 ISZERO PUSH2 0x284 JUMPI DUP2 PUSH1 0x20 ADD PUSH1 0x20 DUP3 MUL DUP1 CALLDATASIZE DUP4 CALLDATACOPY DUP1 DUP3 ADD SWAP2 POP POP SWAP1 POP JUMPDEST POP SWAP1 POP DUP1 SWAP2 POP POP SWAP2 SWAP1 POP JUMP JUMPDEST PUSH1 0x60 PUSH0 PUSH1 0x3 DUP1 SLOAD DUP1 PUSH1 0x20 MUL PUSH1 0x20 ADD PUSH1 0x40 MLOAD SWAP1 DUP2 ADD PUSH1 0x40 MSTORE DUP1 SWAP3 SWAP2 SWAP1 DUP2 DUP2 MSTORE PUSH1 0x20 ADD DUP3 DUP1 SLOAD DUP1 ISZERO PUSH2 0x2DD JUMPI PUSH1 0x20 MUL DUP3 ADD SWAP2 SWAP1 PUSH0 MSTORE PUSH1 0x20 PUSH0 KECCAK256 SWAP1 JUMPDEST DUP2 SLOAD DUP2 MSTORE PUSH1 0x20 ADD SWAP1 PUSH1 0x1 ADD SWAP1 DUP1 DUP4 GT PUSH2 0x2C9 JUMPI JUMPDEST POP POP POP POP POP SWAP1 POP PUSH1 0x4 DUP1 SLOAD DUP1 PUSH1 0x20 MUL PUSH1 0x20 ADD PUSH1 0x40 MLOAD SWAP1 DUP2 ADD PUSH1 0x40 MSTORE DUP1 SWAP3 SWAP2 SWAP1 DUP2 DUP2 MSTORE PUSH1 0x20 ADD DUP3 DUP1 SLOAD DUP1 ISZERO PUSH2 0x32E JUMPI PUSH1 0x20 MUL DUP3 ADD SWAP2 SWAP1 PUSH0 MSTORE PUSH1 0x20 PUSH0 KECCAK256 SWAP1 JUMPDEST DUP2 SLOAD DUP2 MSTORE PUSH1 0x20 ADD SWAP1 PUSH1 0x1 ADD SWAP1 DUP1 DUP4 GT PUSH2 0x31A JUMPI JUMPDEST POP POP POP POP POP SWAP1 POP DUP1 SWAP2 POP POP SWAP1 JUMP JUMPDEST PUSH1 0x60 PUSH0 PUSH1 0x3 DUP1 SLOAD DUP1 PUSH1 0x20 MUL PUSH1 0x20 ADD PUSH1 0x40 MLOAD SWAP1 DUP2 ADD PUSH1 0x40 MSTORE DUP1 SWAP3 SWAP2 SWAP1 DUP2 DUP2 MSTORE PUSH1 0x20 ADD DUP3 DUP1 SLOAD DUP1 ISZERO PUSH2 0x389 JUMPI PUSH1 0x20 MUL DUP3 ADD SWAP2 SWAP1 PUSH0 MSTORE PUSH1 0x20 PUSH0 KECCAK256 SWAP1 JUMPDEST DUP2 SLOAD DUP2 MSTORE PUSH1 0x20 ADD SWAP1 PUSH1 0x1 ADD SWAP1 DUP1 DUP4 GT PUSH2 0x375 JUMPI JUMPDEST POP POP POP POP POP SWAP1 POP DUP3 DUP2 PUSH1 0x1 DUP2 MLOAD DUP2 LT PUSH2 0x3A5 JUMPI PUSH2 0x3A4 PUSH2 0x6CB JUMP JUMPDEST JUMPDEST PUSH1 0x20 MUL PUSH1 0x20 ADD ADD DUP2 DUP2 MSTORE POP POP DUP1 SWAP2 POP POP SWAP2 SWAP1 POP JUMP JUMPDEST PUSH1 0x40 MLOAD DUP1 PUSH1 0x80 ADD PUSH1 0x40 MSTORE DUP1 PUSH1 0x4 SWAP1 PUSH1 0x20 DUP3 MUL DUP1 CALLDATASIZE DUP4 CALLDATACOPY DUP1 DUP3 ADD SWAP2 POP POP SWAP1 POP POP SWAP1 JUMP JUMPDEST PUSH1 0x40 MLOAD DUP1 PUSH1 0x60 ADD PUSH1 0x40 MSTORE DUP1 PUSH1 0x3 SWAP1 PUSH1 0x20 DUP3 MUL DUP1 CALLDATASIZE DUP4 CALLDATACOPY DUP1 DUP3 ADD SWAP2 POP POP SWAP1 POP POP SWAP1 JUMP JUMPDEST PUSH0 DUP1 REVERT JUMPDEST PUSH0 DUP2 SWAP1 POP SWAP2 SWAP1 POP JUMP JUMPDEST PUSH2 0x414 DUP2 PUSH2 0x402 JUMP JUMPDEST DUP2 EQ PUSH2 0x41E JUMPI PUSH0 DUP1 REVERT JUMPDEST POP JUMP JUMPDEST PUSH0 DUP2 CALLDATALOAD SWAP1 POP PUSH2 0x42F DUP2 PUSH2 0x40B JUMP JUMPDEST SWAP3 SWAP2 POP POP JUMP JUMPDEST PUSH0 DUP1 PUSH0 DUP1 PUSH1 0x80 DUP6 DUP8 SUB SLT ISZERO PUSH2 0x44D JUMPI PUSH2 0x44C PUSH2 0x3FE JUMP JUMPDEST JUMPDEST PUSH0 PUSH2 0x45A DUP8 DUP3 DUP9 ADD PUSH2 0x421 JUMP JUMPDEST SWAP5 POP POP PUSH1 0x20 PUSH2 0x46B DUP8 DUP3 DUP9 ADD PUSH2 0x421 JUMP JUMPDEST SWAP4 POP POP PUSH1 0x40 PUSH2 0x47C DUP8 DUP3 DUP9 ADD PUSH2 0x421 JUMP JUMPDEST SWAP3 POP POP PUSH1 0x60 PUSH2 0x48D DUP8 DUP3 DUP9 ADD PUSH2 0x421 JUMP JUMPDEST SWAP2 POP POP SWAP3 SWAP6 SWAP2 SWAP5 POP SWAP3 POP JUMP JUMPDEST PUSH0 PUSH1 0x4 SWAP1 POP SWAP2 SWAP1 POP JUMP JUMPDEST PUSH0 DUP2 SWAP1 POP SWAP3 SWAP2 POP POP JUMP JUMPDEST PUSH0 DUP2 SWAP1 POP SWAP2 SWAP1 POP JUMP JUMPDEST PUSH2 0x4BF DUP2 PUSH2 0x402 JUMP JUMPDEST DUP3 MSTORE POP POP JUMP JUMPDEST PUSH0 PUSH2 0x4D0 DUP4 DUP4 PUSH2 0x4B6 JUMP JUMPDEST PUSH1 0x20 DUP4 ADD SWAP1 POP SWAP3 SWAP2 POP POP JUMP JUMPDEST PUSH0 PUSH1 0x20 DUP3 ADD SWAP1 POP SWAP2 SWAP1 POP JUMP JUMPDEST PUSH2 0x4F1 DUP2 PUSH2 0x499 JUMP JUMPDEST PUSH2 0x4FB DUP2 DUP5 PUSH2 0x4A3 JUMP JUMPDEST SWAP3 POP PUSH2 0x506 DUP3 PUSH2 0x4AD JUMP JUMPDEST DUP1 PUSH0 JUMPDEST DUP4 DUP2 LT ISZERO PUSH2 0x536 JUMPI DUP2 MLOAD PUSH2 0x51D DUP8 DUP3 PUSH2 0x4C5 JUMP JUMPDEST SWAP7 POP PUSH2 0x528 DUP4 PUSH2 0x4DC JUMP JUMPDEST SWAP3 POP POP PUSH1 0x1 DUP2 ADD SWAP1 POP PUSH2 0x509 JUMP JUMPDEST POP POP POP POP POP POP JUMP JUMPDEST PUSH0 PUSH1 0x80 DUP3 ADD SWAP1 POP PUSH2 0x551 PUSH0 DUP4 ADD DUP5 PUSH2 0x4E8 JUMP JUMPDEST SWAP3 SWAP2 POP POP JUMP JUMPDEST PUSH0 PUSH1 0x20 DUP3 DUP5 SUB SLT ISZERO PUSH2 0x56C JUMPI PUSH2 0x56B PUSH2 0x3FE JUMP JUMPDEST JUMPDEST PUSH0 PUSH2 0x579 DUP5 DUP3 DUP6 ADD PUSH2 0x421 JUMP JUMPDEST SWAP2 POP POP SWAP3 SWAP2 POP POP JUMP JUMPDEST PUSH0 PUSH1 0x3 SWAP1 POP SWAP2 SWAP1 POP JUMP JUMPDEST PUSH0 DUP2 SWAP1 POP SWAP3 SWAP2 POP POP JUMP JUMPDEST PUSH0 DUP2 SWAP1 POP SWAP2 SWAP1 POP JUMP JUMPDEST PUSH0 PUSH1 0x20 DUP3 ADD SWAP1 POP SWAP2 SWAP1 POP JUMP JUMPDEST PUSH2 0x5B4 DUP2 PUSH2 0x582 JUMP JUMPDEST PUSH2 0x5BE DUP2 DUP5 PUSH2 0x58C JUMP JUMPDEST SWAP3 POP PUSH2 0x5C9 DUP3 PUSH2 0x596 JUMP JUMPDEST DUP1 PUSH0 JUMPDEST DUP4 DUP2 LT ISZERO PUSH2 0x5F9 JUMPI DUP2 MLOAD PUSH2 0x5E0 DUP8 DUP3 PUSH2 0x4C5 JUMP JUMPDEST SWAP7 POP PUSH2 0x5EB DUP4 PUSH2 0x59F JUMP JUMPDEST SWAP3 POP POP PUSH1 0x1 DUP2 ADD SWAP1 POP PUSH2 0x5CC JUMP JUMPDEST POP POP POP POP POP POP JUMP JUMPDEST PUSH0 PUSH1 0x60 DUP3 ADD SWAP1 POP PUSH2 0x614 PUSH0 DUP4 ADD DUP5 PUSH2 0x5AB JUMP JUMPDEST SWAP3 SWAP2 POP POP JUMP JUMPDEST PUSH0 DUP2 MLOAD SWAP1 POP SWAP2 SWAP1 POP JUMP JUMPDEST PUSH0 DUP3 DUP3 MSTORE PUSH1 0x20 DUP3 ADD SWAP1 POP SWAP3 SWAP2 POP POP JUMP JUMPDEST PUSH0 DUP2 SWAP1 POP PUSH1 0x20 DUP3 ADD SWAP1 POP SWAP2 SWAP1 POP JUMP JUMPDEST PUSH0 PUSH1 0x20 DUP3 ADD SWAP1 POP SWAP2 SWAP1 POP JUMP JUMPDEST PUSH0 PUSH2 0x659 DUP3 PUSH2 0x61A JUMP JUMPDEST PUSH2 0x663 DUP2 DUP6 PUSH2 0x624 JUMP JUMPDEST SWAP4 POP PUSH2 0x66E DUP4 PUSH2 0x634 JUMP JUMPDEST DUP1 PUSH0 JUMPDEST DUP4 DUP2 LT ISZERO PUSH2 0x69E JUMPI DUP2 MLOAD PUSH2 0x685 DUP9 DUP3 PUSH2 0x4C5 JUMP JUMPDEST SWAP8 POP PUSH2 0x690 DUP4 PUSH2 0x643 JUMP JUMPDEST SWAP3 POP POP PUSH1 0x1 DUP2 ADD SWAP1 POP PUSH2 0x671 JUMP JUMPDEST POP DUP6 SWAP4 POP POP POP POP SWAP3 SWAP2 POP POP JUMP JUMPDEST PUSH0 PUSH1 0x20 DUP3 ADD SWAP1 POP DUP2 DUP2 SUB PUSH0 DUP4 ADD MSTORE PUSH2 0x6C3 DUP2 DUP5 PUSH2 0x64F JUMP JUMPDEST SWAP1 POP SWAP3 SWAP2 POP POP JUMP JUMPDEST PUSH32 0x4E487B7100000000000000000000000000000000000000000000000000000000 PUSH0 MSTORE PUSH1 0x32 PUSH1 0x4 MSTORE PUSH1 0x24 PUSH0 REVERT JUMPDEST PUSH32 0x4E487B7100000000000000000000000000000000000000000000000000000000 PUSH0 MSTORE PUSH1 0x41 PUSH1 0x4 MSTORE PUSH1 0x24 PUSH0 REVERT INVALID LOG2 PUSH5 0x6970667358 0x22 SLT KECCAK256 0xE4 JUMP DUP6 CALLDATALOAD 0xBB 0xF9 0xB6 SELFDESTRUCT EXTCODEHASH ISZERO 0x2C CODESIZE SWAP2 0xB0 SWAP3 0xF6 0xEF LOG4 INVALID PUSH17 0xBC2023BD694DCE48533FAB0764736F6C63 NUMBER STOP ADDMOD BYTE STOP CALLER "
				},
				"gasEstimates": {
					"creation": {
						"codeDepositCost": "376600",
						"executionCost": "infinite",
						"totalCost": "infinite"
					},
					"external": {
						"setArray(uint256,uint256,uint256,uint256)": "infinite",
						"setArray2(uint256)": "infinite",
						"setArray3(uint256)": "infinite",
						"setArray4(uint256)": "infinite",
						"setArray5()": "infinite"
					}
				},
				"methodIdentifiers": {
					"setArray(uint256,uint256,uint256,uint256)": "0acd5902",
					"setArray2(uint256)": "64446278",
					"setArray3(uint256)": "2beaef6f",
					"setArray4(uint256)": "d5de87e8",
					"setArray5()": "65df8f7f"
				}
			},
			"storageLayout": {
				"storage": [
					{
						"astId": 160,
						"contract": "contracts/lecture/sorting.sol:ARRAY_LOCAL",
						"label": "numbers1",
						"offset": 0,
						"slot": "0",
						"type": "t_array(t_uint256)3_storage"
					},
					{
						"astId": 168,
						"contract": "contracts/lecture/sorting.sol:ARRAY_LOCAL",
						"label": "numbers2",
						"offset": 0,
						"slot": "3",
						"type": "t_array(t_uint256)dyn_storage"
					},
					{
						"astId": 177,
						"contract": "contracts/lecture/sorting.sol:ARRAY_LOCAL",
						"label": "numbers3",
						"offset": 0,
						"slot": "4",
						"type": "t_array(t_uint256)dyn_storage"
					}
				],
				"types": {
					"t_array(t_uint256)3_storage": {
						"base": "t_uint256",
						"encoding": "inplace",
						"label": "uint256[3]",
						"numberOfBytes": "96"
					},
					"t_array(t_uint256)dyn_storage": {
						"base": "t_uint256",
						"encoding": "dynamic_array",
						"label": "uint256[]",
						"numberOfBytes": "32"
					},
					"t_uint256": {
						"encoding": "inplace",
						"label": "uint256",
						"numberOfBytes": "32"
					}
				}
			},
			"userdoc": {
				"kind": "user",
				"methods": {},
				"version": 1
			}
		}
	}
}