{
	"contracts/lecture/sorting.sol": {
		"SORTING": {
			"abi": [
				{
					"inputs": [],
					"name": "ascending",
					"outputs": [
						{
							"internalType": "uint256[]",
							"name": "",
							"type": "uint256[]"
						}
					],
					"stateMutability": "view",
					"type": "function"
				},
				{
					"inputs": [],
					"name": "descending",
					"outputs": [
						{
							"internalType": "uint256[]",
							"name": "",
							"type": "uint256[]"
						}
					],
					"stateMutability": "view",
					"type": "function"
				}
			],
			"devdoc": {
				"kind": "dev",
				"methods": {},
				"version": 1
			},
			"evm": {
				"assembly": "    /* \"contracts/lecture/sorting.sol\":74:1003  contract SORTING {... */\n  mstore(0x40, 0x80)\n    /* \"contracts/lecture/sorting.sol\":98:134  uint[] numbers = [1, 3, 7, 4, 11, 2] */\n  mload(0x40)\n  dup1\n  0xc0\n  add\n  0x40\n  mstore\n  dup1\n    /* \"contracts/lecture/sorting.sol\":116:117  1 */\n  0x01\n    /* \"contracts/lecture/sorting.sol\":98:134  uint[] numbers = [1, 3, 7, 4, 11, 2] */\n  0xff\n  and\n  dup2\n  mstore\n  0x20\n  add\n    /* \"contracts/lecture/sorting.sol\":119:120  3 */\n  0x03\n    /* \"contracts/lecture/sorting.sol\":98:134  uint[] numbers = [1, 3, 7, 4, 11, 2] */\n  0xff\n  and\n  dup2\n  mstore\n  0x20\n  add\n    /* \"contracts/lecture/sorting.sol\":122:123  7 */\n  0x07\n    /* \"contracts/lecture/sorting.sol\":98:134  uint[] numbers = [1, 3, 7, 4, 11, 2] */\n  0xff\n  and\n  dup2\n  mstore\n  0x20\n  add\n    /* \"contracts/lecture/sorting.sol\":125:126  4 */\n  0x04\n    /* \"contracts/lecture/sorting.sol\":98:134  uint[] numbers = [1, 3, 7, 4, 11, 2] */\n  0xff\n  and\n  dup2\n  mstore\n  0x20\n  add\n    /* \"contracts/lecture/sorting.sol\":128:130  11 */\n  0x0b\n    /* \"contracts/lecture/sorting.sol\":98:134  uint[] numbers = [1, 3, 7, 4, 11, 2] */\n  0xff\n  and\n  dup2\n  mstore\n  0x20\n  add\n    /* \"contracts/lecture/sorting.sol\":132:133  2 */\n  0x02\n    /* \"contracts/lecture/sorting.sol\":98:134  uint[] numbers = [1, 3, 7, 4, 11, 2] */\n  0xff\n  and\n  dup2\n  mstore\n  pop\n  0x00\n  swap1\n  0x06\n  tag_1\n  swap3\n  swap2\n  swap1\n  tag_2\n  jump\t// in\ntag_1:\n  pop\n    /* \"contracts/lecture/sorting.sol\":74:1003  contract SORTING {... */\n  callvalue\n  dup1\n  iszero\n  tag_3\n  jumpi\n  0x00\n  dup1\n  revert\ntag_3:\n  pop\n  jump(tag_4)\ntag_2:\n  dup3\n  dup1\n  sload\n  dup3\n  dup3\n  sstore\n  swap1\n  0x00\n  mstore\n  keccak256(0x00, 0x20)\n  swap1\n  dup2\n  add\n  swap3\n  dup3\n  iszero\n  tag_5\n  jumpi\n  swap2\n  0x20\n  mul\n  dup3\n  add\ntag_6:\n  dup3\n  dup2\n  gt\n  iszero\n  tag_7\n  jumpi\n  dup3\n  mload\n  dup3\n  swap1\n  0xff\n  and\n  swap1\n  sstore\n  swap2\n  0x20\n  add\n  swap2\n  swap1\n  0x01\n  add\n  swap1\n  jump(tag_6)\ntag_7:\ntag_5:\n  pop\n  swap1\n  pop\n  tag_8\n  swap2\n  swap1\n  tag_9\n  jump\t// in\ntag_8:\n  pop\n  swap1\n  jump\t// out\ntag_9:\ntag_10:\n  dup1\n  dup3\n  gt\n  iszero\n  tag_11\n  jumpi\n  0x00\n  dup2\n  0x00\n  swap1\n  sstore\n  pop\n  0x01\n  add\n  jump(tag_10)\ntag_11:\n  pop\n  swap1\n  jump\t// out\ntag_4:\n  dataSize(sub_0)\n  dup1\n  dataOffset(sub_0)\n  0x00\n  codecopy\n  0x00\n  return\nstop\n\nsub_0: assembly {\n        /* \"contracts/lecture/sorting.sol\":74:1003  contract SORTING {... */\n      mstore(0x40, 0x80)\n      callvalue\n      dup1\n      iszero\n      tag_1\n      jumpi\n      0x00\n      dup1\n      revert\n    tag_1:\n      pop\n      jumpi(tag_2, lt(calldatasize, 0x04))\n      shr(0xe0, calldataload(0x00))\n      dup1\n      0x2e9bb9e0\n      eq\n      tag_3\n      jumpi\n      dup1\n      0x94c06a58\n      eq\n      tag_4\n      jumpi\n    tag_2:\n      0x00\n      dup1\n      revert\n        /* \"contracts/lecture/sorting.sol\":573:1000  function ascending() public view returns (uint[] memory) {... */\n    tag_3:\n      tag_5\n      tag_6\n      jump\t// in\n    tag_5:\n      mload(0x40)\n      tag_7\n      swap2\n      swap1\n      tag_8\n      jump\t// in\n    tag_7:\n      mload(0x40)\n      dup1\n      swap2\n      sub\n      swap1\n      return\n        /* \"contracts/lecture/sorting.sol\":143:565  function descending() public view returns (uint[] memory) {... */\n    tag_4:\n      tag_9\n      tag_10\n      jump\t// in\n    tag_9:\n      mload(0x40)\n      tag_11\n      swap2\n      swap1\n      tag_8\n      jump\t// in\n    tag_11:\n      mload(0x40)\n      dup1\n      swap2\n      sub\n      swap1\n      return\n        /* \"contracts/lecture/sorting.sol\":573:1000  function ascending() public view returns (uint[] memory) {... */\n    tag_6:\n        /* \"contracts/lecture/sorting.sol\":615:628  uint[] memory */\n      0x60\n        /* \"contracts/lecture/sorting.sol\":641:663  uint[] memory _numbers */\n      0x00\n        /* \"contracts/lecture/sorting.sol\":666:673  numbers */\n      dup1\n        /* \"contracts/lecture/sorting.sol\":641:673  uint[] memory _numbers = numbers */\n      dup1\n      sload\n      dup1\n      0x20\n      mul\n      0x20\n      add\n      mload(0x40)\n      swap1\n      dup2\n      add\n      0x40\n      mstore\n      dup1\n      swap3\n      swap2\n      swap1\n      dup2\n      dup2\n      mstore\n      0x20\n      add\n      dup3\n      dup1\n      sload\n      dup1\n      iszero\n      tag_13\n      jumpi\n      0x20\n      mul\n      dup3\n      add\n      swap2\n      swap1\n      0x00\n      mstore\n      keccak256(0x00, 0x20)\n      swap1\n    tag_14:\n      dup2\n      sload\n      dup2\n      mstore\n      0x20\n      add\n      swap1\n      0x01\n      add\n      swap1\n      dup1\n      dup4\n      gt\n      tag_14\n      jumpi\n    tag_13:\n      pop\n      pop\n      pop\n      pop\n      pop\n      swap1\n      pop\n        /* \"contracts/lecture/sorting.sol\":689:695  uint i */\n      0x00\n        /* \"contracts/lecture/sorting.sol\":684:967  for (uint i = 0; i < _numbers.length - 1; i++) {... */\n    tag_15:\n        /* \"contracts/lecture/sorting.sol\":723:724  1 */\n      0x01\n        /* \"contracts/lecture/sorting.sol\":705:713  _numbers */\n      dup3\n        /* \"contracts/lecture/sorting.sol\":705:720  _numbers.length */\n      mload\n        /* \"contracts/lecture/sorting.sol\":705:724  _numbers.length - 1 */\n      tag_18\n      swap2\n      swap1\n      tag_19\n      jump\t// in\n    tag_18:\n        /* \"contracts/lecture/sorting.sol\":701:702  i */\n      dup2\n        /* \"contracts/lecture/sorting.sol\":701:724  i < _numbers.length - 1 */\n      lt\n        /* \"contracts/lecture/sorting.sol\":684:967  for (uint i = 0; i < _numbers.length - 1; i++) {... */\n      iszero\n      tag_16\n      jumpi\n        /* \"contracts/lecture/sorting.sol\":751:757  uint j */\n      0x00\n        /* \"contracts/lecture/sorting.sol\":764:765  1 */\n      0x01\n        /* \"contracts/lecture/sorting.sol\":760:761  i */\n      dup3\n        /* \"contracts/lecture/sorting.sol\":760:765  i + 1 */\n      tag_23\n      swap2\n      swap1\n      tag_24\n      jump\t// in\n    tag_23:\n        /* \"contracts/lecture/sorting.sol\":751:765  uint j = i + 1 */\n      swap1\n      pop\n        /* \"contracts/lecture/sorting.sol\":746:956  for (uint j = i + 1; j < _numbers.length; j++) {... */\n    tag_20:\n        /* \"contracts/lecture/sorting.sol\":771:779  _numbers */\n      dup3\n        /* \"contracts/lecture/sorting.sol\":771:786  _numbers.length */\n      mload\n        /* \"contracts/lecture/sorting.sol\":767:768  j */\n      dup2\n        /* \"contracts/lecture/sorting.sol\":767:786  j < _numbers.length */\n      lt\n        /* \"contracts/lecture/sorting.sol\":746:956  for (uint j = i + 1; j < _numbers.length; j++) {... */\n      iszero\n      tag_21\n      jumpi\n        /* \"contracts/lecture/sorting.sol\":830:838  _numbers */\n      dup3\n        /* \"contracts/lecture/sorting.sol\":839:840  j */\n      dup2\n        /* \"contracts/lecture/sorting.sol\":830:841  _numbers[j] */\n      dup2\n      mload\n      dup2\n      lt\n      tag_25\n      jumpi\n      tag_26\n      tag_27\n      jump\t// in\n    tag_26:\n    tag_25:\n      0x20\n      mul\n      0x20\n      add\n      add\n      mload\n        /* \"contracts/lecture/sorting.sol\":816:824  _numbers */\n      dup4\n        /* \"contracts/lecture/sorting.sol\":825:826  i */\n      dup4\n        /* \"contracts/lecture/sorting.sol\":816:827  _numbers[i] */\n      dup2\n      mload\n      dup2\n      lt\n      tag_28\n      jumpi\n      tag_29\n      tag_27\n      jump\t// in\n    tag_29:\n    tag_28:\n      0x20\n      mul\n      0x20\n      add\n      add\n      mload\n        /* \"contracts/lecture/sorting.sol\":816:841  _numbers[i] > _numbers[j] */\n      gt\n        /* \"contracts/lecture/sorting.sol\":812:941  if (_numbers[i] > _numbers[j]) {... */\n      iszero\n      tag_30\n      jumpi\n        /* \"contracts/lecture/sorting.sol\":896:904  _numbers */\n      dup3\n        /* \"contracts/lecture/sorting.sol\":905:906  j */\n      dup2\n        /* \"contracts/lecture/sorting.sol\":896:907  _numbers[j] */\n      dup2\n      mload\n      dup2\n      lt\n      tag_31\n      jumpi\n      tag_32\n      tag_27\n      jump\t// in\n    tag_32:\n    tag_31:\n      0x20\n      mul\n      0x20\n      add\n      add\n      mload\n        /* \"contracts/lecture/sorting.sol\":909:917  _numbers */\n      dup4\n        /* \"contracts/lecture/sorting.sol\":918:919  i */\n      dup4\n        /* \"contracts/lecture/sorting.sol\":909:920  _numbers[i] */\n      dup2\n      mload\n      dup2\n      lt\n      tag_33\n      jumpi\n      tag_34\n      tag_27\n      jump\t// in\n    tag_34:\n    tag_33:\n      0x20\n      mul\n      0x20\n      add\n      add\n      mload\n        /* \"contracts/lecture/sorting.sol\":867:875  _numbers */\n      dup5\n        /* \"contracts/lecture/sorting.sol\":876:877  i */\n      dup5\n        /* \"contracts/lecture/sorting.sol\":867:878  _numbers[i] */\n      dup2\n      mload\n      dup2\n      lt\n      tag_35\n      jumpi\n      tag_36\n      tag_27\n      jump\t// in\n    tag_36:\n    tag_35:\n      0x20\n      mul\n      0x20\n      add\n      add\n        /* \"contracts/lecture/sorting.sol\":880:888  _numbers */\n      dup6\n        /* \"contracts/lecture/sorting.sol\":889:890  j */\n      dup5\n        /* \"contracts/lecture/sorting.sol\":880:891  _numbers[j] */\n      dup2\n      mload\n      dup2\n      lt\n      tag_37\n      jumpi\n      tag_38\n      tag_27\n      jump\t// in\n    tag_38:\n    tag_37:\n      0x20\n      mul\n      0x20\n      add\n      add\n        /* \"contracts/lecture/sorting.sol\":866:921  (_numbers[i], _numbers[j]) = (_numbers[j], _numbers[i]) */\n      dup3\n      dup2\n      mstore\n      pop\n      dup3\n      dup2\n      mstore\n      pop\n      pop\n      pop\n        /* \"contracts/lecture/sorting.sol\":812:941  if (_numbers[i] > _numbers[j]) {... */\n    tag_30:\n        /* \"contracts/lecture/sorting.sol\":788:791  j++ */\n      dup1\n      dup1\n      0x01\n      add\n      swap2\n      pop\n      pop\n        /* \"contracts/lecture/sorting.sol\":746:956  for (uint j = i + 1; j < _numbers.length; j++) {... */\n      jump(tag_20)\n    tag_21:\n      pop\n        /* \"contracts/lecture/sorting.sol\":726:729  i++ */\n      dup1\n      dup1\n      0x01\n      add\n      swap2\n      pop\n      pop\n        /* \"contracts/lecture/sorting.sol\":684:967  for (uint i = 0; i < _numbers.length - 1; i++) {... */\n      jump(tag_15)\n    tag_16:\n      pop\n        /* \"contracts/lecture/sorting.sol\":984:992  _numbers */\n      dup1\n        /* \"contracts/lecture/sorting.sol\":977:992  return _numbers */\n      swap2\n      pop\n      pop\n        /* \"contracts/lecture/sorting.sol\":573:1000  function ascending() public view returns (uint[] memory) {... */\n      swap1\n      jump\t// out\n        /* \"contracts/lecture/sorting.sol\":143:565  function descending() public view returns (uint[] memory) {... */\n    tag_10:\n        /* \"contracts/lecture/sorting.sol\":186:199  uint[] memory */\n      0x60\n        /* \"contracts/lecture/sorting.sol\":212:234  uint[] memory _numbers */\n      0x00\n        /* \"contracts/lecture/sorting.sol\":237:244  numbers */\n      dup1\n        /* \"contracts/lecture/sorting.sol\":212:244  uint[] memory _numbers = numbers */\n      dup1\n      sload\n      dup1\n      0x20\n      mul\n      0x20\n      add\n      mload(0x40)\n      swap1\n      dup2\n      add\n      0x40\n      mstore\n      dup1\n      swap3\n      swap2\n      swap1\n      dup2\n      dup2\n      mstore\n      0x20\n      add\n      dup3\n      dup1\n      sload\n      dup1\n      iszero\n      tag_40\n      jumpi\n      0x20\n      mul\n      dup3\n      add\n      swap2\n      swap1\n      0x00\n      mstore\n      keccak256(0x00, 0x20)\n      swap1\n    tag_41:\n      dup2\n      sload\n      dup2\n      mstore\n      0x20\n      add\n      swap1\n      0x01\n      add\n      swap1\n      dup1\n      dup4\n      gt\n      tag_41\n      jumpi\n    tag_40:\n      pop\n      pop\n      pop\n      pop\n      pop\n      swap1\n      pop\n        /* \"contracts/lecture/sorting.sol\":259:265  uint i */\n      0x00\n        /* \"contracts/lecture/sorting.sol\":255:530  for(uint i = 0; i < _numbers.length; i++){... */\n    tag_42:\n        /* \"contracts/lecture/sorting.sol\":275:283  _numbers */\n      dup2\n        /* \"contracts/lecture/sorting.sol\":275:290  _numbers.length */\n      mload\n        /* \"contracts/lecture/sorting.sol\":271:272  i */\n      dup2\n        /* \"contracts/lecture/sorting.sol\":271:290  i < _numbers.length */\n      lt\n        /* \"contracts/lecture/sorting.sol\":255:530  for(uint i = 0; i < _numbers.length; i++){... */\n      iszero\n      tag_43\n      jumpi\n        /* \"contracts/lecture/sorting.sol\":315:321  uint j */\n      0x00\n        /* \"contracts/lecture/sorting.sol\":328:329  1 */\n      0x01\n        /* \"contracts/lecture/sorting.sol\":324:325  i */\n      dup3\n        /* \"contracts/lecture/sorting.sol\":324:329  i + 1 */\n      tag_48\n      swap2\n      swap1\n      tag_24\n      jump\t// in\n    tag_48:\n        /* \"contracts/lecture/sorting.sol\":315:329  uint j = i + 1 */\n      swap1\n      pop\n        /* \"contracts/lecture/sorting.sol\":311:519  for(uint j = i + 1; j < numbers.length; j++) {... */\n    tag_45:\n        /* \"contracts/lecture/sorting.sol\":335:342  numbers */\n      0x00\n        /* \"contracts/lecture/sorting.sol\":335:349  numbers.length */\n      dup1\n      sload\n      swap1\n      pop\n        /* \"contracts/lecture/sorting.sol\":331:332  j */\n      dup2\n        /* \"contracts/lecture/sorting.sol\":331:349  j < numbers.length */\n      lt\n        /* \"contracts/lecture/sorting.sol\":311:519  for(uint j = i + 1; j < numbers.length; j++) {... */\n      iszero\n      tag_46\n      jumpi\n        /* \"contracts/lecture/sorting.sol\":393:401  _numbers */\n      dup3\n        /* \"contracts/lecture/sorting.sol\":402:403  j */\n      dup2\n        /* \"contracts/lecture/sorting.sol\":393:404  _numbers[j] */\n      dup2\n      mload\n      dup2\n      lt\n      tag_49\n      jumpi\n      tag_50\n      tag_27\n      jump\t// in\n    tag_50:\n    tag_49:\n      0x20\n      mul\n      0x20\n      add\n      add\n      mload\n        /* \"contracts/lecture/sorting.sol\":379:387  _numbers */\n      dup4\n        /* \"contracts/lecture/sorting.sol\":388:389  i */\n      dup4\n        /* \"contracts/lecture/sorting.sol\":379:390  _numbers[i] */\n      dup2\n      mload\n      dup2\n      lt\n      tag_51\n      jumpi\n      tag_52\n      tag_27\n      jump\t// in\n    tag_52:\n    tag_51:\n      0x20\n      mul\n      0x20\n      add\n      add\n      mload\n        /* \"contracts/lecture/sorting.sol\":379:404  _numbers[i] < _numbers[j] */\n      lt\n        /* \"contracts/lecture/sorting.sol\":375:504  if (_numbers[i] < _numbers[j]) {... */\n      iszero\n      tag_53\n      jumpi\n        /* \"contracts/lecture/sorting.sol\":459:467  _numbers */\n      dup3\n        /* \"contracts/lecture/sorting.sol\":468:469  j */\n      dup2\n        /* \"contracts/lecture/sorting.sol\":459:470  _numbers[j] */\n      dup2\n      mload\n      dup2\n      lt\n      tag_54\n      jumpi\n      tag_55\n      tag_27\n      jump\t// in\n    tag_55:\n    tag_54:\n      0x20\n      mul\n      0x20\n      add\n      add\n      mload\n        /* \"contracts/lecture/sorting.sol\":472:480  _numbers */\n      dup4\n        /* \"contracts/lecture/sorting.sol\":481:482  j */\n      dup3\n        /* \"contracts/lecture/sorting.sol\":472:483  _numbers[j] */\n      dup2\n      mload\n      dup2\n      lt\n      tag_56\n      jumpi\n      tag_57\n      tag_27\n      jump\t// in\n    tag_57:\n    tag_56:\n      0x20\n      mul\n      0x20\n      add\n      add\n      mload\n        /* \"contracts/lecture/sorting.sol\":430:438  _numbers */\n      dup5\n        /* \"contracts/lecture/sorting.sol\":439:440  i */\n      dup5\n        /* \"contracts/lecture/sorting.sol\":430:441  _numbers[i] */\n      dup2\n      mload\n      dup2\n      lt\n      tag_58\n      jumpi\n      tag_59\n      tag_27\n      jump\t// in\n    tag_59:\n    tag_58:\n      0x20\n      mul\n      0x20\n      add\n      add\n        /* \"contracts/lecture/sorting.sol\":443:451  _numbers */\n      dup6\n        /* \"contracts/lecture/sorting.sol\":452:453  j */\n      dup5\n        /* \"contracts/lecture/sorting.sol\":443:454  _numbers[j] */\n      dup2\n      mload\n      dup2\n      lt\n      tag_60\n      jumpi\n      tag_61\n      tag_27\n      jump\t// in\n    tag_61:\n    tag_60:\n      0x20\n      mul\n      0x20\n      add\n      add\n        /* \"contracts/lecture/sorting.sol\":429:484  (_numbers[i], _numbers[j]) = (_numbers[j], _numbers[j]) */\n      dup3\n      dup2\n      mstore\n      pop\n      dup3\n      dup2\n      mstore\n      pop\n      pop\n      pop\n        /* \"contracts/lecture/sorting.sol\":375:504  if (_numbers[i] < _numbers[j]) {... */\n    tag_53:\n        /* \"contracts/lecture/sorting.sol\":351:354  j++ */\n      dup1\n      dup1\n      0x01\n      add\n      swap2\n      pop\n      pop\n        /* \"contracts/lecture/sorting.sol\":311:519  for(uint j = i + 1; j < numbers.length; j++) {... */\n      jump(tag_45)\n    tag_46:\n      pop\n        /* \"contracts/lecture/sorting.sol\":292:295  i++ */\n      dup1\n      dup1\n      0x01\n      add\n      swap2\n      pop\n      pop\n        /* \"contracts/lecture/sorting.sol\":255:530  for(uint i = 0; i < _numbers.length; i++){... */\n      jump(tag_42)\n    tag_43:\n      pop\n        /* \"contracts/lecture/sorting.sol\":549:557  _numbers */\n      dup1\n        /* \"contracts/lecture/sorting.sol\":542:557  return _numbers */\n      swap2\n      pop\n      pop\n        /* \"contracts/lecture/sorting.sol\":143:565  function descending() public view returns (uint[] memory) {... */\n      swap1\n      jump\t// out\n        /* \"#utility.yul\":7:121   */\n    tag_62:\n        /* \"#utility.yul\":74:80   */\n      0x00\n        /* \"#utility.yul\":108:113   */\n      dup2\n        /* \"#utility.yul\":102:114   */\n      mload\n        /* \"#utility.yul\":92:114   */\n      swap1\n      pop\n        /* \"#utility.yul\":7:121   */\n      swap2\n      swap1\n      pop\n      jump\t// out\n        /* \"#utility.yul\":127:311   */\n    tag_63:\n        /* \"#utility.yul\":226:237   */\n      0x00\n        /* \"#utility.yul\":260:266   */\n      dup3\n        /* \"#utility.yul\":255:258   */\n      dup3\n        /* \"#utility.yul\":248:267   */\n      mstore\n        /* \"#utility.yul\":300:304   */\n      0x20\n        /* \"#utility.yul\":295:298   */\n      dup3\n        /* \"#utility.yul\":291:305   */\n      add\n        /* \"#utility.yul\":276:305   */\n      swap1\n      pop\n        /* \"#utility.yul\":127:311   */\n      swap3\n      swap2\n      pop\n      pop\n      jump\t// out\n        /* \"#utility.yul\":317:449   */\n    tag_64:\n        /* \"#utility.yul\":384:388   */\n      0x00\n        /* \"#utility.yul\":407:410   */\n      dup2\n        /* \"#utility.yul\":399:410   */\n      swap1\n      pop\n        /* \"#utility.yul\":437:441   */\n      0x20\n        /* \"#utility.yul\":432:435   */\n      dup3\n        /* \"#utility.yul\":428:442   */\n      add\n        /* \"#utility.yul\":420:442   */\n      swap1\n      pop\n        /* \"#utility.yul\":317:449   */\n      swap2\n      swap1\n      pop\n      jump\t// out\n        /* \"#utility.yul\":455:532   */\n    tag_65:\n        /* \"#utility.yul\":492:499   */\n      0x00\n        /* \"#utility.yul\":521:526   */\n      dup2\n        /* \"#utility.yul\":510:526   */\n      swap1\n      pop\n        /* \"#utility.yul\":455:532   */\n      swap2\n      swap1\n      pop\n      jump\t// out\n        /* \"#utility.yul\":538:646   */\n    tag_66:\n        /* \"#utility.yul\":615:639   */\n      tag_77\n        /* \"#utility.yul\":633:638   */\n      dup2\n        /* \"#utility.yul\":615:639   */\n      tag_65\n      jump\t// in\n    tag_77:\n        /* \"#utility.yul\":610:613   */\n      dup3\n        /* \"#utility.yul\":603:640   */\n      mstore\n        /* \"#utility.yul\":538:646   */\n      pop\n      pop\n      jump\t// out\n        /* \"#utility.yul\":652:831   */\n    tag_67:\n        /* \"#utility.yul\":721:731   */\n      0x00\n        /* \"#utility.yul\":742:788   */\n      tag_79\n        /* \"#utility.yul\":784:787   */\n      dup4\n        /* \"#utility.yul\":776:782   */\n      dup4\n        /* \"#utility.yul\":742:788   */\n      tag_66\n      jump\t// in\n    tag_79:\n        /* \"#utility.yul\":820:824   */\n      0x20\n        /* \"#utility.yul\":815:818   */\n      dup4\n        /* \"#utility.yul\":811:825   */\n      add\n        /* \"#utility.yul\":797:825   */\n      swap1\n      pop\n        /* \"#utility.yul\":652:831   */\n      swap3\n      swap2\n      pop\n      pop\n      jump\t// out\n        /* \"#utility.yul\":837:950   */\n    tag_68:\n        /* \"#utility.yul\":907:911   */\n      0x00\n        /* \"#utility.yul\":939:943   */\n      0x20\n        /* \"#utility.yul\":934:937   */\n      dup3\n        /* \"#utility.yul\":930:944   */\n      add\n        /* \"#utility.yul\":922:944   */\n      swap1\n      pop\n        /* \"#utility.yul\":837:950   */\n      swap2\n      swap1\n      pop\n      jump\t// out\n        /* \"#utility.yul\":986:1718   */\n    tag_69:\n        /* \"#utility.yul\":1105:1108   */\n      0x00\n        /* \"#utility.yul\":1134:1188   */\n      tag_82\n        /* \"#utility.yul\":1182:1187   */\n      dup3\n        /* \"#utility.yul\":1134:1188   */\n      tag_62\n      jump\t// in\n    tag_82:\n        /* \"#utility.yul\":1204:1290   */\n      tag_83\n        /* \"#utility.yul\":1283:1289   */\n      dup2\n        /* \"#utility.yul\":1278:1281   */\n      dup6\n        /* \"#utility.yul\":1204:1290   */\n      tag_63\n      jump\t// in\n    tag_83:\n        /* \"#utility.yul\":1197:1290   */\n      swap4\n      pop\n        /* \"#utility.yul\":1314:1370   */\n      tag_84\n        /* \"#utility.yul\":1364:1369   */\n      dup4\n        /* \"#utility.yul\":1314:1370   */\n      tag_64\n      jump\t// in\n    tag_84:\n        /* \"#utility.yul\":1393:1400   */\n      dup1\n        /* \"#utility.yul\":1424:1425   */\n      0x00\n        /* \"#utility.yul\":1409:1693   */\n    tag_85:\n        /* \"#utility.yul\":1434:1440   */\n      dup4\n        /* \"#utility.yul\":1431:1432   */\n      dup2\n        /* \"#utility.yul\":1428:1441   */\n      lt\n        /* \"#utility.yul\":1409:1693   */\n      iszero\n      tag_87\n      jumpi\n        /* \"#utility.yul\":1510:1516   */\n      dup2\n        /* \"#utility.yul\":1504:1517   */\n      mload\n        /* \"#utility.yul\":1537:1600   */\n      tag_88\n        /* \"#utility.yul\":1596:1599   */\n      dup9\n        /* \"#utility.yul\":1581:1594   */\n      dup3\n        /* \"#utility.yul\":1537:1600   */\n      tag_67\n      jump\t// in\n    tag_88:\n        /* \"#utility.yul\":1530:1600   */\n      swap8\n      pop\n        /* \"#utility.yul\":1623:1683   */\n      tag_89\n        /* \"#utility.yul\":1676:1682   */\n      dup4\n        /* \"#utility.yul\":1623:1683   */\n      tag_68\n      jump\t// in\n    tag_89:\n        /* \"#utility.yul\":1613:1683   */\n      swap3\n      pop\n        /* \"#utility.yul\":1469:1693   */\n      pop\n        /* \"#utility.yul\":1456:1457   */\n      0x01\n        /* \"#utility.yul\":1453:1454   */\n      dup2\n        /* \"#utility.yul\":1449:1458   */\n      add\n        /* \"#utility.yul\":1444:1458   */\n      swap1\n      pop\n        /* \"#utility.yul\":1409:1693   */\n      jump(tag_85)\n    tag_87:\n        /* \"#utility.yul\":1413:1427   */\n      pop\n        /* \"#utility.yul\":1709:1712   */\n      dup6\n        /* \"#utility.yul\":1702:1712   */\n      swap4\n      pop\n        /* \"#utility.yul\":1110:1718   */\n      pop\n      pop\n      pop\n        /* \"#utility.yul\":986:1718   */\n      swap3\n      swap2\n      pop\n      pop\n      jump\t// out\n        /* \"#utility.yul\":1724:2097   */\n    tag_8:\n        /* \"#utility.yul\":1867:1871   */\n      0x00\n        /* \"#utility.yul\":1905:1907   */\n      0x20\n        /* \"#utility.yul\":1894:1903   */\n      dup3\n        /* \"#utility.yul\":1890:1908   */\n      add\n        /* \"#utility.yul\":1882:1908   */\n      swap1\n      pop\n        /* \"#utility.yul\":1954:1963   */\n      dup2\n        /* \"#utility.yul\":1948:1952   */\n      dup2\n        /* \"#utility.yul\":1944:1964   */\n      sub\n        /* \"#utility.yul\":1940:1941   */\n      0x00\n        /* \"#utility.yul\":1929:1938   */\n      dup4\n        /* \"#utility.yul\":1925:1942   */\n      add\n        /* \"#utility.yul\":1918:1965   */\n      mstore\n        /* \"#utility.yul\":1982:2090   */\n      tag_91\n        /* \"#utility.yul\":2085:2089   */\n      dup2\n        /* \"#utility.yul\":2076:2082   */\n      dup5\n        /* \"#utility.yul\":1982:2090   */\n      tag_69\n      jump\t// in\n    tag_91:\n        /* \"#utility.yul\":1974:2090   */\n      swap1\n      pop\n        /* \"#utility.yul\":1724:2097   */\n      swap3\n      swap2\n      pop\n      pop\n      jump\t// out\n        /* \"#utility.yul\":2103:2283   */\n    tag_70:\n        /* \"#utility.yul\":2151:2228   */\n      0x4e487b7100000000000000000000000000000000000000000000000000000000\n        /* \"#utility.yul\":2148:2149   */\n      0x00\n        /* \"#utility.yul\":2141:2229   */\n      mstore\n        /* \"#utility.yul\":2248:2252   */\n      0x11\n        /* \"#utility.yul\":2245:2246   */\n      0x04\n        /* \"#utility.yul\":2238:2253   */\n      mstore\n        /* \"#utility.yul\":2272:2276   */\n      0x24\n        /* \"#utility.yul\":2269:2270   */\n      0x00\n        /* \"#utility.yul\":2262:2277   */\n      revert\n        /* \"#utility.yul\":2289:2483   */\n    tag_19:\n        /* \"#utility.yul\":2329:2333   */\n      0x00\n        /* \"#utility.yul\":2349:2369   */\n      tag_94\n        /* \"#utility.yul\":2367:2368   */\n      dup3\n        /* \"#utility.yul\":2349:2369   */\n      tag_65\n      jump\t// in\n    tag_94:\n        /* \"#utility.yul\":2344:2369   */\n      swap2\n      pop\n        /* \"#utility.yul\":2383:2403   */\n      tag_95\n        /* \"#utility.yul\":2401:2402   */\n      dup4\n        /* \"#utility.yul\":2383:2403   */\n      tag_65\n      jump\t// in\n    tag_95:\n        /* \"#utility.yul\":2378:2403   */\n      swap3\n      pop\n        /* \"#utility.yul\":2427:2428   */\n      dup3\n        /* \"#utility.yul\":2424:2425   */\n      dup3\n        /* \"#utility.yul\":2420:2429   */\n      sub\n        /* \"#utility.yul\":2412:2429   */\n      swap1\n      pop\n        /* \"#utility.yul\":2451:2452   */\n      dup2\n        /* \"#utility.yul\":2445:2449   */\n      dup2\n        /* \"#utility.yul\":2442:2453   */\n      gt\n        /* \"#utility.yul\":2439:2476   */\n      iszero\n      tag_96\n      jumpi\n        /* \"#utility.yul\":2456:2474   */\n      tag_97\n      tag_70\n      jump\t// in\n    tag_97:\n        /* \"#utility.yul\":2439:2476   */\n    tag_96:\n        /* \"#utility.yul\":2289:2483   */\n      swap3\n      swap2\n      pop\n      pop\n      jump\t// out\n        /* \"#utility.yul\":2489:2680   */\n    tag_24:\n        /* \"#utility.yul\":2529:2532   */\n      0x00\n        /* \"#utility.yul\":2548:2568   */\n      tag_99\n        /* \"#utility.yul\":2566:2567   */\n      dup3\n        /* \"#utility.yul\":2548:2568   */\n      tag_65\n      jump\t// in\n    tag_99:\n        /* \"#utility.yul\":2543:2568   */\n      swap2\n      pop\n        /* \"#utility.yul\":2582:2602   */\n      tag_100\n        /* \"#utility.yul\":2600:2601   */\n      dup4\n        /* \"#utility.yul\":2582:2602   */\n      tag_65\n      jump\t// in\n    tag_100:\n        /* \"#utility.yul\":2577:2602   */\n      swap3\n      pop\n        /* \"#utility.yul\":2625:2626   */\n      dup3\n        /* \"#utility.yul\":2622:2623   */\n      dup3\n        /* \"#utility.yul\":2618:2627   */\n      add\n        /* \"#utility.yul\":2611:2627   */\n      swap1\n      pop\n        /* \"#utility.yul\":2646:2649   */\n      dup1\n        /* \"#utility.yul\":2643:2644   */\n      dup3\n        /* \"#utility.yul\":2640:2650   */\n      gt\n        /* \"#utility.yul\":2637:2673   */\n      iszero\n      tag_101\n      jumpi\n        /* \"#utility.yul\":2653:2671   */\n      tag_102\n      tag_70\n      jump\t// in\n    tag_102:\n        /* \"#utility.yul\":2637:2673   */\n    tag_101:\n        /* \"#utility.yul\":2489:2680   */\n      swap3\n      swap2\n      pop\n      pop\n      jump\t// out\n        /* \"#utility.yul\":2686:2866   */\n    tag_27:\n        /* \"#utility.yul\":2734:2811   */\n      0x4e487b7100000000000000000000000000000000000000000000000000000000\n        /* \"#utility.yul\":2731:2732   */\n      0x00\n        /* \"#utility.yul\":2724:2812   */\n      mstore\n        /* \"#utility.yul\":2831:2835   */\n      0x32\n        /* \"#utility.yul\":2828:2829   */\n      0x04\n        /* \"#utility.yul\":2821:2836   */\n      mstore\n        /* \"#utility.yul\":2855:2859   */\n      0x24\n        /* \"#utility.yul\":2852:2853   */\n      0x00\n        /* \"#utility.yul\":2845:2860   */\n      revert\n\n    auxdata: 0xa264697066735822122085283241e60f1ad17d91e03b910acfd458a6e453af90cc6afdeece1d18e7dd8664736f6c634300081a0033\n}\n",
				"bytecode": {
					"linkReferences": {},
					"object": "60806040526040518060c00160405280600160ff168152602001600360ff168152602001600760ff168152602001600460ff168152602001600b60ff168152602001600260ff168152505f90600660569291906066565b503480156061575f80fd5b5060ca565b828054828255905f5260205f2090810192821560a2579160200282015b8281111560a1578251829060ff169055916020019190600101906083565b5b50905060ad919060b1565b5090565b5b8082111560c6575f815f90555060010160b2565b5090565b6104f1806100d75f395ff3fe608060405234801561000f575f80fd5b5060043610610034575f3560e01c80632e9bb9e01461003857806394c06a5814610056575b5f80fd5b610040610074565b60405161004d91906103db565b60405180910390f35b61005e6101cc565b60405161006b91906103db565b60405180910390f35b60605f808054806020026020016040519081016040528092919081815260200182805480156100c057602002820191905f5260205f20905b8154815260200190600101908083116100ac575b505050505090505f5b600182516100d79190610428565b8110156101c4575f6001826100ec919061045b565b90505b82518110156101b65782818151811061010b5761010a61048e565b5b60200260200101518383815181106101265761012561048e565b5b602002602001015111156101a9578281815181106101475761014661048e565b5b60200260200101518383815181106101625761016161048e565b5b602002602001015184848151811061017d5761017c61048e565b5b602002602001018584815181106101975761019661048e565b5b60200260200101828152508281525050505b80806001019150506100ef565b5080806001019150506100c9565b508091505090565b60605f8080548060200260200160405190810160405280929190818152602001828054801561021857602002820191905f5260205f20905b815481526020019060010190808311610204575b505050505090505f5b8151811015610313575f600182610238919061045b565b90505b5f805490508110156103055782818151811061025a5761025961048e565b5b60200260200101518383815181106102755761027461048e565b5b602002602001015110156102f8578281815181106102965761029561048e565b5b60200260200101518382815181106102b1576102b061048e565b5b60200260200101518484815181106102cc576102cb61048e565b5b602002602001018584815181106102e6576102e561048e565b5b60200260200101828152508281525050505b808060010191505061023b565b508080600101915050610221565b508091505090565b5f81519050919050565b5f82825260208201905092915050565b5f819050602082019050919050565b5f819050919050565b61035681610344565b82525050565b5f610367838361034d565b60208301905092915050565b5f602082019050919050565b5f6103898261031b565b6103938185610325565b935061039e83610335565b805f5b838110156103ce5781516103b5888261035c565b97506103c083610373565b9250506001810190506103a1565b5085935050505092915050565b5f6020820190508181035f8301526103f3818461037f565b905092915050565b7f4e487b71000000000000000000000000000000000000000000000000000000005f52601160045260245ffd5b5f61043282610344565b915061043d83610344565b9250828203905081811115610455576104546103fb565b5b92915050565b5f61046582610344565b915061047083610344565b9250828201905080821115610488576104876103fb565b5b92915050565b7f4e487b71000000000000000000000000000000000000000000000000000000005f52603260045260245ffdfea264697066735822122085283241e60f1ad17d91e03b910acfd458a6e453af90cc6afdeece1d18e7dd8664736f6c634300081a0033",
					"opcodes": "PUSH1 0x80 PUSH1 0x40 MSTORE PUSH1 0x40 MLOAD DUP1 PUSH1 0xC0 ADD PUSH1 0x40 MSTORE DUP1 PUSH1 0x1 PUSH1 0xFF AND DUP2 MSTORE PUSH1 0x20 ADD PUSH1 0x3 PUSH1 0xFF AND DUP2 MSTORE PUSH1 0x20 ADD PUSH1 0x7 PUSH1 0xFF AND DUP2 MSTORE PUSH1 0x20 ADD PUSH1 0x4 PUSH1 0xFF AND DUP2 MSTORE PUSH1 0x20 ADD PUSH1 0xB PUSH1 0xFF AND DUP2 MSTORE PUSH1 0x20 ADD PUSH1 0x2 PUSH1 0xFF AND DUP2 MSTORE POP PUSH0 SWAP1 PUSH1 0x6 PUSH1 0x56 SWAP3 SWAP2 SWAP1 PUSH1 0x66 JUMP JUMPDEST POP CALLVALUE DUP1 ISZERO PUSH1 0x61 JUMPI PUSH0 DUP1 REVERT JUMPDEST POP PUSH1 0xCA JUMP JUMPDEST DUP3 DUP1 SLOAD DUP3 DUP3 SSTORE SWAP1 PUSH0 MSTORE PUSH1 0x20 PUSH0 KECCAK256 SWAP1 DUP2 ADD SWAP3 DUP3 ISZERO PUSH1 0xA2 JUMPI SWAP2 PUSH1 0x20 MUL DUP3 ADD JUMPDEST DUP3 DUP2 GT ISZERO PUSH1 0xA1 JUMPI DUP3 MLOAD DUP3 SWAP1 PUSH1 0xFF AND SWAP1 SSTORE SWAP2 PUSH1 0x20 ADD SWAP2 SWAP1 PUSH1 0x1 ADD SWAP1 PUSH1 0x83 JUMP JUMPDEST JUMPDEST POP SWAP1 POP PUSH1 0xAD SWAP2 SWAP1 PUSH1 0xB1 JUMP JUMPDEST POP SWAP1 JUMP JUMPDEST JUMPDEST DUP1 DUP3 GT ISZERO PUSH1 0xC6 JUMPI PUSH0 DUP2 PUSH0 SWAP1 SSTORE POP PUSH1 0x1 ADD PUSH1 0xB2 JUMP JUMPDEST POP SWAP1 JUMP JUMPDEST PUSH2 0x4F1 DUP1 PUSH2 0xD7 PUSH0 CODECOPY PUSH0 RETURN INVALID PUSH1 0x80 PUSH1 0x40 MSTORE CALLVALUE DUP1 ISZERO PUSH2 0xF JUMPI PUSH0 DUP1 REVERT JUMPDEST POP PUSH1 0x4 CALLDATASIZE LT PUSH2 0x34 JUMPI PUSH0 CALLDATALOAD PUSH1 0xE0 SHR DUP1 PUSH4 0x2E9BB9E0 EQ PUSH2 0x38 JUMPI DUP1 PUSH4 0x94C06A58 EQ PUSH2 0x56 JUMPI JUMPDEST PUSH0 DUP1 REVERT JUMPDEST PUSH2 0x40 PUSH2 0x74 JUMP JUMPDEST PUSH1 0x40 MLOAD PUSH2 0x4D SWAP2 SWAP1 PUSH2 0x3DB JUMP JUMPDEST PUSH1 0x40 MLOAD DUP1 SWAP2 SUB SWAP1 RETURN JUMPDEST PUSH2 0x5E PUSH2 0x1CC JUMP JUMPDEST PUSH1 0x40 MLOAD PUSH2 0x6B SWAP2 SWAP1 PUSH2 0x3DB JUMP JUMPDEST PUSH1 0x40 MLOAD DUP1 SWAP2 SUB SWAP1 RETURN JUMPDEST PUSH1 0x60 PUSH0 DUP1 DUP1 SLOAD DUP1 PUSH1 0x20 MUL PUSH1 0x20 ADD PUSH1 0x40 MLOAD SWAP1 DUP2 ADD PUSH1 0x40 MSTORE DUP1 SWAP3 SWAP2 SWAP1 DUP2 DUP2 MSTORE PUSH1 0x20 ADD DUP3 DUP1 SLOAD DUP1 ISZERO PUSH2 0xC0 JUMPI PUSH1 0x20 MUL DUP3 ADD SWAP2 SWAP1 PUSH0 MSTORE PUSH1 0x20 PUSH0 KECCAK256 SWAP1 JUMPDEST DUP2 SLOAD DUP2 MSTORE PUSH1 0x20 ADD SWAP1 PUSH1 0x1 ADD SWAP1 DUP1 DUP4 GT PUSH2 0xAC JUMPI JUMPDEST POP POP POP POP POP SWAP1 POP PUSH0 JUMPDEST PUSH1 0x1 DUP3 MLOAD PUSH2 0xD7 SWAP2 SWAP1 PUSH2 0x428 JUMP JUMPDEST DUP2 LT ISZERO PUSH2 0x1C4 JUMPI PUSH0 PUSH1 0x1 DUP3 PUSH2 0xEC SWAP2 SWAP1 PUSH2 0x45B JUMP JUMPDEST SWAP1 POP JUMPDEST DUP3 MLOAD DUP2 LT ISZERO PUSH2 0x1B6 JUMPI DUP3 DUP2 DUP2 MLOAD DUP2 LT PUSH2 0x10B JUMPI PUSH2 0x10A PUSH2 0x48E JUMP JUMPDEST JUMPDEST PUSH1 0x20 MUL PUSH1 0x20 ADD ADD MLOAD DUP4 DUP4 DUP2 MLOAD DUP2 LT PUSH2 0x126 JUMPI PUSH2 0x125 PUSH2 0x48E JUMP JUMPDEST JUMPDEST PUSH1 0x20 MUL PUSH1 0x20 ADD ADD MLOAD GT ISZERO PUSH2 0x1A9 JUMPI DUP3 DUP2 DUP2 MLOAD DUP2 LT PUSH2 0x147 JUMPI PUSH2 0x146 PUSH2 0x48E JUMP JUMPDEST JUMPDEST PUSH1 0x20 MUL PUSH1 0x20 ADD ADD MLOAD DUP4 DUP4 DUP2 MLOAD DUP2 LT PUSH2 0x162 JUMPI PUSH2 0x161 PUSH2 0x48E JUMP JUMPDEST JUMPDEST PUSH1 0x20 MUL PUSH1 0x20 ADD ADD MLOAD DUP5 DUP5 DUP2 MLOAD DUP2 LT PUSH2 0x17D JUMPI PUSH2 0x17C PUSH2 0x48E JUMP JUMPDEST JUMPDEST PUSH1 0x20 MUL PUSH1 0x20 ADD ADD DUP6 DUP5 DUP2 MLOAD DUP2 LT PUSH2 0x197 JUMPI PUSH2 0x196 PUSH2 0x48E JUMP JUMPDEST JUMPDEST PUSH1 0x20 MUL PUSH1 0x20 ADD ADD DUP3 DUP2 MSTORE POP DUP3 DUP2 MSTORE POP POP POP JUMPDEST DUP1 DUP1 PUSH1 0x1 ADD SWAP2 POP POP PUSH2 0xEF JUMP JUMPDEST POP DUP1 DUP1 PUSH1 0x1 ADD SWAP2 POP POP PUSH2 0xC9 JUMP JUMPDEST POP DUP1 SWAP2 POP POP SWAP1 JUMP JUMPDEST PUSH1 0x60 PUSH0 DUP1 DUP1 SLOAD DUP1 PUSH1 0x20 MUL PUSH1 0x20 ADD PUSH1 0x40 MLOAD SWAP1 DUP2 ADD PUSH1 0x40 MSTORE DUP1 SWAP3 SWAP2 SWAP1 DUP2 DUP2 MSTORE PUSH1 0x20 ADD DUP3 DUP1 SLOAD DUP1 ISZERO PUSH2 0x218 JUMPI PUSH1 0x20 MUL DUP3 ADD SWAP2 SWAP1 PUSH0 MSTORE PUSH1 0x20 PUSH0 KECCAK256 SWAP1 JUMPDEST DUP2 SLOAD DUP2 MSTORE PUSH1 0x20 ADD SWAP1 PUSH1 0x1 ADD SWAP1 DUP1 DUP4 GT PUSH2 0x204 JUMPI JUMPDEST POP POP POP POP POP SWAP1 POP PUSH0 JUMPDEST DUP2 MLOAD DUP2 LT ISZERO PUSH2 0x313 JUMPI PUSH0 PUSH1 0x1 DUP3 PUSH2 0x238 SWAP2 SWAP1 PUSH2 0x45B JUMP JUMPDEST SWAP1 POP JUMPDEST PUSH0 DUP1 SLOAD SWAP1 POP DUP2 LT ISZERO PUSH2 0x305 JUMPI DUP3 DUP2 DUP2 MLOAD DUP2 LT PUSH2 0x25A JUMPI PUSH2 0x259 PUSH2 0x48E JUMP JUMPDEST JUMPDEST PUSH1 0x20 MUL PUSH1 0x20 ADD ADD MLOAD DUP4 DUP4 DUP2 MLOAD DUP2 LT PUSH2 0x275 JUMPI PUSH2 0x274 PUSH2 0x48E JUMP JUMPDEST JUMPDEST PUSH1 0x20 MUL PUSH1 0x20 ADD ADD MLOAD LT ISZERO PUSH2 0x2F8 JUMPI DUP3 DUP2 DUP2 MLOAD DUP2 LT PUSH2 0x296 JUMPI PUSH2 0x295 PUSH2 0x48E JUMP JUMPDEST JUMPDEST PUSH1 0x20 MUL PUSH1 0x20 ADD ADD MLOAD DUP4 DUP3 DUP2 MLOAD DUP2 LT PUSH2 0x2B1 JUMPI PUSH2 0x2B0 PUSH2 0x48E JUMP JUMPDEST JUMPDEST PUSH1 0x20 MUL PUSH1 0x20 ADD ADD MLOAD DUP5 DUP5 DUP2 MLOAD DUP2 LT PUSH2 0x2CC JUMPI PUSH2 0x2CB PUSH2 0x48E JUMP JUMPDEST JUMPDEST PUSH1 0x20 MUL PUSH1 0x20 ADD ADD DUP6 DUP5 DUP2 MLOAD DUP2 LT PUSH2 0x2E6 JUMPI PUSH2 0x2E5 PUSH2 0x48E JUMP JUMPDEST JUMPDEST PUSH1 0x20 MUL PUSH1 0x20 ADD ADD DUP3 DUP2 MSTORE POP DUP3 DUP2 MSTORE POP POP POP JUMPDEST DUP1 DUP1 PUSH1 0x1 ADD SWAP2 POP POP PUSH2 0x23B JUMP JUMPDEST POP DUP1 DUP1 PUSH1 0x1 ADD SWAP2 POP POP PUSH2 0x221 JUMP JUMPDEST POP DUP1 SWAP2 POP POP SWAP1 JUMP JUMPDEST PUSH0 DUP2 MLOAD SWAP1 POP SWAP2 SWAP1 POP JUMP JUMPDEST PUSH0 DUP3 DUP3 MSTORE PUSH1 0x20 DUP3 ADD SWAP1 POP SWAP3 SWAP2 POP POP JUMP JUMPDEST PUSH0 DUP2 SWAP1 POP PUSH1 0x20 DUP3 ADD SWAP1 POP SWAP2 SWAP1 POP JUMP JUMPDEST PUSH0 DUP2 SWAP1 POP SWAP2 SWAP1 POP JUMP JUMPDEST PUSH2 0x356 DUP2 PUSH2 0x344 JUMP JUMPDEST DUP3 MSTORE POP POP JUMP JUMPDEST PUSH0 PUSH2 0x367 DUP4 DUP4 PUSH2 0x34D JUMP JUMPDEST PUSH1 0x20 DUP4 ADD SWAP1 POP SWAP3 SWAP2 POP POP JUMP JUMPDEST PUSH0 PUSH1 0x20 DUP3 ADD SWAP1 POP SWAP2 SWAP1 POP JUMP JUMPDEST PUSH0 PUSH2 0x389 DUP3 PUSH2 0x31B JUMP JUMPDEST PUSH2 0x393 DUP2 DUP6 PUSH2 0x325 JUMP JUMPDEST SWAP4 POP PUSH2 0x39E DUP4 PUSH2 0x335 JUMP JUMPDEST DUP1 PUSH0 JUMPDEST DUP4 DUP2 LT ISZERO PUSH2 0x3CE JUMPI DUP2 MLOAD PUSH2 0x3B5 DUP9 DUP3 PUSH2 0x35C JUMP JUMPDEST SWAP8 POP PUSH2 0x3C0 DUP4 PUSH2 0x373 JUMP JUMPDEST SWAP3 POP POP PUSH1 0x1 DUP2 ADD SWAP1 POP PUSH2 0x3A1 JUMP JUMPDEST POP DUP6 SWAP4 POP POP POP POP SWAP3 SWAP2 POP POP JUMP JUMPDEST PUSH0 PUSH1 0x20 DUP3 ADD SWAP1 POP DUP2 DUP2 SUB PUSH0 DUP4 ADD MSTORE PUSH2 0x3F3 DUP2 DUP5 PUSH2 0x37F JUMP JUMPDEST SWAP1 POP SWAP3 SWAP2 POP POP JUMP JUMPDEST PUSH32 0x4E487B7100000000000000000000000000000000000000000000000000000000 PUSH0 MSTORE PUSH1 0x11 PUSH1 0x4 MSTORE PUSH1 0x24 PUSH0 REVERT JUMPDEST PUSH0 PUSH2 0x432 DUP3 PUSH2 0x344 JUMP JUMPDEST SWAP2 POP PUSH2 0x43D DUP4 PUSH2 0x344 JUMP JUMPDEST SWAP3 POP DUP3 DUP3 SUB SWAP1 POP DUP2 DUP2 GT ISZERO PUSH2 0x455 JUMPI PUSH2 0x454 PUSH2 0x3FB JUMP JUMPDEST JUMPDEST SWAP3 SWAP2 POP POP JUMP JUMPDEST PUSH0 PUSH2 0x465 DUP3 PUSH2 0x344 JUMP JUMPDEST SWAP2 POP PUSH2 0x470 DUP4 PUSH2 0x344 JUMP JUMPDEST SWAP3 POP DUP3 DUP3 ADD SWAP1 POP DUP1 DUP3 GT ISZERO PUSH2 0x488 JUMPI PUSH2 0x487 PUSH2 0x3FB JUMP JUMPDEST JUMPDEST SWAP3 SWAP2 POP POP JUMP JUMPDEST PUSH32 0x4E487B7100000000000000000000000000000000000000000000000000000000 PUSH0 MSTORE PUSH1 0x32 PUSH1 0x4 MSTORE PUSH1 0x24 PUSH0 REVERT INVALID LOG2 PUSH5 0x6970667358 0x22 SLT KECCAK256 DUP6 0x28 ORIGIN COINBASE 0xE6 0xF BYTE 0xD1 PUSH30 0x91E03B910ACFD458A6E453AF90CC6AFDEECE1D18E7DD8664736F6C634300 ADDMOD BYTE STOP CALLER "
				},
				"gasEstimates": {
					"creation": {
						"codeDepositCost": "253000",
						"executionCost": "infinite",
						"totalCost": "infinite"
					},
					"external": {
						"ascending()": "infinite",
						"descending()": "infinite"
					}
				},
				"methodIdentifiers": {
					"ascending()": "2e9bb9e0",
					"descending()": "94c06a58"
				}
			},
			"storageLayout": {
				"storage": [
					{
						"astId": 11,
						"contract": "contracts/lecture/sorting.sol:SORTING",
						"label": "numbers",
						"offset": 0,
						"slot": "0",
						"type": "t_array(t_uint256)dyn_storage"
					}
				],
				"types": {
					"t_array(t_uint256)dyn_storage": {
						"base": "t_uint256",
						"encoding": "dynamic_array",
						"label": "uint256[]",
						"numberOfBytes": "32"
					},
					"t_uint256": {
						"encoding": "inplace",
						"label": "uint256",
						"numberOfBytes": "32"
					}
				}
			},
			"userdoc": {
				"kind": "user",
				"methods": {},
				"version": 1
			}
		}
	}
}