{
	"contracts/basic4.sol": {
		"BASIC4": {
			"abi": [
				{
					"inputs": [],
					"name": "getABCD",
					"outputs": [
						{
							"internalType": "bytes",
							"name": "",
							"type": "bytes"
						},
						{
							"internalType": "bytes1",
							"name": "",
							"type": "bytes1"
						},
						{
							"internalType": "bytes2",
							"name": "",
							"type": "bytes2"
						},
						{
							"internalType": "bytes3",
							"name": "",
							"type": "bytes3"
						},
						{
							"internalType": "bytes32",
							"name": "",
							"type": "bytes32"
						}
					],
					"stateMutability": "view",
					"type": "function"
				},
				{
					"inputs": [
						{
							"internalType": "bytes",
							"name": "_a",
							"type": "bytes"
						}
					],
					"name": "setA",
					"outputs": [],
					"stateMutability": "nonpayable",
					"type": "function"
				},
				{
					"inputs": [
						{
							"internalType": "bytes1",
							"name": "_b",
							"type": "bytes1"
						}
					],
					"name": "setB",
					"outputs": [],
					"stateMutability": "nonpayable",
					"type": "function"
				},
				{
					"inputs": [
						{
							"internalType": "bytes2",
							"name": "_c",
							"type": "bytes2"
						}
					],
					"name": "setC",
					"outputs": [],
					"stateMutability": "nonpayable",
					"type": "function"
				},
				{
					"inputs": [
						{
							"internalType": "bytes3",
							"name": "_d",
							"type": "bytes3"
						}
					],
					"name": "setD",
					"outputs": [],
					"stateMutability": "nonpayable",
					"type": "function"
				}
			],
			"devdoc": {
				"kind": "dev",
				"methods": {},
				"version": 1
			},
			"evm": {
				"assembly": "    /* \"contracts/basic4.sol\":70:566  contract BASIC4 {... */\n  mstore(0x40, 0x80)\n  callvalue\n  dup1\n  iszero\n  tag_1\n  jumpi\n  0x00\n  dup1\n  revert\ntag_1:\n  pop\n  dataSize(sub_0)\n  dup1\n  dataOffset(sub_0)\n  0x00\n  codecopy\n  0x00\n  return\nstop\n\nsub_0: assembly {\n        /* \"contracts/basic4.sol\":70:566  contract BASIC4 {... */\n      mstore(0x40, 0x80)\n      callvalue\n      dup1\n      iszero\n      tag_1\n      jumpi\n      0x00\n      dup1\n      revert\n    tag_1:\n      pop\n      jumpi(tag_2, lt(calldatasize, 0x04))\n      shr(0xe0, calldataload(0x00))\n      dup1\n      0x069dd4a9\n      eq\n      tag_3\n      jumpi\n      dup1\n      0x2971a11a\n      eq\n      tag_4\n      jumpi\n      dup1\n      0xc736694e\n      eq\n      tag_5\n      jumpi\n      dup1\n      0xcb0d4bbd\n      eq\n      tag_6\n      jumpi\n      dup1\n      0xe1421c92\n      eq\n      tag_7\n      jumpi\n    tag_2:\n      0x00\n      dup1\n      revert\n        /* \"contracts/basic4.sol\":371:428  function setD(bytes3 _d) public {... */\n    tag_3:\n      tag_8\n      0x04\n      dup1\n      calldatasize\n      sub\n      dup2\n      add\n      swap1\n      tag_9\n      swap2\n      swap1\n      tag_10\n      jump\t// in\n    tag_9:\n      tag_11\n      jump\t// in\n    tag_8:\n      stop\n        /* \"contracts/basic4.sol\":241:298  function setB(bytes1 _b) public {... */\n    tag_4:\n      tag_12\n      0x04\n      dup1\n      calldatasize\n      sub\n      dup2\n      add\n      swap1\n      tag_13\n      swap2\n      swap1\n      tag_14\n      jump\t// in\n    tag_13:\n      tag_15\n      jump\t// in\n    tag_12:\n      stop\n        /* \"contracts/basic4.sol\":436:563  function getABCD() public view returns (bytes memory, bytes1, bytes2, bytes3, bytes32){... */\n    tag_5:\n      tag_16\n      tag_17\n      jump\t// in\n    tag_16:\n      mload(0x40)\n      tag_18\n      swap6\n      swap5\n      swap4\n      swap3\n      swap2\n      swap1\n      tag_19\n      jump\t// in\n    tag_18:\n      mload(0x40)\n      dup1\n      swap2\n      sub\n      swap1\n      return\n        /* \"contracts/basic4.sol\":306:363  function setC(bytes2 _c) public {... */\n    tag_6:\n      tag_20\n      0x04\n      dup1\n      calldatasize\n      sub\n      dup2\n      add\n      swap1\n      tag_21\n      swap2\n      swap1\n      tag_22\n      jump\t// in\n    tag_21:\n      tag_23\n      jump\t// in\n    tag_20:\n      stop\n        /* \"contracts/basic4.sol\":170:233  function setA(bytes memory _a) public {... */\n    tag_7:\n      tag_24\n      0x04\n      dup1\n      calldatasize\n      sub\n      dup2\n      add\n      swap1\n      tag_25\n      swap2\n      swap1\n      tag_26\n      jump\t// in\n    tag_25:\n      tag_27\n      jump\t// in\n    tag_24:\n      stop\n        /* \"contracts/basic4.sol\":371:428  function setD(bytes3 _d) public {... */\n    tag_11:\n        /* \"contracts/basic4.sol\":418:420  _d */\n      dup1\n        /* \"contracts/basic4.sol\":414:415  d */\n      0x01\n      0x03\n        /* \"contracts/basic4.sol\":414:420  d = _d */\n      0x0100\n      exp\n      dup2\n      sload\n      dup2\n      0xffffff\n      mul\n      not\n      and\n      swap1\n      dup4\n      0xe8\n      shr\n      mul\n      or\n      swap1\n      sstore\n      pop\n        /* \"contracts/basic4.sol\":371:428  function setD(bytes3 _d) public {... */\n      pop\n      jump\t// out\n        /* \"contracts/basic4.sol\":241:298  function setB(bytes1 _b) public {... */\n    tag_15:\n        /* \"contracts/basic4.sol\":288:290  _b */\n      dup1\n        /* \"contracts/basic4.sol\":284:285  b */\n      0x01\n      0x00\n        /* \"contracts/basic4.sol\":284:290  b = _b */\n      0x0100\n      exp\n      dup2\n      sload\n      dup2\n      0xff\n      mul\n      not\n      and\n      swap1\n      dup4\n      0xf8\n      shr\n      mul\n      or\n      swap1\n      sstore\n      pop\n        /* \"contracts/basic4.sol\":241:298  function setB(bytes1 _b) public {... */\n      pop\n      jump\t// out\n        /* \"contracts/basic4.sol\":436:563  function getABCD() public view returns (bytes memory, bytes1, bytes2, bytes3, bytes32){... */\n    tag_17:\n        /* \"contracts/basic4.sol\":476:488  bytes memory */\n      0x60\n        /* \"contracts/basic4.sol\":490:496  bytes1 */\n      0x00\n        /* \"contracts/basic4.sol\":498:504  bytes2 */\n      dup1\n        /* \"contracts/basic4.sol\":506:512  bytes3 */\n      0x00\n        /* \"contracts/basic4.sol\":514:521  bytes32 */\n      dup1\n        /* \"contracts/basic4.sol\":541:542  a */\n      0x00\n        /* \"contracts/basic4.sol\":544:545  b */\n      0x01\n      0x00\n      swap1\n      sload\n      swap1\n      0x0100\n      exp\n      swap1\n      div\n      0xf8\n      shl\n        /* \"contracts/basic4.sol\":547:548  c */\n      0x01\n      dup1\n      sload\n      swap1\n      0x0100\n      exp\n      swap1\n      div\n      0xf0\n      shl\n        /* \"contracts/basic4.sol\":550:551  d */\n      0x01\n      0x03\n      swap1\n      sload\n      swap1\n      0x0100\n      exp\n      swap1\n      div\n      0xe8\n      shl\n        /* \"contracts/basic4.sol\":553:554  e */\n      sload(0x02)\n        /* \"contracts/basic4.sol\":533:555  return (a, b, c, d, e) */\n      dup5\n      dup1\n      sload\n      tag_31\n      swap1\n      tag_32\n      jump\t// in\n    tag_31:\n      dup1\n      0x1f\n      add\n      0x20\n      dup1\n      swap2\n      div\n      mul\n      0x20\n      add\n      mload(0x40)\n      swap1\n      dup2\n      add\n      0x40\n      mstore\n      dup1\n      swap3\n      swap2\n      swap1\n      dup2\n      dup2\n      mstore\n      0x20\n      add\n      dup3\n      dup1\n      sload\n      tag_33\n      swap1\n      tag_32\n      jump\t// in\n    tag_33:\n      dup1\n      iszero\n      tag_34\n      jumpi\n      dup1\n      0x1f\n      lt\n      tag_35\n      jumpi\n      0x0100\n      dup1\n      dup4\n      sload\n      div\n      mul\n      dup4\n      mstore\n      swap2\n      0x20\n      add\n      swap2\n      jump(tag_34)\n    tag_35:\n      dup3\n      add\n      swap2\n      swap1\n      0x00\n      mstore\n      keccak256(0x00, 0x20)\n      swap1\n    tag_36:\n      dup2\n      sload\n      dup2\n      mstore\n      swap1\n      0x01\n      add\n      swap1\n      0x20\n      add\n      dup1\n      dup4\n      gt\n      tag_36\n      jumpi\n      dup3\n      swap1\n      sub\n      0x1f\n      and\n      dup3\n      add\n      swap2\n    tag_34:\n      pop\n      pop\n      pop\n      pop\n      pop\n      swap5\n      pop\n      swap5\n      pop\n      swap5\n      pop\n      swap5\n      pop\n      swap5\n      pop\n      swap5\n      pop\n        /* \"contracts/basic4.sol\":436:563  function getABCD() public view returns (bytes memory, bytes1, bytes2, bytes3, bytes32){... */\n      swap1\n      swap2\n      swap3\n      swap4\n      swap5\n      jump\t// out\n        /* \"contracts/basic4.sol\":306:363  function setC(bytes2 _c) public {... */\n    tag_23:\n        /* \"contracts/basic4.sol\":353:355  _c */\n      dup1\n        /* \"contracts/basic4.sol\":349:350  c */\n      0x01\n      dup1\n        /* \"contracts/basic4.sol\":349:355  c = _c */\n      0x0100\n      exp\n      dup2\n      sload\n      dup2\n      0xffff\n      mul\n      not\n      and\n      swap1\n      dup4\n      0xf0\n      shr\n      mul\n      or\n      swap1\n      sstore\n      pop\n        /* \"contracts/basic4.sol\":306:363  function setC(bytes2 _c) public {... */\n      pop\n      jump\t// out\n        /* \"contracts/basic4.sol\":170:233  function setA(bytes memory _a) public {... */\n    tag_27:\n        /* \"contracts/basic4.sol\":223:225  _a */\n      dup1\n        /* \"contracts/basic4.sol\":219:220  a */\n      0x00\n        /* \"contracts/basic4.sol\":219:225  a = _a */\n      swap1\n      dup2\n      tag_39\n      swap2\n      swap1\n      tag_40\n      jump\t// in\n    tag_39:\n      pop\n        /* \"contracts/basic4.sol\":170:233  function setA(bytes memory _a) public {... */\n      pop\n      jump\t// out\n        /* \"#utility.yul\":7:82   */\n    tag_41:\n        /* \"#utility.yul\":40:46   */\n      0x00\n        /* \"#utility.yul\":73:75   */\n      0x40\n        /* \"#utility.yul\":67:76   */\n      mload\n        /* \"#utility.yul\":57:76   */\n      swap1\n      pop\n        /* \"#utility.yul\":7:82   */\n      swap1\n      jump\t// out\n        /* \"#utility.yul\":88:205   */\n    tag_42:\n        /* \"#utility.yul\":197:198   */\n      0x00\n        /* \"#utility.yul\":194:195   */\n      dup1\n        /* \"#utility.yul\":187:199   */\n      revert\n        /* \"#utility.yul\":211:328   */\n    tag_43:\n        /* \"#utility.yul\":320:321   */\n      0x00\n        /* \"#utility.yul\":317:318   */\n      dup1\n        /* \"#utility.yul\":310:322   */\n      revert\n        /* \"#utility.yul\":334:483   */\n    tag_44:\n        /* \"#utility.yul\":370:377   */\n      0x00\n        /* \"#utility.yul\":410:476   */\n      0xffffff0000000000000000000000000000000000000000000000000000000000\n        /* \"#utility.yul\":403:408   */\n      dup3\n        /* \"#utility.yul\":399:477   */\n      and\n        /* \"#utility.yul\":388:477   */\n      swap1\n      pop\n        /* \"#utility.yul\":334:483   */\n      swap2\n      swap1\n      pop\n      jump\t// out\n        /* \"#utility.yul\":489:609   */\n    tag_45:\n        /* \"#utility.yul\":561:584   */\n      tag_95\n        /* \"#utility.yul\":578:583   */\n      dup2\n        /* \"#utility.yul\":561:584   */\n      tag_44\n      jump\t// in\n    tag_95:\n        /* \"#utility.yul\":554:559   */\n      dup2\n        /* \"#utility.yul\":551:585   */\n      eq\n        /* \"#utility.yul\":541:603   */\n      tag_96\n      jumpi\n        /* \"#utility.yul\":599:600   */\n      0x00\n        /* \"#utility.yul\":596:597   */\n      dup1\n        /* \"#utility.yul\":589:601   */\n      revert\n        /* \"#utility.yul\":541:603   */\n    tag_96:\n        /* \"#utility.yul\":489:609   */\n      pop\n      jump\t// out\n        /* \"#utility.yul\":615:752   */\n    tag_46:\n        /* \"#utility.yul\":660:665   */\n      0x00\n        /* \"#utility.yul\":698:704   */\n      dup2\n        /* \"#utility.yul\":685:705   */\n      calldataload\n        /* \"#utility.yul\":676:705   */\n      swap1\n      pop\n        /* \"#utility.yul\":714:746   */\n      tag_98\n        /* \"#utility.yul\":740:745   */\n      dup2\n        /* \"#utility.yul\":714:746   */\n      tag_45\n      jump\t// in\n    tag_98:\n        /* \"#utility.yul\":615:752   */\n      swap3\n      swap2\n      pop\n      pop\n      jump\t// out\n        /* \"#utility.yul\":758:1085   */\n    tag_10:\n        /* \"#utility.yul\":816:822   */\n      0x00\n        /* \"#utility.yul\":865:867   */\n      0x20\n        /* \"#utility.yul\":853:862   */\n      dup3\n        /* \"#utility.yul\":844:851   */\n      dup5\n        /* \"#utility.yul\":840:863   */\n      sub\n        /* \"#utility.yul\":836:868   */\n      slt\n        /* \"#utility.yul\":833:952   */\n      iszero\n      tag_100\n      jumpi\n        /* \"#utility.yul\":871:950   */\n      tag_101\n      tag_42\n      jump\t// in\n    tag_101:\n        /* \"#utility.yul\":833:952   */\n    tag_100:\n        /* \"#utility.yul\":991:992   */\n      0x00\n        /* \"#utility.yul\":1016:1068   */\n      tag_102\n        /* \"#utility.yul\":1060:1067   */\n      dup5\n        /* \"#utility.yul\":1051:1057   */\n      dup3\n        /* \"#utility.yul\":1040:1049   */\n      dup6\n        /* \"#utility.yul\":1036:1058   */\n      add\n        /* \"#utility.yul\":1016:1068   */\n      tag_46\n      jump\t// in\n    tag_102:\n        /* \"#utility.yul\":1006:1068   */\n      swap2\n      pop\n        /* \"#utility.yul\":962:1078   */\n      pop\n        /* \"#utility.yul\":758:1085   */\n      swap3\n      swap2\n      pop\n      pop\n      jump\t// out\n        /* \"#utility.yul\":1091:1240   */\n    tag_47:\n        /* \"#utility.yul\":1127:1134   */\n      0x00\n        /* \"#utility.yul\":1167:1233   */\n      0xff00000000000000000000000000000000000000000000000000000000000000\n        /* \"#utility.yul\":1160:1165   */\n      dup3\n        /* \"#utility.yul\":1156:1234   */\n      and\n        /* \"#utility.yul\":1145:1234   */\n      swap1\n      pop\n        /* \"#utility.yul\":1091:1240   */\n      swap2\n      swap1\n      pop\n      jump\t// out\n        /* \"#utility.yul\":1246:1366   */\n    tag_48:\n        /* \"#utility.yul\":1318:1341   */\n      tag_105\n        /* \"#utility.yul\":1335:1340   */\n      dup2\n        /* \"#utility.yul\":1318:1341   */\n      tag_47\n      jump\t// in\n    tag_105:\n        /* \"#utility.yul\":1311:1316   */\n      dup2\n        /* \"#utility.yul\":1308:1342   */\n      eq\n        /* \"#utility.yul\":1298:1360   */\n      tag_106\n      jumpi\n        /* \"#utility.yul\":1356:1357   */\n      0x00\n        /* \"#utility.yul\":1353:1354   */\n      dup1\n        /* \"#utility.yul\":1346:1358   */\n      revert\n        /* \"#utility.yul\":1298:1360   */\n    tag_106:\n        /* \"#utility.yul\":1246:1366   */\n      pop\n      jump\t// out\n        /* \"#utility.yul\":1372:1509   */\n    tag_49:\n        /* \"#utility.yul\":1417:1422   */\n      0x00\n        /* \"#utility.yul\":1455:1461   */\n      dup2\n        /* \"#utility.yul\":1442:1462   */\n      calldataload\n        /* \"#utility.yul\":1433:1462   */\n      swap1\n      pop\n        /* \"#utility.yul\":1471:1503   */\n      tag_108\n        /* \"#utility.yul\":1497:1502   */\n      dup2\n        /* \"#utility.yul\":1471:1503   */\n      tag_48\n      jump\t// in\n    tag_108:\n        /* \"#utility.yul\":1372:1509   */\n      swap3\n      swap2\n      pop\n      pop\n      jump\t// out\n        /* \"#utility.yul\":1515:1842   */\n    tag_14:\n        /* \"#utility.yul\":1573:1579   */\n      0x00\n        /* \"#utility.yul\":1622:1624   */\n      0x20\n        /* \"#utility.yul\":1610:1619   */\n      dup3\n        /* \"#utility.yul\":1601:1608   */\n      dup5\n        /* \"#utility.yul\":1597:1620   */\n      sub\n        /* \"#utility.yul\":1593:1625   */\n      slt\n        /* \"#utility.yul\":1590:1709   */\n      iszero\n      tag_110\n      jumpi\n        /* \"#utility.yul\":1628:1707   */\n      tag_111\n      tag_42\n      jump\t// in\n    tag_111:\n        /* \"#utility.yul\":1590:1709   */\n    tag_110:\n        /* \"#utility.yul\":1748:1749   */\n      0x00\n        /* \"#utility.yul\":1773:1825   */\n      tag_112\n        /* \"#utility.yul\":1817:1824   */\n      dup5\n        /* \"#utility.yul\":1808:1814   */\n      dup3\n        /* \"#utility.yul\":1797:1806   */\n      dup6\n        /* \"#utility.yul\":1793:1815   */\n      add\n        /* \"#utility.yul\":1773:1825   */\n      tag_49\n      jump\t// in\n    tag_112:\n        /* \"#utility.yul\":1763:1825   */\n      swap2\n      pop\n        /* \"#utility.yul\":1719:1835   */\n      pop\n        /* \"#utility.yul\":1515:1842   */\n      swap3\n      swap2\n      pop\n      pop\n      jump\t// out\n        /* \"#utility.yul\":1848:1946   */\n    tag_50:\n        /* \"#utility.yul\":1899:1905   */\n      0x00\n        /* \"#utility.yul\":1933:1938   */\n      dup2\n        /* \"#utility.yul\":1927:1939   */\n      mload\n        /* \"#utility.yul\":1917:1939   */\n      swap1\n      pop\n        /* \"#utility.yul\":1848:1946   */\n      swap2\n      swap1\n      pop\n      jump\t// out\n        /* \"#utility.yul\":1952:2120   */\n    tag_51:\n        /* \"#utility.yul\":2035:2046   */\n      0x00\n        /* \"#utility.yul\":2069:2075   */\n      dup3\n        /* \"#utility.yul\":2064:2067   */\n      dup3\n        /* \"#utility.yul\":2057:2076   */\n      mstore\n        /* \"#utility.yul\":2109:2113   */\n      0x20\n        /* \"#utility.yul\":2104:2107   */\n      dup3\n        /* \"#utility.yul\":2100:2114   */\n      add\n        /* \"#utility.yul\":2085:2114   */\n      swap1\n      pop\n        /* \"#utility.yul\":1952:2120   */\n      swap3\n      swap2\n      pop\n      pop\n      jump\t// out\n        /* \"#utility.yul\":2126:2265   */\n    tag_52:\n        /* \"#utility.yul\":2215:2221   */\n      dup3\n        /* \"#utility.yul\":2210:2213   */\n      dup2\n        /* \"#utility.yul\":2205:2208   */\n      dup4\n        /* \"#utility.yul\":2199:2222   */\n      mcopy\n        /* \"#utility.yul\":2256:2257   */\n      0x00\n        /* \"#utility.yul\":2247:2253   */\n      dup4\n        /* \"#utility.yul\":2242:2245   */\n      dup4\n        /* \"#utility.yul\":2238:2254   */\n      add\n        /* \"#utility.yul\":2231:2258   */\n      mstore\n        /* \"#utility.yul\":2126:2265   */\n      pop\n      pop\n      pop\n      jump\t// out\n        /* \"#utility.yul\":2271:2373   */\n    tag_53:\n        /* \"#utility.yul\":2312:2318   */\n      0x00\n        /* \"#utility.yul\":2363:2365   */\n      0x1f\n        /* \"#utility.yul\":2359:2366   */\n      not\n        /* \"#utility.yul\":2354:2356   */\n      0x1f\n        /* \"#utility.yul\":2347:2352   */\n      dup4\n        /* \"#utility.yul\":2343:2357   */\n      add\n        /* \"#utility.yul\":2339:2367   */\n      and\n        /* \"#utility.yul\":2329:2367   */\n      swap1\n      pop\n        /* \"#utility.yul\":2271:2373   */\n      swap2\n      swap1\n      pop\n      jump\t// out\n        /* \"#utility.yul\":2379:2752   */\n    tag_54:\n        /* \"#utility.yul\":2465:2468   */\n      0x00\n        /* \"#utility.yul\":2493:2531   */\n      tag_118\n        /* \"#utility.yul\":2525:2530   */\n      dup3\n        /* \"#utility.yul\":2493:2531   */\n      tag_50\n      jump\t// in\n    tag_118:\n        /* \"#utility.yul\":2547:2617   */\n      tag_119\n        /* \"#utility.yul\":2610:2616   */\n      dup2\n        /* \"#utility.yul\":2605:2608   */\n      dup6\n        /* \"#utility.yul\":2547:2617   */\n      tag_51\n      jump\t// in\n    tag_119:\n        /* \"#utility.yul\":2540:2617   */\n      swap4\n      pop\n        /* \"#utility.yul\":2626:2691   */\n      tag_120\n        /* \"#utility.yul\":2684:2690   */\n      dup2\n        /* \"#utility.yul\":2679:2682   */\n      dup6\n        /* \"#utility.yul\":2672:2676   */\n      0x20\n        /* \"#utility.yul\":2665:2670   */\n      dup7\n        /* \"#utility.yul\":2661:2677   */\n      add\n        /* \"#utility.yul\":2626:2691   */\n      tag_52\n      jump\t// in\n    tag_120:\n        /* \"#utility.yul\":2716:2745   */\n      tag_121\n        /* \"#utility.yul\":2738:2744   */\n      dup2\n        /* \"#utility.yul\":2716:2745   */\n      tag_53\n      jump\t// in\n    tag_121:\n        /* \"#utility.yul\":2711:2714   */\n      dup5\n        /* \"#utility.yul\":2707:2746   */\n      add\n        /* \"#utility.yul\":2700:2746   */\n      swap2\n      pop\n        /* \"#utility.yul\":2469:2752   */\n      pop\n        /* \"#utility.yul\":2379:2752   */\n      swap3\n      swap2\n      pop\n      pop\n      jump\t// out\n        /* \"#utility.yul\":2758:2873   */\n    tag_55:\n        /* \"#utility.yul\":2843:2866   */\n      tag_123\n        /* \"#utility.yul\":2860:2865   */\n      dup2\n        /* \"#utility.yul\":2843:2866   */\n      tag_47\n      jump\t// in\n    tag_123:\n        /* \"#utility.yul\":2838:2841   */\n      dup3\n        /* \"#utility.yul\":2831:2867   */\n      mstore\n        /* \"#utility.yul\":2758:2873   */\n      pop\n      pop\n      jump\t// out\n        /* \"#utility.yul\":2879:3028   */\n    tag_56:\n        /* \"#utility.yul\":2915:2922   */\n      0x00\n        /* \"#utility.yul\":2955:3021   */\n      0xffff000000000000000000000000000000000000000000000000000000000000\n        /* \"#utility.yul\":2948:2953   */\n      dup3\n        /* \"#utility.yul\":2944:3022   */\n      and\n        /* \"#utility.yul\":2933:3022   */\n      swap1\n      pop\n        /* \"#utility.yul\":2879:3028   */\n      swap2\n      swap1\n      pop\n      jump\t// out\n        /* \"#utility.yul\":3034:3149   */\n    tag_57:\n        /* \"#utility.yul\":3119:3142   */\n      tag_126\n        /* \"#utility.yul\":3136:3141   */\n      dup2\n        /* \"#utility.yul\":3119:3142   */\n      tag_56\n      jump\t// in\n    tag_126:\n        /* \"#utility.yul\":3114:3117   */\n      dup3\n        /* \"#utility.yul\":3107:3143   */\n      mstore\n        /* \"#utility.yul\":3034:3149   */\n      pop\n      pop\n      jump\t// out\n        /* \"#utility.yul\":3155:3270   */\n    tag_58:\n        /* \"#utility.yul\":3240:3263   */\n      tag_128\n        /* \"#utility.yul\":3257:3262   */\n      dup2\n        /* \"#utility.yul\":3240:3263   */\n      tag_44\n      jump\t// in\n    tag_128:\n        /* \"#utility.yul\":3235:3238   */\n      dup3\n        /* \"#utility.yul\":3228:3264   */\n      mstore\n        /* \"#utility.yul\":3155:3270   */\n      pop\n      pop\n      jump\t// out\n        /* \"#utility.yul\":3276:3353   */\n    tag_59:\n        /* \"#utility.yul\":3313:3320   */\n      0x00\n        /* \"#utility.yul\":3342:3347   */\n      dup2\n        /* \"#utility.yul\":3331:3347   */\n      swap1\n      pop\n        /* \"#utility.yul\":3276:3353   */\n      swap2\n      swap1\n      pop\n      jump\t// out\n        /* \"#utility.yul\":3359:3477   */\n    tag_60:\n        /* \"#utility.yul\":3446:3470   */\n      tag_131\n        /* \"#utility.yul\":3464:3469   */\n      dup2\n        /* \"#utility.yul\":3446:3470   */\n      tag_59\n      jump\t// in\n    tag_131:\n        /* \"#utility.yul\":3441:3444   */\n      dup3\n        /* \"#utility.yul\":3434:3471   */\n      mstore\n        /* \"#utility.yul\":3359:3477   */\n      pop\n      pop\n      jump\t// out\n        /* \"#utility.yul\":3483:4222   */\n    tag_19:\n        /* \"#utility.yul\":3700:3704   */\n      0x00\n        /* \"#utility.yul\":3738:3741   */\n      0xa0\n        /* \"#utility.yul\":3727:3736   */\n      dup3\n        /* \"#utility.yul\":3723:3742   */\n      add\n        /* \"#utility.yul\":3715:3742   */\n      swap1\n      pop\n        /* \"#utility.yul\":3788:3797   */\n      dup2\n        /* \"#utility.yul\":3782:3786   */\n      dup2\n        /* \"#utility.yul\":3778:3798   */\n      sub\n        /* \"#utility.yul\":3774:3775   */\n      0x00\n        /* \"#utility.yul\":3763:3772   */\n      dup4\n        /* \"#utility.yul\":3759:3776   */\n      add\n        /* \"#utility.yul\":3752:3799   */\n      mstore\n        /* \"#utility.yul\":3816:3892   */\n      tag_133\n        /* \"#utility.yul\":3887:3891   */\n      dup2\n        /* \"#utility.yul\":3878:3884   */\n      dup9\n        /* \"#utility.yul\":3816:3892   */\n      tag_54\n      jump\t// in\n    tag_133:\n        /* \"#utility.yul\":3808:3892   */\n      swap1\n      pop\n        /* \"#utility.yul\":3902:3972   */\n      tag_134\n        /* \"#utility.yul\":3968:3970   */\n      0x20\n        /* \"#utility.yul\":3957:3966   */\n      dup4\n        /* \"#utility.yul\":3953:3971   */\n      add\n        /* \"#utility.yul\":3944:3950   */\n      dup8\n        /* \"#utility.yul\":3902:3972   */\n      tag_55\n      jump\t// in\n    tag_134:\n        /* \"#utility.yul\":3982:4052   */\n      tag_135\n        /* \"#utility.yul\":4048:4050   */\n      0x40\n        /* \"#utility.yul\":4037:4046   */\n      dup4\n        /* \"#utility.yul\":4033:4051   */\n      add\n        /* \"#utility.yul\":4024:4030   */\n      dup7\n        /* \"#utility.yul\":3982:4052   */\n      tag_57\n      jump\t// in\n    tag_135:\n        /* \"#utility.yul\":4062:4132   */\n      tag_136\n        /* \"#utility.yul\":4128:4130   */\n      0x60\n        /* \"#utility.yul\":4117:4126   */\n      dup4\n        /* \"#utility.yul\":4113:4131   */\n      add\n        /* \"#utility.yul\":4104:4110   */\n      dup6\n        /* \"#utility.yul\":4062:4132   */\n      tag_58\n      jump\t// in\n    tag_136:\n        /* \"#utility.yul\":4142:4215   */\n      tag_137\n        /* \"#utility.yul\":4210:4213   */\n      0x80\n        /* \"#utility.yul\":4199:4208   */\n      dup4\n        /* \"#utility.yul\":4195:4214   */\n      add\n        /* \"#utility.yul\":4186:4192   */\n      dup5\n        /* \"#utility.yul\":4142:4215   */\n      tag_60\n      jump\t// in\n    tag_137:\n        /* \"#utility.yul\":3483:4222   */\n      swap7\n      swap6\n      pop\n      pop\n      pop\n      pop\n      pop\n      pop\n      jump\t// out\n        /* \"#utility.yul\":4228:4348   */\n    tag_61:\n        /* \"#utility.yul\":4300:4323   */\n      tag_139\n        /* \"#utility.yul\":4317:4322   */\n      dup2\n        /* \"#utility.yul\":4300:4323   */\n      tag_56\n      jump\t// in\n    tag_139:\n        /* \"#utility.yul\":4293:4298   */\n      dup2\n        /* \"#utility.yul\":4290:4324   */\n      eq\n        /* \"#utility.yul\":4280:4342   */\n      tag_140\n      jumpi\n        /* \"#utility.yul\":4338:4339   */\n      0x00\n        /* \"#utility.yul\":4335:4336   */\n      dup1\n        /* \"#utility.yul\":4328:4340   */\n      revert\n        /* \"#utility.yul\":4280:4342   */\n    tag_140:\n        /* \"#utility.yul\":4228:4348   */\n      pop\n      jump\t// out\n        /* \"#utility.yul\":4354:4491   */\n    tag_62:\n        /* \"#utility.yul\":4399:4404   */\n      0x00\n        /* \"#utility.yul\":4437:4443   */\n      dup2\n        /* \"#utility.yul\":4424:4444   */\n      calldataload\n        /* \"#utility.yul\":4415:4444   */\n      swap1\n      pop\n        /* \"#utility.yul\":4453:4485   */\n      tag_142\n        /* \"#utility.yul\":4479:4484   */\n      dup2\n        /* \"#utility.yul\":4453:4485   */\n      tag_61\n      jump\t// in\n    tag_142:\n        /* \"#utility.yul\":4354:4491   */\n      swap3\n      swap2\n      pop\n      pop\n      jump\t// out\n        /* \"#utility.yul\":4497:4824   */\n    tag_22:\n        /* \"#utility.yul\":4555:4561   */\n      0x00\n        /* \"#utility.yul\":4604:4606   */\n      0x20\n        /* \"#utility.yul\":4592:4601   */\n      dup3\n        /* \"#utility.yul\":4583:4590   */\n      dup5\n        /* \"#utility.yul\":4579:4602   */\n      sub\n        /* \"#utility.yul\":4575:4607   */\n      slt\n        /* \"#utility.yul\":4572:4691   */\n      iszero\n      tag_144\n      jumpi\n        /* \"#utility.yul\":4610:4689   */\n      tag_145\n      tag_42\n      jump\t// in\n    tag_145:\n        /* \"#utility.yul\":4572:4691   */\n    tag_144:\n        /* \"#utility.yul\":4730:4731   */\n      0x00\n        /* \"#utility.yul\":4755:4807   */\n      tag_146\n        /* \"#utility.yul\":4799:4806   */\n      dup5\n        /* \"#utility.yul\":4790:4796   */\n      dup3\n        /* \"#utility.yul\":4779:4788   */\n      dup6\n        /* \"#utility.yul\":4775:4797   */\n      add\n        /* \"#utility.yul\":4755:4807   */\n      tag_62\n      jump\t// in\n    tag_146:\n        /* \"#utility.yul\":4745:4807   */\n      swap2\n      pop\n        /* \"#utility.yul\":4701:4817   */\n      pop\n        /* \"#utility.yul\":4497:4824   */\n      swap3\n      swap2\n      pop\n      pop\n      jump\t// out\n        /* \"#utility.yul\":4830:4947   */\n    tag_63:\n        /* \"#utility.yul\":4939:4940   */\n      0x00\n        /* \"#utility.yul\":4936:4937   */\n      dup1\n        /* \"#utility.yul\":4929:4941   */\n      revert\n        /* \"#utility.yul\":4953:5070   */\n    tag_64:\n        /* \"#utility.yul\":5062:5063   */\n      0x00\n        /* \"#utility.yul\":5059:5060   */\n      dup1\n        /* \"#utility.yul\":5052:5064   */\n      revert\n        /* \"#utility.yul\":5076:5256   */\n    tag_65:\n        /* \"#utility.yul\":5124:5201   */\n      0x4e487b7100000000000000000000000000000000000000000000000000000000\n        /* \"#utility.yul\":5121:5122   */\n      0x00\n        /* \"#utility.yul\":5114:5202   */\n      mstore\n        /* \"#utility.yul\":5221:5225   */\n      0x41\n        /* \"#utility.yul\":5218:5219   */\n      0x04\n        /* \"#utility.yul\":5211:5226   */\n      mstore\n        /* \"#utility.yul\":5245:5249   */\n      0x24\n        /* \"#utility.yul\":5242:5243   */\n      0x00\n        /* \"#utility.yul\":5235:5250   */\n      revert\n        /* \"#utility.yul\":5262:5543   */\n    tag_66:\n        /* \"#utility.yul\":5345:5372   */\n      tag_151\n        /* \"#utility.yul\":5367:5371   */\n      dup3\n        /* \"#utility.yul\":5345:5372   */\n      tag_53\n      jump\t// in\n    tag_151:\n        /* \"#utility.yul\":5337:5343   */\n      dup2\n        /* \"#utility.yul\":5333:5373   */\n      add\n        /* \"#utility.yul\":5475:5481   */\n      dup2\n        /* \"#utility.yul\":5463:5473   */\n      dup2\n        /* \"#utility.yul\":5460:5482   */\n      lt\n        /* \"#utility.yul\":5439:5457   */\n      0xffffffffffffffff\n        /* \"#utility.yul\":5427:5437   */\n      dup3\n        /* \"#utility.yul\":5424:5458   */\n      gt\n        /* \"#utility.yul\":5421:5483   */\n      or\n        /* \"#utility.yul\":5418:5506   */\n      iszero\n      tag_152\n      jumpi\n        /* \"#utility.yul\":5486:5504   */\n      tag_153\n      tag_65\n      jump\t// in\n    tag_153:\n        /* \"#utility.yul\":5418:5506   */\n    tag_152:\n        /* \"#utility.yul\":5526:5536   */\n      dup1\n        /* \"#utility.yul\":5522:5524   */\n      0x40\n        /* \"#utility.yul\":5515:5537   */\n      mstore\n        /* \"#utility.yul\":5305:5543   */\n      pop\n        /* \"#utility.yul\":5262:5543   */\n      pop\n      pop\n      jump\t// out\n        /* \"#utility.yul\":5549:5678   */\n    tag_67:\n        /* \"#utility.yul\":5583:5589   */\n      0x00\n        /* \"#utility.yul\":5610:5630   */\n      tag_155\n      tag_41\n      jump\t// in\n    tag_155:\n        /* \"#utility.yul\":5600:5630   */\n      swap1\n      pop\n        /* \"#utility.yul\":5639:5672   */\n      tag_156\n        /* \"#utility.yul\":5667:5671   */\n      dup3\n        /* \"#utility.yul\":5659:5665   */\n      dup3\n        /* \"#utility.yul\":5639:5672   */\n      tag_66\n      jump\t// in\n    tag_156:\n        /* \"#utility.yul\":5549:5678   */\n      swap2\n      swap1\n      pop\n      jump\t// out\n        /* \"#utility.yul\":5684:5991   */\n    tag_68:\n        /* \"#utility.yul\":5745:5749   */\n      0x00\n        /* \"#utility.yul\":5835:5853   */\n      0xffffffffffffffff\n        /* \"#utility.yul\":5827:5833   */\n      dup3\n        /* \"#utility.yul\":5824:5854   */\n      gt\n        /* \"#utility.yul\":5821:5877   */\n      iszero\n      tag_158\n      jumpi\n        /* \"#utility.yul\":5857:5875   */\n      tag_159\n      tag_65\n      jump\t// in\n    tag_159:\n        /* \"#utility.yul\":5821:5877   */\n    tag_158:\n        /* \"#utility.yul\":5895:5924   */\n      tag_160\n        /* \"#utility.yul\":5917:5923   */\n      dup3\n        /* \"#utility.yul\":5895:5924   */\n      tag_53\n      jump\t// in\n    tag_160:\n        /* \"#utility.yul\":5887:5924   */\n      swap1\n      pop\n        /* \"#utility.yul\":5979:5983   */\n      0x20\n        /* \"#utility.yul\":5973:5977   */\n      dup2\n        /* \"#utility.yul\":5969:5984   */\n      add\n        /* \"#utility.yul\":5961:5984   */\n      swap1\n      pop\n        /* \"#utility.yul\":5684:5991   */\n      swap2\n      swap1\n      pop\n      jump\t// out\n        /* \"#utility.yul\":5997:6145   */\n    tag_69:\n        /* \"#utility.yul\":6095:6101   */\n      dup3\n        /* \"#utility.yul\":6090:6093   */\n      dup2\n        /* \"#utility.yul\":6085:6088   */\n      dup4\n        /* \"#utility.yul\":6072:6102   */\n      calldatacopy\n        /* \"#utility.yul\":6136:6137   */\n      0x00\n        /* \"#utility.yul\":6127:6133   */\n      dup4\n        /* \"#utility.yul\":6122:6125   */\n      dup4\n        /* \"#utility.yul\":6118:6134   */\n      add\n        /* \"#utility.yul\":6111:6138   */\n      mstore\n        /* \"#utility.yul\":5997:6145   */\n      pop\n      pop\n      pop\n      jump\t// out\n        /* \"#utility.yul\":6151:6574   */\n    tag_70:\n        /* \"#utility.yul\":6228:6233   */\n      0x00\n        /* \"#utility.yul\":6253:6318   */\n      tag_163\n        /* \"#utility.yul\":6269:6317   */\n      tag_164\n        /* \"#utility.yul\":6310:6316   */\n      dup5\n        /* \"#utility.yul\":6269:6317   */\n      tag_68\n      jump\t// in\n    tag_164:\n        /* \"#utility.yul\":6253:6318   */\n      tag_67\n      jump\t// in\n    tag_163:\n        /* \"#utility.yul\":6244:6318   */\n      swap1\n      pop\n        /* \"#utility.yul\":6341:6347   */\n      dup3\n        /* \"#utility.yul\":6334:6339   */\n      dup2\n        /* \"#utility.yul\":6327:6348   */\n      mstore\n        /* \"#utility.yul\":6379:6383   */\n      0x20\n        /* \"#utility.yul\":6372:6377   */\n      dup2\n        /* \"#utility.yul\":6368:6384   */\n      add\n        /* \"#utility.yul\":6417:6420   */\n      dup5\n        /* \"#utility.yul\":6408:6414   */\n      dup5\n        /* \"#utility.yul\":6403:6406   */\n      dup5\n        /* \"#utility.yul\":6399:6415   */\n      add\n        /* \"#utility.yul\":6396:6421   */\n      gt\n        /* \"#utility.yul\":6393:6505   */\n      iszero\n      tag_165\n      jumpi\n        /* \"#utility.yul\":6424:6503   */\n      tag_166\n      tag_64\n      jump\t// in\n    tag_166:\n        /* \"#utility.yul\":6393:6505   */\n    tag_165:\n        /* \"#utility.yul\":6514:6568   */\n      tag_167\n        /* \"#utility.yul\":6561:6567   */\n      dup5\n        /* \"#utility.yul\":6556:6559   */\n      dup3\n        /* \"#utility.yul\":6551:6554   */\n      dup6\n        /* \"#utility.yul\":6514:6568   */\n      tag_69\n      jump\t// in\n    tag_167:\n        /* \"#utility.yul\":6234:6574   */\n      pop\n        /* \"#utility.yul\":6151:6574   */\n      swap4\n      swap3\n      pop\n      pop\n      pop\n      jump\t// out\n        /* \"#utility.yul\":6593:6931   */\n    tag_71:\n        /* \"#utility.yul\":6648:6653   */\n      0x00\n        /* \"#utility.yul\":6697:6700   */\n      dup3\n        /* \"#utility.yul\":6690:6694   */\n      0x1f\n        /* \"#utility.yul\":6682:6688   */\n      dup4\n        /* \"#utility.yul\":6678:6695   */\n      add\n        /* \"#utility.yul\":6674:6701   */\n      slt\n        /* \"#utility.yul\":6664:6786   */\n      tag_169\n      jumpi\n        /* \"#utility.yul\":6705:6784   */\n      tag_170\n      tag_63\n      jump\t// in\n    tag_170:\n        /* \"#utility.yul\":6664:6786   */\n    tag_169:\n        /* \"#utility.yul\":6822:6828   */\n      dup2\n        /* \"#utility.yul\":6809:6829   */\n      calldataload\n        /* \"#utility.yul\":6847:6925   */\n      tag_171\n        /* \"#utility.yul\":6921:6924   */\n      dup5\n        /* \"#utility.yul\":6913:6919   */\n      dup3\n        /* \"#utility.yul\":6906:6910   */\n      0x20\n        /* \"#utility.yul\":6898:6904   */\n      dup7\n        /* \"#utility.yul\":6894:6911   */\n      add\n        /* \"#utility.yul\":6847:6925   */\n      tag_70\n      jump\t// in\n    tag_171:\n        /* \"#utility.yul\":6838:6925   */\n      swap2\n      pop\n        /* \"#utility.yul\":6654:6931   */\n      pop\n        /* \"#utility.yul\":6593:6931   */\n      swap3\n      swap2\n      pop\n      pop\n      jump\t// out\n        /* \"#utility.yul\":6937:7444   */\n    tag_26:\n        /* \"#utility.yul\":7005:7011   */\n      0x00\n        /* \"#utility.yul\":7054:7056   */\n      0x20\n        /* \"#utility.yul\":7042:7051   */\n      dup3\n        /* \"#utility.yul\":7033:7040   */\n      dup5\n        /* \"#utility.yul\":7029:7052   */\n      sub\n        /* \"#utility.yul\":7025:7057   */\n      slt\n        /* \"#utility.yul\":7022:7141   */\n      iszero\n      tag_173\n      jumpi\n        /* \"#utility.yul\":7060:7139   */\n      tag_174\n      tag_42\n      jump\t// in\n    tag_174:\n        /* \"#utility.yul\":7022:7141   */\n    tag_173:\n        /* \"#utility.yul\":7208:7209   */\n      0x00\n        /* \"#utility.yul\":7197:7206   */\n      dup3\n        /* \"#utility.yul\":7193:7210   */\n      add\n        /* \"#utility.yul\":7180:7211   */\n      calldataload\n        /* \"#utility.yul\":7238:7256   */\n      0xffffffffffffffff\n        /* \"#utility.yul\":7230:7236   */\n      dup2\n        /* \"#utility.yul\":7227:7257   */\n      gt\n        /* \"#utility.yul\":7224:7341   */\n      iszero\n      tag_175\n      jumpi\n        /* \"#utility.yul\":7260:7339   */\n      tag_176\n      tag_43\n      jump\t// in\n    tag_176:\n        /* \"#utility.yul\":7224:7341   */\n    tag_175:\n        /* \"#utility.yul\":7365:7427   */\n      tag_177\n        /* \"#utility.yul\":7419:7426   */\n      dup5\n        /* \"#utility.yul\":7410:7416   */\n      dup3\n        /* \"#utility.yul\":7399:7408   */\n      dup6\n        /* \"#utility.yul\":7395:7417   */\n      add\n        /* \"#utility.yul\":7365:7427   */\n      tag_71\n      jump\t// in\n    tag_177:\n        /* \"#utility.yul\":7355:7427   */\n      swap2\n      pop\n        /* \"#utility.yul\":7151:7437   */\n      pop\n        /* \"#utility.yul\":6937:7444   */\n      swap3\n      swap2\n      pop\n      pop\n      jump\t// out\n        /* \"#utility.yul\":7450:7630   */\n    tag_72:\n        /* \"#utility.yul\":7498:7575   */\n      0x4e487b7100000000000000000000000000000000000000000000000000000000\n        /* \"#utility.yul\":7495:7496   */\n      0x00\n        /* \"#utility.yul\":7488:7576   */\n      mstore\n        /* \"#utility.yul\":7595:7599   */\n      0x22\n        /* \"#utility.yul\":7592:7593   */\n      0x04\n        /* \"#utility.yul\":7585:7600   */\n      mstore\n        /* \"#utility.yul\":7619:7623   */\n      0x24\n        /* \"#utility.yul\":7616:7617   */\n      0x00\n        /* \"#utility.yul\":7609:7624   */\n      revert\n        /* \"#utility.yul\":7636:7956   */\n    tag_32:\n        /* \"#utility.yul\":7680:7686   */\n      0x00\n        /* \"#utility.yul\":7717:7718   */\n      0x02\n        /* \"#utility.yul\":7711:7715   */\n      dup3\n        /* \"#utility.yul\":7707:7719   */\n      div\n        /* \"#utility.yul\":7697:7719   */\n      swap1\n      pop\n        /* \"#utility.yul\":7764:7765   */\n      0x01\n        /* \"#utility.yul\":7758:7762   */\n      dup3\n        /* \"#utility.yul\":7754:7766   */\n      and\n        /* \"#utility.yul\":7785:7803   */\n      dup1\n        /* \"#utility.yul\":7775:7856   */\n      tag_180\n      jumpi\n        /* \"#utility.yul\":7841:7845   */\n      0x7f\n        /* \"#utility.yul\":7833:7839   */\n      dup3\n        /* \"#utility.yul\":7829:7846   */\n      and\n        /* \"#utility.yul\":7819:7846   */\n      swap2\n      pop\n        /* \"#utility.yul\":7775:7856   */\n    tag_180:\n        /* \"#utility.yul\":7903:7905   */\n      0x20\n        /* \"#utility.yul\":7895:7901   */\n      dup3\n        /* \"#utility.yul\":7892:7906   */\n      lt\n        /* \"#utility.yul\":7872:7890   */\n      dup2\n        /* \"#utility.yul\":7869:7907   */\n      sub\n        /* \"#utility.yul\":7866:7950   */\n      tag_181\n      jumpi\n        /* \"#utility.yul\":7922:7940   */\n      tag_182\n      tag_72\n      jump\t// in\n    tag_182:\n        /* \"#utility.yul\":7866:7950   */\n    tag_181:\n        /* \"#utility.yul\":7687:7956   */\n      pop\n        /* \"#utility.yul\":7636:7956   */\n      swap2\n      swap1\n      pop\n      jump\t// out\n        /* \"#utility.yul\":7962:8102   */\n    tag_73:\n        /* \"#utility.yul\":8010:8014   */\n      0x00\n        /* \"#utility.yul\":8033:8036   */\n      dup2\n        /* \"#utility.yul\":8025:8036   */\n      swap1\n      pop\n        /* \"#utility.yul\":8056:8059   */\n      dup2\n        /* \"#utility.yul\":8053:8054   */\n      0x00\n        /* \"#utility.yul\":8046:8060   */\n      mstore\n        /* \"#utility.yul\":8090:8094   */\n      0x20\n        /* \"#utility.yul\":8087:8088   */\n      0x00\n        /* \"#utility.yul\":8077:8095   */\n      keccak256\n        /* \"#utility.yul\":8069:8095   */\n      swap1\n      pop\n        /* \"#utility.yul\":7962:8102   */\n      swap2\n      swap1\n      pop\n      jump\t// out\n        /* \"#utility.yul\":8108:8201   */\n    tag_74:\n        /* \"#utility.yul\":8145:8151   */\n      0x00\n        /* \"#utility.yul\":8192:8194   */\n      0x20\n        /* \"#utility.yul\":8187:8189   */\n      0x1f\n        /* \"#utility.yul\":8180:8185   */\n      dup4\n        /* \"#utility.yul\":8176:8190   */\n      add\n        /* \"#utility.yul\":8172:8195   */\n      div\n        /* \"#utility.yul\":8162:8195   */\n      swap1\n      pop\n        /* \"#utility.yul\":8108:8201   */\n      swap2\n      swap1\n      pop\n      jump\t// out\n        /* \"#utility.yul\":8207:8314   */\n    tag_75:\n        /* \"#utility.yul\":8251:8259   */\n      0x00\n        /* \"#utility.yul\":8301:8306   */\n      dup3\n        /* \"#utility.yul\":8295:8299   */\n      dup3\n        /* \"#utility.yul\":8291:8307   */\n      shl\n        /* \"#utility.yul\":8270:8307   */\n      swap1\n      pop\n        /* \"#utility.yul\":8207:8314   */\n      swap3\n      swap2\n      pop\n      pop\n      jump\t// out\n        /* \"#utility.yul\":8320:8713   */\n    tag_76:\n        /* \"#utility.yul\":8389:8395   */\n      0x00\n        /* \"#utility.yul\":8439:8440   */\n      0x08\n        /* \"#utility.yul\":8427:8437   */\n      dup4\n        /* \"#utility.yul\":8423:8441   */\n      mul\n        /* \"#utility.yul\":8462:8559   */\n      tag_187\n        /* \"#utility.yul\":8492:8558   */\n      0xffffffffffffffffffffffffffffffffffffffffffffffffffffffffffffffff\n        /* \"#utility.yul\":8481:8490   */\n      dup3\n        /* \"#utility.yul\":8462:8559   */\n      tag_75\n      jump\t// in\n    tag_187:\n        /* \"#utility.yul\":8580:8619   */\n      tag_188\n        /* \"#utility.yul\":8610:8618   */\n      dup7\n        /* \"#utility.yul\":8599:8608   */\n      dup4\n        /* \"#utility.yul\":8580:8619   */\n      tag_75\n      jump\t// in\n    tag_188:\n        /* \"#utility.yul\":8568:8619   */\n      swap6\n      pop\n        /* \"#utility.yul\":8652:8656   */\n      dup1\n        /* \"#utility.yul\":8648:8657   */\n      not\n        /* \"#utility.yul\":8641:8646   */\n      dup5\n        /* \"#utility.yul\":8637:8658   */\n      and\n        /* \"#utility.yul\":8628:8658   */\n      swap4\n      pop\n        /* \"#utility.yul\":8701:8705   */\n      dup1\n        /* \"#utility.yul\":8691:8699   */\n      dup7\n        /* \"#utility.yul\":8687:8706   */\n      and\n        /* \"#utility.yul\":8680:8685   */\n      dup5\n        /* \"#utility.yul\":8677:8707   */\n      or\n        /* \"#utility.yul\":8667:8707   */\n      swap3\n      pop\n        /* \"#utility.yul\":8396:8713   */\n      pop\n      pop\n        /* \"#utility.yul\":8320:8713   */\n      swap4\n      swap3\n      pop\n      pop\n      pop\n      jump\t// out\n        /* \"#utility.yul\":8719:8796   */\n    tag_77:\n        /* \"#utility.yul\":8756:8763   */\n      0x00\n        /* \"#utility.yul\":8785:8790   */\n      dup2\n        /* \"#utility.yul\":8774:8790   */\n      swap1\n      pop\n        /* \"#utility.yul\":8719:8796   */\n      swap2\n      swap1\n      pop\n      jump\t// out\n        /* \"#utility.yul\":8802:8862   */\n    tag_78:\n        /* \"#utility.yul\":8830:8833   */\n      0x00\n        /* \"#utility.yul\":8851:8856   */\n      dup2\n        /* \"#utility.yul\":8844:8856   */\n      swap1\n      pop\n        /* \"#utility.yul\":8802:8862   */\n      swap2\n      swap1\n      pop\n      jump\t// out\n        /* \"#utility.yul\":8868:9010   */\n    tag_79:\n        /* \"#utility.yul\":8918:8927   */\n      0x00\n        /* \"#utility.yul\":8951:9004   */\n      tag_192\n        /* \"#utility.yul\":8969:9003   */\n      tag_193\n        /* \"#utility.yul\":8978:9002   */\n      tag_194\n        /* \"#utility.yul\":8996:9001   */\n      dup5\n        /* \"#utility.yul\":8978:9002   */\n      tag_77\n      jump\t// in\n    tag_194:\n        /* \"#utility.yul\":8969:9003   */\n      tag_78\n      jump\t// in\n    tag_193:\n        /* \"#utility.yul\":8951:9004   */\n      tag_77\n      jump\t// in\n    tag_192:\n        /* \"#utility.yul\":8938:9004   */\n      swap1\n      pop\n        /* \"#utility.yul\":8868:9010   */\n      swap2\n      swap1\n      pop\n      jump\t// out\n        /* \"#utility.yul\":9016:9091   */\n    tag_80:\n        /* \"#utility.yul\":9059:9062   */\n      0x00\n        /* \"#utility.yul\":9080:9085   */\n      dup2\n        /* \"#utility.yul\":9073:9085   */\n      swap1\n      pop\n        /* \"#utility.yul\":9016:9091   */\n      swap2\n      swap1\n      pop\n      jump\t// out\n        /* \"#utility.yul\":9097:9366   */\n    tag_81:\n        /* \"#utility.yul\":9207:9246   */\n      tag_197\n        /* \"#utility.yul\":9238:9245   */\n      dup4\n        /* \"#utility.yul\":9207:9246   */\n      tag_79\n      jump\t// in\n    tag_197:\n        /* \"#utility.yul\":9268:9359   */\n      tag_198\n        /* \"#utility.yul\":9317:9358   */\n      tag_199\n        /* \"#utility.yul\":9341:9357   */\n      dup3\n        /* \"#utility.yul\":9317:9358   */\n      tag_80\n      jump\t// in\n    tag_199:\n        /* \"#utility.yul\":9309:9315   */\n      dup5\n        /* \"#utility.yul\":9302:9306   */\n      dup5\n        /* \"#utility.yul\":9296:9307   */\n      sload\n        /* \"#utility.yul\":9268:9359   */\n      tag_76\n      jump\t// in\n    tag_198:\n        /* \"#utility.yul\":9262:9266   */\n      dup3\n        /* \"#utility.yul\":9255:9360   */\n      sstore\n        /* \"#utility.yul\":9173:9366   */\n      pop\n        /* \"#utility.yul\":9097:9366   */\n      pop\n      pop\n      pop\n      jump\t// out\n        /* \"#utility.yul\":9372:9445   */\n    tag_82:\n        /* \"#utility.yul\":9417:9420   */\n      0x00\n        /* \"#utility.yul\":9372:9445   */\n      swap1\n      jump\t// out\n        /* \"#utility.yul\":9451:9640   */\n    tag_83:\n        /* \"#utility.yul\":9528:9560   */\n      tag_202\n      tag_82\n      jump\t// in\n    tag_202:\n        /* \"#utility.yul\":9569:9634   */\n      tag_203\n        /* \"#utility.yul\":9627:9633   */\n      dup2\n        /* \"#utility.yul\":9619:9625   */\n      dup5\n        /* \"#utility.yul\":9613:9617   */\n      dup5\n        /* \"#utility.yul\":9569:9634   */\n      tag_81\n      jump\t// in\n    tag_203:\n        /* \"#utility.yul\":9504:9640   */\n      pop\n        /* \"#utility.yul\":9451:9640   */\n      pop\n      pop\n      jump\t// out\n        /* \"#utility.yul\":9646:9832   */\n    tag_84:\n        /* \"#utility.yul\":9706:9826   */\n    tag_205:\n        /* \"#utility.yul\":9723:9726   */\n      dup2\n        /* \"#utility.yul\":9716:9721   */\n      dup2\n        /* \"#utility.yul\":9713:9727   */\n      lt\n        /* \"#utility.yul\":9706:9826   */\n      iszero\n      tag_207\n      jumpi\n        /* \"#utility.yul\":9777:9816   */\n      tag_208\n        /* \"#utility.yul\":9814:9815   */\n      0x00\n        /* \"#utility.yul\":9807:9812   */\n      dup3\n        /* \"#utility.yul\":9777:9816   */\n      tag_83\n      jump\t// in\n    tag_208:\n        /* \"#utility.yul\":9750:9751   */\n      0x01\n        /* \"#utility.yul\":9743:9748   */\n      dup2\n        /* \"#utility.yul\":9739:9752   */\n      add\n        /* \"#utility.yul\":9730:9752   */\n      swap1\n      pop\n        /* \"#utility.yul\":9706:9826   */\n      jump(tag_205)\n    tag_207:\n        /* \"#utility.yul\":9646:9832   */\n      pop\n      pop\n      jump\t// out\n        /* \"#utility.yul\":9838:10379   */\n    tag_85:\n        /* \"#utility.yul\":9938:9940   */\n      0x1f\n        /* \"#utility.yul\":9933:9936   */\n      dup3\n        /* \"#utility.yul\":9930:9941   */\n      gt\n        /* \"#utility.yul\":9927:10372   */\n      iszero\n      tag_210\n      jumpi\n        /* \"#utility.yul\":9972:10009   */\n      tag_211\n        /* \"#utility.yul\":10003:10008   */\n      dup2\n        /* \"#utility.yul\":9972:10009   */\n      tag_73\n      jump\t// in\n    tag_211:\n        /* \"#utility.yul\":10055:10084   */\n      tag_212\n        /* \"#utility.yul\":10073:10083   */\n      dup5\n        /* \"#utility.yul\":10055:10084   */\n      tag_74\n      jump\t// in\n    tag_212:\n        /* \"#utility.yul\":10045:10053   */\n      dup2\n        /* \"#utility.yul\":10041:10085   */\n      add\n        /* \"#utility.yul\":10238:10240   */\n      0x20\n        /* \"#utility.yul\":10226:10236   */\n      dup6\n        /* \"#utility.yul\":10223:10241   */\n      lt\n        /* \"#utility.yul\":10220:10269   */\n      iszero\n      tag_213\n      jumpi\n        /* \"#utility.yul\":10259:10267   */\n      dup2\n        /* \"#utility.yul\":10244:10267   */\n      swap1\n      pop\n        /* \"#utility.yul\":10220:10269   */\n    tag_213:\n        /* \"#utility.yul\":10282:10362   */\n      tag_214\n        /* \"#utility.yul\":10338:10360   */\n      tag_215\n        /* \"#utility.yul\":10356:10359   */\n      dup6\n        /* \"#utility.yul\":10338:10360   */\n      tag_74\n      jump\t// in\n    tag_215:\n        /* \"#utility.yul\":10328:10336   */\n      dup4\n        /* \"#utility.yul\":10324:10361   */\n      add\n        /* \"#utility.yul\":10311:10322   */\n      dup3\n        /* \"#utility.yul\":10282:10362   */\n      tag_84\n      jump\t// in\n    tag_214:\n        /* \"#utility.yul\":9942:10372   */\n      pop\n      pop\n        /* \"#utility.yul\":9927:10372   */\n    tag_210:\n        /* \"#utility.yul\":9838:10379   */\n      pop\n      pop\n      pop\n      jump\t// out\n        /* \"#utility.yul\":10385:10502   */\n    tag_86:\n        /* \"#utility.yul\":10439:10447   */\n      0x00\n        /* \"#utility.yul\":10489:10494   */\n      dup3\n        /* \"#utility.yul\":10483:10487   */\n      dup3\n        /* \"#utility.yul\":10479:10495   */\n      shr\n        /* \"#utility.yul\":10458:10495   */\n      swap1\n      pop\n        /* \"#utility.yul\":10385:10502   */\n      swap3\n      swap2\n      pop\n      pop\n      jump\t// out\n        /* \"#utility.yul\":10508:10677   */\n    tag_87:\n        /* \"#utility.yul\":10552:10558   */\n      0x00\n        /* \"#utility.yul\":10585:10636   */\n      tag_218\n        /* \"#utility.yul\":10633:10634   */\n      0x00\n        /* \"#utility.yul\":10629:10635   */\n      not\n        /* \"#utility.yul\":10621:10626   */\n      dup5\n        /* \"#utility.yul\":10618:10619   */\n      0x08\n        /* \"#utility.yul\":10614:10627   */\n      mul\n        /* \"#utility.yul\":10585:10636   */\n      tag_86\n      jump\t// in\n    tag_218:\n        /* \"#utility.yul\":10581:10637   */\n      not\n        /* \"#utility.yul\":10666:10670   */\n      dup1\n        /* \"#utility.yul\":10660:10664   */\n      dup4\n        /* \"#utility.yul\":10656:10671   */\n      and\n        /* \"#utility.yul\":10646:10671   */\n      swap2\n      pop\n        /* \"#utility.yul\":10559:10677   */\n      pop\n        /* \"#utility.yul\":10508:10677   */\n      swap3\n      swap2\n      pop\n      pop\n      jump\t// out\n        /* \"#utility.yul\":10682:10977   */\n    tag_88:\n        /* \"#utility.yul\":10758:10762   */\n      0x00\n        /* \"#utility.yul\":10904:10933   */\n      tag_220\n        /* \"#utility.yul\":10929:10932   */\n      dup4\n        /* \"#utility.yul\":10923:10927   */\n      dup4\n        /* \"#utility.yul\":10904:10933   */\n      tag_87\n      jump\t// in\n    tag_220:\n        /* \"#utility.yul\":10896:10933   */\n      swap2\n      pop\n        /* \"#utility.yul\":10966:10969   */\n      dup3\n        /* \"#utility.yul\":10963:10964   */\n      0x02\n        /* \"#utility.yul\":10959:10970   */\n      mul\n        /* \"#utility.yul\":10953:10957   */\n      dup3\n        /* \"#utility.yul\":10950:10971   */\n      or\n        /* \"#utility.yul\":10942:10971   */\n      swap1\n      pop\n        /* \"#utility.yul\":10682:10977   */\n      swap3\n      swap2\n      pop\n      pop\n      jump\t// out\n        /* \"#utility.yul\":10982:12372   */\n    tag_40:\n        /* \"#utility.yul\":11097:11133   */\n      tag_222\n        /* \"#utility.yul\":11129:11132   */\n      dup3\n        /* \"#utility.yul\":11097:11133   */\n      tag_50\n      jump\t// in\n    tag_222:\n        /* \"#utility.yul\":11198:11216   */\n      0xffffffffffffffff\n        /* \"#utility.yul\":11190:11196   */\n      dup2\n        /* \"#utility.yul\":11187:11217   */\n      gt\n        /* \"#utility.yul\":11184:11240   */\n      iszero\n      tag_223\n      jumpi\n        /* \"#utility.yul\":11220:11238   */\n      tag_224\n      tag_65\n      jump\t// in\n    tag_224:\n        /* \"#utility.yul\":11184:11240   */\n    tag_223:\n        /* \"#utility.yul\":11264:11302   */\n      tag_225\n        /* \"#utility.yul\":11296:11300   */\n      dup3\n        /* \"#utility.yul\":11290:11301   */\n      sload\n        /* \"#utility.yul\":11264:11302   */\n      tag_32\n      jump\t// in\n    tag_225:\n        /* \"#utility.yul\":11349:11415   */\n      tag_226\n        /* \"#utility.yul\":11408:11414   */\n      dup3\n        /* \"#utility.yul\":11400:11406   */\n      dup3\n        /* \"#utility.yul\":11394:11398   */\n      dup6\n        /* \"#utility.yul\":11349:11415   */\n      tag_85\n      jump\t// in\n    tag_226:\n        /* \"#utility.yul\":11442:11443   */\n      0x00\n        /* \"#utility.yul\":11466:11470   */\n      0x20\n        /* \"#utility.yul\":11453:11470   */\n      swap1\n      pop\n        /* \"#utility.yul\":11498:11500   */\n      0x1f\n        /* \"#utility.yul\":11490:11496   */\n      dup4\n        /* \"#utility.yul\":11487:11501   */\n      gt\n        /* \"#utility.yul\":11515:11516   */\n      0x01\n        /* \"#utility.yul\":11510:12127   */\n      dup2\n      eq\n      tag_228\n      jumpi\n        /* \"#utility.yul\":12171:12172   */\n      0x00\n        /* \"#utility.yul\":12188:12194   */\n      dup5\n        /* \"#utility.yul\":12185:12262   */\n      iszero\n      tag_229\n      jumpi\n        /* \"#utility.yul\":12237:12246   */\n      dup3\n        /* \"#utility.yul\":12232:12235   */\n      dup8\n        /* \"#utility.yul\":12228:12247   */\n      add\n        /* \"#utility.yul\":12222:12248   */\n      mload\n        /* \"#utility.yul\":12213:12248   */\n      swap1\n      pop\n        /* \"#utility.yul\":12185:12262   */\n    tag_229:\n        /* \"#utility.yul\":12288:12355   */\n      tag_230\n        /* \"#utility.yul\":12348:12354   */\n      dup6\n        /* \"#utility.yul\":12341:12346   */\n      dup3\n        /* \"#utility.yul\":12288:12355   */\n      tag_88\n      jump\t// in\n    tag_230:\n        /* \"#utility.yul\":12282:12286   */\n      dup7\n        /* \"#utility.yul\":12275:12356   */\n      sstore\n        /* \"#utility.yul\":12144:12366   */\n      pop\n        /* \"#utility.yul\":11480:12366   */\n      jump(tag_227)\n        /* \"#utility.yul\":11510:12127   */\n    tag_228:\n        /* \"#utility.yul\":11562:11566   */\n      0x1f\n        /* \"#utility.yul\":11558:11567   */\n      not\n        /* \"#utility.yul\":11550:11556   */\n      dup5\n        /* \"#utility.yul\":11546:11568   */\n      and\n        /* \"#utility.yul\":11596:11632   */\n      tag_231\n        /* \"#utility.yul\":11627:11631   */\n      dup7\n        /* \"#utility.yul\":11596:11632   */\n      tag_73\n      jump\t// in\n    tag_231:\n        /* \"#utility.yul\":11654:11655   */\n      0x00\n        /* \"#utility.yul\":11668:11876   */\n    tag_232:\n        /* \"#utility.yul\":11682:11689   */\n      dup3\n        /* \"#utility.yul\":11679:11680   */\n      dup2\n        /* \"#utility.yul\":11676:11690   */\n      lt\n        /* \"#utility.yul\":11668:11876   */\n      iszero\n      tag_234\n      jumpi\n        /* \"#utility.yul\":11761:11770   */\n      dup5\n        /* \"#utility.yul\":11756:11759   */\n      dup10\n        /* \"#utility.yul\":11752:11771   */\n      add\n        /* \"#utility.yul\":11746:11772   */\n      mload\n        /* \"#utility.yul\":11738:11744   */\n      dup3\n        /* \"#utility.yul\":11731:11773   */\n      sstore\n        /* \"#utility.yul\":11812:11813   */\n      0x01\n        /* \"#utility.yul\":11804:11810   */\n      dup3\n        /* \"#utility.yul\":11800:11814   */\n      add\n        /* \"#utility.yul\":11790:11814   */\n      swap2\n      pop\n        /* \"#utility.yul\":11859:11861   */\n      0x20\n        /* \"#utility.yul\":11848:11857   */\n      dup6\n        /* \"#utility.yul\":11844:11862   */\n      add\n        /* \"#utility.yul\":11831:11862   */\n      swap5\n      pop\n        /* \"#utility.yul\":11705:11709   */\n      0x20\n        /* \"#utility.yul\":11702:11703   */\n      dup2\n        /* \"#utility.yul\":11698:11710   */\n      add\n        /* \"#utility.yul\":11693:11710   */\n      swap1\n      pop\n        /* \"#utility.yul\":11668:11876   */\n      jump(tag_232)\n    tag_234:\n        /* \"#utility.yul\":11904:11910   */\n      dup7\n        /* \"#utility.yul\":11895:11902   */\n      dup4\n        /* \"#utility.yul\":11892:11911   */\n      lt\n        /* \"#utility.yul\":11889:12068   */\n      iszero\n      tag_235\n      jumpi\n        /* \"#utility.yul\":11962:11971   */\n      dup5\n        /* \"#utility.yul\":11957:11960   */\n      dup10\n        /* \"#utility.yul\":11953:11972   */\n      add\n        /* \"#utility.yul\":11947:11973   */\n      mload\n        /* \"#utility.yul\":12005:12053   */\n      tag_236\n        /* \"#utility.yul\":12047:12051   */\n      0x1f\n        /* \"#utility.yul\":12039:12045   */\n      dup10\n        /* \"#utility.yul\":12035:12052   */\n      and\n        /* \"#utility.yul\":12024:12033   */\n      dup3\n        /* \"#utility.yul\":12005:12053   */\n      tag_87\n      jump\t// in\n    tag_236:\n        /* \"#utility.yul\":11997:12003   */\n      dup4\n        /* \"#utility.yul\":11990:12054   */\n      sstore\n        /* \"#utility.yul\":11912:12068   */\n      pop\n        /* \"#utility.yul\":11889:12068   */\n    tag_235:\n        /* \"#utility.yul\":12114:12115   */\n      0x01\n        /* \"#utility.yul\":12110:12111   */\n      0x02\n        /* \"#utility.yul\":12102:12108   */\n      dup9\n        /* \"#utility.yul\":12098:12112   */\n      mul\n        /* \"#utility.yul\":12094:12116   */\n      add\n        /* \"#utility.yul\":12088:12092   */\n      dup9\n        /* \"#utility.yul\":12081:12117   */\n      sstore\n        /* \"#utility.yul\":11517:12127   */\n      pop\n      pop\n      pop\n        /* \"#utility.yul\":11480:12366   */\n    tag_227:\n      pop\n        /* \"#utility.yul\":11072:12372   */\n      pop\n      pop\n      pop\n        /* \"#utility.yul\":10982:12372   */\n      pop\n      pop\n      jump\t// out\n\n    auxdata: 0xa26469706673582212202dde05bc9b9fa9242782794a5e3eefb240dce11e463e8a29fc75ead79f782e5e64736f6c634300081a0033\n}\n",
				"bytecode": {
					"linkReferences": {},
					"object": "6080604052348015600e575f80fd5b506109438061001c5f395ff3fe608060405234801561000f575f80fd5b5060043610610055575f3560e01c8063069dd4a9146100595780632971a11a14610075578063c736694e14610091578063cb0d4bbd146100b3578063e1421c92146100cf575b5f80fd5b610073600480360381019061006e9190610290565b6100eb565b005b61008f600480360381019061008a9190610310565b61010b565b005b610099610128565b6040516100aa95949392919061041b565b60405180910390f35b6100cd60048036038101906100c8919061049d565b6101fa565b005b6100e960048036038101906100e491906105f4565b610218565b005b80600160036101000a81548162ffffff021916908360e81c021790555050565b8060015f6101000a81548160ff021916908360f81c021790555050565b60605f805f805f60015f9054906101000a900460f81b60018054906101000a900460f01b600160039054906101000a900460e81b60025484805461016b90610668565b80601f016020809104026020016040519081016040528092919081815260200182805461019790610668565b80156101e25780601f106101b9576101008083540402835291602001916101e2565b820191905f5260205f20905b8154815290600101906020018083116101c557829003601f168201915b50505050509450945094509450945094509091929394565b806001806101000a81548161ffff021916908360f01c021790555050565b805f9081610226919061083e565b5050565b5f604051905090565b5f80fd5b5f80fd5b5f7fffffff000000000000000000000000000000000000000000000000000000000082169050919050565b61026f8161023b565b8114610279575f80fd5b50565b5f8135905061028a81610266565b92915050565b5f602082840312156102a5576102a4610233565b5b5f6102b28482850161027c565b91505092915050565b5f7fff0000000000000000000000000000000000000000000000000000000000000082169050919050565b6102ef816102bb565b81146102f9575f80fd5b50565b5f8135905061030a816102e6565b92915050565b5f6020828403121561032557610324610233565b5b5f610332848285016102fc565b91505092915050565b5f81519050919050565b5f82825260208201905092915050565b8281835e5f83830152505050565b5f601f19601f8301169050919050565b5f61037d8261033b565b6103878185610345565b9350610397818560208601610355565b6103a081610363565b840191505092915050565b6103b4816102bb565b82525050565b5f7fffff00000000000000000000000000000000000000000000000000000000000082169050919050565b6103ee816103ba565b82525050565b6103fd8161023b565b82525050565b5f819050919050565b61041581610403565b82525050565b5f60a0820190508181035f8301526104338188610373565b905061044260208301876103ab565b61044f60408301866103e5565b61045c60608301856103f4565b610469608083018461040c565b9695505050505050565b61047c816103ba565b8114610486575f80fd5b50565b5f8135905061049781610473565b92915050565b5f602082840312156104b2576104b1610233565b5b5f6104bf84828501610489565b91505092915050565b5f80fd5b5f80fd5b7f4e487b71000000000000000000000000000000000000000000000000000000005f52604160045260245ffd5b61050682610363565b810181811067ffffffffffffffff82111715610525576105246104d0565b5b80604052505050565b5f61053761022a565b905061054382826104fd565b919050565b5f67ffffffffffffffff821115610562576105616104d0565b5b61056b82610363565b9050602081019050919050565b828183375f83830152505050565b5f61059861059384610548565b61052e565b9050828152602081018484840111156105b4576105b36104cc565b5b6105bf848285610578565b509392505050565b5f82601f8301126105db576105da6104c8565b5b81356105eb848260208601610586565b91505092915050565b5f6020828403121561060957610608610233565b5b5f82013567ffffffffffffffff81111561062657610625610237565b5b610632848285016105c7565b91505092915050565b7f4e487b71000000000000000000000000000000000000000000000000000000005f52602260045260245ffd5b5f600282049050600182168061067f57607f821691505b6020821081036106925761069161063b565b5b50919050565b5f819050815f5260205f209050919050565b5f6020601f8301049050919050565b5f82821b905092915050565b5f600883026106f47fffffffffffffffffffffffffffffffffffffffffffffffffffffffffffffffff826106b9565b6106fe86836106b9565b95508019841693508086168417925050509392505050565b5f819050919050565b5f819050919050565b5f61074261073d61073884610716565b61071f565b610716565b9050919050565b5f819050919050565b61075b83610728565b61076f61076782610749565b8484546106c5565b825550505050565b5f90565b610783610777565b61078e818484610752565b505050565b5b818110156107b1576107a65f8261077b565b600181019050610794565b5050565b601f8211156107f6576107c781610698565b6107d0846106aa565b810160208510156107df578190505b6107f36107eb856106aa565b830182610793565b50505b505050565b5f82821c905092915050565b5f6108165f19846008026107fb565b1980831691505092915050565b5f61082e8383610807565b9150826002028217905092915050565b6108478261033b565b67ffffffffffffffff8111156108605761085f6104d0565b5b61086a8254610668565b6108758282856107b5565b5f60209050601f8311600181146108a6575f8415610894578287015190505b61089e8582610823565b865550610905565b601f1984166108b486610698565b5f5b828110156108db578489015182556001820191506020850194506020810190506108b6565b868310156108f857848901516108f4601f891682610807565b8355505b6001600288020188555050505b50505050505056fea26469706673582212202dde05bc9b9fa9242782794a5e3eefb240dce11e463e8a29fc75ead79f782e5e64736f6c634300081a0033",
					"opcodes": "PUSH1 0x80 PUSH1 0x40 MSTORE CALLVALUE DUP1 ISZERO PUSH1 0xE JUMPI PUSH0 DUP1 REVERT JUMPDEST POP PUSH2 0x943 DUP1 PUSH2 0x1C PUSH0 CODECOPY PUSH0 RETURN INVALID PUSH1 0x80 PUSH1 0x40 MSTORE CALLVALUE DUP1 ISZERO PUSH2 0xF JUMPI PUSH0 DUP1 REVERT JUMPDEST POP PUSH1 0x4 CALLDATASIZE LT PUSH2 0x55 JUMPI PUSH0 CALLDATALOAD PUSH1 0xE0 SHR DUP1 PUSH4 0x69DD4A9 EQ PUSH2 0x59 JUMPI DUP1 PUSH4 0x2971A11A EQ PUSH2 0x75 JUMPI DUP1 PUSH4 0xC736694E EQ PUSH2 0x91 JUMPI DUP1 PUSH4 0xCB0D4BBD EQ PUSH2 0xB3 JUMPI DUP1 PUSH4 0xE1421C92 EQ PUSH2 0xCF JUMPI JUMPDEST PUSH0 DUP1 REVERT JUMPDEST PUSH2 0x73 PUSH1 0x4 DUP1 CALLDATASIZE SUB DUP2 ADD SWAP1 PUSH2 0x6E SWAP2 SWAP1 PUSH2 0x290 JUMP JUMPDEST PUSH2 0xEB JUMP JUMPDEST STOP JUMPDEST PUSH2 0x8F PUSH1 0x4 DUP1 CALLDATASIZE SUB DUP2 ADD SWAP1 PUSH2 0x8A SWAP2 SWAP1 PUSH2 0x310 JUMP JUMPDEST PUSH2 0x10B JUMP JUMPDEST STOP JUMPDEST PUSH2 0x99 PUSH2 0x128 JUMP JUMPDEST PUSH1 0x40 MLOAD PUSH2 0xAA SWAP6 SWAP5 SWAP4 SWAP3 SWAP2 SWAP1 PUSH2 0x41B JUMP JUMPDEST PUSH1 0x40 MLOAD DUP1 SWAP2 SUB SWAP1 RETURN JUMPDEST PUSH2 0xCD PUSH1 0x4 DUP1 CALLDATASIZE SUB DUP2 ADD SWAP1 PUSH2 0xC8 SWAP2 SWAP1 PUSH2 0x49D JUMP JUMPDEST PUSH2 0x1FA JUMP JUMPDEST STOP JUMPDEST PUSH2 0xE9 PUSH1 0x4 DUP1 CALLDATASIZE SUB DUP2 ADD SWAP1 PUSH2 0xE4 SWAP2 SWAP1 PUSH2 0x5F4 JUMP JUMPDEST PUSH2 0x218 JUMP JUMPDEST STOP JUMPDEST DUP1 PUSH1 0x1 PUSH1 0x3 PUSH2 0x100 EXP DUP2 SLOAD DUP2 PUSH3 0xFFFFFF MUL NOT AND SWAP1 DUP4 PUSH1 0xE8 SHR MUL OR SWAP1 SSTORE POP POP JUMP JUMPDEST DUP1 PUSH1 0x1 PUSH0 PUSH2 0x100 EXP DUP2 SLOAD DUP2 PUSH1 0xFF MUL NOT AND SWAP1 DUP4 PUSH1 0xF8 SHR MUL OR SWAP1 SSTORE POP POP JUMP JUMPDEST PUSH1 0x60 PUSH0 DUP1 PUSH0 DUP1 PUSH0 PUSH1 0x1 PUSH0 SWAP1 SLOAD SWAP1 PUSH2 0x100 EXP SWAP1 DIV PUSH1 0xF8 SHL PUSH1 0x1 DUP1 SLOAD SWAP1 PUSH2 0x100 EXP SWAP1 DIV PUSH1 0xF0 SHL PUSH1 0x1 PUSH1 0x3 SWAP1 SLOAD SWAP1 PUSH2 0x100 EXP SWAP1 DIV PUSH1 0xE8 SHL PUSH1 0x2 SLOAD DUP5 DUP1 SLOAD PUSH2 0x16B SWAP1 PUSH2 0x668 JUMP JUMPDEST DUP1 PUSH1 0x1F ADD PUSH1 0x20 DUP1 SWAP2 DIV MUL PUSH1 0x20 ADD PUSH1 0x40 MLOAD SWAP1 DUP2 ADD PUSH1 0x40 MSTORE DUP1 SWAP3 SWAP2 SWAP1 DUP2 DUP2 MSTORE PUSH1 0x20 ADD DUP3 DUP1 SLOAD PUSH2 0x197 SWAP1 PUSH2 0x668 JUMP JUMPDEST DUP1 ISZERO PUSH2 0x1E2 JUMPI DUP1 PUSH1 0x1F LT PUSH2 0x1B9 JUMPI PUSH2 0x100 DUP1 DUP4 SLOAD DIV MUL DUP4 MSTORE SWAP2 PUSH1 0x20 ADD SWAP2 PUSH2 0x1E2 JUMP JUMPDEST DUP3 ADD SWAP2 SWAP1 PUSH0 MSTORE PUSH1 0x20 PUSH0 KECCAK256 SWAP1 JUMPDEST DUP2 SLOAD DUP2 MSTORE SWAP1 PUSH1 0x1 ADD SWAP1 PUSH1 0x20 ADD DUP1 DUP4 GT PUSH2 0x1C5 JUMPI DUP3 SWAP1 SUB PUSH1 0x1F AND DUP3 ADD SWAP2 JUMPDEST POP POP POP POP POP SWAP5 POP SWAP5 POP SWAP5 POP SWAP5 POP SWAP5 POP SWAP5 POP SWAP1 SWAP2 SWAP3 SWAP4 SWAP5 JUMP JUMPDEST DUP1 PUSH1 0x1 DUP1 PUSH2 0x100 EXP DUP2 SLOAD DUP2 PUSH2 0xFFFF MUL NOT AND SWAP1 DUP4 PUSH1 0xF0 SHR MUL OR SWAP1 SSTORE POP POP JUMP JUMPDEST DUP1 PUSH0 SWAP1 DUP2 PUSH2 0x226 SWAP2 SWAP1 PUSH2 0x83E JUMP JUMPDEST POP POP JUMP JUMPDEST PUSH0 PUSH1 0x40 MLOAD SWAP1 POP SWAP1 JUMP JUMPDEST PUSH0 DUP1 REVERT JUMPDEST PUSH0 DUP1 REVERT JUMPDEST PUSH0 PUSH32 0xFFFFFF0000000000000000000000000000000000000000000000000000000000 DUP3 AND SWAP1 POP SWAP2 SWAP1 POP JUMP JUMPDEST PUSH2 0x26F DUP2 PUSH2 0x23B JUMP JUMPDEST DUP2 EQ PUSH2 0x279 JUMPI PUSH0 DUP1 REVERT JUMPDEST POP JUMP JUMPDEST PUSH0 DUP2 CALLDATALOAD SWAP1 POP PUSH2 0x28A DUP2 PUSH2 0x266 JUMP JUMPDEST SWAP3 SWAP2 POP POP JUMP JUMPDEST PUSH0 PUSH1 0x20 DUP3 DUP5 SUB SLT ISZERO PUSH2 0x2A5 JUMPI PUSH2 0x2A4 PUSH2 0x233 JUMP JUMPDEST JUMPDEST PUSH0 PUSH2 0x2B2 DUP5 DUP3 DUP6 ADD PUSH2 0x27C JUMP JUMPDEST SWAP2 POP POP SWAP3 SWAP2 POP POP JUMP JUMPDEST PUSH0 PUSH32 0xFF00000000000000000000000000000000000000000000000000000000000000 DUP3 AND SWAP1 POP SWAP2 SWAP1 POP JUMP JUMPDEST PUSH2 0x2EF DUP2 PUSH2 0x2BB JUMP JUMPDEST DUP2 EQ PUSH2 0x2F9 JUMPI PUSH0 DUP1 REVERT JUMPDEST POP JUMP JUMPDEST PUSH0 DUP2 CALLDATALOAD SWAP1 POP PUSH2 0x30A DUP2 PUSH2 0x2E6 JUMP JUMPDEST SWAP3 SWAP2 POP POP JUMP JUMPDEST PUSH0 PUSH1 0x20 DUP3 DUP5 SUB SLT ISZERO PUSH2 0x325 JUMPI PUSH2 0x324 PUSH2 0x233 JUMP JUMPDEST JUMPDEST PUSH0 PUSH2 0x332 DUP5 DUP3 DUP6 ADD PUSH2 0x2FC JUMP JUMPDEST SWAP2 POP POP SWAP3 SWAP2 POP POP JUMP JUMPDEST PUSH0 DUP2 MLOAD SWAP1 POP SWAP2 SWAP1 POP JUMP JUMPDEST PUSH0 DUP3 DUP3 MSTORE PUSH1 0x20 DUP3 ADD SWAP1 POP SWAP3 SWAP2 POP POP JUMP JUMPDEST DUP3 DUP2 DUP4 MCOPY PUSH0 DUP4 DUP4 ADD MSTORE POP POP POP JUMP JUMPDEST PUSH0 PUSH1 0x1F NOT PUSH1 0x1F DUP4 ADD AND SWAP1 POP SWAP2 SWAP1 POP JUMP JUMPDEST PUSH0 PUSH2 0x37D DUP3 PUSH2 0x33B JUMP JUMPDEST PUSH2 0x387 DUP2 DUP6 PUSH2 0x345 JUMP JUMPDEST SWAP4 POP PUSH2 0x397 DUP2 DUP6 PUSH1 0x20 DUP7 ADD PUSH2 0x355 JUMP JUMPDEST PUSH2 0x3A0 DUP2 PUSH2 0x363 JUMP JUMPDEST DUP5 ADD SWAP2 POP POP SWAP3 SWAP2 POP POP JUMP JUMPDEST PUSH2 0x3B4 DUP2 PUSH2 0x2BB JUMP JUMPDEST DUP3 MSTORE POP POP JUMP JUMPDEST PUSH0 PUSH32 0xFFFF000000000000000000000000000000000000000000000000000000000000 DUP3 AND SWAP1 POP SWAP2 SWAP1 POP JUMP JUMPDEST PUSH2 0x3EE DUP2 PUSH2 0x3BA JUMP JUMPDEST DUP3 MSTORE POP POP JUMP JUMPDEST PUSH2 0x3FD DUP2 PUSH2 0x23B JUMP JUMPDEST DUP3 MSTORE POP POP JUMP JUMPDEST PUSH0 DUP2 SWAP1 POP SWAP2 SWAP1 POP JUMP JUMPDEST PUSH2 0x415 DUP2 PUSH2 0x403 JUMP JUMPDEST DUP3 MSTORE POP POP JUMP JUMPDEST PUSH0 PUSH1 0xA0 DUP3 ADD SWAP1 POP DUP2 DUP2 SUB PUSH0 DUP4 ADD MSTORE PUSH2 0x433 DUP2 DUP9 PUSH2 0x373 JUMP JUMPDEST SWAP1 POP PUSH2 0x442 PUSH1 0x20 DUP4 ADD DUP8 PUSH2 0x3AB JUMP JUMPDEST PUSH2 0x44F PUSH1 0x40 DUP4 ADD DUP7 PUSH2 0x3E5 JUMP JUMPDEST PUSH2 0x45C PUSH1 0x60 DUP4 ADD DUP6 PUSH2 0x3F4 JUMP JUMPDEST PUSH2 0x469 PUSH1 0x80 DUP4 ADD DUP5 PUSH2 0x40C JUMP JUMPDEST SWAP7 SWAP6 POP POP POP POP POP POP JUMP JUMPDEST PUSH2 0x47C DUP2 PUSH2 0x3BA JUMP JUMPDEST DUP2 EQ PUSH2 0x486 JUMPI PUSH0 DUP1 REVERT JUMPDEST POP JUMP JUMPDEST PUSH0 DUP2 CALLDATALOAD SWAP1 POP PUSH2 0x497 DUP2 PUSH2 0x473 JUMP JUMPDEST SWAP3 SWAP2 POP POP JUMP JUMPDEST PUSH0 PUSH1 0x20 DUP3 DUP5 SUB SLT ISZERO PUSH2 0x4B2 JUMPI PUSH2 0x4B1 PUSH2 0x233 JUMP JUMPDEST JUMPDEST PUSH0 PUSH2 0x4BF DUP5 DUP3 DUP6 ADD PUSH2 0x489 JUMP JUMPDEST SWAP2 POP POP SWAP3 SWAP2 POP POP JUMP JUMPDEST PUSH0 DUP1 REVERT JUMPDEST PUSH0 DUP1 REVERT JUMPDEST PUSH32 0x4E487B7100000000000000000000000000000000000000000000000000000000 PUSH0 MSTORE PUSH1 0x41 PUSH1 0x4 MSTORE PUSH1 0x24 PUSH0 REVERT JUMPDEST PUSH2 0x506 DUP3 PUSH2 0x363 JUMP JUMPDEST DUP2 ADD DUP2 DUP2 LT PUSH8 0xFFFFFFFFFFFFFFFF DUP3 GT OR ISZERO PUSH2 0x525 JUMPI PUSH2 0x524 PUSH2 0x4D0 JUMP JUMPDEST JUMPDEST DUP1 PUSH1 0x40 MSTORE POP POP POP JUMP JUMPDEST PUSH0 PUSH2 0x537 PUSH2 0x22A JUMP JUMPDEST SWAP1 POP PUSH2 0x543 DUP3 DUP3 PUSH2 0x4FD JUMP JUMPDEST SWAP2 SWAP1 POP JUMP JUMPDEST PUSH0 PUSH8 0xFFFFFFFFFFFFFFFF DUP3 GT ISZERO PUSH2 0x562 JUMPI PUSH2 0x561 PUSH2 0x4D0 JUMP JUMPDEST JUMPDEST PUSH2 0x56B DUP3 PUSH2 0x363 JUMP JUMPDEST SWAP1 POP PUSH1 0x20 DUP2 ADD SWAP1 POP SWAP2 SWAP1 POP JUMP JUMPDEST DUP3 DUP2 DUP4 CALLDATACOPY PUSH0 DUP4 DUP4 ADD MSTORE POP POP POP JUMP JUMPDEST PUSH0 PUSH2 0x598 PUSH2 0x593 DUP5 PUSH2 0x548 JUMP JUMPDEST PUSH2 0x52E JUMP JUMPDEST SWAP1 POP DUP3 DUP2 MSTORE PUSH1 0x20 DUP2 ADD DUP5 DUP5 DUP5 ADD GT ISZERO PUSH2 0x5B4 JUMPI PUSH2 0x5B3 PUSH2 0x4CC JUMP JUMPDEST JUMPDEST PUSH2 0x5BF DUP5 DUP3 DUP6 PUSH2 0x578 JUMP JUMPDEST POP SWAP4 SWAP3 POP POP POP JUMP JUMPDEST PUSH0 DUP3 PUSH1 0x1F DUP4 ADD SLT PUSH2 0x5DB JUMPI PUSH2 0x5DA PUSH2 0x4C8 JUMP JUMPDEST JUMPDEST DUP2 CALLDATALOAD PUSH2 0x5EB DUP5 DUP3 PUSH1 0x20 DUP7 ADD PUSH2 0x586 JUMP JUMPDEST SWAP2 POP POP SWAP3 SWAP2 POP POP JUMP JUMPDEST PUSH0 PUSH1 0x20 DUP3 DUP5 SUB SLT ISZERO PUSH2 0x609 JUMPI PUSH2 0x608 PUSH2 0x233 JUMP JUMPDEST JUMPDEST PUSH0 DUP3 ADD CALLDATALOAD PUSH8 0xFFFFFFFFFFFFFFFF DUP2 GT ISZERO PUSH2 0x626 JUMPI PUSH2 0x625 PUSH2 0x237 JUMP JUMPDEST JUMPDEST PUSH2 0x632 DUP5 DUP3 DUP6 ADD PUSH2 0x5C7 JUMP JUMPDEST SWAP2 POP POP SWAP3 SWAP2 POP POP JUMP JUMPDEST PUSH32 0x4E487B7100000000000000000000000000000000000000000000000000000000 PUSH0 MSTORE PUSH1 0x22 PUSH1 0x4 MSTORE PUSH1 0x24 PUSH0 REVERT JUMPDEST PUSH0 PUSH1 0x2 DUP3 DIV SWAP1 POP PUSH1 0x1 DUP3 AND DUP1 PUSH2 0x67F JUMPI PUSH1 0x7F DUP3 AND SWAP2 POP JUMPDEST PUSH1 0x20 DUP3 LT DUP2 SUB PUSH2 0x692 JUMPI PUSH2 0x691 PUSH2 0x63B JUMP JUMPDEST JUMPDEST POP SWAP2 SWAP1 POP JUMP JUMPDEST PUSH0 DUP2 SWAP1 POP DUP2 PUSH0 MSTORE PUSH1 0x20 PUSH0 KECCAK256 SWAP1 POP SWAP2 SWAP1 POP JUMP JUMPDEST PUSH0 PUSH1 0x20 PUSH1 0x1F DUP4 ADD DIV SWAP1 POP SWAP2 SWAP1 POP JUMP JUMPDEST PUSH0 DUP3 DUP3 SHL SWAP1 POP SWAP3 SWAP2 POP POP JUMP JUMPDEST PUSH0 PUSH1 0x8 DUP4 MUL PUSH2 0x6F4 PUSH32 0xFFFFFFFFFFFFFFFFFFFFFFFFFFFFFFFFFFFFFFFFFFFFFFFFFFFFFFFFFFFFFFFF DUP3 PUSH2 0x6B9 JUMP JUMPDEST PUSH2 0x6FE DUP7 DUP4 PUSH2 0x6B9 JUMP JUMPDEST SWAP6 POP DUP1 NOT DUP5 AND SWAP4 POP DUP1 DUP7 AND DUP5 OR SWAP3 POP POP POP SWAP4 SWAP3 POP POP POP JUMP JUMPDEST PUSH0 DUP2 SWAP1 POP SWAP2 SWAP1 POP JUMP JUMPDEST PUSH0 DUP2 SWAP1 POP SWAP2 SWAP1 POP JUMP JUMPDEST PUSH0 PUSH2 0x742 PUSH2 0x73D PUSH2 0x738 DUP5 PUSH2 0x716 JUMP JUMPDEST PUSH2 0x71F JUMP JUMPDEST PUSH2 0x716 JUMP JUMPDEST SWAP1 POP SWAP2 SWAP1 POP JUMP JUMPDEST PUSH0 DUP2 SWAP1 POP SWAP2 SWAP1 POP JUMP JUMPDEST PUSH2 0x75B DUP4 PUSH2 0x728 JUMP JUMPDEST PUSH2 0x76F PUSH2 0x767 DUP3 PUSH2 0x749 JUMP JUMPDEST DUP5 DUP5 SLOAD PUSH2 0x6C5 JUMP JUMPDEST DUP3 SSTORE POP POP POP POP JUMP JUMPDEST PUSH0 SWAP1 JUMP JUMPDEST PUSH2 0x783 PUSH2 0x777 JUMP JUMPDEST PUSH2 0x78E DUP2 DUP5 DUP5 PUSH2 0x752 JUMP JUMPDEST POP POP POP JUMP JUMPDEST JUMPDEST DUP2 DUP2 LT ISZERO PUSH2 0x7B1 JUMPI PUSH2 0x7A6 PUSH0 DUP3 PUSH2 0x77B JUMP JUMPDEST PUSH1 0x1 DUP2 ADD SWAP1 POP PUSH2 0x794 JUMP JUMPDEST POP POP JUMP JUMPDEST PUSH1 0x1F DUP3 GT ISZERO PUSH2 0x7F6 JUMPI PUSH2 0x7C7 DUP2 PUSH2 0x698 JUMP JUMPDEST PUSH2 0x7D0 DUP5 PUSH2 0x6AA JUMP JUMPDEST DUP2 ADD PUSH1 0x20 DUP6 LT ISZERO PUSH2 0x7DF JUMPI DUP2 SWAP1 POP JUMPDEST PUSH2 0x7F3 PUSH2 0x7EB DUP6 PUSH2 0x6AA JUMP JUMPDEST DUP4 ADD DUP3 PUSH2 0x793 JUMP JUMPDEST POP POP JUMPDEST POP POP POP JUMP JUMPDEST PUSH0 DUP3 DUP3 SHR SWAP1 POP SWAP3 SWAP2 POP POP JUMP JUMPDEST PUSH0 PUSH2 0x816 PUSH0 NOT DUP5 PUSH1 0x8 MUL PUSH2 0x7FB JUMP JUMPDEST NOT DUP1 DUP4 AND SWAP2 POP POP SWAP3 SWAP2 POP POP JUMP JUMPDEST PUSH0 PUSH2 0x82E DUP4 DUP4 PUSH2 0x807 JUMP JUMPDEST SWAP2 POP DUP3 PUSH1 0x2 MUL DUP3 OR SWAP1 POP SWAP3 SWAP2 POP POP JUMP JUMPDEST PUSH2 0x847 DUP3 PUSH2 0x33B JUMP JUMPDEST PUSH8 0xFFFFFFFFFFFFFFFF DUP2 GT ISZERO PUSH2 0x860 JUMPI PUSH2 0x85F PUSH2 0x4D0 JUMP JUMPDEST JUMPDEST PUSH2 0x86A DUP3 SLOAD PUSH2 0x668 JUMP JUMPDEST PUSH2 0x875 DUP3 DUP3 DUP6 PUSH2 0x7B5 JUMP JUMPDEST PUSH0 PUSH1 0x20 SWAP1 POP PUSH1 0x1F DUP4 GT PUSH1 0x1 DUP2 EQ PUSH2 0x8A6 JUMPI PUSH0 DUP5 ISZERO PUSH2 0x894 JUMPI DUP3 DUP8 ADD MLOAD SWAP1 POP JUMPDEST PUSH2 0x89E DUP6 DUP3 PUSH2 0x823 JUMP JUMPDEST DUP7 SSTORE POP PUSH2 0x905 JUMP JUMPDEST PUSH1 0x1F NOT DUP5 AND PUSH2 0x8B4 DUP7 PUSH2 0x698 JUMP JUMPDEST PUSH0 JUMPDEST DUP3 DUP2 LT ISZERO PUSH2 0x8DB JUMPI DUP5 DUP10 ADD MLOAD DUP3 SSTORE PUSH1 0x1 DUP3 ADD SWAP2 POP PUSH1 0x20 DUP6 ADD SWAP5 POP PUSH1 0x20 DUP2 ADD SWAP1 POP PUSH2 0x8B6 JUMP JUMPDEST DUP7 DUP4 LT ISZERO PUSH2 0x8F8 JUMPI DUP5 DUP10 ADD MLOAD PUSH2 0x8F4 PUSH1 0x1F DUP10 AND DUP3 PUSH2 0x807 JUMP JUMPDEST DUP4 SSTORE POP JUMPDEST PUSH1 0x1 PUSH1 0x2 DUP9 MUL ADD DUP9 SSTORE POP POP POP JUMPDEST POP POP POP POP POP POP JUMP INVALID LOG2 PUSH5 0x6970667358 0x22 SLT KECCAK256 0x2D 0xDE SDIV 0xBC SWAP12 SWAP16 0xA9 0x24 0x27 DUP3 PUSH26 0x4A5E3EEFB240DCE11E463E8A29FC75EAD79F782E5E64736F6C63 NUMBER STOP ADDMOD BYTE STOP CALLER "
				},
				"gasEstimates": {
					"creation": {
						"codeDepositCost": "474200",
						"executionCost": "509",
						"totalCost": "474709"
					},
					"external": {
						"getABCD()": "infinite",
						"setA(bytes)": "infinite",
						"setB(bytes1)": "24673",
						"setC(bytes2)": "24768",
						"setD(bytes3)": "24702"
					}
				},
				"methodIdentifiers": {
					"getABCD()": "c736694e",
					"setA(bytes)": "e1421c92",
					"setB(bytes1)": "2971a11a",
					"setC(bytes2)": "cb0d4bbd",
					"setD(bytes3)": "069dd4a9"
				}
			},
			"storageLayout": {
				"storage": [
					{
						"astId": 3,
						"contract": "contracts/basic4.sol:BASIC4",
						"label": "a",
						"offset": 0,
						"slot": "0",
						"type": "t_bytes_storage"
					},
					{
						"astId": 5,
						"contract": "contracts/basic4.sol:BASIC4",
						"label": "b",
						"offset": 0,
						"slot": "1",
						"type": "t_bytes1"
					},
					{
						"astId": 7,
						"contract": "contracts/basic4.sol:BASIC4",
						"label": "c",
						"offset": 1,
						"slot": "1",
						"type": "t_bytes2"
					},
					{
						"astId": 9,
						"contract": "contracts/basic4.sol:BASIC4",
						"label": "d",
						"offset": 3,
						"slot": "1",
						"type": "t_bytes3"
					},
					{
						"astId": 11,
						"contract": "contracts/basic4.sol:BASIC4",
						"label": "e",
						"offset": 0,
						"slot": "2",
						"type": "t_bytes32"
					}
				],
				"types": {
					"t_bytes1": {
						"encoding": "inplace",
						"label": "bytes1",
						"numberOfBytes": "1"
					},
					"t_bytes2": {
						"encoding": "inplace",
						"label": "bytes2",
						"numberOfBytes": "2"
					},
					"t_bytes3": {
						"encoding": "inplace",
						"label": "bytes3",
						"numberOfBytes": "3"
					},
					"t_bytes32": {
						"encoding": "inplace",
						"label": "bytes32",
						"numberOfBytes": "32"
					},
					"t_bytes_storage": {
						"encoding": "bytes",
						"label": "bytes",
						"numberOfBytes": "32"
					}
				}
			},
			"userdoc": {
				"kind": "user",
				"methods": {},
				"version": 1
			}
		}
	}
}