{
	"contracts/mapping2.sol": {
		"MAPPING2": {
			"abi": [
				{
					"inputs": [
						{
							"internalType": "uint256",
							"name": "_n",
							"type": "uint256"
						}
					],
					"name": "getStudnet",
					"outputs": [
						{
							"components": [
								{
									"internalType": "string",
									"name": "name",
									"type": "string"
								},
								{
									"internalType": "bytes3",
									"name": "id",
									"type": "bytes3"
								}
							],
							"internalType": "struct MAPPING2.student",
							"name": "",
							"type": "tuple"
						}
					],
					"stateMutability": "view",
					"type": "function"
				},
				{
					"inputs": [
						{
							"internalType": "uint256",
							"name": "_n",
							"type": "uint256"
						},
						{
							"components": [
								{
									"internalType": "string",
									"name": "name",
									"type": "string"
								},
								{
									"internalType": "bytes3",
									"name": "id",
									"type": "bytes3"
								}
							],
							"internalType": "struct MAPPING2.student",
							"name": "_s",
							"type": "tuple"
						}
					],
					"name": "setStudent",
					"outputs": [],
					"stateMutability": "nonpayable",
					"type": "function"
				}
			],
			"devdoc": {
				"kind": "dev",
				"methods": {},
				"version": 1
			},
			"evm": {
				"assembly": "    /* \"contracts/mapping2.sol\":74:419  contract MAPPING2 {... */\n  mstore(0x40, 0x80)\n  callvalue\n  dup1\n  iszero\n  tag_1\n  jumpi\n  0x00\n  dup1\n  revert\ntag_1:\n  pop\n  dataSize(sub_0)\n  dup1\n  dataOffset(sub_0)\n  0x00\n  codecopy\n  0x00\n  return\nstop\n\nsub_0: assembly {\n        /* \"contracts/mapping2.sol\":74:419  contract MAPPING2 {... */\n      mstore(0x40, 0x80)\n      callvalue\n      dup1\n      iszero\n      tag_1\n      jumpi\n      0x00\n      dup1\n      revert\n    tag_1:\n      pop\n      jumpi(tag_2, lt(calldatasize, 0x04))\n      shr(0xe0, calldataload(0x00))\n      dup1\n      0xc4246feb\n      eq\n      tag_3\n      jumpi\n      dup1\n      0xcf363d45\n      eq\n      tag_4\n      jumpi\n    tag_2:\n      0x00\n      dup1\n      revert\n        /* \"contracts/mapping2.sol\":214:305  function setStudent(uint _n, student memory _s) public {... */\n    tag_3:\n      tag_5\n      0x04\n      dup1\n      calldatasize\n      sub\n      dup2\n      add\n      swap1\n      tag_6\n      swap2\n      swap1\n      tag_7\n      jump\t// in\n    tag_6:\n      tag_8\n      jump\t// in\n    tag_5:\n      stop\n        /* \"contracts/mapping2.sol\":313:416  function getStudnet(uint _n) public view returns(student memory) {... */\n    tag_4:\n      tag_9\n      0x04\n      dup1\n      calldatasize\n      sub\n      dup2\n      add\n      swap1\n      tag_10\n      swap2\n      swap1\n      tag_11\n      jump\t// in\n    tag_10:\n      tag_12\n      jump\t// in\n    tag_9:\n      mload(0x40)\n      tag_13\n      swap2\n      swap1\n      tag_14\n      jump\t// in\n    tag_13:\n      mload(0x40)\n      dup1\n      swap2\n      sub\n      swap1\n      return\n        /* \"contracts/mapping2.sol\":214:305  function setStudent(uint _n, student memory _s) public {... */\n    tag_8:\n        /* \"contracts/mapping2.sol\":295:297  _s */\n      dup1\n        /* \"contracts/mapping2.sol\":280:288  students */\n      0x00\n        /* \"contracts/mapping2.sol\":280:292  students[_n] */\n      dup1\n        /* \"contracts/mapping2.sol\":289:291  _n */\n      dup5\n        /* \"contracts/mapping2.sol\":280:292  students[_n] */\n      dup2\n      mstore\n      0x20\n      add\n      swap1\n      dup2\n      mstore\n      0x20\n      add\n      0x00\n      keccak256\n        /* \"contracts/mapping2.sol\":280:297  students[_n] = _s */\n      0x00\n      dup3\n      add\n      mload\n      dup2\n      0x00\n      add\n      swap1\n      dup2\n      tag_16\n      swap2\n      swap1\n      tag_17\n      jump\t// in\n    tag_16:\n      pop\n      0x20\n      dup3\n      add\n      mload\n      dup2\n      0x01\n      add\n      exp(0x0100, 0x00)\n      dup2\n      sload\n      dup2\n      0xffffff\n      mul\n      not\n      and\n      swap1\n      dup4\n      0xe8\n      shr\n      mul\n      or\n      swap1\n      sstore\n      pop\n      swap1\n      pop\n      pop\n        /* \"contracts/mapping2.sol\":214:305  function setStudent(uint _n, student memory _s) public {... */\n      pop\n      pop\n      jump\t// out\n        /* \"contracts/mapping2.sol\":313:416  function getStudnet(uint _n) public view returns(student memory) {... */\n    tag_12:\n        /* \"contracts/mapping2.sol\":362:376  student memory */\n      tag_18\n      tag_19\n      jump\t// in\n    tag_18:\n        /* \"contracts/mapping2.sol\":396:404  students */\n      0x00\n        /* \"contracts/mapping2.sol\":396:408  students[_n] */\n      dup1\n        /* \"contracts/mapping2.sol\":405:407  _n */\n      dup4\n        /* \"contracts/mapping2.sol\":396:408  students[_n] */\n      dup2\n      mstore\n      0x20\n      add\n      swap1\n      dup2\n      mstore\n      0x20\n      add\n      0x00\n      keccak256\n        /* \"contracts/mapping2.sol\":389:408  return students[_n] */\n      mload(0x40)\n      dup1\n      0x40\n      add\n      0x40\n      mstore\n      swap1\n      dup2\n      0x00\n      dup3\n      add\n      dup1\n      sload\n      tag_21\n      swap1\n      tag_22\n      jump\t// in\n    tag_21:\n      dup1\n      0x1f\n      add\n      0x20\n      dup1\n      swap2\n      div\n      mul\n      0x20\n      add\n      mload(0x40)\n      swap1\n      dup2\n      add\n      0x40\n      mstore\n      dup1\n      swap3\n      swap2\n      swap1\n      dup2\n      dup2\n      mstore\n      0x20\n      add\n      dup3\n      dup1\n      sload\n      tag_23\n      swap1\n      tag_22\n      jump\t// in\n    tag_23:\n      dup1\n      iszero\n      tag_24\n      jumpi\n      dup1\n      0x1f\n      lt\n      tag_25\n      jumpi\n      0x0100\n      dup1\n      dup4\n      sload\n      div\n      mul\n      dup4\n      mstore\n      swap2\n      0x20\n      add\n      swap2\n      jump(tag_24)\n    tag_25:\n      dup3\n      add\n      swap2\n      swap1\n      0x00\n      mstore\n      keccak256(0x00, 0x20)\n      swap1\n    tag_26:\n      dup2\n      sload\n      dup2\n      mstore\n      swap1\n      0x01\n      add\n      swap1\n      0x20\n      add\n      dup1\n      dup4\n      gt\n      tag_26\n      jumpi\n      dup3\n      swap1\n      sub\n      0x1f\n      and\n      dup3\n      add\n      swap2\n    tag_24:\n      pop\n      pop\n      pop\n      pop\n      pop\n      dup2\n      mstore\n      0x20\n      add\n      0x01\n      dup3\n      add\n      0x00\n      swap1\n      sload\n      swap1\n      0x0100\n      exp\n      swap1\n      div\n      0xe8\n      shl\n      not(0xffffffffffffffffffffffffffffffffffffffffffffffffffffffffff)\n      and\n      not(0xffffffffffffffffffffffffffffffffffffffffffffffffffffffffff)\n      and\n      dup2\n      mstore\n      pop\n      pop\n      swap1\n      pop\n        /* \"contracts/mapping2.sol\":313:416  function getStudnet(uint _n) public view returns(student memory) {... */\n      swap2\n      swap1\n      pop\n      jump\t// out\n    tag_19:\n      mload(0x40)\n      dup1\n      0x40\n      add\n      0x40\n      mstore\n      dup1\n      0x60\n      dup2\n      mstore\n      0x20\n      add\n      and(not(0xffffffffffffffffffffffffffffffffffffffffffffffffffffffffff), 0x00)\n      dup2\n      mstore\n      pop\n      swap1\n      jump\t// out\n        /* \"#utility.yul\":7:82   */\n    tag_27:\n        /* \"#utility.yul\":40:46   */\n      0x00\n        /* \"#utility.yul\":73:75   */\n      0x40\n        /* \"#utility.yul\":67:76   */\n      mload\n        /* \"#utility.yul\":57:76   */\n      swap1\n      pop\n        /* \"#utility.yul\":7:82   */\n      swap1\n      jump\t// out\n        /* \"#utility.yul\":88:205   */\n    tag_28:\n        /* \"#utility.yul\":197:198   */\n      0x00\n        /* \"#utility.yul\":194:195   */\n      dup1\n        /* \"#utility.yul\":187:199   */\n      revert\n        /* \"#utility.yul\":211:328   */\n    tag_29:\n        /* \"#utility.yul\":320:321   */\n      0x00\n        /* \"#utility.yul\":317:318   */\n      dup1\n        /* \"#utility.yul\":310:322   */\n      revert\n        /* \"#utility.yul\":334:411   */\n    tag_30:\n        /* \"#utility.yul\":371:378   */\n      0x00\n        /* \"#utility.yul\":400:405   */\n      dup2\n        /* \"#utility.yul\":389:405   */\n      swap1\n      pop\n        /* \"#utility.yul\":334:411   */\n      swap2\n      swap1\n      pop\n      jump\t// out\n        /* \"#utility.yul\":417:539   */\n    tag_31:\n        /* \"#utility.yul\":490:514   */\n      tag_77\n        /* \"#utility.yul\":508:513   */\n      dup2\n        /* \"#utility.yul\":490:514   */\n      tag_30\n      jump\t// in\n    tag_77:\n        /* \"#utility.yul\":483:488   */\n      dup2\n        /* \"#utility.yul\":480:515   */\n      eq\n        /* \"#utility.yul\":470:533   */\n      tag_78\n      jumpi\n        /* \"#utility.yul\":529:530   */\n      0x00\n        /* \"#utility.yul\":526:527   */\n      dup1\n        /* \"#utility.yul\":519:531   */\n      revert\n        /* \"#utility.yul\":470:533   */\n    tag_78:\n        /* \"#utility.yul\":417:539   */\n      pop\n      jump\t// out\n        /* \"#utility.yul\":545:684   */\n    tag_32:\n        /* \"#utility.yul\":591:596   */\n      0x00\n        /* \"#utility.yul\":629:635   */\n      dup2\n        /* \"#utility.yul\":616:636   */\n      calldataload\n        /* \"#utility.yul\":607:636   */\n      swap1\n      pop\n        /* \"#utility.yul\":645:678   */\n      tag_80\n        /* \"#utility.yul\":672:677   */\n      dup2\n        /* \"#utility.yul\":645:678   */\n      tag_31\n      jump\t// in\n    tag_80:\n        /* \"#utility.yul\":545:684   */\n      swap3\n      swap2\n      pop\n      pop\n      jump\t// out\n        /* \"#utility.yul\":690:807   */\n    tag_33:\n        /* \"#utility.yul\":799:800   */\n      0x00\n        /* \"#utility.yul\":796:797   */\n      dup1\n        /* \"#utility.yul\":789:801   */\n      revert\n        /* \"#utility.yul\":813:915   */\n    tag_34:\n        /* \"#utility.yul\":854:860   */\n      0x00\n        /* \"#utility.yul\":905:907   */\n      0x1f\n        /* \"#utility.yul\":901:908   */\n      not\n        /* \"#utility.yul\":896:898   */\n      0x1f\n        /* \"#utility.yul\":889:894   */\n      dup4\n        /* \"#utility.yul\":885:899   */\n      add\n        /* \"#utility.yul\":881:909   */\n      and\n        /* \"#utility.yul\":871:909   */\n      swap1\n      pop\n        /* \"#utility.yul\":813:915   */\n      swap2\n      swap1\n      pop\n      jump\t// out\n        /* \"#utility.yul\":921:1101   */\n    tag_35:\n        /* \"#utility.yul\":969:1046   */\n      0x4e487b7100000000000000000000000000000000000000000000000000000000\n        /* \"#utility.yul\":966:967   */\n      0x00\n        /* \"#utility.yul\":959:1047   */\n      mstore\n        /* \"#utility.yul\":1066:1070   */\n      0x41\n        /* \"#utility.yul\":1063:1064   */\n      0x04\n        /* \"#utility.yul\":1056:1071   */\n      mstore\n        /* \"#utility.yul\":1090:1094   */\n      0x24\n        /* \"#utility.yul\":1087:1088   */\n      0x00\n        /* \"#utility.yul\":1080:1095   */\n      revert\n        /* \"#utility.yul\":1107:1388   */\n    tag_36:\n        /* \"#utility.yul\":1190:1217   */\n      tag_85\n        /* \"#utility.yul\":1212:1216   */\n      dup3\n        /* \"#utility.yul\":1190:1217   */\n      tag_34\n      jump\t// in\n    tag_85:\n        /* \"#utility.yul\":1182:1188   */\n      dup2\n        /* \"#utility.yul\":1178:1218   */\n      add\n        /* \"#utility.yul\":1320:1326   */\n      dup2\n        /* \"#utility.yul\":1308:1318   */\n      dup2\n        /* \"#utility.yul\":1305:1327   */\n      lt\n        /* \"#utility.yul\":1284:1302   */\n      0xffffffffffffffff\n        /* \"#utility.yul\":1272:1282   */\n      dup3\n        /* \"#utility.yul\":1269:1303   */\n      gt\n        /* \"#utility.yul\":1266:1328   */\n      or\n        /* \"#utility.yul\":1263:1351   */\n      iszero\n      tag_86\n      jumpi\n        /* \"#utility.yul\":1331:1349   */\n      tag_87\n      tag_35\n      jump\t// in\n    tag_87:\n        /* \"#utility.yul\":1263:1351   */\n    tag_86:\n        /* \"#utility.yul\":1371:1381   */\n      dup1\n        /* \"#utility.yul\":1367:1369   */\n      0x40\n        /* \"#utility.yul\":1360:1382   */\n      mstore\n        /* \"#utility.yul\":1150:1388   */\n      pop\n        /* \"#utility.yul\":1107:1388   */\n      pop\n      pop\n      jump\t// out\n        /* \"#utility.yul\":1394:1523   */\n    tag_37:\n        /* \"#utility.yul\":1428:1434   */\n      0x00\n        /* \"#utility.yul\":1455:1475   */\n      tag_89\n      tag_27\n      jump\t// in\n    tag_89:\n        /* \"#utility.yul\":1445:1475   */\n      swap1\n      pop\n        /* \"#utility.yul\":1484:1517   */\n      tag_90\n        /* \"#utility.yul\":1512:1516   */\n      dup3\n        /* \"#utility.yul\":1504:1510   */\n      dup3\n        /* \"#utility.yul\":1484:1517   */\n      tag_36\n      jump\t// in\n    tag_90:\n        /* \"#utility.yul\":1394:1523   */\n      swap2\n      swap1\n      pop\n      jump\t// out\n        /* \"#utility.yul\":1529:1646   */\n    tag_38:\n        /* \"#utility.yul\":1638:1639   */\n      0x00\n        /* \"#utility.yul\":1635:1636   */\n      dup1\n        /* \"#utility.yul\":1628:1640   */\n      revert\n        /* \"#utility.yul\":1652:1769   */\n    tag_39:\n        /* \"#utility.yul\":1761:1762   */\n      0x00\n        /* \"#utility.yul\":1758:1759   */\n      dup1\n        /* \"#utility.yul\":1751:1763   */\n      revert\n        /* \"#utility.yul\":1775:1892   */\n    tag_40:\n        /* \"#utility.yul\":1884:1885   */\n      0x00\n        /* \"#utility.yul\":1881:1882   */\n      dup1\n        /* \"#utility.yul\":1874:1886   */\n      revert\n        /* \"#utility.yul\":1898:2206   */\n    tag_41:\n        /* \"#utility.yul\":1960:1964   */\n      0x00\n        /* \"#utility.yul\":2050:2068   */\n      0xffffffffffffffff\n        /* \"#utility.yul\":2042:2048   */\n      dup3\n        /* \"#utility.yul\":2039:2069   */\n      gt\n        /* \"#utility.yul\":2036:2092   */\n      iszero\n      tag_95\n      jumpi\n        /* \"#utility.yul\":2072:2090   */\n      tag_96\n      tag_35\n      jump\t// in\n    tag_96:\n        /* \"#utility.yul\":2036:2092   */\n    tag_95:\n        /* \"#utility.yul\":2110:2139   */\n      tag_97\n        /* \"#utility.yul\":2132:2138   */\n      dup3\n        /* \"#utility.yul\":2110:2139   */\n      tag_34\n      jump\t// in\n    tag_97:\n        /* \"#utility.yul\":2102:2139   */\n      swap1\n      pop\n        /* \"#utility.yul\":2194:2198   */\n      0x20\n        /* \"#utility.yul\":2188:2192   */\n      dup2\n        /* \"#utility.yul\":2184:2199   */\n      add\n        /* \"#utility.yul\":2176:2199   */\n      swap1\n      pop\n        /* \"#utility.yul\":1898:2206   */\n      swap2\n      swap1\n      pop\n      jump\t// out\n        /* \"#utility.yul\":2212:2360   */\n    tag_42:\n        /* \"#utility.yul\":2310:2316   */\n      dup3\n        /* \"#utility.yul\":2305:2308   */\n      dup2\n        /* \"#utility.yul\":2300:2303   */\n      dup4\n        /* \"#utility.yul\":2287:2317   */\n      calldatacopy\n        /* \"#utility.yul\":2351:2352   */\n      0x00\n        /* \"#utility.yul\":2342:2348   */\n      dup4\n        /* \"#utility.yul\":2337:2340   */\n      dup4\n        /* \"#utility.yul\":2333:2349   */\n      add\n        /* \"#utility.yul\":2326:2353   */\n      mstore\n        /* \"#utility.yul\":2212:2360   */\n      pop\n      pop\n      pop\n      jump\t// out\n        /* \"#utility.yul\":2366:2791   */\n    tag_43:\n        /* \"#utility.yul\":2444:2449   */\n      0x00\n        /* \"#utility.yul\":2469:2535   */\n      tag_100\n        /* \"#utility.yul\":2485:2534   */\n      tag_101\n        /* \"#utility.yul\":2527:2533   */\n      dup5\n        /* \"#utility.yul\":2485:2534   */\n      tag_41\n      jump\t// in\n    tag_101:\n        /* \"#utility.yul\":2469:2535   */\n      tag_37\n      jump\t// in\n    tag_100:\n        /* \"#utility.yul\":2460:2535   */\n      swap1\n      pop\n        /* \"#utility.yul\":2558:2564   */\n      dup3\n        /* \"#utility.yul\":2551:2556   */\n      dup2\n        /* \"#utility.yul\":2544:2565   */\n      mstore\n        /* \"#utility.yul\":2596:2600   */\n      0x20\n        /* \"#utility.yul\":2589:2594   */\n      dup2\n        /* \"#utility.yul\":2585:2601   */\n      add\n        /* \"#utility.yul\":2634:2637   */\n      dup5\n        /* \"#utility.yul\":2625:2631   */\n      dup5\n        /* \"#utility.yul\":2620:2623   */\n      dup5\n        /* \"#utility.yul\":2616:2632   */\n      add\n        /* \"#utility.yul\":2613:2638   */\n      gt\n        /* \"#utility.yul\":2610:2722   */\n      iszero\n      tag_102\n      jumpi\n        /* \"#utility.yul\":2641:2720   */\n      tag_103\n      tag_40\n      jump\t// in\n    tag_103:\n        /* \"#utility.yul\":2610:2722   */\n    tag_102:\n        /* \"#utility.yul\":2731:2785   */\n      tag_104\n        /* \"#utility.yul\":2778:2784   */\n      dup5\n        /* \"#utility.yul\":2773:2776   */\n      dup3\n        /* \"#utility.yul\":2768:2771   */\n      dup6\n        /* \"#utility.yul\":2731:2785   */\n      tag_42\n      jump\t// in\n    tag_104:\n        /* \"#utility.yul\":2450:2791   */\n      pop\n        /* \"#utility.yul\":2366:2791   */\n      swap4\n      swap3\n      pop\n      pop\n      pop\n      jump\t// out\n        /* \"#utility.yul\":2811:3151   */\n    tag_44:\n        /* \"#utility.yul\":2867:2872   */\n      0x00\n        /* \"#utility.yul\":2916:2919   */\n      dup3\n        /* \"#utility.yul\":2909:2913   */\n      0x1f\n        /* \"#utility.yul\":2901:2907   */\n      dup4\n        /* \"#utility.yul\":2897:2914   */\n      add\n        /* \"#utility.yul\":2893:2920   */\n      slt\n        /* \"#utility.yul\":2883:3005   */\n      tag_106\n      jumpi\n        /* \"#utility.yul\":2924:3003   */\n      tag_107\n      tag_39\n      jump\t// in\n    tag_107:\n        /* \"#utility.yul\":2883:3005   */\n    tag_106:\n        /* \"#utility.yul\":3041:3047   */\n      dup2\n        /* \"#utility.yul\":3028:3048   */\n      calldataload\n        /* \"#utility.yul\":3066:3145   */\n      tag_108\n        /* \"#utility.yul\":3141:3144   */\n      dup5\n        /* \"#utility.yul\":3133:3139   */\n      dup3\n        /* \"#utility.yul\":3126:3130   */\n      0x20\n        /* \"#utility.yul\":3118:3124   */\n      dup7\n        /* \"#utility.yul\":3114:3131   */\n      add\n        /* \"#utility.yul\":3066:3145   */\n      tag_43\n      jump\t// in\n    tag_108:\n        /* \"#utility.yul\":3057:3145   */\n      swap2\n      pop\n        /* \"#utility.yul\":2873:3151   */\n      pop\n        /* \"#utility.yul\":2811:3151   */\n      swap3\n      swap2\n      pop\n      pop\n      jump\t// out\n        /* \"#utility.yul\":3157:3306   */\n    tag_45:\n        /* \"#utility.yul\":3193:3200   */\n      0x00\n        /* \"#utility.yul\":3233:3299   */\n      0xffffff0000000000000000000000000000000000000000000000000000000000\n        /* \"#utility.yul\":3226:3231   */\n      dup3\n        /* \"#utility.yul\":3222:3300   */\n      and\n        /* \"#utility.yul\":3211:3300   */\n      swap1\n      pop\n        /* \"#utility.yul\":3157:3306   */\n      swap2\n      swap1\n      pop\n      jump\t// out\n        /* \"#utility.yul\":3312:3432   */\n    tag_46:\n        /* \"#utility.yul\":3384:3407   */\n      tag_111\n        /* \"#utility.yul\":3401:3406   */\n      dup2\n        /* \"#utility.yul\":3384:3407   */\n      tag_45\n      jump\t// in\n    tag_111:\n        /* \"#utility.yul\":3377:3382   */\n      dup2\n        /* \"#utility.yul\":3374:3408   */\n      eq\n        /* \"#utility.yul\":3364:3426   */\n      tag_112\n      jumpi\n        /* \"#utility.yul\":3422:3423   */\n      0x00\n        /* \"#utility.yul\":3419:3420   */\n      dup1\n        /* \"#utility.yul\":3412:3424   */\n      revert\n        /* \"#utility.yul\":3364:3426   */\n    tag_112:\n        /* \"#utility.yul\":3312:3432   */\n      pop\n      jump\t// out\n        /* \"#utility.yul\":3438:3575   */\n    tag_47:\n        /* \"#utility.yul\":3483:3488   */\n      0x00\n        /* \"#utility.yul\":3521:3527   */\n      dup2\n        /* \"#utility.yul\":3508:3528   */\n      calldataload\n        /* \"#utility.yul\":3499:3528   */\n      swap1\n      pop\n        /* \"#utility.yul\":3537:3569   */\n      tag_114\n        /* \"#utility.yul\":3563:3568   */\n      dup2\n        /* \"#utility.yul\":3537:3569   */\n      tag_46\n      jump\t// in\n    tag_114:\n        /* \"#utility.yul\":3438:3575   */\n      swap3\n      swap2\n      pop\n      pop\n      jump\t// out\n        /* \"#utility.yul\":3612:4350   */\n    tag_48:\n        /* \"#utility.yul\":3683:3688   */\n      0x00\n        /* \"#utility.yul\":3727:3731   */\n      0x40\n        /* \"#utility.yul\":3715:3724   */\n      dup3\n        /* \"#utility.yul\":3710:3713   */\n      dup5\n        /* \"#utility.yul\":3706:3725   */\n      sub\n        /* \"#utility.yul\":3702:3732   */\n      slt\n        /* \"#utility.yul\":3699:3816   */\n      iszero\n      tag_116\n      jumpi\n        /* \"#utility.yul\":3735:3814   */\n      tag_117\n      tag_33\n      jump\t// in\n    tag_117:\n        /* \"#utility.yul\":3699:3816   */\n    tag_116:\n        /* \"#utility.yul\":3834:3855   */\n      tag_118\n        /* \"#utility.yul\":3850:3854   */\n      0x40\n        /* \"#utility.yul\":3834:3855   */\n      tag_37\n      jump\t// in\n    tag_118:\n        /* \"#utility.yul\":3825:3855   */\n      swap1\n      pop\n        /* \"#utility.yul\":3942:3943   */\n      0x00\n        /* \"#utility.yul\":3931:3940   */\n      dup3\n        /* \"#utility.yul\":3927:3944   */\n      add\n        /* \"#utility.yul\":3914:3945   */\n      calldataload\n        /* \"#utility.yul\":3972:3990   */\n      0xffffffffffffffff\n        /* \"#utility.yul\":3964:3970   */\n      dup2\n        /* \"#utility.yul\":3961:3991   */\n      gt\n        /* \"#utility.yul\":3958:4075   */\n      iszero\n      tag_119\n      jumpi\n        /* \"#utility.yul\":3994:4073   */\n      tag_120\n      tag_38\n      jump\t// in\n    tag_120:\n        /* \"#utility.yul\":3958:4075   */\n    tag_119:\n        /* \"#utility.yul\":4114:4173   */\n      tag_121\n        /* \"#utility.yul\":4169:4172   */\n      dup5\n        /* \"#utility.yul\":4160:4166   */\n      dup3\n        /* \"#utility.yul\":4149:4158   */\n      dup6\n        /* \"#utility.yul\":4145:4167   */\n      add\n        /* \"#utility.yul\":4114:4173   */\n      tag_44\n      jump\t// in\n    tag_121:\n        /* \"#utility.yul\":4107:4111   */\n      0x00\n        /* \"#utility.yul\":4100:4105   */\n      dup4\n        /* \"#utility.yul\":4096:4112   */\n      add\n        /* \"#utility.yul\":4089:4174   */\n      mstore\n        /* \"#utility.yul\":3865:4185   */\n      pop\n        /* \"#utility.yul\":4242:4244   */\n      0x20\n        /* \"#utility.yul\":4283:4331   */\n      tag_122\n        /* \"#utility.yul\":4327:4330   */\n      dup5\n        /* \"#utility.yul\":4318:4324   */\n      dup3\n        /* \"#utility.yul\":4307:4316   */\n      dup6\n        /* \"#utility.yul\":4303:4325   */\n      add\n        /* \"#utility.yul\":4283:4331   */\n      tag_47\n      jump\t// in\n    tag_122:\n        /* \"#utility.yul\":4276:4280   */\n      0x20\n        /* \"#utility.yul\":4269:4274   */\n      dup4\n        /* \"#utility.yul\":4265:4281   */\n      add\n        /* \"#utility.yul\":4258:4332   */\n      mstore\n        /* \"#utility.yul\":4195:4343   */\n      pop\n        /* \"#utility.yul\":3612:4350   */\n      swap3\n      swap2\n      pop\n      pop\n      jump\t// out\n        /* \"#utility.yul\":4356:5034   */\n    tag_7:\n        /* \"#utility.yul\":4446:4452   */\n      0x00\n        /* \"#utility.yul\":4454:4460   */\n      dup1\n        /* \"#utility.yul\":4503:4505   */\n      0x40\n        /* \"#utility.yul\":4491:4500   */\n      dup4\n        /* \"#utility.yul\":4482:4489   */\n      dup6\n        /* \"#utility.yul\":4478:4501   */\n      sub\n        /* \"#utility.yul\":4474:4506   */\n      slt\n        /* \"#utility.yul\":4471:4590   */\n      iszero\n      tag_124\n      jumpi\n        /* \"#utility.yul\":4509:4588   */\n      tag_125\n      tag_28\n      jump\t// in\n    tag_125:\n        /* \"#utility.yul\":4471:4590   */\n    tag_124:\n        /* \"#utility.yul\":4629:4630   */\n      0x00\n        /* \"#utility.yul\":4654:4707   */\n      tag_126\n        /* \"#utility.yul\":4699:4706   */\n      dup6\n        /* \"#utility.yul\":4690:4696   */\n      dup3\n        /* \"#utility.yul\":4679:4688   */\n      dup7\n        /* \"#utility.yul\":4675:4697   */\n      add\n        /* \"#utility.yul\":4654:4707   */\n      tag_32\n      jump\t// in\n    tag_126:\n        /* \"#utility.yul\":4644:4707   */\n      swap3\n      pop\n        /* \"#utility.yul\":4600:4717   */\n      pop\n        /* \"#utility.yul\":4784:4786   */\n      0x20\n        /* \"#utility.yul\":4773:4782   */\n      dup4\n        /* \"#utility.yul\":4769:4787   */\n      add\n        /* \"#utility.yul\":4756:4788   */\n      calldataload\n        /* \"#utility.yul\":4815:4833   */\n      0xffffffffffffffff\n        /* \"#utility.yul\":4807:4813   */\n      dup2\n        /* \"#utility.yul\":4804:4834   */\n      gt\n        /* \"#utility.yul\":4801:4918   */\n      iszero\n      tag_127\n      jumpi\n        /* \"#utility.yul\":4837:4916   */\n      tag_128\n      tag_29\n      jump\t// in\n    tag_128:\n        /* \"#utility.yul\":4801:4918   */\n    tag_127:\n        /* \"#utility.yul\":4942:5017   */\n      tag_129\n        /* \"#utility.yul\":5009:5016   */\n      dup6\n        /* \"#utility.yul\":5000:5006   */\n      dup3\n        /* \"#utility.yul\":4989:4998   */\n      dup7\n        /* \"#utility.yul\":4985:5007   */\n      add\n        /* \"#utility.yul\":4942:5017   */\n      tag_48\n      jump\t// in\n    tag_129:\n        /* \"#utility.yul\":4932:5017   */\n      swap2\n      pop\n        /* \"#utility.yul\":4727:5027   */\n      pop\n        /* \"#utility.yul\":4356:5034   */\n      swap3\n      pop\n      swap3\n      swap1\n      pop\n      jump\t// out\n        /* \"#utility.yul\":5040:5369   */\n    tag_11:\n        /* \"#utility.yul\":5099:5105   */\n      0x00\n        /* \"#utility.yul\":5148:5150   */\n      0x20\n        /* \"#utility.yul\":5136:5145   */\n      dup3\n        /* \"#utility.yul\":5127:5134   */\n      dup5\n        /* \"#utility.yul\":5123:5146   */\n      sub\n        /* \"#utility.yul\":5119:5151   */\n      slt\n        /* \"#utility.yul\":5116:5235   */\n      iszero\n      tag_131\n      jumpi\n        /* \"#utility.yul\":5154:5233   */\n      tag_132\n      tag_28\n      jump\t// in\n    tag_132:\n        /* \"#utility.yul\":5116:5235   */\n    tag_131:\n        /* \"#utility.yul\":5274:5275   */\n      0x00\n        /* \"#utility.yul\":5299:5352   */\n      tag_133\n        /* \"#utility.yul\":5344:5351   */\n      dup5\n        /* \"#utility.yul\":5335:5341   */\n      dup3\n        /* \"#utility.yul\":5324:5333   */\n      dup6\n        /* \"#utility.yul\":5320:5342   */\n      add\n        /* \"#utility.yul\":5299:5352   */\n      tag_32\n      jump\t// in\n    tag_133:\n        /* \"#utility.yul\":5289:5352   */\n      swap2\n      pop\n        /* \"#utility.yul\":5245:5362   */\n      pop\n        /* \"#utility.yul\":5040:5369   */\n      swap3\n      swap2\n      pop\n      pop\n      jump\t// out\n        /* \"#utility.yul\":5375:5474   */\n    tag_49:\n        /* \"#utility.yul\":5427:5433   */\n      0x00\n        /* \"#utility.yul\":5461:5466   */\n      dup2\n        /* \"#utility.yul\":5455:5467   */\n      mload\n        /* \"#utility.yul\":5445:5467   */\n      swap1\n      pop\n        /* \"#utility.yul\":5375:5474   */\n      swap2\n      swap1\n      pop\n      jump\t// out\n        /* \"#utility.yul\":5480:5639   */\n    tag_50:\n        /* \"#utility.yul\":5554:5565   */\n      0x00\n        /* \"#utility.yul\":5588:5594   */\n      dup3\n        /* \"#utility.yul\":5583:5586   */\n      dup3\n        /* \"#utility.yul\":5576:5595   */\n      mstore\n        /* \"#utility.yul\":5628:5632   */\n      0x20\n        /* \"#utility.yul\":5623:5626   */\n      dup3\n        /* \"#utility.yul\":5619:5633   */\n      add\n        /* \"#utility.yul\":5604:5633   */\n      swap1\n      pop\n        /* \"#utility.yul\":5480:5639   */\n      swap3\n      swap2\n      pop\n      pop\n      jump\t// out\n        /* \"#utility.yul\":5645:5784   */\n    tag_51:\n        /* \"#utility.yul\":5734:5740   */\n      dup3\n        /* \"#utility.yul\":5729:5732   */\n      dup2\n        /* \"#utility.yul\":5724:5727   */\n      dup4\n        /* \"#utility.yul\":5718:5741   */\n      mcopy\n        /* \"#utility.yul\":5775:5776   */\n      0x00\n        /* \"#utility.yul\":5766:5772   */\n      dup4\n        /* \"#utility.yul\":5761:5764   */\n      dup4\n        /* \"#utility.yul\":5757:5773   */\n      add\n        /* \"#utility.yul\":5750:5777   */\n      mstore\n        /* \"#utility.yul\":5645:5784   */\n      pop\n      pop\n      pop\n      jump\t// out\n        /* \"#utility.yul\":5790:6147   */\n    tag_52:\n        /* \"#utility.yul\":5868:5871   */\n      0x00\n        /* \"#utility.yul\":5896:5935   */\n      tag_138\n        /* \"#utility.yul\":5929:5934   */\n      dup3\n        /* \"#utility.yul\":5896:5935   */\n      tag_49\n      jump\t// in\n    tag_138:\n        /* \"#utility.yul\":5951:6012   */\n      tag_139\n        /* \"#utility.yul\":6005:6011   */\n      dup2\n        /* \"#utility.yul\":6000:6003   */\n      dup6\n        /* \"#utility.yul\":5951:6012   */\n      tag_50\n      jump\t// in\n    tag_139:\n        /* \"#utility.yul\":5944:6012   */\n      swap4\n      pop\n        /* \"#utility.yul\":6021:6086   */\n      tag_140\n        /* \"#utility.yul\":6079:6085   */\n      dup2\n        /* \"#utility.yul\":6074:6077   */\n      dup6\n        /* \"#utility.yul\":6067:6071   */\n      0x20\n        /* \"#utility.yul\":6060:6065   */\n      dup7\n        /* \"#utility.yul\":6056:6072   */\n      add\n        /* \"#utility.yul\":6021:6086   */\n      tag_51\n      jump\t// in\n    tag_140:\n        /* \"#utility.yul\":6111:6140   */\n      tag_141\n        /* \"#utility.yul\":6133:6139   */\n      dup2\n        /* \"#utility.yul\":6111:6140   */\n      tag_34\n      jump\t// in\n    tag_141:\n        /* \"#utility.yul\":6106:6109   */\n      dup5\n        /* \"#utility.yul\":6102:6141   */\n      add\n        /* \"#utility.yul\":6095:6141   */\n      swap2\n      pop\n        /* \"#utility.yul\":5872:6147   */\n      pop\n        /* \"#utility.yul\":5790:6147   */\n      swap3\n      swap2\n      pop\n      pop\n      jump\t// out\n        /* \"#utility.yul\":6153:6258   */\n    tag_53:\n        /* \"#utility.yul\":6228:6251   */\n      tag_143\n        /* \"#utility.yul\":6245:6250   */\n      dup2\n        /* \"#utility.yul\":6228:6251   */\n      tag_45\n      jump\t// in\n    tag_143:\n        /* \"#utility.yul\":6223:6226   */\n      dup3\n        /* \"#utility.yul\":6216:6252   */\n      mstore\n        /* \"#utility.yul\":6153:6258   */\n      pop\n      pop\n      jump\t// out\n        /* \"#utility.yul\":6322:6918   */\n    tag_54:\n        /* \"#utility.yul\":6435:6438   */\n      0x00\n        /* \"#utility.yul\":6471:6475   */\n      0x40\n        /* \"#utility.yul\":6466:6469   */\n      dup4\n        /* \"#utility.yul\":6462:6476   */\n      add\n        /* \"#utility.yul\":6558:6562   */\n      0x00\n        /* \"#utility.yul\":6551:6556   */\n      dup4\n        /* \"#utility.yul\":6547:6563   */\n      add\n        /* \"#utility.yul\":6541:6564   */\n      mload\n        /* \"#utility.yul\":6611:6614   */\n      dup5\n        /* \"#utility.yul\":6605:6609   */\n      dup3\n        /* \"#utility.yul\":6601:6615   */\n      sub\n        /* \"#utility.yul\":6594:6598   */\n      0x00\n        /* \"#utility.yul\":6589:6592   */\n      dup7\n        /* \"#utility.yul\":6585:6599   */\n      add\n        /* \"#utility.yul\":6578:6616   */\n      mstore\n        /* \"#utility.yul\":6637:6710   */\n      tag_145\n        /* \"#utility.yul\":6705:6709   */\n      dup3\n        /* \"#utility.yul\":6691:6703   */\n      dup3\n        /* \"#utility.yul\":6637:6710   */\n      tag_52\n      jump\t// in\n    tag_145:\n        /* \"#utility.yul\":6629:6710   */\n      swap2\n      pop\n        /* \"#utility.yul\":6486:6721   */\n      pop\n        /* \"#utility.yul\":6801:6805   */\n      0x20\n        /* \"#utility.yul\":6794:6799   */\n      dup4\n        /* \"#utility.yul\":6790:6806   */\n      add\n        /* \"#utility.yul\":6784:6807   */\n      mload\n        /* \"#utility.yul\":6820:6881   */\n      tag_146\n        /* \"#utility.yul\":6875:6879   */\n      0x20\n        /* \"#utility.yul\":6870:6873   */\n      dup7\n        /* \"#utility.yul\":6866:6880   */\n      add\n        /* \"#utility.yul\":6852:6864   */\n      dup3\n        /* \"#utility.yul\":6820:6881   */\n      tag_53\n      jump\t// in\n    tag_146:\n        /* \"#utility.yul\":6731:6891   */\n      pop\n        /* \"#utility.yul\":6908:6912   */\n      dup1\n        /* \"#utility.yul\":6901:6912   */\n      swap2\n      pop\n        /* \"#utility.yul\":6440:6918   */\n      pop\n        /* \"#utility.yul\":6322:6918   */\n      swap3\n      swap2\n      pop\n      pop\n      jump\t// out\n        /* \"#utility.yul\":6924:7285   */\n    tag_14:\n        /* \"#utility.yul\":7061:7065   */\n      0x00\n        /* \"#utility.yul\":7099:7101   */\n      0x20\n        /* \"#utility.yul\":7088:7097   */\n      dup3\n        /* \"#utility.yul\":7084:7102   */\n      add\n        /* \"#utility.yul\":7076:7102   */\n      swap1\n      pop\n        /* \"#utility.yul\":7148:7157   */\n      dup2\n        /* \"#utility.yul\":7142:7146   */\n      dup2\n        /* \"#utility.yul\":7138:7158   */\n      sub\n        /* \"#utility.yul\":7134:7135   */\n      0x00\n        /* \"#utility.yul\":7123:7132   */\n      dup4\n        /* \"#utility.yul\":7119:7136   */\n      add\n        /* \"#utility.yul\":7112:7159   */\n      mstore\n        /* \"#utility.yul\":7176:7278   */\n      tag_148\n        /* \"#utility.yul\":7273:7277   */\n      dup2\n        /* \"#utility.yul\":7264:7270   */\n      dup5\n        /* \"#utility.yul\":7176:7278   */\n      tag_54\n      jump\t// in\n    tag_148:\n        /* \"#utility.yul\":7168:7278   */\n      swap1\n      pop\n        /* \"#utility.yul\":6924:7285   */\n      swap3\n      swap2\n      pop\n      pop\n      jump\t// out\n        /* \"#utility.yul\":7291:7471   */\n    tag_55:\n        /* \"#utility.yul\":7339:7416   */\n      0x4e487b7100000000000000000000000000000000000000000000000000000000\n        /* \"#utility.yul\":7336:7337   */\n      0x00\n        /* \"#utility.yul\":7329:7417   */\n      mstore\n        /* \"#utility.yul\":7436:7440   */\n      0x22\n        /* \"#utility.yul\":7433:7434   */\n      0x04\n        /* \"#utility.yul\":7426:7441   */\n      mstore\n        /* \"#utility.yul\":7460:7464   */\n      0x24\n        /* \"#utility.yul\":7457:7458   */\n      0x00\n        /* \"#utility.yul\":7450:7465   */\n      revert\n        /* \"#utility.yul\":7477:7797   */\n    tag_22:\n        /* \"#utility.yul\":7521:7527   */\n      0x00\n        /* \"#utility.yul\":7558:7559   */\n      0x02\n        /* \"#utility.yul\":7552:7556   */\n      dup3\n        /* \"#utility.yul\":7548:7560   */\n      div\n        /* \"#utility.yul\":7538:7560   */\n      swap1\n      pop\n        /* \"#utility.yul\":7605:7606   */\n      0x01\n        /* \"#utility.yul\":7599:7603   */\n      dup3\n        /* \"#utility.yul\":7595:7607   */\n      and\n        /* \"#utility.yul\":7626:7644   */\n      dup1\n        /* \"#utility.yul\":7616:7697   */\n      tag_151\n      jumpi\n        /* \"#utility.yul\":7682:7686   */\n      0x7f\n        /* \"#utility.yul\":7674:7680   */\n      dup3\n        /* \"#utility.yul\":7670:7687   */\n      and\n        /* \"#utility.yul\":7660:7687   */\n      swap2\n      pop\n        /* \"#utility.yul\":7616:7697   */\n    tag_151:\n        /* \"#utility.yul\":7744:7746   */\n      0x20\n        /* \"#utility.yul\":7736:7742   */\n      dup3\n        /* \"#utility.yul\":7733:7747   */\n      lt\n        /* \"#utility.yul\":7713:7731   */\n      dup2\n        /* \"#utility.yul\":7710:7748   */\n      sub\n        /* \"#utility.yul\":7707:7791   */\n      tag_152\n      jumpi\n        /* \"#utility.yul\":7763:7781   */\n      tag_153\n      tag_55\n      jump\t// in\n    tag_153:\n        /* \"#utility.yul\":7707:7791   */\n    tag_152:\n        /* \"#utility.yul\":7528:7797   */\n      pop\n        /* \"#utility.yul\":7477:7797   */\n      swap2\n      swap1\n      pop\n      jump\t// out\n        /* \"#utility.yul\":7803:7944   */\n    tag_56:\n        /* \"#utility.yul\":7852:7856   */\n      0x00\n        /* \"#utility.yul\":7875:7878   */\n      dup2\n        /* \"#utility.yul\":7867:7878   */\n      swap1\n      pop\n        /* \"#utility.yul\":7898:7901   */\n      dup2\n        /* \"#utility.yul\":7895:7896   */\n      0x00\n        /* \"#utility.yul\":7888:7902   */\n      mstore\n        /* \"#utility.yul\":7932:7936   */\n      0x20\n        /* \"#utility.yul\":7929:7930   */\n      0x00\n        /* \"#utility.yul\":7919:7937   */\n      keccak256\n        /* \"#utility.yul\":7911:7937   */\n      swap1\n      pop\n        /* \"#utility.yul\":7803:7944   */\n      swap2\n      swap1\n      pop\n      jump\t// out\n        /* \"#utility.yul\":7950:8043   */\n    tag_57:\n        /* \"#utility.yul\":7987:7993   */\n      0x00\n        /* \"#utility.yul\":8034:8036   */\n      0x20\n        /* \"#utility.yul\":8029:8031   */\n      0x1f\n        /* \"#utility.yul\":8022:8027   */\n      dup4\n        /* \"#utility.yul\":8018:8032   */\n      add\n        /* \"#utility.yul\":8014:8037   */\n      div\n        /* \"#utility.yul\":8004:8037   */\n      swap1\n      pop\n        /* \"#utility.yul\":7950:8043   */\n      swap2\n      swap1\n      pop\n      jump\t// out\n        /* \"#utility.yul\":8049:8156   */\n    tag_58:\n        /* \"#utility.yul\":8093:8101   */\n      0x00\n        /* \"#utility.yul\":8143:8148   */\n      dup3\n        /* \"#utility.yul\":8137:8141   */\n      dup3\n        /* \"#utility.yul\":8133:8149   */\n      shl\n        /* \"#utility.yul\":8112:8149   */\n      swap1\n      pop\n        /* \"#utility.yul\":8049:8156   */\n      swap3\n      swap2\n      pop\n      pop\n      jump\t// out\n        /* \"#utility.yul\":8162:8555   */\n    tag_59:\n        /* \"#utility.yul\":8231:8237   */\n      0x00\n        /* \"#utility.yul\":8281:8282   */\n      0x08\n        /* \"#utility.yul\":8269:8279   */\n      dup4\n        /* \"#utility.yul\":8265:8283   */\n      mul\n        /* \"#utility.yul\":8304:8401   */\n      tag_158\n        /* \"#utility.yul\":8334:8400   */\n      0xffffffffffffffffffffffffffffffffffffffffffffffffffffffffffffffff\n        /* \"#utility.yul\":8323:8332   */\n      dup3\n        /* \"#utility.yul\":8304:8401   */\n      tag_58\n      jump\t// in\n    tag_158:\n        /* \"#utility.yul\":8422:8461   */\n      tag_159\n        /* \"#utility.yul\":8452:8460   */\n      dup7\n        /* \"#utility.yul\":8441:8450   */\n      dup4\n        /* \"#utility.yul\":8422:8461   */\n      tag_58\n      jump\t// in\n    tag_159:\n        /* \"#utility.yul\":8410:8461   */\n      swap6\n      pop\n        /* \"#utility.yul\":8494:8498   */\n      dup1\n        /* \"#utility.yul\":8490:8499   */\n      not\n        /* \"#utility.yul\":8483:8488   */\n      dup5\n        /* \"#utility.yul\":8479:8500   */\n      and\n        /* \"#utility.yul\":8470:8500   */\n      swap4\n      pop\n        /* \"#utility.yul\":8543:8547   */\n      dup1\n        /* \"#utility.yul\":8533:8541   */\n      dup7\n        /* \"#utility.yul\":8529:8548   */\n      and\n        /* \"#utility.yul\":8522:8527   */\n      dup5\n        /* \"#utility.yul\":8519:8549   */\n      or\n        /* \"#utility.yul\":8509:8549   */\n      swap3\n      pop\n        /* \"#utility.yul\":8238:8555   */\n      pop\n      pop\n        /* \"#utility.yul\":8162:8555   */\n      swap4\n      swap3\n      pop\n      pop\n      pop\n      jump\t// out\n        /* \"#utility.yul\":8561:8621   */\n    tag_60:\n        /* \"#utility.yul\":8589:8592   */\n      0x00\n        /* \"#utility.yul\":8610:8615   */\n      dup2\n        /* \"#utility.yul\":8603:8615   */\n      swap1\n      pop\n        /* \"#utility.yul\":8561:8621   */\n      swap2\n      swap1\n      pop\n      jump\t// out\n        /* \"#utility.yul\":8627:8769   */\n    tag_61:\n        /* \"#utility.yul\":8677:8686   */\n      0x00\n        /* \"#utility.yul\":8710:8763   */\n      tag_162\n        /* \"#utility.yul\":8728:8762   */\n      tag_163\n        /* \"#utility.yul\":8737:8761   */\n      tag_164\n        /* \"#utility.yul\":8755:8760   */\n      dup5\n        /* \"#utility.yul\":8737:8761   */\n      tag_30\n      jump\t// in\n    tag_164:\n        /* \"#utility.yul\":8728:8762   */\n      tag_60\n      jump\t// in\n    tag_163:\n        /* \"#utility.yul\":8710:8763   */\n      tag_30\n      jump\t// in\n    tag_162:\n        /* \"#utility.yul\":8697:8763   */\n      swap1\n      pop\n        /* \"#utility.yul\":8627:8769   */\n      swap2\n      swap1\n      pop\n      jump\t// out\n        /* \"#utility.yul\":8775:8850   */\n    tag_62:\n        /* \"#utility.yul\":8818:8821   */\n      0x00\n        /* \"#utility.yul\":8839:8844   */\n      dup2\n        /* \"#utility.yul\":8832:8844   */\n      swap1\n      pop\n        /* \"#utility.yul\":8775:8850   */\n      swap2\n      swap1\n      pop\n      jump\t// out\n        /* \"#utility.yul\":8856:9125   */\n    tag_63:\n        /* \"#utility.yul\":8966:9005   */\n      tag_167\n        /* \"#utility.yul\":8997:9004   */\n      dup4\n        /* \"#utility.yul\":8966:9005   */\n      tag_61\n      jump\t// in\n    tag_167:\n        /* \"#utility.yul\":9027:9118   */\n      tag_168\n        /* \"#utility.yul\":9076:9117   */\n      tag_169\n        /* \"#utility.yul\":9100:9116   */\n      dup3\n        /* \"#utility.yul\":9076:9117   */\n      tag_62\n      jump\t// in\n    tag_169:\n        /* \"#utility.yul\":9068:9074   */\n      dup5\n        /* \"#utility.yul\":9061:9065   */\n      dup5\n        /* \"#utility.yul\":9055:9066   */\n      sload\n        /* \"#utility.yul\":9027:9118   */\n      tag_59\n      jump\t// in\n    tag_168:\n        /* \"#utility.yul\":9021:9025   */\n      dup3\n        /* \"#utility.yul\":9014:9119   */\n      sstore\n        /* \"#utility.yul\":8932:9125   */\n      pop\n        /* \"#utility.yul\":8856:9125   */\n      pop\n      pop\n      pop\n      jump\t// out\n        /* \"#utility.yul\":9131:9204   */\n    tag_64:\n        /* \"#utility.yul\":9176:9179   */\n      0x00\n        /* \"#utility.yul\":9131:9204   */\n      swap1\n      jump\t// out\n        /* \"#utility.yul\":9210:9399   */\n    tag_65:\n        /* \"#utility.yul\":9287:9319   */\n      tag_172\n      tag_64\n      jump\t// in\n    tag_172:\n        /* \"#utility.yul\":9328:9393   */\n      tag_173\n        /* \"#utility.yul\":9386:9392   */\n      dup2\n        /* \"#utility.yul\":9378:9384   */\n      dup5\n        /* \"#utility.yul\":9372:9376   */\n      dup5\n        /* \"#utility.yul\":9328:9393   */\n      tag_63\n      jump\t// in\n    tag_173:\n        /* \"#utility.yul\":9263:9399   */\n      pop\n        /* \"#utility.yul\":9210:9399   */\n      pop\n      pop\n      jump\t// out\n        /* \"#utility.yul\":9405:9591   */\n    tag_66:\n        /* \"#utility.yul\":9465:9585   */\n    tag_175:\n        /* \"#utility.yul\":9482:9485   */\n      dup2\n        /* \"#utility.yul\":9475:9480   */\n      dup2\n        /* \"#utility.yul\":9472:9486   */\n      lt\n        /* \"#utility.yul\":9465:9585   */\n      iszero\n      tag_177\n      jumpi\n        /* \"#utility.yul\":9536:9575   */\n      tag_178\n        /* \"#utility.yul\":9573:9574   */\n      0x00\n        /* \"#utility.yul\":9566:9571   */\n      dup3\n        /* \"#utility.yul\":9536:9575   */\n      tag_65\n      jump\t// in\n    tag_178:\n        /* \"#utility.yul\":9509:9510   */\n      0x01\n        /* \"#utility.yul\":9502:9507   */\n      dup2\n        /* \"#utility.yul\":9498:9511   */\n      add\n        /* \"#utility.yul\":9489:9511   */\n      swap1\n      pop\n        /* \"#utility.yul\":9465:9585   */\n      jump(tag_175)\n    tag_177:\n        /* \"#utility.yul\":9405:9591   */\n      pop\n      pop\n      jump\t// out\n        /* \"#utility.yul\":9597:10140   */\n    tag_67:\n        /* \"#utility.yul\":9698:9700   */\n      0x1f\n        /* \"#utility.yul\":9693:9696   */\n      dup3\n        /* \"#utility.yul\":9690:9701   */\n      gt\n        /* \"#utility.yul\":9687:10133   */\n      iszero\n      tag_180\n      jumpi\n        /* \"#utility.yul\":9732:9770   */\n      tag_181\n        /* \"#utility.yul\":9764:9769   */\n      dup2\n        /* \"#utility.yul\":9732:9770   */\n      tag_56\n      jump\t// in\n    tag_181:\n        /* \"#utility.yul\":9816:9845   */\n      tag_182\n        /* \"#utility.yul\":9834:9844   */\n      dup5\n        /* \"#utility.yul\":9816:9845   */\n      tag_57\n      jump\t// in\n    tag_182:\n        /* \"#utility.yul\":9806:9814   */\n      dup2\n        /* \"#utility.yul\":9802:9846   */\n      add\n        /* \"#utility.yul\":9999:10001   */\n      0x20\n        /* \"#utility.yul\":9987:9997   */\n      dup6\n        /* \"#utility.yul\":9984:10002   */\n      lt\n        /* \"#utility.yul\":9981:10030   */\n      iszero\n      tag_183\n      jumpi\n        /* \"#utility.yul\":10020:10028   */\n      dup2\n        /* \"#utility.yul\":10005:10028   */\n      swap1\n      pop\n        /* \"#utility.yul\":9981:10030   */\n    tag_183:\n        /* \"#utility.yul\":10043:10123   */\n      tag_184\n        /* \"#utility.yul\":10099:10121   */\n      tag_185\n        /* \"#utility.yul\":10117:10120   */\n      dup6\n        /* \"#utility.yul\":10099:10121   */\n      tag_57\n      jump\t// in\n    tag_185:\n        /* \"#utility.yul\":10089:10097   */\n      dup4\n        /* \"#utility.yul\":10085:10122   */\n      add\n        /* \"#utility.yul\":10072:10083   */\n      dup3\n        /* \"#utility.yul\":10043:10123   */\n      tag_66\n      jump\t// in\n    tag_184:\n        /* \"#utility.yul\":9702:10133   */\n      pop\n      pop\n        /* \"#utility.yul\":9687:10133   */\n    tag_180:\n        /* \"#utility.yul\":9597:10140   */\n      pop\n      pop\n      pop\n      jump\t// out\n        /* \"#utility.yul\":10146:10263   */\n    tag_68:\n        /* \"#utility.yul\":10200:10208   */\n      0x00\n        /* \"#utility.yul\":10250:10255   */\n      dup3\n        /* \"#utility.yul\":10244:10248   */\n      dup3\n        /* \"#utility.yul\":10240:10256   */\n      shr\n        /* \"#utility.yul\":10219:10256   */\n      swap1\n      pop\n        /* \"#utility.yul\":10146:10263   */\n      swap3\n      swap2\n      pop\n      pop\n      jump\t// out\n        /* \"#utility.yul\":10269:10438   */\n    tag_69:\n        /* \"#utility.yul\":10313:10319   */\n      0x00\n        /* \"#utility.yul\":10346:10397   */\n      tag_188\n        /* \"#utility.yul\":10394:10395   */\n      0x00\n        /* \"#utility.yul\":10390:10396   */\n      not\n        /* \"#utility.yul\":10382:10387   */\n      dup5\n        /* \"#utility.yul\":10379:10380   */\n      0x08\n        /* \"#utility.yul\":10375:10388   */\n      mul\n        /* \"#utility.yul\":10346:10397   */\n      tag_68\n      jump\t// in\n    tag_188:\n        /* \"#utility.yul\":10342:10398   */\n      not\n        /* \"#utility.yul\":10427:10431   */\n      dup1\n        /* \"#utility.yul\":10421:10425   */\n      dup4\n        /* \"#utility.yul\":10417:10432   */\n      and\n        /* \"#utility.yul\":10407:10432   */\n      swap2\n      pop\n        /* \"#utility.yul\":10320:10438   */\n      pop\n        /* \"#utility.yul\":10269:10438   */\n      swap3\n      swap2\n      pop\n      pop\n      jump\t// out\n        /* \"#utility.yul\":10443:10738   */\n    tag_70:\n        /* \"#utility.yul\":10519:10523   */\n      0x00\n        /* \"#utility.yul\":10665:10694   */\n      tag_190\n        /* \"#utility.yul\":10690:10693   */\n      dup4\n        /* \"#utility.yul\":10684:10688   */\n      dup4\n        /* \"#utility.yul\":10665:10694   */\n      tag_69\n      jump\t// in\n    tag_190:\n        /* \"#utility.yul\":10657:10694   */\n      swap2\n      pop\n        /* \"#utility.yul\":10727:10730   */\n      dup3\n        /* \"#utility.yul\":10724:10725   */\n      0x02\n        /* \"#utility.yul\":10720:10731   */\n      mul\n        /* \"#utility.yul\":10714:10718   */\n      dup3\n        /* \"#utility.yul\":10711:10732   */\n      or\n        /* \"#utility.yul\":10703:10732   */\n      swap1\n      pop\n        /* \"#utility.yul\":10443:10738   */\n      swap3\n      swap2\n      pop\n      pop\n      jump\t// out\n        /* \"#utility.yul\":10743:12138   */\n    tag_17:\n        /* \"#utility.yul\":10860:10897   */\n      tag_192\n        /* \"#utility.yul\":10893:10896   */\n      dup3\n        /* \"#utility.yul\":10860:10897   */\n      tag_49\n      jump\t// in\n    tag_192:\n        /* \"#utility.yul\":10962:10980   */\n      0xffffffffffffffff\n        /* \"#utility.yul\":10954:10960   */\n      dup2\n        /* \"#utility.yul\":10951:10981   */\n      gt\n        /* \"#utility.yul\":10948:11004   */\n      iszero\n      tag_193\n      jumpi\n        /* \"#utility.yul\":10984:11002   */\n      tag_194\n      tag_35\n      jump\t// in\n    tag_194:\n        /* \"#utility.yul\":10948:11004   */\n    tag_193:\n        /* \"#utility.yul\":11028:11066   */\n      tag_195\n        /* \"#utility.yul\":11060:11064   */\n      dup3\n        /* \"#utility.yul\":11054:11065   */\n      sload\n        /* \"#utility.yul\":11028:11066   */\n      tag_22\n      jump\t// in\n    tag_195:\n        /* \"#utility.yul\":11113:11180   */\n      tag_196\n        /* \"#utility.yul\":11173:11179   */\n      dup3\n        /* \"#utility.yul\":11165:11171   */\n      dup3\n        /* \"#utility.yul\":11159:11163   */\n      dup6\n        /* \"#utility.yul\":11113:11180   */\n      tag_67\n      jump\t// in\n    tag_196:\n        /* \"#utility.yul\":11207:11208   */\n      0x00\n        /* \"#utility.yul\":11231:11235   */\n      0x20\n        /* \"#utility.yul\":11218:11235   */\n      swap1\n      pop\n        /* \"#utility.yul\":11263:11265   */\n      0x1f\n        /* \"#utility.yul\":11255:11261   */\n      dup4\n        /* \"#utility.yul\":11252:11266   */\n      gt\n        /* \"#utility.yul\":11280:11281   */\n      0x01\n        /* \"#utility.yul\":11275:11893   */\n      dup2\n      eq\n      tag_198\n      jumpi\n        /* \"#utility.yul\":11937:11938   */\n      0x00\n        /* \"#utility.yul\":11954:11960   */\n      dup5\n        /* \"#utility.yul\":11951:12028   */\n      iszero\n      tag_199\n      jumpi\n        /* \"#utility.yul\":12003:12012   */\n      dup3\n        /* \"#utility.yul\":11998:12001   */\n      dup8\n        /* \"#utility.yul\":11994:12013   */\n      add\n        /* \"#utility.yul\":11988:12014   */\n      mload\n        /* \"#utility.yul\":11979:12014   */\n      swap1\n      pop\n        /* \"#utility.yul\":11951:12028   */\n    tag_199:\n        /* \"#utility.yul\":12054:12121   */\n      tag_200\n        /* \"#utility.yul\":12114:12120   */\n      dup6\n        /* \"#utility.yul\":12107:12112   */\n      dup3\n        /* \"#utility.yul\":12054:12121   */\n      tag_70\n      jump\t// in\n    tag_200:\n        /* \"#utility.yul\":12048:12052   */\n      dup7\n        /* \"#utility.yul\":12041:12122   */\n      sstore\n        /* \"#utility.yul\":11910:12132   */\n      pop\n        /* \"#utility.yul\":11245:12132   */\n      jump(tag_197)\n        /* \"#utility.yul\":11275:11893   */\n    tag_198:\n        /* \"#utility.yul\":11327:11331   */\n      0x1f\n        /* \"#utility.yul\":11323:11332   */\n      not\n        /* \"#utility.yul\":11315:11321   */\n      dup5\n        /* \"#utility.yul\":11311:11333   */\n      and\n        /* \"#utility.yul\":11361:11398   */\n      tag_201\n        /* \"#utility.yul\":11393:11397   */\n      dup7\n        /* \"#utility.yul\":11361:11398   */\n      tag_56\n      jump\t// in\n    tag_201:\n        /* \"#utility.yul\":11420:11421   */\n      0x00\n        /* \"#utility.yul\":11434:11642   */\n    tag_202:\n        /* \"#utility.yul\":11448:11455   */\n      dup3\n        /* \"#utility.yul\":11445:11446   */\n      dup2\n        /* \"#utility.yul\":11442:11456   */\n      lt\n        /* \"#utility.yul\":11434:11642   */\n      iszero\n      tag_204\n      jumpi\n        /* \"#utility.yul\":11527:11536   */\n      dup5\n        /* \"#utility.yul\":11522:11525   */\n      dup10\n        /* \"#utility.yul\":11518:11537   */\n      add\n        /* \"#utility.yul\":11512:11538   */\n      mload\n        /* \"#utility.yul\":11504:11510   */\n      dup3\n        /* \"#utility.yul\":11497:11539   */\n      sstore\n        /* \"#utility.yul\":11578:11579   */\n      0x01\n        /* \"#utility.yul\":11570:11576   */\n      dup3\n        /* \"#utility.yul\":11566:11580   */\n      add\n        /* \"#utility.yul\":11556:11580   */\n      swap2\n      pop\n        /* \"#utility.yul\":11625:11627   */\n      0x20\n        /* \"#utility.yul\":11614:11623   */\n      dup6\n        /* \"#utility.yul\":11610:11628   */\n      add\n        /* \"#utility.yul\":11597:11628   */\n      swap5\n      pop\n        /* \"#utility.yul\":11471:11475   */\n      0x20\n        /* \"#utility.yul\":11468:11469   */\n      dup2\n        /* \"#utility.yul\":11464:11476   */\n      add\n        /* \"#utility.yul\":11459:11476   */\n      swap1\n      pop\n        /* \"#utility.yul\":11434:11642   */\n      jump(tag_202)\n    tag_204:\n        /* \"#utility.yul\":11670:11676   */\n      dup7\n        /* \"#utility.yul\":11661:11668   */\n      dup4\n        /* \"#utility.yul\":11658:11677   */\n      lt\n        /* \"#utility.yul\":11655:11834   */\n      iszero\n      tag_205\n      jumpi\n        /* \"#utility.yul\":11728:11737   */\n      dup5\n        /* \"#utility.yul\":11723:11726   */\n      dup10\n        /* \"#utility.yul\":11719:11738   */\n      add\n        /* \"#utility.yul\":11713:11739   */\n      mload\n        /* \"#utility.yul\":11771:11819   */\n      tag_206\n        /* \"#utility.yul\":11813:11817   */\n      0x1f\n        /* \"#utility.yul\":11805:11811   */\n      dup10\n        /* \"#utility.yul\":11801:11818   */\n      and\n        /* \"#utility.yul\":11790:11799   */\n      dup3\n        /* \"#utility.yul\":11771:11819   */\n      tag_69\n      jump\t// in\n    tag_206:\n        /* \"#utility.yul\":11763:11769   */\n      dup4\n        /* \"#utility.yul\":11756:11820   */\n      sstore\n        /* \"#utility.yul\":11678:11834   */\n      pop\n        /* \"#utility.yul\":11655:11834   */\n    tag_205:\n        /* \"#utility.yul\":11880:11881   */\n      0x01\n        /* \"#utility.yul\":11876:11877   */\n      0x02\n        /* \"#utility.yul\":11868:11874   */\n      dup9\n        /* \"#utility.yul\":11864:11878   */\n      mul\n        /* \"#utility.yul\":11860:11882   */\n      add\n        /* \"#utility.yul\":11854:11858   */\n      dup9\n        /* \"#utility.yul\":11847:11883   */\n      sstore\n        /* \"#utility.yul\":11282:11893   */\n      pop\n      pop\n      pop\n        /* \"#utility.yul\":11245:12132   */\n    tag_197:\n      pop\n        /* \"#utility.yul\":10835:12138   */\n      pop\n      pop\n      pop\n        /* \"#utility.yul\":10743:12138   */\n      pop\n      pop\n      jump\t// out\n\n    auxdata: 0xa264697066735822122050090a398abd0d952ad37c3de9b48db3e3eeeae458a249f395969db59001eb9164736f6c634300081a0033\n}\n",
				"bytecode": {
					"linkReferences": {},
					"object": "6080604052348015600e575f80fd5b506108ad8061001c5f395ff3fe608060405234801561000f575f80fd5b5060043610610034575f3560e01c8063c4246feb14610038578063cf363d4514610054575b5f80fd5b610052600480360381019061004d9190610460565b610084565b005b61006e600480360381019061006991906104ba565b6100d2565b60405161007b919061058e565b60405180910390f35b805f808481526020019081526020015f205f820151815f0190816100a891906107a8565b506020820151816001015f6101000a81548162ffffff021916908360e81c02179055509050505050565b6100da6101e1565b5f808381526020019081526020015f206040518060400160405290815f82018054610104906105db565b80601f0160208091040260200160405190810160405280929190818152602001828054610130906105db565b801561017b5780601f106101525761010080835404028352916020019161017b565b820191905f5260205f20905b81548152906001019060200180831161015e57829003601f168201915b50505050508152602001600182015f9054906101000a900460e81b7cffffffffffffffffffffffffffffffffffffffffffffffffffffffffff19167cffffffffffffffffffffffffffffffffffffffffffffffffffffffffff1916815250509050919050565b6040518060400160405280606081526020015f7cffffffffffffffffffffffffffffffffffffffffffffffffffffffffff191681525090565b5f604051905090565b5f80fd5b5f80fd5b5f819050919050565b61023d8161022b565b8114610247575f80fd5b50565b5f8135905061025881610234565b92915050565b5f80fd5b5f601f19601f8301169050919050565b7f4e487b71000000000000000000000000000000000000000000000000000000005f52604160045260245ffd5b6102a882610262565b810181811067ffffffffffffffff821117156102c7576102c6610272565b5b80604052505050565b5f6102d961021a565b90506102e5828261029f565b919050565b5f80fd5b5f80fd5b5f80fd5b5f67ffffffffffffffff8211156103105761030f610272565b5b61031982610262565b9050602081019050919050565b828183375f83830152505050565b5f610346610341846102f6565b6102d0565b905082815260208101848484011115610362576103616102f2565b5b61036d848285610326565b509392505050565b5f82601f830112610389576103886102ee565b5b8135610399848260208601610334565b91505092915050565b5f7fffffff000000000000000000000000000000000000000000000000000000000082169050919050565b6103d6816103a2565b81146103e0575f80fd5b50565b5f813590506103f1816103cd565b92915050565b5f6040828403121561040c5761040b61025e565b5b61041660406102d0565b90505f82013567ffffffffffffffff811115610435576104346102ea565b5b61044184828501610375565b5f830152506020610454848285016103e3565b60208301525092915050565b5f806040838503121561047657610475610223565b5b5f6104838582860161024a565b925050602083013567ffffffffffffffff8111156104a4576104a3610227565b5b6104b0858286016103f7565b9150509250929050565b5f602082840312156104cf576104ce610223565b5b5f6104dc8482850161024a565b91505092915050565b5f81519050919050565b5f82825260208201905092915050565b8281835e5f83830152505050565b5f610517826104e5565b61052181856104ef565b93506105318185602086016104ff565b61053a81610262565b840191505092915050565b61054e816103a2565b82525050565b5f604083015f8301518482035f86015261056e828261050d565b91505060208301516105836020860182610545565b508091505092915050565b5f6020820190508181035f8301526105a68184610554565b905092915050565b7f4e487b71000000000000000000000000000000000000000000000000000000005f52602260045260245ffd5b5f60028204905060018216806105f257607f821691505b602082108103610605576106046105ae565b5b50919050565b5f819050815f5260205f209050919050565b5f6020601f8301049050919050565b5f82821b905092915050565b5f600883026106677fffffffffffffffffffffffffffffffffffffffffffffffffffffffffffffffff8261062c565b610671868361062c565b95508019841693508086168417925050509392505050565b5f819050919050565b5f6106ac6106a76106a28461022b565b610689565b61022b565b9050919050565b5f819050919050565b6106c583610692565b6106d96106d1826106b3565b848454610638565b825550505050565b5f90565b6106ed6106e1565b6106f88184846106bc565b505050565b5b8181101561071b576107105f826106e5565b6001810190506106fe565b5050565b601f821115610760576107318161060b565b61073a8461061d565b81016020851015610749578190505b61075d6107558561061d565b8301826106fd565b50505b505050565b5f82821c905092915050565b5f6107805f1984600802610765565b1980831691505092915050565b5f6107988383610771565b9150826002028217905092915050565b6107b1826104e5565b67ffffffffffffffff8111156107ca576107c9610272565b5b6107d482546105db565b6107df82828561071f565b5f60209050601f831160018114610810575f84156107fe578287015190505b610808858261078d565b86555061086f565b601f19841661081e8661060b565b5f5b8281101561084557848901518255600182019150602085019450602081019050610820565b86831015610862578489015161085e601f891682610771565b8355505b6001600288020188555050505b50505050505056fea264697066735822122050090a398abd0d952ad37c3de9b48db3e3eeeae458a249f395969db59001eb9164736f6c634300081a0033",
					"opcodes": "PUSH1 0x80 PUSH1 0x40 MSTORE CALLVALUE DUP1 ISZERO PUSH1 0xE JUMPI PUSH0 DUP1 REVERT JUMPDEST POP PUSH2 0x8AD DUP1 PUSH2 0x1C PUSH0 CODECOPY PUSH0 RETURN INVALID PUSH1 0x80 PUSH1 0x40 MSTORE CALLVALUE DUP1 ISZERO PUSH2 0xF JUMPI PUSH0 DUP1 REVERT JUMPDEST POP PUSH1 0x4 CALLDATASIZE LT PUSH2 0x34 JUMPI PUSH0 CALLDATALOAD PUSH1 0xE0 SHR DUP1 PUSH4 0xC4246FEB EQ PUSH2 0x38 JUMPI DUP1 PUSH4 0xCF363D45 EQ PUSH2 0x54 JUMPI JUMPDEST PUSH0 DUP1 REVERT JUMPDEST PUSH2 0x52 PUSH1 0x4 DUP1 CALLDATASIZE SUB DUP2 ADD SWAP1 PUSH2 0x4D SWAP2 SWAP1 PUSH2 0x460 JUMP JUMPDEST PUSH2 0x84 JUMP JUMPDEST STOP JUMPDEST PUSH2 0x6E PUSH1 0x4 DUP1 CALLDATASIZE SUB DUP2 ADD SWAP1 PUSH2 0x69 SWAP2 SWAP1 PUSH2 0x4BA JUMP JUMPDEST PUSH2 0xD2 JUMP JUMPDEST PUSH1 0x40 MLOAD PUSH2 0x7B SWAP2 SWAP1 PUSH2 0x58E JUMP JUMPDEST PUSH1 0x40 MLOAD DUP1 SWAP2 SUB SWAP1 RETURN JUMPDEST DUP1 PUSH0 DUP1 DUP5 DUP2 MSTORE PUSH1 0x20 ADD SWAP1 DUP2 MSTORE PUSH1 0x20 ADD PUSH0 KECCAK256 PUSH0 DUP3 ADD MLOAD DUP2 PUSH0 ADD SWAP1 DUP2 PUSH2 0xA8 SWAP2 SWAP1 PUSH2 0x7A8 JUMP JUMPDEST POP PUSH1 0x20 DUP3 ADD MLOAD DUP2 PUSH1 0x1 ADD PUSH0 PUSH2 0x100 EXP DUP2 SLOAD DUP2 PUSH3 0xFFFFFF MUL NOT AND SWAP1 DUP4 PUSH1 0xE8 SHR MUL OR SWAP1 SSTORE POP SWAP1 POP POP POP POP JUMP JUMPDEST PUSH2 0xDA PUSH2 0x1E1 JUMP JUMPDEST PUSH0 DUP1 DUP4 DUP2 MSTORE PUSH1 0x20 ADD SWAP1 DUP2 MSTORE PUSH1 0x20 ADD PUSH0 KECCAK256 PUSH1 0x40 MLOAD DUP1 PUSH1 0x40 ADD PUSH1 0x40 MSTORE SWAP1 DUP2 PUSH0 DUP3 ADD DUP1 SLOAD PUSH2 0x104 SWAP1 PUSH2 0x5DB JUMP JUMPDEST DUP1 PUSH1 0x1F ADD PUSH1 0x20 DUP1 SWAP2 DIV MUL PUSH1 0x20 ADD PUSH1 0x40 MLOAD SWAP1 DUP2 ADD PUSH1 0x40 MSTORE DUP1 SWAP3 SWAP2 SWAP1 DUP2 DUP2 MSTORE PUSH1 0x20 ADD DUP3 DUP1 SLOAD PUSH2 0x130 SWAP1 PUSH2 0x5DB JUMP JUMPDEST DUP1 ISZERO PUSH2 0x17B JUMPI DUP1 PUSH1 0x1F LT PUSH2 0x152 JUMPI PUSH2 0x100 DUP1 DUP4 SLOAD DIV MUL DUP4 MSTORE SWAP2 PUSH1 0x20 ADD SWAP2 PUSH2 0x17B JUMP JUMPDEST DUP3 ADD SWAP2 SWAP1 PUSH0 MSTORE PUSH1 0x20 PUSH0 KECCAK256 SWAP1 JUMPDEST DUP2 SLOAD DUP2 MSTORE SWAP1 PUSH1 0x1 ADD SWAP1 PUSH1 0x20 ADD DUP1 DUP4 GT PUSH2 0x15E JUMPI DUP3 SWAP1 SUB PUSH1 0x1F AND DUP3 ADD SWAP2 JUMPDEST POP POP POP POP POP DUP2 MSTORE PUSH1 0x20 ADD PUSH1 0x1 DUP3 ADD PUSH0 SWAP1 SLOAD SWAP1 PUSH2 0x100 EXP SWAP1 DIV PUSH1 0xE8 SHL PUSH29 0xFFFFFFFFFFFFFFFFFFFFFFFFFFFFFFFFFFFFFFFFFFFFFFFFFFFFFFFFFF NOT AND PUSH29 0xFFFFFFFFFFFFFFFFFFFFFFFFFFFFFFFFFFFFFFFFFFFFFFFFFFFFFFFFFF NOT AND DUP2 MSTORE POP POP SWAP1 POP SWAP2 SWAP1 POP JUMP JUMPDEST PUSH1 0x40 MLOAD DUP1 PUSH1 0x40 ADD PUSH1 0x40 MSTORE DUP1 PUSH1 0x60 DUP2 MSTORE PUSH1 0x20 ADD PUSH0 PUSH29 0xFFFFFFFFFFFFFFFFFFFFFFFFFFFFFFFFFFFFFFFFFFFFFFFFFFFFFFFFFF NOT AND DUP2 MSTORE POP SWAP1 JUMP JUMPDEST PUSH0 PUSH1 0x40 MLOAD SWAP1 POP SWAP1 JUMP JUMPDEST PUSH0 DUP1 REVERT JUMPDEST PUSH0 DUP1 REVERT JUMPDEST PUSH0 DUP2 SWAP1 POP SWAP2 SWAP1 POP JUMP JUMPDEST PUSH2 0x23D DUP2 PUSH2 0x22B JUMP JUMPDEST DUP2 EQ PUSH2 0x247 JUMPI PUSH0 DUP1 REVERT JUMPDEST POP JUMP JUMPDEST PUSH0 DUP2 CALLDATALOAD SWAP1 POP PUSH2 0x258 DUP2 PUSH2 0x234 JUMP JUMPDEST SWAP3 SWAP2 POP POP JUMP JUMPDEST PUSH0 DUP1 REVERT JUMPDEST PUSH0 PUSH1 0x1F NOT PUSH1 0x1F DUP4 ADD AND SWAP1 POP SWAP2 SWAP1 POP JUMP JUMPDEST PUSH32 0x4E487B7100000000000000000000000000000000000000000000000000000000 PUSH0 MSTORE PUSH1 0x41 PUSH1 0x4 MSTORE PUSH1 0x24 PUSH0 REVERT JUMPDEST PUSH2 0x2A8 DUP3 PUSH2 0x262 JUMP JUMPDEST DUP2 ADD DUP2 DUP2 LT PUSH8 0xFFFFFFFFFFFFFFFF DUP3 GT OR ISZERO PUSH2 0x2C7 JUMPI PUSH2 0x2C6 PUSH2 0x272 JUMP JUMPDEST JUMPDEST DUP1 PUSH1 0x40 MSTORE POP POP POP JUMP JUMPDEST PUSH0 PUSH2 0x2D9 PUSH2 0x21A JUMP JUMPDEST SWAP1 POP PUSH2 0x2E5 DUP3 DUP3 PUSH2 0x29F JUMP JUMPDEST SWAP2 SWAP1 POP JUMP JUMPDEST PUSH0 DUP1 REVERT JUMPDEST PUSH0 DUP1 REVERT JUMPDEST PUSH0 DUP1 REVERT JUMPDEST PUSH0 PUSH8 0xFFFFFFFFFFFFFFFF DUP3 GT ISZERO PUSH2 0x310 JUMPI PUSH2 0x30F PUSH2 0x272 JUMP JUMPDEST JUMPDEST PUSH2 0x319 DUP3 PUSH2 0x262 JUMP JUMPDEST SWAP1 POP PUSH1 0x20 DUP2 ADD SWAP1 POP SWAP2 SWAP1 POP JUMP JUMPDEST DUP3 DUP2 DUP4 CALLDATACOPY PUSH0 DUP4 DUP4 ADD MSTORE POP POP POP JUMP JUMPDEST PUSH0 PUSH2 0x346 PUSH2 0x341 DUP5 PUSH2 0x2F6 JUMP JUMPDEST PUSH2 0x2D0 JUMP JUMPDEST SWAP1 POP DUP3 DUP2 MSTORE PUSH1 0x20 DUP2 ADD DUP5 DUP5 DUP5 ADD GT ISZERO PUSH2 0x362 JUMPI PUSH2 0x361 PUSH2 0x2F2 JUMP JUMPDEST JUMPDEST PUSH2 0x36D DUP5 DUP3 DUP6 PUSH2 0x326 JUMP JUMPDEST POP SWAP4 SWAP3 POP POP POP JUMP JUMPDEST PUSH0 DUP3 PUSH1 0x1F DUP4 ADD SLT PUSH2 0x389 JUMPI PUSH2 0x388 PUSH2 0x2EE JUMP JUMPDEST JUMPDEST DUP2 CALLDATALOAD PUSH2 0x399 DUP5 DUP3 PUSH1 0x20 DUP7 ADD PUSH2 0x334 JUMP JUMPDEST SWAP2 POP POP SWAP3 SWAP2 POP POP JUMP JUMPDEST PUSH0 PUSH32 0xFFFFFF0000000000000000000000000000000000000000000000000000000000 DUP3 AND SWAP1 POP SWAP2 SWAP1 POP JUMP JUMPDEST PUSH2 0x3D6 DUP2 PUSH2 0x3A2 JUMP JUMPDEST DUP2 EQ PUSH2 0x3E0 JUMPI PUSH0 DUP1 REVERT JUMPDEST POP JUMP JUMPDEST PUSH0 DUP2 CALLDATALOAD SWAP1 POP PUSH2 0x3F1 DUP2 PUSH2 0x3CD JUMP JUMPDEST SWAP3 SWAP2 POP POP JUMP JUMPDEST PUSH0 PUSH1 0x40 DUP3 DUP5 SUB SLT ISZERO PUSH2 0x40C JUMPI PUSH2 0x40B PUSH2 0x25E JUMP JUMPDEST JUMPDEST PUSH2 0x416 PUSH1 0x40 PUSH2 0x2D0 JUMP JUMPDEST SWAP1 POP PUSH0 DUP3 ADD CALLDATALOAD PUSH8 0xFFFFFFFFFFFFFFFF DUP2 GT ISZERO PUSH2 0x435 JUMPI PUSH2 0x434 PUSH2 0x2EA JUMP JUMPDEST JUMPDEST PUSH2 0x441 DUP5 DUP3 DUP6 ADD PUSH2 0x375 JUMP JUMPDEST PUSH0 DUP4 ADD MSTORE POP PUSH1 0x20 PUSH2 0x454 DUP5 DUP3 DUP6 ADD PUSH2 0x3E3 JUMP JUMPDEST PUSH1 0x20 DUP4 ADD MSTORE POP SWAP3 SWAP2 POP POP JUMP JUMPDEST PUSH0 DUP1 PUSH1 0x40 DUP4 DUP6 SUB SLT ISZERO PUSH2 0x476 JUMPI PUSH2 0x475 PUSH2 0x223 JUMP JUMPDEST JUMPDEST PUSH0 PUSH2 0x483 DUP6 DUP3 DUP7 ADD PUSH2 0x24A JUMP JUMPDEST SWAP3 POP POP PUSH1 0x20 DUP4 ADD CALLDATALOAD PUSH8 0xFFFFFFFFFFFFFFFF DUP2 GT ISZERO PUSH2 0x4A4 JUMPI PUSH2 0x4A3 PUSH2 0x227 JUMP JUMPDEST JUMPDEST PUSH2 0x4B0 DUP6 DUP3 DUP7 ADD PUSH2 0x3F7 JUMP JUMPDEST SWAP2 POP POP SWAP3 POP SWAP3 SWAP1 POP JUMP JUMPDEST PUSH0 PUSH1 0x20 DUP3 DUP5 SUB SLT ISZERO PUSH2 0x4CF JUMPI PUSH2 0x4CE PUSH2 0x223 JUMP JUMPDEST JUMPDEST PUSH0 PUSH2 0x4DC DUP5 DUP3 DUP6 ADD PUSH2 0x24A JUMP JUMPDEST SWAP2 POP POP SWAP3 SWAP2 POP POP JUMP JUMPDEST PUSH0 DUP2 MLOAD SWAP1 POP SWAP2 SWAP1 POP JUMP JUMPDEST PUSH0 DUP3 DUP3 MSTORE PUSH1 0x20 DUP3 ADD SWAP1 POP SWAP3 SWAP2 POP POP JUMP JUMPDEST DUP3 DUP2 DUP4 MCOPY PUSH0 DUP4 DUP4 ADD MSTORE POP POP POP JUMP JUMPDEST PUSH0 PUSH2 0x517 DUP3 PUSH2 0x4E5 JUMP JUMPDEST PUSH2 0x521 DUP2 DUP6 PUSH2 0x4EF JUMP JUMPDEST SWAP4 POP PUSH2 0x531 DUP2 DUP6 PUSH1 0x20 DUP7 ADD PUSH2 0x4FF JUMP JUMPDEST PUSH2 0x53A DUP2 PUSH2 0x262 JUMP JUMPDEST DUP5 ADD SWAP2 POP POP SWAP3 SWAP2 POP POP JUMP JUMPDEST PUSH2 0x54E DUP2 PUSH2 0x3A2 JUMP JUMPDEST DUP3 MSTORE POP POP JUMP JUMPDEST PUSH0 PUSH1 0x40 DUP4 ADD PUSH0 DUP4 ADD MLOAD DUP5 DUP3 SUB PUSH0 DUP7 ADD MSTORE PUSH2 0x56E DUP3 DUP3 PUSH2 0x50D JUMP JUMPDEST SWAP2 POP POP PUSH1 0x20 DUP4 ADD MLOAD PUSH2 0x583 PUSH1 0x20 DUP7 ADD DUP3 PUSH2 0x545 JUMP JUMPDEST POP DUP1 SWAP2 POP POP SWAP3 SWAP2 POP POP JUMP JUMPDEST PUSH0 PUSH1 0x20 DUP3 ADD SWAP1 POP DUP2 DUP2 SUB PUSH0 DUP4 ADD MSTORE PUSH2 0x5A6 DUP2 DUP5 PUSH2 0x554 JUMP JUMPDEST SWAP1 POP SWAP3 SWAP2 POP POP JUMP JUMPDEST PUSH32 0x4E487B7100000000000000000000000000000000000000000000000000000000 PUSH0 MSTORE PUSH1 0x22 PUSH1 0x4 MSTORE PUSH1 0x24 PUSH0 REVERT JUMPDEST PUSH0 PUSH1 0x2 DUP3 DIV SWAP1 POP PUSH1 0x1 DUP3 AND DUP1 PUSH2 0x5F2 JUMPI PUSH1 0x7F DUP3 AND SWAP2 POP JUMPDEST PUSH1 0x20 DUP3 LT DUP2 SUB PUSH2 0x605 JUMPI PUSH2 0x604 PUSH2 0x5AE JUMP JUMPDEST JUMPDEST POP SWAP2 SWAP1 POP JUMP JUMPDEST PUSH0 DUP2 SWAP1 POP DUP2 PUSH0 MSTORE PUSH1 0x20 PUSH0 KECCAK256 SWAP1 POP SWAP2 SWAP1 POP JUMP JUMPDEST PUSH0 PUSH1 0x20 PUSH1 0x1F DUP4 ADD DIV SWAP1 POP SWAP2 SWAP1 POP JUMP JUMPDEST PUSH0 DUP3 DUP3 SHL SWAP1 POP SWAP3 SWAP2 POP POP JUMP JUMPDEST PUSH0 PUSH1 0x8 DUP4 MUL PUSH2 0x667 PUSH32 0xFFFFFFFFFFFFFFFFFFFFFFFFFFFFFFFFFFFFFFFFFFFFFFFFFFFFFFFFFFFFFFFF DUP3 PUSH2 0x62C JUMP JUMPDEST PUSH2 0x671 DUP7 DUP4 PUSH2 0x62C JUMP JUMPDEST SWAP6 POP DUP1 NOT DUP5 AND SWAP4 POP DUP1 DUP7 AND DUP5 OR SWAP3 POP POP POP SWAP4 SWAP3 POP POP POP JUMP JUMPDEST PUSH0 DUP2 SWAP1 POP SWAP2 SWAP1 POP JUMP JUMPDEST PUSH0 PUSH2 0x6AC PUSH2 0x6A7 PUSH2 0x6A2 DUP5 PUSH2 0x22B JUMP JUMPDEST PUSH2 0x689 JUMP JUMPDEST PUSH2 0x22B JUMP JUMPDEST SWAP1 POP SWAP2 SWAP1 POP JUMP JUMPDEST PUSH0 DUP2 SWAP1 POP SWAP2 SWAP1 POP JUMP JUMPDEST PUSH2 0x6C5 DUP4 PUSH2 0x692 JUMP JUMPDEST PUSH2 0x6D9 PUSH2 0x6D1 DUP3 PUSH2 0x6B3 JUMP JUMPDEST DUP5 DUP5 SLOAD PUSH2 0x638 JUMP JUMPDEST DUP3 SSTORE POP POP POP POP JUMP JUMPDEST PUSH0 SWAP1 JUMP JUMPDEST PUSH2 0x6ED PUSH2 0x6E1 JUMP JUMPDEST PUSH2 0x6F8 DUP2 DUP5 DUP5 PUSH2 0x6BC JUMP JUMPDEST POP POP POP JUMP JUMPDEST JUMPDEST DUP2 DUP2 LT ISZERO PUSH2 0x71B JUMPI PUSH2 0x710 PUSH0 DUP3 PUSH2 0x6E5 JUMP JUMPDEST PUSH1 0x1 DUP2 ADD SWAP1 POP PUSH2 0x6FE JUMP JUMPDEST POP POP JUMP JUMPDEST PUSH1 0x1F DUP3 GT ISZERO PUSH2 0x760 JUMPI PUSH2 0x731 DUP2 PUSH2 0x60B JUMP JUMPDEST PUSH2 0x73A DUP5 PUSH2 0x61D JUMP JUMPDEST DUP2 ADD PUSH1 0x20 DUP6 LT ISZERO PUSH2 0x749 JUMPI DUP2 SWAP1 POP JUMPDEST PUSH2 0x75D PUSH2 0x755 DUP6 PUSH2 0x61D JUMP JUMPDEST DUP4 ADD DUP3 PUSH2 0x6FD JUMP JUMPDEST POP POP JUMPDEST POP POP POP JUMP JUMPDEST PUSH0 DUP3 DUP3 SHR SWAP1 POP SWAP3 SWAP2 POP POP JUMP JUMPDEST PUSH0 PUSH2 0x780 PUSH0 NOT DUP5 PUSH1 0x8 MUL PUSH2 0x765 JUMP JUMPDEST NOT DUP1 DUP4 AND SWAP2 POP POP SWAP3 SWAP2 POP POP JUMP JUMPDEST PUSH0 PUSH2 0x798 DUP4 DUP4 PUSH2 0x771 JUMP JUMPDEST SWAP2 POP DUP3 PUSH1 0x2 MUL DUP3 OR SWAP1 POP SWAP3 SWAP2 POP POP JUMP JUMPDEST PUSH2 0x7B1 DUP3 PUSH2 0x4E5 JUMP JUMPDEST PUSH8 0xFFFFFFFFFFFFFFFF DUP2 GT ISZERO PUSH2 0x7CA JUMPI PUSH2 0x7C9 PUSH2 0x272 JUMP JUMPDEST JUMPDEST PUSH2 0x7D4 DUP3 SLOAD PUSH2 0x5DB JUMP JUMPDEST PUSH2 0x7DF DUP3 DUP3 DUP6 PUSH2 0x71F JUMP JUMPDEST PUSH0 PUSH1 0x20 SWAP1 POP PUSH1 0x1F DUP4 GT PUSH1 0x1 DUP2 EQ PUSH2 0x810 JUMPI PUSH0 DUP5 ISZERO PUSH2 0x7FE JUMPI DUP3 DUP8 ADD MLOAD SWAP1 POP JUMPDEST PUSH2 0x808 DUP6 DUP3 PUSH2 0x78D JUMP JUMPDEST DUP7 SSTORE POP PUSH2 0x86F JUMP JUMPDEST PUSH1 0x1F NOT DUP5 AND PUSH2 0x81E DUP7 PUSH2 0x60B JUMP JUMPDEST PUSH0 JUMPDEST DUP3 DUP2 LT ISZERO PUSH2 0x845 JUMPI DUP5 DUP10 ADD MLOAD DUP3 SSTORE PUSH1 0x1 DUP3 ADD SWAP2 POP PUSH1 0x20 DUP6 ADD SWAP5 POP PUSH1 0x20 DUP2 ADD SWAP1 POP PUSH2 0x820 JUMP JUMPDEST DUP7 DUP4 LT ISZERO PUSH2 0x862 JUMPI DUP5 DUP10 ADD MLOAD PUSH2 0x85E PUSH1 0x1F DUP10 AND DUP3 PUSH2 0x771 JUMP JUMPDEST DUP4 SSTORE POP JUMPDEST PUSH1 0x1 PUSH1 0x2 DUP9 MUL ADD DUP9 SSTORE POP POP POP JUMPDEST POP POP POP POP POP POP JUMP INVALID LOG2 PUSH5 0x6970667358 0x22 SLT KECCAK256 POP MULMOD EXP CODECOPY DUP11 0xBD 0xD SWAP6 0x2A 0xD3 PUSH29 0x3DE9B48DB3E3EEEAE458A249F395969DB59001EB9164736F6C63430008 BYTE STOP CALLER "
				},
				"gasEstimates": {
					"creation": {
						"codeDepositCost": "444200",
						"executionCost": "478",
						"totalCost": "444678"
					},
					"external": {
						"getStudnet(uint256)": "infinite",
						"setStudent(uint256,(string,bytes3))": "infinite"
					}
				},
				"methodIdentifiers": {
					"getStudnet(uint256)": "cf363d45",
					"setStudent(uint256,(string,bytes3))": "c4246feb"
				}
			},
			"storageLayout": {
				"storage": [
					{
						"astId": 11,
						"contract": "contracts/mapping2.sol:MAPPING2",
						"label": "students",
						"offset": 0,
						"slot": "0",
						"type": "t_mapping(t_uint256,t_struct(student)6_storage)"
					}
				],
				"types": {
					"t_bytes3": {
						"encoding": "inplace",
						"label": "bytes3",
						"numberOfBytes": "3"
					},
					"t_mapping(t_uint256,t_struct(student)6_storage)": {
						"encoding": "mapping",
						"key": "t_uint256",
						"label": "mapping(uint256 => struct MAPPING2.student)",
						"numberOfBytes": "32",
						"value": "t_struct(student)6_storage"
					},
					"t_string_storage": {
						"encoding": "bytes",
						"label": "string",
						"numberOfBytes": "32"
					},
					"t_struct(student)6_storage": {
						"encoding": "inplace",
						"label": "struct MAPPING2.student",
						"members": [
							{
								"astId": 3,
								"contract": "contracts/mapping2.sol:MAPPING2",
								"label": "name",
								"offset": 0,
								"slot": "0",
								"type": "t_string_storage"
							},
							{
								"astId": 5,
								"contract": "contracts/mapping2.sol:MAPPING2",
								"label": "id",
								"offset": 0,
								"slot": "1",
								"type": "t_bytes3"
							}
						],
						"numberOfBytes": "64"
					},
					"t_uint256": {
						"encoding": "inplace",
						"label": "uint256",
						"numberOfBytes": "32"
					}
				}
			},
			"userdoc": {
				"kind": "user",
				"methods": {},
				"version": 1
			}
		}
	}
}