{
	"contracts/gasfee.sol": {
		"GASFEE3": {
			"abi": [
				{
					"inputs": [],
					"name": "A",
					"outputs": [],
					"stateMutability": "nonpayable",
					"type": "function"
				},
				{
					"inputs": [],
					"name": "B",
					"outputs": [],
					"stateMutability": "nonpayable",
					"type": "function"
				},
				{
					"inputs": [],
					"name": "C",
					"outputs": [],
					"stateMutability": "nonpayable",
					"type": "function"
				}
			],
			"devdoc": {
				"kind": "dev",
				"methods": {},
				"version": 1
			},
			"evm": {
				"assembly": "    /* \"contracts/gasfee.sol\":296:756  contract GASFEE3 {... */\n  mstore(0x40, 0x80)\n  callvalue\n  dup1\n  iszero\n  tag_1\n  jumpi\n  0x00\n  dup1\n  revert\ntag_1:\n  pop\n  dataSize(sub_0)\n  dup1\n  dataOffset(sub_0)\n  0x00\n  codecopy\n  0x00\n  return\nstop\n\nsub_0: assembly {\n        /* \"contracts/gasfee.sol\":296:756  contract GASFEE3 {... */\n      mstore(0x40, 0x80)\n      callvalue\n      dup1\n      iszero\n      tag_1\n      jumpi\n      0x00\n      dup1\n      revert\n    tag_1:\n      pop\n      jumpi(tag_2, lt(calldatasize, 0x04))\n      shr(0xe0, calldataload(0x00))\n      dup1\n      0x32e7c5bf\n      eq\n      tag_3\n      jumpi\n      dup1\n      0x83dfe5fd\n      eq\n      tag_4\n      jumpi\n      dup1\n      0xf446c1d0\n      eq\n      tag_5\n      jumpi\n    tag_2:\n      0x00\n      dup1\n      revert\n        /* \"contracts/gasfee.sol\":502:631  function B() public {... */\n    tag_3:\n      tag_6\n      tag_7\n      jump\t// in\n    tag_6:\n      stop\n        /* \"contracts/gasfee.sol\":639:753  function C() public {... */\n    tag_4:\n      tag_8\n      tag_9\n      jump\t// in\n    tag_8:\n      stop\n        /* \"contracts/gasfee.sol\":373:494  function A() public {... */\n    tag_5:\n      tag_10\n      tag_11\n      jump\t// in\n    tag_10:\n      stop\n        /* \"contracts/gasfee.sol\":502:631  function B() public {... */\n    tag_7:\n        /* \"contracts/gasfee.sol\":533:538  bbbbb */\n      0x01\n      0x00\n        /* \"contracts/gasfee.sol\":533:540  bbbbb++ */\n      dup2\n      sload\n      dup1\n      swap3\n      swap2\n      swap1\n      tag_13\n      swap1\n      tag_14\n      jump\t// in\n    tag_13:\n      swap2\n      swap1\n      pop\n      sstore\n      pop\n        /* \"contracts/gasfee.sol\":616:621  bbbbb */\n      0x01\n      0x00\n        /* \"contracts/gasfee.sol\":616:623  bbbbb++ */\n      dup2\n      sload\n      dup1\n      swap3\n      swap2\n      swap1\n      tag_15\n      swap1\n      tag_14\n      jump\t// in\n    tag_15:\n      swap2\n      swap1\n      pop\n      sstore\n      pop\n        /* \"contracts/gasfee.sol\":502:631  function B() public {... */\n      jump\t// out\n        /* \"contracts/gasfee.sol\":639:753  function C() public {... */\n    tag_9:\n        /* \"contracts/gasfee.sol\":679:680  2 */\n      0x02\n        /* \"contracts/gasfee.sol\":670:675  ccccc */\n      dup1\n      0x00\n        /* \"contracts/gasfee.sol\":670:680  ccccc += 2 */\n      dup3\n      dup3\n      sload\n      tag_17\n      swap2\n      swap1\n      tag_18\n      jump\t// in\n    tag_17:\n      swap3\n      pop\n      pop\n      dup2\n      swap1\n      sstore\n      pop\n        /* \"contracts/gasfee.sol\":639:753  function C() public {... */\n      jump\t// out\n        /* \"contracts/gasfee.sol\":373:494  function A() public {... */\n    tag_11:\n        /* \"contracts/gasfee.sol\":420:421  2 */\n      0x02\n        /* \"contracts/gasfee.sol\":412:417  aaaaa */\n      sload(0x00)\n        /* \"contracts/gasfee.sol\":412:421  aaaaa + 2 */\n      tag_20\n      swap2\n      swap1\n      tag_18\n      jump\t// in\n    tag_20:\n        /* \"contracts/gasfee.sol\":404:409  aaaaa */\n      0x00\n        /* \"contracts/gasfee.sol\":404:421  aaaaa = aaaaa + 2 */\n      dup2\n      swap1\n      sstore\n      pop\n        /* \"contracts/gasfee.sol\":373:494  function A() public {... */\n      jump\t// out\n        /* \"#utility.yul\":7:187   */\n    tag_21:\n        /* \"#utility.yul\":55:132   */\n      0x4e487b7100000000000000000000000000000000000000000000000000000000\n        /* \"#utility.yul\":52:53   */\n      0x00\n        /* \"#utility.yul\":45:133   */\n      mstore\n        /* \"#utility.yul\":152:156   */\n      0x11\n        /* \"#utility.yul\":149:150   */\n      0x04\n        /* \"#utility.yul\":142:157   */\n      mstore\n        /* \"#utility.yul\":176:180   */\n      0x24\n        /* \"#utility.yul\":173:174   */\n      0x00\n        /* \"#utility.yul\":166:181   */\n      revert\n        /* \"#utility.yul\":193:270   */\n    tag_22:\n        /* \"#utility.yul\":230:237   */\n      0x00\n        /* \"#utility.yul\":259:264   */\n      dup2\n        /* \"#utility.yul\":248:264   */\n      swap1\n      pop\n        /* \"#utility.yul\":193:270   */\n      swap2\n      swap1\n      pop\n      jump\t// out\n        /* \"#utility.yul\":276:509   */\n    tag_14:\n        /* \"#utility.yul\":315:318   */\n      0x00\n        /* \"#utility.yul\":338:362   */\n      tag_27\n        /* \"#utility.yul\":356:361   */\n      dup3\n        /* \"#utility.yul\":338:362   */\n      tag_22\n      jump\t// in\n    tag_27:\n        /* \"#utility.yul\":329:362   */\n      swap2\n      pop\n        /* \"#utility.yul\":384:450   */\n      0xffffffffffffffffffffffffffffffffffffffffffffffffffffffffffffffff\n        /* \"#utility.yul\":377:382   */\n      dup3\n        /* \"#utility.yul\":374:451   */\n      sub\n        /* \"#utility.yul\":371:474   */\n      tag_28\n      jumpi\n        /* \"#utility.yul\":454:472   */\n      tag_29\n      tag_21\n      jump\t// in\n    tag_29:\n        /* \"#utility.yul\":371:474   */\n    tag_28:\n        /* \"#utility.yul\":501:502   */\n      0x01\n        /* \"#utility.yul\":494:499   */\n      dup3\n        /* \"#utility.yul\":490:503   */\n      add\n        /* \"#utility.yul\":483:503   */\n      swap1\n      pop\n        /* \"#utility.yul\":276:509   */\n      swap2\n      swap1\n      pop\n      jump\t// out\n        /* \"#utility.yul\":515:706   */\n    tag_18:\n        /* \"#utility.yul\":555:558   */\n      0x00\n        /* \"#utility.yul\":574:594   */\n      tag_31\n        /* \"#utility.yul\":592:593   */\n      dup3\n        /* \"#utility.yul\":574:594   */\n      tag_22\n      jump\t// in\n    tag_31:\n        /* \"#utility.yul\":569:594   */\n      swap2\n      pop\n        /* \"#utility.yul\":608:628   */\n      tag_32\n        /* \"#utility.yul\":626:627   */\n      dup4\n        /* \"#utility.yul\":608:628   */\n      tag_22\n      jump\t// in\n    tag_32:\n        /* \"#utility.yul\":603:628   */\n      swap3\n      pop\n        /* \"#utility.yul\":651:652   */\n      dup3\n        /* \"#utility.yul\":648:649   */\n      dup3\n        /* \"#utility.yul\":644:653   */\n      add\n        /* \"#utility.yul\":637:653   */\n      swap1\n      pop\n        /* \"#utility.yul\":672:675   */\n      dup1\n        /* \"#utility.yul\":669:670   */\n      dup3\n        /* \"#utility.yul\":666:676   */\n      gt\n        /* \"#utility.yul\":663:699   */\n      iszero\n      tag_33\n      jumpi\n        /* \"#utility.yul\":679:697   */\n      tag_34\n      tag_21\n      jump\t// in\n    tag_34:\n        /* \"#utility.yul\":663:699   */\n    tag_33:\n        /* \"#utility.yul\":515:706   */\n      swap3\n      swap2\n      pop\n      pop\n      jump\t// out\n\n    auxdata: 0xa2646970667358221220a00057deb6b619e186f558d5a32682a935c9219d347431eceb84faf094ca936264736f6c634300081a0033\n}\n",
				"bytecode": {
					"linkReferences": {},
					"object": "6080604052348015600e575f80fd5b506101a68061001c5f395ff3fe608060405234801561000f575f80fd5b506004361061003f575f3560e01c806332e7c5bf1461004357806383dfe5fd1461004d578063f446c1d014610057575b5f80fd5b61004b610061565b005b610055610091565b005b61005f6100ab565b005b60015f815480929190610073906100f6565b919050555060015f81548092919061008a906100f6565b9190505550565b6002805f8282546100a2919061013d565b92505081905550565b60025f546100b9919061013d565b5f81905550565b7f4e487b71000000000000000000000000000000000000000000000000000000005f52601160045260245ffd5b5f819050919050565b5f610100826100ed565b91507fffffffffffffffffffffffffffffffffffffffffffffffffffffffffffffffff8203610132576101316100c0565b5b600182019050919050565b5f610147826100ed565b9150610152836100ed565b925082820190508082111561016a576101696100c0565b5b9291505056fea2646970667358221220a00057deb6b619e186f558d5a32682a935c9219d347431eceb84faf094ca936264736f6c634300081a0033",
					"opcodes": "PUSH1 0x80 PUSH1 0x40 MSTORE CALLVALUE DUP1 ISZERO PUSH1 0xE JUMPI PUSH0 DUP1 REVERT JUMPDEST POP PUSH2 0x1A6 DUP1 PUSH2 0x1C PUSH0 CODECOPY PUSH0 RETURN INVALID PUSH1 0x80 PUSH1 0x40 MSTORE CALLVALUE DUP1 ISZERO PUSH2 0xF JUMPI PUSH0 DUP1 REVERT JUMPDEST POP PUSH1 0x4 CALLDATASIZE LT PUSH2 0x3F JUMPI PUSH0 CALLDATALOAD PUSH1 0xE0 SHR DUP1 PUSH4 0x32E7C5BF EQ PUSH2 0x43 JUMPI DUP1 PUSH4 0x83DFE5FD EQ PUSH2 0x4D JUMPI DUP1 PUSH4 0xF446C1D0 EQ PUSH2 0x57 JUMPI JUMPDEST PUSH0 DUP1 REVERT JUMPDEST PUSH2 0x4B PUSH2 0x61 JUMP JUMPDEST STOP JUMPDEST PUSH2 0x55 PUSH2 0x91 JUMP JUMPDEST STOP JUMPDEST PUSH2 0x5F PUSH2 0xAB JUMP JUMPDEST STOP JUMPDEST PUSH1 0x1 PUSH0 DUP2 SLOAD DUP1 SWAP3 SWAP2 SWAP1 PUSH2 0x73 SWAP1 PUSH2 0xF6 JUMP JUMPDEST SWAP2 SWAP1 POP SSTORE POP PUSH1 0x1 PUSH0 DUP2 SLOAD DUP1 SWAP3 SWAP2 SWAP1 PUSH2 0x8A SWAP1 PUSH2 0xF6 JUMP JUMPDEST SWAP2 SWAP1 POP SSTORE POP JUMP JUMPDEST PUSH1 0x2 DUP1 PUSH0 DUP3 DUP3 SLOAD PUSH2 0xA2 SWAP2 SWAP1 PUSH2 0x13D JUMP JUMPDEST SWAP3 POP POP DUP2 SWAP1 SSTORE POP JUMP JUMPDEST PUSH1 0x2 PUSH0 SLOAD PUSH2 0xB9 SWAP2 SWAP1 PUSH2 0x13D JUMP JUMPDEST PUSH0 DUP2 SWAP1 SSTORE POP JUMP JUMPDEST PUSH32 0x4E487B7100000000000000000000000000000000000000000000000000000000 PUSH0 MSTORE PUSH1 0x11 PUSH1 0x4 MSTORE PUSH1 0x24 PUSH0 REVERT JUMPDEST PUSH0 DUP2 SWAP1 POP SWAP2 SWAP1 POP JUMP JUMPDEST PUSH0 PUSH2 0x100 DUP3 PUSH2 0xED JUMP JUMPDEST SWAP2 POP PUSH32 0xFFFFFFFFFFFFFFFFFFFFFFFFFFFFFFFFFFFFFFFFFFFFFFFFFFFFFFFFFFFFFFFF DUP3 SUB PUSH2 0x132 JUMPI PUSH2 0x131 PUSH2 0xC0 JUMP JUMPDEST JUMPDEST PUSH1 0x1 DUP3 ADD SWAP1 POP SWAP2 SWAP1 POP JUMP JUMPDEST PUSH0 PUSH2 0x147 DUP3 PUSH2 0xED JUMP JUMPDEST SWAP2 POP PUSH2 0x152 DUP4 PUSH2 0xED JUMP JUMPDEST SWAP3 POP DUP3 DUP3 ADD SWAP1 POP DUP1 DUP3 GT ISZERO PUSH2 0x16A JUMPI PUSH2 0x169 PUSH2 0xC0 JUMP JUMPDEST JUMPDEST SWAP3 SWAP2 POP POP JUMP INVALID LOG2 PUSH5 0x6970667358 0x22 SLT KECCAK256 LOG0 STOP JUMPI 0xDE 0xB6 0xB6 NOT 0xE1 DUP7 CREATE2 PC 0xD5 LOG3 0x26 DUP3 0xA9 CALLDATALOAD 0xC9 0x21 SWAP14 CALLVALUE PUSH21 0x31ECEB84FAF094CA936264736F6C634300081A0033 "
				},
				"gasEstimates": {
					"creation": {
						"codeDepositCost": "84400",
						"executionCost": "133",
						"totalCost": "84533"
					},
					"external": {
						"A()": "infinite",
						"B()": "infinite",
						"C()": "infinite"
					}
				},
				"methodIdentifiers": {
					"A()": "f446c1d0",
					"B()": "32e7c5bf",
					"C()": "83dfe5fd"
				}
			},
			"storageLayout": {
				"storage": [
					{
						"astId": 35,
						"contract": "contracts/gasfee.sol:GASFEE3",
						"label": "aaaaa",
						"offset": 0,
						"slot": "0",
						"type": "t_uint256"
					},
					{
						"astId": 37,
						"contract": "contracts/gasfee.sol:GASFEE3",
						"label": "bbbbb",
						"offset": 0,
						"slot": "1",
						"type": "t_uint256"
					},
					{
						"astId": 39,
						"contract": "contracts/gasfee.sol:GASFEE3",
						"label": "ccccc",
						"offset": 0,
						"slot": "2",
						"type": "t_uint256"
					}
				],
				"types": {
					"t_uint256": {
						"encoding": "inplace",
						"label": "uint256",
						"numberOfBytes": "32"
					}
				}
			},
			"userdoc": {
				"kind": "user",
				"methods": {},
				"version": 1
			}
		}
	}
}