{
	"contracts/struct.sol": {
		"STRUCT": {
			"abi": [
				{
					"inputs": [],
					"name": "getA",
					"outputs": [
						{
							"internalType": "uint256",
							"name": "",
							"type": "uint256"
						}
					],
					"stateMutability": "view",
					"type": "function"
				},
				{
					"inputs": [],
					"name": "getS1",
					"outputs": [
						{
							"components": [
								{
									"internalType": "uint256",
									"name": "number",
									"type": "uint256"
								},
								{
									"internalType": "string",
									"name": "name",
									"type": "string"
								},
								{
									"internalType": "bytes3",
									"name": "id",
									"type": "bytes3"
								},
								{
									"internalType": "bool",
									"name": "b",
									"type": "bool"
								}
							],
							"internalType": "struct STRUCT.staff",
							"name": "",
							"type": "tuple"
						}
					],
					"stateMutability": "view",
					"type": "function"
				},
				{
					"inputs": [],
					"name": "getS1_2",
					"outputs": [
						{
							"internalType": "string",
							"name": "",
							"type": "string"
						},
						{
							"internalType": "bytes3",
							"name": "",
							"type": "bytes3"
						}
					],
					"stateMutability": "view",
					"type": "function"
				},
				{
					"inputs": [
						{
							"internalType": "uint256",
							"name": "_a",
							"type": "uint256"
						}
					],
					"name": "setA",
					"outputs": [],
					"stateMutability": "nonpayable",
					"type": "function"
				},
				{
					"inputs": [
						{
							"internalType": "uint256",
							"name": "_number",
							"type": "uint256"
						},
						{
							"internalType": "string",
							"name": "_name",
							"type": "string"
						},
						{
							"internalType": "bytes3",
							"name": "_id",
							"type": "bytes3"
						},
						{
							"internalType": "bool",
							"name": "_b",
							"type": "bool"
						}
					],
					"name": "setS1",
					"outputs": [],
					"stateMutability": "nonpayable",
					"type": "function"
				},
				{
					"inputs": [
						{
							"components": [
								{
									"internalType": "uint256",
									"name": "number",
									"type": "uint256"
								},
								{
									"internalType": "string",
									"name": "name",
									"type": "string"
								},
								{
									"internalType": "bytes3",
									"name": "id",
									"type": "bytes3"
								},
								{
									"internalType": "bool",
									"name": "b",
									"type": "bool"
								}
							],
							"internalType": "struct STRUCT.staff",
							"name": "_s1",
							"type": "tuple"
						}
					],
					"name": "setS1_2",
					"outputs": [],
					"stateMutability": "nonpayable",
					"type": "function"
				},
				{
					"inputs": [
						{
							"internalType": "uint256",
							"name": "_number",
							"type": "uint256"
						},
						{
							"internalType": "string",
							"name": "_name",
							"type": "string"
						},
						{
							"internalType": "bytes3",
							"name": "_id",
							"type": "bytes3"
						},
						{
							"internalType": "bool",
							"name": "_b",
							"type": "bool"
						}
					],
					"name": "setS1_3",
					"outputs": [],
					"stateMutability": "nonpayable",
					"type": "function"
				},
				{
					"inputs": [
						{
							"internalType": "string",
							"name": "_name",
							"type": "string"
						}
					],
					"name": "setS1_name",
					"outputs": [],
					"stateMutability": "nonpayable",
					"type": "function"
				},
				{
					"inputs": [
						{
							"internalType": "uint256",
							"name": "_number",
							"type": "uint256"
						},
						{
							"internalType": "string",
							"name": "_name",
							"type": "string"
						}
					],
					"name": "setU1",
					"outputs": [],
					"stateMutability": "nonpayable",
					"type": "function"
				},
				{
					"inputs": [
						{
							"components": [
								{
									"internalType": "uint256",
									"name": "number",
									"type": "uint256"
								},
								{
									"internalType": "string",
									"name": "name",
									"type": "string"
								}
							],
							"internalType": "struct STRUCT.user",
							"name": "_u1",
							"type": "tuple"
						}
					],
					"name": "setU1_2",
					"outputs": [],
					"stateMutability": "nonpayable",
					"type": "function"
				},
				{
					"inputs": [
						{
							"internalType": "uint256",
							"name": "_number",
							"type": "uint256"
						},
						{
							"internalType": "string",
							"name": "_name",
							"type": "string"
						}
					],
					"name": "setU1_3",
					"outputs": [],
					"stateMutability": "nonpayable",
					"type": "function"
				},
				{
					"inputs": [
						{
							"internalType": "string",
							"name": "_name",
							"type": "string"
						}
					],
					"name": "setU1_name",
					"outputs": [],
					"stateMutability": "nonpayable",
					"type": "function"
				},
				{
					"inputs": [
						{
							"internalType": "uint256",
							"name": "_number",
							"type": "uint256"
						},
						{
							"internalType": "string",
							"name": "_name",
							"type": "string"
						}
					],
					"name": "setU2",
					"outputs": [],
					"stateMutability": "nonpayable",
					"type": "function"
				}
			],
			"devdoc": {
				"kind": "dev",
				"methods": {},
				"version": 1
			},
			"evm": {
				"assembly": "    /* \"contracts/struct.sol\":70:1850  contract STRUCT {... */\n  mstore(0x40, 0x80)\n  callvalue\n  dup1\n  iszero\n  tag_1\n  jumpi\n  0x00\n  dup1\n  revert\ntag_1:\n  pop\n  dataSize(sub_0)\n  dup1\n  dataOffset(sub_0)\n  0x00\n  codecopy\n  0x00\n  return\nstop\n\nsub_0: assembly {\n        /* \"contracts/struct.sol\":70:1850  contract STRUCT {... */\n      mstore(0x40, 0x80)\n      callvalue\n      dup1\n      iszero\n      tag_1\n      jumpi\n      0x00\n      dup1\n      revert\n    tag_1:\n      pop\n      jumpi(tag_2, lt(calldatasize, 0x04))\n      shr(0xe0, calldataload(0x00))\n      dup1\n      0x6010dd66\n      gt\n      tag_16\n      jumpi\n      dup1\n      0xb0c5e781\n      gt\n      tag_17\n      jumpi\n      dup1\n      0xb0c5e781\n      eq\n      tag_12\n      jumpi\n      dup1\n      0xd46300fd\n      eq\n      tag_13\n      jumpi\n      dup1\n      0xee919d50\n      eq\n      tag_14\n      jumpi\n      dup1\n      0xf669d772\n      eq\n      tag_15\n      jumpi\n      jump(tag_2)\n    tag_17:\n      dup1\n      0x6010dd66\n      eq\n      tag_9\n      jumpi\n      dup1\n      0x80982f50\n      eq\n      tag_10\n      jumpi\n      dup1\n      0xac7a047e\n      eq\n      tag_11\n      jumpi\n      jump(tag_2)\n    tag_16:\n      dup1\n      0x0f22d999\n      eq\n      tag_3\n      jumpi\n      dup1\n      0x2b14386f\n      eq\n      tag_4\n      jumpi\n      dup1\n      0x2e35253a\n      eq\n      tag_5\n      jumpi\n      dup1\n      0x3fed508f\n      eq\n      tag_6\n      jumpi\n      dup1\n      0x56c90aad\n      eq\n      tag_7\n      jumpi\n      dup1\n      0x5b3e9d39\n      eq\n      tag_8\n      jumpi\n    tag_2:\n      0x00\n      dup1\n      revert\n        /* \"contracts/struct.sol\":503:571  function setU1_2(user memory _u1) public {... */\n    tag_3:\n      tag_18\n      0x04\n      dup1\n      calldatasize\n      sub\n      dup2\n      add\n      swap1\n      tag_19\n      swap2\n      swap1\n      tag_20\n      jump\t// in\n    tag_19:\n      tag_21\n      jump\t// in\n    tag_18:\n      stop\n        /* \"contracts/struct.sol\":394:495  function setU1(uint _number, string memory _name) public {... */\n    tag_4:\n      tag_22\n      0x04\n      dup1\n      calldatasize\n      sub\n      dup2\n      add\n      swap1\n      tag_23\n      swap2\n      swap1\n      tag_24\n      jump\t// in\n    tag_23:\n      tag_25\n      jump\t// in\n    tag_22:\n      stop\n        /* \"contracts/struct.sol\":1743:1847  function getS1_2() public view returns(string memory, bytes3) {... */\n    tag_5:\n      tag_26\n      tag_27\n      jump\t// in\n    tag_26:\n      mload(0x40)\n      tag_28\n      swap3\n      swap2\n      swap1\n      tag_29\n      jump\t// in\n    tag_28:\n      mload(0x40)\n      dup1\n      swap2\n      sub\n      swap1\n      return\n        /* \"contracts/struct.sol\":1120:1252  function setS1(uint _number, string memory _name, bytes3 _id, bool _b) public {... */\n    tag_6:\n      tag_30\n      0x04\n      dup1\n      calldatasize\n      sub\n      dup2\n      add\n      swap1\n      tag_31\n      swap2\n      swap1\n      tag_32\n      jump\t// in\n    tag_31:\n      tag_33\n      jump\t// in\n    tag_30:\n      stop\n        /* \"contracts/struct.sol\":1260:1329  function setS1_2(staff memory _s1) public {... */\n    tag_7:\n      tag_34\n      0x04\n      dup1\n      calldatasize\n      sub\n      dup2\n      add\n      swap1\n      tag_35\n      swap2\n      swap1\n      tag_36\n      jump\t// in\n    tag_35:\n      tag_37\n      jump\t// in\n    tag_34:\n      stop\n        /* \"contracts/struct.sol\":1565:1647  function setS1_name(string memory _name) public {... */\n    tag_8:\n      tag_38\n      0x04\n      dup1\n      calldatasize\n      sub\n      dup2\n      add\n      swap1\n      tag_39\n      swap2\n      swap1\n      tag_40\n      jump\t// in\n    tag_39:\n      tag_41\n      jump\t// in\n    tag_38:\n      stop\n        /* \"contracts/struct.sol\":579:661  function setU1_name(string memory _name) public {... */\n    tag_9:\n      tag_42\n      0x04\n      dup1\n      calldatasize\n      sub\n      dup2\n      add\n      swap1\n      tag_43\n      swap2\n      swap1\n      tag_40\n      jump\t// in\n    tag_43:\n      tag_44\n      jump\t// in\n    tag_42:\n      stop\n        /* \"contracts/struct.sol\":1655:1735  function getS1() public view returns (staff memory) {... */\n    tag_10:\n      tag_45\n      tag_46\n      jump\t// in\n    tag_45:\n      mload(0x40)\n      tag_47\n      swap2\n      swap1\n      tag_48\n      jump\t// in\n    tag_47:\n      mload(0x40)\n      dup1\n      swap2\n      sub\n      swap1\n      return\n        /* \"contracts/struct.sol\":669:827  function setU1_3(uint _number, string memory _name) public {... */\n    tag_11:\n      tag_49\n      0x04\n      dup1\n      calldatasize\n      sub\n      dup2\n      add\n      swap1\n      tag_50\n      swap2\n      swap1\n      tag_24\n      jump\t// in\n    tag_50:\n      tag_51\n      jump\t// in\n    tag_49:\n      stop\n        /* \"contracts/struct.sol\":835:936  function setU2(uint _number, string memory _name) public {... */\n    tag_12:\n      tag_52\n      0x04\n      dup1\n      calldatasize\n      sub\n      dup2\n      add\n      swap1\n      tag_53\n      swap2\n      swap1\n      tag_24\n      jump\t// in\n    tag_53:\n      tag_54\n      jump\t// in\n    tag_52:\n      stop\n        /* \"contracts/struct.sol\":317:386  function getA() public view returns(uint) {... */\n    tag_13:\n      tag_55\n      tag_56\n      jump\t// in\n    tag_55:\n      mload(0x40)\n      tag_57\n      swap2\n      swap1\n      tag_58\n      jump\t// in\n    tag_57:\n      mload(0x40)\n      dup1\n      swap2\n      sub\n      swap1\n      return\n        /* \"contracts/struct.sol\":254:309  function setA(uint _a) public {... */\n    tag_14:\n      tag_59\n      0x04\n      dup1\n      calldatasize\n      sub\n      dup2\n      add\n      swap1\n      tag_60\n      swap2\n      swap1\n      tag_61\n      jump\t// in\n    tag_60:\n      tag_62\n      jump\t// in\n    tag_59:\n      stop\n        /* \"contracts/struct.sol\":1337:1557  function setS1_3(uint _number, string memory _name, bytes3 _id, bool _b) public {... */\n    tag_15:\n      tag_63\n      0x04\n      dup1\n      calldatasize\n      sub\n      dup2\n      add\n      swap1\n      tag_64\n      swap2\n      swap1\n      tag_32\n      jump\t// in\n    tag_64:\n      tag_65\n      jump\t// in\n    tag_63:\n      stop\n        /* \"contracts/struct.sol\":503:571  function setU1_2(user memory _u1) public {... */\n    tag_21:\n        /* \"contracts/struct.sol\":560:563  _u1 */\n      dup1\n        /* \"contracts/struct.sol\":555:557  u1 */\n      0x04\n        /* \"contracts/struct.sol\":555:563  u1 = _u1 */\n      0x00\n      dup3\n      add\n      mload\n      dup2\n      0x00\n      add\n      sstore\n      0x20\n      dup3\n      add\n      mload\n      dup2\n      0x01\n      add\n      swap1\n      dup2\n      tag_67\n      swap2\n      swap1\n      tag_68\n      jump\t// in\n    tag_67:\n      pop\n      swap1\n      pop\n      pop\n        /* \"contracts/struct.sol\":503:571  function setU1_2(user memory _u1) public {... */\n      pop\n      jump\t// out\n        /* \"contracts/struct.sol\":394:495  function setU1(uint _number, string memory _name) public {... */\n    tag_25:\n        /* \"contracts/struct.sol\":467:487  user(_number, _name) */\n      mload(0x40)\n      dup1\n      0x40\n      add\n      0x40\n      mstore\n      dup1\n        /* \"contracts/struct.sol\":472:479  _number */\n      dup4\n        /* \"contracts/struct.sol\":467:487  user(_number, _name) */\n      dup2\n      mstore\n      0x20\n      add\n        /* \"contracts/struct.sol\":481:486  _name */\n      dup3\n        /* \"contracts/struct.sol\":467:487  user(_number, _name) */\n      dup2\n      mstore\n      pop\n        /* \"contracts/struct.sol\":462:464  u1 */\n      0x04\n        /* \"contracts/struct.sol\":462:487  u1 = user(_number, _name) */\n      0x00\n      dup3\n      add\n      mload\n      dup2\n      0x00\n      add\n      sstore\n      0x20\n      dup3\n      add\n      mload\n      dup2\n      0x01\n      add\n      swap1\n      dup2\n      tag_70\n      swap2\n      swap1\n      tag_68\n      jump\t// in\n    tag_70:\n      pop\n      swap1\n      pop\n      pop\n        /* \"contracts/struct.sol\":394:495  function setU1(uint _number, string memory _name) public {... */\n      pop\n      pop\n      jump\t// out\n        /* \"contracts/struct.sol\":1743:1847  function getS1_2() public view returns(string memory, bytes3) {... */\n    tag_27:\n        /* \"contracts/struct.sol\":1782:1795  string memory */\n      0x60\n        /* \"contracts/struct.sol\":1797:1803  bytes3 */\n      0x00\n        /* \"contracts/struct.sol\":1824:1826  s1 */\n      0x08\n        /* \"contracts/struct.sol\":1824:1831  s1.name */\n      0x01\n      add\n        /* \"contracts/struct.sol\":1833:1835  s1 */\n      0x08\n        /* \"contracts/struct.sol\":1833:1838  s1.id */\n      0x02\n      add\n      0x00\n      swap1\n      sload\n      swap1\n      0x0100\n      exp\n      swap1\n      div\n      0xe8\n      shl\n        /* \"contracts/struct.sol\":1816:1839  return (s1.name, s1.id) */\n      dup2\n      dup1\n      sload\n      tag_72\n      swap1\n      tag_73\n      jump\t// in\n    tag_72:\n      dup1\n      0x1f\n      add\n      0x20\n      dup1\n      swap2\n      div\n      mul\n      0x20\n      add\n      mload(0x40)\n      swap1\n      dup2\n      add\n      0x40\n      mstore\n      dup1\n      swap3\n      swap2\n      swap1\n      dup2\n      dup2\n      mstore\n      0x20\n      add\n      dup3\n      dup1\n      sload\n      tag_74\n      swap1\n      tag_73\n      jump\t// in\n    tag_74:\n      dup1\n      iszero\n      tag_75\n      jumpi\n      dup1\n      0x1f\n      lt\n      tag_76\n      jumpi\n      0x0100\n      dup1\n      dup4\n      sload\n      div\n      mul\n      dup4\n      mstore\n      swap2\n      0x20\n      add\n      swap2\n      jump(tag_75)\n    tag_76:\n      dup3\n      add\n      swap2\n      swap1\n      0x00\n      mstore\n      keccak256(0x00, 0x20)\n      swap1\n    tag_77:\n      dup2\n      sload\n      dup2\n      mstore\n      swap1\n      0x01\n      add\n      swap1\n      0x20\n      add\n      dup1\n      dup4\n      gt\n      tag_77\n      jumpi\n      dup3\n      swap1\n      sub\n      0x1f\n      and\n      dup3\n      add\n      swap2\n    tag_75:\n      pop\n      pop\n      pop\n      pop\n      pop\n      swap2\n      pop\n      swap2\n      pop\n      swap2\n      pop\n        /* \"contracts/struct.sol\":1743:1847  function getS1_2() public view returns(string memory, bytes3) {... */\n      swap1\n      swap2\n      jump\t// out\n        /* \"contracts/struct.sol\":1120:1252  function setS1(uint _number, string memory _name, bytes3 _id, bool _b) public {... */\n    tag_33:\n        /* \"contracts/struct.sol\":1214:1244  staff(_number, _name, _id, _b) */\n      mload(0x40)\n      dup1\n      0x80\n      add\n      0x40\n      mstore\n      dup1\n        /* \"contracts/struct.sol\":1220:1227  _number */\n      dup6\n        /* \"contracts/struct.sol\":1214:1244  staff(_number, _name, _id, _b) */\n      dup2\n      mstore\n      0x20\n      add\n        /* \"contracts/struct.sol\":1229:1234  _name */\n      dup5\n        /* \"contracts/struct.sol\":1214:1244  staff(_number, _name, _id, _b) */\n      dup2\n      mstore\n      0x20\n      add\n        /* \"contracts/struct.sol\":1236:1239  _id */\n      dup4\n        /* \"contracts/struct.sol\":1214:1244  staff(_number, _name, _id, _b) */\n      not(0xffffffffffffffffffffffffffffffffffffffffffffffffffffffffff)\n      and\n      dup2\n      mstore\n      0x20\n      add\n        /* \"contracts/struct.sol\":1241:1243  _b */\n      dup3\n        /* \"contracts/struct.sol\":1214:1244  staff(_number, _name, _id, _b) */\n      iszero\n      iszero\n      dup2\n      mstore\n      pop\n        /* \"contracts/struct.sol\":1209:1211  s1 */\n      0x08\n        /* \"contracts/struct.sol\":1209:1244  s1 = staff(_number, _name, _id, _b) */\n      0x00\n      dup3\n      add\n      mload\n      dup2\n      0x00\n      add\n      sstore\n      0x20\n      dup3\n      add\n      mload\n      dup2\n      0x01\n      add\n      swap1\n      dup2\n      tag_79\n      swap2\n      swap1\n      tag_68\n      jump\t// in\n    tag_79:\n      pop\n      0x40\n      dup3\n      add\n      mload\n      dup2\n      0x02\n      add\n      exp(0x0100, 0x00)\n      dup2\n      sload\n      dup2\n      0xffffff\n      mul\n      not\n      and\n      swap1\n      dup4\n      0xe8\n      shr\n      mul\n      or\n      swap1\n      sstore\n      pop\n      0x60\n      dup3\n      add\n      mload\n      dup2\n      0x02\n      add\n      exp(0x0100, 0x03)\n      dup2\n      sload\n      dup2\n      0xff\n      mul\n      not\n      and\n      swap1\n      dup4\n      iszero\n      iszero\n      mul\n      or\n      swap1\n      sstore\n      pop\n      swap1\n      pop\n      pop\n        /* \"contracts/struct.sol\":1120:1252  function setS1(uint _number, string memory _name, bytes3 _id, bool _b) public {... */\n      pop\n      pop\n      pop\n      pop\n      jump\t// out\n        /* \"contracts/struct.sol\":1260:1329  function setS1_2(staff memory _s1) public {... */\n    tag_37:\n        /* \"contracts/struct.sol\":1318:1321  _s1 */\n      dup1\n        /* \"contracts/struct.sol\":1313:1315  s1 */\n      0x08\n        /* \"contracts/struct.sol\":1313:1321  s1 = _s1 */\n      0x00\n      dup3\n      add\n      mload\n      dup2\n      0x00\n      add\n      sstore\n      0x20\n      dup3\n      add\n      mload\n      dup2\n      0x01\n      add\n      swap1\n      dup2\n      tag_81\n      swap2\n      swap1\n      tag_68\n      jump\t// in\n    tag_81:\n      pop\n      0x40\n      dup3\n      add\n      mload\n      dup2\n      0x02\n      add\n      exp(0x0100, 0x00)\n      dup2\n      sload\n      dup2\n      0xffffff\n      mul\n      not\n      and\n      swap1\n      dup4\n      0xe8\n      shr\n      mul\n      or\n      swap1\n      sstore\n      pop\n      0x60\n      dup3\n      add\n      mload\n      dup2\n      0x02\n      add\n      exp(0x0100, 0x03)\n      dup2\n      sload\n      dup2\n      0xff\n      mul\n      not\n      and\n      swap1\n      dup4\n      iszero\n      iszero\n      mul\n      or\n      swap1\n      sstore\n      pop\n      swap1\n      pop\n      pop\n        /* \"contracts/struct.sol\":1260:1329  function setS1_2(staff memory _s1) public {... */\n      pop\n      jump\t// out\n        /* \"contracts/struct.sol\":1565:1647  function setS1_name(string memory _name) public {... */\n    tag_41:\n        /* \"contracts/struct.sol\":1634:1639  _name */\n      dup1\n        /* \"contracts/struct.sol\":1624:1626  s1 */\n      0x08\n        /* \"contracts/struct.sol\":1624:1631  s1.name */\n      0x01\n      add\n        /* \"contracts/struct.sol\":1624:1639  s1.name = _name */\n      swap1\n      dup2\n      tag_83\n      swap2\n      swap1\n      tag_68\n      jump\t// in\n    tag_83:\n      pop\n        /* \"contracts/struct.sol\":1565:1647  function setS1_name(string memory _name) public {... */\n      pop\n      jump\t// out\n        /* \"contracts/struct.sol\":579:661  function setU1_name(string memory _name) public {... */\n    tag_44:\n        /* \"contracts/struct.sol\":648:653  _name */\n      dup1\n        /* \"contracts/struct.sol\":638:640  u1 */\n      0x04\n        /* \"contracts/struct.sol\":638:645  u1.name */\n      0x01\n      add\n        /* \"contracts/struct.sol\":638:653  u1.name = _name */\n      swap1\n      dup2\n      tag_85\n      swap2\n      swap1\n      tag_68\n      jump\t// in\n    tag_85:\n      pop\n        /* \"contracts/struct.sol\":579:661  function setU1_name(string memory _name) public {... */\n      pop\n      jump\t// out\n        /* \"contracts/struct.sol\":1655:1735  function getS1() public view returns (staff memory) {... */\n    tag_46:\n        /* \"contracts/struct.sol\":1693:1705  staff memory */\n      tag_86\n      tag_87\n      jump\t// in\n    tag_86:\n        /* \"contracts/struct.sol\":1725:1727  s1 */\n      0x08\n        /* \"contracts/struct.sol\":1718:1727  return s1 */\n      mload(0x40)\n      dup1\n      0x80\n      add\n      0x40\n      mstore\n      swap1\n      dup2\n      0x00\n      dup3\n      add\n      sload\n      dup2\n      mstore\n      0x20\n      add\n      0x01\n      dup3\n      add\n      dup1\n      sload\n      tag_89\n      swap1\n      tag_73\n      jump\t// in\n    tag_89:\n      dup1\n      0x1f\n      add\n      0x20\n      dup1\n      swap2\n      div\n      mul\n      0x20\n      add\n      mload(0x40)\n      swap1\n      dup2\n      add\n      0x40\n      mstore\n      dup1\n      swap3\n      swap2\n      swap1\n      dup2\n      dup2\n      mstore\n      0x20\n      add\n      dup3\n      dup1\n      sload\n      tag_90\n      swap1\n      tag_73\n      jump\t// in\n    tag_90:\n      dup1\n      iszero\n      tag_91\n      jumpi\n      dup1\n      0x1f\n      lt\n      tag_92\n      jumpi\n      0x0100\n      dup1\n      dup4\n      sload\n      div\n      mul\n      dup4\n      mstore\n      swap2\n      0x20\n      add\n      swap2\n      jump(tag_91)\n    tag_92:\n      dup3\n      add\n      swap2\n      swap1\n      0x00\n      mstore\n      keccak256(0x00, 0x20)\n      swap1\n    tag_93:\n      dup2\n      sload\n      dup2\n      mstore\n      swap1\n      0x01\n      add\n      swap1\n      0x20\n      add\n      dup1\n      dup4\n      gt\n      tag_93\n      jumpi\n      dup3\n      swap1\n      sub\n      0x1f\n      and\n      dup3\n      add\n      swap2\n    tag_91:\n      pop\n      pop\n      pop\n      pop\n      pop\n      dup2\n      mstore\n      0x20\n      add\n      0x02\n      dup3\n      add\n      0x00\n      swap1\n      sload\n      swap1\n      0x0100\n      exp\n      swap1\n      div\n      0xe8\n      shl\n      not(0xffffffffffffffffffffffffffffffffffffffffffffffffffffffffff)\n      and\n      not(0xffffffffffffffffffffffffffffffffffffffffffffffffffffffffff)\n      and\n      dup2\n      mstore\n      0x20\n      add\n      0x02\n      dup3\n      add\n      0x03\n      swap1\n      sload\n      swap1\n      0x0100\n      exp\n      swap1\n      div\n      0xff\n      and\n      iszero\n      iszero\n      iszero\n      iszero\n      dup2\n      mstore\n      pop\n      pop\n      swap1\n      pop\n        /* \"contracts/struct.sol\":1655:1735  function getS1() public view returns (staff memory) {... */\n      swap1\n      jump\t// out\n        /* \"contracts/struct.sol\":669:827  function setU1_3(uint _number, string memory _name) public {... */\n    tag_51:\n        /* \"contracts/struct.sol\":744:819  user({... */\n      mload(0x40)\n      dup1\n      0x40\n      add\n      0x40\n      mstore\n      dup1\n        /* \"contracts/struct.sol\":773:780  _number */\n      dup4\n        /* \"contracts/struct.sol\":744:819  user({... */\n      dup2\n      mstore\n      0x20\n      add\n        /* \"contracts/struct.sol\":802:807  _name */\n      dup3\n        /* \"contracts/struct.sol\":744:819  user({... */\n      dup2\n      mstore\n      pop\n        /* \"contracts/struct.sol\":739:741  u1 */\n      0x04\n        /* \"contracts/struct.sol\":739:819  u1 = user({... */\n      0x00\n      dup3\n      add\n      mload\n      dup2\n      0x00\n      add\n      sstore\n      0x20\n      dup3\n      add\n      mload\n      dup2\n      0x01\n      add\n      swap1\n      dup2\n      tag_95\n      swap2\n      swap1\n      tag_68\n      jump\t// in\n    tag_95:\n      pop\n      swap1\n      pop\n      pop\n        /* \"contracts/struct.sol\":669:827  function setU1_3(uint _number, string memory _name) public {... */\n      pop\n      pop\n      jump\t// out\n        /* \"contracts/struct.sol\":835:936  function setU2(uint _number, string memory _name) public {... */\n    tag_54:\n        /* \"contracts/struct.sol\":908:928  user(_number, _name) */\n      mload(0x40)\n      dup1\n      0x40\n      add\n      0x40\n      mstore\n      dup1\n        /* \"contracts/struct.sol\":913:920  _number */\n      dup4\n        /* \"contracts/struct.sol\":908:928  user(_number, _name) */\n      dup2\n      mstore\n      0x20\n      add\n        /* \"contracts/struct.sol\":922:927  _name */\n      dup3\n        /* \"contracts/struct.sol\":908:928  user(_number, _name) */\n      dup2\n      mstore\n      pop\n        /* \"contracts/struct.sol\":903:905  u2 */\n      0x06\n        /* \"contracts/struct.sol\":903:928  u2 = user(_number, _name) */\n      0x00\n      dup3\n      add\n      mload\n      dup2\n      0x00\n      add\n      sstore\n      0x20\n      dup3\n      add\n      mload\n      dup2\n      0x01\n      add\n      swap1\n      dup2\n      tag_97\n      swap2\n      swap1\n      tag_68\n      jump\t// in\n    tag_97:\n      pop\n      swap1\n      pop\n      pop\n        /* \"contracts/struct.sol\":835:936  function setU2(uint _number, string memory _name) public {... */\n      pop\n      pop\n      jump\t// out\n        /* \"contracts/struct.sol\":317:386  function getA() public view returns(uint) {... */\n    tag_56:\n        /* \"contracts/struct.sol\":353:357  uint */\n      0x00\n        /* \"contracts/struct.sol\":377:378  a */\n      dup1\n      sload\n        /* \"contracts/struct.sol\":370:378  return a */\n      swap1\n      pop\n        /* \"contracts/struct.sol\":317:386  function getA() public view returns(uint) {... */\n      swap1\n      jump\t// out\n        /* \"contracts/struct.sol\":254:309  function setA(uint _a) public {... */\n    tag_62:\n        /* \"contracts/struct.sol\":299:301  _a */\n      dup1\n        /* \"contracts/struct.sol\":295:296  a */\n      0x00\n        /* \"contracts/struct.sol\":295:301  a = _a */\n      dup2\n      swap1\n      sstore\n      pop\n        /* \"contracts/struct.sol\":254:309  function setA(uint _a) public {... */\n      pop\n      jump\t// out\n        /* \"contracts/struct.sol\":1337:1557  function setS1_3(uint _number, string memory _name, bytes3 _id, bool _b) public {... */\n    tag_65:\n        /* \"contracts/struct.sol\":1433:1549  staff({... */\n      mload(0x40)\n      dup1\n      0x80\n      add\n      0x40\n      mstore\n      dup1\n        /* \"contracts/struct.sol\":1462:1469  _number */\n      dup6\n        /* \"contracts/struct.sol\":1433:1549  staff({... */\n      dup2\n      mstore\n      0x20\n      add\n        /* \"contracts/struct.sol\":1490:1495  _name */\n      dup5\n        /* \"contracts/struct.sol\":1433:1549  staff({... */\n      dup2\n      mstore\n      0x20\n      add\n        /* \"contracts/struct.sol\":1514:1517  _id */\n      dup4\n        /* \"contracts/struct.sol\":1433:1549  staff({... */\n      not(0xffffffffffffffffffffffffffffffffffffffffffffffffffffffffff)\n      and\n      dup2\n      mstore\n      0x20\n      add\n        /* \"contracts/struct.sol\":1535:1537  _b */\n      dup3\n        /* \"contracts/struct.sol\":1433:1549  staff({... */\n      iszero\n      iszero\n      dup2\n      mstore\n      pop\n        /* \"contracts/struct.sol\":1428:1430  s1 */\n      0x08\n        /* \"contracts/struct.sol\":1428:1549  s1 = staff({... */\n      0x00\n      dup3\n      add\n      mload\n      dup2\n      0x00\n      add\n      sstore\n      0x20\n      dup3\n      add\n      mload\n      dup2\n      0x01\n      add\n      swap1\n      dup2\n      tag_101\n      swap2\n      swap1\n      tag_68\n      jump\t// in\n    tag_101:\n      pop\n      0x40\n      dup3\n      add\n      mload\n      dup2\n      0x02\n      add\n      exp(0x0100, 0x00)\n      dup2\n      sload\n      dup2\n      0xffffff\n      mul\n      not\n      and\n      swap1\n      dup4\n      0xe8\n      shr\n      mul\n      or\n      swap1\n      sstore\n      pop\n      0x60\n      dup3\n      add\n      mload\n      dup2\n      0x02\n      add\n      exp(0x0100, 0x03)\n      dup2\n      sload\n      dup2\n      0xff\n      mul\n      not\n      and\n      swap1\n      dup4\n      iszero\n      iszero\n      mul\n      or\n      swap1\n      sstore\n      pop\n      swap1\n      pop\n      pop\n        /* \"contracts/struct.sol\":1337:1557  function setS1_3(uint _number, string memory _name, bytes3 _id, bool _b) public {... */\n      pop\n      pop\n      pop\n      pop\n      jump\t// out\n    tag_87:\n      mload(0x40)\n      dup1\n      0x80\n      add\n      0x40\n      mstore\n      dup1\n      0x00\n      dup2\n      mstore\n      0x20\n      add\n      0x60\n      dup2\n      mstore\n      0x20\n      add\n      and(not(0xffffffffffffffffffffffffffffffffffffffffffffffffffffffffff), 0x00)\n      dup2\n      mstore\n      0x20\n      add\n      iszero(iszero(0x00))\n      dup2\n      mstore\n      pop\n      swap1\n      jump\t// out\n        /* \"#utility.yul\":7:82   */\n    tag_102:\n        /* \"#utility.yul\":40:46   */\n      0x00\n        /* \"#utility.yul\":73:75   */\n      0x40\n        /* \"#utility.yul\":67:76   */\n      mload\n        /* \"#utility.yul\":57:76   */\n      swap1\n      pop\n        /* \"#utility.yul\":7:82   */\n      swap1\n      jump\t// out\n        /* \"#utility.yul\":88:205   */\n    tag_103:\n        /* \"#utility.yul\":197:198   */\n      0x00\n        /* \"#utility.yul\":194:195   */\n      dup1\n        /* \"#utility.yul\":187:199   */\n      revert\n        /* \"#utility.yul\":211:328   */\n    tag_104:\n        /* \"#utility.yul\":320:321   */\n      0x00\n        /* \"#utility.yul\":317:318   */\n      dup1\n        /* \"#utility.yul\":310:322   */\n      revert\n        /* \"#utility.yul\":334:451   */\n    tag_105:\n        /* \"#utility.yul\":443:444   */\n      0x00\n        /* \"#utility.yul\":440:441   */\n      dup1\n        /* \"#utility.yul\":433:445   */\n      revert\n        /* \"#utility.yul\":457:559   */\n    tag_106:\n        /* \"#utility.yul\":498:504   */\n      0x00\n        /* \"#utility.yul\":549:551   */\n      0x1f\n        /* \"#utility.yul\":545:552   */\n      not\n        /* \"#utility.yul\":540:542   */\n      0x1f\n        /* \"#utility.yul\":533:538   */\n      dup4\n        /* \"#utility.yul\":529:543   */\n      add\n        /* \"#utility.yul\":525:553   */\n      and\n        /* \"#utility.yul\":515:553   */\n      swap1\n      pop\n        /* \"#utility.yul\":457:559   */\n      swap2\n      swap1\n      pop\n      jump\t// out\n        /* \"#utility.yul\":565:745   */\n    tag_107:\n        /* \"#utility.yul\":613:690   */\n      0x4e487b7100000000000000000000000000000000000000000000000000000000\n        /* \"#utility.yul\":610:611   */\n      0x00\n        /* \"#utility.yul\":603:691   */\n      mstore\n        /* \"#utility.yul\":710:714   */\n      0x41\n        /* \"#utility.yul\":707:708   */\n      0x04\n        /* \"#utility.yul\":700:715   */\n      mstore\n        /* \"#utility.yul\":734:738   */\n      0x24\n        /* \"#utility.yul\":731:732   */\n      0x00\n        /* \"#utility.yul\":724:739   */\n      revert\n        /* \"#utility.yul\":751:1032   */\n    tag_108:\n        /* \"#utility.yul\":834:861   */\n      tag_164\n        /* \"#utility.yul\":856:860   */\n      dup3\n        /* \"#utility.yul\":834:861   */\n      tag_106\n      jump\t// in\n    tag_164:\n        /* \"#utility.yul\":826:832   */\n      dup2\n        /* \"#utility.yul\":822:862   */\n      add\n        /* \"#utility.yul\":964:970   */\n      dup2\n        /* \"#utility.yul\":952:962   */\n      dup2\n        /* \"#utility.yul\":949:971   */\n      lt\n        /* \"#utility.yul\":928:946   */\n      0xffffffffffffffff\n        /* \"#utility.yul\":916:926   */\n      dup3\n        /* \"#utility.yul\":913:947   */\n      gt\n        /* \"#utility.yul\":910:972   */\n      or\n        /* \"#utility.yul\":907:995   */\n      iszero\n      tag_165\n      jumpi\n        /* \"#utility.yul\":975:993   */\n      tag_166\n      tag_107\n      jump\t// in\n    tag_166:\n        /* \"#utility.yul\":907:995   */\n    tag_165:\n        /* \"#utility.yul\":1015:1025   */\n      dup1\n        /* \"#utility.yul\":1011:1013   */\n      0x40\n        /* \"#utility.yul\":1004:1026   */\n      mstore\n        /* \"#utility.yul\":794:1032   */\n      pop\n        /* \"#utility.yul\":751:1032   */\n      pop\n      pop\n      jump\t// out\n        /* \"#utility.yul\":1038:1167   */\n    tag_109:\n        /* \"#utility.yul\":1072:1078   */\n      0x00\n        /* \"#utility.yul\":1099:1119   */\n      tag_168\n      tag_102\n      jump\t// in\n    tag_168:\n        /* \"#utility.yul\":1089:1119   */\n      swap1\n      pop\n        /* \"#utility.yul\":1128:1161   */\n      tag_169\n        /* \"#utility.yul\":1156:1160   */\n      dup3\n        /* \"#utility.yul\":1148:1154   */\n      dup3\n        /* \"#utility.yul\":1128:1161   */\n      tag_108\n      jump\t// in\n    tag_169:\n        /* \"#utility.yul\":1038:1167   */\n      swap2\n      swap1\n      pop\n      jump\t// out\n        /* \"#utility.yul\":1173:1290   */\n    tag_110:\n        /* \"#utility.yul\":1282:1283   */\n      0x00\n        /* \"#utility.yul\":1279:1280   */\n      dup1\n        /* \"#utility.yul\":1272:1284   */\n      revert\n        /* \"#utility.yul\":1296:1373   */\n    tag_111:\n        /* \"#utility.yul\":1333:1340   */\n      0x00\n        /* \"#utility.yul\":1362:1367   */\n      dup2\n        /* \"#utility.yul\":1351:1367   */\n      swap1\n      pop\n        /* \"#utility.yul\":1296:1373   */\n      swap2\n      swap1\n      pop\n      jump\t// out\n        /* \"#utility.yul\":1379:1501   */\n    tag_112:\n        /* \"#utility.yul\":1452:1476   */\n      tag_173\n        /* \"#utility.yul\":1470:1475   */\n      dup2\n        /* \"#utility.yul\":1452:1476   */\n      tag_111\n      jump\t// in\n    tag_173:\n        /* \"#utility.yul\":1445:1450   */\n      dup2\n        /* \"#utility.yul\":1442:1477   */\n      eq\n        /* \"#utility.yul\":1432:1495   */\n      tag_174\n      jumpi\n        /* \"#utility.yul\":1491:1492   */\n      0x00\n        /* \"#utility.yul\":1488:1489   */\n      dup1\n        /* \"#utility.yul\":1481:1493   */\n      revert\n        /* \"#utility.yul\":1432:1495   */\n    tag_174:\n        /* \"#utility.yul\":1379:1501   */\n      pop\n      jump\t// out\n        /* \"#utility.yul\":1507:1646   */\n    tag_113:\n        /* \"#utility.yul\":1553:1558   */\n      0x00\n        /* \"#utility.yul\":1591:1597   */\n      dup2\n        /* \"#utility.yul\":1578:1598   */\n      calldataload\n        /* \"#utility.yul\":1569:1598   */\n      swap1\n      pop\n        /* \"#utility.yul\":1607:1640   */\n      tag_176\n        /* \"#utility.yul\":1634:1639   */\n      dup2\n        /* \"#utility.yul\":1607:1640   */\n      tag_112\n      jump\t// in\n    tag_176:\n        /* \"#utility.yul\":1507:1646   */\n      swap3\n      swap2\n      pop\n      pop\n      jump\t// out\n        /* \"#utility.yul\":1652:1769   */\n    tag_114:\n        /* \"#utility.yul\":1761:1762   */\n      0x00\n        /* \"#utility.yul\":1758:1759   */\n      dup1\n        /* \"#utility.yul\":1751:1763   */\n      revert\n        /* \"#utility.yul\":1775:1892   */\n    tag_115:\n        /* \"#utility.yul\":1884:1885   */\n      0x00\n        /* \"#utility.yul\":1881:1882   */\n      dup1\n        /* \"#utility.yul\":1874:1886   */\n      revert\n        /* \"#utility.yul\":1898:2206   */\n    tag_116:\n        /* \"#utility.yul\":1960:1964   */\n      0x00\n        /* \"#utility.yul\":2050:2068   */\n      0xffffffffffffffff\n        /* \"#utility.yul\":2042:2048   */\n      dup3\n        /* \"#utility.yul\":2039:2069   */\n      gt\n        /* \"#utility.yul\":2036:2092   */\n      iszero\n      tag_180\n      jumpi\n        /* \"#utility.yul\":2072:2090   */\n      tag_181\n      tag_107\n      jump\t// in\n    tag_181:\n        /* \"#utility.yul\":2036:2092   */\n    tag_180:\n        /* \"#utility.yul\":2110:2139   */\n      tag_182\n        /* \"#utility.yul\":2132:2138   */\n      dup3\n        /* \"#utility.yul\":2110:2139   */\n      tag_106\n      jump\t// in\n    tag_182:\n        /* \"#utility.yul\":2102:2139   */\n      swap1\n      pop\n        /* \"#utility.yul\":2194:2198   */\n      0x20\n        /* \"#utility.yul\":2188:2192   */\n      dup2\n        /* \"#utility.yul\":2184:2199   */\n      add\n        /* \"#utility.yul\":2176:2199   */\n      swap1\n      pop\n        /* \"#utility.yul\":1898:2206   */\n      swap2\n      swap1\n      pop\n      jump\t// out\n        /* \"#utility.yul\":2212:2360   */\n    tag_117:\n        /* \"#utility.yul\":2310:2316   */\n      dup3\n        /* \"#utility.yul\":2305:2308   */\n      dup2\n        /* \"#utility.yul\":2300:2303   */\n      dup4\n        /* \"#utility.yul\":2287:2317   */\n      calldatacopy\n        /* \"#utility.yul\":2351:2352   */\n      0x00\n        /* \"#utility.yul\":2342:2348   */\n      dup4\n        /* \"#utility.yul\":2337:2340   */\n      dup4\n        /* \"#utility.yul\":2333:2349   */\n      add\n        /* \"#utility.yul\":2326:2353   */\n      mstore\n        /* \"#utility.yul\":2212:2360   */\n      pop\n      pop\n      pop\n      jump\t// out\n        /* \"#utility.yul\":2366:2791   */\n    tag_118:\n        /* \"#utility.yul\":2444:2449   */\n      0x00\n        /* \"#utility.yul\":2469:2535   */\n      tag_185\n        /* \"#utility.yul\":2485:2534   */\n      tag_186\n        /* \"#utility.yul\":2527:2533   */\n      dup5\n        /* \"#utility.yul\":2485:2534   */\n      tag_116\n      jump\t// in\n    tag_186:\n        /* \"#utility.yul\":2469:2535   */\n      tag_109\n      jump\t// in\n    tag_185:\n        /* \"#utility.yul\":2460:2535   */\n      swap1\n      pop\n        /* \"#utility.yul\":2558:2564   */\n      dup3\n        /* \"#utility.yul\":2551:2556   */\n      dup2\n        /* \"#utility.yul\":2544:2565   */\n      mstore\n        /* \"#utility.yul\":2596:2600   */\n      0x20\n        /* \"#utility.yul\":2589:2594   */\n      dup2\n        /* \"#utility.yul\":2585:2601   */\n      add\n        /* \"#utility.yul\":2634:2637   */\n      dup5\n        /* \"#utility.yul\":2625:2631   */\n      dup5\n        /* \"#utility.yul\":2620:2623   */\n      dup5\n        /* \"#utility.yul\":2616:2632   */\n      add\n        /* \"#utility.yul\":2613:2638   */\n      gt\n        /* \"#utility.yul\":2610:2722   */\n      iszero\n      tag_187\n      jumpi\n        /* \"#utility.yul\":2641:2720   */\n      tag_188\n      tag_115\n      jump\t// in\n    tag_188:\n        /* \"#utility.yul\":2610:2722   */\n    tag_187:\n        /* \"#utility.yul\":2731:2785   */\n      tag_189\n        /* \"#utility.yul\":2778:2784   */\n      dup5\n        /* \"#utility.yul\":2773:2776   */\n      dup3\n        /* \"#utility.yul\":2768:2771   */\n      dup6\n        /* \"#utility.yul\":2731:2785   */\n      tag_117\n      jump\t// in\n    tag_189:\n        /* \"#utility.yul\":2450:2791   */\n      pop\n        /* \"#utility.yul\":2366:2791   */\n      swap4\n      swap3\n      pop\n      pop\n      pop\n      jump\t// out\n        /* \"#utility.yul\":2811:3151   */\n    tag_119:\n        /* \"#utility.yul\":2867:2872   */\n      0x00\n        /* \"#utility.yul\":2916:2919   */\n      dup3\n        /* \"#utility.yul\":2909:2913   */\n      0x1f\n        /* \"#utility.yul\":2901:2907   */\n      dup4\n        /* \"#utility.yul\":2897:2914   */\n      add\n        /* \"#utility.yul\":2893:2920   */\n      slt\n        /* \"#utility.yul\":2883:3005   */\n      tag_191\n      jumpi\n        /* \"#utility.yul\":2924:3003   */\n      tag_192\n      tag_114\n      jump\t// in\n    tag_192:\n        /* \"#utility.yul\":2883:3005   */\n    tag_191:\n        /* \"#utility.yul\":3041:3047   */\n      dup2\n        /* \"#utility.yul\":3028:3048   */\n      calldataload\n        /* \"#utility.yul\":3066:3145   */\n      tag_193\n        /* \"#utility.yul\":3141:3144   */\n      dup5\n        /* \"#utility.yul\":3133:3139   */\n      dup3\n        /* \"#utility.yul\":3126:3130   */\n      0x20\n        /* \"#utility.yul\":3118:3124   */\n      dup7\n        /* \"#utility.yul\":3114:3131   */\n      add\n        /* \"#utility.yul\":3066:3145   */\n      tag_118\n      jump\t// in\n    tag_193:\n        /* \"#utility.yul\":3057:3145   */\n      swap2\n      pop\n        /* \"#utility.yul\":2873:3151   */\n      pop\n        /* \"#utility.yul\":2811:3151   */\n      swap3\n      swap2\n      pop\n      pop\n      jump\t// out\n        /* \"#utility.yul\":3183:3924   */\n    tag_120:\n        /* \"#utility.yul\":3252:3257   */\n      0x00\n        /* \"#utility.yul\":3296:3300   */\n      0x40\n        /* \"#utility.yul\":3284:3293   */\n      dup3\n        /* \"#utility.yul\":3279:3282   */\n      dup5\n        /* \"#utility.yul\":3275:3294   */\n      sub\n        /* \"#utility.yul\":3271:3301   */\n      slt\n        /* \"#utility.yul\":3268:3385   */\n      iszero\n      tag_195\n      jumpi\n        /* \"#utility.yul\":3304:3383   */\n      tag_196\n      tag_105\n      jump\t// in\n    tag_196:\n        /* \"#utility.yul\":3268:3385   */\n    tag_195:\n        /* \"#utility.yul\":3403:3424   */\n      tag_197\n        /* \"#utility.yul\":3419:3423   */\n      0x40\n        /* \"#utility.yul\":3403:3424   */\n      tag_109\n      jump\t// in\n    tag_197:\n        /* \"#utility.yul\":3394:3424   */\n      swap1\n      pop\n        /* \"#utility.yul\":3485:3486   */\n      0x00\n        /* \"#utility.yul\":3525:3574   */\n      tag_198\n        /* \"#utility.yul\":3570:3573   */\n      dup5\n        /* \"#utility.yul\":3561:3567   */\n      dup3\n        /* \"#utility.yul\":3550:3559   */\n      dup6\n        /* \"#utility.yul\":3546:3568   */\n      add\n        /* \"#utility.yul\":3525:3574   */\n      tag_113\n      jump\t// in\n    tag_198:\n        /* \"#utility.yul\":3518:3522   */\n      0x00\n        /* \"#utility.yul\":3511:3516   */\n      dup4\n        /* \"#utility.yul\":3507:3523   */\n      add\n        /* \"#utility.yul\":3500:3575   */\n      mstore\n        /* \"#utility.yul\":3434:3586   */\n      pop\n        /* \"#utility.yul\":3673:3675   */\n      0x20\n        /* \"#utility.yul\":3662:3671   */\n      dup3\n        /* \"#utility.yul\":3658:3676   */\n      add\n        /* \"#utility.yul\":3645:3677   */\n      calldataload\n        /* \"#utility.yul\":3704:3722   */\n      0xffffffffffffffff\n        /* \"#utility.yul\":3696:3702   */\n      dup2\n        /* \"#utility.yul\":3693:3723   */\n      gt\n        /* \"#utility.yul\":3690:3807   */\n      iszero\n      tag_199\n      jumpi\n        /* \"#utility.yul\":3726:3805   */\n      tag_200\n      tag_110\n      jump\t// in\n    tag_200:\n        /* \"#utility.yul\":3690:3807   */\n    tag_199:\n        /* \"#utility.yul\":3846:3905   */\n      tag_201\n        /* \"#utility.yul\":3901:3904   */\n      dup5\n        /* \"#utility.yul\":3892:3898   */\n      dup3\n        /* \"#utility.yul\":3881:3890   */\n      dup6\n        /* \"#utility.yul\":3877:3899   */\n      add\n        /* \"#utility.yul\":3846:3905   */\n      tag_119\n      jump\t// in\n    tag_201:\n        /* \"#utility.yul\":3839:3843   */\n      0x20\n        /* \"#utility.yul\":3832:3837   */\n      dup4\n        /* \"#utility.yul\":3828:3844   */\n      add\n        /* \"#utility.yul\":3821:3906   */\n      mstore\n        /* \"#utility.yul\":3596:3917   */\n      pop\n        /* \"#utility.yul\":3183:3924   */\n      swap3\n      swap2\n      pop\n      pop\n      jump\t// out\n        /* \"#utility.yul\":3930:4459   */\n    tag_20:\n        /* \"#utility.yul\":4009:4015   */\n      0x00\n        /* \"#utility.yul\":4058:4060   */\n      0x20\n        /* \"#utility.yul\":4046:4055   */\n      dup3\n        /* \"#utility.yul\":4037:4044   */\n      dup5\n        /* \"#utility.yul\":4033:4056   */\n      sub\n        /* \"#utility.yul\":4029:4061   */\n      slt\n        /* \"#utility.yul\":4026:4145   */\n      iszero\n      tag_203\n      jumpi\n        /* \"#utility.yul\":4064:4143   */\n      tag_204\n      tag_103\n      jump\t// in\n    tag_204:\n        /* \"#utility.yul\":4026:4145   */\n    tag_203:\n        /* \"#utility.yul\":4212:4213   */\n      0x00\n        /* \"#utility.yul\":4201:4210   */\n      dup3\n        /* \"#utility.yul\":4197:4214   */\n      add\n        /* \"#utility.yul\":4184:4215   */\n      calldataload\n        /* \"#utility.yul\":4242:4260   */\n      0xffffffffffffffff\n        /* \"#utility.yul\":4234:4240   */\n      dup2\n        /* \"#utility.yul\":4231:4261   */\n      gt\n        /* \"#utility.yul\":4228:4345   */\n      iszero\n      tag_205\n      jumpi\n        /* \"#utility.yul\":4264:4343   */\n      tag_206\n      tag_104\n      jump\t// in\n    tag_206:\n        /* \"#utility.yul\":4228:4345   */\n    tag_205:\n        /* \"#utility.yul\":4369:4442   */\n      tag_207\n        /* \"#utility.yul\":4434:4441   */\n      dup5\n        /* \"#utility.yul\":4425:4431   */\n      dup3\n        /* \"#utility.yul\":4414:4423   */\n      dup6\n        /* \"#utility.yul\":4410:4432   */\n      add\n        /* \"#utility.yul\":4369:4442   */\n      tag_120\n      jump\t// in\n    tag_207:\n        /* \"#utility.yul\":4359:4442   */\n      swap2\n      pop\n        /* \"#utility.yul\":4155:4452   */\n      pop\n        /* \"#utility.yul\":3930:4459   */\n      swap3\n      swap2\n      pop\n      pop\n      jump\t// out\n        /* \"#utility.yul\":4465:5119   */\n    tag_24:\n        /* \"#utility.yul\":4543:4549   */\n      0x00\n        /* \"#utility.yul\":4551:4557   */\n      dup1\n        /* \"#utility.yul\":4600:4602   */\n      0x40\n        /* \"#utility.yul\":4588:4597   */\n      dup4\n        /* \"#utility.yul\":4579:4586   */\n      dup6\n        /* \"#utility.yul\":4575:4598   */\n      sub\n        /* \"#utility.yul\":4571:4603   */\n      slt\n        /* \"#utility.yul\":4568:4687   */\n      iszero\n      tag_209\n      jumpi\n        /* \"#utility.yul\":4606:4685   */\n      tag_210\n      tag_103\n      jump\t// in\n    tag_210:\n        /* \"#utility.yul\":4568:4687   */\n    tag_209:\n        /* \"#utility.yul\":4726:4727   */\n      0x00\n        /* \"#utility.yul\":4751:4804   */\n      tag_211\n        /* \"#utility.yul\":4796:4803   */\n      dup6\n        /* \"#utility.yul\":4787:4793   */\n      dup3\n        /* \"#utility.yul\":4776:4785   */\n      dup7\n        /* \"#utility.yul\":4772:4794   */\n      add\n        /* \"#utility.yul\":4751:4804   */\n      tag_113\n      jump\t// in\n    tag_211:\n        /* \"#utility.yul\":4741:4804   */\n      swap3\n      pop\n        /* \"#utility.yul\":4697:4814   */\n      pop\n        /* \"#utility.yul\":4881:4883   */\n      0x20\n        /* \"#utility.yul\":4870:4879   */\n      dup4\n        /* \"#utility.yul\":4866:4884   */\n      add\n        /* \"#utility.yul\":4853:4885   */\n      calldataload\n        /* \"#utility.yul\":4912:4930   */\n      0xffffffffffffffff\n        /* \"#utility.yul\":4904:4910   */\n      dup2\n        /* \"#utility.yul\":4901:4931   */\n      gt\n        /* \"#utility.yul\":4898:5015   */\n      iszero\n      tag_212\n      jumpi\n        /* \"#utility.yul\":4934:5013   */\n      tag_213\n      tag_104\n      jump\t// in\n    tag_213:\n        /* \"#utility.yul\":4898:5015   */\n    tag_212:\n        /* \"#utility.yul\":5039:5102   */\n      tag_214\n        /* \"#utility.yul\":5094:5101   */\n      dup6\n        /* \"#utility.yul\":5085:5091   */\n      dup3\n        /* \"#utility.yul\":5074:5083   */\n      dup7\n        /* \"#utility.yul\":5070:5092   */\n      add\n        /* \"#utility.yul\":5039:5102   */\n      tag_119\n      jump\t// in\n    tag_214:\n        /* \"#utility.yul\":5029:5102   */\n      swap2\n      pop\n        /* \"#utility.yul\":4824:5112   */\n      pop\n        /* \"#utility.yul\":4465:5119   */\n      swap3\n      pop\n      swap3\n      swap1\n      pop\n      jump\t// out\n        /* \"#utility.yul\":5125:5224   */\n    tag_121:\n        /* \"#utility.yul\":5177:5183   */\n      0x00\n        /* \"#utility.yul\":5211:5216   */\n      dup2\n        /* \"#utility.yul\":5205:5217   */\n      mload\n        /* \"#utility.yul\":5195:5217   */\n      swap1\n      pop\n        /* \"#utility.yul\":5125:5224   */\n      swap2\n      swap1\n      pop\n      jump\t// out\n        /* \"#utility.yul\":5230:5399   */\n    tag_122:\n        /* \"#utility.yul\":5314:5325   */\n      0x00\n        /* \"#utility.yul\":5348:5354   */\n      dup3\n        /* \"#utility.yul\":5343:5346   */\n      dup3\n        /* \"#utility.yul\":5336:5355   */\n      mstore\n        /* \"#utility.yul\":5388:5392   */\n      0x20\n        /* \"#utility.yul\":5383:5386   */\n      dup3\n        /* \"#utility.yul\":5379:5393   */\n      add\n        /* \"#utility.yul\":5364:5393   */\n      swap1\n      pop\n        /* \"#utility.yul\":5230:5399   */\n      swap3\n      swap2\n      pop\n      pop\n      jump\t// out\n        /* \"#utility.yul\":5405:5544   */\n    tag_123:\n        /* \"#utility.yul\":5494:5500   */\n      dup3\n        /* \"#utility.yul\":5489:5492   */\n      dup2\n        /* \"#utility.yul\":5484:5487   */\n      dup4\n        /* \"#utility.yul\":5478:5501   */\n      mcopy\n        /* \"#utility.yul\":5535:5536   */\n      0x00\n        /* \"#utility.yul\":5526:5532   */\n      dup4\n        /* \"#utility.yul\":5521:5524   */\n      dup4\n        /* \"#utility.yul\":5517:5533   */\n      add\n        /* \"#utility.yul\":5510:5537   */\n      mstore\n        /* \"#utility.yul\":5405:5544   */\n      pop\n      pop\n      pop\n      jump\t// out\n        /* \"#utility.yul\":5550:5927   */\n    tag_124:\n        /* \"#utility.yul\":5638:5641   */\n      0x00\n        /* \"#utility.yul\":5666:5705   */\n      tag_219\n        /* \"#utility.yul\":5699:5704   */\n      dup3\n        /* \"#utility.yul\":5666:5705   */\n      tag_121\n      jump\t// in\n    tag_219:\n        /* \"#utility.yul\":5721:5792   */\n      tag_220\n        /* \"#utility.yul\":5785:5791   */\n      dup2\n        /* \"#utility.yul\":5780:5783   */\n      dup6\n        /* \"#utility.yul\":5721:5792   */\n      tag_122\n      jump\t// in\n    tag_220:\n        /* \"#utility.yul\":5714:5792   */\n      swap4\n      pop\n        /* \"#utility.yul\":5801:5866   */\n      tag_221\n        /* \"#utility.yul\":5859:5865   */\n      dup2\n        /* \"#utility.yul\":5854:5857   */\n      dup6\n        /* \"#utility.yul\":5847:5851   */\n      0x20\n        /* \"#utility.yul\":5840:5845   */\n      dup7\n        /* \"#utility.yul\":5836:5852   */\n      add\n        /* \"#utility.yul\":5801:5866   */\n      tag_123\n      jump\t// in\n    tag_221:\n        /* \"#utility.yul\":5891:5920   */\n      tag_222\n        /* \"#utility.yul\":5913:5919   */\n      dup2\n        /* \"#utility.yul\":5891:5920   */\n      tag_106\n      jump\t// in\n    tag_222:\n        /* \"#utility.yul\":5886:5889   */\n      dup5\n        /* \"#utility.yul\":5882:5921   */\n      add\n        /* \"#utility.yul\":5875:5921   */\n      swap2\n      pop\n        /* \"#utility.yul\":5642:5927   */\n      pop\n        /* \"#utility.yul\":5550:5927   */\n      swap3\n      swap2\n      pop\n      pop\n      jump\t// out\n        /* \"#utility.yul\":5933:6082   */\n    tag_125:\n        /* \"#utility.yul\":5969:5976   */\n      0x00\n        /* \"#utility.yul\":6009:6075   */\n      0xffffff0000000000000000000000000000000000000000000000000000000000\n        /* \"#utility.yul\":6002:6007   */\n      dup3\n        /* \"#utility.yul\":5998:6076   */\n      and\n        /* \"#utility.yul\":5987:6076   */\n      swap1\n      pop\n        /* \"#utility.yul\":5933:6082   */\n      swap2\n      swap1\n      pop\n      jump\t// out\n        /* \"#utility.yul\":6088:6203   */\n    tag_126:\n        /* \"#utility.yul\":6173:6196   */\n      tag_225\n        /* \"#utility.yul\":6190:6195   */\n      dup2\n        /* \"#utility.yul\":6173:6196   */\n      tag_125\n      jump\t// in\n    tag_225:\n        /* \"#utility.yul\":6168:6171   */\n      dup3\n        /* \"#utility.yul\":6161:6197   */\n      mstore\n        /* \"#utility.yul\":6088:6203   */\n      pop\n      pop\n      jump\t// out\n        /* \"#utility.yul\":6209:6628   */\n    tag_29:\n        /* \"#utility.yul\":6348:6352   */\n      0x00\n        /* \"#utility.yul\":6386:6388   */\n      0x40\n        /* \"#utility.yul\":6375:6384   */\n      dup3\n        /* \"#utility.yul\":6371:6389   */\n      add\n        /* \"#utility.yul\":6363:6389   */\n      swap1\n      pop\n        /* \"#utility.yul\":6435:6444   */\n      dup2\n        /* \"#utility.yul\":6429:6433   */\n      dup2\n        /* \"#utility.yul\":6425:6445   */\n      sub\n        /* \"#utility.yul\":6421:6422   */\n      0x00\n        /* \"#utility.yul\":6410:6419   */\n      dup4\n        /* \"#utility.yul\":6406:6423   */\n      add\n        /* \"#utility.yul\":6399:6446   */\n      mstore\n        /* \"#utility.yul\":6463:6541   */\n      tag_227\n        /* \"#utility.yul\":6536:6540   */\n      dup2\n        /* \"#utility.yul\":6527:6533   */\n      dup6\n        /* \"#utility.yul\":6463:6541   */\n      tag_124\n      jump\t// in\n    tag_227:\n        /* \"#utility.yul\":6455:6541   */\n      swap1\n      pop\n        /* \"#utility.yul\":6551:6621   */\n      tag_228\n        /* \"#utility.yul\":6617:6619   */\n      0x20\n        /* \"#utility.yul\":6606:6615   */\n      dup4\n        /* \"#utility.yul\":6602:6620   */\n      add\n        /* \"#utility.yul\":6593:6599   */\n      dup5\n        /* \"#utility.yul\":6551:6621   */\n      tag_126\n      jump\t// in\n    tag_228:\n        /* \"#utility.yul\":6209:6628   */\n      swap4\n      swap3\n      pop\n      pop\n      pop\n      jump\t// out\n        /* \"#utility.yul\":6634:6754   */\n    tag_127:\n        /* \"#utility.yul\":6706:6729   */\n      tag_230\n        /* \"#utility.yul\":6723:6728   */\n      dup2\n        /* \"#utility.yul\":6706:6729   */\n      tag_125\n      jump\t// in\n    tag_230:\n        /* \"#utility.yul\":6699:6704   */\n      dup2\n        /* \"#utility.yul\":6696:6730   */\n      eq\n        /* \"#utility.yul\":6686:6748   */\n      tag_231\n      jumpi\n        /* \"#utility.yul\":6744:6745   */\n      0x00\n        /* \"#utility.yul\":6741:6742   */\n      dup1\n        /* \"#utility.yul\":6734:6746   */\n      revert\n        /* \"#utility.yul\":6686:6748   */\n    tag_231:\n        /* \"#utility.yul\":6634:6754   */\n      pop\n      jump\t// out\n        /* \"#utility.yul\":6760:6897   */\n    tag_128:\n        /* \"#utility.yul\":6805:6810   */\n      0x00\n        /* \"#utility.yul\":6843:6849   */\n      dup2\n        /* \"#utility.yul\":6830:6850   */\n      calldataload\n        /* \"#utility.yul\":6821:6850   */\n      swap1\n      pop\n        /* \"#utility.yul\":6859:6891   */\n      tag_233\n        /* \"#utility.yul\":6885:6890   */\n      dup2\n        /* \"#utility.yul\":6859:6891   */\n      tag_127\n      jump\t// in\n    tag_233:\n        /* \"#utility.yul\":6760:6897   */\n      swap3\n      swap2\n      pop\n      pop\n      jump\t// out\n        /* \"#utility.yul\":6903:6993   */\n    tag_129:\n        /* \"#utility.yul\":6937:6944   */\n      0x00\n        /* \"#utility.yul\":6980:6985   */\n      dup2\n        /* \"#utility.yul\":6973:6986   */\n      iszero\n        /* \"#utility.yul\":6966:6987   */\n      iszero\n        /* \"#utility.yul\":6955:6987   */\n      swap1\n      pop\n        /* \"#utility.yul\":6903:6993   */\n      swap2\n      swap1\n      pop\n      jump\t// out\n        /* \"#utility.yul\":6999:7115   */\n    tag_130:\n        /* \"#utility.yul\":7069:7090   */\n      tag_236\n        /* \"#utility.yul\":7084:7089   */\n      dup2\n        /* \"#utility.yul\":7069:7090   */\n      tag_129\n      jump\t// in\n    tag_236:\n        /* \"#utility.yul\":7062:7067   */\n      dup2\n        /* \"#utility.yul\":7059:7091   */\n      eq\n        /* \"#utility.yul\":7049:7109   */\n      tag_237\n      jumpi\n        /* \"#utility.yul\":7105:7106   */\n      0x00\n        /* \"#utility.yul\":7102:7103   */\n      dup1\n        /* \"#utility.yul\":7095:7107   */\n      revert\n        /* \"#utility.yul\":7049:7109   */\n    tag_237:\n        /* \"#utility.yul\":6999:7115   */\n      pop\n      jump\t// out\n        /* \"#utility.yul\":7121:7254   */\n    tag_131:\n        /* \"#utility.yul\":7164:7169   */\n      0x00\n        /* \"#utility.yul\":7202:7208   */\n      dup2\n        /* \"#utility.yul\":7189:7209   */\n      calldataload\n        /* \"#utility.yul\":7180:7209   */\n      swap1\n      pop\n        /* \"#utility.yul\":7218:7248   */\n      tag_239\n        /* \"#utility.yul\":7242:7247   */\n      dup2\n        /* \"#utility.yul\":7218:7248   */\n      tag_130\n      jump\t// in\n    tag_239:\n        /* \"#utility.yul\":7121:7254   */\n      swap3\n      swap2\n      pop\n      pop\n      jump\t// out\n        /* \"#utility.yul\":7260:8197   */\n    tag_32:\n        /* \"#utility.yul\":7352:7358   */\n      0x00\n        /* \"#utility.yul\":7360:7366   */\n      dup1\n        /* \"#utility.yul\":7368:7374   */\n      0x00\n        /* \"#utility.yul\":7376:7382   */\n      dup1\n        /* \"#utility.yul\":7425:7428   */\n      0x80\n        /* \"#utility.yul\":7413:7422   */\n      dup6\n        /* \"#utility.yul\":7404:7411   */\n      dup8\n        /* \"#utility.yul\":7400:7423   */\n      sub\n        /* \"#utility.yul\":7396:7429   */\n      slt\n        /* \"#utility.yul\":7393:7513   */\n      iszero\n      tag_241\n      jumpi\n        /* \"#utility.yul\":7432:7511   */\n      tag_242\n      tag_103\n      jump\t// in\n    tag_242:\n        /* \"#utility.yul\":7393:7513   */\n    tag_241:\n        /* \"#utility.yul\":7552:7553   */\n      0x00\n        /* \"#utility.yul\":7577:7630   */\n      tag_243\n        /* \"#utility.yul\":7622:7629   */\n      dup8\n        /* \"#utility.yul\":7613:7619   */\n      dup3\n        /* \"#utility.yul\":7602:7611   */\n      dup9\n        /* \"#utility.yul\":7598:7620   */\n      add\n        /* \"#utility.yul\":7577:7630   */\n      tag_113\n      jump\t// in\n    tag_243:\n        /* \"#utility.yul\":7567:7630   */\n      swap5\n      pop\n        /* \"#utility.yul\":7523:7640   */\n      pop\n        /* \"#utility.yul\":7707:7709   */\n      0x20\n        /* \"#utility.yul\":7696:7705   */\n      dup6\n        /* \"#utility.yul\":7692:7710   */\n      add\n        /* \"#utility.yul\":7679:7711   */\n      calldataload\n        /* \"#utility.yul\":7738:7756   */\n      0xffffffffffffffff\n        /* \"#utility.yul\":7730:7736   */\n      dup2\n        /* \"#utility.yul\":7727:7757   */\n      gt\n        /* \"#utility.yul\":7724:7841   */\n      iszero\n      tag_244\n      jumpi\n        /* \"#utility.yul\":7760:7839   */\n      tag_245\n      tag_104\n      jump\t// in\n    tag_245:\n        /* \"#utility.yul\":7724:7841   */\n    tag_244:\n        /* \"#utility.yul\":7865:7928   */\n      tag_246\n        /* \"#utility.yul\":7920:7927   */\n      dup8\n        /* \"#utility.yul\":7911:7917   */\n      dup3\n        /* \"#utility.yul\":7900:7909   */\n      dup9\n        /* \"#utility.yul\":7896:7918   */\n      add\n        /* \"#utility.yul\":7865:7928   */\n      tag_119\n      jump\t// in\n    tag_246:\n        /* \"#utility.yul\":7855:7928   */\n      swap4\n      pop\n        /* \"#utility.yul\":7650:7938   */\n      pop\n        /* \"#utility.yul\":7977:7979   */\n      0x40\n        /* \"#utility.yul\":8003:8055   */\n      tag_247\n        /* \"#utility.yul\":8047:8054   */\n      dup8\n        /* \"#utility.yul\":8038:8044   */\n      dup3\n        /* \"#utility.yul\":8027:8036   */\n      dup9\n        /* \"#utility.yul\":8023:8045   */\n      add\n        /* \"#utility.yul\":8003:8055   */\n      tag_128\n      jump\t// in\n    tag_247:\n        /* \"#utility.yul\":7993:8055   */\n      swap3\n      pop\n        /* \"#utility.yul\":7948:8065   */\n      pop\n        /* \"#utility.yul\":8104:8106   */\n      0x60\n        /* \"#utility.yul\":8130:8180   */\n      tag_248\n        /* \"#utility.yul\":8172:8179   */\n      dup8\n        /* \"#utility.yul\":8163:8169   */\n      dup3\n        /* \"#utility.yul\":8152:8161   */\n      dup9\n        /* \"#utility.yul\":8148:8170   */\n      add\n        /* \"#utility.yul\":8130:8180   */\n      tag_131\n      jump\t// in\n    tag_248:\n        /* \"#utility.yul\":8120:8180   */\n      swap2\n      pop\n        /* \"#utility.yul\":8075:8190   */\n      pop\n        /* \"#utility.yul\":7260:8197   */\n      swap3\n      swap6\n      swap2\n      swap5\n      pop\n      swap3\n      pop\n      jump\t// out\n        /* \"#utility.yul\":8230:9286   */\n    tag_132:\n        /* \"#utility.yul\":8301:8306   */\n      0x00\n        /* \"#utility.yul\":8345:8349   */\n      0x80\n        /* \"#utility.yul\":8333:8342   */\n      dup3\n        /* \"#utility.yul\":8328:8331   */\n      dup5\n        /* \"#utility.yul\":8324:8343   */\n      sub\n        /* \"#utility.yul\":8320:8350   */\n      slt\n        /* \"#utility.yul\":8317:8434   */\n      iszero\n      tag_250\n      jumpi\n        /* \"#utility.yul\":8353:8432   */\n      tag_251\n      tag_105\n      jump\t// in\n    tag_251:\n        /* \"#utility.yul\":8317:8434   */\n    tag_250:\n        /* \"#utility.yul\":8452:8473   */\n      tag_252\n        /* \"#utility.yul\":8468:8472   */\n      0x80\n        /* \"#utility.yul\":8452:8473   */\n      tag_109\n      jump\t// in\n    tag_252:\n        /* \"#utility.yul\":8443:8473   */\n      swap1\n      pop\n        /* \"#utility.yul\":8534:8535   */\n      0x00\n        /* \"#utility.yul\":8574:8623   */\n      tag_253\n        /* \"#utility.yul\":8619:8622   */\n      dup5\n        /* \"#utility.yul\":8610:8616   */\n      dup3\n        /* \"#utility.yul\":8599:8608   */\n      dup6\n        /* \"#utility.yul\":8595:8617   */\n      add\n        /* \"#utility.yul\":8574:8623   */\n      tag_113\n      jump\t// in\n    tag_253:\n        /* \"#utility.yul\":8567:8571   */\n      0x00\n        /* \"#utility.yul\":8560:8565   */\n      dup4\n        /* \"#utility.yul\":8556:8572   */\n      add\n        /* \"#utility.yul\":8549:8624   */\n      mstore\n        /* \"#utility.yul\":8483:8635   */\n      pop\n        /* \"#utility.yul\":8722:8724   */\n      0x20\n        /* \"#utility.yul\":8711:8720   */\n      dup3\n        /* \"#utility.yul\":8707:8725   */\n      add\n        /* \"#utility.yul\":8694:8726   */\n      calldataload\n        /* \"#utility.yul\":8753:8771   */\n      0xffffffffffffffff\n        /* \"#utility.yul\":8745:8751   */\n      dup2\n        /* \"#utility.yul\":8742:8772   */\n      gt\n        /* \"#utility.yul\":8739:8856   */\n      iszero\n      tag_254\n      jumpi\n        /* \"#utility.yul\":8775:8854   */\n      tag_255\n      tag_110\n      jump\t// in\n    tag_255:\n        /* \"#utility.yul\":8739:8856   */\n    tag_254:\n        /* \"#utility.yul\":8895:8954   */\n      tag_256\n        /* \"#utility.yul\":8950:8953   */\n      dup5\n        /* \"#utility.yul\":8941:8947   */\n      dup3\n        /* \"#utility.yul\":8930:8939   */\n      dup6\n        /* \"#utility.yul\":8926:8948   */\n      add\n        /* \"#utility.yul\":8895:8954   */\n      tag_119\n      jump\t// in\n    tag_256:\n        /* \"#utility.yul\":8888:8892   */\n      0x20\n        /* \"#utility.yul\":8881:8886   */\n      dup4\n        /* \"#utility.yul\":8877:8893   */\n      add\n        /* \"#utility.yul\":8870:8955   */\n      mstore\n        /* \"#utility.yul\":8645:8966   */\n      pop\n        /* \"#utility.yul\":9023:9025   */\n      0x40\n        /* \"#utility.yul\":9064:9112   */\n      tag_257\n        /* \"#utility.yul\":9108:9111   */\n      dup5\n        /* \"#utility.yul\":9099:9105   */\n      dup3\n        /* \"#utility.yul\":9088:9097   */\n      dup6\n        /* \"#utility.yul\":9084:9106   */\n      add\n        /* \"#utility.yul\":9064:9112   */\n      tag_128\n      jump\t// in\n    tag_257:\n        /* \"#utility.yul\":9057:9061   */\n      0x40\n        /* \"#utility.yul\":9050:9055   */\n      dup4\n        /* \"#utility.yul\":9046:9062   */\n      add\n        /* \"#utility.yul\":9039:9113   */\n      mstore\n        /* \"#utility.yul\":8976:9124   */\n      pop\n        /* \"#utility.yul\":9180:9182   */\n      0x60\n        /* \"#utility.yul\":9221:9267   */\n      tag_258\n        /* \"#utility.yul\":9263:9266   */\n      dup5\n        /* \"#utility.yul\":9254:9260   */\n      dup3\n        /* \"#utility.yul\":9243:9252   */\n      dup6\n        /* \"#utility.yul\":9239:9261   */\n      add\n        /* \"#utility.yul\":9221:9267   */\n      tag_131\n      jump\t// in\n    tag_258:\n        /* \"#utility.yul\":9214:9218   */\n      0x60\n        /* \"#utility.yul\":9207:9212   */\n      dup4\n        /* \"#utility.yul\":9203:9219   */\n      add\n        /* \"#utility.yul\":9196:9268   */\n      mstore\n        /* \"#utility.yul\":9134:9279   */\n      pop\n        /* \"#utility.yul\":8230:9286   */\n      swap3\n      swap2\n      pop\n      pop\n      jump\t// out\n        /* \"#utility.yul\":9292:9825   */\n    tag_36:\n        /* \"#utility.yul\":9373:9379   */\n      0x00\n        /* \"#utility.yul\":9422:9424   */\n      0x20\n        /* \"#utility.yul\":9410:9419   */\n      dup3\n        /* \"#utility.yul\":9401:9408   */\n      dup5\n        /* \"#utility.yul\":9397:9420   */\n      sub\n        /* \"#utility.yul\":9393:9425   */\n      slt\n        /* \"#utility.yul\":9390:9509   */\n      iszero\n      tag_260\n      jumpi\n        /* \"#utility.yul\":9428:9507   */\n      tag_261\n      tag_103\n      jump\t// in\n    tag_261:\n        /* \"#utility.yul\":9390:9509   */\n    tag_260:\n        /* \"#utility.yul\":9576:9577   */\n      0x00\n        /* \"#utility.yul\":9565:9574   */\n      dup3\n        /* \"#utility.yul\":9561:9578   */\n      add\n        /* \"#utility.yul\":9548:9579   */\n      calldataload\n        /* \"#utility.yul\":9606:9624   */\n      0xffffffffffffffff\n        /* \"#utility.yul\":9598:9604   */\n      dup2\n        /* \"#utility.yul\":9595:9625   */\n      gt\n        /* \"#utility.yul\":9592:9709   */\n      iszero\n      tag_262\n      jumpi\n        /* \"#utility.yul\":9628:9707   */\n      tag_263\n      tag_104\n      jump\t// in\n    tag_263:\n        /* \"#utility.yul\":9592:9709   */\n    tag_262:\n        /* \"#utility.yul\":9733:9808   */\n      tag_264\n        /* \"#utility.yul\":9800:9807   */\n      dup5\n        /* \"#utility.yul\":9791:9797   */\n      dup3\n        /* \"#utility.yul\":9780:9789   */\n      dup6\n        /* \"#utility.yul\":9776:9798   */\n      add\n        /* \"#utility.yul\":9733:9808   */\n      tag_132\n      jump\t// in\n    tag_264:\n        /* \"#utility.yul\":9723:9808   */\n      swap2\n      pop\n        /* \"#utility.yul\":9519:9818   */\n      pop\n        /* \"#utility.yul\":9292:9825   */\n      swap3\n      swap2\n      pop\n      pop\n      jump\t// out\n        /* \"#utility.yul\":9831:10340   */\n    tag_40:\n        /* \"#utility.yul\":9900:9906   */\n      0x00\n        /* \"#utility.yul\":9949:9951   */\n      0x20\n        /* \"#utility.yul\":9937:9946   */\n      dup3\n        /* \"#utility.yul\":9928:9935   */\n      dup5\n        /* \"#utility.yul\":9924:9947   */\n      sub\n        /* \"#utility.yul\":9920:9952   */\n      slt\n        /* \"#utility.yul\":9917:10036   */\n      iszero\n      tag_266\n      jumpi\n        /* \"#utility.yul\":9955:10034   */\n      tag_267\n      tag_103\n      jump\t// in\n    tag_267:\n        /* \"#utility.yul\":9917:10036   */\n    tag_266:\n        /* \"#utility.yul\":10103:10104   */\n      0x00\n        /* \"#utility.yul\":10092:10101   */\n      dup3\n        /* \"#utility.yul\":10088:10105   */\n      add\n        /* \"#utility.yul\":10075:10106   */\n      calldataload\n        /* \"#utility.yul\":10133:10151   */\n      0xffffffffffffffff\n        /* \"#utility.yul\":10125:10131   */\n      dup2\n        /* \"#utility.yul\":10122:10152   */\n      gt\n        /* \"#utility.yul\":10119:10236   */\n      iszero\n      tag_268\n      jumpi\n        /* \"#utility.yul\":10155:10234   */\n      tag_269\n      tag_104\n      jump\t// in\n    tag_269:\n        /* \"#utility.yul\":10119:10236   */\n    tag_268:\n        /* \"#utility.yul\":10260:10323   */\n      tag_270\n        /* \"#utility.yul\":10315:10322   */\n      dup5\n        /* \"#utility.yul\":10306:10312   */\n      dup3\n        /* \"#utility.yul\":10295:10304   */\n      dup6\n        /* \"#utility.yul\":10291:10313   */\n      add\n        /* \"#utility.yul\":10260:10323   */\n      tag_119\n      jump\t// in\n    tag_270:\n        /* \"#utility.yul\":10250:10323   */\n      swap2\n      pop\n        /* \"#utility.yul\":10046:10333   */\n      pop\n        /* \"#utility.yul\":9831:10340   */\n      swap3\n      swap2\n      pop\n      pop\n      jump\t// out\n        /* \"#utility.yul\":10346:10454   */\n    tag_133:\n        /* \"#utility.yul\":10423:10447   */\n      tag_272\n        /* \"#utility.yul\":10441:10446   */\n      dup2\n        /* \"#utility.yul\":10423:10447   */\n      tag_111\n      jump\t// in\n    tag_272:\n        /* \"#utility.yul\":10418:10421   */\n      dup3\n        /* \"#utility.yul\":10411:10448   */\n      mstore\n        /* \"#utility.yul\":10346:10454   */\n      pop\n      pop\n      jump\t// out\n        /* \"#utility.yul\":10460:10619   */\n    tag_134:\n        /* \"#utility.yul\":10534:10545   */\n      0x00\n        /* \"#utility.yul\":10568:10574   */\n      dup3\n        /* \"#utility.yul\":10563:10566   */\n      dup3\n        /* \"#utility.yul\":10556:10575   */\n      mstore\n        /* \"#utility.yul\":10608:10612   */\n      0x20\n        /* \"#utility.yul\":10603:10606   */\n      dup3\n        /* \"#utility.yul\":10599:10613   */\n      add\n        /* \"#utility.yul\":10584:10613   */\n      swap1\n      pop\n        /* \"#utility.yul\":10460:10619   */\n      swap3\n      swap2\n      pop\n      pop\n      jump\t// out\n        /* \"#utility.yul\":10625:10982   */\n    tag_135:\n        /* \"#utility.yul\":10703:10706   */\n      0x00\n        /* \"#utility.yul\":10731:10770   */\n      tag_275\n        /* \"#utility.yul\":10764:10769   */\n      dup3\n        /* \"#utility.yul\":10731:10770   */\n      tag_121\n      jump\t// in\n    tag_275:\n        /* \"#utility.yul\":10786:10847   */\n      tag_276\n        /* \"#utility.yul\":10840:10846   */\n      dup2\n        /* \"#utility.yul\":10835:10838   */\n      dup6\n        /* \"#utility.yul\":10786:10847   */\n      tag_134\n      jump\t// in\n    tag_276:\n        /* \"#utility.yul\":10779:10847   */\n      swap4\n      pop\n        /* \"#utility.yul\":10856:10921   */\n      tag_277\n        /* \"#utility.yul\":10914:10920   */\n      dup2\n        /* \"#utility.yul\":10909:10912   */\n      dup6\n        /* \"#utility.yul\":10902:10906   */\n      0x20\n        /* \"#utility.yul\":10895:10900   */\n      dup7\n        /* \"#utility.yul\":10891:10907   */\n      add\n        /* \"#utility.yul\":10856:10921   */\n      tag_123\n      jump\t// in\n    tag_277:\n        /* \"#utility.yul\":10946:10975   */\n      tag_278\n        /* \"#utility.yul\":10968:10974   */\n      dup2\n        /* \"#utility.yul\":10946:10975   */\n      tag_106\n      jump\t// in\n    tag_278:\n        /* \"#utility.yul\":10941:10944   */\n      dup5\n        /* \"#utility.yul\":10937:10976   */\n      add\n        /* \"#utility.yul\":10930:10976   */\n      swap2\n      pop\n        /* \"#utility.yul\":10707:10982   */\n      pop\n        /* \"#utility.yul\":10625:10982   */\n      swap3\n      swap2\n      pop\n      pop\n      jump\t// out\n        /* \"#utility.yul\":10988:11093   */\n    tag_136:\n        /* \"#utility.yul\":11063:11086   */\n      tag_280\n        /* \"#utility.yul\":11080:11085   */\n      dup2\n        /* \"#utility.yul\":11063:11086   */\n      tag_125\n      jump\t// in\n    tag_280:\n        /* \"#utility.yul\":11058:11061   */\n      dup3\n        /* \"#utility.yul\":11051:11087   */\n      mstore\n        /* \"#utility.yul\":10988:11093   */\n      pop\n      pop\n      jump\t// out\n        /* \"#utility.yul\":11099:11198   */\n    tag_137:\n        /* \"#utility.yul\":11170:11191   */\n      tag_282\n        /* \"#utility.yul\":11185:11190   */\n      dup2\n        /* \"#utility.yul\":11170:11191   */\n      tag_129\n      jump\t// in\n    tag_282:\n        /* \"#utility.yul\":11165:11168   */\n      dup3\n        /* \"#utility.yul\":11158:11192   */\n      mstore\n        /* \"#utility.yul\":11099:11198   */\n      pop\n      pop\n      jump\t// out\n        /* \"#utility.yul\":11254:12191   */\n    tag_138:\n        /* \"#utility.yul\":11367:11370   */\n      0x00\n        /* \"#utility.yul\":11403:11407   */\n      0x80\n        /* \"#utility.yul\":11398:11401   */\n      dup4\n        /* \"#utility.yul\":11394:11408   */\n      add\n        /* \"#utility.yul\":11492:11496   */\n      0x00\n        /* \"#utility.yul\":11485:11490   */\n      dup4\n        /* \"#utility.yul\":11481:11497   */\n      add\n        /* \"#utility.yul\":11475:11498   */\n      mload\n        /* \"#utility.yul\":11511:11574   */\n      tag_284\n        /* \"#utility.yul\":11568:11572   */\n      0x00\n        /* \"#utility.yul\":11563:11566   */\n      dup7\n        /* \"#utility.yul\":11559:11573   */\n      add\n        /* \"#utility.yul\":11545:11557   */\n      dup3\n        /* \"#utility.yul\":11511:11574   */\n      tag_133\n      jump\t// in\n    tag_284:\n        /* \"#utility.yul\":11418:11584   */\n      pop\n        /* \"#utility.yul\":11666:11670   */\n      0x20\n        /* \"#utility.yul\":11659:11664   */\n      dup4\n        /* \"#utility.yul\":11655:11671   */\n      add\n        /* \"#utility.yul\":11649:11672   */\n      mload\n        /* \"#utility.yul\":11719:11722   */\n      dup5\n        /* \"#utility.yul\":11713:11717   */\n      dup3\n        /* \"#utility.yul\":11709:11723   */\n      sub\n        /* \"#utility.yul\":11702:11706   */\n      0x20\n        /* \"#utility.yul\":11697:11700   */\n      dup7\n        /* \"#utility.yul\":11693:11707   */\n      add\n        /* \"#utility.yul\":11686:11724   */\n      mstore\n        /* \"#utility.yul\":11745:11818   */\n      tag_285\n        /* \"#utility.yul\":11813:11817   */\n      dup3\n        /* \"#utility.yul\":11799:11811   */\n      dup3\n        /* \"#utility.yul\":11745:11818   */\n      tag_135\n      jump\t// in\n    tag_285:\n        /* \"#utility.yul\":11737:11818   */\n      swap2\n      pop\n        /* \"#utility.yul\":11594:11829   */\n      pop\n        /* \"#utility.yul\":11909:11913   */\n      0x40\n        /* \"#utility.yul\":11902:11907   */\n      dup4\n        /* \"#utility.yul\":11898:11914   */\n      add\n        /* \"#utility.yul\":11892:11915   */\n      mload\n        /* \"#utility.yul\":11928:11989   */\n      tag_286\n        /* \"#utility.yul\":11983:11987   */\n      0x40\n        /* \"#utility.yul\":11978:11981   */\n      dup7\n        /* \"#utility.yul\":11974:11988   */\n      add\n        /* \"#utility.yul\":11960:11972   */\n      dup3\n        /* \"#utility.yul\":11928:11989   */\n      tag_136\n      jump\t// in\n    tag_286:\n        /* \"#utility.yul\":11839:11999   */\n      pop\n        /* \"#utility.yul\":12078:12082   */\n      0x60\n        /* \"#utility.yul\":12071:12076   */\n      dup4\n        /* \"#utility.yul\":12067:12083   */\n      add\n        /* \"#utility.yul\":12061:12084   */\n      mload\n        /* \"#utility.yul\":12097:12154   */\n      tag_287\n        /* \"#utility.yul\":12148:12152   */\n      0x60\n        /* \"#utility.yul\":12143:12146   */\n      dup7\n        /* \"#utility.yul\":12139:12153   */\n      add\n        /* \"#utility.yul\":12125:12137   */\n      dup3\n        /* \"#utility.yul\":12097:12154   */\n      tag_137\n      jump\t// in\n    tag_287:\n        /* \"#utility.yul\":12009:12164   */\n      pop\n        /* \"#utility.yul\":12181:12185   */\n      dup1\n        /* \"#utility.yul\":12174:12185   */\n      swap2\n      pop\n        /* \"#utility.yul\":11372:12191   */\n      pop\n        /* \"#utility.yul\":11254:12191   */\n      swap3\n      swap2\n      pop\n      pop\n      jump\t// out\n        /* \"#utility.yul\":12197:12558   */\n    tag_48:\n        /* \"#utility.yul\":12334:12338   */\n      0x00\n        /* \"#utility.yul\":12372:12374   */\n      0x20\n        /* \"#utility.yul\":12361:12370   */\n      dup3\n        /* \"#utility.yul\":12357:12375   */\n      add\n        /* \"#utility.yul\":12349:12375   */\n      swap1\n      pop\n        /* \"#utility.yul\":12421:12430   */\n      dup2\n        /* \"#utility.yul\":12415:12419   */\n      dup2\n        /* \"#utility.yul\":12411:12431   */\n      sub\n        /* \"#utility.yul\":12407:12408   */\n      0x00\n        /* \"#utility.yul\":12396:12405   */\n      dup4\n        /* \"#utility.yul\":12392:12409   */\n      add\n        /* \"#utility.yul\":12385:12432   */\n      mstore\n        /* \"#utility.yul\":12449:12551   */\n      tag_289\n        /* \"#utility.yul\":12546:12550   */\n      dup2\n        /* \"#utility.yul\":12537:12543   */\n      dup5\n        /* \"#utility.yul\":12449:12551   */\n      tag_138\n      jump\t// in\n    tag_289:\n        /* \"#utility.yul\":12441:12551   */\n      swap1\n      pop\n        /* \"#utility.yul\":12197:12558   */\n      swap3\n      swap2\n      pop\n      pop\n      jump\t// out\n        /* \"#utility.yul\":12564:12682   */\n    tag_139:\n        /* \"#utility.yul\":12651:12675   */\n      tag_291\n        /* \"#utility.yul\":12669:12674   */\n      dup2\n        /* \"#utility.yul\":12651:12675   */\n      tag_111\n      jump\t// in\n    tag_291:\n        /* \"#utility.yul\":12646:12649   */\n      dup3\n        /* \"#utility.yul\":12639:12676   */\n      mstore\n        /* \"#utility.yul\":12564:12682   */\n      pop\n      pop\n      jump\t// out\n        /* \"#utility.yul\":12688:12910   */\n    tag_58:\n        /* \"#utility.yul\":12781:12785   */\n      0x00\n        /* \"#utility.yul\":12819:12821   */\n      0x20\n        /* \"#utility.yul\":12808:12817   */\n      dup3\n        /* \"#utility.yul\":12804:12822   */\n      add\n        /* \"#utility.yul\":12796:12822   */\n      swap1\n      pop\n        /* \"#utility.yul\":12832:12903   */\n      tag_293\n        /* \"#utility.yul\":12900:12901   */\n      0x00\n        /* \"#utility.yul\":12889:12898   */\n      dup4\n        /* \"#utility.yul\":12885:12902   */\n      add\n        /* \"#utility.yul\":12876:12882   */\n      dup5\n        /* \"#utility.yul\":12832:12903   */\n      tag_139\n      jump\t// in\n    tag_293:\n        /* \"#utility.yul\":12688:12910   */\n      swap3\n      swap2\n      pop\n      pop\n      jump\t// out\n        /* \"#utility.yul\":12916:13245   */\n    tag_61:\n        /* \"#utility.yul\":12975:12981   */\n      0x00\n        /* \"#utility.yul\":13024:13026   */\n      0x20\n        /* \"#utility.yul\":13012:13021   */\n      dup3\n        /* \"#utility.yul\":13003:13010   */\n      dup5\n        /* \"#utility.yul\":12999:13022   */\n      sub\n        /* \"#utility.yul\":12995:13027   */\n      slt\n        /* \"#utility.yul\":12992:13111   */\n      iszero\n      tag_295\n      jumpi\n        /* \"#utility.yul\":13030:13109   */\n      tag_296\n      tag_103\n      jump\t// in\n    tag_296:\n        /* \"#utility.yul\":12992:13111   */\n    tag_295:\n        /* \"#utility.yul\":13150:13151   */\n      0x00\n        /* \"#utility.yul\":13175:13228   */\n      tag_297\n        /* \"#utility.yul\":13220:13227   */\n      dup5\n        /* \"#utility.yul\":13211:13217   */\n      dup3\n        /* \"#utility.yul\":13200:13209   */\n      dup6\n        /* \"#utility.yul\":13196:13218   */\n      add\n        /* \"#utility.yul\":13175:13228   */\n      tag_113\n      jump\t// in\n    tag_297:\n        /* \"#utility.yul\":13165:13228   */\n      swap2\n      pop\n        /* \"#utility.yul\":13121:13238   */\n      pop\n        /* \"#utility.yul\":12916:13245   */\n      swap3\n      swap2\n      pop\n      pop\n      jump\t// out\n        /* \"#utility.yul\":13251:13431   */\n    tag_140:\n        /* \"#utility.yul\":13299:13376   */\n      0x4e487b7100000000000000000000000000000000000000000000000000000000\n        /* \"#utility.yul\":13296:13297   */\n      0x00\n        /* \"#utility.yul\":13289:13377   */\n      mstore\n        /* \"#utility.yul\":13396:13400   */\n      0x22\n        /* \"#utility.yul\":13393:13394   */\n      0x04\n        /* \"#utility.yul\":13386:13401   */\n      mstore\n        /* \"#utility.yul\":13420:13424   */\n      0x24\n        /* \"#utility.yul\":13417:13418   */\n      0x00\n        /* \"#utility.yul\":13410:13425   */\n      revert\n        /* \"#utility.yul\":13437:13757   */\n    tag_73:\n        /* \"#utility.yul\":13481:13487   */\n      0x00\n        /* \"#utility.yul\":13518:13519   */\n      0x02\n        /* \"#utility.yul\":13512:13516   */\n      dup3\n        /* \"#utility.yul\":13508:13520   */\n      div\n        /* \"#utility.yul\":13498:13520   */\n      swap1\n      pop\n        /* \"#utility.yul\":13565:13566   */\n      0x01\n        /* \"#utility.yul\":13559:13563   */\n      dup3\n        /* \"#utility.yul\":13555:13567   */\n      and\n        /* \"#utility.yul\":13586:13604   */\n      dup1\n        /* \"#utility.yul\":13576:13657   */\n      tag_300\n      jumpi\n        /* \"#utility.yul\":13642:13646   */\n      0x7f\n        /* \"#utility.yul\":13634:13640   */\n      dup3\n        /* \"#utility.yul\":13630:13647   */\n      and\n        /* \"#utility.yul\":13620:13647   */\n      swap2\n      pop\n        /* \"#utility.yul\":13576:13657   */\n    tag_300:\n        /* \"#utility.yul\":13704:13706   */\n      0x20\n        /* \"#utility.yul\":13696:13702   */\n      dup3\n        /* \"#utility.yul\":13693:13707   */\n      lt\n        /* \"#utility.yul\":13673:13691   */\n      dup2\n        /* \"#utility.yul\":13670:13708   */\n      sub\n        /* \"#utility.yul\":13667:13751   */\n      tag_301\n      jumpi\n        /* \"#utility.yul\":13723:13741   */\n      tag_302\n      tag_140\n      jump\t// in\n    tag_302:\n        /* \"#utility.yul\":13667:13751   */\n    tag_301:\n        /* \"#utility.yul\":13488:13757   */\n      pop\n        /* \"#utility.yul\":13437:13757   */\n      swap2\n      swap1\n      pop\n      jump\t// out\n        /* \"#utility.yul\":13763:13904   */\n    tag_141:\n        /* \"#utility.yul\":13812:13816   */\n      0x00\n        /* \"#utility.yul\":13835:13838   */\n      dup2\n        /* \"#utility.yul\":13827:13838   */\n      swap1\n      pop\n        /* \"#utility.yul\":13858:13861   */\n      dup2\n        /* \"#utility.yul\":13855:13856   */\n      0x00\n        /* \"#utility.yul\":13848:13862   */\n      mstore\n        /* \"#utility.yul\":13892:13896   */\n      0x20\n        /* \"#utility.yul\":13889:13890   */\n      0x00\n        /* \"#utility.yul\":13879:13897   */\n      keccak256\n        /* \"#utility.yul\":13871:13897   */\n      swap1\n      pop\n        /* \"#utility.yul\":13763:13904   */\n      swap2\n      swap1\n      pop\n      jump\t// out\n        /* \"#utility.yul\":13910:14003   */\n    tag_142:\n        /* \"#utility.yul\":13947:13953   */\n      0x00\n        /* \"#utility.yul\":13994:13996   */\n      0x20\n        /* \"#utility.yul\":13989:13991   */\n      0x1f\n        /* \"#utility.yul\":13982:13987   */\n      dup4\n        /* \"#utility.yul\":13978:13992   */\n      add\n        /* \"#utility.yul\":13974:13997   */\n      div\n        /* \"#utility.yul\":13964:13997   */\n      swap1\n      pop\n        /* \"#utility.yul\":13910:14003   */\n      swap2\n      swap1\n      pop\n      jump\t// out\n        /* \"#utility.yul\":14009:14116   */\n    tag_143:\n        /* \"#utility.yul\":14053:14061   */\n      0x00\n        /* \"#utility.yul\":14103:14108   */\n      dup3\n        /* \"#utility.yul\":14097:14101   */\n      dup3\n        /* \"#utility.yul\":14093:14109   */\n      shl\n        /* \"#utility.yul\":14072:14109   */\n      swap1\n      pop\n        /* \"#utility.yul\":14009:14116   */\n      swap3\n      swap2\n      pop\n      pop\n      jump\t// out\n        /* \"#utility.yul\":14122:14515   */\n    tag_144:\n        /* \"#utility.yul\":14191:14197   */\n      0x00\n        /* \"#utility.yul\":14241:14242   */\n      0x08\n        /* \"#utility.yul\":14229:14239   */\n      dup4\n        /* \"#utility.yul\":14225:14243   */\n      mul\n        /* \"#utility.yul\":14264:14361   */\n      tag_307\n        /* \"#utility.yul\":14294:14360   */\n      0xffffffffffffffffffffffffffffffffffffffffffffffffffffffffffffffff\n        /* \"#utility.yul\":14283:14292   */\n      dup3\n        /* \"#utility.yul\":14264:14361   */\n      tag_143\n      jump\t// in\n    tag_307:\n        /* \"#utility.yul\":14382:14421   */\n      tag_308\n        /* \"#utility.yul\":14412:14420   */\n      dup7\n        /* \"#utility.yul\":14401:14410   */\n      dup4\n        /* \"#utility.yul\":14382:14421   */\n      tag_143\n      jump\t// in\n    tag_308:\n        /* \"#utility.yul\":14370:14421   */\n      swap6\n      pop\n        /* \"#utility.yul\":14454:14458   */\n      dup1\n        /* \"#utility.yul\":14450:14459   */\n      not\n        /* \"#utility.yul\":14443:14448   */\n      dup5\n        /* \"#utility.yul\":14439:14460   */\n      and\n        /* \"#utility.yul\":14430:14460   */\n      swap4\n      pop\n        /* \"#utility.yul\":14503:14507   */\n      dup1\n        /* \"#utility.yul\":14493:14501   */\n      dup7\n        /* \"#utility.yul\":14489:14508   */\n      and\n        /* \"#utility.yul\":14482:14487   */\n      dup5\n        /* \"#utility.yul\":14479:14509   */\n      or\n        /* \"#utility.yul\":14469:14509   */\n      swap3\n      pop\n        /* \"#utility.yul\":14198:14515   */\n      pop\n      pop\n        /* \"#utility.yul\":14122:14515   */\n      swap4\n      swap3\n      pop\n      pop\n      pop\n      jump\t// out\n        /* \"#utility.yul\":14521:14581   */\n    tag_145:\n        /* \"#utility.yul\":14549:14552   */\n      0x00\n        /* \"#utility.yul\":14570:14575   */\n      dup2\n        /* \"#utility.yul\":14563:14575   */\n      swap1\n      pop\n        /* \"#utility.yul\":14521:14581   */\n      swap2\n      swap1\n      pop\n      jump\t// out\n        /* \"#utility.yul\":14587:14729   */\n    tag_146:\n        /* \"#utility.yul\":14637:14646   */\n      0x00\n        /* \"#utility.yul\":14670:14723   */\n      tag_311\n        /* \"#utility.yul\":14688:14722   */\n      tag_312\n        /* \"#utility.yul\":14697:14721   */\n      tag_313\n        /* \"#utility.yul\":14715:14720   */\n      dup5\n        /* \"#utility.yul\":14697:14721   */\n      tag_111\n      jump\t// in\n    tag_313:\n        /* \"#utility.yul\":14688:14722   */\n      tag_145\n      jump\t// in\n    tag_312:\n        /* \"#utility.yul\":14670:14723   */\n      tag_111\n      jump\t// in\n    tag_311:\n        /* \"#utility.yul\":14657:14723   */\n      swap1\n      pop\n        /* \"#utility.yul\":14587:14729   */\n      swap2\n      swap1\n      pop\n      jump\t// out\n        /* \"#utility.yul\":14735:14810   */\n    tag_147:\n        /* \"#utility.yul\":14778:14781   */\n      0x00\n        /* \"#utility.yul\":14799:14804   */\n      dup2\n        /* \"#utility.yul\":14792:14804   */\n      swap1\n      pop\n        /* \"#utility.yul\":14735:14810   */\n      swap2\n      swap1\n      pop\n      jump\t// out\n        /* \"#utility.yul\":14816:15085   */\n    tag_148:\n        /* \"#utility.yul\":14926:14965   */\n      tag_316\n        /* \"#utility.yul\":14957:14964   */\n      dup4\n        /* \"#utility.yul\":14926:14965   */\n      tag_146\n      jump\t// in\n    tag_316:\n        /* \"#utility.yul\":14987:15078   */\n      tag_317\n        /* \"#utility.yul\":15036:15077   */\n      tag_318\n        /* \"#utility.yul\":15060:15076   */\n      dup3\n        /* \"#utility.yul\":15036:15077   */\n      tag_147\n      jump\t// in\n    tag_318:\n        /* \"#utility.yul\":15028:15034   */\n      dup5\n        /* \"#utility.yul\":15021:15025   */\n      dup5\n        /* \"#utility.yul\":15015:15026   */\n      sload\n        /* \"#utility.yul\":14987:15078   */\n      tag_144\n      jump\t// in\n    tag_317:\n        /* \"#utility.yul\":14981:14985   */\n      dup3\n        /* \"#utility.yul\":14974:15079   */\n      sstore\n        /* \"#utility.yul\":14892:15085   */\n      pop\n        /* \"#utility.yul\":14816:15085   */\n      pop\n      pop\n      pop\n      jump\t// out\n        /* \"#utility.yul\":15091:15164   */\n    tag_149:\n        /* \"#utility.yul\":15136:15139   */\n      0x00\n        /* \"#utility.yul\":15091:15164   */\n      swap1\n      jump\t// out\n        /* \"#utility.yul\":15170:15359   */\n    tag_150:\n        /* \"#utility.yul\":15247:15279   */\n      tag_321\n      tag_149\n      jump\t// in\n    tag_321:\n        /* \"#utility.yul\":15288:15353   */\n      tag_322\n        /* \"#utility.yul\":15346:15352   */\n      dup2\n        /* \"#utility.yul\":15338:15344   */\n      dup5\n        /* \"#utility.yul\":15332:15336   */\n      dup5\n        /* \"#utility.yul\":15288:15353   */\n      tag_148\n      jump\t// in\n    tag_322:\n        /* \"#utility.yul\":15223:15359   */\n      pop\n        /* \"#utility.yul\":15170:15359   */\n      pop\n      pop\n      jump\t// out\n        /* \"#utility.yul\":15365:15551   */\n    tag_151:\n        /* \"#utility.yul\":15425:15545   */\n    tag_324:\n        /* \"#utility.yul\":15442:15445   */\n      dup2\n        /* \"#utility.yul\":15435:15440   */\n      dup2\n        /* \"#utility.yul\":15432:15446   */\n      lt\n        /* \"#utility.yul\":15425:15545   */\n      iszero\n      tag_326\n      jumpi\n        /* \"#utility.yul\":15496:15535   */\n      tag_327\n        /* \"#utility.yul\":15533:15534   */\n      0x00\n        /* \"#utility.yul\":15526:15531   */\n      dup3\n        /* \"#utility.yul\":15496:15535   */\n      tag_150\n      jump\t// in\n    tag_327:\n        /* \"#utility.yul\":15469:15470   */\n      0x01\n        /* \"#utility.yul\":15462:15467   */\n      dup2\n        /* \"#utility.yul\":15458:15471   */\n      add\n        /* \"#utility.yul\":15449:15471   */\n      swap1\n      pop\n        /* \"#utility.yul\":15425:15545   */\n      jump(tag_324)\n    tag_326:\n        /* \"#utility.yul\":15365:15551   */\n      pop\n      pop\n      jump\t// out\n        /* \"#utility.yul\":15557:16100   */\n    tag_152:\n        /* \"#utility.yul\":15658:15660   */\n      0x1f\n        /* \"#utility.yul\":15653:15656   */\n      dup3\n        /* \"#utility.yul\":15650:15661   */\n      gt\n        /* \"#utility.yul\":15647:16093   */\n      iszero\n      tag_329\n      jumpi\n        /* \"#utility.yul\":15692:15730   */\n      tag_330\n        /* \"#utility.yul\":15724:15729   */\n      dup2\n        /* \"#utility.yul\":15692:15730   */\n      tag_141\n      jump\t// in\n    tag_330:\n        /* \"#utility.yul\":15776:15805   */\n      tag_331\n        /* \"#utility.yul\":15794:15804   */\n      dup5\n        /* \"#utility.yul\":15776:15805   */\n      tag_142\n      jump\t// in\n    tag_331:\n        /* \"#utility.yul\":15766:15774   */\n      dup2\n        /* \"#utility.yul\":15762:15806   */\n      add\n        /* \"#utility.yul\":15959:15961   */\n      0x20\n        /* \"#utility.yul\":15947:15957   */\n      dup6\n        /* \"#utility.yul\":15944:15962   */\n      lt\n        /* \"#utility.yul\":15941:15990   */\n      iszero\n      tag_332\n      jumpi\n        /* \"#utility.yul\":15980:15988   */\n      dup2\n        /* \"#utility.yul\":15965:15988   */\n      swap1\n      pop\n        /* \"#utility.yul\":15941:15990   */\n    tag_332:\n        /* \"#utility.yul\":16003:16083   */\n      tag_333\n        /* \"#utility.yul\":16059:16081   */\n      tag_334\n        /* \"#utility.yul\":16077:16080   */\n      dup6\n        /* \"#utility.yul\":16059:16081   */\n      tag_142\n      jump\t// in\n    tag_334:\n        /* \"#utility.yul\":16049:16057   */\n      dup4\n        /* \"#utility.yul\":16045:16082   */\n      add\n        /* \"#utility.yul\":16032:16043   */\n      dup3\n        /* \"#utility.yul\":16003:16083   */\n      tag_151\n      jump\t// in\n    tag_333:\n        /* \"#utility.yul\":15662:16093   */\n      pop\n      pop\n        /* \"#utility.yul\":15647:16093   */\n    tag_329:\n        /* \"#utility.yul\":15557:16100   */\n      pop\n      pop\n      pop\n      jump\t// out\n        /* \"#utility.yul\":16106:16223   */\n    tag_153:\n        /* \"#utility.yul\":16160:16168   */\n      0x00\n        /* \"#utility.yul\":16210:16215   */\n      dup3\n        /* \"#utility.yul\":16204:16208   */\n      dup3\n        /* \"#utility.yul\":16200:16216   */\n      shr\n        /* \"#utility.yul\":16179:16216   */\n      swap1\n      pop\n        /* \"#utility.yul\":16106:16223   */\n      swap3\n      swap2\n      pop\n      pop\n      jump\t// out\n        /* \"#utility.yul\":16229:16398   */\n    tag_154:\n        /* \"#utility.yul\":16273:16279   */\n      0x00\n        /* \"#utility.yul\":16306:16357   */\n      tag_337\n        /* \"#utility.yul\":16354:16355   */\n      0x00\n        /* \"#utility.yul\":16350:16356   */\n      not\n        /* \"#utility.yul\":16342:16347   */\n      dup5\n        /* \"#utility.yul\":16339:16340   */\n      0x08\n        /* \"#utility.yul\":16335:16348   */\n      mul\n        /* \"#utility.yul\":16306:16357   */\n      tag_153\n      jump\t// in\n    tag_337:\n        /* \"#utility.yul\":16302:16358   */\n      not\n        /* \"#utility.yul\":16387:16391   */\n      dup1\n        /* \"#utility.yul\":16381:16385   */\n      dup4\n        /* \"#utility.yul\":16377:16392   */\n      and\n        /* \"#utility.yul\":16367:16392   */\n      swap2\n      pop\n        /* \"#utility.yul\":16280:16398   */\n      pop\n        /* \"#utility.yul\":16229:16398   */\n      swap3\n      swap2\n      pop\n      pop\n      jump\t// out\n        /* \"#utility.yul\":16403:16698   */\n    tag_155:\n        /* \"#utility.yul\":16479:16483   */\n      0x00\n        /* \"#utility.yul\":16625:16654   */\n      tag_339\n        /* \"#utility.yul\":16650:16653   */\n      dup4\n        /* \"#utility.yul\":16644:16648   */\n      dup4\n        /* \"#utility.yul\":16625:16654   */\n      tag_154\n      jump\t// in\n    tag_339:\n        /* \"#utility.yul\":16617:16654   */\n      swap2\n      pop\n        /* \"#utility.yul\":16687:16690   */\n      dup3\n        /* \"#utility.yul\":16684:16685   */\n      0x02\n        /* \"#utility.yul\":16680:16691   */\n      mul\n        /* \"#utility.yul\":16674:16678   */\n      dup3\n        /* \"#utility.yul\":16671:16692   */\n      or\n        /* \"#utility.yul\":16663:16692   */\n      swap1\n      pop\n        /* \"#utility.yul\":16403:16698   */\n      swap3\n      swap2\n      pop\n      pop\n      jump\t// out\n        /* \"#utility.yul\":16703:18098   */\n    tag_68:\n        /* \"#utility.yul\":16820:16857   */\n      tag_341\n        /* \"#utility.yul\":16853:16856   */\n      dup3\n        /* \"#utility.yul\":16820:16857   */\n      tag_121\n      jump\t// in\n    tag_341:\n        /* \"#utility.yul\":16922:16940   */\n      0xffffffffffffffff\n        /* \"#utility.yul\":16914:16920   */\n      dup2\n        /* \"#utility.yul\":16911:16941   */\n      gt\n        /* \"#utility.yul\":16908:16964   */\n      iszero\n      tag_342\n      jumpi\n        /* \"#utility.yul\":16944:16962   */\n      tag_343\n      tag_107\n      jump\t// in\n    tag_343:\n        /* \"#utility.yul\":16908:16964   */\n    tag_342:\n        /* \"#utility.yul\":16988:17026   */\n      tag_344\n        /* \"#utility.yul\":17020:17024   */\n      dup3\n        /* \"#utility.yul\":17014:17025   */\n      sload\n        /* \"#utility.yul\":16988:17026   */\n      tag_73\n      jump\t// in\n    tag_344:\n        /* \"#utility.yul\":17073:17140   */\n      tag_345\n        /* \"#utility.yul\":17133:17139   */\n      dup3\n        /* \"#utility.yul\":17125:17131   */\n      dup3\n        /* \"#utility.yul\":17119:17123   */\n      dup6\n        /* \"#utility.yul\":17073:17140   */\n      tag_152\n      jump\t// in\n    tag_345:\n        /* \"#utility.yul\":17167:17168   */\n      0x00\n        /* \"#utility.yul\":17191:17195   */\n      0x20\n        /* \"#utility.yul\":17178:17195   */\n      swap1\n      pop\n        /* \"#utility.yul\":17223:17225   */\n      0x1f\n        /* \"#utility.yul\":17215:17221   */\n      dup4\n        /* \"#utility.yul\":17212:17226   */\n      gt\n        /* \"#utility.yul\":17240:17241   */\n      0x01\n        /* \"#utility.yul\":17235:17853   */\n      dup2\n      eq\n      tag_347\n      jumpi\n        /* \"#utility.yul\":17897:17898   */\n      0x00\n        /* \"#utility.yul\":17914:17920   */\n      dup5\n        /* \"#utility.yul\":17911:17988   */\n      iszero\n      tag_348\n      jumpi\n        /* \"#utility.yul\":17963:17972   */\n      dup3\n        /* \"#utility.yul\":17958:17961   */\n      dup8\n        /* \"#utility.yul\":17954:17973   */\n      add\n        /* \"#utility.yul\":17948:17974   */\n      mload\n        /* \"#utility.yul\":17939:17974   */\n      swap1\n      pop\n        /* \"#utility.yul\":17911:17988   */\n    tag_348:\n        /* \"#utility.yul\":18014:18081   */\n      tag_349\n        /* \"#utility.yul\":18074:18080   */\n      dup6\n        /* \"#utility.yul\":18067:18072   */\n      dup3\n        /* \"#utility.yul\":18014:18081   */\n      tag_155\n      jump\t// in\n    tag_349:\n        /* \"#utility.yul\":18008:18012   */\n      dup7\n        /* \"#utility.yul\":18001:18082   */\n      sstore\n        /* \"#utility.yul\":17870:18092   */\n      pop\n        /* \"#utility.yul\":17205:18092   */\n      jump(tag_346)\n        /* \"#utility.yul\":17235:17853   */\n    tag_347:\n        /* \"#utility.yul\":17287:17291   */\n      0x1f\n        /* \"#utility.yul\":17283:17292   */\n      not\n        /* \"#utility.yul\":17275:17281   */\n      dup5\n        /* \"#utility.yul\":17271:17293   */\n      and\n        /* \"#utility.yul\":17321:17358   */\n      tag_350\n        /* \"#utility.yul\":17353:17357   */\n      dup7\n        /* \"#utility.yul\":17321:17358   */\n      tag_141\n      jump\t// in\n    tag_350:\n        /* \"#utility.yul\":17380:17381   */\n      0x00\n        /* \"#utility.yul\":17394:17602   */\n    tag_351:\n        /* \"#utility.yul\":17408:17415   */\n      dup3\n        /* \"#utility.yul\":17405:17406   */\n      dup2\n        /* \"#utility.yul\":17402:17416   */\n      lt\n        /* \"#utility.yul\":17394:17602   */\n      iszero\n      tag_353\n      jumpi\n        /* \"#utility.yul\":17487:17496   */\n      dup5\n        /* \"#utility.yul\":17482:17485   */\n      dup10\n        /* \"#utility.yul\":17478:17497   */\n      add\n        /* \"#utility.yul\":17472:17498   */\n      mload\n        /* \"#utility.yul\":17464:17470   */\n      dup3\n        /* \"#utility.yul\":17457:17499   */\n      sstore\n        /* \"#utility.yul\":17538:17539   */\n      0x01\n        /* \"#utility.yul\":17530:17536   */\n      dup3\n        /* \"#utility.yul\":17526:17540   */\n      add\n        /* \"#utility.yul\":17516:17540   */\n      swap2\n      pop\n        /* \"#utility.yul\":17585:17587   */\n      0x20\n        /* \"#utility.yul\":17574:17583   */\n      dup6\n        /* \"#utility.yul\":17570:17588   */\n      add\n        /* \"#utility.yul\":17557:17588   */\n      swap5\n      pop\n        /* \"#utility.yul\":17431:17435   */\n      0x20\n        /* \"#utility.yul\":17428:17429   */\n      dup2\n        /* \"#utility.yul\":17424:17436   */\n      add\n        /* \"#utility.yul\":17419:17436   */\n      swap1\n      pop\n        /* \"#utility.yul\":17394:17602   */\n      jump(tag_351)\n    tag_353:\n        /* \"#utility.yul\":17630:17636   */\n      dup7\n        /* \"#utility.yul\":17621:17628   */\n      dup4\n        /* \"#utility.yul\":17618:17637   */\n      lt\n        /* \"#utility.yul\":17615:17794   */\n      iszero\n      tag_354\n      jumpi\n        /* \"#utility.yul\":17688:17697   */\n      dup5\n        /* \"#utility.yul\":17683:17686   */\n      dup10\n        /* \"#utility.yul\":17679:17698   */\n      add\n        /* \"#utility.yul\":17673:17699   */\n      mload\n        /* \"#utility.yul\":17731:17779   */\n      tag_355\n        /* \"#utility.yul\":17773:17777   */\n      0x1f\n        /* \"#utility.yul\":17765:17771   */\n      dup10\n        /* \"#utility.yul\":17761:17778   */\n      and\n        /* \"#utility.yul\":17750:17759   */\n      dup3\n        /* \"#utility.yul\":17731:17779   */\n      tag_154\n      jump\t// in\n    tag_355:\n        /* \"#utility.yul\":17723:17729   */\n      dup4\n        /* \"#utility.yul\":17716:17780   */\n      sstore\n        /* \"#utility.yul\":17638:17794   */\n      pop\n        /* \"#utility.yul\":17615:17794   */\n    tag_354:\n        /* \"#utility.yul\":17840:17841   */\n      0x01\n        /* \"#utility.yul\":17836:17837   */\n      0x02\n        /* \"#utility.yul\":17828:17834   */\n      dup9\n        /* \"#utility.yul\":17824:17838   */\n      mul\n        /* \"#utility.yul\":17820:17842   */\n      add\n        /* \"#utility.yul\":17814:17818   */\n      dup9\n        /* \"#utility.yul\":17807:17843   */\n      sstore\n        /* \"#utility.yul\":17242:17853   */\n      pop\n      pop\n      pop\n        /* \"#utility.yul\":17205:18092   */\n    tag_346:\n      pop\n        /* \"#utility.yul\":16795:18098   */\n      pop\n      pop\n      pop\n        /* \"#utility.yul\":16703:18098   */\n      pop\n      pop\n      jump\t// out\n\n    auxdata: 0xa26469706673582212206587f2339521dc25fc134ebb2a32c96fa2b37125d14ada45c12eb77bdf41dbbe64736f6c634300081a0033\n}\n",
				"bytecode": {
					"linkReferences": {},
					"object": "6080604052348015600e575f80fd5b506110d78061001c5f395ff3fe608060405234801561000f575f80fd5b50600436106100cd575f3560e01c80636010dd661161008a578063b0c5e78111610064578063b0c5e781146101d2578063d46300fd146101ee578063ee919d501461020c578063f669d77214610228576100cd565b80636010dd661461017c57806380982f5014610198578063ac7a047e146101b6576100cd565b80630f22d999146100d15780632b14386f146100ed5780632e35253a146101095780633fed508f1461012857806356c90aad146101445780635b3e9d3914610160575b5f80fd5b6100eb60048036038101906100e69190610929565b610244565b005b61010760048036038101906101029190610970565b61026b565b005b6101116102a7565b60405161011f929190610a64565b60405180910390f35b610142600480360381019061013d9190610af1565b610353565b005b61015e60048036038101906101599190610c02565b610401565b005b61017a60048036038101906101759190610c49565b61046a565b005b61019660048036038101906101919190610c49565b610480565b005b6101a0610496565b6040516101ad9190610d65565b60405180910390f35b6101d060048036038101906101cb9190610970565b6105ba565b005b6101ec60048036038101906101e79190610970565b6105f6565b005b6101f6610632565b6040516102039190610d94565b60405180910390f35b61022660048036038101906102219190610dad565b61063a565b005b610242600480360381019061023d9190610af1565b610643565b005b8060045f820151815f015560208201518160010190816102649190610fd2565b5090505050565b60405180604001604052808381526020018281525060045f820151815f0155602082015181600101908161029f9190610fd2565b509050505050565b60605f600860010160086002015f9054906101000a900460e81b8180546102cd90610e05565b80601f01602080910402602001604051908101604052809291908181526020018280546102f990610e05565b80156103445780601f1061031b57610100808354040283529160200191610344565b820191905f5260205f20905b81548152906001019060200180831161032757829003601f168201915b50505050509150915091509091565b6040518060800160405280858152602001848152602001837cffffffffffffffffffffffffffffffffffffffffffffffffffffffffff1916815260200182151581525060085f820151815f015560208201518160010190816103b59190610fd2565b506040820151816002015f6101000a81548162ffffff021916908360e81c021790555060608201518160020160036101000a81548160ff02191690831515021790555090505050505050565b8060085f820151815f015560208201518160010190816104219190610fd2565b506040820151816002015f6101000a81548162ffffff021916908360e81c021790555060608201518160020160036101000a81548160ff02191690831515021790555090505050565b806008600101908161047c9190610fd2565b5050565b80600460010190816104929190610fd2565b5050565b61049e6106f1565b60086040518060800160405290815f82015481526020016001820180546104c490610e05565b80601f01602080910402602001604051908101604052809291908181526020018280546104f090610e05565b801561053b5780601f106105125761010080835404028352916020019161053b565b820191905f5260205f20905b81548152906001019060200180831161051e57829003601f168201915b50505050508152602001600282015f9054906101000a900460e81b7cffffffffffffffffffffffffffffffffffffffffffffffffffffffffff19167cffffffffffffffffffffffffffffffffffffffffffffffffffffffffff191681526020016002820160039054906101000a900460ff161515151581525050905090565b60405180604001604052808381526020018281525060045f820151815f015560208201518160010190816105ee9190610fd2565b509050505050565b60405180604001604052808381526020018281525060065f820151815f0155602082015181600101908161062a9190610fd2565b509050505050565b5f8054905090565b805f8190555050565b6040518060800160405280858152602001848152602001837cffffffffffffffffffffffffffffffffffffffffffffffffffffffffff1916815260200182151581525060085f820151815f015560208201518160010190816106a59190610fd2565b506040820151816002015f6101000a81548162ffffff021916908360e81c021790555060608201518160020160036101000a81548160ff02191690831515021790555090505050505050565b60405180608001604052805f8152602001606081526020015f7cffffffffffffffffffffffffffffffffffffffffffffffffffffffffff191681526020015f151581525090565b5f604051905090565b5f80fd5b5f80fd5b5f80fd5b5f601f19601f8301169050919050565b7f4e487b71000000000000000000000000000000000000000000000000000000005f52604160045260245ffd5b6107938261074d565b810181811067ffffffffffffffff821117156107b2576107b161075d565b5b80604052505050565b5f6107c4610738565b90506107d0828261078a565b919050565b5f80fd5b5f819050919050565b6107eb816107d9565b81146107f5575f80fd5b50565b5f81359050610806816107e2565b92915050565b5f80fd5b5f80fd5b5f67ffffffffffffffff82111561082e5761082d61075d565b5b6108378261074d565b9050602081019050919050565b828183375f83830152505050565b5f61086461085f84610814565b6107bb565b9050828152602081018484840111156108805761087f610810565b5b61088b848285610844565b509392505050565b5f82601f8301126108a7576108a661080c565b5b81356108b7848260208601610852565b91505092915050565b5f604082840312156108d5576108d4610749565b5b6108df60406107bb565b90505f6108ee848285016107f8565b5f83015250602082013567ffffffffffffffff811115610911576109106107d5565b5b61091d84828501610893565b60208301525092915050565b5f6020828403121561093e5761093d610741565b5b5f82013567ffffffffffffffff81111561095b5761095a610745565b5b610967848285016108c0565b91505092915050565b5f806040838503121561098657610985610741565b5b5f610993858286016107f8565b925050602083013567ffffffffffffffff8111156109b4576109b3610745565b5b6109c085828601610893565b9150509250929050565b5f81519050919050565b5f82825260208201905092915050565b8281835e5f83830152505050565b5f6109fc826109ca565b610a0681856109d4565b9350610a168185602086016109e4565b610a1f8161074d565b840191505092915050565b5f7fffffff000000000000000000000000000000000000000000000000000000000082169050919050565b610a5e81610a2a565b82525050565b5f6040820190508181035f830152610a7c81856109f2565b9050610a8b6020830184610a55565b9392505050565b610a9b81610a2a565b8114610aa5575f80fd5b50565b5f81359050610ab681610a92565b92915050565b5f8115159050919050565b610ad081610abc565b8114610ada575f80fd5b50565b5f81359050610aeb81610ac7565b92915050565b5f805f8060808587031215610b0957610b08610741565b5b5f610b16878288016107f8565b945050602085013567ffffffffffffffff811115610b3757610b36610745565b5b610b4387828801610893565b9350506040610b5487828801610aa8565b9250506060610b6587828801610add565b91505092959194509250565b5f60808284031215610b8657610b85610749565b5b610b9060806107bb565b90505f610b9f848285016107f8565b5f83015250602082013567ffffffffffffffff811115610bc257610bc16107d5565b5b610bce84828501610893565b6020830152506040610be284828501610aa8565b6040830152506060610bf684828501610add565b60608301525092915050565b5f60208284031215610c1757610c16610741565b5b5f82013567ffffffffffffffff811115610c3457610c33610745565b5b610c4084828501610b71565b91505092915050565b5f60208284031215610c5e57610c5d610741565b5b5f82013567ffffffffffffffff811115610c7b57610c7a610745565b5b610c8784828501610893565b91505092915050565b610c99816107d9565b82525050565b5f82825260208201905092915050565b5f610cb9826109ca565b610cc38185610c9f565b9350610cd38185602086016109e4565b610cdc8161074d565b840191505092915050565b610cf081610a2a565b82525050565b610cff81610abc565b82525050565b5f608083015f830151610d1a5f860182610c90565b5060208301518482036020860152610d328282610caf565b9150506040830151610d476040860182610ce7565b506060830151610d5a6060860182610cf6565b508091505092915050565b5f6020820190508181035f830152610d7d8184610d05565b905092915050565b610d8e816107d9565b82525050565b5f602082019050610da75f830184610d85565b92915050565b5f60208284031215610dc257610dc1610741565b5b5f610dcf848285016107f8565b91505092915050565b7f4e487b71000000000000000000000000000000000000000000000000000000005f52602260045260245ffd5b5f6002820490506001821680610e1c57607f821691505b602082108103610e2f57610e2e610dd8565b5b50919050565b5f819050815f5260205f209050919050565b5f6020601f8301049050919050565b5f82821b905092915050565b5f60088302610e917fffffffffffffffffffffffffffffffffffffffffffffffffffffffffffffffff82610e56565b610e9b8683610e56565b95508019841693508086168417925050509392505050565b5f819050919050565b5f610ed6610ed1610ecc846107d9565b610eb3565b6107d9565b9050919050565b5f819050919050565b610eef83610ebc565b610f03610efb82610edd565b848454610e62565b825550505050565b5f90565b610f17610f0b565b610f22818484610ee6565b505050565b5b81811015610f4557610f3a5f82610f0f565b600181019050610f28565b5050565b601f821115610f8a57610f5b81610e35565b610f6484610e47565b81016020851015610f73578190505b610f87610f7f85610e47565b830182610f27565b50505b505050565b5f82821c905092915050565b5f610faa5f1984600802610f8f565b1980831691505092915050565b5f610fc28383610f9b565b9150826002028217905092915050565b610fdb826109ca565b67ffffffffffffffff811115610ff457610ff361075d565b5b610ffe8254610e05565b611009828285610f49565b5f60209050601f83116001811461103a575f8415611028578287015190505b6110328582610fb7565b865550611099565b601f19841661104886610e35565b5f5b8281101561106f5784890151825560018201915060208501945060208101905061104a565b8683101561108c5784890151611088601f891682610f9b565b8355505b6001600288020188555050505b50505050505056fea26469706673582212206587f2339521dc25fc134ebb2a32c96fa2b37125d14ada45c12eb77bdf41dbbe64736f6c634300081a0033",
					"opcodes": "PUSH1 0x80 PUSH1 0x40 MSTORE CALLVALUE DUP1 ISZERO PUSH1 0xE JUMPI PUSH0 DUP1 REVERT JUMPDEST POP PUSH2 0x10D7 DUP1 PUSH2 0x1C PUSH0 CODECOPY PUSH0 RETURN INVALID PUSH1 0x80 PUSH1 0x40 MSTORE CALLVALUE DUP1 ISZERO PUSH2 0xF JUMPI PUSH0 DUP1 REVERT JUMPDEST POP PUSH1 0x4 CALLDATASIZE LT PUSH2 0xCD JUMPI PUSH0 CALLDATALOAD PUSH1 0xE0 SHR DUP1 PUSH4 0x6010DD66 GT PUSH2 0x8A JUMPI DUP1 PUSH4 0xB0C5E781 GT PUSH2 0x64 JUMPI DUP1 PUSH4 0xB0C5E781 EQ PUSH2 0x1D2 JUMPI DUP1 PUSH4 0xD46300FD EQ PUSH2 0x1EE JUMPI DUP1 PUSH4 0xEE919D50 EQ PUSH2 0x20C JUMPI DUP1 PUSH4 0xF669D772 EQ PUSH2 0x228 JUMPI PUSH2 0xCD JUMP JUMPDEST DUP1 PUSH4 0x6010DD66 EQ PUSH2 0x17C JUMPI DUP1 PUSH4 0x80982F50 EQ PUSH2 0x198 JUMPI DUP1 PUSH4 0xAC7A047E EQ PUSH2 0x1B6 JUMPI PUSH2 0xCD JUMP JUMPDEST DUP1 PUSH4 0xF22D999 EQ PUSH2 0xD1 JUMPI DUP1 PUSH4 0x2B14386F EQ PUSH2 0xED JUMPI DUP1 PUSH4 0x2E35253A EQ PUSH2 0x109 JUMPI DUP1 PUSH4 0x3FED508F EQ PUSH2 0x128 JUMPI DUP1 PUSH4 0x56C90AAD EQ PUSH2 0x144 JUMPI DUP1 PUSH4 0x5B3E9D39 EQ PUSH2 0x160 JUMPI JUMPDEST PUSH0 DUP1 REVERT JUMPDEST PUSH2 0xEB PUSH1 0x4 DUP1 CALLDATASIZE SUB DUP2 ADD SWAP1 PUSH2 0xE6 SWAP2 SWAP1 PUSH2 0x929 JUMP JUMPDEST PUSH2 0x244 JUMP JUMPDEST STOP JUMPDEST PUSH2 0x107 PUSH1 0x4 DUP1 CALLDATASIZE SUB DUP2 ADD SWAP1 PUSH2 0x102 SWAP2 SWAP1 PUSH2 0x970 JUMP JUMPDEST PUSH2 0x26B JUMP JUMPDEST STOP JUMPDEST PUSH2 0x111 PUSH2 0x2A7 JUMP JUMPDEST PUSH1 0x40 MLOAD PUSH2 0x11F SWAP3 SWAP2 SWAP1 PUSH2 0xA64 JUMP JUMPDEST PUSH1 0x40 MLOAD DUP1 SWAP2 SUB SWAP1 RETURN JUMPDEST PUSH2 0x142 PUSH1 0x4 DUP1 CALLDATASIZE SUB DUP2 ADD SWAP1 PUSH2 0x13D SWAP2 SWAP1 PUSH2 0xAF1 JUMP JUMPDEST PUSH2 0x353 JUMP JUMPDEST STOP JUMPDEST PUSH2 0x15E PUSH1 0x4 DUP1 CALLDATASIZE SUB DUP2 ADD SWAP1 PUSH2 0x159 SWAP2 SWAP1 PUSH2 0xC02 JUMP JUMPDEST PUSH2 0x401 JUMP JUMPDEST STOP JUMPDEST PUSH2 0x17A PUSH1 0x4 DUP1 CALLDATASIZE SUB DUP2 ADD SWAP1 PUSH2 0x175 SWAP2 SWAP1 PUSH2 0xC49 JUMP JUMPDEST PUSH2 0x46A JUMP JUMPDEST STOP JUMPDEST PUSH2 0x196 PUSH1 0x4 DUP1 CALLDATASIZE SUB DUP2 ADD SWAP1 PUSH2 0x191 SWAP2 SWAP1 PUSH2 0xC49 JUMP JUMPDEST PUSH2 0x480 JUMP JUMPDEST STOP JUMPDEST PUSH2 0x1A0 PUSH2 0x496 JUMP JUMPDEST PUSH1 0x40 MLOAD PUSH2 0x1AD SWAP2 SWAP1 PUSH2 0xD65 JUMP JUMPDEST PUSH1 0x40 MLOAD DUP1 SWAP2 SUB SWAP1 RETURN JUMPDEST PUSH2 0x1D0 PUSH1 0x4 DUP1 CALLDATASIZE SUB DUP2 ADD SWAP1 PUSH2 0x1CB SWAP2 SWAP1 PUSH2 0x970 JUMP JUMPDEST PUSH2 0x5BA JUMP JUMPDEST STOP JUMPDEST PUSH2 0x1EC PUSH1 0x4 DUP1 CALLDATASIZE SUB DUP2 ADD SWAP1 PUSH2 0x1E7 SWAP2 SWAP1 PUSH2 0x970 JUMP JUMPDEST PUSH2 0x5F6 JUMP JUMPDEST STOP JUMPDEST PUSH2 0x1F6 PUSH2 0x632 JUMP JUMPDEST PUSH1 0x40 MLOAD PUSH2 0x203 SWAP2 SWAP1 PUSH2 0xD94 JUMP JUMPDEST PUSH1 0x40 MLOAD DUP1 SWAP2 SUB SWAP1 RETURN JUMPDEST PUSH2 0x226 PUSH1 0x4 DUP1 CALLDATASIZE SUB DUP2 ADD SWAP1 PUSH2 0x221 SWAP2 SWAP1 PUSH2 0xDAD JUMP JUMPDEST PUSH2 0x63A JUMP JUMPDEST STOP JUMPDEST PUSH2 0x242 PUSH1 0x4 DUP1 CALLDATASIZE SUB DUP2 ADD SWAP1 PUSH2 0x23D SWAP2 SWAP1 PUSH2 0xAF1 JUMP JUMPDEST PUSH2 0x643 JUMP JUMPDEST STOP JUMPDEST DUP1 PUSH1 0x4 PUSH0 DUP3 ADD MLOAD DUP2 PUSH0 ADD SSTORE PUSH1 0x20 DUP3 ADD MLOAD DUP2 PUSH1 0x1 ADD SWAP1 DUP2 PUSH2 0x264 SWAP2 SWAP1 PUSH2 0xFD2 JUMP JUMPDEST POP SWAP1 POP POP POP JUMP JUMPDEST PUSH1 0x40 MLOAD DUP1 PUSH1 0x40 ADD PUSH1 0x40 MSTORE DUP1 DUP4 DUP2 MSTORE PUSH1 0x20 ADD DUP3 DUP2 MSTORE POP PUSH1 0x4 PUSH0 DUP3 ADD MLOAD DUP2 PUSH0 ADD SSTORE PUSH1 0x20 DUP3 ADD MLOAD DUP2 PUSH1 0x1 ADD SWAP1 DUP2 PUSH2 0x29F SWAP2 SWAP1 PUSH2 0xFD2 JUMP JUMPDEST POP SWAP1 POP POP POP POP JUMP JUMPDEST PUSH1 0x60 PUSH0 PUSH1 0x8 PUSH1 0x1 ADD PUSH1 0x8 PUSH1 0x2 ADD PUSH0 SWAP1 SLOAD SWAP1 PUSH2 0x100 EXP SWAP1 DIV PUSH1 0xE8 SHL DUP2 DUP1 SLOAD PUSH2 0x2CD SWAP1 PUSH2 0xE05 JUMP JUMPDEST DUP1 PUSH1 0x1F ADD PUSH1 0x20 DUP1 SWAP2 DIV MUL PUSH1 0x20 ADD PUSH1 0x40 MLOAD SWAP1 DUP2 ADD PUSH1 0x40 MSTORE DUP1 SWAP3 SWAP2 SWAP1 DUP2 DUP2 MSTORE PUSH1 0x20 ADD DUP3 DUP1 SLOAD PUSH2 0x2F9 SWAP1 PUSH2 0xE05 JUMP JUMPDEST DUP1 ISZERO PUSH2 0x344 JUMPI DUP1 PUSH1 0x1F LT PUSH2 0x31B JUMPI PUSH2 0x100 DUP1 DUP4 SLOAD DIV MUL DUP4 MSTORE SWAP2 PUSH1 0x20 ADD SWAP2 PUSH2 0x344 JUMP JUMPDEST DUP3 ADD SWAP2 SWAP1 PUSH0 MSTORE PUSH1 0x20 PUSH0 KECCAK256 SWAP1 JUMPDEST DUP2 SLOAD DUP2 MSTORE SWAP1 PUSH1 0x1 ADD SWAP1 PUSH1 0x20 ADD DUP1 DUP4 GT PUSH2 0x327 JUMPI DUP3 SWAP1 SUB PUSH1 0x1F AND DUP3 ADD SWAP2 JUMPDEST POP POP POP POP POP SWAP2 POP SWAP2 POP SWAP2 POP SWAP1 SWAP2 JUMP JUMPDEST PUSH1 0x40 MLOAD DUP1 PUSH1 0x80 ADD PUSH1 0x40 MSTORE DUP1 DUP6 DUP2 MSTORE PUSH1 0x20 ADD DUP5 DUP2 MSTORE PUSH1 0x20 ADD DUP4 PUSH29 0xFFFFFFFFFFFFFFFFFFFFFFFFFFFFFFFFFFFFFFFFFFFFFFFFFFFFFFFFFF NOT AND DUP2 MSTORE PUSH1 0x20 ADD DUP3 ISZERO ISZERO DUP2 MSTORE POP PUSH1 0x8 PUSH0 DUP3 ADD MLOAD DUP2 PUSH0 ADD SSTORE PUSH1 0x20 DUP3 ADD MLOAD DUP2 PUSH1 0x1 ADD SWAP1 DUP2 PUSH2 0x3B5 SWAP2 SWAP1 PUSH2 0xFD2 JUMP JUMPDEST POP PUSH1 0x40 DUP3 ADD MLOAD DUP2 PUSH1 0x2 ADD PUSH0 PUSH2 0x100 EXP DUP2 SLOAD DUP2 PUSH3 0xFFFFFF MUL NOT AND SWAP1 DUP4 PUSH1 0xE8 SHR MUL OR SWAP1 SSTORE POP PUSH1 0x60 DUP3 ADD MLOAD DUP2 PUSH1 0x2 ADD PUSH1 0x3 PUSH2 0x100 EXP DUP2 SLOAD DUP2 PUSH1 0xFF MUL NOT AND SWAP1 DUP4 ISZERO ISZERO MUL OR SWAP1 SSTORE POP SWAP1 POP POP POP POP POP POP JUMP JUMPDEST DUP1 PUSH1 0x8 PUSH0 DUP3 ADD MLOAD DUP2 PUSH0 ADD SSTORE PUSH1 0x20 DUP3 ADD MLOAD DUP2 PUSH1 0x1 ADD SWAP1 DUP2 PUSH2 0x421 SWAP2 SWAP1 PUSH2 0xFD2 JUMP JUMPDEST POP PUSH1 0x40 DUP3 ADD MLOAD DUP2 PUSH1 0x2 ADD PUSH0 PUSH2 0x100 EXP DUP2 SLOAD DUP2 PUSH3 0xFFFFFF MUL NOT AND SWAP1 DUP4 PUSH1 0xE8 SHR MUL OR SWAP1 SSTORE POP PUSH1 0x60 DUP3 ADD MLOAD DUP2 PUSH1 0x2 ADD PUSH1 0x3 PUSH2 0x100 EXP DUP2 SLOAD DUP2 PUSH1 0xFF MUL NOT AND SWAP1 DUP4 ISZERO ISZERO MUL OR SWAP1 SSTORE POP SWAP1 POP POP POP JUMP JUMPDEST DUP1 PUSH1 0x8 PUSH1 0x1 ADD SWAP1 DUP2 PUSH2 0x47C SWAP2 SWAP1 PUSH2 0xFD2 JUMP JUMPDEST POP POP JUMP JUMPDEST DUP1 PUSH1 0x4 PUSH1 0x1 ADD SWAP1 DUP2 PUSH2 0x492 SWAP2 SWAP1 PUSH2 0xFD2 JUMP JUMPDEST POP POP JUMP JUMPDEST PUSH2 0x49E PUSH2 0x6F1 JUMP JUMPDEST PUSH1 0x8 PUSH1 0x40 MLOAD DUP1 PUSH1 0x80 ADD PUSH1 0x40 MSTORE SWAP1 DUP2 PUSH0 DUP3 ADD SLOAD DUP2 MSTORE PUSH1 0x20 ADD PUSH1 0x1 DUP3 ADD DUP1 SLOAD PUSH2 0x4C4 SWAP1 PUSH2 0xE05 JUMP JUMPDEST DUP1 PUSH1 0x1F ADD PUSH1 0x20 DUP1 SWAP2 DIV MUL PUSH1 0x20 ADD PUSH1 0x40 MLOAD SWAP1 DUP2 ADD PUSH1 0x40 MSTORE DUP1 SWAP3 SWAP2 SWAP1 DUP2 DUP2 MSTORE PUSH1 0x20 ADD DUP3 DUP1 SLOAD PUSH2 0x4F0 SWAP1 PUSH2 0xE05 JUMP JUMPDEST DUP1 ISZERO PUSH2 0x53B JUMPI DUP1 PUSH1 0x1F LT PUSH2 0x512 JUMPI PUSH2 0x100 DUP1 DUP4 SLOAD DIV MUL DUP4 MSTORE SWAP2 PUSH1 0x20 ADD SWAP2 PUSH2 0x53B JUMP JUMPDEST DUP3 ADD SWAP2 SWAP1 PUSH0 MSTORE PUSH1 0x20 PUSH0 KECCAK256 SWAP1 JUMPDEST DUP2 SLOAD DUP2 MSTORE SWAP1 PUSH1 0x1 ADD SWAP1 PUSH1 0x20 ADD DUP1 DUP4 GT PUSH2 0x51E JUMPI DUP3 SWAP1 SUB PUSH1 0x1F AND DUP3 ADD SWAP2 JUMPDEST POP POP POP POP POP DUP2 MSTORE PUSH1 0x20 ADD PUSH1 0x2 DUP3 ADD PUSH0 SWAP1 SLOAD SWAP1 PUSH2 0x100 EXP SWAP1 DIV PUSH1 0xE8 SHL PUSH29 0xFFFFFFFFFFFFFFFFFFFFFFFFFFFFFFFFFFFFFFFFFFFFFFFFFFFFFFFFFF NOT AND PUSH29 0xFFFFFFFFFFFFFFFFFFFFFFFFFFFFFFFFFFFFFFFFFFFFFFFFFFFFFFFFFF NOT AND DUP2 MSTORE PUSH1 0x20 ADD PUSH1 0x2 DUP3 ADD PUSH1 0x3 SWAP1 SLOAD SWAP1 PUSH2 0x100 EXP SWAP1 DIV PUSH1 0xFF AND ISZERO ISZERO ISZERO ISZERO DUP2 MSTORE POP POP SWAP1 POP SWAP1 JUMP JUMPDEST PUSH1 0x40 MLOAD DUP1 PUSH1 0x40 ADD PUSH1 0x40 MSTORE DUP1 DUP4 DUP2 MSTORE PUSH1 0x20 ADD DUP3 DUP2 MSTORE POP PUSH1 0x4 PUSH0 DUP3 ADD MLOAD DUP2 PUSH0 ADD SSTORE PUSH1 0x20 DUP3 ADD MLOAD DUP2 PUSH1 0x1 ADD SWAP1 DUP2 PUSH2 0x5EE SWAP2 SWAP1 PUSH2 0xFD2 JUMP JUMPDEST POP SWAP1 POP POP POP POP JUMP JUMPDEST PUSH1 0x40 MLOAD DUP1 PUSH1 0x40 ADD PUSH1 0x40 MSTORE DUP1 DUP4 DUP2 MSTORE PUSH1 0x20 ADD DUP3 DUP2 MSTORE POP PUSH1 0x6 PUSH0 DUP3 ADD MLOAD DUP2 PUSH0 ADD SSTORE PUSH1 0x20 DUP3 ADD MLOAD DUP2 PUSH1 0x1 ADD SWAP1 DUP2 PUSH2 0x62A SWAP2 SWAP1 PUSH2 0xFD2 JUMP JUMPDEST POP SWAP1 POP POP POP POP JUMP JUMPDEST PUSH0 DUP1 SLOAD SWAP1 POP SWAP1 JUMP JUMPDEST DUP1 PUSH0 DUP2 SWAP1 SSTORE POP POP JUMP JUMPDEST PUSH1 0x40 MLOAD DUP1 PUSH1 0x80 ADD PUSH1 0x40 MSTORE DUP1 DUP6 DUP2 MSTORE PUSH1 0x20 ADD DUP5 DUP2 MSTORE PUSH1 0x20 ADD DUP4 PUSH29 0xFFFFFFFFFFFFFFFFFFFFFFFFFFFFFFFFFFFFFFFFFFFFFFFFFFFFFFFFFF NOT AND DUP2 MSTORE PUSH1 0x20 ADD DUP3 ISZERO ISZERO DUP2 MSTORE POP PUSH1 0x8 PUSH0 DUP3 ADD MLOAD DUP2 PUSH0 ADD SSTORE PUSH1 0x20 DUP3 ADD MLOAD DUP2 PUSH1 0x1 ADD SWAP1 DUP2 PUSH2 0x6A5 SWAP2 SWAP1 PUSH2 0xFD2 JUMP JUMPDEST POP PUSH1 0x40 DUP3 ADD MLOAD DUP2 PUSH1 0x2 ADD PUSH0 PUSH2 0x100 EXP DUP2 SLOAD DUP2 PUSH3 0xFFFFFF MUL NOT AND SWAP1 DUP4 PUSH1 0xE8 SHR MUL OR SWAP1 SSTORE POP PUSH1 0x60 DUP3 ADD MLOAD DUP2 PUSH1 0x2 ADD PUSH1 0x3 PUSH2 0x100 EXP DUP2 SLOAD DUP2 PUSH1 0xFF MUL NOT AND SWAP1 DUP4 ISZERO ISZERO MUL OR SWAP1 SSTORE POP SWAP1 POP POP POP POP POP POP JUMP JUMPDEST PUSH1 0x40 MLOAD DUP1 PUSH1 0x80 ADD PUSH1 0x40 MSTORE DUP1 PUSH0 DUP2 MSTORE PUSH1 0x20 ADD PUSH1 0x60 DUP2 MSTORE PUSH1 0x20 ADD PUSH0 PUSH29 0xFFFFFFFFFFFFFFFFFFFFFFFFFFFFFFFFFFFFFFFFFFFFFFFFFFFFFFFFFF NOT AND DUP2 MSTORE PUSH1 0x20 ADD PUSH0 ISZERO ISZERO DUP2 MSTORE POP SWAP1 JUMP JUMPDEST PUSH0 PUSH1 0x40 MLOAD SWAP1 POP SWAP1 JUMP JUMPDEST PUSH0 DUP1 REVERT JUMPDEST PUSH0 DUP1 REVERT JUMPDEST PUSH0 DUP1 REVERT JUMPDEST PUSH0 PUSH1 0x1F NOT PUSH1 0x1F DUP4 ADD AND SWAP1 POP SWAP2 SWAP1 POP JUMP JUMPDEST PUSH32 0x4E487B7100000000000000000000000000000000000000000000000000000000 PUSH0 MSTORE PUSH1 0x41 PUSH1 0x4 MSTORE PUSH1 0x24 PUSH0 REVERT JUMPDEST PUSH2 0x793 DUP3 PUSH2 0x74D JUMP JUMPDEST DUP2 ADD DUP2 DUP2 LT PUSH8 0xFFFFFFFFFFFFFFFF DUP3 GT OR ISZERO PUSH2 0x7B2 JUMPI PUSH2 0x7B1 PUSH2 0x75D JUMP JUMPDEST JUMPDEST DUP1 PUSH1 0x40 MSTORE POP POP POP JUMP JUMPDEST PUSH0 PUSH2 0x7C4 PUSH2 0x738 JUMP JUMPDEST SWAP1 POP PUSH2 0x7D0 DUP3 DUP3 PUSH2 0x78A JUMP JUMPDEST SWAP2 SWAP1 POP JUMP JUMPDEST PUSH0 DUP1 REVERT JUMPDEST PUSH0 DUP2 SWAP1 POP SWAP2 SWAP1 POP JUMP JUMPDEST PUSH2 0x7EB DUP2 PUSH2 0x7D9 JUMP JUMPDEST DUP2 EQ PUSH2 0x7F5 JUMPI PUSH0 DUP1 REVERT JUMPDEST POP JUMP JUMPDEST PUSH0 DUP2 CALLDATALOAD SWAP1 POP PUSH2 0x806 DUP2 PUSH2 0x7E2 JUMP JUMPDEST SWAP3 SWAP2 POP POP JUMP JUMPDEST PUSH0 DUP1 REVERT JUMPDEST PUSH0 DUP1 REVERT JUMPDEST PUSH0 PUSH8 0xFFFFFFFFFFFFFFFF DUP3 GT ISZERO PUSH2 0x82E JUMPI PUSH2 0x82D PUSH2 0x75D JUMP JUMPDEST JUMPDEST PUSH2 0x837 DUP3 PUSH2 0x74D JUMP JUMPDEST SWAP1 POP PUSH1 0x20 DUP2 ADD SWAP1 POP SWAP2 SWAP1 POP JUMP JUMPDEST DUP3 DUP2 DUP4 CALLDATACOPY PUSH0 DUP4 DUP4 ADD MSTORE POP POP POP JUMP JUMPDEST PUSH0 PUSH2 0x864 PUSH2 0x85F DUP5 PUSH2 0x814 JUMP JUMPDEST PUSH2 0x7BB JUMP JUMPDEST SWAP1 POP DUP3 DUP2 MSTORE PUSH1 0x20 DUP2 ADD DUP5 DUP5 DUP5 ADD GT ISZERO PUSH2 0x880 JUMPI PUSH2 0x87F PUSH2 0x810 JUMP JUMPDEST JUMPDEST PUSH2 0x88B DUP5 DUP3 DUP6 PUSH2 0x844 JUMP JUMPDEST POP SWAP4 SWAP3 POP POP POP JUMP JUMPDEST PUSH0 DUP3 PUSH1 0x1F DUP4 ADD SLT PUSH2 0x8A7 JUMPI PUSH2 0x8A6 PUSH2 0x80C JUMP JUMPDEST JUMPDEST DUP2 CALLDATALOAD PUSH2 0x8B7 DUP5 DUP3 PUSH1 0x20 DUP7 ADD PUSH2 0x852 JUMP JUMPDEST SWAP2 POP POP SWAP3 SWAP2 POP POP JUMP JUMPDEST PUSH0 PUSH1 0x40 DUP3 DUP5 SUB SLT ISZERO PUSH2 0x8D5 JUMPI PUSH2 0x8D4 PUSH2 0x749 JUMP JUMPDEST JUMPDEST PUSH2 0x8DF PUSH1 0x40 PUSH2 0x7BB JUMP JUMPDEST SWAP1 POP PUSH0 PUSH2 0x8EE DUP5 DUP3 DUP6 ADD PUSH2 0x7F8 JUMP JUMPDEST PUSH0 DUP4 ADD MSTORE POP PUSH1 0x20 DUP3 ADD CALLDATALOAD PUSH8 0xFFFFFFFFFFFFFFFF DUP2 GT ISZERO PUSH2 0x911 JUMPI PUSH2 0x910 PUSH2 0x7D5 JUMP JUMPDEST JUMPDEST PUSH2 0x91D DUP5 DUP3 DUP6 ADD PUSH2 0x893 JUMP JUMPDEST PUSH1 0x20 DUP4 ADD MSTORE POP SWAP3 SWAP2 POP POP JUMP JUMPDEST PUSH0 PUSH1 0x20 DUP3 DUP5 SUB SLT ISZERO PUSH2 0x93E JUMPI PUSH2 0x93D PUSH2 0x741 JUMP JUMPDEST JUMPDEST PUSH0 DUP3 ADD CALLDATALOAD PUSH8 0xFFFFFFFFFFFFFFFF DUP2 GT ISZERO PUSH2 0x95B JUMPI PUSH2 0x95A PUSH2 0x745 JUMP JUMPDEST JUMPDEST PUSH2 0x967 DUP5 DUP3 DUP6 ADD PUSH2 0x8C0 JUMP JUMPDEST SWAP2 POP POP SWAP3 SWAP2 POP POP JUMP JUMPDEST PUSH0 DUP1 PUSH1 0x40 DUP4 DUP6 SUB SLT ISZERO PUSH2 0x986 JUMPI PUSH2 0x985 PUSH2 0x741 JUMP JUMPDEST JUMPDEST PUSH0 PUSH2 0x993 DUP6 DUP3 DUP7 ADD PUSH2 0x7F8 JUMP JUMPDEST SWAP3 POP POP PUSH1 0x20 DUP4 ADD CALLDATALOAD PUSH8 0xFFFFFFFFFFFFFFFF DUP2 GT ISZERO PUSH2 0x9B4 JUMPI PUSH2 0x9B3 PUSH2 0x745 JUMP JUMPDEST JUMPDEST PUSH2 0x9C0 DUP6 DUP3 DUP7 ADD PUSH2 0x893 JUMP JUMPDEST SWAP2 POP POP SWAP3 POP SWAP3 SWAP1 POP JUMP JUMPDEST PUSH0 DUP2 MLOAD SWAP1 POP SWAP2 SWAP1 POP JUMP JUMPDEST PUSH0 DUP3 DUP3 MSTORE PUSH1 0x20 DUP3 ADD SWAP1 POP SWAP3 SWAP2 POP POP JUMP JUMPDEST DUP3 DUP2 DUP4 MCOPY PUSH0 DUP4 DUP4 ADD MSTORE POP POP POP JUMP JUMPDEST PUSH0 PUSH2 0x9FC DUP3 PUSH2 0x9CA JUMP JUMPDEST PUSH2 0xA06 DUP2 DUP6 PUSH2 0x9D4 JUMP JUMPDEST SWAP4 POP PUSH2 0xA16 DUP2 DUP6 PUSH1 0x20 DUP7 ADD PUSH2 0x9E4 JUMP JUMPDEST PUSH2 0xA1F DUP2 PUSH2 0x74D JUMP JUMPDEST DUP5 ADD SWAP2 POP POP SWAP3 SWAP2 POP POP JUMP JUMPDEST PUSH0 PUSH32 0xFFFFFF0000000000000000000000000000000000000000000000000000000000 DUP3 AND SWAP1 POP SWAP2 SWAP1 POP JUMP JUMPDEST PUSH2 0xA5E DUP2 PUSH2 0xA2A JUMP JUMPDEST DUP3 MSTORE POP POP JUMP JUMPDEST PUSH0 PUSH1 0x40 DUP3 ADD SWAP1 POP DUP2 DUP2 SUB PUSH0 DUP4 ADD MSTORE PUSH2 0xA7C DUP2 DUP6 PUSH2 0x9F2 JUMP JUMPDEST SWAP1 POP PUSH2 0xA8B PUSH1 0x20 DUP4 ADD DUP5 PUSH2 0xA55 JUMP JUMPDEST SWAP4 SWAP3 POP POP POP JUMP JUMPDEST PUSH2 0xA9B DUP2 PUSH2 0xA2A JUMP JUMPDEST DUP2 EQ PUSH2 0xAA5 JUMPI PUSH0 DUP1 REVERT JUMPDEST POP JUMP JUMPDEST PUSH0 DUP2 CALLDATALOAD SWAP1 POP PUSH2 0xAB6 DUP2 PUSH2 0xA92 JUMP JUMPDEST SWAP3 SWAP2 POP POP JUMP JUMPDEST PUSH0 DUP2 ISZERO ISZERO SWAP1 POP SWAP2 SWAP1 POP JUMP JUMPDEST PUSH2 0xAD0 DUP2 PUSH2 0xABC JUMP JUMPDEST DUP2 EQ PUSH2 0xADA JUMPI PUSH0 DUP1 REVERT JUMPDEST POP JUMP JUMPDEST PUSH0 DUP2 CALLDATALOAD SWAP1 POP PUSH2 0xAEB DUP2 PUSH2 0xAC7 JUMP JUMPDEST SWAP3 SWAP2 POP POP JUMP JUMPDEST PUSH0 DUP1 PUSH0 DUP1 PUSH1 0x80 DUP6 DUP8 SUB SLT ISZERO PUSH2 0xB09 JUMPI PUSH2 0xB08 PUSH2 0x741 JUMP JUMPDEST JUMPDEST PUSH0 PUSH2 0xB16 DUP8 DUP3 DUP9 ADD PUSH2 0x7F8 JUMP JUMPDEST SWAP5 POP POP PUSH1 0x20 DUP6 ADD CALLDATALOAD PUSH8 0xFFFFFFFFFFFFFFFF DUP2 GT ISZERO PUSH2 0xB37 JUMPI PUSH2 0xB36 PUSH2 0x745 JUMP JUMPDEST JUMPDEST PUSH2 0xB43 DUP8 DUP3 DUP9 ADD PUSH2 0x893 JUMP JUMPDEST SWAP4 POP POP PUSH1 0x40 PUSH2 0xB54 DUP8 DUP3 DUP9 ADD PUSH2 0xAA8 JUMP JUMPDEST SWAP3 POP POP PUSH1 0x60 PUSH2 0xB65 DUP8 DUP3 DUP9 ADD PUSH2 0xADD JUMP JUMPDEST SWAP2 POP POP SWAP3 SWAP6 SWAP2 SWAP5 POP SWAP3 POP JUMP JUMPDEST PUSH0 PUSH1 0x80 DUP3 DUP5 SUB SLT ISZERO PUSH2 0xB86 JUMPI PUSH2 0xB85 PUSH2 0x749 JUMP JUMPDEST JUMPDEST PUSH2 0xB90 PUSH1 0x80 PUSH2 0x7BB JUMP JUMPDEST SWAP1 POP PUSH0 PUSH2 0xB9F DUP5 DUP3 DUP6 ADD PUSH2 0x7F8 JUMP JUMPDEST PUSH0 DUP4 ADD MSTORE POP PUSH1 0x20 DUP3 ADD CALLDATALOAD PUSH8 0xFFFFFFFFFFFFFFFF DUP2 GT ISZERO PUSH2 0xBC2 JUMPI PUSH2 0xBC1 PUSH2 0x7D5 JUMP JUMPDEST JUMPDEST PUSH2 0xBCE DUP5 DUP3 DUP6 ADD PUSH2 0x893 JUMP JUMPDEST PUSH1 0x20 DUP4 ADD MSTORE POP PUSH1 0x40 PUSH2 0xBE2 DUP5 DUP3 DUP6 ADD PUSH2 0xAA8 JUMP JUMPDEST PUSH1 0x40 DUP4 ADD MSTORE POP PUSH1 0x60 PUSH2 0xBF6 DUP5 DUP3 DUP6 ADD PUSH2 0xADD JUMP JUMPDEST PUSH1 0x60 DUP4 ADD MSTORE POP SWAP3 SWAP2 POP POP JUMP JUMPDEST PUSH0 PUSH1 0x20 DUP3 DUP5 SUB SLT ISZERO PUSH2 0xC17 JUMPI PUSH2 0xC16 PUSH2 0x741 JUMP JUMPDEST JUMPDEST PUSH0 DUP3 ADD CALLDATALOAD PUSH8 0xFFFFFFFFFFFFFFFF DUP2 GT ISZERO PUSH2 0xC34 JUMPI PUSH2 0xC33 PUSH2 0x745 JUMP JUMPDEST JUMPDEST PUSH2 0xC40 DUP5 DUP3 DUP6 ADD PUSH2 0xB71 JUMP JUMPDEST SWAP2 POP POP SWAP3 SWAP2 POP POP JUMP JUMPDEST PUSH0 PUSH1 0x20 DUP3 DUP5 SUB SLT ISZERO PUSH2 0xC5E JUMPI PUSH2 0xC5D PUSH2 0x741 JUMP JUMPDEST JUMPDEST PUSH0 DUP3 ADD CALLDATALOAD PUSH8 0xFFFFFFFFFFFFFFFF DUP2 GT ISZERO PUSH2 0xC7B JUMPI PUSH2 0xC7A PUSH2 0x745 JUMP JUMPDEST JUMPDEST PUSH2 0xC87 DUP5 DUP3 DUP6 ADD PUSH2 0x893 JUMP JUMPDEST SWAP2 POP POP SWAP3 SWAP2 POP POP JUMP JUMPDEST PUSH2 0xC99 DUP2 PUSH2 0x7D9 JUMP JUMPDEST DUP3 MSTORE POP POP JUMP JUMPDEST PUSH0 DUP3 DUP3 MSTORE PUSH1 0x20 DUP3 ADD SWAP1 POP SWAP3 SWAP2 POP POP JUMP JUMPDEST PUSH0 PUSH2 0xCB9 DUP3 PUSH2 0x9CA JUMP JUMPDEST PUSH2 0xCC3 DUP2 DUP6 PUSH2 0xC9F JUMP JUMPDEST SWAP4 POP PUSH2 0xCD3 DUP2 DUP6 PUSH1 0x20 DUP7 ADD PUSH2 0x9E4 JUMP JUMPDEST PUSH2 0xCDC DUP2 PUSH2 0x74D JUMP JUMPDEST DUP5 ADD SWAP2 POP POP SWAP3 SWAP2 POP POP JUMP JUMPDEST PUSH2 0xCF0 DUP2 PUSH2 0xA2A JUMP JUMPDEST DUP3 MSTORE POP POP JUMP JUMPDEST PUSH2 0xCFF DUP2 PUSH2 0xABC JUMP JUMPDEST DUP3 MSTORE POP POP JUMP JUMPDEST PUSH0 PUSH1 0x80 DUP4 ADD PUSH0 DUP4 ADD MLOAD PUSH2 0xD1A PUSH0 DUP7 ADD DUP3 PUSH2 0xC90 JUMP JUMPDEST POP PUSH1 0x20 DUP4 ADD MLOAD DUP5 DUP3 SUB PUSH1 0x20 DUP7 ADD MSTORE PUSH2 0xD32 DUP3 DUP3 PUSH2 0xCAF JUMP JUMPDEST SWAP2 POP POP PUSH1 0x40 DUP4 ADD MLOAD PUSH2 0xD47 PUSH1 0x40 DUP7 ADD DUP3 PUSH2 0xCE7 JUMP JUMPDEST POP PUSH1 0x60 DUP4 ADD MLOAD PUSH2 0xD5A PUSH1 0x60 DUP7 ADD DUP3 PUSH2 0xCF6 JUMP JUMPDEST POP DUP1 SWAP2 POP POP SWAP3 SWAP2 POP POP JUMP JUMPDEST PUSH0 PUSH1 0x20 DUP3 ADD SWAP1 POP DUP2 DUP2 SUB PUSH0 DUP4 ADD MSTORE PUSH2 0xD7D DUP2 DUP5 PUSH2 0xD05 JUMP JUMPDEST SWAP1 POP SWAP3 SWAP2 POP POP JUMP JUMPDEST PUSH2 0xD8E DUP2 PUSH2 0x7D9 JUMP JUMPDEST DUP3 MSTORE POP POP JUMP JUMPDEST PUSH0 PUSH1 0x20 DUP3 ADD SWAP1 POP PUSH2 0xDA7 PUSH0 DUP4 ADD DUP5 PUSH2 0xD85 JUMP JUMPDEST SWAP3 SWAP2 POP POP JUMP JUMPDEST PUSH0 PUSH1 0x20 DUP3 DUP5 SUB SLT ISZERO PUSH2 0xDC2 JUMPI PUSH2 0xDC1 PUSH2 0x741 JUMP JUMPDEST JUMPDEST PUSH0 PUSH2 0xDCF DUP5 DUP3 DUP6 ADD PUSH2 0x7F8 JUMP JUMPDEST SWAP2 POP POP SWAP3 SWAP2 POP POP JUMP JUMPDEST PUSH32 0x4E487B7100000000000000000000000000000000000000000000000000000000 PUSH0 MSTORE PUSH1 0x22 PUSH1 0x4 MSTORE PUSH1 0x24 PUSH0 REVERT JUMPDEST PUSH0 PUSH1 0x2 DUP3 DIV SWAP1 POP PUSH1 0x1 DUP3 AND DUP1 PUSH2 0xE1C JUMPI PUSH1 0x7F DUP3 AND SWAP2 POP JUMPDEST PUSH1 0x20 DUP3 LT DUP2 SUB PUSH2 0xE2F JUMPI PUSH2 0xE2E PUSH2 0xDD8 JUMP JUMPDEST JUMPDEST POP SWAP2 SWAP1 POP JUMP JUMPDEST PUSH0 DUP2 SWAP1 POP DUP2 PUSH0 MSTORE PUSH1 0x20 PUSH0 KECCAK256 SWAP1 POP SWAP2 SWAP1 POP JUMP JUMPDEST PUSH0 PUSH1 0x20 PUSH1 0x1F DUP4 ADD DIV SWAP1 POP SWAP2 SWAP1 POP JUMP JUMPDEST PUSH0 DUP3 DUP3 SHL SWAP1 POP SWAP3 SWAP2 POP POP JUMP JUMPDEST PUSH0 PUSH1 0x8 DUP4 MUL PUSH2 0xE91 PUSH32 0xFFFFFFFFFFFFFFFFFFFFFFFFFFFFFFFFFFFFFFFFFFFFFFFFFFFFFFFFFFFFFFFF DUP3 PUSH2 0xE56 JUMP JUMPDEST PUSH2 0xE9B DUP7 DUP4 PUSH2 0xE56 JUMP JUMPDEST SWAP6 POP DUP1 NOT DUP5 AND SWAP4 POP DUP1 DUP7 AND DUP5 OR SWAP3 POP POP POP SWAP4 SWAP3 POP POP POP JUMP JUMPDEST PUSH0 DUP2 SWAP1 POP SWAP2 SWAP1 POP JUMP JUMPDEST PUSH0 PUSH2 0xED6 PUSH2 0xED1 PUSH2 0xECC DUP5 PUSH2 0x7D9 JUMP JUMPDEST PUSH2 0xEB3 JUMP JUMPDEST PUSH2 0x7D9 JUMP JUMPDEST SWAP1 POP SWAP2 SWAP1 POP JUMP JUMPDEST PUSH0 DUP2 SWAP1 POP SWAP2 SWAP1 POP JUMP JUMPDEST PUSH2 0xEEF DUP4 PUSH2 0xEBC JUMP JUMPDEST PUSH2 0xF03 PUSH2 0xEFB DUP3 PUSH2 0xEDD JUMP JUMPDEST DUP5 DUP5 SLOAD PUSH2 0xE62 JUMP JUMPDEST DUP3 SSTORE POP POP POP POP JUMP JUMPDEST PUSH0 SWAP1 JUMP JUMPDEST PUSH2 0xF17 PUSH2 0xF0B JUMP JUMPDEST PUSH2 0xF22 DUP2 DUP5 DUP5 PUSH2 0xEE6 JUMP JUMPDEST POP POP POP JUMP JUMPDEST JUMPDEST DUP2 DUP2 LT ISZERO PUSH2 0xF45 JUMPI PUSH2 0xF3A PUSH0 DUP3 PUSH2 0xF0F JUMP JUMPDEST PUSH1 0x1 DUP2 ADD SWAP1 POP PUSH2 0xF28 JUMP JUMPDEST POP POP JUMP JUMPDEST PUSH1 0x1F DUP3 GT ISZERO PUSH2 0xF8A JUMPI PUSH2 0xF5B DUP2 PUSH2 0xE35 JUMP JUMPDEST PUSH2 0xF64 DUP5 PUSH2 0xE47 JUMP JUMPDEST DUP2 ADD PUSH1 0x20 DUP6 LT ISZERO PUSH2 0xF73 JUMPI DUP2 SWAP1 POP JUMPDEST PUSH2 0xF87 PUSH2 0xF7F DUP6 PUSH2 0xE47 JUMP JUMPDEST DUP4 ADD DUP3 PUSH2 0xF27 JUMP JUMPDEST POP POP JUMPDEST POP POP POP JUMP JUMPDEST PUSH0 DUP3 DUP3 SHR SWAP1 POP SWAP3 SWAP2 POP POP JUMP JUMPDEST PUSH0 PUSH2 0xFAA PUSH0 NOT DUP5 PUSH1 0x8 MUL PUSH2 0xF8F JUMP JUMPDEST NOT DUP1 DUP4 AND SWAP2 POP POP SWAP3 SWAP2 POP POP JUMP JUMPDEST PUSH0 PUSH2 0xFC2 DUP4 DUP4 PUSH2 0xF9B JUMP JUMPDEST SWAP2 POP DUP3 PUSH1 0x2 MUL DUP3 OR SWAP1 POP SWAP3 SWAP2 POP POP JUMP JUMPDEST PUSH2 0xFDB DUP3 PUSH2 0x9CA JUMP JUMPDEST PUSH8 0xFFFFFFFFFFFFFFFF DUP2 GT ISZERO PUSH2 0xFF4 JUMPI PUSH2 0xFF3 PUSH2 0x75D JUMP JUMPDEST JUMPDEST PUSH2 0xFFE DUP3 SLOAD PUSH2 0xE05 JUMP JUMPDEST PUSH2 0x1009 DUP3 DUP3 DUP6 PUSH2 0xF49 JUMP JUMPDEST PUSH0 PUSH1 0x20 SWAP1 POP PUSH1 0x1F DUP4 GT PUSH1 0x1 DUP2 EQ PUSH2 0x103A JUMPI PUSH0 DUP5 ISZERO PUSH2 0x1028 JUMPI DUP3 DUP8 ADD MLOAD SWAP1 POP JUMPDEST PUSH2 0x1032 DUP6 DUP3 PUSH2 0xFB7 JUMP JUMPDEST DUP7 SSTORE POP PUSH2 0x1099 JUMP JUMPDEST PUSH1 0x1F NOT DUP5 AND PUSH2 0x1048 DUP7 PUSH2 0xE35 JUMP JUMPDEST PUSH0 JUMPDEST DUP3 DUP2 LT ISZERO PUSH2 0x106F JUMPI DUP5 DUP10 ADD MLOAD DUP3 SSTORE PUSH1 0x1 DUP3 ADD SWAP2 POP PUSH1 0x20 DUP6 ADD SWAP5 POP PUSH1 0x20 DUP2 ADD SWAP1 POP PUSH2 0x104A JUMP JUMPDEST DUP7 DUP4 LT ISZERO PUSH2 0x108C JUMPI DUP5 DUP10 ADD MLOAD PUSH2 0x1088 PUSH1 0x1F DUP10 AND DUP3 PUSH2 0xF9B JUMP JUMPDEST DUP4 SSTORE POP JUMPDEST PUSH1 0x1 PUSH1 0x2 DUP9 MUL ADD DUP9 SSTORE POP POP POP JUMPDEST POP POP POP POP POP POP JUMP INVALID LOG2 PUSH5 0x6970667358 0x22 SLT KECCAK256 PUSH6 0x87F2339521DC 0x25 0xFC SGT 0x4E 0xBB 0x2A ORIGIN 0xC9 PUSH16 0xA2B37125D14ADA45C12EB77BDF41DBBE PUSH5 0x736F6C6343 STOP ADDMOD BYTE STOP CALLER "
				},
				"gasEstimates": {
					"creation": {
						"codeDepositCost": "862200",
						"executionCost": "894",
						"totalCost": "863094"
					},
					"external": {
						"getA()": "2476",
						"getS1()": "infinite",
						"getS1_2()": "infinite",
						"setA(uint256)": "22580",
						"setS1(uint256,string,bytes3,bool)": "infinite",
						"setS1_2((uint256,string,bytes3,bool))": "infinite",
						"setS1_3(uint256,string,bytes3,bool)": "infinite",
						"setS1_name(string)": "infinite",
						"setU1(uint256,string)": "infinite",
						"setU1_2((uint256,string))": "infinite",
						"setU1_3(uint256,string)": "infinite",
						"setU1_name(string)": "infinite",
						"setU2(uint256,string)": "infinite"
					}
				},
				"methodIdentifiers": {
					"getA()": "d46300fd",
					"getS1()": "80982f50",
					"getS1_2()": "2e35253a",
					"setA(uint256)": "ee919d50",
					"setS1(uint256,string,bytes3,bool)": "3fed508f",
					"setS1_2((uint256,string,bytes3,bool))": "56c90aad",
					"setS1_3(uint256,string,bytes3,bool)": "f669d772",
					"setS1_name(string)": "5b3e9d39",
					"setU1(uint256,string)": "2b14386f",
					"setU1_2((uint256,string))": "0f22d999",
					"setU1_3(uint256,string)": "ac7a047e",
					"setU1_name(string)": "6010dd66",
					"setU2(uint256,string)": "b0c5e781"
				}
			},
			"storageLayout": {
				"storage": [
					{
						"astId": 3,
						"contract": "contracts/struct.sol:STRUCT",
						"label": "a",
						"offset": 0,
						"slot": "0",
						"type": "t_uint256"
					},
					{
						"astId": 5,
						"contract": "contracts/struct.sol:STRUCT",
						"label": "b",
						"offset": 0,
						"slot": "1",
						"type": "t_string_storage"
					},
					{
						"astId": 7,
						"contract": "contracts/struct.sol:STRUCT",
						"label": "c",
						"offset": 0,
						"slot": "2",
						"type": "t_bytes1"
					},
					{
						"astId": 9,
						"contract": "contracts/struct.sol:STRUCT",
						"label": "d",
						"offset": 0,
						"slot": "3",
						"type": "t_bytes_storage"
					},
					{
						"astId": 17,
						"contract": "contracts/struct.sol:STRUCT",
						"label": "u1",
						"offset": 0,
						"slot": "4",
						"type": "t_struct(user)14_storage"
					},
					{
						"astId": 20,
						"contract": "contracts/struct.sol:STRUCT",
						"label": "u2",
						"offset": 0,
						"slot": "6",
						"type": "t_struct(user)14_storage"
					},
					{
						"astId": 118,
						"contract": "contracts/struct.sol:STRUCT",
						"label": "s1",
						"offset": 0,
						"slot": "8",
						"type": "t_struct(staff)115_storage"
					}
				],
				"types": {
					"t_bool": {
						"encoding": "inplace",
						"label": "bool",
						"numberOfBytes": "1"
					},
					"t_bytes1": {
						"encoding": "inplace",
						"label": "bytes1",
						"numberOfBytes": "1"
					},
					"t_bytes3": {
						"encoding": "inplace",
						"label": "bytes3",
						"numberOfBytes": "3"
					},
					"t_bytes_storage": {
						"encoding": "bytes",
						"label": "bytes",
						"numberOfBytes": "32"
					},
					"t_string_storage": {
						"encoding": "bytes",
						"label": "string",
						"numberOfBytes": "32"
					},
					"t_struct(staff)115_storage": {
						"encoding": "inplace",
						"label": "struct STRUCT.staff",
						"members": [
							{
								"astId": 108,
								"contract": "contracts/struct.sol:STRUCT",
								"label": "number",
								"offset": 0,
								"slot": "0",
								"type": "t_uint256"
							},
							{
								"astId": 110,
								"contract": "contracts/struct.sol:STRUCT",
								"label": "name",
								"offset": 0,
								"slot": "1",
								"type": "t_string_storage"
							},
							{
								"astId": 112,
								"contract": "contracts/struct.sol:STRUCT",
								"label": "id",
								"offset": 0,
								"slot": "2",
								"type": "t_bytes3"
							},
							{
								"astId": 114,
								"contract": "contracts/struct.sol:STRUCT",
								"label": "b",
								"offset": 3,
								"slot": "2",
								"type": "t_bool"
							}
						],
						"numberOfBytes": "96"
					},
					"t_struct(user)14_storage": {
						"encoding": "inplace",
						"label": "struct STRUCT.user",
						"members": [
							{
								"astId": 11,
								"contract": "contracts/struct.sol:STRUCT",
								"label": "number",
								"offset": 0,
								"slot": "0",
								"type": "t_uint256"
							},
							{
								"astId": 13,
								"contract": "contracts/struct.sol:STRUCT",
								"label": "name",
								"offset": 0,
								"slot": "1",
								"type": "t_string_storage"
							}
						],
						"numberOfBytes": "64"
					},
					"t_uint256": {
						"encoding": "inplace",
						"label": "uint256",
						"numberOfBytes": "32"
					}
				}
			},
			"userdoc": {
				"kind": "user",
				"methods": {},
				"version": 1
			}
		}
	}
}