{
	"contracts/array.sol": {
		"ARRAY": {
			"abi": [
				{
					"inputs": [
						{
							"internalType": "uint256",
							"name": "_n",
							"type": "uint256"
						},
						{
							"internalType": "uint256",
							"name": "_m",
							"type": "uint256"
						}
					],
					"name": "changeNumber",
					"outputs": [],
					"stateMutability": "nonpayable",
					"type": "function"
				},
				{
					"inputs": [],
					"name": "getLength",
					"outputs": [
						{
							"internalType": "uint256",
							"name": "",
							"type": "uint256"
						}
					],
					"stateMutability": "view",
					"type": "function"
				},
				{
					"inputs": [
						{
							"internalType": "uint256",
							"name": "_n",
							"type": "uint256"
						}
					],
					"name": "getNumber",
					"outputs": [
						{
							"internalType": "uint256",
							"name": "",
							"type": "uint256"
						}
					],
					"stateMutability": "view",
					"type": "function"
				},
				{
					"inputs": [],
					"name": "getNumbers",
					"outputs": [
						{
							"internalType": "uint256[]",
							"name": "",
							"type": "uint256[]"
						}
					],
					"stateMutability": "view",
					"type": "function"
				},
				{
					"inputs": [],
					"name": "popNumber",
					"outputs": [],
					"stateMutability": "nonpayable",
					"type": "function"
				},
				{
					"inputs": [
						{
							"internalType": "uint256",
							"name": "_a",
							"type": "uint256"
						}
					],
					"name": "pushNumber",
					"outputs": [],
					"stateMutability": "nonpayable",
					"type": "function"
				}
			],
			"devdoc": {
				"kind": "dev",
				"methods": {},
				"version": 1
			},
			"evm": {
				"assembly": "    /* \"contracts/array.sol\":70:674  contract ARRAY {... */\n  mstore(0x40, 0x80)\n  callvalue\n  dup1\n  iszero\n  tag_1\n  jumpi\n  0x00\n  dup1\n  revert\ntag_1:\n  pop\n  dataSize(sub_0)\n  dup1\n  dataOffset(sub_0)\n  0x00\n  codecopy\n  0x00\n  return\nstop\n\nsub_0: assembly {\n        /* \"contracts/array.sol\":70:674  contract ARRAY {... */\n      mstore(0x40, 0x80)\n      callvalue\n      dup1\n      iszero\n      tag_1\n      jumpi\n      0x00\n      dup1\n      revert\n    tag_1:\n      pop\n      jumpi(tag_2, lt(calldatasize, 0x04))\n      shr(0xe0, calldataload(0x00))\n      dup1\n      0x08f71c62\n      eq\n      tag_3\n      jumpi\n      dup1\n      0x2705f37f\n      eq\n      tag_4\n      jumpi\n      dup1\n      0x2bfe1805\n      eq\n      tag_5\n      jumpi\n      dup1\n      0x89f915f6\n      eq\n      tag_6\n      jumpi\n      dup1\n      0xbe1c766b\n      eq\n      tag_7\n      jumpi\n      dup1\n      0xfc563658\n      eq\n      tag_8\n      jumpi\n    tag_2:\n      0x00\n      dup1\n      revert\n        /* \"contracts/array.sol\":492:576  function changeNumber(uint _n, uint _m) public {... */\n    tag_3:\n      tag_9\n      0x04\n      dup1\n      calldatasize\n      sub\n      dup2\n      add\n      swap1\n      tag_10\n      swap2\n      swap1\n      tag_11\n      jump\t// in\n    tag_10:\n      tag_12\n      jump\t// in\n    tag_9:\n      stop\n        /* \"contracts/array.sol\":224:284  function popNumber() public {... */\n    tag_4:\n      tag_13\n      tag_14\n      jump\t// in\n    tag_13:\n      stop\n        /* \"contracts/array.sol\":145:216  function pushNumber(uint _a) public {... */\n    tag_5:\n      tag_15\n      0x04\n      dup1\n      calldatasize\n      sub\n      dup2\n      add\n      swap1\n      tag_16\n      swap2\n      swap1\n      tag_17\n      jump\t// in\n    tag_16:\n      tag_18\n      jump\t// in\n    tag_15:\n      stop\n        /* \"contracts/array.sol\":292:383  function getNumbers() public view returns (uint[] memory) {... */\n    tag_6:\n      tag_19\n      tag_20\n      jump\t// in\n    tag_19:\n      mload(0x40)\n      tag_21\n      swap2\n      swap1\n      tag_22\n      jump\t// in\n    tag_21:\n      mload(0x40)\n      dup1\n      swap2\n      sub\n      swap1\n      return\n        /* \"contracts/array.sol\":584:671  function getLength() public view returns(uint) {... */\n    tag_7:\n      tag_23\n      tag_24\n      jump\t// in\n    tag_23:\n      mload(0x40)\n      tag_25\n      swap2\n      swap1\n      tag_26\n      jump\t// in\n    tag_25:\n      mload(0x40)\n      dup1\n      swap2\n      sub\n      swap1\n      return\n        /* \"contracts/array.sol\":391:484  function getNumber(uint _n) public view returns(uint) {... */\n    tag_8:\n      tag_27\n      0x04\n      dup1\n      calldatasize\n      sub\n      dup2\n      add\n      swap1\n      tag_28\n      swap2\n      swap1\n      tag_17\n      jump\t// in\n    tag_28:\n      tag_29\n      jump\t// in\n    tag_27:\n      mload(0x40)\n      tag_30\n      swap2\n      swap1\n      tag_26\n      jump\t// in\n    tag_30:\n      mload(0x40)\n      dup1\n      swap2\n      sub\n      swap1\n      return\n        /* \"contracts/array.sol\":492:576  function changeNumber(uint _n, uint _m) public {... */\n    tag_12:\n        /* \"contracts/array.sol\":566:568  _m */\n      dup1\n        /* \"contracts/array.sol\":550:557  numbers */\n      0x02\n        /* \"contracts/array.sol\":561:562  1 */\n      0x01\n        /* \"contracts/array.sol\":558:560  _n */\n      dup5\n        /* \"contracts/array.sol\":558:562  _n-1 */\n      tag_32\n      swap2\n      swap1\n      tag_33\n      jump\t// in\n    tag_32:\n        /* \"contracts/array.sol\":550:563  numbers[_n-1] */\n      dup2\n      sload\n      dup2\n      lt\n      tag_34\n      jumpi\n      tag_35\n      tag_36\n      jump\t// in\n    tag_35:\n    tag_34:\n      swap1\n      0x00\n      mstore\n      keccak256(0x00, 0x20)\n      add\n        /* \"contracts/array.sol\":550:568  numbers[_n-1] = _m */\n      dup2\n      swap1\n      sstore\n      pop\n        /* \"contracts/array.sol\":492:576  function changeNumber(uint _n, uint _m) public {... */\n      pop\n      pop\n      jump\t// out\n        /* \"contracts/array.sol\":224:284  function popNumber() public {... */\n    tag_14:\n        /* \"contracts/array.sol\":263:270  numbers */\n      0x02\n        /* \"contracts/array.sol\":263:276  numbers.pop() */\n      dup1\n      sload\n      dup1\n      tag_39\n      jumpi\n      tag_40\n      tag_41\n      jump\t// in\n    tag_40:\n    tag_39:\n      0x01\n      swap1\n      sub\n      dup2\n      dup2\n      swap1\n      0x00\n      mstore\n      keccak256(0x00, 0x20)\n      add\n      0x00\n      swap1\n      sstore\n      swap1\n      sstore\n        /* \"contracts/array.sol\":224:284  function popNumber() public {... */\n      jump\t// out\n        /* \"contracts/array.sol\":145:216  function pushNumber(uint _a) public {... */\n    tag_18:\n        /* \"contracts/array.sol\":192:199  numbers */\n      0x02\n        /* \"contracts/array.sol\":205:207  _a */\n      dup2\n        /* \"contracts/array.sol\":192:208  numbers.push(_a) */\n      swap1\n      dup1\n      0x01\n      dup2\n      sload\n      add\n      dup1\n      dup3\n      sstore\n      dup1\n      swap2\n      pop\n      pop\n      0x01\n      swap1\n      sub\n      swap1\n      0x00\n      mstore\n      keccak256(0x00, 0x20)\n      add\n      0x00\n      swap1\n      swap2\n      swap1\n      swap2\n      swap1\n      swap2\n      pop\n      sstore\n        /* \"contracts/array.sol\":145:216  function pushNumber(uint _a) public {... */\n      pop\n      jump\t// out\n        /* \"contracts/array.sol\":292:383  function getNumbers() public view returns (uint[] memory) {... */\n    tag_20:\n        /* \"contracts/array.sol\":335:348  uint[] memory */\n      0x60\n        /* \"contracts/array.sol\":368:375  numbers */\n      0x02\n        /* \"contracts/array.sol\":361:375  return numbers */\n      dup1\n      sload\n      dup1\n      0x20\n      mul\n      0x20\n      add\n      mload(0x40)\n      swap1\n      dup2\n      add\n      0x40\n      mstore\n      dup1\n      swap3\n      swap2\n      swap1\n      dup2\n      dup2\n      mstore\n      0x20\n      add\n      dup3\n      dup1\n      sload\n      dup1\n      iszero\n      tag_46\n      jumpi\n      0x20\n      mul\n      dup3\n      add\n      swap2\n      swap1\n      0x00\n      mstore\n      keccak256(0x00, 0x20)\n      swap1\n    tag_47:\n      dup2\n      sload\n      dup2\n      mstore\n      0x20\n      add\n      swap1\n      0x01\n      add\n      swap1\n      dup1\n      dup4\n      gt\n      tag_47\n      jumpi\n    tag_46:\n      pop\n      pop\n      pop\n      pop\n      pop\n      swap1\n      pop\n        /* \"contracts/array.sol\":292:383  function getNumbers() public view returns (uint[] memory) {... */\n      swap1\n      jump\t// out\n        /* \"contracts/array.sol\":584:671  function getLength() public view returns(uint) {... */\n    tag_24:\n        /* \"contracts/array.sol\":625:629  uint */\n      0x00\n        /* \"contracts/array.sol\":649:656  numbers */\n      0x02\n        /* \"contracts/array.sol\":649:663  numbers.length */\n      dup1\n      sload\n      swap1\n      pop\n        /* \"contracts/array.sol\":642:663  return numbers.length */\n      swap1\n      pop\n        /* \"contracts/array.sol\":584:671  function getLength() public view returns(uint) {... */\n      swap1\n      jump\t// out\n        /* \"contracts/array.sol\":391:484  function getNumber(uint _n) public view returns(uint) {... */\n    tag_29:\n        /* \"contracts/array.sol\":439:443  uint */\n      0x00\n        /* \"contracts/array.sol\":463:470  numbers */\n      0x02\n        /* \"contracts/array.sol\":474:475  1 */\n      0x01\n        /* \"contracts/array.sol\":471:473  _n */\n      dup4\n        /* \"contracts/array.sol\":471:475  _n-1 */\n      tag_50\n      swap2\n      swap1\n      tag_33\n      jump\t// in\n    tag_50:\n        /* \"contracts/array.sol\":463:476  numbers[_n-1] */\n      dup2\n      sload\n      dup2\n      lt\n      tag_51\n      jumpi\n      tag_52\n      tag_36\n      jump\t// in\n    tag_52:\n    tag_51:\n      swap1\n      0x00\n      mstore\n      keccak256(0x00, 0x20)\n      add\n      sload\n        /* \"contracts/array.sol\":456:476  return numbers[_n-1] */\n      swap1\n      pop\n        /* \"contracts/array.sol\":391:484  function getNumber(uint _n) public view returns(uint) {... */\n      swap2\n      swap1\n      pop\n      jump\t// out\n        /* \"#utility.yul\":88:205   */\n    tag_55:\n        /* \"#utility.yul\":197:198   */\n      0x00\n        /* \"#utility.yul\":194:195   */\n      dup1\n        /* \"#utility.yul\":187:199   */\n      revert\n        /* \"#utility.yul\":334:411   */\n    tag_57:\n        /* \"#utility.yul\":371:378   */\n      0x00\n        /* \"#utility.yul\":400:405   */\n      dup2\n        /* \"#utility.yul\":389:405   */\n      swap1\n      pop\n        /* \"#utility.yul\":334:411   */\n      swap2\n      swap1\n      pop\n      jump\t// out\n        /* \"#utility.yul\":417:539   */\n    tag_58:\n        /* \"#utility.yul\":490:514   */\n      tag_75\n        /* \"#utility.yul\":508:513   */\n      dup2\n        /* \"#utility.yul\":490:514   */\n      tag_57\n      jump\t// in\n    tag_75:\n        /* \"#utility.yul\":483:488   */\n      dup2\n        /* \"#utility.yul\":480:515   */\n      eq\n        /* \"#utility.yul\":470:533   */\n      tag_76\n      jumpi\n        /* \"#utility.yul\":529:530   */\n      0x00\n        /* \"#utility.yul\":526:527   */\n      dup1\n        /* \"#utility.yul\":519:531   */\n      revert\n        /* \"#utility.yul\":470:533   */\n    tag_76:\n        /* \"#utility.yul\":417:539   */\n      pop\n      jump\t// out\n        /* \"#utility.yul\":545:684   */\n    tag_59:\n        /* \"#utility.yul\":591:596   */\n      0x00\n        /* \"#utility.yul\":629:635   */\n      dup2\n        /* \"#utility.yul\":616:636   */\n      calldataload\n        /* \"#utility.yul\":607:636   */\n      swap1\n      pop\n        /* \"#utility.yul\":645:678   */\n      tag_78\n        /* \"#utility.yul\":672:677   */\n      dup2\n        /* \"#utility.yul\":645:678   */\n      tag_58\n      jump\t// in\n    tag_78:\n        /* \"#utility.yul\":545:684   */\n      swap3\n      swap2\n      pop\n      pop\n      jump\t// out\n        /* \"#utility.yul\":690:1164   */\n    tag_11:\n        /* \"#utility.yul\":758:764   */\n      0x00\n        /* \"#utility.yul\":766:772   */\n      dup1\n        /* \"#utility.yul\":815:817   */\n      0x40\n        /* \"#utility.yul\":803:812   */\n      dup4\n        /* \"#utility.yul\":794:801   */\n      dup6\n        /* \"#utility.yul\":790:813   */\n      sub\n        /* \"#utility.yul\":786:818   */\n      slt\n        /* \"#utility.yul\":783:902   */\n      iszero\n      tag_80\n      jumpi\n        /* \"#utility.yul\":821:900   */\n      tag_81\n      tag_55\n      jump\t// in\n    tag_81:\n        /* \"#utility.yul\":783:902   */\n    tag_80:\n        /* \"#utility.yul\":941:942   */\n      0x00\n        /* \"#utility.yul\":966:1019   */\n      tag_82\n        /* \"#utility.yul\":1011:1018   */\n      dup6\n        /* \"#utility.yul\":1002:1008   */\n      dup3\n        /* \"#utility.yul\":991:1000   */\n      dup7\n        /* \"#utility.yul\":987:1009   */\n      add\n        /* \"#utility.yul\":966:1019   */\n      tag_59\n      jump\t// in\n    tag_82:\n        /* \"#utility.yul\":956:1019   */\n      swap3\n      pop\n        /* \"#utility.yul\":912:1029   */\n      pop\n        /* \"#utility.yul\":1068:1070   */\n      0x20\n        /* \"#utility.yul\":1094:1147   */\n      tag_83\n        /* \"#utility.yul\":1139:1146   */\n      dup6\n        /* \"#utility.yul\":1130:1136   */\n      dup3\n        /* \"#utility.yul\":1119:1128   */\n      dup7\n        /* \"#utility.yul\":1115:1137   */\n      add\n        /* \"#utility.yul\":1094:1147   */\n      tag_59\n      jump\t// in\n    tag_83:\n        /* \"#utility.yul\":1084:1147   */\n      swap2\n      pop\n        /* \"#utility.yul\":1039:1157   */\n      pop\n        /* \"#utility.yul\":690:1164   */\n      swap3\n      pop\n      swap3\n      swap1\n      pop\n      jump\t// out\n        /* \"#utility.yul\":1170:1499   */\n    tag_17:\n        /* \"#utility.yul\":1229:1235   */\n      0x00\n        /* \"#utility.yul\":1278:1280   */\n      0x20\n        /* \"#utility.yul\":1266:1275   */\n      dup3\n        /* \"#utility.yul\":1257:1264   */\n      dup5\n        /* \"#utility.yul\":1253:1276   */\n      sub\n        /* \"#utility.yul\":1249:1281   */\n      slt\n        /* \"#utility.yul\":1246:1365   */\n      iszero\n      tag_85\n      jumpi\n        /* \"#utility.yul\":1284:1363   */\n      tag_86\n      tag_55\n      jump\t// in\n    tag_86:\n        /* \"#utility.yul\":1246:1365   */\n    tag_85:\n        /* \"#utility.yul\":1404:1405   */\n      0x00\n        /* \"#utility.yul\":1429:1482   */\n      tag_87\n        /* \"#utility.yul\":1474:1481   */\n      dup5\n        /* \"#utility.yul\":1465:1471   */\n      dup3\n        /* \"#utility.yul\":1454:1463   */\n      dup6\n        /* \"#utility.yul\":1450:1472   */\n      add\n        /* \"#utility.yul\":1429:1482   */\n      tag_59\n      jump\t// in\n    tag_87:\n        /* \"#utility.yul\":1419:1482   */\n      swap2\n      pop\n        /* \"#utility.yul\":1375:1492   */\n      pop\n        /* \"#utility.yul\":1170:1499   */\n      swap3\n      swap2\n      pop\n      pop\n      jump\t// out\n        /* \"#utility.yul\":1505:1619   */\n    tag_60:\n        /* \"#utility.yul\":1572:1578   */\n      0x00\n        /* \"#utility.yul\":1606:1611   */\n      dup2\n        /* \"#utility.yul\":1600:1612   */\n      mload\n        /* \"#utility.yul\":1590:1612   */\n      swap1\n      pop\n        /* \"#utility.yul\":1505:1619   */\n      swap2\n      swap1\n      pop\n      jump\t// out\n        /* \"#utility.yul\":1625:1809   */\n    tag_61:\n        /* \"#utility.yul\":1724:1735   */\n      0x00\n        /* \"#utility.yul\":1758:1764   */\n      dup3\n        /* \"#utility.yul\":1753:1756   */\n      dup3\n        /* \"#utility.yul\":1746:1765   */\n      mstore\n        /* \"#utility.yul\":1798:1802   */\n      0x20\n        /* \"#utility.yul\":1793:1796   */\n      dup3\n        /* \"#utility.yul\":1789:1803   */\n      add\n        /* \"#utility.yul\":1774:1803   */\n      swap1\n      pop\n        /* \"#utility.yul\":1625:1809   */\n      swap3\n      swap2\n      pop\n      pop\n      jump\t// out\n        /* \"#utility.yul\":1815:1947   */\n    tag_62:\n        /* \"#utility.yul\":1882:1886   */\n      0x00\n        /* \"#utility.yul\":1905:1908   */\n      dup2\n        /* \"#utility.yul\":1897:1908   */\n      swap1\n      pop\n        /* \"#utility.yul\":1935:1939   */\n      0x20\n        /* \"#utility.yul\":1930:1933   */\n      dup3\n        /* \"#utility.yul\":1926:1940   */\n      add\n        /* \"#utility.yul\":1918:1940   */\n      swap1\n      pop\n        /* \"#utility.yul\":1815:1947   */\n      swap2\n      swap1\n      pop\n      jump\t// out\n        /* \"#utility.yul\":1953:2061   */\n    tag_63:\n        /* \"#utility.yul\":2030:2054   */\n      tag_92\n        /* \"#utility.yul\":2048:2053   */\n      dup2\n        /* \"#utility.yul\":2030:2054   */\n      tag_57\n      jump\t// in\n    tag_92:\n        /* \"#utility.yul\":2025:2028   */\n      dup3\n        /* \"#utility.yul\":2018:2055   */\n      mstore\n        /* \"#utility.yul\":1953:2061   */\n      pop\n      pop\n      jump\t// out\n        /* \"#utility.yul\":2067:2246   */\n    tag_64:\n        /* \"#utility.yul\":2136:2146   */\n      0x00\n        /* \"#utility.yul\":2157:2203   */\n      tag_94\n        /* \"#utility.yul\":2199:2202   */\n      dup4\n        /* \"#utility.yul\":2191:2197   */\n      dup4\n        /* \"#utility.yul\":2157:2203   */\n      tag_63\n      jump\t// in\n    tag_94:\n        /* \"#utility.yul\":2235:2239   */\n      0x20\n        /* \"#utility.yul\":2230:2233   */\n      dup4\n        /* \"#utility.yul\":2226:2240   */\n      add\n        /* \"#utility.yul\":2212:2240   */\n      swap1\n      pop\n        /* \"#utility.yul\":2067:2246   */\n      swap3\n      swap2\n      pop\n      pop\n      jump\t// out\n        /* \"#utility.yul\":2252:2365   */\n    tag_65:\n        /* \"#utility.yul\":2322:2326   */\n      0x00\n        /* \"#utility.yul\":2354:2358   */\n      0x20\n        /* \"#utility.yul\":2349:2352   */\n      dup3\n        /* \"#utility.yul\":2345:2359   */\n      add\n        /* \"#utility.yul\":2337:2359   */\n      swap1\n      pop\n        /* \"#utility.yul\":2252:2365   */\n      swap2\n      swap1\n      pop\n      jump\t// out\n        /* \"#utility.yul\":2401:3133   */\n    tag_66:\n        /* \"#utility.yul\":2520:2523   */\n      0x00\n        /* \"#utility.yul\":2549:2603   */\n      tag_97\n        /* \"#utility.yul\":2597:2602   */\n      dup3\n        /* \"#utility.yul\":2549:2603   */\n      tag_60\n      jump\t// in\n    tag_97:\n        /* \"#utility.yul\":2619:2705   */\n      tag_98\n        /* \"#utility.yul\":2698:2704   */\n      dup2\n        /* \"#utility.yul\":2693:2696   */\n      dup6\n        /* \"#utility.yul\":2619:2705   */\n      tag_61\n      jump\t// in\n    tag_98:\n        /* \"#utility.yul\":2612:2705   */\n      swap4\n      pop\n        /* \"#utility.yul\":2729:2785   */\n      tag_99\n        /* \"#utility.yul\":2779:2784   */\n      dup4\n        /* \"#utility.yul\":2729:2785   */\n      tag_62\n      jump\t// in\n    tag_99:\n        /* \"#utility.yul\":2808:2815   */\n      dup1\n        /* \"#utility.yul\":2839:2840   */\n      0x00\n        /* \"#utility.yul\":2824:3108   */\n    tag_100:\n        /* \"#utility.yul\":2849:2855   */\n      dup4\n        /* \"#utility.yul\":2846:2847   */\n      dup2\n        /* \"#utility.yul\":2843:2856   */\n      lt\n        /* \"#utility.yul\":2824:3108   */\n      iszero\n      tag_102\n      jumpi\n        /* \"#utility.yul\":2925:2931   */\n      dup2\n        /* \"#utility.yul\":2919:2932   */\n      mload\n        /* \"#utility.yul\":2952:3015   */\n      tag_103\n        /* \"#utility.yul\":3011:3014   */\n      dup9\n        /* \"#utility.yul\":2996:3009   */\n      dup3\n        /* \"#utility.yul\":2952:3015   */\n      tag_64\n      jump\t// in\n    tag_103:\n        /* \"#utility.yul\":2945:3015   */\n      swap8\n      pop\n        /* \"#utility.yul\":3038:3098   */\n      tag_104\n        /* \"#utility.yul\":3091:3097   */\n      dup4\n        /* \"#utility.yul\":3038:3098   */\n      tag_65\n      jump\t// in\n    tag_104:\n        /* \"#utility.yul\":3028:3098   */\n      swap3\n      pop\n        /* \"#utility.yul\":2884:3108   */\n      pop\n        /* \"#utility.yul\":2871:2872   */\n      0x01\n        /* \"#utility.yul\":2868:2869   */\n      dup2\n        /* \"#utility.yul\":2864:2873   */\n      add\n        /* \"#utility.yul\":2859:2873   */\n      swap1\n      pop\n        /* \"#utility.yul\":2824:3108   */\n      jump(tag_100)\n    tag_102:\n        /* \"#utility.yul\":2828:2842   */\n      pop\n        /* \"#utility.yul\":3124:3127   */\n      dup6\n        /* \"#utility.yul\":3117:3127   */\n      swap4\n      pop\n        /* \"#utility.yul\":2525:3133   */\n      pop\n      pop\n      pop\n        /* \"#utility.yul\":2401:3133   */\n      swap3\n      swap2\n      pop\n      pop\n      jump\t// out\n        /* \"#utility.yul\":3139:3512   */\n    tag_22:\n        /* \"#utility.yul\":3282:3286   */\n      0x00\n        /* \"#utility.yul\":3320:3322   */\n      0x20\n        /* \"#utility.yul\":3309:3318   */\n      dup3\n        /* \"#utility.yul\":3305:3323   */\n      add\n        /* \"#utility.yul\":3297:3323   */\n      swap1\n      pop\n        /* \"#utility.yul\":3369:3378   */\n      dup2\n        /* \"#utility.yul\":3363:3367   */\n      dup2\n        /* \"#utility.yul\":3359:3379   */\n      sub\n        /* \"#utility.yul\":3355:3356   */\n      0x00\n        /* \"#utility.yul\":3344:3353   */\n      dup4\n        /* \"#utility.yul\":3340:3357   */\n      add\n        /* \"#utility.yul\":3333:3380   */\n      mstore\n        /* \"#utility.yul\":3397:3505   */\n      tag_106\n        /* \"#utility.yul\":3500:3504   */\n      dup2\n        /* \"#utility.yul\":3491:3497   */\n      dup5\n        /* \"#utility.yul\":3397:3505   */\n      tag_66\n      jump\t// in\n    tag_106:\n        /* \"#utility.yul\":3389:3505   */\n      swap1\n      pop\n        /* \"#utility.yul\":3139:3512   */\n      swap3\n      swap2\n      pop\n      pop\n      jump\t// out\n        /* \"#utility.yul\":3518:3636   */\n    tag_67:\n        /* \"#utility.yul\":3605:3629   */\n      tag_108\n        /* \"#utility.yul\":3623:3628   */\n      dup2\n        /* \"#utility.yul\":3605:3629   */\n      tag_57\n      jump\t// in\n    tag_108:\n        /* \"#utility.yul\":3600:3603   */\n      dup3\n        /* \"#utility.yul\":3593:3630   */\n      mstore\n        /* \"#utility.yul\":3518:3636   */\n      pop\n      pop\n      jump\t// out\n        /* \"#utility.yul\":3642:3864   */\n    tag_26:\n        /* \"#utility.yul\":3735:3739   */\n      0x00\n        /* \"#utility.yul\":3773:3775   */\n      0x20\n        /* \"#utility.yul\":3762:3771   */\n      dup3\n        /* \"#utility.yul\":3758:3776   */\n      add\n        /* \"#utility.yul\":3750:3776   */\n      swap1\n      pop\n        /* \"#utility.yul\":3786:3857   */\n      tag_110\n        /* \"#utility.yul\":3854:3855   */\n      0x00\n        /* \"#utility.yul\":3843:3852   */\n      dup4\n        /* \"#utility.yul\":3839:3856   */\n      add\n        /* \"#utility.yul\":3830:3836   */\n      dup5\n        /* \"#utility.yul\":3786:3857   */\n      tag_67\n      jump\t// in\n    tag_110:\n        /* \"#utility.yul\":3642:3864   */\n      swap3\n      swap2\n      pop\n      pop\n      jump\t// out\n        /* \"#utility.yul\":3870:4050   */\n    tag_68:\n        /* \"#utility.yul\":3918:3995   */\n      0x4e487b7100000000000000000000000000000000000000000000000000000000\n        /* \"#utility.yul\":3915:3916   */\n      0x00\n        /* \"#utility.yul\":3908:3996   */\n      mstore\n        /* \"#utility.yul\":4015:4019   */\n      0x11\n        /* \"#utility.yul\":4012:4013   */\n      0x04\n        /* \"#utility.yul\":4005:4020   */\n      mstore\n        /* \"#utility.yul\":4039:4043   */\n      0x24\n        /* \"#utility.yul\":4036:4037   */\n      0x00\n        /* \"#utility.yul\":4029:4044   */\n      revert\n        /* \"#utility.yul\":4056:4250   */\n    tag_33:\n        /* \"#utility.yul\":4096:4100   */\n      0x00\n        /* \"#utility.yul\":4116:4136   */\n      tag_113\n        /* \"#utility.yul\":4134:4135   */\n      dup3\n        /* \"#utility.yul\":4116:4136   */\n      tag_57\n      jump\t// in\n    tag_113:\n        /* \"#utility.yul\":4111:4136   */\n      swap2\n      pop\n        /* \"#utility.yul\":4150:4170   */\n      tag_114\n        /* \"#utility.yul\":4168:4169   */\n      dup4\n        /* \"#utility.yul\":4150:4170   */\n      tag_57\n      jump\t// in\n    tag_114:\n        /* \"#utility.yul\":4145:4170   */\n      swap3\n      pop\n        /* \"#utility.yul\":4194:4195   */\n      dup3\n        /* \"#utility.yul\":4191:4192   */\n      dup3\n        /* \"#utility.yul\":4187:4196   */\n      sub\n        /* \"#utility.yul\":4179:4196   */\n      swap1\n      pop\n        /* \"#utility.yul\":4218:4219   */\n      dup2\n        /* \"#utility.yul\":4212:4216   */\n      dup2\n        /* \"#utility.yul\":4209:4220   */\n      gt\n        /* \"#utility.yul\":4206:4243   */\n      iszero\n      tag_115\n      jumpi\n        /* \"#utility.yul\":4223:4241   */\n      tag_116\n      tag_68\n      jump\t// in\n    tag_116:\n        /* \"#utility.yul\":4206:4243   */\n    tag_115:\n        /* \"#utility.yul\":4056:4250   */\n      swap3\n      swap2\n      pop\n      pop\n      jump\t// out\n        /* \"#utility.yul\":4256:4436   */\n    tag_36:\n        /* \"#utility.yul\":4304:4381   */\n      0x4e487b7100000000000000000000000000000000000000000000000000000000\n        /* \"#utility.yul\":4301:4302   */\n      0x00\n        /* \"#utility.yul\":4294:4382   */\n      mstore\n        /* \"#utility.yul\":4401:4405   */\n      0x32\n        /* \"#utility.yul\":4398:4399   */\n      0x04\n        /* \"#utility.yul\":4391:4406   */\n      mstore\n        /* \"#utility.yul\":4425:4429   */\n      0x24\n        /* \"#utility.yul\":4422:4423   */\n      0x00\n        /* \"#utility.yul\":4415:4430   */\n      revert\n        /* \"#utility.yul\":4442:4622   */\n    tag_41:\n        /* \"#utility.yul\":4490:4567   */\n      0x4e487b7100000000000000000000000000000000000000000000000000000000\n        /* \"#utility.yul\":4487:4488   */\n      0x00\n        /* \"#utility.yul\":4480:4568   */\n      mstore\n        /* \"#utility.yul\":4587:4591   */\n      0x31\n        /* \"#utility.yul\":4584:4585   */\n      0x04\n        /* \"#utility.yul\":4577:4592   */\n      mstore\n        /* \"#utility.yul\":4611:4615   */\n      0x24\n        /* \"#utility.yul\":4608:4609   */\n      0x00\n        /* \"#utility.yul\":4601:4616   */\n      revert\n\n    auxdata: 0xa264697066735822122082df3a7b18229fe901b00cc7eb82b350f2d80109b67f2cfba1113db85610b80064736f6c634300081a0033\n}\n",
				"bytecode": {
					"linkReferences": {},
					"object": "6080604052348015600e575f80fd5b506104b58061001c5f395ff3fe608060405234801561000f575f80fd5b5060043610610060575f3560e01c806308f71c62146100645780632705f37f146100805780632bfe18051461008a57806389f915f6146100a6578063be1c766b146100c4578063fc563658146100e2575b5f80fd5b61007e6004803603810190610079919061025d565b610112565b005b610088610143565b005b6100a4600480360381019061009f919061029b565b61016a565b005b6100ae610193565b6040516100bb919061037d565b60405180910390f35b6100cc6101e9565b6040516100d991906103ac565b60405180910390f35b6100fc60048036038101906100f7919061029b565b6101f5565b60405161010991906103ac565b60405180910390f35b80600260018461012291906103f2565b8154811061013357610132610425565b5b905f5260205f2001819055505050565b600280548061015557610154610452565b5b600190038181905f5260205f20015f90559055565b600281908060018154018082558091505060019003905f5260205f20015f909190919091505550565b606060028054806020026020016040519081016040528092919081815260200182805480156101df57602002820191905f5260205f20905b8154815260200190600101908083116101cb575b5050505050905090565b5f600280549050905090565b5f600260018361020591906103f2565b8154811061021657610215610425565b5b905f5260205f2001549050919050565b5f80fd5b5f819050919050565b61023c8161022a565b8114610246575f80fd5b50565b5f8135905061025781610233565b92915050565b5f806040838503121561027357610272610226565b5b5f61028085828601610249565b925050602061029185828601610249565b9150509250929050565b5f602082840312156102b0576102af610226565b5b5f6102bd84828501610249565b91505092915050565b5f81519050919050565b5f82825260208201905092915050565b5f819050602082019050919050565b6102f88161022a565b82525050565b5f61030983836102ef565b60208301905092915050565b5f602082019050919050565b5f61032b826102c6565b61033581856102d0565b9350610340836102e0565b805f5b8381101561037057815161035788826102fe565b975061036283610315565b925050600181019050610343565b5085935050505092915050565b5f6020820190508181035f8301526103958184610321565b905092915050565b6103a68161022a565b82525050565b5f6020820190506103bf5f83018461039d565b92915050565b7f4e487b71000000000000000000000000000000000000000000000000000000005f52601160045260245ffd5b5f6103fc8261022a565b91506104078361022a565b925082820390508181111561041f5761041e6103c5565b5b92915050565b7f4e487b71000000000000000000000000000000000000000000000000000000005f52603260045260245ffd5b7f4e487b71000000000000000000000000000000000000000000000000000000005f52603160045260245ffdfea264697066735822122082df3a7b18229fe901b00cc7eb82b350f2d80109b67f2cfba1113db85610b80064736f6c634300081a0033",
					"opcodes": "PUSH1 0x80 PUSH1 0x40 MSTORE CALLVALUE DUP1 ISZERO PUSH1 0xE JUMPI PUSH0 DUP1 REVERT JUMPDEST POP PUSH2 0x4B5 DUP1 PUSH2 0x1C PUSH0 CODECOPY PUSH0 RETURN INVALID PUSH1 0x80 PUSH1 0x40 MSTORE CALLVALUE DUP1 ISZERO PUSH2 0xF JUMPI PUSH0 DUP1 REVERT JUMPDEST POP PUSH1 0x4 CALLDATASIZE LT PUSH2 0x60 JUMPI PUSH0 CALLDATALOAD PUSH1 0xE0 SHR DUP1 PUSH4 0x8F71C62 EQ PUSH2 0x64 JUMPI DUP1 PUSH4 0x2705F37F EQ PUSH2 0x80 JUMPI DUP1 PUSH4 0x2BFE1805 EQ PUSH2 0x8A JUMPI DUP1 PUSH4 0x89F915F6 EQ PUSH2 0xA6 JUMPI DUP1 PUSH4 0xBE1C766B EQ PUSH2 0xC4 JUMPI DUP1 PUSH4 0xFC563658 EQ PUSH2 0xE2 JUMPI JUMPDEST PUSH0 DUP1 REVERT JUMPDEST PUSH2 0x7E PUSH1 0x4 DUP1 CALLDATASIZE SUB DUP2 ADD SWAP1 PUSH2 0x79 SWAP2 SWAP1 PUSH2 0x25D JUMP JUMPDEST PUSH2 0x112 JUMP JUMPDEST STOP JUMPDEST PUSH2 0x88 PUSH2 0x143 JUMP JUMPDEST STOP JUMPDEST PUSH2 0xA4 PUSH1 0x4 DUP1 CALLDATASIZE SUB DUP2 ADD SWAP1 PUSH2 0x9F SWAP2 SWAP1 PUSH2 0x29B JUMP JUMPDEST PUSH2 0x16A JUMP JUMPDEST STOP JUMPDEST PUSH2 0xAE PUSH2 0x193 JUMP JUMPDEST PUSH1 0x40 MLOAD PUSH2 0xBB SWAP2 SWAP1 PUSH2 0x37D JUMP JUMPDEST PUSH1 0x40 MLOAD DUP1 SWAP2 SUB SWAP1 RETURN JUMPDEST PUSH2 0xCC PUSH2 0x1E9 JUMP JUMPDEST PUSH1 0x40 MLOAD PUSH2 0xD9 SWAP2 SWAP1 PUSH2 0x3AC JUMP JUMPDEST PUSH1 0x40 MLOAD DUP1 SWAP2 SUB SWAP1 RETURN JUMPDEST PUSH2 0xFC PUSH1 0x4 DUP1 CALLDATASIZE SUB DUP2 ADD SWAP1 PUSH2 0xF7 SWAP2 SWAP1 PUSH2 0x29B JUMP JUMPDEST PUSH2 0x1F5 JUMP JUMPDEST PUSH1 0x40 MLOAD PUSH2 0x109 SWAP2 SWAP1 PUSH2 0x3AC JUMP JUMPDEST PUSH1 0x40 MLOAD DUP1 SWAP2 SUB SWAP1 RETURN JUMPDEST DUP1 PUSH1 0x2 PUSH1 0x1 DUP5 PUSH2 0x122 SWAP2 SWAP1 PUSH2 0x3F2 JUMP JUMPDEST DUP2 SLOAD DUP2 LT PUSH2 0x133 JUMPI PUSH2 0x132 PUSH2 0x425 JUMP JUMPDEST JUMPDEST SWAP1 PUSH0 MSTORE PUSH1 0x20 PUSH0 KECCAK256 ADD DUP2 SWAP1 SSTORE POP POP POP JUMP JUMPDEST PUSH1 0x2 DUP1 SLOAD DUP1 PUSH2 0x155 JUMPI PUSH2 0x154 PUSH2 0x452 JUMP JUMPDEST JUMPDEST PUSH1 0x1 SWAP1 SUB DUP2 DUP2 SWAP1 PUSH0 MSTORE PUSH1 0x20 PUSH0 KECCAK256 ADD PUSH0 SWAP1 SSTORE SWAP1 SSTORE JUMP JUMPDEST PUSH1 0x2 DUP2 SWAP1 DUP1 PUSH1 0x1 DUP2 SLOAD ADD DUP1 DUP3 SSTORE DUP1 SWAP2 POP POP PUSH1 0x1 SWAP1 SUB SWAP1 PUSH0 MSTORE PUSH1 0x20 PUSH0 KECCAK256 ADD PUSH0 SWAP1 SWAP2 SWAP1 SWAP2 SWAP1 SWAP2 POP SSTORE POP JUMP JUMPDEST PUSH1 0x60 PUSH1 0x2 DUP1 SLOAD DUP1 PUSH1 0x20 MUL PUSH1 0x20 ADD PUSH1 0x40 MLOAD SWAP1 DUP2 ADD PUSH1 0x40 MSTORE DUP1 SWAP3 SWAP2 SWAP1 DUP2 DUP2 MSTORE PUSH1 0x20 ADD DUP3 DUP1 SLOAD DUP1 ISZERO PUSH2 0x1DF JUMPI PUSH1 0x20 MUL DUP3 ADD SWAP2 SWAP1 PUSH0 MSTORE PUSH1 0x20 PUSH0 KECCAK256 SWAP1 JUMPDEST DUP2 SLOAD DUP2 MSTORE PUSH1 0x20 ADD SWAP1 PUSH1 0x1 ADD SWAP1 DUP1 DUP4 GT PUSH2 0x1CB JUMPI JUMPDEST POP POP POP POP POP SWAP1 POP SWAP1 JUMP JUMPDEST PUSH0 PUSH1 0x2 DUP1 SLOAD SWAP1 POP SWAP1 POP SWAP1 JUMP JUMPDEST PUSH0 PUSH1 0x2 PUSH1 0x1 DUP4 PUSH2 0x205 SWAP2 SWAP1 PUSH2 0x3F2 JUMP JUMPDEST DUP2 SLOAD DUP2 LT PUSH2 0x216 JUMPI PUSH2 0x215 PUSH2 0x425 JUMP JUMPDEST JUMPDEST SWAP1 PUSH0 MSTORE PUSH1 0x20 PUSH0 KECCAK256 ADD SLOAD SWAP1 POP SWAP2 SWAP1 POP JUMP JUMPDEST PUSH0 DUP1 REVERT JUMPDEST PUSH0 DUP2 SWAP1 POP SWAP2 SWAP1 POP JUMP JUMPDEST PUSH2 0x23C DUP2 PUSH2 0x22A JUMP JUMPDEST DUP2 EQ PUSH2 0x246 JUMPI PUSH0 DUP1 REVERT JUMPDEST POP JUMP JUMPDEST PUSH0 DUP2 CALLDATALOAD SWAP1 POP PUSH2 0x257 DUP2 PUSH2 0x233 JUMP JUMPDEST SWAP3 SWAP2 POP POP JUMP JUMPDEST PUSH0 DUP1 PUSH1 0x40 DUP4 DUP6 SUB SLT ISZERO PUSH2 0x273 JUMPI PUSH2 0x272 PUSH2 0x226 JUMP JUMPDEST JUMPDEST PUSH0 PUSH2 0x280 DUP6 DUP3 DUP7 ADD PUSH2 0x249 JUMP JUMPDEST SWAP3 POP POP PUSH1 0x20 PUSH2 0x291 DUP6 DUP3 DUP7 ADD PUSH2 0x249 JUMP JUMPDEST SWAP2 POP POP SWAP3 POP SWAP3 SWAP1 POP JUMP JUMPDEST PUSH0 PUSH1 0x20 DUP3 DUP5 SUB SLT ISZERO PUSH2 0x2B0 JUMPI PUSH2 0x2AF PUSH2 0x226 JUMP JUMPDEST JUMPDEST PUSH0 PUSH2 0x2BD DUP5 DUP3 DUP6 ADD PUSH2 0x249 JUMP JUMPDEST SWAP2 POP POP SWAP3 SWAP2 POP POP JUMP JUMPDEST PUSH0 DUP2 MLOAD SWAP1 POP SWAP2 SWAP1 POP JUMP JUMPDEST PUSH0 DUP3 DUP3 MSTORE PUSH1 0x20 DUP3 ADD SWAP1 POP SWAP3 SWAP2 POP POP JUMP JUMPDEST PUSH0 DUP2 SWAP1 POP PUSH1 0x20 DUP3 ADD SWAP1 POP SWAP2 SWAP1 POP JUMP JUMPDEST PUSH2 0x2F8 DUP2 PUSH2 0x22A JUMP JUMPDEST DUP3 MSTORE POP POP JUMP JUMPDEST PUSH0 PUSH2 0x309 DUP4 DUP4 PUSH2 0x2EF JUMP JUMPDEST PUSH1 0x20 DUP4 ADD SWAP1 POP SWAP3 SWAP2 POP POP JUMP JUMPDEST PUSH0 PUSH1 0x20 DUP3 ADD SWAP1 POP SWAP2 SWAP1 POP JUMP JUMPDEST PUSH0 PUSH2 0x32B DUP3 PUSH2 0x2C6 JUMP JUMPDEST PUSH2 0x335 DUP2 DUP6 PUSH2 0x2D0 JUMP JUMPDEST SWAP4 POP PUSH2 0x340 DUP4 PUSH2 0x2E0 JUMP JUMPDEST DUP1 PUSH0 JUMPDEST DUP4 DUP2 LT ISZERO PUSH2 0x370 JUMPI DUP2 MLOAD PUSH2 0x357 DUP9 DUP3 PUSH2 0x2FE JUMP JUMPDEST SWAP8 POP PUSH2 0x362 DUP4 PUSH2 0x315 JUMP JUMPDEST SWAP3 POP POP PUSH1 0x1 DUP2 ADD SWAP1 POP PUSH2 0x343 JUMP JUMPDEST POP DUP6 SWAP4 POP POP POP POP SWAP3 SWAP2 POP POP JUMP JUMPDEST PUSH0 PUSH1 0x20 DUP3 ADD SWAP1 POP DUP2 DUP2 SUB PUSH0 DUP4 ADD MSTORE PUSH2 0x395 DUP2 DUP5 PUSH2 0x321 JUMP JUMPDEST SWAP1 POP SWAP3 SWAP2 POP POP JUMP JUMPDEST PUSH2 0x3A6 DUP2 PUSH2 0x22A JUMP JUMPDEST DUP3 MSTORE POP POP JUMP JUMPDEST PUSH0 PUSH1 0x20 DUP3 ADD SWAP1 POP PUSH2 0x3BF PUSH0 DUP4 ADD DUP5 PUSH2 0x39D JUMP JUMPDEST SWAP3 SWAP2 POP POP JUMP JUMPDEST PUSH32 0x4E487B7100000000000000000000000000000000000000000000000000000000 PUSH0 MSTORE PUSH1 0x11 PUSH1 0x4 MSTORE PUSH1 0x24 PUSH0 REVERT JUMPDEST PUSH0 PUSH2 0x3FC DUP3 PUSH2 0x22A JUMP JUMPDEST SWAP2 POP PUSH2 0x407 DUP4 PUSH2 0x22A JUMP JUMPDEST SWAP3 POP DUP3 DUP3 SUB SWAP1 POP DUP2 DUP2 GT ISZERO PUSH2 0x41F JUMPI PUSH2 0x41E PUSH2 0x3C5 JUMP JUMPDEST JUMPDEST SWAP3 SWAP2 POP POP JUMP JUMPDEST PUSH32 0x4E487B7100000000000000000000000000000000000000000000000000000000 PUSH0 MSTORE PUSH1 0x32 PUSH1 0x4 MSTORE PUSH1 0x24 PUSH0 REVERT JUMPDEST PUSH32 0x4E487B7100000000000000000000000000000000000000000000000000000000 PUSH0 MSTORE PUSH1 0x31 PUSH1 0x4 MSTORE PUSH1 0x24 PUSH0 REVERT INVALID LOG2 PUSH5 0x6970667358 0x22 SLT KECCAK256 DUP3 0xDF GASPRICE PUSH28 0x18229FE901B00CC7EB82B350F2D80109B67F2CFBA1113DB85610B800 PUSH5 0x736F6C6343 STOP ADDMOD BYTE STOP CALLER "
				},
				"gasEstimates": {
					"creation": {
						"codeDepositCost": "241000",
						"executionCost": "279",
						"totalCost": "241279"
					},
					"external": {
						"changeNumber(uint256,uint256)": "infinite",
						"getLength()": "2506",
						"getNumber(uint256)": "infinite",
						"getNumbers()": "infinite",
						"popNumber()": "29441",
						"pushNumber(uint256)": "46843"
					}
				},
				"methodIdentifiers": {
					"changeNumber(uint256,uint256)": "08f71c62",
					"getLength()": "be1c766b",
					"getNumber(uint256)": "fc563658",
					"getNumbers()": "89f915f6",
					"popNumber()": "2705f37f",
					"pushNumber(uint256)": "2bfe1805"
				}
			},
			"storageLayout": {
				"storage": [
					{
						"astId": 3,
						"contract": "contracts/array.sol:ARRAY",
						"label": "a",
						"offset": 0,
						"slot": "0",
						"type": "t_uint256"
					},
					{
						"astId": 5,
						"contract": "contracts/array.sol:ARRAY",
						"label": "b",
						"offset": 0,
						"slot": "1",
						"type": "t_string_storage"
					},
					{
						"astId": 8,
						"contract": "contracts/array.sol:ARRAY",
						"label": "numbers",
						"offset": 0,
						"slot": "2",
						"type": "t_array(t_uint256)dyn_storage"
					}
				],
				"types": {
					"t_array(t_uint256)dyn_storage": {
						"base": "t_uint256",
						"encoding": "dynamic_array",
						"label": "uint256[]",
						"numberOfBytes": "32"
					},
					"t_string_storage": {
						"encoding": "bytes",
						"label": "string",
						"numberOfBytes": "32"
					},
					"t_uint256": {
						"encoding": "inplace",
						"label": "uint256",
						"numberOfBytes": "32"
					}
				}
			},
			"userdoc": {
				"kind": "user",
				"methods": {},
				"version": 1
			}
		}
	}
}