{
	"contracts/struct.sol": {
		"STRUCT": {
			"abi": [
				{
					"inputs": [],
					"name": "getA",
					"outputs": [
						{
							"internalType": "uint256",
							"name": "",
							"type": "uint256"
						}
					],
					"stateMutability": "view",
					"type": "function"
				},
				{
					"inputs": [],
					"name": "getS1",
					"outputs": [
						{
							"components": [
								{
									"internalType": "uint256",
									"name": "number",
									"type": "uint256"
								},
								{
									"internalType": "string",
									"name": "name",
									"type": "string"
								},
								{
									"internalType": "bytes3",
									"name": "id",
									"type": "bytes3"
								},
								{
									"internalType": "bool",
									"name": "b",
									"type": "bool"
								}
							],
							"internalType": "struct STRUCT.staff",
							"name": "",
							"type": "tuple"
						}
					],
					"stateMutability": "view",
					"type": "function"
				},
				{
					"inputs": [],
					"name": "getS1_2",
					"outputs": [
						{
							"internalType": "string",
							"name": "",
							"type": "string"
						},
						{
							"internalType": "bytes3",
							"name": "",
							"type": "bytes3"
						}
					],
					"stateMutability": "view",
					"type": "function"
				},
				{
					"inputs": [],
					"name": "getU12",
					"outputs": [
						{
							"components": [
								{
									"internalType": "uint256",
									"name": "number",
									"type": "uint256"
								},
								{
									"internalType": "string",
									"name": "name",
									"type": "string"
								}
							],
							"internalType": "struct STRUCT.user",
							"name": "",
							"type": "tuple"
						},
						{
							"components": [
								{
									"internalType": "uint256",
									"name": "number",
									"type": "uint256"
								},
								{
									"internalType": "string",
									"name": "name",
									"type": "string"
								}
							],
							"internalType": "struct STRUCT.user",
							"name": "",
							"type": "tuple"
						}
					],
					"stateMutability": "view",
					"type": "function"
				},
				{
					"inputs": [
						{
							"internalType": "uint256",
							"name": "_a",
							"type": "uint256"
						}
					],
					"name": "setA",
					"outputs": [],
					"stateMutability": "nonpayable",
					"type": "function"
				},
				{
					"inputs": [
						{
							"internalType": "uint256",
							"name": "_number",
							"type": "uint256"
						},
						{
							"internalType": "string",
							"name": "_name",
							"type": "string"
						},
						{
							"internalType": "bytes3",
							"name": "_id",
							"type": "bytes3"
						},
						{
							"internalType": "bool",
							"name": "_b",
							"type": "bool"
						}
					],
					"name": "setS1",
					"outputs": [],
					"stateMutability": "nonpayable",
					"type": "function"
				},
				{
					"inputs": [
						{
							"components": [
								{
									"internalType": "uint256",
									"name": "number",
									"type": "uint256"
								},
								{
									"internalType": "string",
									"name": "name",
									"type": "string"
								},
								{
									"internalType": "bytes3",
									"name": "id",
									"type": "bytes3"
								},
								{
									"internalType": "bool",
									"name": "b",
									"type": "bool"
								}
							],
							"internalType": "struct STRUCT.staff",
							"name": "_s1",
							"type": "tuple"
						}
					],
					"name": "setS1_2",
					"outputs": [],
					"stateMutability": "nonpayable",
					"type": "function"
				},
				{
					"inputs": [
						{
							"internalType": "string",
							"name": "_name",
							"type": "string"
						}
					],
					"name": "setS1_Name",
					"outputs": [],
					"stateMutability": "nonpayable",
					"type": "function"
				},
				{
					"inputs": [
						{
							"internalType": "uint256",
							"name": "_number",
							"type": "uint256"
						},
						{
							"internalType": "string",
							"name": "_name",
							"type": "string"
						}
					],
					"name": "setU1",
					"outputs": [],
					"stateMutability": "nonpayable",
					"type": "function"
				},
				{
					"inputs": [
						{
							"components": [
								{
									"internalType": "uint256",
									"name": "number",
									"type": "uint256"
								},
								{
									"internalType": "string",
									"name": "name",
									"type": "string"
								}
							],
							"internalType": "struct STRUCT.user",
							"name": "_u1",
							"type": "tuple"
						}
					],
					"name": "setU1_2",
					"outputs": [],
					"stateMutability": "nonpayable",
					"type": "function"
				},
				{
					"inputs": [
						{
							"internalType": "uint256",
							"name": "_number",
							"type": "uint256"
						},
						{
							"internalType": "string",
							"name": "_name",
							"type": "string"
						}
					],
					"name": "setU1_3",
					"outputs": [],
					"stateMutability": "nonpayable",
					"type": "function"
				},
				{
					"inputs": [
						{
							"internalType": "string",
							"name": "_name",
							"type": "string"
						}
					],
					"name": "setU1_Name",
					"outputs": [],
					"stateMutability": "nonpayable",
					"type": "function"
				},
				{
					"inputs": [
						{
							"internalType": "uint256",
							"name": "_number",
							"type": "uint256"
						},
						{
							"internalType": "string",
							"name": "_name",
							"type": "string"
						}
					],
					"name": "setU2",
					"outputs": [],
					"stateMutability": "nonpayable",
					"type": "function"
				}
			],
			"devdoc": {
				"kind": "dev",
				"methods": {},
				"version": 1
			},
			"evm": {
				"assembly": "    /* \"contracts/struct.sol\":74:1733  contract STRUCT {... */\n  mstore(0x40, 0x80)\n  callvalue\n  dup1\n  iszero\n  tag_1\n  jumpi\n  0x00\n  dup1\n  revert\ntag_1:\n  pop\n  dataSize(sub_0)\n  dup1\n  dataOffset(sub_0)\n  0x00\n  codecopy\n  0x00\n  return\nstop\n\nsub_0: assembly {\n        /* \"contracts/struct.sol\":74:1733  contract STRUCT {... */\n      mstore(0x40, 0x80)\n      callvalue\n      dup1\n      iszero\n      tag_1\n      jumpi\n      0x00\n      dup1\n      revert\n    tag_1:\n      pop\n      jumpi(tag_2, lt(calldatasize, 0x04))\n      shr(0xe0, calldataload(0x00))\n      dup1\n      0x56c90aad\n      gt\n      tag_16\n      jumpi\n      dup1\n      0xb0c5e781\n      gt\n      tag_17\n      jumpi\n      dup1\n      0xb0c5e781\n      eq\n      tag_12\n      jumpi\n      dup1\n      0xd46300fd\n      eq\n      tag_13\n      jumpi\n      dup1\n      0xed224c78\n      eq\n      tag_14\n      jumpi\n      dup1\n      0xee919d50\n      eq\n      tag_15\n      jumpi\n      jump(tag_2)\n    tag_17:\n      dup1\n      0x56c90aad\n      eq\n      tag_9\n      jumpi\n      dup1\n      0x80982f50\n      eq\n      tag_10\n      jumpi\n      dup1\n      0xac7a047e\n      eq\n      tag_11\n      jumpi\n      jump(tag_2)\n    tag_16:\n      dup1\n      0x0f22d999\n      eq\n      tag_3\n      jumpi\n      dup1\n      0x145d0e22\n      eq\n      tag_4\n      jumpi\n      dup1\n      0x299c0030\n      eq\n      tag_5\n      jumpi\n      dup1\n      0x2b14386f\n      eq\n      tag_6\n      jumpi\n      dup1\n      0x2e35253a\n      eq\n      tag_7\n      jumpi\n      dup1\n      0x3fed508f\n      eq\n      tag_8\n      jumpi\n    tag_2:\n      0x00\n      dup1\n      revert\n        /* \"contracts/struct.sol\":598:666  function setU1_2(user memory _u1) public {... */\n    tag_3:\n      tag_18\n      0x04\n      dup1\n      calldatasize\n      sub\n      dup2\n      add\n      swap1\n      tag_19\n      swap2\n      swap1\n      tag_20\n      jump\t// in\n    tag_19:\n      tag_21\n      jump\t// in\n    tag_18:\n      stop\n        /* \"contracts/struct.sol\":508:590  function setU1_Name(string memory _name) public {... */\n    tag_4:\n      tag_22\n      0x04\n      dup1\n      calldatasize\n      sub\n      dup2\n      add\n      swap1\n      tag_23\n      swap2\n      swap1\n      tag_24\n      jump\t// in\n    tag_23:\n      tag_25\n      jump\t// in\n    tag_22:\n      stop\n        /* \"contracts/struct.sol\":949:1047  function getU12() public view returns(user memory, user memory) {... */\n    tag_5:\n      tag_26\n      tag_27\n      jump\t// in\n    tag_26:\n      mload(0x40)\n      tag_28\n      swap3\n      swap2\n      swap1\n      tag_29\n      jump\t// in\n    tag_28:\n      mload(0x40)\n      dup1\n      swap2\n      sub\n      swap1\n      return\n        /* \"contracts/struct.sol\":398:500  function setU1(uint _number, string memory _name) public {... */\n    tag_6:\n      tag_30\n      0x04\n      dup1\n      calldatasize\n      sub\n      dup2\n      add\n      swap1\n      tag_31\n      swap2\n      swap1\n      tag_32\n      jump\t// in\n    tag_31:\n      tag_33\n      jump\t// in\n    tag_30:\n      stop\n        /* \"contracts/struct.sol\":1626:1730  function getS1_2() public view returns(string memory, bytes3) {... */\n    tag_7:\n      tag_34\n      tag_35\n      jump\t// in\n    tag_34:\n      mload(0x40)\n      tag_36\n      swap3\n      swap2\n      swap1\n      tag_37\n      jump\t// in\n    tag_36:\n      mload(0x40)\n      dup1\n      swap2\n      sub\n      swap1\n      return\n        /* \"contracts/struct.sol\":1231:1364  function setS1(uint _number, string memory _name, bytes3 _id, bool _b) public {... */\n    tag_8:\n      tag_38\n      0x04\n      dup1\n      calldatasize\n      sub\n      dup2\n      add\n      swap1\n      tag_39\n      swap2\n      swap1\n      tag_40\n      jump\t// in\n    tag_39:\n      tag_41\n      jump\t// in\n    tag_38:\n      stop\n        /* \"contracts/struct.sol\":1462:1531  function setS1_2(staff memory _s1) public {... */\n    tag_9:\n      tag_42\n      0x04\n      dup1\n      calldatasize\n      sub\n      dup2\n      add\n      swap1\n      tag_43\n      swap2\n      swap1\n      tag_44\n      jump\t// in\n    tag_43:\n      tag_45\n      jump\t// in\n    tag_42:\n      stop\n        /* \"contracts/struct.sol\":1539:1618  function getS1() public view returns(staff memory) {... */\n    tag_10:\n      tag_46\n      tag_47\n      jump\t// in\n    tag_46:\n      mload(0x40)\n      tag_48\n      swap2\n      swap1\n      tag_49\n      jump\t// in\n    tag_48:\n      mload(0x40)\n      dup1\n      swap2\n      sub\n      swap1\n      return\n        /* \"contracts/struct.sol\":674:832  function setU1_3(uint _number, string memory _name) public {... */\n    tag_11:\n      tag_50\n      0x04\n      dup1\n      calldatasize\n      sub\n      dup2\n      add\n      swap1\n      tag_51\n      swap2\n      swap1\n      tag_32\n      jump\t// in\n    tag_51:\n      tag_52\n      jump\t// in\n    tag_50:\n      stop\n        /* \"contracts/struct.sol\":840:941  function setU2(uint _number, string memory _name) public {... */\n    tag_12:\n      tag_53\n      0x04\n      dup1\n      calldatasize\n      sub\n      dup2\n      add\n      swap1\n      tag_54\n      swap2\n      swap1\n      tag_32\n      jump\t// in\n    tag_54:\n      tag_55\n      jump\t// in\n    tag_53:\n      stop\n        /* \"contracts/struct.sol\":321:390  function getA() public view returns(uint) {... */\n    tag_13:\n      tag_56\n      tag_57\n      jump\t// in\n    tag_56:\n      mload(0x40)\n      tag_58\n      swap2\n      swap1\n      tag_59\n      jump\t// in\n    tag_58:\n      mload(0x40)\n      dup1\n      swap2\n      sub\n      swap1\n      return\n        /* \"contracts/struct.sol\":1372:1454  function setS1_Name(string memory _name) public {... */\n    tag_14:\n      tag_60\n      0x04\n      dup1\n      calldatasize\n      sub\n      dup2\n      add\n      swap1\n      tag_61\n      swap2\n      swap1\n      tag_24\n      jump\t// in\n    tag_61:\n      tag_62\n      jump\t// in\n    tag_60:\n      stop\n        /* \"contracts/struct.sol\":258:313  function setA(uint _a) public {... */\n    tag_15:\n      tag_63\n      0x04\n      dup1\n      calldatasize\n      sub\n      dup2\n      add\n      swap1\n      tag_64\n      swap2\n      swap1\n      tag_65\n      jump\t// in\n    tag_64:\n      tag_66\n      jump\t// in\n    tag_63:\n      stop\n        /* \"contracts/struct.sol\":598:666  function setU1_2(user memory _u1) public {... */\n    tag_21:\n        /* \"contracts/struct.sol\":655:658  _u1 */\n      dup1\n        /* \"contracts/struct.sol\":650:652  u1 */\n      0x04\n        /* \"contracts/struct.sol\":650:658  u1 = _u1 */\n      0x00\n      dup3\n      add\n      mload\n      dup2\n      0x00\n      add\n      sstore\n      0x20\n      dup3\n      add\n      mload\n      dup2\n      0x01\n      add\n      swap1\n      dup2\n      tag_68\n      swap2\n      swap1\n      tag_69\n      jump\t// in\n    tag_68:\n      pop\n      swap1\n      pop\n      pop\n        /* \"contracts/struct.sol\":598:666  function setU1_2(user memory _u1) public {... */\n      pop\n      jump\t// out\n        /* \"contracts/struct.sol\":508:590  function setU1_Name(string memory _name) public {... */\n    tag_25:\n        /* \"contracts/struct.sol\":577:582  _name */\n      dup1\n        /* \"contracts/struct.sol\":567:569  u1 */\n      0x04\n        /* \"contracts/struct.sol\":567:574  u1.name */\n      0x01\n      add\n        /* \"contracts/struct.sol\":567:582  u1.name = _name */\n      swap1\n      dup2\n      tag_71\n      swap2\n      swap1\n      tag_69\n      jump\t// in\n    tag_71:\n      pop\n        /* \"contracts/struct.sol\":508:590  function setU1_Name(string memory _name) public {... */\n      pop\n      jump\t// out\n        /* \"contracts/struct.sol\":949:1047  function getU12() public view returns(user memory, user memory) {... */\n    tag_27:\n        /* \"contracts/struct.sol\":987:998  user memory */\n      tag_72\n      tag_73\n      jump\t// in\n    tag_72:\n        /* \"contracts/struct.sol\":1000:1011  user memory */\n      tag_74\n      tag_73\n      jump\t// in\n    tag_74:\n        /* \"contracts/struct.sol\":1032:1034  u1 */\n      0x04\n        /* \"contracts/struct.sol\":1036:1038  u2 */\n      0x06\n        /* \"contracts/struct.sol\":1024:1039  return (u1, u2) */\n      dup2\n      mload(0x40)\n      dup1\n      0x40\n      add\n      0x40\n      mstore\n      swap1\n      dup2\n      0x00\n      dup3\n      add\n      sload\n      dup2\n      mstore\n      0x20\n      add\n      0x01\n      dup3\n      add\n      dup1\n      sload\n      tag_76\n      swap1\n      tag_77\n      jump\t// in\n    tag_76:\n      dup1\n      0x1f\n      add\n      0x20\n      dup1\n      swap2\n      div\n      mul\n      0x20\n      add\n      mload(0x40)\n      swap1\n      dup2\n      add\n      0x40\n      mstore\n      dup1\n      swap3\n      swap2\n      swap1\n      dup2\n      dup2\n      mstore\n      0x20\n      add\n      dup3\n      dup1\n      sload\n      tag_78\n      swap1\n      tag_77\n      jump\t// in\n    tag_78:\n      dup1\n      iszero\n      tag_79\n      jumpi\n      dup1\n      0x1f\n      lt\n      tag_80\n      jumpi\n      0x0100\n      dup1\n      dup4\n      sload\n      div\n      mul\n      dup4\n      mstore\n      swap2\n      0x20\n      add\n      swap2\n      jump(tag_79)\n    tag_80:\n      dup3\n      add\n      swap2\n      swap1\n      0x00\n      mstore\n      keccak256(0x00, 0x20)\n      swap1\n    tag_81:\n      dup2\n      sload\n      dup2\n      mstore\n      swap1\n      0x01\n      add\n      swap1\n      0x20\n      add\n      dup1\n      dup4\n      gt\n      tag_81\n      jumpi\n      dup3\n      swap1\n      sub\n      0x1f\n      and\n      dup3\n      add\n      swap2\n    tag_79:\n      pop\n      pop\n      pop\n      pop\n      pop\n      dup2\n      mstore\n      pop\n      pop\n      swap2\n      pop\n      dup1\n      mload(0x40)\n      dup1\n      0x40\n      add\n      0x40\n      mstore\n      swap1\n      dup2\n      0x00\n      dup3\n      add\n      sload\n      dup2\n      mstore\n      0x20\n      add\n      0x01\n      dup3\n      add\n      dup1\n      sload\n      tag_82\n      swap1\n      tag_77\n      jump\t// in\n    tag_82:\n      dup1\n      0x1f\n      add\n      0x20\n      dup1\n      swap2\n      div\n      mul\n      0x20\n      add\n      mload(0x40)\n      swap1\n      dup2\n      add\n      0x40\n      mstore\n      dup1\n      swap3\n      swap2\n      swap1\n      dup2\n      dup2\n      mstore\n      0x20\n      add\n      dup3\n      dup1\n      sload\n      tag_83\n      swap1\n      tag_77\n      jump\t// in\n    tag_83:\n      dup1\n      iszero\n      tag_84\n      jumpi\n      dup1\n      0x1f\n      lt\n      tag_85\n      jumpi\n      0x0100\n      dup1\n      dup4\n      sload\n      div\n      mul\n      dup4\n      mstore\n      swap2\n      0x20\n      add\n      swap2\n      jump(tag_84)\n    tag_85:\n      dup3\n      add\n      swap2\n      swap1\n      0x00\n      mstore\n      keccak256(0x00, 0x20)\n      swap1\n    tag_86:\n      dup2\n      sload\n      dup2\n      mstore\n      swap1\n      0x01\n      add\n      swap1\n      0x20\n      add\n      dup1\n      dup4\n      gt\n      tag_86\n      jumpi\n      dup3\n      swap1\n      sub\n      0x1f\n      and\n      dup3\n      add\n      swap2\n    tag_84:\n      pop\n      pop\n      pop\n      pop\n      pop\n      dup2\n      mstore\n      pop\n      pop\n      swap1\n      pop\n      swap2\n      pop\n      swap2\n      pop\n        /* \"contracts/struct.sol\":949:1047  function getU12() public view returns(user memory, user memory) {... */\n      swap1\n      swap2\n      jump\t// out\n        /* \"contracts/struct.sol\":398:500  function setU1(uint _number, string memory _name) public {... */\n    tag_33:\n        /* \"contracts/struct.sol\":471:491  user(_number, _name) */\n      mload(0x40)\n      dup1\n      0x40\n      add\n      0x40\n      mstore\n      dup1\n        /* \"contracts/struct.sol\":476:483  _number */\n      dup4\n        /* \"contracts/struct.sol\":471:491  user(_number, _name) */\n      dup2\n      mstore\n      0x20\n      add\n        /* \"contracts/struct.sol\":485:490  _name */\n      dup3\n        /* \"contracts/struct.sol\":471:491  user(_number, _name) */\n      dup2\n      mstore\n      pop\n        /* \"contracts/struct.sol\":466:468  u1 */\n      0x04\n        /* \"contracts/struct.sol\":466:491  u1 = user(_number, _name) */\n      0x00\n      dup3\n      add\n      mload\n      dup2\n      0x00\n      add\n      sstore\n      0x20\n      dup3\n      add\n      mload\n      dup2\n      0x01\n      add\n      swap1\n      dup2\n      tag_88\n      swap2\n      swap1\n      tag_69\n      jump\t// in\n    tag_88:\n      pop\n      swap1\n      pop\n      pop\n        /* \"contracts/struct.sol\":398:500  function setU1(uint _number, string memory _name) public {... */\n      pop\n      pop\n      jump\t// out\n        /* \"contracts/struct.sol\":1626:1730  function getS1_2() public view returns(string memory, bytes3) {... */\n    tag_35:\n        /* \"contracts/struct.sol\":1665:1678  string memory */\n      0x60\n        /* \"contracts/struct.sol\":1680:1686  bytes3 */\n      0x00\n        /* \"contracts/struct.sol\":1707:1709  s1 */\n      0x08\n        /* \"contracts/struct.sol\":1707:1714  s1.name */\n      0x01\n      add\n        /* \"contracts/struct.sol\":1716:1718  s1 */\n      0x08\n        /* \"contracts/struct.sol\":1716:1721  s1.id */\n      0x02\n      add\n      0x00\n      swap1\n      sload\n      swap1\n      0x0100\n      exp\n      swap1\n      div\n      0xe8\n      shl\n        /* \"contracts/struct.sol\":1699:1722  return (s1.name, s1.id) */\n      dup2\n      dup1\n      sload\n      tag_90\n      swap1\n      tag_77\n      jump\t// in\n    tag_90:\n      dup1\n      0x1f\n      add\n      0x20\n      dup1\n      swap2\n      div\n      mul\n      0x20\n      add\n      mload(0x40)\n      swap1\n      dup2\n      add\n      0x40\n      mstore\n      dup1\n      swap3\n      swap2\n      swap1\n      dup2\n      dup2\n      mstore\n      0x20\n      add\n      dup3\n      dup1\n      sload\n      tag_91\n      swap1\n      tag_77\n      jump\t// in\n    tag_91:\n      dup1\n      iszero\n      tag_92\n      jumpi\n      dup1\n      0x1f\n      lt\n      tag_93\n      jumpi\n      0x0100\n      dup1\n      dup4\n      sload\n      div\n      mul\n      dup4\n      mstore\n      swap2\n      0x20\n      add\n      swap2\n      jump(tag_92)\n    tag_93:\n      dup3\n      add\n      swap2\n      swap1\n      0x00\n      mstore\n      keccak256(0x00, 0x20)\n      swap1\n    tag_94:\n      dup2\n      sload\n      dup2\n      mstore\n      swap1\n      0x01\n      add\n      swap1\n      0x20\n      add\n      dup1\n      dup4\n      gt\n      tag_94\n      jumpi\n      dup3\n      swap1\n      sub\n      0x1f\n      and\n      dup3\n      add\n      swap2\n    tag_92:\n      pop\n      pop\n      pop\n      pop\n      pop\n      swap2\n      pop\n      swap2\n      pop\n      swap2\n      pop\n        /* \"contracts/struct.sol\":1626:1730  function getS1_2() public view returns(string memory, bytes3) {... */\n      swap1\n      swap2\n      jump\t// out\n        /* \"contracts/struct.sol\":1231:1364  function setS1(uint _number, string memory _name, bytes3 _id, bool _b) public {... */\n    tag_41:\n        /* \"contracts/struct.sol\":1325:1355  staff(_number, _name, _id, _b) */\n      mload(0x40)\n      dup1\n      0x80\n      add\n      0x40\n      mstore\n      dup1\n        /* \"contracts/struct.sol\":1331:1338  _number */\n      dup6\n        /* \"contracts/struct.sol\":1325:1355  staff(_number, _name, _id, _b) */\n      dup2\n      mstore\n      0x20\n      add\n        /* \"contracts/struct.sol\":1340:1345  _name */\n      dup5\n        /* \"contracts/struct.sol\":1325:1355  staff(_number, _name, _id, _b) */\n      dup2\n      mstore\n      0x20\n      add\n        /* \"contracts/struct.sol\":1347:1350  _id */\n      dup4\n        /* \"contracts/struct.sol\":1325:1355  staff(_number, _name, _id, _b) */\n      not(0xffffffffffffffffffffffffffffffffffffffffffffffffffffffffff)\n      and\n      dup2\n      mstore\n      0x20\n      add\n        /* \"contracts/struct.sol\":1352:1354  _b */\n      dup3\n        /* \"contracts/struct.sol\":1325:1355  staff(_number, _name, _id, _b) */\n      iszero\n      iszero\n      dup2\n      mstore\n      pop\n        /* \"contracts/struct.sol\":1320:1322  s1 */\n      0x08\n        /* \"contracts/struct.sol\":1320:1355  s1 = staff(_number, _name, _id, _b) */\n      0x00\n      dup3\n      add\n      mload\n      dup2\n      0x00\n      add\n      sstore\n      0x20\n      dup3\n      add\n      mload\n      dup2\n      0x01\n      add\n      swap1\n      dup2\n      tag_96\n      swap2\n      swap1\n      tag_69\n      jump\t// in\n    tag_96:\n      pop\n      0x40\n      dup3\n      add\n      mload\n      dup2\n      0x02\n      add\n      exp(0x0100, 0x00)\n      dup2\n      sload\n      dup2\n      0xffffff\n      mul\n      not\n      and\n      swap1\n      dup4\n      0xe8\n      shr\n      mul\n      or\n      swap1\n      sstore\n      pop\n      0x60\n      dup3\n      add\n      mload\n      dup2\n      0x02\n      add\n      exp(0x0100, 0x03)\n      dup2\n      sload\n      dup2\n      0xff\n      mul\n      not\n      and\n      swap1\n      dup4\n      iszero\n      iszero\n      mul\n      or\n      swap1\n      sstore\n      pop\n      swap1\n      pop\n      pop\n        /* \"contracts/struct.sol\":1231:1364  function setS1(uint _number, string memory _name, bytes3 _id, bool _b) public {... */\n      pop\n      pop\n      pop\n      pop\n      jump\t// out\n        /* \"contracts/struct.sol\":1462:1531  function setS1_2(staff memory _s1) public {... */\n    tag_45:\n        /* \"contracts/struct.sol\":1520:1523  _s1 */\n      dup1\n        /* \"contracts/struct.sol\":1515:1517  s1 */\n      0x08\n        /* \"contracts/struct.sol\":1515:1523  s1 = _s1 */\n      0x00\n      dup3\n      add\n      mload\n      dup2\n      0x00\n      add\n      sstore\n      0x20\n      dup3\n      add\n      mload\n      dup2\n      0x01\n      add\n      swap1\n      dup2\n      tag_98\n      swap2\n      swap1\n      tag_69\n      jump\t// in\n    tag_98:\n      pop\n      0x40\n      dup3\n      add\n      mload\n      dup2\n      0x02\n      add\n      exp(0x0100, 0x00)\n      dup2\n      sload\n      dup2\n      0xffffff\n      mul\n      not\n      and\n      swap1\n      dup4\n      0xe8\n      shr\n      mul\n      or\n      swap1\n      sstore\n      pop\n      0x60\n      dup3\n      add\n      mload\n      dup2\n      0x02\n      add\n      exp(0x0100, 0x03)\n      dup2\n      sload\n      dup2\n      0xff\n      mul\n      not\n      and\n      swap1\n      dup4\n      iszero\n      iszero\n      mul\n      or\n      swap1\n      sstore\n      pop\n      swap1\n      pop\n      pop\n        /* \"contracts/struct.sol\":1462:1531  function setS1_2(staff memory _s1) public {... */\n      pop\n      jump\t// out\n        /* \"contracts/struct.sol\":1539:1618  function getS1() public view returns(staff memory) {... */\n    tag_47:\n        /* \"contracts/struct.sol\":1576:1588  staff memory */\n      tag_99\n      tag_100\n      jump\t// in\n    tag_99:\n        /* \"contracts/struct.sol\":1608:1610  s1 */\n      0x08\n        /* \"contracts/struct.sol\":1601:1610  return s1 */\n      mload(0x40)\n      dup1\n      0x80\n      add\n      0x40\n      mstore\n      swap1\n      dup2\n      0x00\n      dup3\n      add\n      sload\n      dup2\n      mstore\n      0x20\n      add\n      0x01\n      dup3\n      add\n      dup1\n      sload\n      tag_102\n      swap1\n      tag_77\n      jump\t// in\n    tag_102:\n      dup1\n      0x1f\n      add\n      0x20\n      dup1\n      swap2\n      div\n      mul\n      0x20\n      add\n      mload(0x40)\n      swap1\n      dup2\n      add\n      0x40\n      mstore\n      dup1\n      swap3\n      swap2\n      swap1\n      dup2\n      dup2\n      mstore\n      0x20\n      add\n      dup3\n      dup1\n      sload\n      tag_103\n      swap1\n      tag_77\n      jump\t// in\n    tag_103:\n      dup1\n      iszero\n      tag_104\n      jumpi\n      dup1\n      0x1f\n      lt\n      tag_105\n      jumpi\n      0x0100\n      dup1\n      dup4\n      sload\n      div\n      mul\n      dup4\n      mstore\n      swap2\n      0x20\n      add\n      swap2\n      jump(tag_104)\n    tag_105:\n      dup3\n      add\n      swap2\n      swap1\n      0x00\n      mstore\n      keccak256(0x00, 0x20)\n      swap1\n    tag_106:\n      dup2\n      sload\n      dup2\n      mstore\n      swap1\n      0x01\n      add\n      swap1\n      0x20\n      add\n      dup1\n      dup4\n      gt\n      tag_106\n      jumpi\n      dup3\n      swap1\n      sub\n      0x1f\n      and\n      dup3\n      add\n      swap2\n    tag_104:\n      pop\n      pop\n      pop\n      pop\n      pop\n      dup2\n      mstore\n      0x20\n      add\n      0x02\n      dup3\n      add\n      0x00\n      swap1\n      sload\n      swap1\n      0x0100\n      exp\n      swap1\n      div\n      0xe8\n      shl\n      not(0xffffffffffffffffffffffffffffffffffffffffffffffffffffffffff)\n      and\n      not(0xffffffffffffffffffffffffffffffffffffffffffffffffffffffffff)\n      and\n      dup2\n      mstore\n      0x20\n      add\n      0x02\n      dup3\n      add\n      0x03\n      swap1\n      sload\n      swap1\n      0x0100\n      exp\n      swap1\n      div\n      0xff\n      and\n      iszero\n      iszero\n      iszero\n      iszero\n      dup2\n      mstore\n      pop\n      pop\n      swap1\n      pop\n        /* \"contracts/struct.sol\":1539:1618  function getS1() public view returns(staff memory) {... */\n      swap1\n      jump\t// out\n        /* \"contracts/struct.sol\":674:832  function setU1_3(uint _number, string memory _name) public {... */\n    tag_52:\n        /* \"contracts/struct.sol\":749:824  user({... */\n      mload(0x40)\n      dup1\n      0x40\n      add\n      0x40\n      mstore\n      dup1\n        /* \"contracts/struct.sol\":778:785  _number */\n      dup4\n        /* \"contracts/struct.sol\":749:824  user({... */\n      dup2\n      mstore\n      0x20\n      add\n        /* \"contracts/struct.sol\":807:812  _name */\n      dup3\n        /* \"contracts/struct.sol\":749:824  user({... */\n      dup2\n      mstore\n      pop\n        /* \"contracts/struct.sol\":744:746  u1 */\n      0x04\n        /* \"contracts/struct.sol\":744:824  u1 = user({... */\n      0x00\n      dup3\n      add\n      mload\n      dup2\n      0x00\n      add\n      sstore\n      0x20\n      dup3\n      add\n      mload\n      dup2\n      0x01\n      add\n      swap1\n      dup2\n      tag_108\n      swap2\n      swap1\n      tag_69\n      jump\t// in\n    tag_108:\n      pop\n      swap1\n      pop\n      pop\n        /* \"contracts/struct.sol\":674:832  function setU1_3(uint _number, string memory _name) public {... */\n      pop\n      pop\n      jump\t// out\n        /* \"contracts/struct.sol\":840:941  function setU2(uint _number, string memory _name) public {... */\n    tag_55:\n        /* \"contracts/struct.sol\":913:933  user(_number, _name) */\n      mload(0x40)\n      dup1\n      0x40\n      add\n      0x40\n      mstore\n      dup1\n        /* \"contracts/struct.sol\":918:925  _number */\n      dup4\n        /* \"contracts/struct.sol\":913:933  user(_number, _name) */\n      dup2\n      mstore\n      0x20\n      add\n        /* \"contracts/struct.sol\":927:932  _name */\n      dup3\n        /* \"contracts/struct.sol\":913:933  user(_number, _name) */\n      dup2\n      mstore\n      pop\n        /* \"contracts/struct.sol\":908:910  u2 */\n      0x06\n        /* \"contracts/struct.sol\":908:933  u2 = user(_number, _name) */\n      0x00\n      dup3\n      add\n      mload\n      dup2\n      0x00\n      add\n      sstore\n      0x20\n      dup3\n      add\n      mload\n      dup2\n      0x01\n      add\n      swap1\n      dup2\n      tag_110\n      swap2\n      swap1\n      tag_69\n      jump\t// in\n    tag_110:\n      pop\n      swap1\n      pop\n      pop\n        /* \"contracts/struct.sol\":840:941  function setU2(uint _number, string memory _name) public {... */\n      pop\n      pop\n      jump\t// out\n        /* \"contracts/struct.sol\":321:390  function getA() public view returns(uint) {... */\n    tag_57:\n        /* \"contracts/struct.sol\":357:361  uint */\n      0x00\n        /* \"contracts/struct.sol\":381:382  a */\n      dup1\n      sload\n        /* \"contracts/struct.sol\":374:382  return a */\n      swap1\n      pop\n        /* \"contracts/struct.sol\":321:390  function getA() public view returns(uint) {... */\n      swap1\n      jump\t// out\n        /* \"contracts/struct.sol\":1372:1454  function setS1_Name(string memory _name) public {... */\n    tag_62:\n        /* \"contracts/struct.sol\":1441:1446  _name */\n      dup1\n        /* \"contracts/struct.sol\":1431:1433  s1 */\n      0x08\n        /* \"contracts/struct.sol\":1431:1438  s1.name */\n      0x01\n      add\n        /* \"contracts/struct.sol\":1431:1446  s1.name = _name */\n      swap1\n      dup2\n      tag_113\n      swap2\n      swap1\n      tag_69\n      jump\t// in\n    tag_113:\n      pop\n        /* \"contracts/struct.sol\":1372:1454  function setS1_Name(string memory _name) public {... */\n      pop\n      jump\t// out\n        /* \"contracts/struct.sol\":258:313  function setA(uint _a) public {... */\n    tag_66:\n        /* \"contracts/struct.sol\":303:305  _a */\n      dup1\n        /* \"contracts/struct.sol\":299:300  a */\n      0x00\n        /* \"contracts/struct.sol\":299:305  a = _a */\n      dup2\n      swap1\n      sstore\n      pop\n        /* \"contracts/struct.sol\":258:313  function setA(uint _a) public {... */\n      pop\n      jump\t// out\n    tag_73:\n      mload(0x40)\n      dup1\n      0x40\n      add\n      0x40\n      mstore\n      dup1\n      0x00\n      dup2\n      mstore\n      0x20\n      add\n      0x60\n      dup2\n      mstore\n      pop\n      swap1\n      jump\t// out\n    tag_100:\n      mload(0x40)\n      dup1\n      0x80\n      add\n      0x40\n      mstore\n      dup1\n      0x00\n      dup2\n      mstore\n      0x20\n      add\n      0x60\n      dup2\n      mstore\n      0x20\n      add\n      and(not(0xffffffffffffffffffffffffffffffffffffffffffffffffffffffffff), 0x00)\n      dup2\n      mstore\n      0x20\n      add\n      iszero(iszero(0x00))\n      dup2\n      mstore\n      pop\n      swap1\n      jump\t// out\n        /* \"#utility.yul\":7:82   */\n    tag_115:\n        /* \"#utility.yul\":40:46   */\n      0x00\n        /* \"#utility.yul\":73:75   */\n      0x40\n        /* \"#utility.yul\":67:76   */\n      mload\n        /* \"#utility.yul\":57:76   */\n      swap1\n      pop\n        /* \"#utility.yul\":7:82   */\n      swap1\n      jump\t// out\n        /* \"#utility.yul\":88:205   */\n    tag_116:\n        /* \"#utility.yul\":197:198   */\n      0x00\n        /* \"#utility.yul\":194:195   */\n      dup1\n        /* \"#utility.yul\":187:199   */\n      revert\n        /* \"#utility.yul\":211:328   */\n    tag_117:\n        /* \"#utility.yul\":320:321   */\n      0x00\n        /* \"#utility.yul\":317:318   */\n      dup1\n        /* \"#utility.yul\":310:322   */\n      revert\n        /* \"#utility.yul\":334:451   */\n    tag_118:\n        /* \"#utility.yul\":443:444   */\n      0x00\n        /* \"#utility.yul\":440:441   */\n      dup1\n        /* \"#utility.yul\":433:445   */\n      revert\n        /* \"#utility.yul\":457:559   */\n    tag_119:\n        /* \"#utility.yul\":498:504   */\n      0x00\n        /* \"#utility.yul\":549:551   */\n      0x1f\n        /* \"#utility.yul\":545:552   */\n      not\n        /* \"#utility.yul\":540:542   */\n      0x1f\n        /* \"#utility.yul\":533:538   */\n      dup4\n        /* \"#utility.yul\":529:543   */\n      add\n        /* \"#utility.yul\":525:553   */\n      and\n        /* \"#utility.yul\":515:553   */\n      swap1\n      pop\n        /* \"#utility.yul\":457:559   */\n      swap2\n      swap1\n      pop\n      jump\t// out\n        /* \"#utility.yul\":565:745   */\n    tag_120:\n        /* \"#utility.yul\":613:690   */\n      0x4e487b7100000000000000000000000000000000000000000000000000000000\n        /* \"#utility.yul\":610:611   */\n      0x00\n        /* \"#utility.yul\":603:691   */\n      mstore\n        /* \"#utility.yul\":710:714   */\n      0x41\n        /* \"#utility.yul\":707:708   */\n      0x04\n        /* \"#utility.yul\":700:715   */\n      mstore\n        /* \"#utility.yul\":734:738   */\n      0x24\n        /* \"#utility.yul\":731:732   */\n      0x00\n        /* \"#utility.yul\":724:739   */\n      revert\n        /* \"#utility.yul\":751:1032   */\n    tag_121:\n        /* \"#utility.yul\":834:861   */\n      tag_178\n        /* \"#utility.yul\":856:860   */\n      dup3\n        /* \"#utility.yul\":834:861   */\n      tag_119\n      jump\t// in\n    tag_178:\n        /* \"#utility.yul\":826:832   */\n      dup2\n        /* \"#utility.yul\":822:862   */\n      add\n        /* \"#utility.yul\":964:970   */\n      dup2\n        /* \"#utility.yul\":952:962   */\n      dup2\n        /* \"#utility.yul\":949:971   */\n      lt\n        /* \"#utility.yul\":928:946   */\n      0xffffffffffffffff\n        /* \"#utility.yul\":916:926   */\n      dup3\n        /* \"#utility.yul\":913:947   */\n      gt\n        /* \"#utility.yul\":910:972   */\n      or\n        /* \"#utility.yul\":907:995   */\n      iszero\n      tag_179\n      jumpi\n        /* \"#utility.yul\":975:993   */\n      tag_180\n      tag_120\n      jump\t// in\n    tag_180:\n        /* \"#utility.yul\":907:995   */\n    tag_179:\n        /* \"#utility.yul\":1015:1025   */\n      dup1\n        /* \"#utility.yul\":1011:1013   */\n      0x40\n        /* \"#utility.yul\":1004:1026   */\n      mstore\n        /* \"#utility.yul\":794:1032   */\n      pop\n        /* \"#utility.yul\":751:1032   */\n      pop\n      pop\n      jump\t// out\n        /* \"#utility.yul\":1038:1167   */\n    tag_122:\n        /* \"#utility.yul\":1072:1078   */\n      0x00\n        /* \"#utility.yul\":1099:1119   */\n      tag_182\n      tag_115\n      jump\t// in\n    tag_182:\n        /* \"#utility.yul\":1089:1119   */\n      swap1\n      pop\n        /* \"#utility.yul\":1128:1161   */\n      tag_183\n        /* \"#utility.yul\":1156:1160   */\n      dup3\n        /* \"#utility.yul\":1148:1154   */\n      dup3\n        /* \"#utility.yul\":1128:1161   */\n      tag_121\n      jump\t// in\n    tag_183:\n        /* \"#utility.yul\":1038:1167   */\n      swap2\n      swap1\n      pop\n      jump\t// out\n        /* \"#utility.yul\":1173:1290   */\n    tag_123:\n        /* \"#utility.yul\":1282:1283   */\n      0x00\n        /* \"#utility.yul\":1279:1280   */\n      dup1\n        /* \"#utility.yul\":1272:1284   */\n      revert\n        /* \"#utility.yul\":1296:1373   */\n    tag_124:\n        /* \"#utility.yul\":1333:1340   */\n      0x00\n        /* \"#utility.yul\":1362:1367   */\n      dup2\n        /* \"#utility.yul\":1351:1367   */\n      swap1\n      pop\n        /* \"#utility.yul\":1296:1373   */\n      swap2\n      swap1\n      pop\n      jump\t// out\n        /* \"#utility.yul\":1379:1501   */\n    tag_125:\n        /* \"#utility.yul\":1452:1476   */\n      tag_187\n        /* \"#utility.yul\":1470:1475   */\n      dup2\n        /* \"#utility.yul\":1452:1476   */\n      tag_124\n      jump\t// in\n    tag_187:\n        /* \"#utility.yul\":1445:1450   */\n      dup2\n        /* \"#utility.yul\":1442:1477   */\n      eq\n        /* \"#utility.yul\":1432:1495   */\n      tag_188\n      jumpi\n        /* \"#utility.yul\":1491:1492   */\n      0x00\n        /* \"#utility.yul\":1488:1489   */\n      dup1\n        /* \"#utility.yul\":1481:1493   */\n      revert\n        /* \"#utility.yul\":1432:1495   */\n    tag_188:\n        /* \"#utility.yul\":1379:1501   */\n      pop\n      jump\t// out\n        /* \"#utility.yul\":1507:1646   */\n    tag_126:\n        /* \"#utility.yul\":1553:1558   */\n      0x00\n        /* \"#utility.yul\":1591:1597   */\n      dup2\n        /* \"#utility.yul\":1578:1598   */\n      calldataload\n        /* \"#utility.yul\":1569:1598   */\n      swap1\n      pop\n        /* \"#utility.yul\":1607:1640   */\n      tag_190\n        /* \"#utility.yul\":1634:1639   */\n      dup2\n        /* \"#utility.yul\":1607:1640   */\n      tag_125\n      jump\t// in\n    tag_190:\n        /* \"#utility.yul\":1507:1646   */\n      swap3\n      swap2\n      pop\n      pop\n      jump\t// out\n        /* \"#utility.yul\":1652:1769   */\n    tag_127:\n        /* \"#utility.yul\":1761:1762   */\n      0x00\n        /* \"#utility.yul\":1758:1759   */\n      dup1\n        /* \"#utility.yul\":1751:1763   */\n      revert\n        /* \"#utility.yul\":1775:1892   */\n    tag_128:\n        /* \"#utility.yul\":1884:1885   */\n      0x00\n        /* \"#utility.yul\":1881:1882   */\n      dup1\n        /* \"#utility.yul\":1874:1886   */\n      revert\n        /* \"#utility.yul\":1898:2206   */\n    tag_129:\n        /* \"#utility.yul\":1960:1964   */\n      0x00\n        /* \"#utility.yul\":2050:2068   */\n      0xffffffffffffffff\n        /* \"#utility.yul\":2042:2048   */\n      dup3\n        /* \"#utility.yul\":2039:2069   */\n      gt\n        /* \"#utility.yul\":2036:2092   */\n      iszero\n      tag_194\n      jumpi\n        /* \"#utility.yul\":2072:2090   */\n      tag_195\n      tag_120\n      jump\t// in\n    tag_195:\n        /* \"#utility.yul\":2036:2092   */\n    tag_194:\n        /* \"#utility.yul\":2110:2139   */\n      tag_196\n        /* \"#utility.yul\":2132:2138   */\n      dup3\n        /* \"#utility.yul\":2110:2139   */\n      tag_119\n      jump\t// in\n    tag_196:\n        /* \"#utility.yul\":2102:2139   */\n      swap1\n      pop\n        /* \"#utility.yul\":2194:2198   */\n      0x20\n        /* \"#utility.yul\":2188:2192   */\n      dup2\n        /* \"#utility.yul\":2184:2199   */\n      add\n        /* \"#utility.yul\":2176:2199   */\n      swap1\n      pop\n        /* \"#utility.yul\":1898:2206   */\n      swap2\n      swap1\n      pop\n      jump\t// out\n        /* \"#utility.yul\":2212:2360   */\n    tag_130:\n        /* \"#utility.yul\":2310:2316   */\n      dup3\n        /* \"#utility.yul\":2305:2308   */\n      dup2\n        /* \"#utility.yul\":2300:2303   */\n      dup4\n        /* \"#utility.yul\":2287:2317   */\n      calldatacopy\n        /* \"#utility.yul\":2351:2352   */\n      0x00\n        /* \"#utility.yul\":2342:2348   */\n      dup4\n        /* \"#utility.yul\":2337:2340   */\n      dup4\n        /* \"#utility.yul\":2333:2349   */\n      add\n        /* \"#utility.yul\":2326:2353   */\n      mstore\n        /* \"#utility.yul\":2212:2360   */\n      pop\n      pop\n      pop\n      jump\t// out\n        /* \"#utility.yul\":2366:2791   */\n    tag_131:\n        /* \"#utility.yul\":2444:2449   */\n      0x00\n        /* \"#utility.yul\":2469:2535   */\n      tag_199\n        /* \"#utility.yul\":2485:2534   */\n      tag_200\n        /* \"#utility.yul\":2527:2533   */\n      dup5\n        /* \"#utility.yul\":2485:2534   */\n      tag_129\n      jump\t// in\n    tag_200:\n        /* \"#utility.yul\":2469:2535   */\n      tag_122\n      jump\t// in\n    tag_199:\n        /* \"#utility.yul\":2460:2535   */\n      swap1\n      pop\n        /* \"#utility.yul\":2558:2564   */\n      dup3\n        /* \"#utility.yul\":2551:2556   */\n      dup2\n        /* \"#utility.yul\":2544:2565   */\n      mstore\n        /* \"#utility.yul\":2596:2600   */\n      0x20\n        /* \"#utility.yul\":2589:2594   */\n      dup2\n        /* \"#utility.yul\":2585:2601   */\n      add\n        /* \"#utility.yul\":2634:2637   */\n      dup5\n        /* \"#utility.yul\":2625:2631   */\n      dup5\n        /* \"#utility.yul\":2620:2623   */\n      dup5\n        /* \"#utility.yul\":2616:2632   */\n      add\n        /* \"#utility.yul\":2613:2638   */\n      gt\n        /* \"#utility.yul\":2610:2722   */\n      iszero\n      tag_201\n      jumpi\n        /* \"#utility.yul\":2641:2720   */\n      tag_202\n      tag_128\n      jump\t// in\n    tag_202:\n        /* \"#utility.yul\":2610:2722   */\n    tag_201:\n        /* \"#utility.yul\":2731:2785   */\n      tag_203\n        /* \"#utility.yul\":2778:2784   */\n      dup5\n        /* \"#utility.yul\":2773:2776   */\n      dup3\n        /* \"#utility.yul\":2768:2771   */\n      dup6\n        /* \"#utility.yul\":2731:2785   */\n      tag_130\n      jump\t// in\n    tag_203:\n        /* \"#utility.yul\":2450:2791   */\n      pop\n        /* \"#utility.yul\":2366:2791   */\n      swap4\n      swap3\n      pop\n      pop\n      pop\n      jump\t// out\n        /* \"#utility.yul\":2811:3151   */\n    tag_132:\n        /* \"#utility.yul\":2867:2872   */\n      0x00\n        /* \"#utility.yul\":2916:2919   */\n      dup3\n        /* \"#utility.yul\":2909:2913   */\n      0x1f\n        /* \"#utility.yul\":2901:2907   */\n      dup4\n        /* \"#utility.yul\":2897:2914   */\n      add\n        /* \"#utility.yul\":2893:2920   */\n      slt\n        /* \"#utility.yul\":2883:3005   */\n      tag_205\n      jumpi\n        /* \"#utility.yul\":2924:3003   */\n      tag_206\n      tag_127\n      jump\t// in\n    tag_206:\n        /* \"#utility.yul\":2883:3005   */\n    tag_205:\n        /* \"#utility.yul\":3041:3047   */\n      dup2\n        /* \"#utility.yul\":3028:3048   */\n      calldataload\n        /* \"#utility.yul\":3066:3145   */\n      tag_207\n        /* \"#utility.yul\":3141:3144   */\n      dup5\n        /* \"#utility.yul\":3133:3139   */\n      dup3\n        /* \"#utility.yul\":3126:3130   */\n      0x20\n        /* \"#utility.yul\":3118:3124   */\n      dup7\n        /* \"#utility.yul\":3114:3131   */\n      add\n        /* \"#utility.yul\":3066:3145   */\n      tag_131\n      jump\t// in\n    tag_207:\n        /* \"#utility.yul\":3057:3145   */\n      swap2\n      pop\n        /* \"#utility.yul\":2873:3151   */\n      pop\n        /* \"#utility.yul\":2811:3151   */\n      swap3\n      swap2\n      pop\n      pop\n      jump\t// out\n        /* \"#utility.yul\":3183:3924   */\n    tag_133:\n        /* \"#utility.yul\":3252:3257   */\n      0x00\n        /* \"#utility.yul\":3296:3300   */\n      0x40\n        /* \"#utility.yul\":3284:3293   */\n      dup3\n        /* \"#utility.yul\":3279:3282   */\n      dup5\n        /* \"#utility.yul\":3275:3294   */\n      sub\n        /* \"#utility.yul\":3271:3301   */\n      slt\n        /* \"#utility.yul\":3268:3385   */\n      iszero\n      tag_209\n      jumpi\n        /* \"#utility.yul\":3304:3383   */\n      tag_210\n      tag_118\n      jump\t// in\n    tag_210:\n        /* \"#utility.yul\":3268:3385   */\n    tag_209:\n        /* \"#utility.yul\":3403:3424   */\n      tag_211\n        /* \"#utility.yul\":3419:3423   */\n      0x40\n        /* \"#utility.yul\":3403:3424   */\n      tag_122\n      jump\t// in\n    tag_211:\n        /* \"#utility.yul\":3394:3424   */\n      swap1\n      pop\n        /* \"#utility.yul\":3485:3486   */\n      0x00\n        /* \"#utility.yul\":3525:3574   */\n      tag_212\n        /* \"#utility.yul\":3570:3573   */\n      dup5\n        /* \"#utility.yul\":3561:3567   */\n      dup3\n        /* \"#utility.yul\":3550:3559   */\n      dup6\n        /* \"#utility.yul\":3546:3568   */\n      add\n        /* \"#utility.yul\":3525:3574   */\n      tag_126\n      jump\t// in\n    tag_212:\n        /* \"#utility.yul\":3518:3522   */\n      0x00\n        /* \"#utility.yul\":3511:3516   */\n      dup4\n        /* \"#utility.yul\":3507:3523   */\n      add\n        /* \"#utility.yul\":3500:3575   */\n      mstore\n        /* \"#utility.yul\":3434:3586   */\n      pop\n        /* \"#utility.yul\":3673:3675   */\n      0x20\n        /* \"#utility.yul\":3662:3671   */\n      dup3\n        /* \"#utility.yul\":3658:3676   */\n      add\n        /* \"#utility.yul\":3645:3677   */\n      calldataload\n        /* \"#utility.yul\":3704:3722   */\n      0xffffffffffffffff\n        /* \"#utility.yul\":3696:3702   */\n      dup2\n        /* \"#utility.yul\":3693:3723   */\n      gt\n        /* \"#utility.yul\":3690:3807   */\n      iszero\n      tag_213\n      jumpi\n        /* \"#utility.yul\":3726:3805   */\n      tag_214\n      tag_123\n      jump\t// in\n    tag_214:\n        /* \"#utility.yul\":3690:3807   */\n    tag_213:\n        /* \"#utility.yul\":3846:3905   */\n      tag_215\n        /* \"#utility.yul\":3901:3904   */\n      dup5\n        /* \"#utility.yul\":3892:3898   */\n      dup3\n        /* \"#utility.yul\":3881:3890   */\n      dup6\n        /* \"#utility.yul\":3877:3899   */\n      add\n        /* \"#utility.yul\":3846:3905   */\n      tag_132\n      jump\t// in\n    tag_215:\n        /* \"#utility.yul\":3839:3843   */\n      0x20\n        /* \"#utility.yul\":3832:3837   */\n      dup4\n        /* \"#utility.yul\":3828:3844   */\n      add\n        /* \"#utility.yul\":3821:3906   */\n      mstore\n        /* \"#utility.yul\":3596:3917   */\n      pop\n        /* \"#utility.yul\":3183:3924   */\n      swap3\n      swap2\n      pop\n      pop\n      jump\t// out\n        /* \"#utility.yul\":3930:4459   */\n    tag_20:\n        /* \"#utility.yul\":4009:4015   */\n      0x00\n        /* \"#utility.yul\":4058:4060   */\n      0x20\n        /* \"#utility.yul\":4046:4055   */\n      dup3\n        /* \"#utility.yul\":4037:4044   */\n      dup5\n        /* \"#utility.yul\":4033:4056   */\n      sub\n        /* \"#utility.yul\":4029:4061   */\n      slt\n        /* \"#utility.yul\":4026:4145   */\n      iszero\n      tag_217\n      jumpi\n        /* \"#utility.yul\":4064:4143   */\n      tag_218\n      tag_116\n      jump\t// in\n    tag_218:\n        /* \"#utility.yul\":4026:4145   */\n    tag_217:\n        /* \"#utility.yul\":4212:4213   */\n      0x00\n        /* \"#utility.yul\":4201:4210   */\n      dup3\n        /* \"#utility.yul\":4197:4214   */\n      add\n        /* \"#utility.yul\":4184:4215   */\n      calldataload\n        /* \"#utility.yul\":4242:4260   */\n      0xffffffffffffffff\n        /* \"#utility.yul\":4234:4240   */\n      dup2\n        /* \"#utility.yul\":4231:4261   */\n      gt\n        /* \"#utility.yul\":4228:4345   */\n      iszero\n      tag_219\n      jumpi\n        /* \"#utility.yul\":4264:4343   */\n      tag_220\n      tag_117\n      jump\t// in\n    tag_220:\n        /* \"#utility.yul\":4228:4345   */\n    tag_219:\n        /* \"#utility.yul\":4369:4442   */\n      tag_221\n        /* \"#utility.yul\":4434:4441   */\n      dup5\n        /* \"#utility.yul\":4425:4431   */\n      dup3\n        /* \"#utility.yul\":4414:4423   */\n      dup6\n        /* \"#utility.yul\":4410:4432   */\n      add\n        /* \"#utility.yul\":4369:4442   */\n      tag_133\n      jump\t// in\n    tag_221:\n        /* \"#utility.yul\":4359:4442   */\n      swap2\n      pop\n        /* \"#utility.yul\":4155:4452   */\n      pop\n        /* \"#utility.yul\":3930:4459   */\n      swap3\n      swap2\n      pop\n      pop\n      jump\t// out\n        /* \"#utility.yul\":4465:4974   */\n    tag_24:\n        /* \"#utility.yul\":4534:4540   */\n      0x00\n        /* \"#utility.yul\":4583:4585   */\n      0x20\n        /* \"#utility.yul\":4571:4580   */\n      dup3\n        /* \"#utility.yul\":4562:4569   */\n      dup5\n        /* \"#utility.yul\":4558:4581   */\n      sub\n        /* \"#utility.yul\":4554:4586   */\n      slt\n        /* \"#utility.yul\":4551:4670   */\n      iszero\n      tag_223\n      jumpi\n        /* \"#utility.yul\":4589:4668   */\n      tag_224\n      tag_116\n      jump\t// in\n    tag_224:\n        /* \"#utility.yul\":4551:4670   */\n    tag_223:\n        /* \"#utility.yul\":4737:4738   */\n      0x00\n        /* \"#utility.yul\":4726:4735   */\n      dup3\n        /* \"#utility.yul\":4722:4739   */\n      add\n        /* \"#utility.yul\":4709:4740   */\n      calldataload\n        /* \"#utility.yul\":4767:4785   */\n      0xffffffffffffffff\n        /* \"#utility.yul\":4759:4765   */\n      dup2\n        /* \"#utility.yul\":4756:4786   */\n      gt\n        /* \"#utility.yul\":4753:4870   */\n      iszero\n      tag_225\n      jumpi\n        /* \"#utility.yul\":4789:4868   */\n      tag_226\n      tag_117\n      jump\t// in\n    tag_226:\n        /* \"#utility.yul\":4753:4870   */\n    tag_225:\n        /* \"#utility.yul\":4894:4957   */\n      tag_227\n        /* \"#utility.yul\":4949:4956   */\n      dup5\n        /* \"#utility.yul\":4940:4946   */\n      dup3\n        /* \"#utility.yul\":4929:4938   */\n      dup6\n        /* \"#utility.yul\":4925:4947   */\n      add\n        /* \"#utility.yul\":4894:4957   */\n      tag_132\n      jump\t// in\n    tag_227:\n        /* \"#utility.yul\":4884:4957   */\n      swap2\n      pop\n        /* \"#utility.yul\":4680:4967   */\n      pop\n        /* \"#utility.yul\":4465:4974   */\n      swap3\n      swap2\n      pop\n      pop\n      jump\t// out\n        /* \"#utility.yul\":4980:5088   */\n    tag_134:\n        /* \"#utility.yul\":5057:5081   */\n      tag_229\n        /* \"#utility.yul\":5075:5080   */\n      dup2\n        /* \"#utility.yul\":5057:5081   */\n      tag_124\n      jump\t// in\n    tag_229:\n        /* \"#utility.yul\":5052:5055   */\n      dup3\n        /* \"#utility.yul\":5045:5082   */\n      mstore\n        /* \"#utility.yul\":4980:5088   */\n      pop\n      pop\n      jump\t// out\n        /* \"#utility.yul\":5094:5193   */\n    tag_135:\n        /* \"#utility.yul\":5146:5152   */\n      0x00\n        /* \"#utility.yul\":5180:5185   */\n      dup2\n        /* \"#utility.yul\":5174:5186   */\n      mload\n        /* \"#utility.yul\":5164:5186   */\n      swap1\n      pop\n        /* \"#utility.yul\":5094:5193   */\n      swap2\n      swap1\n      pop\n      jump\t// out\n        /* \"#utility.yul\":5199:5358   */\n    tag_136:\n        /* \"#utility.yul\":5273:5284   */\n      0x00\n        /* \"#utility.yul\":5307:5313   */\n      dup3\n        /* \"#utility.yul\":5302:5305   */\n      dup3\n        /* \"#utility.yul\":5295:5314   */\n      mstore\n        /* \"#utility.yul\":5347:5351   */\n      0x20\n        /* \"#utility.yul\":5342:5345   */\n      dup3\n        /* \"#utility.yul\":5338:5352   */\n      add\n        /* \"#utility.yul\":5323:5352   */\n      swap1\n      pop\n        /* \"#utility.yul\":5199:5358   */\n      swap3\n      swap2\n      pop\n      pop\n      jump\t// out\n        /* \"#utility.yul\":5364:5503   */\n    tag_137:\n        /* \"#utility.yul\":5453:5459   */\n      dup3\n        /* \"#utility.yul\":5448:5451   */\n      dup2\n        /* \"#utility.yul\":5443:5446   */\n      dup4\n        /* \"#utility.yul\":5437:5460   */\n      mcopy\n        /* \"#utility.yul\":5494:5495   */\n      0x00\n        /* \"#utility.yul\":5485:5491   */\n      dup4\n        /* \"#utility.yul\":5480:5483   */\n      dup4\n        /* \"#utility.yul\":5476:5492   */\n      add\n        /* \"#utility.yul\":5469:5496   */\n      mstore\n        /* \"#utility.yul\":5364:5503   */\n      pop\n      pop\n      pop\n      jump\t// out\n        /* \"#utility.yul\":5509:5866   */\n    tag_138:\n        /* \"#utility.yul\":5587:5590   */\n      0x00\n        /* \"#utility.yul\":5615:5654   */\n      tag_234\n        /* \"#utility.yul\":5648:5653   */\n      dup3\n        /* \"#utility.yul\":5615:5654   */\n      tag_135\n      jump\t// in\n    tag_234:\n        /* \"#utility.yul\":5670:5731   */\n      tag_235\n        /* \"#utility.yul\":5724:5730   */\n      dup2\n        /* \"#utility.yul\":5719:5722   */\n      dup6\n        /* \"#utility.yul\":5670:5731   */\n      tag_136\n      jump\t// in\n    tag_235:\n        /* \"#utility.yul\":5663:5731   */\n      swap4\n      pop\n        /* \"#utility.yul\":5740:5805   */\n      tag_236\n        /* \"#utility.yul\":5798:5804   */\n      dup2\n        /* \"#utility.yul\":5793:5796   */\n      dup6\n        /* \"#utility.yul\":5786:5790   */\n      0x20\n        /* \"#utility.yul\":5779:5784   */\n      dup7\n        /* \"#utility.yul\":5775:5791   */\n      add\n        /* \"#utility.yul\":5740:5805   */\n      tag_137\n      jump\t// in\n    tag_236:\n        /* \"#utility.yul\":5830:5859   */\n      tag_237\n        /* \"#utility.yul\":5852:5858   */\n      dup2\n        /* \"#utility.yul\":5830:5859   */\n      tag_119\n      jump\t// in\n    tag_237:\n        /* \"#utility.yul\":5825:5828   */\n      dup5\n        /* \"#utility.yul\":5821:5860   */\n      add\n        /* \"#utility.yul\":5814:5860   */\n      swap2\n      pop\n        /* \"#utility.yul\":5591:5866   */\n      pop\n        /* \"#utility.yul\":5509:5866   */\n      swap3\n      swap2\n      pop\n      pop\n      jump\t// out\n        /* \"#utility.yul\":5920:6518   */\n    tag_139:\n        /* \"#utility.yul\":6029:6032   */\n      0x00\n        /* \"#utility.yul\":6065:6069   */\n      0x40\n        /* \"#utility.yul\":6060:6063   */\n      dup4\n        /* \"#utility.yul\":6056:6070   */\n      add\n        /* \"#utility.yul\":6154:6158   */\n      0x00\n        /* \"#utility.yul\":6147:6152   */\n      dup4\n        /* \"#utility.yul\":6143:6159   */\n      add\n        /* \"#utility.yul\":6137:6160   */\n      mload\n        /* \"#utility.yul\":6173:6236   */\n      tag_239\n        /* \"#utility.yul\":6230:6234   */\n      0x00\n        /* \"#utility.yul\":6225:6228   */\n      dup7\n        /* \"#utility.yul\":6221:6235   */\n      add\n        /* \"#utility.yul\":6207:6219   */\n      dup3\n        /* \"#utility.yul\":6173:6236   */\n      tag_134\n      jump\t// in\n    tag_239:\n        /* \"#utility.yul\":6080:6246   */\n      pop\n        /* \"#utility.yul\":6328:6332   */\n      0x20\n        /* \"#utility.yul\":6321:6326   */\n      dup4\n        /* \"#utility.yul\":6317:6333   */\n      add\n        /* \"#utility.yul\":6311:6334   */\n      mload\n        /* \"#utility.yul\":6381:6384   */\n      dup5\n        /* \"#utility.yul\":6375:6379   */\n      dup3\n        /* \"#utility.yul\":6371:6385   */\n      sub\n        /* \"#utility.yul\":6364:6368   */\n      0x20\n        /* \"#utility.yul\":6359:6362   */\n      dup7\n        /* \"#utility.yul\":6355:6369   */\n      add\n        /* \"#utility.yul\":6348:6386   */\n      mstore\n        /* \"#utility.yul\":6407:6480   */\n      tag_240\n        /* \"#utility.yul\":6475:6479   */\n      dup3\n        /* \"#utility.yul\":6461:6473   */\n      dup3\n        /* \"#utility.yul\":6407:6480   */\n      tag_138\n      jump\t// in\n    tag_240:\n        /* \"#utility.yul\":6399:6480   */\n      swap2\n      pop\n        /* \"#utility.yul\":6256:6491   */\n      pop\n        /* \"#utility.yul\":6508:6512   */\n      dup1\n        /* \"#utility.yul\":6501:6512   */\n      swap2\n      pop\n        /* \"#utility.yul\":6034:6518   */\n      pop\n        /* \"#utility.yul\":5920:6518   */\n      swap3\n      swap2\n      pop\n      pop\n      jump\t// out\n        /* \"#utility.yul\":6524:7118   */\n    tag_29:\n        /* \"#utility.yul\":6725:6729   */\n      0x00\n        /* \"#utility.yul\":6763:6765   */\n      0x40\n        /* \"#utility.yul\":6752:6761   */\n      dup3\n        /* \"#utility.yul\":6748:6766   */\n      add\n        /* \"#utility.yul\":6740:6766   */\n      swap1\n      pop\n        /* \"#utility.yul\":6812:6821   */\n      dup2\n        /* \"#utility.yul\":6806:6810   */\n      dup2\n        /* \"#utility.yul\":6802:6822   */\n      sub\n        /* \"#utility.yul\":6798:6799   */\n      0x00\n        /* \"#utility.yul\":6787:6796   */\n      dup4\n        /* \"#utility.yul\":6783:6800   */\n      add\n        /* \"#utility.yul\":6776:6823   */\n      mstore\n        /* \"#utility.yul\":6840:6938   */\n      tag_242\n        /* \"#utility.yul\":6933:6937   */\n      dup2\n        /* \"#utility.yul\":6924:6930   */\n      dup6\n        /* \"#utility.yul\":6840:6938   */\n      tag_139\n      jump\t// in\n    tag_242:\n        /* \"#utility.yul\":6832:6938   */\n      swap1\n      pop\n        /* \"#utility.yul\":6985:6994   */\n      dup2\n        /* \"#utility.yul\":6979:6983   */\n      dup2\n        /* \"#utility.yul\":6975:6995   */\n      sub\n        /* \"#utility.yul\":6970:6972   */\n      0x20\n        /* \"#utility.yul\":6959:6968   */\n      dup4\n        /* \"#utility.yul\":6955:6973   */\n      add\n        /* \"#utility.yul\":6948:6996   */\n      mstore\n        /* \"#utility.yul\":7013:7111   */\n      tag_243\n        /* \"#utility.yul\":7106:7110   */\n      dup2\n        /* \"#utility.yul\":7097:7103   */\n      dup5\n        /* \"#utility.yul\":7013:7111   */\n      tag_139\n      jump\t// in\n    tag_243:\n        /* \"#utility.yul\":7005:7111   */\n      swap1\n      pop\n        /* \"#utility.yul\":6524:7118   */\n      swap4\n      swap3\n      pop\n      pop\n      pop\n      jump\t// out\n        /* \"#utility.yul\":7124:7778   */\n    tag_32:\n        /* \"#utility.yul\":7202:7208   */\n      0x00\n        /* \"#utility.yul\":7210:7216   */\n      dup1\n        /* \"#utility.yul\":7259:7261   */\n      0x40\n        /* \"#utility.yul\":7247:7256   */\n      dup4\n        /* \"#utility.yul\":7238:7245   */\n      dup6\n        /* \"#utility.yul\":7234:7257   */\n      sub\n        /* \"#utility.yul\":7230:7262   */\n      slt\n        /* \"#utility.yul\":7227:7346   */\n      iszero\n      tag_245\n      jumpi\n        /* \"#utility.yul\":7265:7344   */\n      tag_246\n      tag_116\n      jump\t// in\n    tag_246:\n        /* \"#utility.yul\":7227:7346   */\n    tag_245:\n        /* \"#utility.yul\":7385:7386   */\n      0x00\n        /* \"#utility.yul\":7410:7463   */\n      tag_247\n        /* \"#utility.yul\":7455:7462   */\n      dup6\n        /* \"#utility.yul\":7446:7452   */\n      dup3\n        /* \"#utility.yul\":7435:7444   */\n      dup7\n        /* \"#utility.yul\":7431:7453   */\n      add\n        /* \"#utility.yul\":7410:7463   */\n      tag_126\n      jump\t// in\n    tag_247:\n        /* \"#utility.yul\":7400:7463   */\n      swap3\n      pop\n        /* \"#utility.yul\":7356:7473   */\n      pop\n        /* \"#utility.yul\":7540:7542   */\n      0x20\n        /* \"#utility.yul\":7529:7538   */\n      dup4\n        /* \"#utility.yul\":7525:7543   */\n      add\n        /* \"#utility.yul\":7512:7544   */\n      calldataload\n        /* \"#utility.yul\":7571:7589   */\n      0xffffffffffffffff\n        /* \"#utility.yul\":7563:7569   */\n      dup2\n        /* \"#utility.yul\":7560:7590   */\n      gt\n        /* \"#utility.yul\":7557:7674   */\n      iszero\n      tag_248\n      jumpi\n        /* \"#utility.yul\":7593:7672   */\n      tag_249\n      tag_117\n      jump\t// in\n    tag_249:\n        /* \"#utility.yul\":7557:7674   */\n    tag_248:\n        /* \"#utility.yul\":7698:7761   */\n      tag_250\n        /* \"#utility.yul\":7753:7760   */\n      dup6\n        /* \"#utility.yul\":7744:7750   */\n      dup3\n        /* \"#utility.yul\":7733:7742   */\n      dup7\n        /* \"#utility.yul\":7729:7751   */\n      add\n        /* \"#utility.yul\":7698:7761   */\n      tag_132\n      jump\t// in\n    tag_250:\n        /* \"#utility.yul\":7688:7761   */\n      swap2\n      pop\n        /* \"#utility.yul\":7483:7771   */\n      pop\n        /* \"#utility.yul\":7124:7778   */\n      swap3\n      pop\n      swap3\n      swap1\n      pop\n      jump\t// out\n        /* \"#utility.yul\":7784:7953   */\n    tag_140:\n        /* \"#utility.yul\":7868:7879   */\n      0x00\n        /* \"#utility.yul\":7902:7908   */\n      dup3\n        /* \"#utility.yul\":7897:7900   */\n      dup3\n        /* \"#utility.yul\":7890:7909   */\n      mstore\n        /* \"#utility.yul\":7942:7946   */\n      0x20\n        /* \"#utility.yul\":7937:7940   */\n      dup3\n        /* \"#utility.yul\":7933:7947   */\n      add\n        /* \"#utility.yul\":7918:7947   */\n      swap1\n      pop\n        /* \"#utility.yul\":7784:7953   */\n      swap3\n      swap2\n      pop\n      pop\n      jump\t// out\n        /* \"#utility.yul\":7959:8336   */\n    tag_141:\n        /* \"#utility.yul\":8047:8050   */\n      0x00\n        /* \"#utility.yul\":8075:8114   */\n      tag_253\n        /* \"#utility.yul\":8108:8113   */\n      dup3\n        /* \"#utility.yul\":8075:8114   */\n      tag_135\n      jump\t// in\n    tag_253:\n        /* \"#utility.yul\":8130:8201   */\n      tag_254\n        /* \"#utility.yul\":8194:8200   */\n      dup2\n        /* \"#utility.yul\":8189:8192   */\n      dup6\n        /* \"#utility.yul\":8130:8201   */\n      tag_140\n      jump\t// in\n    tag_254:\n        /* \"#utility.yul\":8123:8201   */\n      swap4\n      pop\n        /* \"#utility.yul\":8210:8275   */\n      tag_255\n        /* \"#utility.yul\":8268:8274   */\n      dup2\n        /* \"#utility.yul\":8263:8266   */\n      dup6\n        /* \"#utility.yul\":8256:8260   */\n      0x20\n        /* \"#utility.yul\":8249:8254   */\n      dup7\n        /* \"#utility.yul\":8245:8261   */\n      add\n        /* \"#utility.yul\":8210:8275   */\n      tag_137\n      jump\t// in\n    tag_255:\n        /* \"#utility.yul\":8300:8329   */\n      tag_256\n        /* \"#utility.yul\":8322:8328   */\n      dup2\n        /* \"#utility.yul\":8300:8329   */\n      tag_119\n      jump\t// in\n    tag_256:\n        /* \"#utility.yul\":8295:8298   */\n      dup5\n        /* \"#utility.yul\":8291:8330   */\n      add\n        /* \"#utility.yul\":8284:8330   */\n      swap2\n      pop\n        /* \"#utility.yul\":8051:8336   */\n      pop\n        /* \"#utility.yul\":7959:8336   */\n      swap3\n      swap2\n      pop\n      pop\n      jump\t// out\n        /* \"#utility.yul\":8342:8491   */\n    tag_142:\n        /* \"#utility.yul\":8378:8385   */\n      0x00\n        /* \"#utility.yul\":8418:8484   */\n      0xffffff0000000000000000000000000000000000000000000000000000000000\n        /* \"#utility.yul\":8411:8416   */\n      dup3\n        /* \"#utility.yul\":8407:8485   */\n      and\n        /* \"#utility.yul\":8396:8485   */\n      swap1\n      pop\n        /* \"#utility.yul\":8342:8491   */\n      swap2\n      swap1\n      pop\n      jump\t// out\n        /* \"#utility.yul\":8497:8612   */\n    tag_143:\n        /* \"#utility.yul\":8582:8605   */\n      tag_259\n        /* \"#utility.yul\":8599:8604   */\n      dup2\n        /* \"#utility.yul\":8582:8605   */\n      tag_142\n      jump\t// in\n    tag_259:\n        /* \"#utility.yul\":8577:8580   */\n      dup3\n        /* \"#utility.yul\":8570:8606   */\n      mstore\n        /* \"#utility.yul\":8497:8612   */\n      pop\n      pop\n      jump\t// out\n        /* \"#utility.yul\":8618:9037   */\n    tag_37:\n        /* \"#utility.yul\":8757:8761   */\n      0x00\n        /* \"#utility.yul\":8795:8797   */\n      0x40\n        /* \"#utility.yul\":8784:8793   */\n      dup3\n        /* \"#utility.yul\":8780:8798   */\n      add\n        /* \"#utility.yul\":8772:8798   */\n      swap1\n      pop\n        /* \"#utility.yul\":8844:8853   */\n      dup2\n        /* \"#utility.yul\":8838:8842   */\n      dup2\n        /* \"#utility.yul\":8834:8854   */\n      sub\n        /* \"#utility.yul\":8830:8831   */\n      0x00\n        /* \"#utility.yul\":8819:8828   */\n      dup4\n        /* \"#utility.yul\":8815:8832   */\n      add\n        /* \"#utility.yul\":8808:8855   */\n      mstore\n        /* \"#utility.yul\":8872:8950   */\n      tag_261\n        /* \"#utility.yul\":8945:8949   */\n      dup2\n        /* \"#utility.yul\":8936:8942   */\n      dup6\n        /* \"#utility.yul\":8872:8950   */\n      tag_141\n      jump\t// in\n    tag_261:\n        /* \"#utility.yul\":8864:8950   */\n      swap1\n      pop\n        /* \"#utility.yul\":8960:9030   */\n      tag_262\n        /* \"#utility.yul\":9026:9028   */\n      0x20\n        /* \"#utility.yul\":9015:9024   */\n      dup4\n        /* \"#utility.yul\":9011:9029   */\n      add\n        /* \"#utility.yul\":9002:9008   */\n      dup5\n        /* \"#utility.yul\":8960:9030   */\n      tag_143\n      jump\t// in\n    tag_262:\n        /* \"#utility.yul\":8618:9037   */\n      swap4\n      swap3\n      pop\n      pop\n      pop\n      jump\t// out\n        /* \"#utility.yul\":9043:9163   */\n    tag_144:\n        /* \"#utility.yul\":9115:9138   */\n      tag_264\n        /* \"#utility.yul\":9132:9137   */\n      dup2\n        /* \"#utility.yul\":9115:9138   */\n      tag_142\n      jump\t// in\n    tag_264:\n        /* \"#utility.yul\":9108:9113   */\n      dup2\n        /* \"#utility.yul\":9105:9139   */\n      eq\n        /* \"#utility.yul\":9095:9157   */\n      tag_265\n      jumpi\n        /* \"#utility.yul\":9153:9154   */\n      0x00\n        /* \"#utility.yul\":9150:9151   */\n      dup1\n        /* \"#utility.yul\":9143:9155   */\n      revert\n        /* \"#utility.yul\":9095:9157   */\n    tag_265:\n        /* \"#utility.yul\":9043:9163   */\n      pop\n      jump\t// out\n        /* \"#utility.yul\":9169:9306   */\n    tag_145:\n        /* \"#utility.yul\":9214:9219   */\n      0x00\n        /* \"#utility.yul\":9252:9258   */\n      dup2\n        /* \"#utility.yul\":9239:9259   */\n      calldataload\n        /* \"#utility.yul\":9230:9259   */\n      swap1\n      pop\n        /* \"#utility.yul\":9268:9300   */\n      tag_267\n        /* \"#utility.yul\":9294:9299   */\n      dup2\n        /* \"#utility.yul\":9268:9300   */\n      tag_144\n      jump\t// in\n    tag_267:\n        /* \"#utility.yul\":9169:9306   */\n      swap3\n      swap2\n      pop\n      pop\n      jump\t// out\n        /* \"#utility.yul\":9312:9402   */\n    tag_146:\n        /* \"#utility.yul\":9346:9353   */\n      0x00\n        /* \"#utility.yul\":9389:9394   */\n      dup2\n        /* \"#utility.yul\":9382:9395   */\n      iszero\n        /* \"#utility.yul\":9375:9396   */\n      iszero\n        /* \"#utility.yul\":9364:9396   */\n      swap1\n      pop\n        /* \"#utility.yul\":9312:9402   */\n      swap2\n      swap1\n      pop\n      jump\t// out\n        /* \"#utility.yul\":9408:9524   */\n    tag_147:\n        /* \"#utility.yul\":9478:9499   */\n      tag_270\n        /* \"#utility.yul\":9493:9498   */\n      dup2\n        /* \"#utility.yul\":9478:9499   */\n      tag_146\n      jump\t// in\n    tag_270:\n        /* \"#utility.yul\":9471:9476   */\n      dup2\n        /* \"#utility.yul\":9468:9500   */\n      eq\n        /* \"#utility.yul\":9458:9518   */\n      tag_271\n      jumpi\n        /* \"#utility.yul\":9514:9515   */\n      0x00\n        /* \"#utility.yul\":9511:9512   */\n      dup1\n        /* \"#utility.yul\":9504:9516   */\n      revert\n        /* \"#utility.yul\":9458:9518   */\n    tag_271:\n        /* \"#utility.yul\":9408:9524   */\n      pop\n      jump\t// out\n        /* \"#utility.yul\":9530:9663   */\n    tag_148:\n        /* \"#utility.yul\":9573:9578   */\n      0x00\n        /* \"#utility.yul\":9611:9617   */\n      dup2\n        /* \"#utility.yul\":9598:9618   */\n      calldataload\n        /* \"#utility.yul\":9589:9618   */\n      swap1\n      pop\n        /* \"#utility.yul\":9627:9657   */\n      tag_273\n        /* \"#utility.yul\":9651:9656   */\n      dup2\n        /* \"#utility.yul\":9627:9657   */\n      tag_147\n      jump\t// in\n    tag_273:\n        /* \"#utility.yul\":9530:9663   */\n      swap3\n      swap2\n      pop\n      pop\n      jump\t// out\n        /* \"#utility.yul\":9669:10606   */\n    tag_40:\n        /* \"#utility.yul\":9761:9767   */\n      0x00\n        /* \"#utility.yul\":9769:9775   */\n      dup1\n        /* \"#utility.yul\":9777:9783   */\n      0x00\n        /* \"#utility.yul\":9785:9791   */\n      dup1\n        /* \"#utility.yul\":9834:9837   */\n      0x80\n        /* \"#utility.yul\":9822:9831   */\n      dup6\n        /* \"#utility.yul\":9813:9820   */\n      dup8\n        /* \"#utility.yul\":9809:9832   */\n      sub\n        /* \"#utility.yul\":9805:9838   */\n      slt\n        /* \"#utility.yul\":9802:9922   */\n      iszero\n      tag_275\n      jumpi\n        /* \"#utility.yul\":9841:9920   */\n      tag_276\n      tag_116\n      jump\t// in\n    tag_276:\n        /* \"#utility.yul\":9802:9922   */\n    tag_275:\n        /* \"#utility.yul\":9961:9962   */\n      0x00\n        /* \"#utility.yul\":9986:10039   */\n      tag_277\n        /* \"#utility.yul\":10031:10038   */\n      dup8\n        /* \"#utility.yul\":10022:10028   */\n      dup3\n        /* \"#utility.yul\":10011:10020   */\n      dup9\n        /* \"#utility.yul\":10007:10029   */\n      add\n        /* \"#utility.yul\":9986:10039   */\n      tag_126\n      jump\t// in\n    tag_277:\n        /* \"#utility.yul\":9976:10039   */\n      swap5\n      pop\n        /* \"#utility.yul\":9932:10049   */\n      pop\n        /* \"#utility.yul\":10116:10118   */\n      0x20\n        /* \"#utility.yul\":10105:10114   */\n      dup6\n        /* \"#utility.yul\":10101:10119   */\n      add\n        /* \"#utility.yul\":10088:10120   */\n      calldataload\n        /* \"#utility.yul\":10147:10165   */\n      0xffffffffffffffff\n        /* \"#utility.yul\":10139:10145   */\n      dup2\n        /* \"#utility.yul\":10136:10166   */\n      gt\n        /* \"#utility.yul\":10133:10250   */\n      iszero\n      tag_278\n      jumpi\n        /* \"#utility.yul\":10169:10248   */\n      tag_279\n      tag_117\n      jump\t// in\n    tag_279:\n        /* \"#utility.yul\":10133:10250   */\n    tag_278:\n        /* \"#utility.yul\":10274:10337   */\n      tag_280\n        /* \"#utility.yul\":10329:10336   */\n      dup8\n        /* \"#utility.yul\":10320:10326   */\n      dup3\n        /* \"#utility.yul\":10309:10318   */\n      dup9\n        /* \"#utility.yul\":10305:10327   */\n      add\n        /* \"#utility.yul\":10274:10337   */\n      tag_132\n      jump\t// in\n    tag_280:\n        /* \"#utility.yul\":10264:10337   */\n      swap4\n      pop\n        /* \"#utility.yul\":10059:10347   */\n      pop\n        /* \"#utility.yul\":10386:10388   */\n      0x40\n        /* \"#utility.yul\":10412:10464   */\n      tag_281\n        /* \"#utility.yul\":10456:10463   */\n      dup8\n        /* \"#utility.yul\":10447:10453   */\n      dup3\n        /* \"#utility.yul\":10436:10445   */\n      dup9\n        /* \"#utility.yul\":10432:10454   */\n      add\n        /* \"#utility.yul\":10412:10464   */\n      tag_145\n      jump\t// in\n    tag_281:\n        /* \"#utility.yul\":10402:10464   */\n      swap3\n      pop\n        /* \"#utility.yul\":10357:10474   */\n      pop\n        /* \"#utility.yul\":10513:10515   */\n      0x60\n        /* \"#utility.yul\":10539:10589   */\n      tag_282\n        /* \"#utility.yul\":10581:10588   */\n      dup8\n        /* \"#utility.yul\":10572:10578   */\n      dup3\n        /* \"#utility.yul\":10561:10570   */\n      dup9\n        /* \"#utility.yul\":10557:10579   */\n      add\n        /* \"#utility.yul\":10539:10589   */\n      tag_148\n      jump\t// in\n    tag_282:\n        /* \"#utility.yul\":10529:10589   */\n      swap2\n      pop\n        /* \"#utility.yul\":10484:10599   */\n      pop\n        /* \"#utility.yul\":9669:10606   */\n      swap3\n      swap6\n      swap2\n      swap5\n      pop\n      swap3\n      pop\n      jump\t// out\n        /* \"#utility.yul\":10639:11695   */\n    tag_149:\n        /* \"#utility.yul\":10710:10715   */\n      0x00\n        /* \"#utility.yul\":10754:10758   */\n      0x80\n        /* \"#utility.yul\":10742:10751   */\n      dup3\n        /* \"#utility.yul\":10737:10740   */\n      dup5\n        /* \"#utility.yul\":10733:10752   */\n      sub\n        /* \"#utility.yul\":10729:10759   */\n      slt\n        /* \"#utility.yul\":10726:10843   */\n      iszero\n      tag_284\n      jumpi\n        /* \"#utility.yul\":10762:10841   */\n      tag_285\n      tag_118\n      jump\t// in\n    tag_285:\n        /* \"#utility.yul\":10726:10843   */\n    tag_284:\n        /* \"#utility.yul\":10861:10882   */\n      tag_286\n        /* \"#utility.yul\":10877:10881   */\n      0x80\n        /* \"#utility.yul\":10861:10882   */\n      tag_122\n      jump\t// in\n    tag_286:\n        /* \"#utility.yul\":10852:10882   */\n      swap1\n      pop\n        /* \"#utility.yul\":10943:10944   */\n      0x00\n        /* \"#utility.yul\":10983:11032   */\n      tag_287\n        /* \"#utility.yul\":11028:11031   */\n      dup5\n        /* \"#utility.yul\":11019:11025   */\n      dup3\n        /* \"#utility.yul\":11008:11017   */\n      dup6\n        /* \"#utility.yul\":11004:11026   */\n      add\n        /* \"#utility.yul\":10983:11032   */\n      tag_126\n      jump\t// in\n    tag_287:\n        /* \"#utility.yul\":10976:10980   */\n      0x00\n        /* \"#utility.yul\":10969:10974   */\n      dup4\n        /* \"#utility.yul\":10965:10981   */\n      add\n        /* \"#utility.yul\":10958:11033   */\n      mstore\n        /* \"#utility.yul\":10892:11044   */\n      pop\n        /* \"#utility.yul\":11131:11133   */\n      0x20\n        /* \"#utility.yul\":11120:11129   */\n      dup3\n        /* \"#utility.yul\":11116:11134   */\n      add\n        /* \"#utility.yul\":11103:11135   */\n      calldataload\n        /* \"#utility.yul\":11162:11180   */\n      0xffffffffffffffff\n        /* \"#utility.yul\":11154:11160   */\n      dup2\n        /* \"#utility.yul\":11151:11181   */\n      gt\n        /* \"#utility.yul\":11148:11265   */\n      iszero\n      tag_288\n      jumpi\n        /* \"#utility.yul\":11184:11263   */\n      tag_289\n      tag_123\n      jump\t// in\n    tag_289:\n        /* \"#utility.yul\":11148:11265   */\n    tag_288:\n        /* \"#utility.yul\":11304:11363   */\n      tag_290\n        /* \"#utility.yul\":11359:11362   */\n      dup5\n        /* \"#utility.yul\":11350:11356   */\n      dup3\n        /* \"#utility.yul\":11339:11348   */\n      dup6\n        /* \"#utility.yul\":11335:11357   */\n      add\n        /* \"#utility.yul\":11304:11363   */\n      tag_132\n      jump\t// in\n    tag_290:\n        /* \"#utility.yul\":11297:11301   */\n      0x20\n        /* \"#utility.yul\":11290:11295   */\n      dup4\n        /* \"#utility.yul\":11286:11302   */\n      add\n        /* \"#utility.yul\":11279:11364   */\n      mstore\n        /* \"#utility.yul\":11054:11375   */\n      pop\n        /* \"#utility.yul\":11432:11434   */\n      0x40\n        /* \"#utility.yul\":11473:11521   */\n      tag_291\n        /* \"#utility.yul\":11517:11520   */\n      dup5\n        /* \"#utility.yul\":11508:11514   */\n      dup3\n        /* \"#utility.yul\":11497:11506   */\n      dup6\n        /* \"#utility.yul\":11493:11515   */\n      add\n        /* \"#utility.yul\":11473:11521   */\n      tag_145\n      jump\t// in\n    tag_291:\n        /* \"#utility.yul\":11466:11470   */\n      0x40\n        /* \"#utility.yul\":11459:11464   */\n      dup4\n        /* \"#utility.yul\":11455:11471   */\n      add\n        /* \"#utility.yul\":11448:11522   */\n      mstore\n        /* \"#utility.yul\":11385:11533   */\n      pop\n        /* \"#utility.yul\":11589:11591   */\n      0x60\n        /* \"#utility.yul\":11630:11676   */\n      tag_292\n        /* \"#utility.yul\":11672:11675   */\n      dup5\n        /* \"#utility.yul\":11663:11669   */\n      dup3\n        /* \"#utility.yul\":11652:11661   */\n      dup6\n        /* \"#utility.yul\":11648:11670   */\n      add\n        /* \"#utility.yul\":11630:11676   */\n      tag_148\n      jump\t// in\n    tag_292:\n        /* \"#utility.yul\":11623:11627   */\n      0x60\n        /* \"#utility.yul\":11616:11621   */\n      dup4\n        /* \"#utility.yul\":11612:11628   */\n      add\n        /* \"#utility.yul\":11605:11677   */\n      mstore\n        /* \"#utility.yul\":11543:11688   */\n      pop\n        /* \"#utility.yul\":10639:11695   */\n      swap3\n      swap2\n      pop\n      pop\n      jump\t// out\n        /* \"#utility.yul\":11701:12234   */\n    tag_44:\n        /* \"#utility.yul\":11782:11788   */\n      0x00\n        /* \"#utility.yul\":11831:11833   */\n      0x20\n        /* \"#utility.yul\":11819:11828   */\n      dup3\n        /* \"#utility.yul\":11810:11817   */\n      dup5\n        /* \"#utility.yul\":11806:11829   */\n      sub\n        /* \"#utility.yul\":11802:11834   */\n      slt\n        /* \"#utility.yul\":11799:11918   */\n      iszero\n      tag_294\n      jumpi\n        /* \"#utility.yul\":11837:11916   */\n      tag_295\n      tag_116\n      jump\t// in\n    tag_295:\n        /* \"#utility.yul\":11799:11918   */\n    tag_294:\n        /* \"#utility.yul\":11985:11986   */\n      0x00\n        /* \"#utility.yul\":11974:11983   */\n      dup3\n        /* \"#utility.yul\":11970:11987   */\n      add\n        /* \"#utility.yul\":11957:11988   */\n      calldataload\n        /* \"#utility.yul\":12015:12033   */\n      0xffffffffffffffff\n        /* \"#utility.yul\":12007:12013   */\n      dup2\n        /* \"#utility.yul\":12004:12034   */\n      gt\n        /* \"#utility.yul\":12001:12118   */\n      iszero\n      tag_296\n      jumpi\n        /* \"#utility.yul\":12037:12116   */\n      tag_297\n      tag_117\n      jump\t// in\n    tag_297:\n        /* \"#utility.yul\":12001:12118   */\n    tag_296:\n        /* \"#utility.yul\":12142:12217   */\n      tag_298\n        /* \"#utility.yul\":12209:12216   */\n      dup5\n        /* \"#utility.yul\":12200:12206   */\n      dup3\n        /* \"#utility.yul\":12189:12198   */\n      dup6\n        /* \"#utility.yul\":12185:12207   */\n      add\n        /* \"#utility.yul\":12142:12217   */\n      tag_149\n      jump\t// in\n    tag_298:\n        /* \"#utility.yul\":12132:12217   */\n      swap2\n      pop\n        /* \"#utility.yul\":11928:12227   */\n      pop\n        /* \"#utility.yul\":11701:12234   */\n      swap3\n      swap2\n      pop\n      pop\n      jump\t// out\n        /* \"#utility.yul\":12240:12345   */\n    tag_150:\n        /* \"#utility.yul\":12315:12338   */\n      tag_300\n        /* \"#utility.yul\":12332:12337   */\n      dup2\n        /* \"#utility.yul\":12315:12338   */\n      tag_142\n      jump\t// in\n    tag_300:\n        /* \"#utility.yul\":12310:12313   */\n      dup3\n        /* \"#utility.yul\":12303:12339   */\n      mstore\n        /* \"#utility.yul\":12240:12345   */\n      pop\n      pop\n      jump\t// out\n        /* \"#utility.yul\":12351:12450   */\n    tag_151:\n        /* \"#utility.yul\":12422:12443   */\n      tag_302\n        /* \"#utility.yul\":12437:12442   */\n      dup2\n        /* \"#utility.yul\":12422:12443   */\n      tag_146\n      jump\t// in\n    tag_302:\n        /* \"#utility.yul\":12417:12420   */\n      dup3\n        /* \"#utility.yul\":12410:12444   */\n      mstore\n        /* \"#utility.yul\":12351:12450   */\n      pop\n      pop\n      jump\t// out\n        /* \"#utility.yul\":12506:13443   */\n    tag_152:\n        /* \"#utility.yul\":12619:12622   */\n      0x00\n        /* \"#utility.yul\":12655:12659   */\n      0x80\n        /* \"#utility.yul\":12650:12653   */\n      dup4\n        /* \"#utility.yul\":12646:12660   */\n      add\n        /* \"#utility.yul\":12744:12748   */\n      0x00\n        /* \"#utility.yul\":12737:12742   */\n      dup4\n        /* \"#utility.yul\":12733:12749   */\n      add\n        /* \"#utility.yul\":12727:12750   */\n      mload\n        /* \"#utility.yul\":12763:12826   */\n      tag_304\n        /* \"#utility.yul\":12820:12824   */\n      0x00\n        /* \"#utility.yul\":12815:12818   */\n      dup7\n        /* \"#utility.yul\":12811:12825   */\n      add\n        /* \"#utility.yul\":12797:12809   */\n      dup3\n        /* \"#utility.yul\":12763:12826   */\n      tag_134\n      jump\t// in\n    tag_304:\n        /* \"#utility.yul\":12670:12836   */\n      pop\n        /* \"#utility.yul\":12918:12922   */\n      0x20\n        /* \"#utility.yul\":12911:12916   */\n      dup4\n        /* \"#utility.yul\":12907:12923   */\n      add\n        /* \"#utility.yul\":12901:12924   */\n      mload\n        /* \"#utility.yul\":12971:12974   */\n      dup5\n        /* \"#utility.yul\":12965:12969   */\n      dup3\n        /* \"#utility.yul\":12961:12975   */\n      sub\n        /* \"#utility.yul\":12954:12958   */\n      0x20\n        /* \"#utility.yul\":12949:12952   */\n      dup7\n        /* \"#utility.yul\":12945:12959   */\n      add\n        /* \"#utility.yul\":12938:12976   */\n      mstore\n        /* \"#utility.yul\":12997:13070   */\n      tag_305\n        /* \"#utility.yul\":13065:13069   */\n      dup3\n        /* \"#utility.yul\":13051:13063   */\n      dup3\n        /* \"#utility.yul\":12997:13070   */\n      tag_138\n      jump\t// in\n    tag_305:\n        /* \"#utility.yul\":12989:13070   */\n      swap2\n      pop\n        /* \"#utility.yul\":12846:13081   */\n      pop\n        /* \"#utility.yul\":13161:13165   */\n      0x40\n        /* \"#utility.yul\":13154:13159   */\n      dup4\n        /* \"#utility.yul\":13150:13166   */\n      add\n        /* \"#utility.yul\":13144:13167   */\n      mload\n        /* \"#utility.yul\":13180:13241   */\n      tag_306\n        /* \"#utility.yul\":13235:13239   */\n      0x40\n        /* \"#utility.yul\":13230:13233   */\n      dup7\n        /* \"#utility.yul\":13226:13240   */\n      add\n        /* \"#utility.yul\":13212:13224   */\n      dup3\n        /* \"#utility.yul\":13180:13241   */\n      tag_150\n      jump\t// in\n    tag_306:\n        /* \"#utility.yul\":13091:13251   */\n      pop\n        /* \"#utility.yul\":13330:13334   */\n      0x60\n        /* \"#utility.yul\":13323:13328   */\n      dup4\n        /* \"#utility.yul\":13319:13335   */\n      add\n        /* \"#utility.yul\":13313:13336   */\n      mload\n        /* \"#utility.yul\":13349:13406   */\n      tag_307\n        /* \"#utility.yul\":13400:13404   */\n      0x60\n        /* \"#utility.yul\":13395:13398   */\n      dup7\n        /* \"#utility.yul\":13391:13405   */\n      add\n        /* \"#utility.yul\":13377:13389   */\n      dup3\n        /* \"#utility.yul\":13349:13406   */\n      tag_151\n      jump\t// in\n    tag_307:\n        /* \"#utility.yul\":13261:13416   */\n      pop\n        /* \"#utility.yul\":13433:13437   */\n      dup1\n        /* \"#utility.yul\":13426:13437   */\n      swap2\n      pop\n        /* \"#utility.yul\":12624:13443   */\n      pop\n        /* \"#utility.yul\":12506:13443   */\n      swap3\n      swap2\n      pop\n      pop\n      jump\t// out\n        /* \"#utility.yul\":13449:13810   */\n    tag_49:\n        /* \"#utility.yul\":13586:13590   */\n      0x00\n        /* \"#utility.yul\":13624:13626   */\n      0x20\n        /* \"#utility.yul\":13613:13622   */\n      dup3\n        /* \"#utility.yul\":13609:13627   */\n      add\n        /* \"#utility.yul\":13601:13627   */\n      swap1\n      pop\n        /* \"#utility.yul\":13673:13682   */\n      dup2\n        /* \"#utility.yul\":13667:13671   */\n      dup2\n        /* \"#utility.yul\":13663:13683   */\n      sub\n        /* \"#utility.yul\":13659:13660   */\n      0x00\n        /* \"#utility.yul\":13648:13657   */\n      dup4\n        /* \"#utility.yul\":13644:13661   */\n      add\n        /* \"#utility.yul\":13637:13684   */\n      mstore\n        /* \"#utility.yul\":13701:13803   */\n      tag_309\n        /* \"#utility.yul\":13798:13802   */\n      dup2\n        /* \"#utility.yul\":13789:13795   */\n      dup5\n        /* \"#utility.yul\":13701:13803   */\n      tag_152\n      jump\t// in\n    tag_309:\n        /* \"#utility.yul\":13693:13803   */\n      swap1\n      pop\n        /* \"#utility.yul\":13449:13810   */\n      swap3\n      swap2\n      pop\n      pop\n      jump\t// out\n        /* \"#utility.yul\":13816:13934   */\n    tag_153:\n        /* \"#utility.yul\":13903:13927   */\n      tag_311\n        /* \"#utility.yul\":13921:13926   */\n      dup2\n        /* \"#utility.yul\":13903:13927   */\n      tag_124\n      jump\t// in\n    tag_311:\n        /* \"#utility.yul\":13898:13901   */\n      dup3\n        /* \"#utility.yul\":13891:13928   */\n      mstore\n        /* \"#utility.yul\":13816:13934   */\n      pop\n      pop\n      jump\t// out\n        /* \"#utility.yul\":13940:14162   */\n    tag_59:\n        /* \"#utility.yul\":14033:14037   */\n      0x00\n        /* \"#utility.yul\":14071:14073   */\n      0x20\n        /* \"#utility.yul\":14060:14069   */\n      dup3\n        /* \"#utility.yul\":14056:14074   */\n      add\n        /* \"#utility.yul\":14048:14074   */\n      swap1\n      pop\n        /* \"#utility.yul\":14084:14155   */\n      tag_313\n        /* \"#utility.yul\":14152:14153   */\n      0x00\n        /* \"#utility.yul\":14141:14150   */\n      dup4\n        /* \"#utility.yul\":14137:14154   */\n      add\n        /* \"#utility.yul\":14128:14134   */\n      dup5\n        /* \"#utility.yul\":14084:14155   */\n      tag_153\n      jump\t// in\n    tag_313:\n        /* \"#utility.yul\":13940:14162   */\n      swap3\n      swap2\n      pop\n      pop\n      jump\t// out\n        /* \"#utility.yul\":14168:14497   */\n    tag_65:\n        /* \"#utility.yul\":14227:14233   */\n      0x00\n        /* \"#utility.yul\":14276:14278   */\n      0x20\n        /* \"#utility.yul\":14264:14273   */\n      dup3\n        /* \"#utility.yul\":14255:14262   */\n      dup5\n        /* \"#utility.yul\":14251:14274   */\n      sub\n        /* \"#utility.yul\":14247:14279   */\n      slt\n        /* \"#utility.yul\":14244:14363   */\n      iszero\n      tag_315\n      jumpi\n        /* \"#utility.yul\":14282:14361   */\n      tag_316\n      tag_116\n      jump\t// in\n    tag_316:\n        /* \"#utility.yul\":14244:14363   */\n    tag_315:\n        /* \"#utility.yul\":14402:14403   */\n      0x00\n        /* \"#utility.yul\":14427:14480   */\n      tag_317\n        /* \"#utility.yul\":14472:14479   */\n      dup5\n        /* \"#utility.yul\":14463:14469   */\n      dup3\n        /* \"#utility.yul\":14452:14461   */\n      dup6\n        /* \"#utility.yul\":14448:14470   */\n      add\n        /* \"#utility.yul\":14427:14480   */\n      tag_126\n      jump\t// in\n    tag_317:\n        /* \"#utility.yul\":14417:14480   */\n      swap2\n      pop\n        /* \"#utility.yul\":14373:14490   */\n      pop\n        /* \"#utility.yul\":14168:14497   */\n      swap3\n      swap2\n      pop\n      pop\n      jump\t// out\n        /* \"#utility.yul\":14503:14683   */\n    tag_154:\n        /* \"#utility.yul\":14551:14628   */\n      0x4e487b7100000000000000000000000000000000000000000000000000000000\n        /* \"#utility.yul\":14548:14549   */\n      0x00\n        /* \"#utility.yul\":14541:14629   */\n      mstore\n        /* \"#utility.yul\":14648:14652   */\n      0x22\n        /* \"#utility.yul\":14645:14646   */\n      0x04\n        /* \"#utility.yul\":14638:14653   */\n      mstore\n        /* \"#utility.yul\":14672:14676   */\n      0x24\n        /* \"#utility.yul\":14669:14670   */\n      0x00\n        /* \"#utility.yul\":14662:14677   */\n      revert\n        /* \"#utility.yul\":14689:15009   */\n    tag_77:\n        /* \"#utility.yul\":14733:14739   */\n      0x00\n        /* \"#utility.yul\":14770:14771   */\n      0x02\n        /* \"#utility.yul\":14764:14768   */\n      dup3\n        /* \"#utility.yul\":14760:14772   */\n      div\n        /* \"#utility.yul\":14750:14772   */\n      swap1\n      pop\n        /* \"#utility.yul\":14817:14818   */\n      0x01\n        /* \"#utility.yul\":14811:14815   */\n      dup3\n        /* \"#utility.yul\":14807:14819   */\n      and\n        /* \"#utility.yul\":14838:14856   */\n      dup1\n        /* \"#utility.yul\":14828:14909   */\n      tag_320\n      jumpi\n        /* \"#utility.yul\":14894:14898   */\n      0x7f\n        /* \"#utility.yul\":14886:14892   */\n      dup3\n        /* \"#utility.yul\":14882:14899   */\n      and\n        /* \"#utility.yul\":14872:14899   */\n      swap2\n      pop\n        /* \"#utility.yul\":14828:14909   */\n    tag_320:\n        /* \"#utility.yul\":14956:14958   */\n      0x20\n        /* \"#utility.yul\":14948:14954   */\n      dup3\n        /* \"#utility.yul\":14945:14959   */\n      lt\n        /* \"#utility.yul\":14925:14943   */\n      dup2\n        /* \"#utility.yul\":14922:14960   */\n      sub\n        /* \"#utility.yul\":14919:15003   */\n      tag_321\n      jumpi\n        /* \"#utility.yul\":14975:14993   */\n      tag_322\n      tag_154\n      jump\t// in\n    tag_322:\n        /* \"#utility.yul\":14919:15003   */\n    tag_321:\n        /* \"#utility.yul\":14740:15009   */\n      pop\n        /* \"#utility.yul\":14689:15009   */\n      swap2\n      swap1\n      pop\n      jump\t// out\n        /* \"#utility.yul\":15015:15156   */\n    tag_155:\n        /* \"#utility.yul\":15064:15068   */\n      0x00\n        /* \"#utility.yul\":15087:15090   */\n      dup2\n        /* \"#utility.yul\":15079:15090   */\n      swap1\n      pop\n        /* \"#utility.yul\":15110:15113   */\n      dup2\n        /* \"#utility.yul\":15107:15108   */\n      0x00\n        /* \"#utility.yul\":15100:15114   */\n      mstore\n        /* \"#utility.yul\":15144:15148   */\n      0x20\n        /* \"#utility.yul\":15141:15142   */\n      0x00\n        /* \"#utility.yul\":15131:15149   */\n      keccak256\n        /* \"#utility.yul\":15123:15149   */\n      swap1\n      pop\n        /* \"#utility.yul\":15015:15156   */\n      swap2\n      swap1\n      pop\n      jump\t// out\n        /* \"#utility.yul\":15162:15255   */\n    tag_156:\n        /* \"#utility.yul\":15199:15205   */\n      0x00\n        /* \"#utility.yul\":15246:15248   */\n      0x20\n        /* \"#utility.yul\":15241:15243   */\n      0x1f\n        /* \"#utility.yul\":15234:15239   */\n      dup4\n        /* \"#utility.yul\":15230:15244   */\n      add\n        /* \"#utility.yul\":15226:15249   */\n      div\n        /* \"#utility.yul\":15216:15249   */\n      swap1\n      pop\n        /* \"#utility.yul\":15162:15255   */\n      swap2\n      swap1\n      pop\n      jump\t// out\n        /* \"#utility.yul\":15261:15368   */\n    tag_157:\n        /* \"#utility.yul\":15305:15313   */\n      0x00\n        /* \"#utility.yul\":15355:15360   */\n      dup3\n        /* \"#utility.yul\":15349:15353   */\n      dup3\n        /* \"#utility.yul\":15345:15361   */\n      shl\n        /* \"#utility.yul\":15324:15361   */\n      swap1\n      pop\n        /* \"#utility.yul\":15261:15368   */\n      swap3\n      swap2\n      pop\n      pop\n      jump\t// out\n        /* \"#utility.yul\":15374:15767   */\n    tag_158:\n        /* \"#utility.yul\":15443:15449   */\n      0x00\n        /* \"#utility.yul\":15493:15494   */\n      0x08\n        /* \"#utility.yul\":15481:15491   */\n      dup4\n        /* \"#utility.yul\":15477:15495   */\n      mul\n        /* \"#utility.yul\":15516:15613   */\n      tag_327\n        /* \"#utility.yul\":15546:15612   */\n      0xffffffffffffffffffffffffffffffffffffffffffffffffffffffffffffffff\n        /* \"#utility.yul\":15535:15544   */\n      dup3\n        /* \"#utility.yul\":15516:15613   */\n      tag_157\n      jump\t// in\n    tag_327:\n        /* \"#utility.yul\":15634:15673   */\n      tag_328\n        /* \"#utility.yul\":15664:15672   */\n      dup7\n        /* \"#utility.yul\":15653:15662   */\n      dup4\n        /* \"#utility.yul\":15634:15673   */\n      tag_157\n      jump\t// in\n    tag_328:\n        /* \"#utility.yul\":15622:15673   */\n      swap6\n      pop\n        /* \"#utility.yul\":15706:15710   */\n      dup1\n        /* \"#utility.yul\":15702:15711   */\n      not\n        /* \"#utility.yul\":15695:15700   */\n      dup5\n        /* \"#utility.yul\":15691:15712   */\n      and\n        /* \"#utility.yul\":15682:15712   */\n      swap4\n      pop\n        /* \"#utility.yul\":15755:15759   */\n      dup1\n        /* \"#utility.yul\":15745:15753   */\n      dup7\n        /* \"#utility.yul\":15741:15760   */\n      and\n        /* \"#utility.yul\":15734:15739   */\n      dup5\n        /* \"#utility.yul\":15731:15761   */\n      or\n        /* \"#utility.yul\":15721:15761   */\n      swap3\n      pop\n        /* \"#utility.yul\":15450:15767   */\n      pop\n      pop\n        /* \"#utility.yul\":15374:15767   */\n      swap4\n      swap3\n      pop\n      pop\n      pop\n      jump\t// out\n        /* \"#utility.yul\":15773:15833   */\n    tag_159:\n        /* \"#utility.yul\":15801:15804   */\n      0x00\n        /* \"#utility.yul\":15822:15827   */\n      dup2\n        /* \"#utility.yul\":15815:15827   */\n      swap1\n      pop\n        /* \"#utility.yul\":15773:15833   */\n      swap2\n      swap1\n      pop\n      jump\t// out\n        /* \"#utility.yul\":15839:15981   */\n    tag_160:\n        /* \"#utility.yul\":15889:15898   */\n      0x00\n        /* \"#utility.yul\":15922:15975   */\n      tag_331\n        /* \"#utility.yul\":15940:15974   */\n      tag_332\n        /* \"#utility.yul\":15949:15973   */\n      tag_333\n        /* \"#utility.yul\":15967:15972   */\n      dup5\n        /* \"#utility.yul\":15949:15973   */\n      tag_124\n      jump\t// in\n    tag_333:\n        /* \"#utility.yul\":15940:15974   */\n      tag_159\n      jump\t// in\n    tag_332:\n        /* \"#utility.yul\":15922:15975   */\n      tag_124\n      jump\t// in\n    tag_331:\n        /* \"#utility.yul\":15909:15975   */\n      swap1\n      pop\n        /* \"#utility.yul\":15839:15981   */\n      swap2\n      swap1\n      pop\n      jump\t// out\n        /* \"#utility.yul\":15987:16062   */\n    tag_161:\n        /* \"#utility.yul\":16030:16033   */\n      0x00\n        /* \"#utility.yul\":16051:16056   */\n      dup2\n        /* \"#utility.yul\":16044:16056   */\n      swap1\n      pop\n        /* \"#utility.yul\":15987:16062   */\n      swap2\n      swap1\n      pop\n      jump\t// out\n        /* \"#utility.yul\":16068:16337   */\n    tag_162:\n        /* \"#utility.yul\":16178:16217   */\n      tag_336\n        /* \"#utility.yul\":16209:16216   */\n      dup4\n        /* \"#utility.yul\":16178:16217   */\n      tag_160\n      jump\t// in\n    tag_336:\n        /* \"#utility.yul\":16239:16330   */\n      tag_337\n        /* \"#utility.yul\":16288:16329   */\n      tag_338\n        /* \"#utility.yul\":16312:16328   */\n      dup3\n        /* \"#utility.yul\":16288:16329   */\n      tag_161\n      jump\t// in\n    tag_338:\n        /* \"#utility.yul\":16280:16286   */\n      dup5\n        /* \"#utility.yul\":16273:16277   */\n      dup5\n        /* \"#utility.yul\":16267:16278   */\n      sload\n        /* \"#utility.yul\":16239:16330   */\n      tag_158\n      jump\t// in\n    tag_337:\n        /* \"#utility.yul\":16233:16237   */\n      dup3\n        /* \"#utility.yul\":16226:16331   */\n      sstore\n        /* \"#utility.yul\":16144:16337   */\n      pop\n        /* \"#utility.yul\":16068:16337   */\n      pop\n      pop\n      pop\n      jump\t// out\n        /* \"#utility.yul\":16343:16416   */\n    tag_163:\n        /* \"#utility.yul\":16388:16391   */\n      0x00\n        /* \"#utility.yul\":16343:16416   */\n      swap1\n      jump\t// out\n        /* \"#utility.yul\":16422:16611   */\n    tag_164:\n        /* \"#utility.yul\":16499:16531   */\n      tag_341\n      tag_163\n      jump\t// in\n    tag_341:\n        /* \"#utility.yul\":16540:16605   */\n      tag_342\n        /* \"#utility.yul\":16598:16604   */\n      dup2\n        /* \"#utility.yul\":16590:16596   */\n      dup5\n        /* \"#utility.yul\":16584:16588   */\n      dup5\n        /* \"#utility.yul\":16540:16605   */\n      tag_162\n      jump\t// in\n    tag_342:\n        /* \"#utility.yul\":16475:16611   */\n      pop\n        /* \"#utility.yul\":16422:16611   */\n      pop\n      pop\n      jump\t// out\n        /* \"#utility.yul\":16617:16803   */\n    tag_165:\n        /* \"#utility.yul\":16677:16797   */\n    tag_344:\n        /* \"#utility.yul\":16694:16697   */\n      dup2\n        /* \"#utility.yul\":16687:16692   */\n      dup2\n        /* \"#utility.yul\":16684:16698   */\n      lt\n        /* \"#utility.yul\":16677:16797   */\n      iszero\n      tag_346\n      jumpi\n        /* \"#utility.yul\":16748:16787   */\n      tag_347\n        /* \"#utility.yul\":16785:16786   */\n      0x00\n        /* \"#utility.yul\":16778:16783   */\n      dup3\n        /* \"#utility.yul\":16748:16787   */\n      tag_164\n      jump\t// in\n    tag_347:\n        /* \"#utility.yul\":16721:16722   */\n      0x01\n        /* \"#utility.yul\":16714:16719   */\n      dup2\n        /* \"#utility.yul\":16710:16723   */\n      add\n        /* \"#utility.yul\":16701:16723   */\n      swap1\n      pop\n        /* \"#utility.yul\":16677:16797   */\n      jump(tag_344)\n    tag_346:\n        /* \"#utility.yul\":16617:16803   */\n      pop\n      pop\n      jump\t// out\n        /* \"#utility.yul\":16809:17352   */\n    tag_166:\n        /* \"#utility.yul\":16910:16912   */\n      0x1f\n        /* \"#utility.yul\":16905:16908   */\n      dup3\n        /* \"#utility.yul\":16902:16913   */\n      gt\n        /* \"#utility.yul\":16899:17345   */\n      iszero\n      tag_349\n      jumpi\n        /* \"#utility.yul\":16944:16982   */\n      tag_350\n        /* \"#utility.yul\":16976:16981   */\n      dup2\n        /* \"#utility.yul\":16944:16982   */\n      tag_155\n      jump\t// in\n    tag_350:\n        /* \"#utility.yul\":17028:17057   */\n      tag_351\n        /* \"#utility.yul\":17046:17056   */\n      dup5\n        /* \"#utility.yul\":17028:17057   */\n      tag_156\n      jump\t// in\n    tag_351:\n        /* \"#utility.yul\":17018:17026   */\n      dup2\n        /* \"#utility.yul\":17014:17058   */\n      add\n        /* \"#utility.yul\":17211:17213   */\n      0x20\n        /* \"#utility.yul\":17199:17209   */\n      dup6\n        /* \"#utility.yul\":17196:17214   */\n      lt\n        /* \"#utility.yul\":17193:17242   */\n      iszero\n      tag_352\n      jumpi\n        /* \"#utility.yul\":17232:17240   */\n      dup2\n        /* \"#utility.yul\":17217:17240   */\n      swap1\n      pop\n        /* \"#utility.yul\":17193:17242   */\n    tag_352:\n        /* \"#utility.yul\":17255:17335   */\n      tag_353\n        /* \"#utility.yul\":17311:17333   */\n      tag_354\n        /* \"#utility.yul\":17329:17332   */\n      dup6\n        /* \"#utility.yul\":17311:17333   */\n      tag_156\n      jump\t// in\n    tag_354:\n        /* \"#utility.yul\":17301:17309   */\n      dup4\n        /* \"#utility.yul\":17297:17334   */\n      add\n        /* \"#utility.yul\":17284:17295   */\n      dup3\n        /* \"#utility.yul\":17255:17335   */\n      tag_165\n      jump\t// in\n    tag_353:\n        /* \"#utility.yul\":16914:17345   */\n      pop\n      pop\n        /* \"#utility.yul\":16899:17345   */\n    tag_349:\n        /* \"#utility.yul\":16809:17352   */\n      pop\n      pop\n      pop\n      jump\t// out\n        /* \"#utility.yul\":17358:17475   */\n    tag_167:\n        /* \"#utility.yul\":17412:17420   */\n      0x00\n        /* \"#utility.yul\":17462:17467   */\n      dup3\n        /* \"#utility.yul\":17456:17460   */\n      dup3\n        /* \"#utility.yul\":17452:17468   */\n      shr\n        /* \"#utility.yul\":17431:17468   */\n      swap1\n      pop\n        /* \"#utility.yul\":17358:17475   */\n      swap3\n      swap2\n      pop\n      pop\n      jump\t// out\n        /* \"#utility.yul\":17481:17650   */\n    tag_168:\n        /* \"#utility.yul\":17525:17531   */\n      0x00\n        /* \"#utility.yul\":17558:17609   */\n      tag_357\n        /* \"#utility.yul\":17606:17607   */\n      0x00\n        /* \"#utility.yul\":17602:17608   */\n      not\n        /* \"#utility.yul\":17594:17599   */\n      dup5\n        /* \"#utility.yul\":17591:17592   */\n      0x08\n        /* \"#utility.yul\":17587:17600   */\n      mul\n        /* \"#utility.yul\":17558:17609   */\n      tag_167\n      jump\t// in\n    tag_357:\n        /* \"#utility.yul\":17554:17610   */\n      not\n        /* \"#utility.yul\":17639:17643   */\n      dup1\n        /* \"#utility.yul\":17633:17637   */\n      dup4\n        /* \"#utility.yul\":17629:17644   */\n      and\n        /* \"#utility.yul\":17619:17644   */\n      swap2\n      pop\n        /* \"#utility.yul\":17532:17650   */\n      pop\n        /* \"#utility.yul\":17481:17650   */\n      swap3\n      swap2\n      pop\n      pop\n      jump\t// out\n        /* \"#utility.yul\":17655:17950   */\n    tag_169:\n        /* \"#utility.yul\":17731:17735   */\n      0x00\n        /* \"#utility.yul\":17877:17906   */\n      tag_359\n        /* \"#utility.yul\":17902:17905   */\n      dup4\n        /* \"#utility.yul\":17896:17900   */\n      dup4\n        /* \"#utility.yul\":17877:17906   */\n      tag_168\n      jump\t// in\n    tag_359:\n        /* \"#utility.yul\":17869:17906   */\n      swap2\n      pop\n        /* \"#utility.yul\":17939:17942   */\n      dup3\n        /* \"#utility.yul\":17936:17937   */\n      0x02\n        /* \"#utility.yul\":17932:17943   */\n      mul\n        /* \"#utility.yul\":17926:17930   */\n      dup3\n        /* \"#utility.yul\":17923:17944   */\n      or\n        /* \"#utility.yul\":17915:17944   */\n      swap1\n      pop\n        /* \"#utility.yul\":17655:17950   */\n      swap3\n      swap2\n      pop\n      pop\n      jump\t// out\n        /* \"#utility.yul\":17955:19350   */\n    tag_69:\n        /* \"#utility.yul\":18072:18109   */\n      tag_361\n        /* \"#utility.yul\":18105:18108   */\n      dup3\n        /* \"#utility.yul\":18072:18109   */\n      tag_135\n      jump\t// in\n    tag_361:\n        /* \"#utility.yul\":18174:18192   */\n      0xffffffffffffffff\n        /* \"#utility.yul\":18166:18172   */\n      dup2\n        /* \"#utility.yul\":18163:18193   */\n      gt\n        /* \"#utility.yul\":18160:18216   */\n      iszero\n      tag_362\n      jumpi\n        /* \"#utility.yul\":18196:18214   */\n      tag_363\n      tag_120\n      jump\t// in\n    tag_363:\n        /* \"#utility.yul\":18160:18216   */\n    tag_362:\n        /* \"#utility.yul\":18240:18278   */\n      tag_364\n        /* \"#utility.yul\":18272:18276   */\n      dup3\n        /* \"#utility.yul\":18266:18277   */\n      sload\n        /* \"#utility.yul\":18240:18278   */\n      tag_77\n      jump\t// in\n    tag_364:\n        /* \"#utility.yul\":18325:18392   */\n      tag_365\n        /* \"#utility.yul\":18385:18391   */\n      dup3\n        /* \"#utility.yul\":18377:18383   */\n      dup3\n        /* \"#utility.yul\":18371:18375   */\n      dup6\n        /* \"#utility.yul\":18325:18392   */\n      tag_166\n      jump\t// in\n    tag_365:\n        /* \"#utility.yul\":18419:18420   */\n      0x00\n        /* \"#utility.yul\":18443:18447   */\n      0x20\n        /* \"#utility.yul\":18430:18447   */\n      swap1\n      pop\n        /* \"#utility.yul\":18475:18477   */\n      0x1f\n        /* \"#utility.yul\":18467:18473   */\n      dup4\n        /* \"#utility.yul\":18464:18478   */\n      gt\n        /* \"#utility.yul\":18492:18493   */\n      0x01\n        /* \"#utility.yul\":18487:19105   */\n      dup2\n      eq\n      tag_367\n      jumpi\n        /* \"#utility.yul\":19149:19150   */\n      0x00\n        /* \"#utility.yul\":19166:19172   */\n      dup5\n        /* \"#utility.yul\":19163:19240   */\n      iszero\n      tag_368\n      jumpi\n        /* \"#utility.yul\":19215:19224   */\n      dup3\n        /* \"#utility.yul\":19210:19213   */\n      dup8\n        /* \"#utility.yul\":19206:19225   */\n      add\n        /* \"#utility.yul\":19200:19226   */\n      mload\n        /* \"#utility.yul\":19191:19226   */\n      swap1\n      pop\n        /* \"#utility.yul\":19163:19240   */\n    tag_368:\n        /* \"#utility.yul\":19266:19333   */\n      tag_369\n        /* \"#utility.yul\":19326:19332   */\n      dup6\n        /* \"#utility.yul\":19319:19324   */\n      dup3\n        /* \"#utility.yul\":19266:19333   */\n      tag_169\n      jump\t// in\n    tag_369:\n        /* \"#utility.yul\":19260:19264   */\n      dup7\n        /* \"#utility.yul\":19253:19334   */\n      sstore\n        /* \"#utility.yul\":19122:19344   */\n      pop\n        /* \"#utility.yul\":18457:19344   */\n      jump(tag_366)\n        /* \"#utility.yul\":18487:19105   */\n    tag_367:\n        /* \"#utility.yul\":18539:18543   */\n      0x1f\n        /* \"#utility.yul\":18535:18544   */\n      not\n        /* \"#utility.yul\":18527:18533   */\n      dup5\n        /* \"#utility.yul\":18523:18545   */\n      and\n        /* \"#utility.yul\":18573:18610   */\n      tag_370\n        /* \"#utility.yul\":18605:18609   */\n      dup7\n        /* \"#utility.yul\":18573:18610   */\n      tag_155\n      jump\t// in\n    tag_370:\n        /* \"#utility.yul\":18632:18633   */\n      0x00\n        /* \"#utility.yul\":18646:18854   */\n    tag_371:\n        /* \"#utility.yul\":18660:18667   */\n      dup3\n        /* \"#utility.yul\":18657:18658   */\n      dup2\n        /* \"#utility.yul\":18654:18668   */\n      lt\n        /* \"#utility.yul\":18646:18854   */\n      iszero\n      tag_373\n      jumpi\n        /* \"#utility.yul\":18739:18748   */\n      dup5\n        /* \"#utility.yul\":18734:18737   */\n      dup10\n        /* \"#utility.yul\":18730:18749   */\n      add\n        /* \"#utility.yul\":18724:18750   */\n      mload\n        /* \"#utility.yul\":18716:18722   */\n      dup3\n        /* \"#utility.yul\":18709:18751   */\n      sstore\n        /* \"#utility.yul\":18790:18791   */\n      0x01\n        /* \"#utility.yul\":18782:18788   */\n      dup3\n        /* \"#utility.yul\":18778:18792   */\n      add\n        /* \"#utility.yul\":18768:18792   */\n      swap2\n      pop\n        /* \"#utility.yul\":18837:18839   */\n      0x20\n        /* \"#utility.yul\":18826:18835   */\n      dup6\n        /* \"#utility.yul\":18822:18840   */\n      add\n        /* \"#utility.yul\":18809:18840   */\n      swap5\n      pop\n        /* \"#utility.yul\":18683:18687   */\n      0x20\n        /* \"#utility.yul\":18680:18681   */\n      dup2\n        /* \"#utility.yul\":18676:18688   */\n      add\n        /* \"#utility.yul\":18671:18688   */\n      swap1\n      pop\n        /* \"#utility.yul\":18646:18854   */\n      jump(tag_371)\n    tag_373:\n        /* \"#utility.yul\":18882:18888   */\n      dup7\n        /* \"#utility.yul\":18873:18880   */\n      dup4\n        /* \"#utility.yul\":18870:18889   */\n      lt\n        /* \"#utility.yul\":18867:19046   */\n      iszero\n      tag_374\n      jumpi\n        /* \"#utility.yul\":18940:18949   */\n      dup5\n        /* \"#utility.yul\":18935:18938   */\n      dup10\n        /* \"#utility.yul\":18931:18950   */\n      add\n        /* \"#utility.yul\":18925:18951   */\n      mload\n        /* \"#utility.yul\":18983:19031   */\n      tag_375\n        /* \"#utility.yul\":19025:19029   */\n      0x1f\n        /* \"#utility.yul\":19017:19023   */\n      dup10\n        /* \"#utility.yul\":19013:19030   */\n      and\n        /* \"#utility.yul\":19002:19011   */\n      dup3\n        /* \"#utility.yul\":18983:19031   */\n      tag_168\n      jump\t// in\n    tag_375:\n        /* \"#utility.yul\":18975:18981   */\n      dup4\n        /* \"#utility.yul\":18968:19032   */\n      sstore\n        /* \"#utility.yul\":18890:19046   */\n      pop\n        /* \"#utility.yul\":18867:19046   */\n    tag_374:\n        /* \"#utility.yul\":19092:19093   */\n      0x01\n        /* \"#utility.yul\":19088:19089   */\n      0x02\n        /* \"#utility.yul\":19080:19086   */\n      dup9\n        /* \"#utility.yul\":19076:19090   */\n      mul\n        /* \"#utility.yul\":19072:19094   */\n      add\n        /* \"#utility.yul\":19066:19070   */\n      dup9\n        /* \"#utility.yul\":19059:19095   */\n      sstore\n        /* \"#utility.yul\":18494:19105   */\n      pop\n      pop\n      pop\n        /* \"#utility.yul\":18457:19344   */\n    tag_366:\n      pop\n        /* \"#utility.yul\":18047:19350   */\n      pop\n      pop\n      pop\n        /* \"#utility.yul\":17955:19350   */\n      pop\n      pop\n      jump\t// out\n\n    auxdata: 0xa2646970667358221220faefbaf9ccf3e9b2453b80c006200bfe5d7981742a790db91ff581721755127864736f6c634300081a0033\n}\n",
				"bytecode": {
					"linkReferences": {},
					"object": "6080604052348015600e575f80fd5b5061121e8061001c5f395ff3fe608060405234801561000f575f80fd5b50600436106100cd575f3560e01c806356c90aad1161008a578063b0c5e78111610064578063b0c5e781146101d5578063d46300fd146101f1578063ed224c781461020f578063ee919d501461022b576100cd565b806356c90aad1461017f57806380982f501461019b578063ac7a047e146101b9576100cd565b80630f22d999146100d1578063145d0e22146100ed578063299c0030146101095780632b14386f146101285780632e35253a146101445780633fed508f14610163575b5f80fd5b6100eb60048036038101906100e69190610a01565b610247565b005b61010760048036038101906101029190610a48565b61026e565b005b610111610284565b60405161011f929190610b38565b60405180910390f35b610142600480360381019061013d9190610b6d565b6103ee565b005b61014c61042a565b60405161015a929190610c49565b60405180910390f35b61017d60048036038101906101789190610cd6565b6104d6565b005b61019960048036038101906101949190610de7565b610584565b005b6101a36105ed565b6040516101b09190610eac565b60405180910390f35b6101d360048036038101906101ce9190610b6d565b610711565b005b6101ef60048036038101906101ea9190610b6d565b61074d565b005b6101f9610789565b6040516102069190610edb565b60405180910390f35b61022960048036038101906102249190610a48565b610791565b005b61024560048036038101906102409190610ef4565b6107a7565b005b8060045f820151815f015560208201518160010190816102679190611119565b5090505050565b80600460010190816102809190611119565b5050565b61028c6107b0565b6102946107b0565b60046006816040518060400160405290815f82015481526020016001820180546102bd90610f4c565b80601f01602080910402602001604051908101604052809291908181526020018280546102e990610f4c565b80156103345780601f1061030b57610100808354040283529160200191610334565b820191905f5260205f20905b81548152906001019060200180831161031757829003601f168201915b5050505050815250509150806040518060400160405290815f820154815260200160018201805461036490610f4c565b80601f016020809104026020016040519081016040528092919081815260200182805461039090610f4c565b80156103db5780601f106103b2576101008083540402835291602001916103db565b820191905f5260205f20905b8154815290600101906020018083116103be57829003601f168201915b5050505050815250509050915091509091565b60405180604001604052808381526020018281525060045f820151815f015560208201518160010190816104229190611119565b509050505050565b60605f600860010160086002015f9054906101000a900460e81b81805461045090610f4c565b80601f016020809104026020016040519081016040528092919081815260200182805461047c90610f4c565b80156104c75780601f1061049e576101008083540402835291602001916104c7565b820191905f5260205f20905b8154815290600101906020018083116104aa57829003601f168201915b50505050509150915091509091565b6040518060800160405280858152602001848152602001837cffffffffffffffffffffffffffffffffffffffffffffffffffffffffff1916815260200182151581525060085f820151815f015560208201518160010190816105389190611119565b506040820151816002015f6101000a81548162ffffff021916908360e81c021790555060608201518160020160036101000a81548160ff02191690831515021790555090505050505050565b8060085f820151815f015560208201518160010190816105a49190611119565b506040820151816002015f6101000a81548162ffffff021916908360e81c021790555060608201518160020160036101000a81548160ff02191690831515021790555090505050565b6105f56107c9565b60086040518060800160405290815f820154815260200160018201805461061b90610f4c565b80601f016020809104026020016040519081016040528092919081815260200182805461064790610f4c565b80156106925780601f1061066957610100808354040283529160200191610692565b820191905f5260205f20905b81548152906001019060200180831161067557829003601f168201915b50505050508152602001600282015f9054906101000a900460e81b7cffffffffffffffffffffffffffffffffffffffffffffffffffffffffff19167cffffffffffffffffffffffffffffffffffffffffffffffffffffffffff191681526020016002820160039054906101000a900460ff161515151581525050905090565b60405180604001604052808381526020018281525060045f820151815f015560208201518160010190816107459190611119565b509050505050565b60405180604001604052808381526020018281525060065f820151815f015560208201518160010190816107819190611119565b509050505050565b5f8054905090565b80600860010190816107a39190611119565b5050565b805f8190555050565b60405180604001604052805f8152602001606081525090565b60405180608001604052805f8152602001606081526020015f7cffffffffffffffffffffffffffffffffffffffffffffffffffffffffff191681526020015f151581525090565b5f604051905090565b5f80fd5b5f80fd5b5f80fd5b5f601f19601f8301169050919050565b7f4e487b71000000000000000000000000000000000000000000000000000000005f52604160045260245ffd5b61086b82610825565b810181811067ffffffffffffffff8211171561088a57610889610835565b5b80604052505050565b5f61089c610810565b90506108a88282610862565b919050565b5f80fd5b5f819050919050565b6108c3816108b1565b81146108cd575f80fd5b50565b5f813590506108de816108ba565b92915050565b5f80fd5b5f80fd5b5f67ffffffffffffffff82111561090657610905610835565b5b61090f82610825565b9050602081019050919050565b828183375f83830152505050565b5f61093c610937846108ec565b610893565b905082815260208101848484011115610958576109576108e8565b5b61096384828561091c565b509392505050565b5f82601f83011261097f5761097e6108e4565b5b813561098f84826020860161092a565b91505092915050565b5f604082840312156109ad576109ac610821565b5b6109b76040610893565b90505f6109c6848285016108d0565b5f83015250602082013567ffffffffffffffff8111156109e9576109e86108ad565b5b6109f58482850161096b565b60208301525092915050565b5f60208284031215610a1657610a15610819565b5b5f82013567ffffffffffffffff811115610a3357610a3261081d565b5b610a3f84828501610998565b91505092915050565b5f60208284031215610a5d57610a5c610819565b5b5f82013567ffffffffffffffff811115610a7a57610a7961081d565b5b610a868482850161096b565b91505092915050565b610a98816108b1565b82525050565b5f81519050919050565b5f82825260208201905092915050565b8281835e5f83830152505050565b5f610ad082610a9e565b610ada8185610aa8565b9350610aea818560208601610ab8565b610af381610825565b840191505092915050565b5f604083015f830151610b135f860182610a8f565b5060208301518482036020860152610b2b8282610ac6565b9150508091505092915050565b5f6040820190508181035f830152610b508185610afe565b90508181036020830152610b648184610afe565b90509392505050565b5f8060408385031215610b8357610b82610819565b5b5f610b90858286016108d0565b925050602083013567ffffffffffffffff811115610bb157610bb061081d565b5b610bbd8582860161096b565b9150509250929050565b5f82825260208201905092915050565b5f610be182610a9e565b610beb8185610bc7565b9350610bfb818560208601610ab8565b610c0481610825565b840191505092915050565b5f7fffffff000000000000000000000000000000000000000000000000000000000082169050919050565b610c4381610c0f565b82525050565b5f6040820190508181035f830152610c618185610bd7565b9050610c706020830184610c3a565b9392505050565b610c8081610c0f565b8114610c8a575f80fd5b50565b5f81359050610c9b81610c77565b92915050565b5f8115159050919050565b610cb581610ca1565b8114610cbf575f80fd5b50565b5f81359050610cd081610cac565b92915050565b5f805f8060808587031215610cee57610ced610819565b5b5f610cfb878288016108d0565b945050602085013567ffffffffffffffff811115610d1c57610d1b61081d565b5b610d288782880161096b565b9350506040610d3987828801610c8d565b9250506060610d4a87828801610cc2565b91505092959194509250565b5f60808284031215610d6b57610d6a610821565b5b610d756080610893565b90505f610d84848285016108d0565b5f83015250602082013567ffffffffffffffff811115610da757610da66108ad565b5b610db38482850161096b565b6020830152506040610dc784828501610c8d565b6040830152506060610ddb84828501610cc2565b60608301525092915050565b5f60208284031215610dfc57610dfb610819565b5b5f82013567ffffffffffffffff811115610e1957610e1861081d565b5b610e2584828501610d56565b91505092915050565b610e3781610c0f565b82525050565b610e4681610ca1565b82525050565b5f608083015f830151610e615f860182610a8f565b5060208301518482036020860152610e798282610ac6565b9150506040830151610e8e6040860182610e2e565b506060830151610ea16060860182610e3d565b508091505092915050565b5f6020820190508181035f830152610ec48184610e4c565b905092915050565b610ed5816108b1565b82525050565b5f602082019050610eee5f830184610ecc565b92915050565b5f60208284031215610f0957610f08610819565b5b5f610f16848285016108d0565b91505092915050565b7f4e487b71000000000000000000000000000000000000000000000000000000005f52602260045260245ffd5b5f6002820490506001821680610f6357607f821691505b602082108103610f7657610f75610f1f565b5b50919050565b5f819050815f5260205f209050919050565b5f6020601f8301049050919050565b5f82821b905092915050565b5f60088302610fd87fffffffffffffffffffffffffffffffffffffffffffffffffffffffffffffffff82610f9d565b610fe28683610f9d565b95508019841693508086168417925050509392505050565b5f819050919050565b5f61101d611018611013846108b1565b610ffa565b6108b1565b9050919050565b5f819050919050565b61103683611003565b61104a61104282611024565b848454610fa9565b825550505050565b5f90565b61105e611052565b61106981848461102d565b505050565b5b8181101561108c576110815f82611056565b60018101905061106f565b5050565b601f8211156110d1576110a281610f7c565b6110ab84610f8e565b810160208510156110ba578190505b6110ce6110c685610f8e565b83018261106e565b50505b505050565b5f82821c905092915050565b5f6110f15f19846008026110d6565b1980831691505092915050565b5f61110983836110e2565b9150826002028217905092915050565b61112282610a9e565b67ffffffffffffffff81111561113b5761113a610835565b5b6111458254610f4c565b611150828285611090565b5f60209050601f831160018114611181575f841561116f578287015190505b61117985826110fe565b8655506111e0565b601f19841661118f86610f7c565b5f5b828110156111b657848901518255600182019150602085019450602081019050611191565b868310156111d357848901516111cf601f8916826110e2565b8355505b6001600288020188555050505b50505050505056fea2646970667358221220faefbaf9ccf3e9b2453b80c006200bfe5d7981742a790db91ff581721755127864736f6c634300081a0033",
					"opcodes": "PUSH1 0x80 PUSH1 0x40 MSTORE CALLVALUE DUP1 ISZERO PUSH1 0xE JUMPI PUSH0 DUP1 REVERT JUMPDEST POP PUSH2 0x121E DUP1 PUSH2 0x1C PUSH0 CODECOPY PUSH0 RETURN INVALID PUSH1 0x80 PUSH1 0x40 MSTORE CALLVALUE DUP1 ISZERO PUSH2 0xF JUMPI PUSH0 DUP1 REVERT JUMPDEST POP PUSH1 0x4 CALLDATASIZE LT PUSH2 0xCD JUMPI PUSH0 CALLDATALOAD PUSH1 0xE0 SHR DUP1 PUSH4 0x56C90AAD GT PUSH2 0x8A JUMPI DUP1 PUSH4 0xB0C5E781 GT PUSH2 0x64 JUMPI DUP1 PUSH4 0xB0C5E781 EQ PUSH2 0x1D5 JUMPI DUP1 PUSH4 0xD46300FD EQ PUSH2 0x1F1 JUMPI DUP1 PUSH4 0xED224C78 EQ PUSH2 0x20F JUMPI DUP1 PUSH4 0xEE919D50 EQ PUSH2 0x22B JUMPI PUSH2 0xCD JUMP JUMPDEST DUP1 PUSH4 0x56C90AAD EQ PUSH2 0x17F JUMPI DUP1 PUSH4 0x80982F50 EQ PUSH2 0x19B JUMPI DUP1 PUSH4 0xAC7A047E EQ PUSH2 0x1B9 JUMPI PUSH2 0xCD JUMP JUMPDEST DUP1 PUSH4 0xF22D999 EQ PUSH2 0xD1 JUMPI DUP1 PUSH4 0x145D0E22 EQ PUSH2 0xED JUMPI DUP1 PUSH4 0x299C0030 EQ PUSH2 0x109 JUMPI DUP1 PUSH4 0x2B14386F EQ PUSH2 0x128 JUMPI DUP1 PUSH4 0x2E35253A EQ PUSH2 0x144 JUMPI DUP1 PUSH4 0x3FED508F EQ PUSH2 0x163 JUMPI JUMPDEST PUSH0 DUP1 REVERT JUMPDEST PUSH2 0xEB PUSH1 0x4 DUP1 CALLDATASIZE SUB DUP2 ADD SWAP1 PUSH2 0xE6 SWAP2 SWAP1 PUSH2 0xA01 JUMP JUMPDEST PUSH2 0x247 JUMP JUMPDEST STOP JUMPDEST PUSH2 0x107 PUSH1 0x4 DUP1 CALLDATASIZE SUB DUP2 ADD SWAP1 PUSH2 0x102 SWAP2 SWAP1 PUSH2 0xA48 JUMP JUMPDEST PUSH2 0x26E JUMP JUMPDEST STOP JUMPDEST PUSH2 0x111 PUSH2 0x284 JUMP JUMPDEST PUSH1 0x40 MLOAD PUSH2 0x11F SWAP3 SWAP2 SWAP1 PUSH2 0xB38 JUMP JUMPDEST PUSH1 0x40 MLOAD DUP1 SWAP2 SUB SWAP1 RETURN JUMPDEST PUSH2 0x142 PUSH1 0x4 DUP1 CALLDATASIZE SUB DUP2 ADD SWAP1 PUSH2 0x13D SWAP2 SWAP1 PUSH2 0xB6D JUMP JUMPDEST PUSH2 0x3EE JUMP JUMPDEST STOP JUMPDEST PUSH2 0x14C PUSH2 0x42A JUMP JUMPDEST PUSH1 0x40 MLOAD PUSH2 0x15A SWAP3 SWAP2 SWAP1 PUSH2 0xC49 JUMP JUMPDEST PUSH1 0x40 MLOAD DUP1 SWAP2 SUB SWAP1 RETURN JUMPDEST PUSH2 0x17D PUSH1 0x4 DUP1 CALLDATASIZE SUB DUP2 ADD SWAP1 PUSH2 0x178 SWAP2 SWAP1 PUSH2 0xCD6 JUMP JUMPDEST PUSH2 0x4D6 JUMP JUMPDEST STOP JUMPDEST PUSH2 0x199 PUSH1 0x4 DUP1 CALLDATASIZE SUB DUP2 ADD SWAP1 PUSH2 0x194 SWAP2 SWAP1 PUSH2 0xDE7 JUMP JUMPDEST PUSH2 0x584 JUMP JUMPDEST STOP JUMPDEST PUSH2 0x1A3 PUSH2 0x5ED JUMP JUMPDEST PUSH1 0x40 MLOAD PUSH2 0x1B0 SWAP2 SWAP1 PUSH2 0xEAC JUMP JUMPDEST PUSH1 0x40 MLOAD DUP1 SWAP2 SUB SWAP1 RETURN JUMPDEST PUSH2 0x1D3 PUSH1 0x4 DUP1 CALLDATASIZE SUB DUP2 ADD SWAP1 PUSH2 0x1CE SWAP2 SWAP1 PUSH2 0xB6D JUMP JUMPDEST PUSH2 0x711 JUMP JUMPDEST STOP JUMPDEST PUSH2 0x1EF PUSH1 0x4 DUP1 CALLDATASIZE SUB DUP2 ADD SWAP1 PUSH2 0x1EA SWAP2 SWAP1 PUSH2 0xB6D JUMP JUMPDEST PUSH2 0x74D JUMP JUMPDEST STOP JUMPDEST PUSH2 0x1F9 PUSH2 0x789 JUMP JUMPDEST PUSH1 0x40 MLOAD PUSH2 0x206 SWAP2 SWAP1 PUSH2 0xEDB JUMP JUMPDEST PUSH1 0x40 MLOAD DUP1 SWAP2 SUB SWAP1 RETURN JUMPDEST PUSH2 0x229 PUSH1 0x4 DUP1 CALLDATASIZE SUB DUP2 ADD SWAP1 PUSH2 0x224 SWAP2 SWAP1 PUSH2 0xA48 JUMP JUMPDEST PUSH2 0x791 JUMP JUMPDEST STOP JUMPDEST PUSH2 0x245 PUSH1 0x4 DUP1 CALLDATASIZE SUB DUP2 ADD SWAP1 PUSH2 0x240 SWAP2 SWAP1 PUSH2 0xEF4 JUMP JUMPDEST PUSH2 0x7A7 JUMP JUMPDEST STOP JUMPDEST DUP1 PUSH1 0x4 PUSH0 DUP3 ADD MLOAD DUP2 PUSH0 ADD SSTORE PUSH1 0x20 DUP3 ADD MLOAD DUP2 PUSH1 0x1 ADD SWAP1 DUP2 PUSH2 0x267 SWAP2 SWAP1 PUSH2 0x1119 JUMP JUMPDEST POP SWAP1 POP POP POP JUMP JUMPDEST DUP1 PUSH1 0x4 PUSH1 0x1 ADD SWAP1 DUP2 PUSH2 0x280 SWAP2 SWAP1 PUSH2 0x1119 JUMP JUMPDEST POP POP JUMP JUMPDEST PUSH2 0x28C PUSH2 0x7B0 JUMP JUMPDEST PUSH2 0x294 PUSH2 0x7B0 JUMP JUMPDEST PUSH1 0x4 PUSH1 0x6 DUP2 PUSH1 0x40 MLOAD DUP1 PUSH1 0x40 ADD PUSH1 0x40 MSTORE SWAP1 DUP2 PUSH0 DUP3 ADD SLOAD DUP2 MSTORE PUSH1 0x20 ADD PUSH1 0x1 DUP3 ADD DUP1 SLOAD PUSH2 0x2BD SWAP1 PUSH2 0xF4C JUMP JUMPDEST DUP1 PUSH1 0x1F ADD PUSH1 0x20 DUP1 SWAP2 DIV MUL PUSH1 0x20 ADD PUSH1 0x40 MLOAD SWAP1 DUP2 ADD PUSH1 0x40 MSTORE DUP1 SWAP3 SWAP2 SWAP1 DUP2 DUP2 MSTORE PUSH1 0x20 ADD DUP3 DUP1 SLOAD PUSH2 0x2E9 SWAP1 PUSH2 0xF4C JUMP JUMPDEST DUP1 ISZERO PUSH2 0x334 JUMPI DUP1 PUSH1 0x1F LT PUSH2 0x30B JUMPI PUSH2 0x100 DUP1 DUP4 SLOAD DIV MUL DUP4 MSTORE SWAP2 PUSH1 0x20 ADD SWAP2 PUSH2 0x334 JUMP JUMPDEST DUP3 ADD SWAP2 SWAP1 PUSH0 MSTORE PUSH1 0x20 PUSH0 KECCAK256 SWAP1 JUMPDEST DUP2 SLOAD DUP2 MSTORE SWAP1 PUSH1 0x1 ADD SWAP1 PUSH1 0x20 ADD DUP1 DUP4 GT PUSH2 0x317 JUMPI DUP3 SWAP1 SUB PUSH1 0x1F AND DUP3 ADD SWAP2 JUMPDEST POP POP POP POP POP DUP2 MSTORE POP POP SWAP2 POP DUP1 PUSH1 0x40 MLOAD DUP1 PUSH1 0x40 ADD PUSH1 0x40 MSTORE SWAP1 DUP2 PUSH0 DUP3 ADD SLOAD DUP2 MSTORE PUSH1 0x20 ADD PUSH1 0x1 DUP3 ADD DUP1 SLOAD PUSH2 0x364 SWAP1 PUSH2 0xF4C JUMP JUMPDEST DUP1 PUSH1 0x1F ADD PUSH1 0x20 DUP1 SWAP2 DIV MUL PUSH1 0x20 ADD PUSH1 0x40 MLOAD SWAP1 DUP2 ADD PUSH1 0x40 MSTORE DUP1 SWAP3 SWAP2 SWAP1 DUP2 DUP2 MSTORE PUSH1 0x20 ADD DUP3 DUP1 SLOAD PUSH2 0x390 SWAP1 PUSH2 0xF4C JUMP JUMPDEST DUP1 ISZERO PUSH2 0x3DB JUMPI DUP1 PUSH1 0x1F LT PUSH2 0x3B2 JUMPI PUSH2 0x100 DUP1 DUP4 SLOAD DIV MUL DUP4 MSTORE SWAP2 PUSH1 0x20 ADD SWAP2 PUSH2 0x3DB JUMP JUMPDEST DUP3 ADD SWAP2 SWAP1 PUSH0 MSTORE PUSH1 0x20 PUSH0 KECCAK256 SWAP1 JUMPDEST DUP2 SLOAD DUP2 MSTORE SWAP1 PUSH1 0x1 ADD SWAP1 PUSH1 0x20 ADD DUP1 DUP4 GT PUSH2 0x3BE JUMPI DUP3 SWAP1 SUB PUSH1 0x1F AND DUP3 ADD SWAP2 JUMPDEST POP POP POP POP POP DUP2 MSTORE POP POP SWAP1 POP SWAP2 POP SWAP2 POP SWAP1 SWAP2 JUMP JUMPDEST PUSH1 0x40 MLOAD DUP1 PUSH1 0x40 ADD PUSH1 0x40 MSTORE DUP1 DUP4 DUP2 MSTORE PUSH1 0x20 ADD DUP3 DUP2 MSTORE POP PUSH1 0x4 PUSH0 DUP3 ADD MLOAD DUP2 PUSH0 ADD SSTORE PUSH1 0x20 DUP3 ADD MLOAD DUP2 PUSH1 0x1 ADD SWAP1 DUP2 PUSH2 0x422 SWAP2 SWAP1 PUSH2 0x1119 JUMP JUMPDEST POP SWAP1 POP POP POP POP JUMP JUMPDEST PUSH1 0x60 PUSH0 PUSH1 0x8 PUSH1 0x1 ADD PUSH1 0x8 PUSH1 0x2 ADD PUSH0 SWAP1 SLOAD SWAP1 PUSH2 0x100 EXP SWAP1 DIV PUSH1 0xE8 SHL DUP2 DUP1 SLOAD PUSH2 0x450 SWAP1 PUSH2 0xF4C JUMP JUMPDEST DUP1 PUSH1 0x1F ADD PUSH1 0x20 DUP1 SWAP2 DIV MUL PUSH1 0x20 ADD PUSH1 0x40 MLOAD SWAP1 DUP2 ADD PUSH1 0x40 MSTORE DUP1 SWAP3 SWAP2 SWAP1 DUP2 DUP2 MSTORE PUSH1 0x20 ADD DUP3 DUP1 SLOAD PUSH2 0x47C SWAP1 PUSH2 0xF4C JUMP JUMPDEST DUP1 ISZERO PUSH2 0x4C7 JUMPI DUP1 PUSH1 0x1F LT PUSH2 0x49E JUMPI PUSH2 0x100 DUP1 DUP4 SLOAD DIV MUL DUP4 MSTORE SWAP2 PUSH1 0x20 ADD SWAP2 PUSH2 0x4C7 JUMP JUMPDEST DUP3 ADD SWAP2 SWAP1 PUSH0 MSTORE PUSH1 0x20 PUSH0 KECCAK256 SWAP1 JUMPDEST DUP2 SLOAD DUP2 MSTORE SWAP1 PUSH1 0x1 ADD SWAP1 PUSH1 0x20 ADD DUP1 DUP4 GT PUSH2 0x4AA JUMPI DUP3 SWAP1 SUB PUSH1 0x1F AND DUP3 ADD SWAP2 JUMPDEST POP POP POP POP POP SWAP2 POP SWAP2 POP SWAP2 POP SWAP1 SWAP2 JUMP JUMPDEST PUSH1 0x40 MLOAD DUP1 PUSH1 0x80 ADD PUSH1 0x40 MSTORE DUP1 DUP6 DUP2 MSTORE PUSH1 0x20 ADD DUP5 DUP2 MSTORE PUSH1 0x20 ADD DUP4 PUSH29 0xFFFFFFFFFFFFFFFFFFFFFFFFFFFFFFFFFFFFFFFFFFFFFFFFFFFFFFFFFF NOT AND DUP2 MSTORE PUSH1 0x20 ADD DUP3 ISZERO ISZERO DUP2 MSTORE POP PUSH1 0x8 PUSH0 DUP3 ADD MLOAD DUP2 PUSH0 ADD SSTORE PUSH1 0x20 DUP3 ADD MLOAD DUP2 PUSH1 0x1 ADD SWAP1 DUP2 PUSH2 0x538 SWAP2 SWAP1 PUSH2 0x1119 JUMP JUMPDEST POP PUSH1 0x40 DUP3 ADD MLOAD DUP2 PUSH1 0x2 ADD PUSH0 PUSH2 0x100 EXP DUP2 SLOAD DUP2 PUSH3 0xFFFFFF MUL NOT AND SWAP1 DUP4 PUSH1 0xE8 SHR MUL OR SWAP1 SSTORE POP PUSH1 0x60 DUP3 ADD MLOAD DUP2 PUSH1 0x2 ADD PUSH1 0x3 PUSH2 0x100 EXP DUP2 SLOAD DUP2 PUSH1 0xFF MUL NOT AND SWAP1 DUP4 ISZERO ISZERO MUL OR SWAP1 SSTORE POP SWAP1 POP POP POP POP POP POP JUMP JUMPDEST DUP1 PUSH1 0x8 PUSH0 DUP3 ADD MLOAD DUP2 PUSH0 ADD SSTORE PUSH1 0x20 DUP3 ADD MLOAD DUP2 PUSH1 0x1 ADD SWAP1 DUP2 PUSH2 0x5A4 SWAP2 SWAP1 PUSH2 0x1119 JUMP JUMPDEST POP PUSH1 0x40 DUP3 ADD MLOAD DUP2 PUSH1 0x2 ADD PUSH0 PUSH2 0x100 EXP DUP2 SLOAD DUP2 PUSH3 0xFFFFFF MUL NOT AND SWAP1 DUP4 PUSH1 0xE8 SHR MUL OR SWAP1 SSTORE POP PUSH1 0x60 DUP3 ADD MLOAD DUP2 PUSH1 0x2 ADD PUSH1 0x3 PUSH2 0x100 EXP DUP2 SLOAD DUP2 PUSH1 0xFF MUL NOT AND SWAP1 DUP4 ISZERO ISZERO MUL OR SWAP1 SSTORE POP SWAP1 POP POP POP JUMP JUMPDEST PUSH2 0x5F5 PUSH2 0x7C9 JUMP JUMPDEST PUSH1 0x8 PUSH1 0x40 MLOAD DUP1 PUSH1 0x80 ADD PUSH1 0x40 MSTORE SWAP1 DUP2 PUSH0 DUP3 ADD SLOAD DUP2 MSTORE PUSH1 0x20 ADD PUSH1 0x1 DUP3 ADD DUP1 SLOAD PUSH2 0x61B SWAP1 PUSH2 0xF4C JUMP JUMPDEST DUP1 PUSH1 0x1F ADD PUSH1 0x20 DUP1 SWAP2 DIV MUL PUSH1 0x20 ADD PUSH1 0x40 MLOAD SWAP1 DUP2 ADD PUSH1 0x40 MSTORE DUP1 SWAP3 SWAP2 SWAP1 DUP2 DUP2 MSTORE PUSH1 0x20 ADD DUP3 DUP1 SLOAD PUSH2 0x647 SWAP1 PUSH2 0xF4C JUMP JUMPDEST DUP1 ISZERO PUSH2 0x692 JUMPI DUP1 PUSH1 0x1F LT PUSH2 0x669 JUMPI PUSH2 0x100 DUP1 DUP4 SLOAD DIV MUL DUP4 MSTORE SWAP2 PUSH1 0x20 ADD SWAP2 PUSH2 0x692 JUMP JUMPDEST DUP3 ADD SWAP2 SWAP1 PUSH0 MSTORE PUSH1 0x20 PUSH0 KECCAK256 SWAP1 JUMPDEST DUP2 SLOAD DUP2 MSTORE SWAP1 PUSH1 0x1 ADD SWAP1 PUSH1 0x20 ADD DUP1 DUP4 GT PUSH2 0x675 JUMPI DUP3 SWAP1 SUB PUSH1 0x1F AND DUP3 ADD SWAP2 JUMPDEST POP POP POP POP POP DUP2 MSTORE PUSH1 0x20 ADD PUSH1 0x2 DUP3 ADD PUSH0 SWAP1 SLOAD SWAP1 PUSH2 0x100 EXP SWAP1 DIV PUSH1 0xE8 SHL PUSH29 0xFFFFFFFFFFFFFFFFFFFFFFFFFFFFFFFFFFFFFFFFFFFFFFFFFFFFFFFFFF NOT AND PUSH29 0xFFFFFFFFFFFFFFFFFFFFFFFFFFFFFFFFFFFFFFFFFFFFFFFFFFFFFFFFFF NOT AND DUP2 MSTORE PUSH1 0x20 ADD PUSH1 0x2 DUP3 ADD PUSH1 0x3 SWAP1 SLOAD SWAP1 PUSH2 0x100 EXP SWAP1 DIV PUSH1 0xFF AND ISZERO ISZERO ISZERO ISZERO DUP2 MSTORE POP POP SWAP1 POP SWAP1 JUMP JUMPDEST PUSH1 0x40 MLOAD DUP1 PUSH1 0x40 ADD PUSH1 0x40 MSTORE DUP1 DUP4 DUP2 MSTORE PUSH1 0x20 ADD DUP3 DUP2 MSTORE POP PUSH1 0x4 PUSH0 DUP3 ADD MLOAD DUP2 PUSH0 ADD SSTORE PUSH1 0x20 DUP3 ADD MLOAD DUP2 PUSH1 0x1 ADD SWAP1 DUP2 PUSH2 0x745 SWAP2 SWAP1 PUSH2 0x1119 JUMP JUMPDEST POP SWAP1 POP POP POP POP JUMP JUMPDEST PUSH1 0x40 MLOAD DUP1 PUSH1 0x40 ADD PUSH1 0x40 MSTORE DUP1 DUP4 DUP2 MSTORE PUSH1 0x20 ADD DUP3 DUP2 MSTORE POP PUSH1 0x6 PUSH0 DUP3 ADD MLOAD DUP2 PUSH0 ADD SSTORE PUSH1 0x20 DUP3 ADD MLOAD DUP2 PUSH1 0x1 ADD SWAP1 DUP2 PUSH2 0x781 SWAP2 SWAP1 PUSH2 0x1119 JUMP JUMPDEST POP SWAP1 POP POP POP POP JUMP JUMPDEST PUSH0 DUP1 SLOAD SWAP1 POP SWAP1 JUMP JUMPDEST DUP1 PUSH1 0x8 PUSH1 0x1 ADD SWAP1 DUP2 PUSH2 0x7A3 SWAP2 SWAP1 PUSH2 0x1119 JUMP JUMPDEST POP POP JUMP JUMPDEST DUP1 PUSH0 DUP2 SWAP1 SSTORE POP POP JUMP JUMPDEST PUSH1 0x40 MLOAD DUP1 PUSH1 0x40 ADD PUSH1 0x40 MSTORE DUP1 PUSH0 DUP2 MSTORE PUSH1 0x20 ADD PUSH1 0x60 DUP2 MSTORE POP SWAP1 JUMP JUMPDEST PUSH1 0x40 MLOAD DUP1 PUSH1 0x80 ADD PUSH1 0x40 MSTORE DUP1 PUSH0 DUP2 MSTORE PUSH1 0x20 ADD PUSH1 0x60 DUP2 MSTORE PUSH1 0x20 ADD PUSH0 PUSH29 0xFFFFFFFFFFFFFFFFFFFFFFFFFFFFFFFFFFFFFFFFFFFFFFFFFFFFFFFFFF NOT AND DUP2 MSTORE PUSH1 0x20 ADD PUSH0 ISZERO ISZERO DUP2 MSTORE POP SWAP1 JUMP JUMPDEST PUSH0 PUSH1 0x40 MLOAD SWAP1 POP SWAP1 JUMP JUMPDEST PUSH0 DUP1 REVERT JUMPDEST PUSH0 DUP1 REVERT JUMPDEST PUSH0 DUP1 REVERT JUMPDEST PUSH0 PUSH1 0x1F NOT PUSH1 0x1F DUP4 ADD AND SWAP1 POP SWAP2 SWAP1 POP JUMP JUMPDEST PUSH32 0x4E487B7100000000000000000000000000000000000000000000000000000000 PUSH0 MSTORE PUSH1 0x41 PUSH1 0x4 MSTORE PUSH1 0x24 PUSH0 REVERT JUMPDEST PUSH2 0x86B DUP3 PUSH2 0x825 JUMP JUMPDEST DUP2 ADD DUP2 DUP2 LT PUSH8 0xFFFFFFFFFFFFFFFF DUP3 GT OR ISZERO PUSH2 0x88A JUMPI PUSH2 0x889 PUSH2 0x835 JUMP JUMPDEST JUMPDEST DUP1 PUSH1 0x40 MSTORE POP POP POP JUMP JUMPDEST PUSH0 PUSH2 0x89C PUSH2 0x810 JUMP JUMPDEST SWAP1 POP PUSH2 0x8A8 DUP3 DUP3 PUSH2 0x862 JUMP JUMPDEST SWAP2 SWAP1 POP JUMP JUMPDEST PUSH0 DUP1 REVERT JUMPDEST PUSH0 DUP2 SWAP1 POP SWAP2 SWAP1 POP JUMP JUMPDEST PUSH2 0x8C3 DUP2 PUSH2 0x8B1 JUMP JUMPDEST DUP2 EQ PUSH2 0x8CD JUMPI PUSH0 DUP1 REVERT JUMPDEST POP JUMP JUMPDEST PUSH0 DUP2 CALLDATALOAD SWAP1 POP PUSH2 0x8DE DUP2 PUSH2 0x8BA JUMP JUMPDEST SWAP3 SWAP2 POP POP JUMP JUMPDEST PUSH0 DUP1 REVERT JUMPDEST PUSH0 DUP1 REVERT JUMPDEST PUSH0 PUSH8 0xFFFFFFFFFFFFFFFF DUP3 GT ISZERO PUSH2 0x906 JUMPI PUSH2 0x905 PUSH2 0x835 JUMP JUMPDEST JUMPDEST PUSH2 0x90F DUP3 PUSH2 0x825 JUMP JUMPDEST SWAP1 POP PUSH1 0x20 DUP2 ADD SWAP1 POP SWAP2 SWAP1 POP JUMP JUMPDEST DUP3 DUP2 DUP4 CALLDATACOPY PUSH0 DUP4 DUP4 ADD MSTORE POP POP POP JUMP JUMPDEST PUSH0 PUSH2 0x93C PUSH2 0x937 DUP5 PUSH2 0x8EC JUMP JUMPDEST PUSH2 0x893 JUMP JUMPDEST SWAP1 POP DUP3 DUP2 MSTORE PUSH1 0x20 DUP2 ADD DUP5 DUP5 DUP5 ADD GT ISZERO PUSH2 0x958 JUMPI PUSH2 0x957 PUSH2 0x8E8 JUMP JUMPDEST JUMPDEST PUSH2 0x963 DUP5 DUP3 DUP6 PUSH2 0x91C JUMP JUMPDEST POP SWAP4 SWAP3 POP POP POP JUMP JUMPDEST PUSH0 DUP3 PUSH1 0x1F DUP4 ADD SLT PUSH2 0x97F JUMPI PUSH2 0x97E PUSH2 0x8E4 JUMP JUMPDEST JUMPDEST DUP2 CALLDATALOAD PUSH2 0x98F DUP5 DUP3 PUSH1 0x20 DUP7 ADD PUSH2 0x92A JUMP JUMPDEST SWAP2 POP POP SWAP3 SWAP2 POP POP JUMP JUMPDEST PUSH0 PUSH1 0x40 DUP3 DUP5 SUB SLT ISZERO PUSH2 0x9AD JUMPI PUSH2 0x9AC PUSH2 0x821 JUMP JUMPDEST JUMPDEST PUSH2 0x9B7 PUSH1 0x40 PUSH2 0x893 JUMP JUMPDEST SWAP1 POP PUSH0 PUSH2 0x9C6 DUP5 DUP3 DUP6 ADD PUSH2 0x8D0 JUMP JUMPDEST PUSH0 DUP4 ADD MSTORE POP PUSH1 0x20 DUP3 ADD CALLDATALOAD PUSH8 0xFFFFFFFFFFFFFFFF DUP2 GT ISZERO PUSH2 0x9E9 JUMPI PUSH2 0x9E8 PUSH2 0x8AD JUMP JUMPDEST JUMPDEST PUSH2 0x9F5 DUP5 DUP3 DUP6 ADD PUSH2 0x96B JUMP JUMPDEST PUSH1 0x20 DUP4 ADD MSTORE POP SWAP3 SWAP2 POP POP JUMP JUMPDEST PUSH0 PUSH1 0x20 DUP3 DUP5 SUB SLT ISZERO PUSH2 0xA16 JUMPI PUSH2 0xA15 PUSH2 0x819 JUMP JUMPDEST JUMPDEST PUSH0 DUP3 ADD CALLDATALOAD PUSH8 0xFFFFFFFFFFFFFFFF DUP2 GT ISZERO PUSH2 0xA33 JUMPI PUSH2 0xA32 PUSH2 0x81D JUMP JUMPDEST JUMPDEST PUSH2 0xA3F DUP5 DUP3 DUP6 ADD PUSH2 0x998 JUMP JUMPDEST SWAP2 POP POP SWAP3 SWAP2 POP POP JUMP JUMPDEST PUSH0 PUSH1 0x20 DUP3 DUP5 SUB SLT ISZERO PUSH2 0xA5D JUMPI PUSH2 0xA5C PUSH2 0x819 JUMP JUMPDEST JUMPDEST PUSH0 DUP3 ADD CALLDATALOAD PUSH8 0xFFFFFFFFFFFFFFFF DUP2 GT ISZERO PUSH2 0xA7A JUMPI PUSH2 0xA79 PUSH2 0x81D JUMP JUMPDEST JUMPDEST PUSH2 0xA86 DUP5 DUP3 DUP6 ADD PUSH2 0x96B JUMP JUMPDEST SWAP2 POP POP SWAP3 SWAP2 POP POP JUMP JUMPDEST PUSH2 0xA98 DUP2 PUSH2 0x8B1 JUMP JUMPDEST DUP3 MSTORE POP POP JUMP JUMPDEST PUSH0 DUP2 MLOAD SWAP1 POP SWAP2 SWAP1 POP JUMP JUMPDEST PUSH0 DUP3 DUP3 MSTORE PUSH1 0x20 DUP3 ADD SWAP1 POP SWAP3 SWAP2 POP POP JUMP JUMPDEST DUP3 DUP2 DUP4 MCOPY PUSH0 DUP4 DUP4 ADD MSTORE POP POP POP JUMP JUMPDEST PUSH0 PUSH2 0xAD0 DUP3 PUSH2 0xA9E JUMP JUMPDEST PUSH2 0xADA DUP2 DUP6 PUSH2 0xAA8 JUMP JUMPDEST SWAP4 POP PUSH2 0xAEA DUP2 DUP6 PUSH1 0x20 DUP7 ADD PUSH2 0xAB8 JUMP JUMPDEST PUSH2 0xAF3 DUP2 PUSH2 0x825 JUMP JUMPDEST DUP5 ADD SWAP2 POP POP SWAP3 SWAP2 POP POP JUMP JUMPDEST PUSH0 PUSH1 0x40 DUP4 ADD PUSH0 DUP4 ADD MLOAD PUSH2 0xB13 PUSH0 DUP7 ADD DUP3 PUSH2 0xA8F JUMP JUMPDEST POP PUSH1 0x20 DUP4 ADD MLOAD DUP5 DUP3 SUB PUSH1 0x20 DUP7 ADD MSTORE PUSH2 0xB2B DUP3 DUP3 PUSH2 0xAC6 JUMP JUMPDEST SWAP2 POP POP DUP1 SWAP2 POP POP SWAP3 SWAP2 POP POP JUMP JUMPDEST PUSH0 PUSH1 0x40 DUP3 ADD SWAP1 POP DUP2 DUP2 SUB PUSH0 DUP4 ADD MSTORE PUSH2 0xB50 DUP2 DUP6 PUSH2 0xAFE JUMP JUMPDEST SWAP1 POP DUP2 DUP2 SUB PUSH1 0x20 DUP4 ADD MSTORE PUSH2 0xB64 DUP2 DUP5 PUSH2 0xAFE JUMP JUMPDEST SWAP1 POP SWAP4 SWAP3 POP POP POP JUMP JUMPDEST PUSH0 DUP1 PUSH1 0x40 DUP4 DUP6 SUB SLT ISZERO PUSH2 0xB83 JUMPI PUSH2 0xB82 PUSH2 0x819 JUMP JUMPDEST JUMPDEST PUSH0 PUSH2 0xB90 DUP6 DUP3 DUP7 ADD PUSH2 0x8D0 JUMP JUMPDEST SWAP3 POP POP PUSH1 0x20 DUP4 ADD CALLDATALOAD PUSH8 0xFFFFFFFFFFFFFFFF DUP2 GT ISZERO PUSH2 0xBB1 JUMPI PUSH2 0xBB0 PUSH2 0x81D JUMP JUMPDEST JUMPDEST PUSH2 0xBBD DUP6 DUP3 DUP7 ADD PUSH2 0x96B JUMP JUMPDEST SWAP2 POP POP SWAP3 POP SWAP3 SWAP1 POP JUMP JUMPDEST PUSH0 DUP3 DUP3 MSTORE PUSH1 0x20 DUP3 ADD SWAP1 POP SWAP3 SWAP2 POP POP JUMP JUMPDEST PUSH0 PUSH2 0xBE1 DUP3 PUSH2 0xA9E JUMP JUMPDEST PUSH2 0xBEB DUP2 DUP6 PUSH2 0xBC7 JUMP JUMPDEST SWAP4 POP PUSH2 0xBFB DUP2 DUP6 PUSH1 0x20 DUP7 ADD PUSH2 0xAB8 JUMP JUMPDEST PUSH2 0xC04 DUP2 PUSH2 0x825 JUMP JUMPDEST DUP5 ADD SWAP2 POP POP SWAP3 SWAP2 POP POP JUMP JUMPDEST PUSH0 PUSH32 0xFFFFFF0000000000000000000000000000000000000000000000000000000000 DUP3 AND SWAP1 POP SWAP2 SWAP1 POP JUMP JUMPDEST PUSH2 0xC43 DUP2 PUSH2 0xC0F JUMP JUMPDEST DUP3 MSTORE POP POP JUMP JUMPDEST PUSH0 PUSH1 0x40 DUP3 ADD SWAP1 POP DUP2 DUP2 SUB PUSH0 DUP4 ADD MSTORE PUSH2 0xC61 DUP2 DUP6 PUSH2 0xBD7 JUMP JUMPDEST SWAP1 POP PUSH2 0xC70 PUSH1 0x20 DUP4 ADD DUP5 PUSH2 0xC3A JUMP JUMPDEST SWAP4 SWAP3 POP POP POP JUMP JUMPDEST PUSH2 0xC80 DUP2 PUSH2 0xC0F JUMP JUMPDEST DUP2 EQ PUSH2 0xC8A JUMPI PUSH0 DUP1 REVERT JUMPDEST POP JUMP JUMPDEST PUSH0 DUP2 CALLDATALOAD SWAP1 POP PUSH2 0xC9B DUP2 PUSH2 0xC77 JUMP JUMPDEST SWAP3 SWAP2 POP POP JUMP JUMPDEST PUSH0 DUP2 ISZERO ISZERO SWAP1 POP SWAP2 SWAP1 POP JUMP JUMPDEST PUSH2 0xCB5 DUP2 PUSH2 0xCA1 JUMP JUMPDEST DUP2 EQ PUSH2 0xCBF JUMPI PUSH0 DUP1 REVERT JUMPDEST POP JUMP JUMPDEST PUSH0 DUP2 CALLDATALOAD SWAP1 POP PUSH2 0xCD0 DUP2 PUSH2 0xCAC JUMP JUMPDEST SWAP3 SWAP2 POP POP JUMP JUMPDEST PUSH0 DUP1 PUSH0 DUP1 PUSH1 0x80 DUP6 DUP8 SUB SLT ISZERO PUSH2 0xCEE JUMPI PUSH2 0xCED PUSH2 0x819 JUMP JUMPDEST JUMPDEST PUSH0 PUSH2 0xCFB DUP8 DUP3 DUP9 ADD PUSH2 0x8D0 JUMP JUMPDEST SWAP5 POP POP PUSH1 0x20 DUP6 ADD CALLDATALOAD PUSH8 0xFFFFFFFFFFFFFFFF DUP2 GT ISZERO PUSH2 0xD1C JUMPI PUSH2 0xD1B PUSH2 0x81D JUMP JUMPDEST JUMPDEST PUSH2 0xD28 DUP8 DUP3 DUP9 ADD PUSH2 0x96B JUMP JUMPDEST SWAP4 POP POP PUSH1 0x40 PUSH2 0xD39 DUP8 DUP3 DUP9 ADD PUSH2 0xC8D JUMP JUMPDEST SWAP3 POP POP PUSH1 0x60 PUSH2 0xD4A DUP8 DUP3 DUP9 ADD PUSH2 0xCC2 JUMP JUMPDEST SWAP2 POP POP SWAP3 SWAP6 SWAP2 SWAP5 POP SWAP3 POP JUMP JUMPDEST PUSH0 PUSH1 0x80 DUP3 DUP5 SUB SLT ISZERO PUSH2 0xD6B JUMPI PUSH2 0xD6A PUSH2 0x821 JUMP JUMPDEST JUMPDEST PUSH2 0xD75 PUSH1 0x80 PUSH2 0x893 JUMP JUMPDEST SWAP1 POP PUSH0 PUSH2 0xD84 DUP5 DUP3 DUP6 ADD PUSH2 0x8D0 JUMP JUMPDEST PUSH0 DUP4 ADD MSTORE POP PUSH1 0x20 DUP3 ADD CALLDATALOAD PUSH8 0xFFFFFFFFFFFFFFFF DUP2 GT ISZERO PUSH2 0xDA7 JUMPI PUSH2 0xDA6 PUSH2 0x8AD JUMP JUMPDEST JUMPDEST PUSH2 0xDB3 DUP5 DUP3 DUP6 ADD PUSH2 0x96B JUMP JUMPDEST PUSH1 0x20 DUP4 ADD MSTORE POP PUSH1 0x40 PUSH2 0xDC7 DUP5 DUP3 DUP6 ADD PUSH2 0xC8D JUMP JUMPDEST PUSH1 0x40 DUP4 ADD MSTORE POP PUSH1 0x60 PUSH2 0xDDB DUP5 DUP3 DUP6 ADD PUSH2 0xCC2 JUMP JUMPDEST PUSH1 0x60 DUP4 ADD MSTORE POP SWAP3 SWAP2 POP POP JUMP JUMPDEST PUSH0 PUSH1 0x20 DUP3 DUP5 SUB SLT ISZERO PUSH2 0xDFC JUMPI PUSH2 0xDFB PUSH2 0x819 JUMP JUMPDEST JUMPDEST PUSH0 DUP3 ADD CALLDATALOAD PUSH8 0xFFFFFFFFFFFFFFFF DUP2 GT ISZERO PUSH2 0xE19 JUMPI PUSH2 0xE18 PUSH2 0x81D JUMP JUMPDEST JUMPDEST PUSH2 0xE25 DUP5 DUP3 DUP6 ADD PUSH2 0xD56 JUMP JUMPDEST SWAP2 POP POP SWAP3 SWAP2 POP POP JUMP JUMPDEST PUSH2 0xE37 DUP2 PUSH2 0xC0F JUMP JUMPDEST DUP3 MSTORE POP POP JUMP JUMPDEST PUSH2 0xE46 DUP2 PUSH2 0xCA1 JUMP JUMPDEST DUP3 MSTORE POP POP JUMP JUMPDEST PUSH0 PUSH1 0x80 DUP4 ADD PUSH0 DUP4 ADD MLOAD PUSH2 0xE61 PUSH0 DUP7 ADD DUP3 PUSH2 0xA8F JUMP JUMPDEST POP PUSH1 0x20 DUP4 ADD MLOAD DUP5 DUP3 SUB PUSH1 0x20 DUP7 ADD MSTORE PUSH2 0xE79 DUP3 DUP3 PUSH2 0xAC6 JUMP JUMPDEST SWAP2 POP POP PUSH1 0x40 DUP4 ADD MLOAD PUSH2 0xE8E PUSH1 0x40 DUP7 ADD DUP3 PUSH2 0xE2E JUMP JUMPDEST POP PUSH1 0x60 DUP4 ADD MLOAD PUSH2 0xEA1 PUSH1 0x60 DUP7 ADD DUP3 PUSH2 0xE3D JUMP JUMPDEST POP DUP1 SWAP2 POP POP SWAP3 SWAP2 POP POP JUMP JUMPDEST PUSH0 PUSH1 0x20 DUP3 ADD SWAP1 POP DUP2 DUP2 SUB PUSH0 DUP4 ADD MSTORE PUSH2 0xEC4 DUP2 DUP5 PUSH2 0xE4C JUMP JUMPDEST SWAP1 POP SWAP3 SWAP2 POP POP JUMP JUMPDEST PUSH2 0xED5 DUP2 PUSH2 0x8B1 JUMP JUMPDEST DUP3 MSTORE POP POP JUMP JUMPDEST PUSH0 PUSH1 0x20 DUP3 ADD SWAP1 POP PUSH2 0xEEE PUSH0 DUP4 ADD DUP5 PUSH2 0xECC JUMP JUMPDEST SWAP3 SWAP2 POP POP JUMP JUMPDEST PUSH0 PUSH1 0x20 DUP3 DUP5 SUB SLT ISZERO PUSH2 0xF09 JUMPI PUSH2 0xF08 PUSH2 0x819 JUMP JUMPDEST JUMPDEST PUSH0 PUSH2 0xF16 DUP5 DUP3 DUP6 ADD PUSH2 0x8D0 JUMP JUMPDEST SWAP2 POP POP SWAP3 SWAP2 POP POP JUMP JUMPDEST PUSH32 0x4E487B7100000000000000000000000000000000000000000000000000000000 PUSH0 MSTORE PUSH1 0x22 PUSH1 0x4 MSTORE PUSH1 0x24 PUSH0 REVERT JUMPDEST PUSH0 PUSH1 0x2 DUP3 DIV SWAP1 POP PUSH1 0x1 DUP3 AND DUP1 PUSH2 0xF63 JUMPI PUSH1 0x7F DUP3 AND SWAP2 POP JUMPDEST PUSH1 0x20 DUP3 LT DUP2 SUB PUSH2 0xF76 JUMPI PUSH2 0xF75 PUSH2 0xF1F JUMP JUMPDEST JUMPDEST POP SWAP2 SWAP1 POP JUMP JUMPDEST PUSH0 DUP2 SWAP1 POP DUP2 PUSH0 MSTORE PUSH1 0x20 PUSH0 KECCAK256 SWAP1 POP SWAP2 SWAP1 POP JUMP JUMPDEST PUSH0 PUSH1 0x20 PUSH1 0x1F DUP4 ADD DIV SWAP1 POP SWAP2 SWAP1 POP JUMP JUMPDEST PUSH0 DUP3 DUP3 SHL SWAP1 POP SWAP3 SWAP2 POP POP JUMP JUMPDEST PUSH0 PUSH1 0x8 DUP4 MUL PUSH2 0xFD8 PUSH32 0xFFFFFFFFFFFFFFFFFFFFFFFFFFFFFFFFFFFFFFFFFFFFFFFFFFFFFFFFFFFFFFFF DUP3 PUSH2 0xF9D JUMP JUMPDEST PUSH2 0xFE2 DUP7 DUP4 PUSH2 0xF9D JUMP JUMPDEST SWAP6 POP DUP1 NOT DUP5 AND SWAP4 POP DUP1 DUP7 AND DUP5 OR SWAP3 POP POP POP SWAP4 SWAP3 POP POP POP JUMP JUMPDEST PUSH0 DUP2 SWAP1 POP SWAP2 SWAP1 POP JUMP JUMPDEST PUSH0 PUSH2 0x101D PUSH2 0x1018 PUSH2 0x1013 DUP5 PUSH2 0x8B1 JUMP JUMPDEST PUSH2 0xFFA JUMP JUMPDEST PUSH2 0x8B1 JUMP JUMPDEST SWAP1 POP SWAP2 SWAP1 POP JUMP JUMPDEST PUSH0 DUP2 SWAP1 POP SWAP2 SWAP1 POP JUMP JUMPDEST PUSH2 0x1036 DUP4 PUSH2 0x1003 JUMP JUMPDEST PUSH2 0x104A PUSH2 0x1042 DUP3 PUSH2 0x1024 JUMP JUMPDEST DUP5 DUP5 SLOAD PUSH2 0xFA9 JUMP JUMPDEST DUP3 SSTORE POP POP POP POP JUMP JUMPDEST PUSH0 SWAP1 JUMP JUMPDEST PUSH2 0x105E PUSH2 0x1052 JUMP JUMPDEST PUSH2 0x1069 DUP2 DUP5 DUP5 PUSH2 0x102D JUMP JUMPDEST POP POP POP JUMP JUMPDEST JUMPDEST DUP2 DUP2 LT ISZERO PUSH2 0x108C JUMPI PUSH2 0x1081 PUSH0 DUP3 PUSH2 0x1056 JUMP JUMPDEST PUSH1 0x1 DUP2 ADD SWAP1 POP PUSH2 0x106F JUMP JUMPDEST POP POP JUMP JUMPDEST PUSH1 0x1F DUP3 GT ISZERO PUSH2 0x10D1 JUMPI PUSH2 0x10A2 DUP2 PUSH2 0xF7C JUMP JUMPDEST PUSH2 0x10AB DUP5 PUSH2 0xF8E JUMP JUMPDEST DUP2 ADD PUSH1 0x20 DUP6 LT ISZERO PUSH2 0x10BA JUMPI DUP2 SWAP1 POP JUMPDEST PUSH2 0x10CE PUSH2 0x10C6 DUP6 PUSH2 0xF8E JUMP JUMPDEST DUP4 ADD DUP3 PUSH2 0x106E JUMP JUMPDEST POP POP JUMPDEST POP POP POP JUMP JUMPDEST PUSH0 DUP3 DUP3 SHR SWAP1 POP SWAP3 SWAP2 POP POP JUMP JUMPDEST PUSH0 PUSH2 0x10F1 PUSH0 NOT DUP5 PUSH1 0x8 MUL PUSH2 0x10D6 JUMP JUMPDEST NOT DUP1 DUP4 AND SWAP2 POP POP SWAP3 SWAP2 POP POP JUMP JUMPDEST PUSH0 PUSH2 0x1109 DUP4 DUP4 PUSH2 0x10E2 JUMP JUMPDEST SWAP2 POP DUP3 PUSH1 0x2 MUL DUP3 OR SWAP1 POP SWAP3 SWAP2 POP POP JUMP JUMPDEST PUSH2 0x1122 DUP3 PUSH2 0xA9E JUMP JUMPDEST PUSH8 0xFFFFFFFFFFFFFFFF DUP2 GT ISZERO PUSH2 0x113B JUMPI PUSH2 0x113A PUSH2 0x835 JUMP JUMPDEST JUMPDEST PUSH2 0x1145 DUP3 SLOAD PUSH2 0xF4C JUMP JUMPDEST PUSH2 0x1150 DUP3 DUP3 DUP6 PUSH2 0x1090 JUMP JUMPDEST PUSH0 PUSH1 0x20 SWAP1 POP PUSH1 0x1F DUP4 GT PUSH1 0x1 DUP2 EQ PUSH2 0x1181 JUMPI PUSH0 DUP5 ISZERO PUSH2 0x116F JUMPI DUP3 DUP8 ADD MLOAD SWAP1 POP JUMPDEST PUSH2 0x1179 DUP6 DUP3 PUSH2 0x10FE JUMP JUMPDEST DUP7 SSTORE POP PUSH2 0x11E0 JUMP JUMPDEST PUSH1 0x1F NOT DUP5 AND PUSH2 0x118F DUP7 PUSH2 0xF7C JUMP JUMPDEST PUSH0 JUMPDEST DUP3 DUP2 LT ISZERO PUSH2 0x11B6 JUMPI DUP5 DUP10 ADD MLOAD DUP3 SSTORE PUSH1 0x1 DUP3 ADD SWAP2 POP PUSH1 0x20 DUP6 ADD SWAP5 POP PUSH1 0x20 DUP2 ADD SWAP1 POP PUSH2 0x1191 JUMP JUMPDEST DUP7 DUP4 LT ISZERO PUSH2 0x11D3 JUMPI DUP5 DUP10 ADD MLOAD PUSH2 0x11CF PUSH1 0x1F DUP10 AND DUP3 PUSH2 0x10E2 JUMP JUMPDEST DUP4 SSTORE POP JUMPDEST PUSH1 0x1 PUSH1 0x2 DUP9 MUL ADD DUP9 SSTORE POP POP POP JUMPDEST POP POP POP POP POP POP JUMP INVALID LOG2 PUSH5 0x6970667358 0x22 SLT KECCAK256 STATICCALL 0xEF 0xBA 0xF9 0xCC RETURN 0xE9 0xB2 GASLIMIT EXTCODESIZE DUP1 0xC0 MOD KECCAK256 SIGNEXTEND INVALID TSTORE PUSH26 0x81742A790DB91FF581721755127864736F6C634300081A003300 "
				},
				"gasEstimates": {
					"creation": {
						"codeDepositCost": "927600",
						"executionCost": "960",
						"totalCost": "928560"
					},
					"external": {
						"getA()": "2476",
						"getS1()": "infinite",
						"getS1_2()": "infinite",
						"getU12()": "infinite",
						"setA(uint256)": "22602",
						"setS1(uint256,string,bytes3,bool)": "infinite",
						"setS1_2((uint256,string,bytes3,bool))": "infinite",
						"setS1_Name(string)": "infinite",
						"setU1(uint256,string)": "infinite",
						"setU1_2((uint256,string))": "infinite",
						"setU1_3(uint256,string)": "infinite",
						"setU1_Name(string)": "infinite",
						"setU2(uint256,string)": "infinite"
					}
				},
				"methodIdentifiers": {
					"getA()": "d46300fd",
					"getS1()": "80982f50",
					"getS1_2()": "2e35253a",
					"getU12()": "299c0030",
					"setA(uint256)": "ee919d50",
					"setS1(uint256,string,bytes3,bool)": "3fed508f",
					"setS1_2((uint256,string,bytes3,bool))": "56c90aad",
					"setS1_Name(string)": "ed224c78",
					"setU1(uint256,string)": "2b14386f",
					"setU1_2((uint256,string))": "0f22d999",
					"setU1_3(uint256,string)": "ac7a047e",
					"setU1_Name(string)": "145d0e22",
					"setU2(uint256,string)": "b0c5e781"
				}
			},
			"storageLayout": {
				"storage": [
					{
						"astId": 3,
						"contract": "contracts/struct.sol:STRUCT",
						"label": "a",
						"offset": 0,
						"slot": "0",
						"type": "t_uint256"
					},
					{
						"astId": 5,
						"contract": "contracts/struct.sol:STRUCT",
						"label": "b",
						"offset": 0,
						"slot": "1",
						"type": "t_string_storage"
					},
					{
						"astId": 7,
						"contract": "contracts/struct.sol:STRUCT",
						"label": "c",
						"offset": 0,
						"slot": "2",
						"type": "t_bytes1"
					},
					{
						"astId": 9,
						"contract": "contracts/struct.sol:STRUCT",
						"label": "d",
						"offset": 0,
						"slot": "3",
						"type": "t_bytes_storage"
					},
					{
						"astId": 17,
						"contract": "contracts/struct.sol:STRUCT",
						"label": "u1",
						"offset": 0,
						"slot": "4",
						"type": "t_struct(user)14_storage"
					},
					{
						"astId": 20,
						"contract": "contracts/struct.sol:STRUCT",
						"label": "u2",
						"offset": 0,
						"slot": "6",
						"type": "t_struct(user)14_storage"
					},
					{
						"astId": 132,
						"contract": "contracts/struct.sol:STRUCT",
						"label": "s1",
						"offset": 0,
						"slot": "8",
						"type": "t_struct(staff)129_storage"
					}
				],
				"types": {
					"t_bool": {
						"encoding": "inplace",
						"label": "bool",
						"numberOfBytes": "1"
					},
					"t_bytes1": {
						"encoding": "inplace",
						"label": "bytes1",
						"numberOfBytes": "1"
					},
					"t_bytes3": {
						"encoding": "inplace",
						"label": "bytes3",
						"numberOfBytes": "3"
					},
					"t_bytes_storage": {
						"encoding": "bytes",
						"label": "bytes",
						"numberOfBytes": "32"
					},
					"t_string_storage": {
						"encoding": "bytes",
						"label": "string",
						"numberOfBytes": "32"
					},
					"t_struct(staff)129_storage": {
						"encoding": "inplace",
						"label": "struct STRUCT.staff",
						"members": [
							{
								"astId": 122,
								"contract": "contracts/struct.sol:STRUCT",
								"label": "number",
								"offset": 0,
								"slot": "0",
								"type": "t_uint256"
							},
							{
								"astId": 124,
								"contract": "contracts/struct.sol:STRUCT",
								"label": "name",
								"offset": 0,
								"slot": "1",
								"type": "t_string_storage"
							},
							{
								"astId": 126,
								"contract": "contracts/struct.sol:STRUCT",
								"label": "id",
								"offset": 0,
								"slot": "2",
								"type": "t_bytes3"
							},
							{
								"astId": 128,
								"contract": "contracts/struct.sol:STRUCT",
								"label": "b",
								"offset": 3,
								"slot": "2",
								"type": "t_bool"
							}
						],
						"numberOfBytes": "96"
					},
					"t_struct(user)14_storage": {
						"encoding": "inplace",
						"label": "struct STRUCT.user",
						"members": [
							{
								"astId": 11,
								"contract": "contracts/struct.sol:STRUCT",
								"label": "number",
								"offset": 0,
								"slot": "0",
								"type": "t_uint256"
							},
							{
								"astId": 13,
								"contract": "contracts/struct.sol:STRUCT",
								"label": "name",
								"offset": 0,
								"slot": "1",
								"type": "t_string_storage"
							}
						],
						"numberOfBytes": "64"
					},
					"t_uint256": {
						"encoding": "inplace",
						"label": "uint256",
						"numberOfBytes": "32"
					}
				}
			},
			"userdoc": {
				"kind": "user",
				"methods": {},
				"version": 1
			}
		}
	}
}