{
	"data": {
		"bytecode": {
			"linkReferences": {},
			"object": "6080604052348015600e575f80fd5b506104738061001c5f395ff3fe608060405234801561000f575f80fd5b5060043610610060575f3560e01c806308f71c621461006457806389f915f614610080578063be1c766b1461009e578063d91ba660146100bc578063df7f5226146100d8578063fc563658146100e2575b5f80fd5b61007e60048036038101906100799190610261565b610112565b005b61008861013b565b6040516100959190610344565b60405180910390f35b6100a6610185565b6040516100b3919061036c565b60405180910390f35b6100d660048036038101906100d19190610385565b61018d565b005b6100e06101b3565b005b6100fc60048036038101906100f79190610385565b6101c1565b604051610109919061036c565b60405180910390f35b805f60018461012191906103dd565b6005811061013257610131610410565b5b01819055505050565b6101436101ea565b5f60058060200260405190810160405280929190826005801561017b576020028201915b815481526020019060010190808311610167575b5050505050905090565b5f6005905090565b5f60018261019b91906103dd565b600581106101ac576101ab610410565b5b015f905550565b5f806101bf919061020c565b565b5f806001836101d091906103dd565b600581106101e1576101e0610410565b5b01549050919050565b6040518060a00160405280600590602082028036833780820191505090505090565b505f81556001015f81556001015f81556001015f81556001015f9055565b5f80fd5b5f819050919050565b6102408161022e565b811461024a575f80fd5b50565b5f8135905061025b81610237565b92915050565b5f80604083850312156102775761027661022a565b5b5f6102848582860161024d565b92505060206102958582860161024d565b9150509250929050565b5f60059050919050565b5f81905092915050565b5f819050919050565b6102c58161022e565b82525050565b5f6102d683836102bc565b60208301905092915050565b5f602082019050919050565b6102f78161029f565b61030181846102a9565b925061030c826102b3565b805f5b8381101561033c57815161032387826102cb565b965061032e836102e2565b92505060018101905061030f565b505050505050565b5f60a0820190506103575f8301846102ee565b92915050565b6103668161022e565b82525050565b5f60208201905061037f5f83018461035d565b92915050565b5f6020828403121561039a5761039961022a565b5b5f6103a78482850161024d565b91505092915050565b7f4e487b71000000000000000000000000000000000000000000000000000000005f52601160045260245ffd5b5f6103e78261022e565b91506103f28361022e565b925082820390508181111561040a576104096103b0565b5b92915050565b7f4e487b71000000000000000000000000000000000000000000000000000000005f52603260045260245ffdfea26469706673582212209bf1a7031493e2404a3e19bab73bd2d5917d25c2a56031b4c29e41d32bfe599c64736f6c634300081a0033",
			"opcodes": "PUSH1 0x80 PUSH1 0x40 MSTORE CALLVALUE DUP1 ISZERO PUSH1 0xE JUMPI PUSH0 DUP1 REVERT JUMPDEST POP PUSH2 0x473 DUP1 PUSH2 0x1C PUSH0 CODECOPY PUSH0 RETURN INVALID PUSH1 0x80 PUSH1 0x40 MSTORE CALLVALUE DUP1 ISZERO PUSH2 0xF JUMPI PUSH0 DUP1 REVERT JUMPDEST POP PUSH1 0x4 CALLDATASIZE LT PUSH2 0x60 JUMPI PUSH0 CALLDATALOAD PUSH1 0xE0 SHR DUP1 PUSH4 0x8F71C62 EQ PUSH2 0x64 JUMPI DUP1 PUSH4 0x89F915F6 EQ PUSH2 0x80 JUMPI DUP1 PUSH4 0xBE1C766B EQ PUSH2 0x9E JUMPI DUP1 PUSH4 0xD91BA660 EQ PUSH2 0xBC JUMPI DUP1 PUSH4 0xDF7F5226 EQ PUSH2 0xD8 JUMPI DUP1 PUSH4 0xFC563658 EQ PUSH2 0xE2 JUMPI JUMPDEST PUSH0 DUP1 REVERT JUMPDEST PUSH2 0x7E PUSH1 0x4 DUP1 CALLDATASIZE SUB DUP2 ADD SWAP1 PUSH2 0x79 SWAP2 SWAP1 PUSH2 0x261 JUMP JUMPDEST PUSH2 0x112 JUMP JUMPDEST STOP JUMPDEST PUSH2 0x88 PUSH2 0x13B JUMP JUMPDEST PUSH1 0x40 MLOAD PUSH2 0x95 SWAP2 SWAP1 PUSH2 0x344 JUMP JUMPDEST PUSH1 0x40 MLOAD DUP1 SWAP2 SUB SWAP1 RETURN JUMPDEST PUSH2 0xA6 PUSH2 0x185 JUMP JUMPDEST PUSH1 0x40 MLOAD PUSH2 0xB3 SWAP2 SWAP1 PUSH2 0x36C JUMP JUMPDEST PUSH1 0x40 MLOAD DUP1 SWAP2 SUB SWAP1 RETURN JUMPDEST PUSH2 0xD6 PUSH1 0x4 DUP1 CALLDATASIZE SUB DUP2 ADD SWAP1 PUSH2 0xD1 SWAP2 SWAP1 PUSH2 0x385 JUMP JUMPDEST PUSH2 0x18D JUMP JUMPDEST STOP JUMPDEST PUSH2 0xE0 PUSH2 0x1B3 JUMP JUMPDEST STOP JUMPDEST PUSH2 0xFC PUSH1 0x4 DUP1 CALLDATASIZE SUB DUP2 ADD SWAP1 PUSH2 0xF7 SWAP2 SWAP1 PUSH2 0x385 JUMP JUMPDEST PUSH2 0x1C1 JUMP JUMPDEST PUSH1 0x40 MLOAD PUSH2 0x109 SWAP2 SWAP1 PUSH2 0x36C JUMP JUMPDEST PUSH1 0x40 MLOAD DUP1 SWAP2 SUB SWAP1 RETURN JUMPDEST DUP1 PUSH0 PUSH1 0x1 DUP5 PUSH2 0x121 SWAP2 SWAP1 PUSH2 0x3DD JUMP JUMPDEST PUSH1 0x5 DUP2 LT PUSH2 0x132 JUMPI PUSH2 0x131 PUSH2 0x410 JUMP JUMPDEST JUMPDEST ADD DUP2 SWAP1 SSTORE POP POP POP JUMP JUMPDEST PUSH2 0x143 PUSH2 0x1EA JUMP JUMPDEST PUSH0 PUSH1 0x5 DUP1 PUSH1 0x20 MUL PUSH1 0x40 MLOAD SWAP1 DUP2 ADD PUSH1 0x40 MSTORE DUP1 SWAP3 SWAP2 SWAP1 DUP3 PUSH1 0x5 DUP1 ISZERO PUSH2 0x17B JUMPI PUSH1 0x20 MUL DUP3 ADD SWAP2 JUMPDEST DUP2 SLOAD DUP2 MSTORE PUSH1 0x20 ADD SWAP1 PUSH1 0x1 ADD SWAP1 DUP1 DUP4 GT PUSH2 0x167 JUMPI JUMPDEST POP POP POP POP POP SWAP1 POP SWAP1 JUMP JUMPDEST PUSH0 PUSH1 0x5 SWAP1 POP SWAP1 JUMP JUMPDEST PUSH0 PUSH1 0x1 DUP3 PUSH2 0x19B SWAP2 SWAP1 PUSH2 0x3DD JUMP JUMPDEST PUSH1 0x5 DUP2 LT PUSH2 0x1AC JUMPI PUSH2 0x1AB PUSH2 0x410 JUMP JUMPDEST JUMPDEST ADD PUSH0 SWAP1 SSTORE POP JUMP JUMPDEST PUSH0 DUP1 PUSH2 0x1BF SWAP2 SWAP1 PUSH2 0x20C JUMP JUMPDEST JUMP JUMPDEST PUSH0 DUP1 PUSH1 0x1 DUP4 PUSH2 0x1D0 SWAP2 SWAP1 PUSH2 0x3DD JUMP JUMPDEST PUSH1 0x5 DUP2 LT PUSH2 0x1E1 JUMPI PUSH2 0x1E0 PUSH2 0x410 JUMP JUMPDEST JUMPDEST ADD SLOAD SWAP1 POP SWAP2 SWAP1 POP JUMP JUMPDEST PUSH1 0x40 MLOAD DUP1 PUSH1 0xA0 ADD PUSH1 0x40 MSTORE DUP1 PUSH1 0x5 SWAP1 PUSH1 0x20 DUP3 MUL DUP1 CALLDATASIZE DUP4 CALLDATACOPY DUP1 DUP3 ADD SWAP2 POP POP SWAP1 POP POP SWAP1 JUMP JUMPDEST POP PUSH0 DUP2 SSTORE PUSH1 0x1 ADD PUSH0 DUP2 SSTORE PUSH1 0x1 ADD PUSH0 DUP2 SSTORE PUSH1 0x1 ADD PUSH0 DUP2 SSTORE PUSH1 0x1 ADD PUSH0 SWAP1 SSTORE JUMP JUMPDEST PUSH0 DUP1 REVERT JUMPDEST PUSH0 DUP2 SWAP1 POP SWAP2 SWAP1 POP JUMP JUMPDEST PUSH2 0x240 DUP2 PUSH2 0x22E JUMP JUMPDEST DUP2 EQ PUSH2 0x24A JUMPI PUSH0 DUP1 REVERT JUMPDEST POP JUMP JUMPDEST PUSH0 DUP2 CALLDATALOAD SWAP1 POP PUSH2 0x25B DUP2 PUSH2 0x237 JUMP JUMPDEST SWAP3 SWAP2 POP POP JUMP JUMPDEST PUSH0 DUP1 PUSH1 0x40 DUP4 DUP6 SUB SLT ISZERO PUSH2 0x277 JUMPI PUSH2 0x276 PUSH2 0x22A JUMP JUMPDEST JUMPDEST PUSH0 PUSH2 0x284 DUP6 DUP3 DUP7 ADD PUSH2 0x24D JUMP JUMPDEST SWAP3 POP POP PUSH1 0x20 PUSH2 0x295 DUP6 DUP3 DUP7 ADD PUSH2 0x24D JUMP JUMPDEST SWAP2 POP POP SWAP3 POP SWAP3 SWAP1 POP JUMP JUMPDEST PUSH0 PUSH1 0x5 SWAP1 POP SWAP2 SWAP1 POP JUMP JUMPDEST PUSH0 DUP2 SWAP1 POP SWAP3 SWAP2 POP POP JUMP JUMPDEST PUSH0 DUP2 SWAP1 POP SWAP2 SWAP1 POP JUMP JUMPDEST PUSH2 0x2C5 DUP2 PUSH2 0x22E JUMP JUMPDEST DUP3 MSTORE POP POP JUMP JUMPDEST PUSH0 PUSH2 0x2D6 DUP4 DUP4 PUSH2 0x2BC JUMP JUMPDEST PUSH1 0x20 DUP4 ADD SWAP1 POP SWAP3 SWAP2 POP POP JUMP JUMPDEST PUSH0 PUSH1 0x20 DUP3 ADD SWAP1 POP SWAP2 SWAP1 POP JUMP JUMPDEST PUSH2 0x2F7 DUP2 PUSH2 0x29F JUMP JUMPDEST PUSH2 0x301 DUP2 DUP5 PUSH2 0x2A9 JUMP JUMPDEST SWAP3 POP PUSH2 0x30C DUP3 PUSH2 0x2B3 JUMP JUMPDEST DUP1 PUSH0 JUMPDEST DUP4 DUP2 LT ISZERO PUSH2 0x33C JUMPI DUP2 MLOAD PUSH2 0x323 DUP8 DUP3 PUSH2 0x2CB JUMP JUMPDEST SWAP7 POP PUSH2 0x32E DUP4 PUSH2 0x2E2 JUMP JUMPDEST SWAP3 POP POP PUSH1 0x1 DUP2 ADD SWAP1 POP PUSH2 0x30F JUMP JUMPDEST POP POP POP POP POP POP JUMP JUMPDEST PUSH0 PUSH1 0xA0 DUP3 ADD SWAP1 POP PUSH2 0x357 PUSH0 DUP4 ADD DUP5 PUSH2 0x2EE JUMP JUMPDEST SWAP3 SWAP2 POP POP JUMP JUMPDEST PUSH2 0x366 DUP2 PUSH2 0x22E JUMP JUMPDEST DUP3 MSTORE POP POP JUMP JUMPDEST PUSH0 PUSH1 0x20 DUP3 ADD SWAP1 POP PUSH2 0x37F PUSH0 DUP4 ADD DUP5 PUSH2 0x35D JUMP JUMPDEST SWAP3 SWAP2 POP POP JUMP JUMPDEST PUSH0 PUSH1 0x20 DUP3 DUP5 SUB SLT ISZERO PUSH2 0x39A JUMPI PUSH2 0x399 PUSH2 0x22A JUMP JUMPDEST JUMPDEST PUSH0 PUSH2 0x3A7 DUP5 DUP3 DUP6 ADD PUSH2 0x24D JUMP JUMPDEST SWAP2 POP POP SWAP3 SWAP2 POP POP JUMP JUMPDEST PUSH32 0x4E487B7100000000000000000000000000000000000000000000000000000000 PUSH0 MSTORE PUSH1 0x11 PUSH1 0x4 MSTORE PUSH1 0x24 PUSH0 REVERT JUMPDEST PUSH0 PUSH2 0x3E7 DUP3 PUSH2 0x22E JUMP JUMPDEST SWAP2 POP PUSH2 0x3F2 DUP4 PUSH2 0x22E JUMP JUMPDEST SWAP3 POP DUP3 DUP3 SUB SWAP1 POP DUP2 DUP2 GT ISZERO PUSH2 0x40A JUMPI PUSH2 0x409 PUSH2 0x3B0 JUMP JUMPDEST JUMPDEST SWAP3 SWAP2 POP POP JUMP JUMPDEST PUSH32 0x4E487B7100000000000000000000000000000000000000000000000000000000 PUSH0 MSTORE PUSH1 0x32 PUSH1 0x4 MSTORE PUSH1 0x24 PUSH0 REVERT INVALID LOG2 PUSH5 0x6970667358 0x22 SLT KECCAK256 SWAP12 CALL 0xA7 SUB EQ SWAP4 0xE2 BLOCKHASH BLOBBASEFEE RETURNDATACOPY NOT 0xBA 0xB7 EXTCODESIZE 0xD2 0xD5 SWAP2 PUSH30 0x25C2A56031B4C29E41D32BFE599C64736F6C634300081A00330000000000 "
		},
		"gasEstimates": {
			"creation": {
				"codeDepositCost": "227800",
				"executionCost": "267",
				"totalCost": "228067"
			},
			"external": {
				"DELETE1()": "25295",
				"DELETE2(uint256)": "infinite",
				"changeNumber(uint256,uint256)": "infinite",
				"getLength()": "354",
				"getNumber(uint256)": "infinite",
				"getNumbers()": "infinite"
			}
		},
		"methodIdentifiers": {
			"DELETE1()": "df7f5226",
			"DELETE2(uint256)": "d91ba660",
			"changeNumber(uint256,uint256)": "08f71c62",
			"getLength()": "be1c766b",
			"getNumber(uint256)": "fc563658",
			"getNumbers()": "89f915f6"
		}
	},
	"abi": [
		{
			"inputs": [],
			"name": "DELETE1",
			"outputs": [],
			"stateMutability": "nonpayable",
			"type": "function"
		},
		{
			"inputs": [
				{
					"internalType": "uint256",
					"name": "_n",
					"type": "uint256"
				}
			],
			"name": "DELETE2",
			"outputs": [],
			"stateMutability": "nonpayable",
			"type": "function"
		},
		{
			"inputs": [
				{
					"internalType": "uint256",
					"name": "_a",
					"type": "uint256"
				},
				{
					"internalType": "uint256",
					"name": "_b",
					"type": "uint256"
				}
			],
			"name": "changeNumber",
			"outputs": [],
			"stateMutability": "nonpayable",
			"type": "function"
		},
		{
			"inputs": [],
			"name": "getLength",
			"outputs": [
				{
					"internalType": "uint256",
					"name": "",
					"type": "uint256"
				}
			],
			"stateMutability": "view",
			"type": "function"
		},
		{
			"inputs": [
				{
					"internalType": "uint256",
					"name": "_a",
					"type": "uint256"
				}
			],
			"name": "getNumber",
			"outputs": [
				{
					"internalType": "uint256",
					"name": "",
					"type": "uint256"
				}
			],
			"stateMutability": "view",
			"type": "function"
		},
		{
			"inputs": [],
			"name": "getNumbers",
			"outputs": [
				{
					"internalType": "uint256[5]",
					"name": "",
					"type": "uint256[5]"
				}
			],
			"stateMutability": "view",
			"type": "function"
		}
	]
}