{
	"data": {
		"bytecode": {
			"linkReferences": {},
			"object": "6080604052348015600e575f80fd5b506109178061001c5f395ff3fe608060405234801561000f575f80fd5b506004361061003f575f3560e01c80632bfe18051461004357806389f915f61461005f578063be1c766b14610080575b5f80fd5b61005d60048036038101906100589190610457565b6100a1565b005b6100676100e5565b6040516100779493929190610836565b60405180910390f35b610088610323565b604051610098949392919061089e565b60405180910390f35b5f604051806020016040528083815250908060018154018082558091505060019003905f5260205f20015f909190919091509060016100e1929190610344565b5050565b60606100ef61038f565b60606100f96103b6565b5f60016006600783805480602002602001604051908101604052809291908181526020015f905b8282101561018e578382905f5260205f200180548060200260200160405190810160405280929190818152602001828054801561017a57602002820191905f5260205f20905b815481526020019060010190808311610166575b505050505081526020019060010190610120565b50505050935082600580602002604051908101604052809291905f905b82821015610212578382018054806020026020016040519081016040528092919081815260200182805480156101fe57602002820191905f5260205f20905b8154815260200190600101908083116101ea575b5050505050815260200190600101906101ab565b50505050925081805480602002602001604051908101604052809291908181526020015f905b82821015610299578382905f5260205f209060050201600580602002604051908101604052809291908260058015610285576020028201915b815481526020019060010190808311610271575b505050505081526020019060010190610238565b50505050915080600580602002604051908101604052809291905f905b8282101561030f578382600502016005806020026040519081016040528092919082600580156102fb576020028201915b8154815260200190600101908083116102e7575b5050505050815260200190600101906102b6565b505050509050935093509350935090919293565b5f805f805f8054905060056006805490506005935093509350935090919293565b828054828255905f5260205f2090810192821561037e579160200282015b8281111561037d578251825591602001919060010190610362565b5b50905061038b91906103e3565b5090565b6040518060a001604052806005905b606081526020019060019003908161039e5790505090565b6040518060a001604052806005905b6103cd6103fe565b8152602001906001900390816103c55790505090565b5b808211156103fa575f815f9055506001016103e4565b5090565b6040518060a00160405280600590602082028036833780820191505090505090565b5f80fd5b5f819050919050565b61043681610424565b8114610440575f80fd5b50565b5f813590506104518161042d565b92915050565b5f6020828403121561046c5761046b610420565b5b5f61047984828501610443565b91505092915050565b5f81519050919050565b5f82825260208201905092915050565b5f819050602082019050919050565b5f81519050919050565b5f82825260208201905092915050565b5f819050602082019050919050565b6104dd81610424565b82525050565b5f6104ee83836104d4565b60208301905092915050565b5f602082019050919050565b5f610510826104ab565b61051a81856104b5565b9350610525836104c5565b805f5b8381101561055557815161053c88826104e3565b9750610547836104fa565b925050600181019050610528565b5085935050505092915050565b5f61056d8383610506565b905092915050565b5f602082019050919050565b5f61058b82610482565b610595818561048c565b9350836020820285016105a78561049c565b805f5b858110156105e257848403895281516105c38582610562565b94506105ce83610575565b925060208a019950506001810190506105aa565b50829750879550505050505092915050565b5f60059050919050565b5f81905092915050565b5f819050919050565b5f602082019050919050565b5f610627826105f4565b61063181856105fe565b93508360208202850161064385610608565b805f5b8581101561067e578484038952815161065f8582610562565b945061066a83610611565b925060208a01995050600181019050610646565b50829750879550505050505092915050565b5f81519050919050565b5f82825260208201905092915050565b5f819050602082019050919050565b5f60059050919050565b5f81905092915050565b5f819050919050565b5f602082019050919050565b6106eb816106b9565b6106f581846106c3565b9250610700826106cd565b805f5b8381101561073057815161071787826104e3565b9650610722836106d6565b925050600181019050610703565b505050505050565b5f61074383836106e2565b60a08301905092915050565b5f602082019050919050565b5f61076582610690565b61076f818561069a565b935061077a836106aa565b805f5b838110156107aa5781516107918882610738565b975061079c8361074f565b92505060018101905061077d565b5085935050505092915050565b5f60059050919050565b5f81905092915050565b5f819050919050565b5f602082019050919050565b6107e9816107b7565b6107f381846107c1565b92506107fe826107cb565b805f5b8381101561082e5781516108158782610738565b9650610820836107d4565b925050600181019050610801565b505050505050565b5f610380820190508181035f83015261084f8187610581565b90508181036020830152610863818661061d565b90508181036040830152610877818561075b565b905061088660608301846107e0565b95945050505050565b61089881610424565b82525050565b5f6080820190506108b15f83018761088f565b6108be602083018661088f565b6108cb604083018561088f565b6108d8606083018461088f565b9594505050505056fea26469706673582212209a305929a78b63e9d0cf594d0c218042fc4ec1312b99c676e4d0b440f27688c364736f6c634300081a0033",
			"opcodes": "PUSH1 0x80 PUSH1 0x40 MSTORE CALLVALUE DUP1 ISZERO PUSH1 0xE JUMPI PUSH0 DUP1 REVERT JUMPDEST POP PUSH2 0x917 DUP1 PUSH2 0x1C PUSH0 CODECOPY PUSH0 RETURN INVALID PUSH1 0x80 PUSH1 0x40 MSTORE CALLVALUE DUP1 ISZERO PUSH2 0xF JUMPI PUSH0 DUP1 REVERT JUMPDEST POP PUSH1 0x4 CALLDATASIZE LT PUSH2 0x3F JUMPI PUSH0 CALLDATALOAD PUSH1 0xE0 SHR DUP1 PUSH4 0x2BFE1805 EQ PUSH2 0x43 JUMPI DUP1 PUSH4 0x89F915F6 EQ PUSH2 0x5F JUMPI DUP1 PUSH4 0xBE1C766B EQ PUSH2 0x80 JUMPI JUMPDEST PUSH0 DUP1 REVERT JUMPDEST PUSH2 0x5D PUSH1 0x4 DUP1 CALLDATASIZE SUB DUP2 ADD SWAP1 PUSH2 0x58 SWAP2 SWAP1 PUSH2 0x457 JUMP JUMPDEST PUSH2 0xA1 JUMP JUMPDEST STOP JUMPDEST PUSH2 0x67 PUSH2 0xE5 JUMP JUMPDEST PUSH1 0x40 MLOAD PUSH2 0x77 SWAP5 SWAP4 SWAP3 SWAP2 SWAP1 PUSH2 0x836 JUMP JUMPDEST PUSH1 0x40 MLOAD DUP1 SWAP2 SUB SWAP1 RETURN JUMPDEST PUSH2 0x88 PUSH2 0x323 JUMP JUMPDEST PUSH1 0x40 MLOAD PUSH2 0x98 SWAP5 SWAP4 SWAP3 SWAP2 SWAP1 PUSH2 0x89E JUMP JUMPDEST PUSH1 0x40 MLOAD DUP1 SWAP2 SUB SWAP1 RETURN JUMPDEST PUSH0 PUSH1 0x40 MLOAD DUP1 PUSH1 0x20 ADD PUSH1 0x40 MSTORE DUP1 DUP4 DUP2 MSTORE POP SWAP1 DUP1 PUSH1 0x1 DUP2 SLOAD ADD DUP1 DUP3 SSTORE DUP1 SWAP2 POP POP PUSH1 0x1 SWAP1 SUB SWAP1 PUSH0 MSTORE PUSH1 0x20 PUSH0 KECCAK256 ADD PUSH0 SWAP1 SWAP2 SWAP1 SWAP2 SWAP1 SWAP2 POP SWAP1 PUSH1 0x1 PUSH2 0xE1 SWAP3 SWAP2 SWAP1 PUSH2 0x344 JUMP JUMPDEST POP POP JUMP JUMPDEST PUSH1 0x60 PUSH2 0xEF PUSH2 0x38F JUMP JUMPDEST PUSH1 0x60 PUSH2 0xF9 PUSH2 0x3B6 JUMP JUMPDEST PUSH0 PUSH1 0x1 PUSH1 0x6 PUSH1 0x7 DUP4 DUP1 SLOAD DUP1 PUSH1 0x20 MUL PUSH1 0x20 ADD PUSH1 0x40 MLOAD SWAP1 DUP2 ADD PUSH1 0x40 MSTORE DUP1 SWAP3 SWAP2 SWAP1 DUP2 DUP2 MSTORE PUSH1 0x20 ADD PUSH0 SWAP1 JUMPDEST DUP3 DUP3 LT ISZERO PUSH2 0x18E JUMPI DUP4 DUP3 SWAP1 PUSH0 MSTORE PUSH1 0x20 PUSH0 KECCAK256 ADD DUP1 SLOAD DUP1 PUSH1 0x20 MUL PUSH1 0x20 ADD PUSH1 0x40 MLOAD SWAP1 DUP2 ADD PUSH1 0x40 MSTORE DUP1 SWAP3 SWAP2 SWAP1 DUP2 DUP2 MSTORE PUSH1 0x20 ADD DUP3 DUP1 SLOAD DUP1 ISZERO PUSH2 0x17A JUMPI PUSH1 0x20 MUL DUP3 ADD SWAP2 SWAP1 PUSH0 MSTORE PUSH1 0x20 PUSH0 KECCAK256 SWAP1 JUMPDEST DUP2 SLOAD DUP2 MSTORE PUSH1 0x20 ADD SWAP1 PUSH1 0x1 ADD SWAP1 DUP1 DUP4 GT PUSH2 0x166 JUMPI JUMPDEST POP POP POP POP POP DUP2 MSTORE PUSH1 0x20 ADD SWAP1 PUSH1 0x1 ADD SWAP1 PUSH2 0x120 JUMP JUMPDEST POP POP POP POP SWAP4 POP DUP3 PUSH1 0x5 DUP1 PUSH1 0x20 MUL PUSH1 0x40 MLOAD SWAP1 DUP2 ADD PUSH1 0x40 MSTORE DUP1 SWAP3 SWAP2 SWAP1 PUSH0 SWAP1 JUMPDEST DUP3 DUP3 LT ISZERO PUSH2 0x212 JUMPI DUP4 DUP3 ADD DUP1 SLOAD DUP1 PUSH1 0x20 MUL PUSH1 0x20 ADD PUSH1 0x40 MLOAD SWAP1 DUP2 ADD PUSH1 0x40 MSTORE DUP1 SWAP3 SWAP2 SWAP1 DUP2 DUP2 MSTORE PUSH1 0x20 ADD DUP3 DUP1 SLOAD DUP1 ISZERO PUSH2 0x1FE JUMPI PUSH1 0x20 MUL DUP3 ADD SWAP2 SWAP1 PUSH0 MSTORE PUSH1 0x20 PUSH0 KECCAK256 SWAP1 JUMPDEST DUP2 SLOAD DUP2 MSTORE PUSH1 0x20 ADD SWAP1 PUSH1 0x1 ADD SWAP1 DUP1 DUP4 GT PUSH2 0x1EA JUMPI JUMPDEST POP POP POP POP POP DUP2 MSTORE PUSH1 0x20 ADD SWAP1 PUSH1 0x1 ADD SWAP1 PUSH2 0x1AB JUMP JUMPDEST POP POP POP POP SWAP3 POP DUP2 DUP1 SLOAD DUP1 PUSH1 0x20 MUL PUSH1 0x20 ADD PUSH1 0x40 MLOAD SWAP1 DUP2 ADD PUSH1 0x40 MSTORE DUP1 SWAP3 SWAP2 SWAP1 DUP2 DUP2 MSTORE PUSH1 0x20 ADD PUSH0 SWAP1 JUMPDEST DUP3 DUP3 LT ISZERO PUSH2 0x299 JUMPI DUP4 DUP3 SWAP1 PUSH0 MSTORE PUSH1 0x20 PUSH0 KECCAK256 SWAP1 PUSH1 0x5 MUL ADD PUSH1 0x5 DUP1 PUSH1 0x20 MUL PUSH1 0x40 MLOAD SWAP1 DUP2 ADD PUSH1 0x40 MSTORE DUP1 SWAP3 SWAP2 SWAP1 DUP3 PUSH1 0x5 DUP1 ISZERO PUSH2 0x285 JUMPI PUSH1 0x20 MUL DUP3 ADD SWAP2 JUMPDEST DUP2 SLOAD DUP2 MSTORE PUSH1 0x20 ADD SWAP1 PUSH1 0x1 ADD SWAP1 DUP1 DUP4 GT PUSH2 0x271 JUMPI JUMPDEST POP POP POP POP POP DUP2 MSTORE PUSH1 0x20 ADD SWAP1 PUSH1 0x1 ADD SWAP1 PUSH2 0x238 JUMP JUMPDEST POP POP POP POP SWAP2 POP DUP1 PUSH1 0x5 DUP1 PUSH1 0x20 MUL PUSH1 0x40 MLOAD SWAP1 DUP2 ADD PUSH1 0x40 MSTORE DUP1 SWAP3 SWAP2 SWAP1 PUSH0 SWAP1 JUMPDEST DUP3 DUP3 LT ISZERO PUSH2 0x30F JUMPI DUP4 DUP3 PUSH1 0x5 MUL ADD PUSH1 0x5 DUP1 PUSH1 0x20 MUL PUSH1 0x40 MLOAD SWAP1 DUP2 ADD PUSH1 0x40 MSTORE DUP1 SWAP3 SWAP2 SWAP1 DUP3 PUSH1 0x5 DUP1 ISZERO PUSH2 0x2FB JUMPI PUSH1 0x20 MUL DUP3 ADD SWAP2 JUMPDEST DUP2 SLOAD DUP2 MSTORE PUSH1 0x20 ADD SWAP1 PUSH1 0x1 ADD SWAP1 DUP1 DUP4 GT PUSH2 0x2E7 JUMPI JUMPDEST POP POP POP POP POP DUP2 MSTORE PUSH1 0x20 ADD SWAP1 PUSH1 0x1 ADD SWAP1 PUSH2 0x2B6 JUMP JUMPDEST POP POP POP POP SWAP1 POP SWAP4 POP SWAP4 POP SWAP4 POP SWAP4 POP SWAP1 SWAP2 SWAP3 SWAP4 JUMP JUMPDEST PUSH0 DUP1 PUSH0 DUP1 PUSH0 DUP1 SLOAD SWAP1 POP PUSH1 0x5 PUSH1 0x6 DUP1 SLOAD SWAP1 POP PUSH1 0x5 SWAP4 POP SWAP4 POP SWAP4 POP SWAP4 POP SWAP1 SWAP2 SWAP3 SWAP4 JUMP JUMPDEST DUP3 DUP1 SLOAD DUP3 DUP3 SSTORE SWAP1 PUSH0 MSTORE PUSH1 0x20 PUSH0 KECCAK256 SWAP1 DUP2 ADD SWAP3 DUP3 ISZERO PUSH2 0x37E JUMPI SWAP2 PUSH1 0x20 MUL DUP3 ADD JUMPDEST DUP3 DUP2 GT ISZERO PUSH2 0x37D JUMPI DUP3 MLOAD DUP3 SSTORE SWAP2 PUSH1 0x20 ADD SWAP2 SWAP1 PUSH1 0x1 ADD SWAP1 PUSH2 0x362 JUMP JUMPDEST JUMPDEST POP SWAP1 POP PUSH2 0x38B SWAP2 SWAP1 PUSH2 0x3E3 JUMP JUMPDEST POP SWAP1 JUMP JUMPDEST PUSH1 0x40 MLOAD DUP1 PUSH1 0xA0 ADD PUSH1 0x40 MSTORE DUP1 PUSH1 0x5 SWAP1 JUMPDEST PUSH1 0x60 DUP2 MSTORE PUSH1 0x20 ADD SWAP1 PUSH1 0x1 SWAP1 SUB SWAP1 DUP2 PUSH2 0x39E JUMPI SWAP1 POP POP SWAP1 JUMP JUMPDEST PUSH1 0x40 MLOAD DUP1 PUSH1 0xA0 ADD PUSH1 0x40 MSTORE DUP1 PUSH1 0x5 SWAP1 JUMPDEST PUSH2 0x3CD PUSH2 0x3FE JUMP JUMPDEST DUP2 MSTORE PUSH1 0x20 ADD SWAP1 PUSH1 0x1 SWAP1 SUB SWAP1 DUP2 PUSH2 0x3C5 JUMPI SWAP1 POP POP SWAP1 JUMP JUMPDEST JUMPDEST DUP1 DUP3 GT ISZERO PUSH2 0x3FA JUMPI PUSH0 DUP2 PUSH0 SWAP1 SSTORE POP PUSH1 0x1 ADD PUSH2 0x3E4 JUMP JUMPDEST POP SWAP1 JUMP JUMPDEST PUSH1 0x40 MLOAD DUP1 PUSH1 0xA0 ADD PUSH1 0x40 MSTORE DUP1 PUSH1 0x5 SWAP1 PUSH1 0x20 DUP3 MUL DUP1 CALLDATASIZE DUP4 CALLDATACOPY DUP1 DUP3 ADD SWAP2 POP POP SWAP1 POP POP SWAP1 JUMP JUMPDEST PUSH0 DUP1 REVERT JUMPDEST PUSH0 DUP2 SWAP1 POP SWAP2 SWAP1 POP JUMP JUMPDEST PUSH2 0x436 DUP2 PUSH2 0x424 JUMP JUMPDEST DUP2 EQ PUSH2 0x440 JUMPI PUSH0 DUP1 REVERT JUMPDEST POP JUMP JUMPDEST PUSH0 DUP2 CALLDATALOAD SWAP1 POP PUSH2 0x451 DUP2 PUSH2 0x42D JUMP JUMPDEST SWAP3 SWAP2 POP POP JUMP JUMPDEST PUSH0 PUSH1 0x20 DUP3 DUP5 SUB SLT ISZERO PUSH2 0x46C JUMPI PUSH2 0x46B PUSH2 0x420 JUMP JUMPDEST JUMPDEST PUSH0 PUSH2 0x479 DUP5 DUP3 DUP6 ADD PUSH2 0x443 JUMP JUMPDEST SWAP2 POP POP SWAP3 SWAP2 POP POP JUMP JUMPDEST PUSH0 DUP2 MLOAD SWAP1 POP SWAP2 SWAP1 POP JUMP JUMPDEST PUSH0 DUP3 DUP3 MSTORE PUSH1 0x20 DUP3 ADD SWAP1 POP SWAP3 SWAP2 POP POP JUMP JUMPDEST PUSH0 DUP2 SWAP1 POP PUSH1 0x20 DUP3 ADD SWAP1 POP SWAP2 SWAP1 POP JUMP JUMPDEST PUSH0 DUP2 MLOAD SWAP1 POP SWAP2 SWAP1 POP JUMP JUMPDEST PUSH0 DUP3 DUP3 MSTORE PUSH1 0x20 DUP3 ADD SWAP1 POP SWAP3 SWAP2 POP POP JUMP JUMPDEST PUSH0 DUP2 SWAP1 POP PUSH1 0x20 DUP3 ADD SWAP1 POP SWAP2 SWAP1 POP JUMP JUMPDEST PUSH2 0x4DD DUP2 PUSH2 0x424 JUMP JUMPDEST DUP3 MSTORE POP POP JUMP JUMPDEST PUSH0 PUSH2 0x4EE DUP4 DUP4 PUSH2 0x4D4 JUMP JUMPDEST PUSH1 0x20 DUP4 ADD SWAP1 POP SWAP3 SWAP2 POP POP JUMP JUMPDEST PUSH0 PUSH1 0x20 DUP3 ADD SWAP1 POP SWAP2 SWAP1 POP JUMP JUMPDEST PUSH0 PUSH2 0x510 DUP3 PUSH2 0x4AB JUMP JUMPDEST PUSH2 0x51A DUP2 DUP6 PUSH2 0x4B5 JUMP JUMPDEST SWAP4 POP PUSH2 0x525 DUP4 PUSH2 0x4C5 JUMP JUMPDEST DUP1 PUSH0 JUMPDEST DUP4 DUP2 LT ISZERO PUSH2 0x555 JUMPI DUP2 MLOAD PUSH2 0x53C DUP9 DUP3 PUSH2 0x4E3 JUMP JUMPDEST SWAP8 POP PUSH2 0x547 DUP4 PUSH2 0x4FA JUMP JUMPDEST SWAP3 POP POP PUSH1 0x1 DUP2 ADD SWAP1 POP PUSH2 0x528 JUMP JUMPDEST POP DUP6 SWAP4 POP POP POP POP SWAP3 SWAP2 POP POP JUMP JUMPDEST PUSH0 PUSH2 0x56D DUP4 DUP4 PUSH2 0x506 JUMP JUMPDEST SWAP1 POP SWAP3 SWAP2 POP POP JUMP JUMPDEST PUSH0 PUSH1 0x20 DUP3 ADD SWAP1 POP SWAP2 SWAP1 POP JUMP JUMPDEST PUSH0 PUSH2 0x58B DUP3 PUSH2 0x482 JUMP JUMPDEST PUSH2 0x595 DUP2 DUP6 PUSH2 0x48C JUMP JUMPDEST SWAP4 POP DUP4 PUSH1 0x20 DUP3 MUL DUP6 ADD PUSH2 0x5A7 DUP6 PUSH2 0x49C JUMP JUMPDEST DUP1 PUSH0 JUMPDEST DUP6 DUP2 LT ISZERO PUSH2 0x5E2 JUMPI DUP5 DUP5 SUB DUP10 MSTORE DUP2 MLOAD PUSH2 0x5C3 DUP6 DUP3 PUSH2 0x562 JUMP JUMPDEST SWAP5 POP PUSH2 0x5CE DUP4 PUSH2 0x575 JUMP JUMPDEST SWAP3 POP PUSH1 0x20 DUP11 ADD SWAP10 POP POP PUSH1 0x1 DUP2 ADD SWAP1 POP PUSH2 0x5AA JUMP JUMPDEST POP DUP3 SWAP8 POP DUP8 SWAP6 POP POP POP POP POP POP SWAP3 SWAP2 POP POP JUMP JUMPDEST PUSH0 PUSH1 0x5 SWAP1 POP SWAP2 SWAP1 POP JUMP JUMPDEST PUSH0 DUP2 SWAP1 POP SWAP3 SWAP2 POP POP JUMP JUMPDEST PUSH0 DUP2 SWAP1 POP SWAP2 SWAP1 POP JUMP JUMPDEST PUSH0 PUSH1 0x20 DUP3 ADD SWAP1 POP SWAP2 SWAP1 POP JUMP JUMPDEST PUSH0 PUSH2 0x627 DUP3 PUSH2 0x5F4 JUMP JUMPDEST PUSH2 0x631 DUP2 DUP6 PUSH2 0x5FE JUMP JUMPDEST SWAP4 POP DUP4 PUSH1 0x20 DUP3 MUL DUP6 ADD PUSH2 0x643 DUP6 PUSH2 0x608 JUMP JUMPDEST DUP1 PUSH0 JUMPDEST DUP6 DUP2 LT ISZERO PUSH2 0x67E JUMPI DUP5 DUP5 SUB DUP10 MSTORE DUP2 MLOAD PUSH2 0x65F DUP6 DUP3 PUSH2 0x562 JUMP JUMPDEST SWAP5 POP PUSH2 0x66A DUP4 PUSH2 0x611 JUMP JUMPDEST SWAP3 POP PUSH1 0x20 DUP11 ADD SWAP10 POP POP PUSH1 0x1 DUP2 ADD SWAP1 POP PUSH2 0x646 JUMP JUMPDEST POP DUP3 SWAP8 POP DUP8 SWAP6 POP POP POP POP POP POP SWAP3 SWAP2 POP POP JUMP JUMPDEST PUSH0 DUP2 MLOAD SWAP1 POP SWAP2 SWAP1 POP JUMP JUMPDEST PUSH0 DUP3 DUP3 MSTORE PUSH1 0x20 DUP3 ADD SWAP1 POP SWAP3 SWAP2 POP POP JUMP JUMPDEST PUSH0 DUP2 SWAP1 POP PUSH1 0x20 DUP3 ADD SWAP1 POP SWAP2 SWAP1 POP JUMP JUMPDEST PUSH0 PUSH1 0x5 SWAP1 POP SWAP2 SWAP1 POP JUMP JUMPDEST PUSH0 DUP2 SWAP1 POP SWAP3 SWAP2 POP POP JUMP JUMPDEST PUSH0 DUP2 SWAP1 POP SWAP2 SWAP1 POP JUMP JUMPDEST PUSH0 PUSH1 0x20 DUP3 ADD SWAP1 POP SWAP2 SWAP1 POP JUMP JUMPDEST PUSH2 0x6EB DUP2 PUSH2 0x6B9 JUMP JUMPDEST PUSH2 0x6F5 DUP2 DUP5 PUSH2 0x6C3 JUMP JUMPDEST SWAP3 POP PUSH2 0x700 DUP3 PUSH2 0x6CD JUMP JUMPDEST DUP1 PUSH0 JUMPDEST DUP4 DUP2 LT ISZERO PUSH2 0x730 JUMPI DUP2 MLOAD PUSH2 0x717 DUP8 DUP3 PUSH2 0x4E3 JUMP JUMPDEST SWAP7 POP PUSH2 0x722 DUP4 PUSH2 0x6D6 JUMP JUMPDEST SWAP3 POP POP PUSH1 0x1 DUP2 ADD SWAP1 POP PUSH2 0x703 JUMP JUMPDEST POP POP POP POP POP POP JUMP JUMPDEST PUSH0 PUSH2 0x743 DUP4 DUP4 PUSH2 0x6E2 JUMP JUMPDEST PUSH1 0xA0 DUP4 ADD SWAP1 POP SWAP3 SWAP2 POP POP JUMP JUMPDEST PUSH0 PUSH1 0x20 DUP3 ADD SWAP1 POP SWAP2 SWAP1 POP JUMP JUMPDEST PUSH0 PUSH2 0x765 DUP3 PUSH2 0x690 JUMP JUMPDEST PUSH2 0x76F DUP2 DUP6 PUSH2 0x69A JUMP JUMPDEST SWAP4 POP PUSH2 0x77A DUP4 PUSH2 0x6AA JUMP JUMPDEST DUP1 PUSH0 JUMPDEST DUP4 DUP2 LT ISZERO PUSH2 0x7AA JUMPI DUP2 MLOAD PUSH2 0x791 DUP9 DUP3 PUSH2 0x738 JUMP JUMPDEST SWAP8 POP PUSH2 0x79C DUP4 PUSH2 0x74F JUMP JUMPDEST SWAP3 POP POP PUSH1 0x1 DUP2 ADD SWAP1 POP PUSH2 0x77D JUMP JUMPDEST POP DUP6 SWAP4 POP POP POP POP SWAP3 SWAP2 POP POP JUMP JUMPDEST PUSH0 PUSH1 0x5 SWAP1 POP SWAP2 SWAP1 POP JUMP JUMPDEST PUSH0 DUP2 SWAP1 POP SWAP3 SWAP2 POP POP JUMP JUMPDEST PUSH0 DUP2 SWAP1 POP SWAP2 SWAP1 POP JUMP JUMPDEST PUSH0 PUSH1 0x20 DUP3 ADD SWAP1 POP SWAP2 SWAP1 POP JUMP JUMPDEST PUSH2 0x7E9 DUP2 PUSH2 0x7B7 JUMP JUMPDEST PUSH2 0x7F3 DUP2 DUP5 PUSH2 0x7C1 JUMP JUMPDEST SWAP3 POP PUSH2 0x7FE DUP3 PUSH2 0x7CB JUMP JUMPDEST DUP1 PUSH0 JUMPDEST DUP4 DUP2 LT ISZERO PUSH2 0x82E JUMPI DUP2 MLOAD PUSH2 0x815 DUP8 DUP3 PUSH2 0x738 JUMP JUMPDEST SWAP7 POP PUSH2 0x820 DUP4 PUSH2 0x7D4 JUMP JUMPDEST SWAP3 POP POP PUSH1 0x1 DUP2 ADD SWAP1 POP PUSH2 0x801 JUMP JUMPDEST POP POP POP POP POP POP JUMP JUMPDEST PUSH0 PUSH2 0x380 DUP3 ADD SWAP1 POP DUP2 DUP2 SUB PUSH0 DUP4 ADD MSTORE PUSH2 0x84F DUP2 DUP8 PUSH2 0x581 JUMP JUMPDEST SWAP1 POP DUP2 DUP2 SUB PUSH1 0x20 DUP4 ADD MSTORE PUSH2 0x863 DUP2 DUP7 PUSH2 0x61D JUMP JUMPDEST SWAP1 POP DUP2 DUP2 SUB PUSH1 0x40 DUP4 ADD MSTORE PUSH2 0x877 DUP2 DUP6 PUSH2 0x75B JUMP JUMPDEST SWAP1 POP PUSH2 0x886 PUSH1 0x60 DUP4 ADD DUP5 PUSH2 0x7E0 JUMP JUMPDEST SWAP6 SWAP5 POP POP POP POP POP JUMP JUMPDEST PUSH2 0x898 DUP2 PUSH2 0x424 JUMP JUMPDEST DUP3 MSTORE POP POP JUMP JUMPDEST PUSH0 PUSH1 0x80 DUP3 ADD SWAP1 POP PUSH2 0x8B1 PUSH0 DUP4 ADD DUP8 PUSH2 0x88F JUMP JUMPDEST PUSH2 0x8BE PUSH1 0x20 DUP4 ADD DUP7 PUSH2 0x88F JUMP JUMPDEST PUSH2 0x8CB PUSH1 0x40 DUP4 ADD DUP6 PUSH2 0x88F JUMP JUMPDEST PUSH2 0x8D8 PUSH1 0x60 DUP4 ADD DUP5 PUSH2 0x88F JUMP JUMPDEST SWAP6 SWAP5 POP POP POP POP POP JUMP INVALID LOG2 PUSH5 0x6970667358 0x22 SLT KECCAK256 SWAP11 ADDRESS MSIZE 0x29 0xA7 DUP12 PUSH4 0xE9D0CF59 0x4D 0xC 0x21 DUP1 TIMESTAMP 0xFC 0x4E 0xC1 BALANCE 0x2B SWAP10 0xC6 PUSH23 0xE4D0B440F27688C364736F6C634300081A003300000000 "
		},
		"gasEstimates": {
			"creation": {
				"codeDepositCost": "465400",
				"executionCost": "497",
				"totalCost": "465897"
			},
			"external": {
				"getLength()": "infinite",
				"getNumbers()": "infinite",
				"pushNumber(uint256)": "infinite"
			}
		},
		"methodIdentifiers": {
			"getLength()": "be1c766b",
			"getNumbers()": "89f915f6",
			"pushNumber(uint256)": "2bfe1805"
		}
	},
	"abi": [
		{
			"inputs": [],
			"name": "getLength",
			"outputs": [
				{
					"internalType": "uint256",
					"name": "",
					"type": "uint256"
				},
				{
					"internalType": "uint256",
					"name": "",
					"type": "uint256"
				},
				{
					"internalType": "uint256",
					"name": "",
					"type": "uint256"
				},
				{
					"internalType": "uint256",
					"name": "",
					"type": "uint256"
				}
			],
			"stateMutability": "view",
			"type": "function"
		},
		{
			"inputs": [],
			"name": "getNumbers",
			"outputs": [
				{
					"internalType": "uint256[][]",
					"name": "",
					"type": "uint256[][]"
				},
				{
					"internalType": "uint256[][5]",
					"name": "",
					"type": "uint256[][5]"
				},
				{
					"internalType": "uint256[5][]",
					"name": "",
					"type": "uint256[5][]"
				},
				{
					"internalType": "uint256[5][5]",
					"name": "",
					"type": "uint256[5][5]"
				}
			],
			"stateMutability": "view",
			"type": "function"
		},
		{
			"inputs": [
				{
					"internalType": "uint256",
					"name": "_n",
					"type": "uint256"
				}
			],
			"name": "pushNumber",
			"outputs": [],
			"stateMutability": "nonpayable",
			"type": "function"
		}
	]
}