{
	"data": {
		"bytecode": {
			"linkReferences": {},
			"object": "6080604052348015600e575f80fd5b506106c08061001c5f395ff3fe608060405234801561000f575f80fd5b5060043610610060575f3560e01c80632e4c697f14610064578063771602f714610094578063a391c15b146100c4578063b67d77c5146100f5578063c8a4ac9c14610125578063ef3eeaba14610155575b5f80fd5b61007e6004803603810190610079919061024a565b610185565b60405161008b9190610297565b60405180910390f35b6100ae60048036038101906100a9919061024a565b61019a565b6040516100bb9190610297565b60405180910390f35b6100de60048036038101906100d9919061024a565b6101af565b6040516100ec9291906102b0565b60405180910390f35b61010f600480360381019061010a919061024a565b6101d4565b60405161011c9190610297565b60405180910390f35b61013f600480360381019061013a919061024a565b6101e9565b60405161014c9190610297565b60405180910390f35b61016f600480360381019061016a919061030a565b6101fe565b60405161017c9190610357565b60405180910390f35b5f818361019291906104cc565b905092915050565b5f81836101a79190610516565b905092915050565b5f8082846101bd9190610576565b83856101c991906105a6565b915091509250929050565b5f81836101e191906105d6565b905092915050565b5f81836101f69190610609565b905092915050565b5f818361020b919061064a565b905092915050565b5f80fd5b5f819050919050565b61022981610217565b8114610233575f80fd5b50565b5f8135905061024481610220565b92915050565b5f80604083850312156102605761025f610213565b5b5f61026d85828601610236565b925050602061027e85828601610236565b9150509250929050565b61029181610217565b82525050565b5f6020820190506102aa5f830184610288565b92915050565b5f6040820190506102c35f830185610288565b6102d06020830184610288565b9392505050565b5f819050919050565b6102e9816102d7565b81146102f3575f80fd5b50565b5f81359050610304816102e0565b92915050565b5f80604083850312156103205761031f610213565b5b5f61032d858286016102f6565b925050602061033e858286016102f6565b9150509250929050565b610351816102d7565b82525050565b5f60208201905061036a5f830184610348565b92915050565b7f4e487b71000000000000000000000000000000000000000000000000000000005f52601160045260245ffd5b5f8160011c9050919050565b5f808291508390505b60018511156103f2578086048111156103ce576103cd610370565b5b60018516156103dd5780820291505b80810290506103eb8561039d565b94506103b2565b94509492505050565b5f8261040a57600190506104c5565b81610417575f90506104c5565b816001811461042d576002811461043757610466565b60019150506104c5565b60ff84111561044957610448610370565b5b8360020a9150848211156104605761045f610370565b5b506104c5565b5060208310610133831016604e8410600b841016171561049b5782820a90508381111561049657610495610370565b5b6104c5565b6104a884848460016103a9565b925090508184048111156104bf576104be610370565b5b81810290505b9392505050565b5f6104d682610217565b91506104e183610217565b925061050e7fffffffffffffffffffffffffffffffffffffffffffffffffffffffffffffffff84846103fb565b905092915050565b5f61052082610217565b915061052b83610217565b925082820190508082111561054357610542610370565b5b92915050565b7f4e487b71000000000000000000000000000000000000000000000000000000005f52601260045260245ffd5b5f61058082610217565b915061058b83610217565b92508261059b5761059a610549565b5b828204905092915050565b5f6105b082610217565b91506105bb83610217565b9250826105cb576105ca610549565b5b828206905092915050565b5f6105e082610217565b91506105eb83610217565b925082820390508181111561060357610602610370565b5b92915050565b5f61061382610217565b915061061e83610217565b925082820261062c81610217565b9150828204841483151761064357610642610370565b5b5092915050565b5f610654826102d7565b915061065f836102d7565b925082820390508181125f8412168282135f85121516171561068457610683610370565b5b9291505056fea2646970667358221220bad14516e753ed81c8678a07bab8420031e6e0ac6548733abe33bc7ce15a6ac164736f6c634300081a0033",
			"opcodes": "PUSH1 0x80 PUSH1 0x40 MSTORE CALLVALUE DUP1 ISZERO PUSH1 0xE JUMPI PUSH0 DUP1 REVERT JUMPDEST POP PUSH2 0x6C0 DUP1 PUSH2 0x1C PUSH0 CODECOPY PUSH0 RETURN INVALID PUSH1 0x80 PUSH1 0x40 MSTORE CALLVALUE DUP1 ISZERO PUSH2 0xF JUMPI PUSH0 DUP1 REVERT JUMPDEST POP PUSH1 0x4 CALLDATASIZE LT PUSH2 0x60 JUMPI PUSH0 CALLDATALOAD PUSH1 0xE0 SHR DUP1 PUSH4 0x2E4C697F EQ PUSH2 0x64 JUMPI DUP1 PUSH4 0x771602F7 EQ PUSH2 0x94 JUMPI DUP1 PUSH4 0xA391C15B EQ PUSH2 0xC4 JUMPI DUP1 PUSH4 0xB67D77C5 EQ PUSH2 0xF5 JUMPI DUP1 PUSH4 0xC8A4AC9C EQ PUSH2 0x125 JUMPI DUP1 PUSH4 0xEF3EEABA EQ PUSH2 0x155 JUMPI JUMPDEST PUSH0 DUP1 REVERT JUMPDEST PUSH2 0x7E PUSH1 0x4 DUP1 CALLDATASIZE SUB DUP2 ADD SWAP1 PUSH2 0x79 SWAP2 SWAP1 PUSH2 0x24A JUMP JUMPDEST PUSH2 0x185 JUMP JUMPDEST PUSH1 0x40 MLOAD PUSH2 0x8B SWAP2 SWAP1 PUSH2 0x297 JUMP JUMPDEST PUSH1 0x40 MLOAD DUP1 SWAP2 SUB SWAP1 RETURN JUMPDEST PUSH2 0xAE PUSH1 0x4 DUP1 CALLDATASIZE SUB DUP2 ADD SWAP1 PUSH2 0xA9 SWAP2 SWAP1 PUSH2 0x24A JUMP JUMPDEST PUSH2 0x19A JUMP JUMPDEST PUSH1 0x40 MLOAD PUSH2 0xBB SWAP2 SWAP1 PUSH2 0x297 JUMP JUMPDEST PUSH1 0x40 MLOAD DUP1 SWAP2 SUB SWAP1 RETURN JUMPDEST PUSH2 0xDE PUSH1 0x4 DUP1 CALLDATASIZE SUB DUP2 ADD SWAP1 PUSH2 0xD9 SWAP2 SWAP1 PUSH2 0x24A JUMP JUMPDEST PUSH2 0x1AF JUMP JUMPDEST PUSH1 0x40 MLOAD PUSH2 0xEC SWAP3 SWAP2 SWAP1 PUSH2 0x2B0 JUMP JUMPDEST PUSH1 0x40 MLOAD DUP1 SWAP2 SUB SWAP1 RETURN JUMPDEST PUSH2 0x10F PUSH1 0x4 DUP1 CALLDATASIZE SUB DUP2 ADD SWAP1 PUSH2 0x10A SWAP2 SWAP1 PUSH2 0x24A JUMP JUMPDEST PUSH2 0x1D4 JUMP JUMPDEST PUSH1 0x40 MLOAD PUSH2 0x11C SWAP2 SWAP1 PUSH2 0x297 JUMP JUMPDEST PUSH1 0x40 MLOAD DUP1 SWAP2 SUB SWAP1 RETURN JUMPDEST PUSH2 0x13F PUSH1 0x4 DUP1 CALLDATASIZE SUB DUP2 ADD SWAP1 PUSH2 0x13A SWAP2 SWAP1 PUSH2 0x24A JUMP JUMPDEST PUSH2 0x1E9 JUMP JUMPDEST PUSH1 0x40 MLOAD PUSH2 0x14C SWAP2 SWAP1 PUSH2 0x297 JUMP JUMPDEST PUSH1 0x40 MLOAD DUP1 SWAP2 SUB SWAP1 RETURN JUMPDEST PUSH2 0x16F PUSH1 0x4 DUP1 CALLDATASIZE SUB DUP2 ADD SWAP1 PUSH2 0x16A SWAP2 SWAP1 PUSH2 0x30A JUMP JUMPDEST PUSH2 0x1FE JUMP JUMPDEST PUSH1 0x40 MLOAD PUSH2 0x17C SWAP2 SWAP1 PUSH2 0x357 JUMP JUMPDEST PUSH1 0x40 MLOAD DUP1 SWAP2 SUB SWAP1 RETURN JUMPDEST PUSH0 DUP2 DUP4 PUSH2 0x192 SWAP2 SWAP1 PUSH2 0x4CC JUMP JUMPDEST SWAP1 POP SWAP3 SWAP2 POP POP JUMP JUMPDEST PUSH0 DUP2 DUP4 PUSH2 0x1A7 SWAP2 SWAP1 PUSH2 0x516 JUMP JUMPDEST SWAP1 POP SWAP3 SWAP2 POP POP JUMP JUMPDEST PUSH0 DUP1 DUP3 DUP5 PUSH2 0x1BD SWAP2 SWAP1 PUSH2 0x576 JUMP JUMPDEST DUP4 DUP6 PUSH2 0x1C9 SWAP2 SWAP1 PUSH2 0x5A6 JUMP JUMPDEST SWAP2 POP SWAP2 POP SWAP3 POP SWAP3 SWAP1 POP JUMP JUMPDEST PUSH0 DUP2 DUP4 PUSH2 0x1E1 SWAP2 SWAP1 PUSH2 0x5D6 JUMP JUMPDEST SWAP1 POP SWAP3 SWAP2 POP POP JUMP JUMPDEST PUSH0 DUP2 DUP4 PUSH2 0x1F6 SWAP2 SWAP1 PUSH2 0x609 JUMP JUMPDEST SWAP1 POP SWAP3 SWAP2 POP POP JUMP JUMPDEST PUSH0 DUP2 DUP4 PUSH2 0x20B SWAP2 SWAP1 PUSH2 0x64A JUMP JUMPDEST SWAP1 POP SWAP3 SWAP2 POP POP JUMP JUMPDEST PUSH0 DUP1 REVERT JUMPDEST PUSH0 DUP2 SWAP1 POP SWAP2 SWAP1 POP JUMP JUMPDEST PUSH2 0x229 DUP2 PUSH2 0x217 JUMP JUMPDEST DUP2 EQ PUSH2 0x233 JUMPI PUSH0 DUP1 REVERT JUMPDEST POP JUMP JUMPDEST PUSH0 DUP2 CALLDATALOAD SWAP1 POP PUSH2 0x244 DUP2 PUSH2 0x220 JUMP JUMPDEST SWAP3 SWAP2 POP POP JUMP JUMPDEST PUSH0 DUP1 PUSH1 0x40 DUP4 DUP6 SUB SLT ISZERO PUSH2 0x260 JUMPI PUSH2 0x25F PUSH2 0x213 JUMP JUMPDEST JUMPDEST PUSH0 PUSH2 0x26D DUP6 DUP3 DUP7 ADD PUSH2 0x236 JUMP JUMPDEST SWAP3 POP POP PUSH1 0x20 PUSH2 0x27E DUP6 DUP3 DUP7 ADD PUSH2 0x236 JUMP JUMPDEST SWAP2 POP POP SWAP3 POP SWAP3 SWAP1 POP JUMP JUMPDEST PUSH2 0x291 DUP2 PUSH2 0x217 JUMP JUMPDEST DUP3 MSTORE POP POP JUMP JUMPDEST PUSH0 PUSH1 0x20 DUP3 ADD SWAP1 POP PUSH2 0x2AA PUSH0 DUP4 ADD DUP5 PUSH2 0x288 JUMP JUMPDEST SWAP3 SWAP2 POP POP JUMP JUMPDEST PUSH0 PUSH1 0x40 DUP3 ADD SWAP1 POP PUSH2 0x2C3 PUSH0 DUP4 ADD DUP6 PUSH2 0x288 JUMP JUMPDEST PUSH2 0x2D0 PUSH1 0x20 DUP4 ADD DUP5 PUSH2 0x288 JUMP JUMPDEST SWAP4 SWAP3 POP POP POP JUMP JUMPDEST PUSH0 DUP2 SWAP1 POP SWAP2 SWAP1 POP JUMP JUMPDEST PUSH2 0x2E9 DUP2 PUSH2 0x2D7 JUMP JUMPDEST DUP2 EQ PUSH2 0x2F3 JUMPI PUSH0 DUP1 REVERT JUMPDEST POP JUMP JUMPDEST PUSH0 DUP2 CALLDATALOAD SWAP1 POP PUSH2 0x304 DUP2 PUSH2 0x2E0 JUMP JUMPDEST SWAP3 SWAP2 POP POP JUMP JUMPDEST PUSH0 DUP1 PUSH1 0x40 DUP4 DUP6 SUB SLT ISZERO PUSH2 0x320 JUMPI PUSH2 0x31F PUSH2 0x213 JUMP JUMPDEST JUMPDEST PUSH0 PUSH2 0x32D DUP6 DUP3 DUP7 ADD PUSH2 0x2F6 JUMP JUMPDEST SWAP3 POP POP PUSH1 0x20 PUSH2 0x33E DUP6 DUP3 DUP7 ADD PUSH2 0x2F6 JUMP JUMPDEST SWAP2 POP POP SWAP3 POP SWAP3 SWAP1 POP JUMP JUMPDEST PUSH2 0x351 DUP2 PUSH2 0x2D7 JUMP JUMPDEST DUP3 MSTORE POP POP JUMP JUMPDEST PUSH0 PUSH1 0x20 DUP3 ADD SWAP1 POP PUSH2 0x36A PUSH0 DUP4 ADD DUP5 PUSH2 0x348 JUMP JUMPDEST SWAP3 SWAP2 POP POP JUMP JUMPDEST PUSH32 0x4E487B7100000000000000000000000000000000000000000000000000000000 PUSH0 MSTORE PUSH1 0x11 PUSH1 0x4 MSTORE PUSH1 0x24 PUSH0 REVERT JUMPDEST PUSH0 DUP2 PUSH1 0x1 SHR SWAP1 POP SWAP2 SWAP1 POP JUMP JUMPDEST PUSH0 DUP1 DUP3 SWAP2 POP DUP4 SWAP1 POP JUMPDEST PUSH1 0x1 DUP6 GT ISZERO PUSH2 0x3F2 JUMPI DUP1 DUP7 DIV DUP2 GT ISZERO PUSH2 0x3CE JUMPI PUSH2 0x3CD PUSH2 0x370 JUMP JUMPDEST JUMPDEST PUSH1 0x1 DUP6 AND ISZERO PUSH2 0x3DD JUMPI DUP1 DUP3 MUL SWAP2 POP JUMPDEST DUP1 DUP2 MUL SWAP1 POP PUSH2 0x3EB DUP6 PUSH2 0x39D JUMP JUMPDEST SWAP5 POP PUSH2 0x3B2 JUMP JUMPDEST SWAP5 POP SWAP5 SWAP3 POP POP POP JUMP JUMPDEST PUSH0 DUP3 PUSH2 0x40A JUMPI PUSH1 0x1 SWAP1 POP PUSH2 0x4C5 JUMP JUMPDEST DUP2 PUSH2 0x417 JUMPI PUSH0 SWAP1 POP PUSH2 0x4C5 JUMP JUMPDEST DUP2 PUSH1 0x1 DUP2 EQ PUSH2 0x42D JUMPI PUSH1 0x2 DUP2 EQ PUSH2 0x437 JUMPI PUSH2 0x466 JUMP JUMPDEST PUSH1 0x1 SWAP2 POP POP PUSH2 0x4C5 JUMP JUMPDEST PUSH1 0xFF DUP5 GT ISZERO PUSH2 0x449 JUMPI PUSH2 0x448 PUSH2 0x370 JUMP JUMPDEST JUMPDEST DUP4 PUSH1 0x2 EXP SWAP2 POP DUP5 DUP3 GT ISZERO PUSH2 0x460 JUMPI PUSH2 0x45F PUSH2 0x370 JUMP JUMPDEST JUMPDEST POP PUSH2 0x4C5 JUMP JUMPDEST POP PUSH1 0x20 DUP4 LT PUSH2 0x133 DUP4 LT AND PUSH1 0x4E DUP5 LT PUSH1 0xB DUP5 LT AND OR ISZERO PUSH2 0x49B JUMPI DUP3 DUP3 EXP SWAP1 POP DUP4 DUP2 GT ISZERO PUSH2 0x496 JUMPI PUSH2 0x495 PUSH2 0x370 JUMP JUMPDEST JUMPDEST PUSH2 0x4C5 JUMP JUMPDEST PUSH2 0x4A8 DUP5 DUP5 DUP5 PUSH1 0x1 PUSH2 0x3A9 JUMP JUMPDEST SWAP3 POP SWAP1 POP DUP2 DUP5 DIV DUP2 GT ISZERO PUSH2 0x4BF JUMPI PUSH2 0x4BE PUSH2 0x370 JUMP JUMPDEST JUMPDEST DUP2 DUP2 MUL SWAP1 POP JUMPDEST SWAP4 SWAP3 POP POP POP JUMP JUMPDEST PUSH0 PUSH2 0x4D6 DUP3 PUSH2 0x217 JUMP JUMPDEST SWAP2 POP PUSH2 0x4E1 DUP4 PUSH2 0x217 JUMP JUMPDEST SWAP3 POP PUSH2 0x50E PUSH32 0xFFFFFFFFFFFFFFFFFFFFFFFFFFFFFFFFFFFFFFFFFFFFFFFFFFFFFFFFFFFFFFFF DUP5 DUP5 PUSH2 0x3FB JUMP JUMPDEST SWAP1 POP SWAP3 SWAP2 POP POP JUMP JUMPDEST PUSH0 PUSH2 0x520 DUP3 PUSH2 0x217 JUMP JUMPDEST SWAP2 POP PUSH2 0x52B DUP4 PUSH2 0x217 JUMP JUMPDEST SWAP3 POP DUP3 DUP3 ADD SWAP1 POP DUP1 DUP3 GT ISZERO PUSH2 0x543 JUMPI PUSH2 0x542 PUSH2 0x370 JUMP JUMPDEST JUMPDEST SWAP3 SWAP2 POP POP JUMP JUMPDEST PUSH32 0x4E487B7100000000000000000000000000000000000000000000000000000000 PUSH0 MSTORE PUSH1 0x12 PUSH1 0x4 MSTORE PUSH1 0x24 PUSH0 REVERT JUMPDEST PUSH0 PUSH2 0x580 DUP3 PUSH2 0x217 JUMP JUMPDEST SWAP2 POP PUSH2 0x58B DUP4 PUSH2 0x217 JUMP JUMPDEST SWAP3 POP DUP3 PUSH2 0x59B JUMPI PUSH2 0x59A PUSH2 0x549 JUMP JUMPDEST JUMPDEST DUP3 DUP3 DIV SWAP1 POP SWAP3 SWAP2 POP POP JUMP JUMPDEST PUSH0 PUSH2 0x5B0 DUP3 PUSH2 0x217 JUMP JUMPDEST SWAP2 POP PUSH2 0x5BB DUP4 PUSH2 0x217 JUMP JUMPDEST SWAP3 POP DUP3 PUSH2 0x5CB JUMPI PUSH2 0x5CA PUSH2 0x549 JUMP JUMPDEST JUMPDEST DUP3 DUP3 MOD SWAP1 POP SWAP3 SWAP2 POP POP JUMP JUMPDEST PUSH0 PUSH2 0x5E0 DUP3 PUSH2 0x217 JUMP JUMPDEST SWAP2 POP PUSH2 0x5EB DUP4 PUSH2 0x217 JUMP JUMPDEST SWAP3 POP DUP3 DUP3 SUB SWAP1 POP DUP2 DUP2 GT ISZERO PUSH2 0x603 JUMPI PUSH2 0x602 PUSH2 0x370 JUMP JUMPDEST JUMPDEST SWAP3 SWAP2 POP POP JUMP JUMPDEST PUSH0 PUSH2 0x613 DUP3 PUSH2 0x217 JUMP JUMPDEST SWAP2 POP PUSH2 0x61E DUP4 PUSH2 0x217 JUMP JUMPDEST SWAP3 POP DUP3 DUP3 MUL PUSH2 0x62C DUP2 PUSH2 0x217 JUMP JUMPDEST SWAP2 POP DUP3 DUP3 DIV DUP5 EQ DUP4 ISZERO OR PUSH2 0x643 JUMPI PUSH2 0x642 PUSH2 0x370 JUMP JUMPDEST JUMPDEST POP SWAP3 SWAP2 POP POP JUMP JUMPDEST PUSH0 PUSH2 0x654 DUP3 PUSH2 0x2D7 JUMP JUMPDEST SWAP2 POP PUSH2 0x65F DUP4 PUSH2 0x2D7 JUMP JUMPDEST SWAP3 POP DUP3 DUP3 SUB SWAP1 POP DUP2 DUP2 SLT PUSH0 DUP5 SLT AND DUP3 DUP3 SGT PUSH0 DUP6 SLT ISZERO AND OR ISZERO PUSH2 0x684 JUMPI PUSH2 0x683 PUSH2 0x370 JUMP JUMPDEST JUMPDEST SWAP3 SWAP2 POP POP JUMP INVALID LOG2 PUSH5 0x6970667358 0x22 SLT KECCAK256 0xBA 0xD1 GASLIMIT AND 0xE7 MSTORE8 0xED DUP2 0xC8 PUSH8 0x8A07BAB8420031E6 0xE0 0xAC PUSH6 0x48733ABE33BC PUSH29 0xE15A6AC164736F6C634300081A00330000000000000000000000000000 "
		},
		"gasEstimates": {
			"creation": {
				"codeDepositCost": "345600",
				"executionCost": "378",
				"totalCost": "345978"
			},
			"external": {
				"add(uint256,uint256)": "infinite",
				"div(uint256,uint256)": "infinite",
				"mul(uint256,uint256)": "infinite",
				"pow(uint256,uint256)": "infinite",
				"sub(uint256,uint256)": "infinite",
				"sub2(int256,int256)": "infinite"
			}
		},
		"methodIdentifiers": {
			"add(uint256,uint256)": "771602f7",
			"div(uint256,uint256)": "a391c15b",
			"mul(uint256,uint256)": "c8a4ac9c",
			"pow(uint256,uint256)": "2e4c697f",
			"sub(uint256,uint256)": "b67d77c5",
			"sub2(int256,int256)": "ef3eeaba"
		}
	},
	"abi": [
		{
			"inputs": [
				{
					"internalType": "uint256",
					"name": "_a",
					"type": "uint256"
				},
				{
					"internalType": "uint256",
					"name": "_b",
					"type": "uint256"
				}
			],
			"name": "add",
			"outputs": [
				{
					"internalType": "uint256",
					"name": "",
					"type": "uint256"
				}
			],
			"stateMutability": "pure",
			"type": "function"
		},
		{
			"inputs": [
				{
					"internalType": "uint256",
					"name": "_a",
					"type": "uint256"
				},
				{
					"internalType": "uint256",
					"name": "_b",
					"type": "uint256"
				}
			],
			"name": "div",
			"outputs": [
				{
					"internalType": "uint256",
					"name": "",
					"type": "uint256"
				},
				{
					"internalType": "uint256",
					"name": "",
					"type": "uint256"
				}
			],
			"stateMutability": "pure",
			"type": "function"
		},
		{
			"inputs": [
				{
					"internalType": "uint256",
					"name": "_a",
					"type": "uint256"
				},
				{
					"internalType": "uint256",
					"name": "_b",
					"type": "uint256"
				}
			],
			"name": "mul",
			"outputs": [
				{
					"internalType": "uint256",
					"name": "",
					"type": "uint256"
				}
			],
			"stateMutability": "pure",
			"type": "function"
		},
		{
			"inputs": [
				{
					"internalType": "uint256",
					"name": "_a",
					"type": "uint256"
				},
				{
					"internalType": "uint256",
					"name": "_b",
					"type": "uint256"
				}
			],
			"name": "pow",
			"outputs": [
				{
					"internalType": "uint256",
					"name": "",
					"type": "uint256"
				}
			],
			"stateMutability": "pure",
			"type": "function"
		},
		{
			"inputs": [
				{
					"internalType": "uint256",
					"name": "_a",
					"type": "uint256"
				},
				{
					"internalType": "uint256",
					"name": "_b",
					"type": "uint256"
				}
			],
			"name": "sub",
			"outputs": [
				{
					"internalType": "uint256",
					"name": "",
					"type": "uint256"
				}
			],
			"stateMutability": "pure",
			"type": "function"
		},
		{
			"inputs": [
				{
					"internalType": "int256",
					"name": "_a",
					"type": "int256"
				},
				{
					"internalType": "int256",
					"name": "_b",
					"type": "int256"
				}
			],
			"name": "sub2",
			"outputs": [
				{
					"internalType": "int256",
					"name": "",
					"type": "int256"
				}
			],
			"stateMutability": "pure",
			"type": "function"
		}
	]
}