{
	"data": {
		"bytecode": {
			"linkReferences": {},
			"object": "608060405260015f55600180556001600255348015601b575f80fd5b50610190806100295f395ff3fe608060405234801561000f575f80fd5b506004361061003f575f3560e01c806332e7c5bf1461004357806383dfe5fd1461004d578063f446c1d014610057575b5f80fd5b61004b610061565b005b61005561007a565b005b61005f610095565b005b60015f815480929190610073906100e0565b9190505550565b600160025f82825461008c9190610127565b92505081905550565b60015f546100a39190610127565b5f81905550565b7f4e487b71000000000000000000000000000000000000000000000000000000005f52601160045260245ffd5b5f819050919050565b5f6100ea826100d7565b91507fffffffffffffffffffffffffffffffffffffffffffffffffffffffffffffffff820361011c5761011b6100aa565b5b600182019050919050565b5f610131826100d7565b915061013c836100d7565b9250828201905080821115610154576101536100aa565b5b9291505056fea264697066735822122017809eb8a1818c093b70c7fc30639e8a6ada9bd2458f29056ad719e1d7ce342564736f6c634300081a0033",
			"opcodes": "PUSH1 0x80 PUSH1 0x40 MSTORE PUSH1 0x1 PUSH0 SSTORE PUSH1 0x1 DUP1 SSTORE PUSH1 0x1 PUSH1 0x2 SSTORE CALLVALUE DUP1 ISZERO PUSH1 0x1B JUMPI PUSH0 DUP1 REVERT JUMPDEST POP PUSH2 0x190 DUP1 PUSH2 0x29 PUSH0 CODECOPY PUSH0 RETURN INVALID PUSH1 0x80 PUSH1 0x40 MSTORE CALLVALUE DUP1 ISZERO PUSH2 0xF JUMPI PUSH0 DUP1 REVERT JUMPDEST POP PUSH1 0x4 CALLDATASIZE LT PUSH2 0x3F JUMPI PUSH0 CALLDATALOAD PUSH1 0xE0 SHR DUP1 PUSH4 0x32E7C5BF EQ PUSH2 0x43 JUMPI DUP1 PUSH4 0x83DFE5FD EQ PUSH2 0x4D JUMPI DUP1 PUSH4 0xF446C1D0 EQ PUSH2 0x57 JUMPI JUMPDEST PUSH0 DUP1 REVERT JUMPDEST PUSH2 0x4B PUSH2 0x61 JUMP JUMPDEST STOP JUMPDEST PUSH2 0x55 PUSH2 0x7A JUMP JUMPDEST STOP JUMPDEST PUSH2 0x5F PUSH2 0x95 JUMP JUMPDEST STOP JUMPDEST PUSH1 0x1 PUSH0 DUP2 SLOAD DUP1 SWAP3 SWAP2 SWAP1 PUSH2 0x73 SWAP1 PUSH2 0xE0 JUMP JUMPDEST SWAP2 SWAP1 POP SSTORE POP JUMP JUMPDEST PUSH1 0x1 PUSH1 0x2 PUSH0 DUP3 DUP3 SLOAD PUSH2 0x8C SWAP2 SWAP1 PUSH2 0x127 JUMP JUMPDEST SWAP3 POP POP DUP2 SWAP1 SSTORE POP JUMP JUMPDEST PUSH1 0x1 PUSH0 SLOAD PUSH2 0xA3 SWAP2 SWAP1 PUSH2 0x127 JUMP JUMPDEST PUSH0 DUP2 SWAP1 SSTORE POP JUMP JUMPDEST PUSH32 0x4E487B7100000000000000000000000000000000000000000000000000000000 PUSH0 MSTORE PUSH1 0x11 PUSH1 0x4 MSTORE PUSH1 0x24 PUSH0 REVERT JUMPDEST PUSH0 DUP2 SWAP1 POP SWAP2 SWAP1 POP JUMP JUMPDEST PUSH0 PUSH2 0xEA DUP3 PUSH2 0xD7 JUMP JUMPDEST SWAP2 POP PUSH32 0xFFFFFFFFFFFFFFFFFFFFFFFFFFFFFFFFFFFFFFFFFFFFFFFFFFFFFFFFFFFFFFFF DUP3 SUB PUSH2 0x11C JUMPI PUSH2 0x11B PUSH2 0xAA JUMP JUMPDEST JUMPDEST PUSH1 0x1 DUP3 ADD SWAP1 POP SWAP2 SWAP1 POP JUMP JUMPDEST PUSH0 PUSH2 0x131 DUP3 PUSH2 0xD7 JUMP JUMPDEST SWAP2 POP PUSH2 0x13C DUP4 PUSH2 0xD7 JUMP JUMPDEST SWAP3 POP DUP3 DUP3 ADD SWAP1 POP DUP1 DUP3 GT ISZERO PUSH2 0x154 JUMPI PUSH2 0x153 PUSH2 0xAA JUMP JUMPDEST JUMPDEST SWAP3 SWAP2 POP POP JUMP INVALID LOG2 PUSH5 0x6970667358 0x22 SLT KECCAK256 OR DUP1 SWAP15 0xB8 LOG1 DUP2 DUP13 MULMOD EXTCODESIZE PUSH17 0xC7FC30639E8A6ADA9BD2458F29056AD719 0xE1 0xD7 0xCE CALLVALUE 0x25 PUSH5 0x736F6C6343 STOP ADDMOD BYTE STOP CALLER "
		},
		"gasEstimates": {
			"creation": {
				"codeDepositCost": "80000",
				"executionCost": "66444",
				"totalCost": "146444"
			},
			"external": {
				"A()": "infinite",
				"B()": "24475",
				"C()": "infinite"
			}
		},
		"methodIdentifiers": {
			"A()": "f446c1d0",
			"B()": "32e7c5bf",
			"C()": "83dfe5fd"
		}
	},
	"abi": [
		{
			"inputs": [],
			"name": "A",
			"outputs": [],
			"stateMutability": "nonpayable",
			"type": "function"
		},
		{
			"inputs": [],
			"name": "B",
			"outputs": [],
			"stateMutability": "nonpayable",
			"type": "function"
		},
		{
			"inputs": [],
			"name": "C",
			"outputs": [],
			"stateMutability": "nonpayable",
			"type": "function"
		}
	]
}