{
	"data": {
		"bytecode": {
			"linkReferences": {},
			"object": "6080604052348015600e575f80fd5b506107888061001c5f395ff3fe608060405234801561000f575f80fd5b506004361061007b575f3560e01c8063abee3d6e11610059578063abee3d6e1461010f578063c8c2df791461013f578063d621b4611461016f578063ee5b5a561461019f5761007b565b80632477bb1c1461007f57806332dff23f146100af57806359807014146100df575b5f80fd5b61009960048036038101906100949190610607565b6101cf565b6040516100a6919061064c565b60405180910390f35b6100c960048036038101906100c49190610607565b6101f5565b6040516100d691906106d5565b60405180910390f35b6100f960048036038101906100f49190610607565b6102cf565b604051610106919061064c565b60405180910390f35b61012960048036038101906101249190610607565b6102ea565b604051610136919061064c565b60405180910390f35b61015960048036038101906101549190610607565b610327565b60405161016691906106d5565b60405180910390f35b61018960048036038101906101849190610607565b6103f2565b60405161019691906106d5565b60405180910390f35b6101b960048036038101906101b49190610607565b6104ef565b6040516101c691906106d5565b60405180910390f35b5f806002836101de9190610722565b036101ec57600190506101f0565b5f90505b919050565b60606064821015801561020957506103e882105b1561024b576040518060400160405280600181526020017f620000000000000000000000000000000000000000000000000000000000000081525090506102ca565b6103e88210610291576040518060400160405280600181526020017f610000000000000000000000000000000000000000000000000000000000000081525090506102ca565b6040518060400160405280600181526020017f630000000000000000000000000000000000000000000000000000000000000081525090505b919050565b5f606482106102e157600190506102e5565b5f90505b919050565b5f806003836102f99190610722565b148061031057505f60028361030e9190610722565b145b1561031e5760019050610322565b5f90505b919050565b60606103e8821061036f576040518060400160405280600181526020017f610000000000000000000000000000000000000000000000000000000000000081525090506103ed565b606482106103b4576040518060400160405280600181526020017f620000000000000000000000000000000000000000000000000000000000000081525090506103ed565b6040518060400160405280600181526020017f630000000000000000000000000000000000000000000000000000000000000081525090505b919050565b60606064821015801561041057505f60028361040e9190610722565b145b15610452576040518060400160405280600181526020017f610000000000000000000000000000000000000000000000000000000000000081525090506104ea565b6032821015801561046f5750600160028361046d9190610722565b145b156104b1576040518060400160405280600181526020017f620000000000000000000000000000000000000000000000000000000000000081525090506104ea565b6040518060400160405280600181526020017f630000000000000000000000000000000000000000000000000000000000000081525090505b919050565b60605f6003836104ff9190610722565b03610541576040518060400160405280600181526020017f610000000000000000000000000000000000000000000000000000000000000081525090506105cb565b60016003836105509190610722565b03610592576040518060400160405280600181526020017f620000000000000000000000000000000000000000000000000000000000000081525090506105cb565b6040518060400160405280600181526020017f630000000000000000000000000000000000000000000000000000000000000081525090505b919050565b5f80fd5b5f819050919050565b6105e6816105d4565b81146105f0575f80fd5b50565b5f81359050610601816105dd565b92915050565b5f6020828403121561061c5761061b6105d0565b5b5f610629848285016105f3565b91505092915050565b5f8115159050919050565b61064681610632565b82525050565b5f60208201905061065f5f83018461063d565b92915050565b5f81519050919050565b5f82825260208201905092915050565b8281835e5f83830152505050565b5f601f19601f8301169050919050565b5f6106a782610665565b6106b1818561066f565b93506106c181856020860161067f565b6106ca8161068d565b840191505092915050565b5f6020820190508181035f8301526106ed818461069d565b905092915050565b7f4e487b71000000000000000000000000000000000000000000000000000000005f52601260045260245ffd5b5f61072c826105d4565b9150610737836105d4565b925082610747576107466106f5565b5b82820690509291505056fea2646970667358221220f2ed4e1d81be9b9969f4f97bee4a03d2f0e8930352af1e5c778a1f8bf82108fb64736f6c634300081a0033",
			"opcodes": "PUSH1 0x80 PUSH1 0x40 MSTORE CALLVALUE DUP1 ISZERO PUSH1 0xE JUMPI PUSH0 DUP1 REVERT JUMPDEST POP PUSH2 0x788 DUP1 PUSH2 0x1C PUSH0 CODECOPY PUSH0 RETURN INVALID PUSH1 0x80 PUSH1 0x40 MSTORE CALLVALUE DUP1 ISZERO PUSH2 0xF JUMPI PUSH0 DUP1 REVERT JUMPDEST POP PUSH1 0x4 CALLDATASIZE LT PUSH2 0x7B JUMPI PUSH0 CALLDATALOAD PUSH1 0xE0 SHR DUP1 PUSH4 0xABEE3D6E GT PUSH2 0x59 JUMPI DUP1 PUSH4 0xABEE3D6E EQ PUSH2 0x10F JUMPI DUP1 PUSH4 0xC8C2DF79 EQ PUSH2 0x13F JUMPI DUP1 PUSH4 0xD621B461 EQ PUSH2 0x16F JUMPI DUP1 PUSH4 0xEE5B5A56 EQ PUSH2 0x19F JUMPI PUSH2 0x7B JUMP JUMPDEST DUP1 PUSH4 0x2477BB1C EQ PUSH2 0x7F JUMPI DUP1 PUSH4 0x32DFF23F EQ PUSH2 0xAF JUMPI DUP1 PUSH4 0x59807014 EQ PUSH2 0xDF JUMPI JUMPDEST PUSH0 DUP1 REVERT JUMPDEST PUSH2 0x99 PUSH1 0x4 DUP1 CALLDATASIZE SUB DUP2 ADD SWAP1 PUSH2 0x94 SWAP2 SWAP1 PUSH2 0x607 JUMP JUMPDEST PUSH2 0x1CF JUMP JUMPDEST PUSH1 0x40 MLOAD PUSH2 0xA6 SWAP2 SWAP1 PUSH2 0x64C JUMP JUMPDEST PUSH1 0x40 MLOAD DUP1 SWAP2 SUB SWAP1 RETURN JUMPDEST PUSH2 0xC9 PUSH1 0x4 DUP1 CALLDATASIZE SUB DUP2 ADD SWAP1 PUSH2 0xC4 SWAP2 SWAP1 PUSH2 0x607 JUMP JUMPDEST PUSH2 0x1F5 JUMP JUMPDEST PUSH1 0x40 MLOAD PUSH2 0xD6 SWAP2 SWAP1 PUSH2 0x6D5 JUMP JUMPDEST PUSH1 0x40 MLOAD DUP1 SWAP2 SUB SWAP1 RETURN JUMPDEST PUSH2 0xF9 PUSH1 0x4 DUP1 CALLDATASIZE SUB DUP2 ADD SWAP1 PUSH2 0xF4 SWAP2 SWAP1 PUSH2 0x607 JUMP JUMPDEST PUSH2 0x2CF JUMP JUMPDEST PUSH1 0x40 MLOAD PUSH2 0x106 SWAP2 SWAP1 PUSH2 0x64C JUMP JUMPDEST PUSH1 0x40 MLOAD DUP1 SWAP2 SUB SWAP1 RETURN JUMPDEST PUSH2 0x129 PUSH1 0x4 DUP1 CALLDATASIZE SUB DUP2 ADD SWAP1 PUSH2 0x124 SWAP2 SWAP1 PUSH2 0x607 JUMP JUMPDEST PUSH2 0x2EA JUMP JUMPDEST PUSH1 0x40 MLOAD PUSH2 0x136 SWAP2 SWAP1 PUSH2 0x64C JUMP JUMPDEST PUSH1 0x40 MLOAD DUP1 SWAP2 SUB SWAP1 RETURN JUMPDEST PUSH2 0x159 PUSH1 0x4 DUP1 CALLDATASIZE SUB DUP2 ADD SWAP1 PUSH2 0x154 SWAP2 SWAP1 PUSH2 0x607 JUMP JUMPDEST PUSH2 0x327 JUMP JUMPDEST PUSH1 0x40 MLOAD PUSH2 0x166 SWAP2 SWAP1 PUSH2 0x6D5 JUMP JUMPDEST PUSH1 0x40 MLOAD DUP1 SWAP2 SUB SWAP1 RETURN JUMPDEST PUSH2 0x189 PUSH1 0x4 DUP1 CALLDATASIZE SUB DUP2 ADD SWAP1 PUSH2 0x184 SWAP2 SWAP1 PUSH2 0x607 JUMP JUMPDEST PUSH2 0x3F2 JUMP JUMPDEST PUSH1 0x40 MLOAD PUSH2 0x196 SWAP2 SWAP1 PUSH2 0x6D5 JUMP JUMPDEST PUSH1 0x40 MLOAD DUP1 SWAP2 SUB SWAP1 RETURN JUMPDEST PUSH2 0x1B9 PUSH1 0x4 DUP1 CALLDATASIZE SUB DUP2 ADD SWAP1 PUSH2 0x1B4 SWAP2 SWAP1 PUSH2 0x607 JUMP JUMPDEST PUSH2 0x4EF JUMP JUMPDEST PUSH1 0x40 MLOAD PUSH2 0x1C6 SWAP2 SWAP1 PUSH2 0x6D5 JUMP JUMPDEST PUSH1 0x40 MLOAD DUP1 SWAP2 SUB SWAP1 RETURN JUMPDEST PUSH0 DUP1 PUSH1 0x2 DUP4 PUSH2 0x1DE SWAP2 SWAP1 PUSH2 0x722 JUMP JUMPDEST SUB PUSH2 0x1EC JUMPI PUSH1 0x1 SWAP1 POP PUSH2 0x1F0 JUMP JUMPDEST PUSH0 SWAP1 POP JUMPDEST SWAP2 SWAP1 POP JUMP JUMPDEST PUSH1 0x60 PUSH1 0x64 DUP3 LT ISZERO DUP1 ISZERO PUSH2 0x209 JUMPI POP PUSH2 0x3E8 DUP3 LT JUMPDEST ISZERO PUSH2 0x24B JUMPI PUSH1 0x40 MLOAD DUP1 PUSH1 0x40 ADD PUSH1 0x40 MSTORE DUP1 PUSH1 0x1 DUP2 MSTORE PUSH1 0x20 ADD PUSH32 0x6200000000000000000000000000000000000000000000000000000000000000 DUP2 MSTORE POP SWAP1 POP PUSH2 0x2CA JUMP JUMPDEST PUSH2 0x3E8 DUP3 LT PUSH2 0x291 JUMPI PUSH1 0x40 MLOAD DUP1 PUSH1 0x40 ADD PUSH1 0x40 MSTORE DUP1 PUSH1 0x1 DUP2 MSTORE PUSH1 0x20 ADD PUSH32 0x6100000000000000000000000000000000000000000000000000000000000000 DUP2 MSTORE POP SWAP1 POP PUSH2 0x2CA JUMP JUMPDEST PUSH1 0x40 MLOAD DUP1 PUSH1 0x40 ADD PUSH1 0x40 MSTORE DUP1 PUSH1 0x1 DUP2 MSTORE PUSH1 0x20 ADD PUSH32 0x6300000000000000000000000000000000000000000000000000000000000000 DUP2 MSTORE POP SWAP1 POP JUMPDEST SWAP2 SWAP1 POP JUMP JUMPDEST PUSH0 PUSH1 0x64 DUP3 LT PUSH2 0x2E1 JUMPI PUSH1 0x1 SWAP1 POP PUSH2 0x2E5 JUMP JUMPDEST PUSH0 SWAP1 POP JUMPDEST SWAP2 SWAP1 POP JUMP JUMPDEST PUSH0 DUP1 PUSH1 0x3 DUP4 PUSH2 0x2F9 SWAP2 SWAP1 PUSH2 0x722 JUMP JUMPDEST EQ DUP1 PUSH2 0x310 JUMPI POP PUSH0 PUSH1 0x2 DUP4 PUSH2 0x30E SWAP2 SWAP1 PUSH2 0x722 JUMP JUMPDEST EQ JUMPDEST ISZERO PUSH2 0x31E JUMPI PUSH1 0x1 SWAP1 POP PUSH2 0x322 JUMP JUMPDEST PUSH0 SWAP1 POP JUMPDEST SWAP2 SWAP1 POP JUMP JUMPDEST PUSH1 0x60 PUSH2 0x3E8 DUP3 LT PUSH2 0x36F JUMPI PUSH1 0x40 MLOAD DUP1 PUSH1 0x40 ADD PUSH1 0x40 MSTORE DUP1 PUSH1 0x1 DUP2 MSTORE PUSH1 0x20 ADD PUSH32 0x6100000000000000000000000000000000000000000000000000000000000000 DUP2 MSTORE POP SWAP1 POP PUSH2 0x3ED JUMP JUMPDEST PUSH1 0x64 DUP3 LT PUSH2 0x3B4 JUMPI PUSH1 0x40 MLOAD DUP1 PUSH1 0x40 ADD PUSH1 0x40 MSTORE DUP1 PUSH1 0x1 DUP2 MSTORE PUSH1 0x20 ADD PUSH32 0x6200000000000000000000000000000000000000000000000000000000000000 DUP2 MSTORE POP SWAP1 POP PUSH2 0x3ED JUMP JUMPDEST PUSH1 0x40 MLOAD DUP1 PUSH1 0x40 ADD PUSH1 0x40 MSTORE DUP1 PUSH1 0x1 DUP2 MSTORE PUSH1 0x20 ADD PUSH32 0x6300000000000000000000000000000000000000000000000000000000000000 DUP2 MSTORE POP SWAP1 POP JUMPDEST SWAP2 SWAP1 POP JUMP JUMPDEST PUSH1 0x60 PUSH1 0x64 DUP3 LT ISZERO DUP1 ISZERO PUSH2 0x410 JUMPI POP PUSH0 PUSH1 0x2 DUP4 PUSH2 0x40E SWAP2 SWAP1 PUSH2 0x722 JUMP JUMPDEST EQ JUMPDEST ISZERO PUSH2 0x452 JUMPI PUSH1 0x40 MLOAD DUP1 PUSH1 0x40 ADD PUSH1 0x40 MSTORE DUP1 PUSH1 0x1 DUP2 MSTORE PUSH1 0x20 ADD PUSH32 0x6100000000000000000000000000000000000000000000000000000000000000 DUP2 MSTORE POP SWAP1 POP PUSH2 0x4EA JUMP JUMPDEST PUSH1 0x32 DUP3 LT ISZERO DUP1 ISZERO PUSH2 0x46F JUMPI POP PUSH1 0x1 PUSH1 0x2 DUP4 PUSH2 0x46D SWAP2 SWAP1 PUSH2 0x722 JUMP JUMPDEST EQ JUMPDEST ISZERO PUSH2 0x4B1 JUMPI PUSH1 0x40 MLOAD DUP1 PUSH1 0x40 ADD PUSH1 0x40 MSTORE DUP1 PUSH1 0x1 DUP2 MSTORE PUSH1 0x20 ADD PUSH32 0x6200000000000000000000000000000000000000000000000000000000000000 DUP2 MSTORE POP SWAP1 POP PUSH2 0x4EA JUMP JUMPDEST PUSH1 0x40 MLOAD DUP1 PUSH1 0x40 ADD PUSH1 0x40 MSTORE DUP1 PUSH1 0x1 DUP2 MSTORE PUSH1 0x20 ADD PUSH32 0x6300000000000000000000000000000000000000000000000000000000000000 DUP2 MSTORE POP SWAP1 POP JUMPDEST SWAP2 SWAP1 POP JUMP JUMPDEST PUSH1 0x60 PUSH0 PUSH1 0x3 DUP4 PUSH2 0x4FF SWAP2 SWAP1 PUSH2 0x722 JUMP JUMPDEST SUB PUSH2 0x541 JUMPI PUSH1 0x40 MLOAD DUP1 PUSH1 0x40 ADD PUSH1 0x40 MSTORE DUP1 PUSH1 0x1 DUP2 MSTORE PUSH1 0x20 ADD PUSH32 0x6100000000000000000000000000000000000000000000000000000000000000 DUP2 MSTORE POP SWAP1 POP PUSH2 0x5CB JUMP JUMPDEST PUSH1 0x1 PUSH1 0x3 DUP4 PUSH2 0x550 SWAP2 SWAP1 PUSH2 0x722 JUMP JUMPDEST SUB PUSH2 0x592 JUMPI PUSH1 0x40 MLOAD DUP1 PUSH1 0x40 ADD PUSH1 0x40 MSTORE DUP1 PUSH1 0x1 DUP2 MSTORE PUSH1 0x20 ADD PUSH32 0x6200000000000000000000000000000000000000000000000000000000000000 DUP2 MSTORE POP SWAP1 POP PUSH2 0x5CB JUMP JUMPDEST PUSH1 0x40 MLOAD DUP1 PUSH1 0x40 ADD PUSH1 0x40 MSTORE DUP1 PUSH1 0x1 DUP2 MSTORE PUSH1 0x20 ADD PUSH32 0x6300000000000000000000000000000000000000000000000000000000000000 DUP2 MSTORE POP SWAP1 POP JUMPDEST SWAP2 SWAP1 POP JUMP JUMPDEST PUSH0 DUP1 REVERT JUMPDEST PUSH0 DUP2 SWAP1 POP SWAP2 SWAP1 POP JUMP JUMPDEST PUSH2 0x5E6 DUP2 PUSH2 0x5D4 JUMP JUMPDEST DUP2 EQ PUSH2 0x5F0 JUMPI PUSH0 DUP1 REVERT JUMPDEST POP JUMP JUMPDEST PUSH0 DUP2 CALLDATALOAD SWAP1 POP PUSH2 0x601 DUP2 PUSH2 0x5DD JUMP JUMPDEST SWAP3 SWAP2 POP POP JUMP JUMPDEST PUSH0 PUSH1 0x20 DUP3 DUP5 SUB SLT ISZERO PUSH2 0x61C JUMPI PUSH2 0x61B PUSH2 0x5D0 JUMP JUMPDEST JUMPDEST PUSH0 PUSH2 0x629 DUP5 DUP3 DUP6 ADD PUSH2 0x5F3 JUMP JUMPDEST SWAP2 POP POP SWAP3 SWAP2 POP POP JUMP JUMPDEST PUSH0 DUP2 ISZERO ISZERO SWAP1 POP SWAP2 SWAP1 POP JUMP JUMPDEST PUSH2 0x646 DUP2 PUSH2 0x632 JUMP JUMPDEST DUP3 MSTORE POP POP JUMP JUMPDEST PUSH0 PUSH1 0x20 DUP3 ADD SWAP1 POP PUSH2 0x65F PUSH0 DUP4 ADD DUP5 PUSH2 0x63D JUMP JUMPDEST SWAP3 SWAP2 POP POP JUMP JUMPDEST PUSH0 DUP2 MLOAD SWAP1 POP SWAP2 SWAP1 POP JUMP JUMPDEST PUSH0 DUP3 DUP3 MSTORE PUSH1 0x20 DUP3 ADD SWAP1 POP SWAP3 SWAP2 POP POP JUMP JUMPDEST DUP3 DUP2 DUP4 MCOPY PUSH0 DUP4 DUP4 ADD MSTORE POP POP POP JUMP JUMPDEST PUSH0 PUSH1 0x1F NOT PUSH1 0x1F DUP4 ADD AND SWAP1 POP SWAP2 SWAP1 POP JUMP JUMPDEST PUSH0 PUSH2 0x6A7 DUP3 PUSH2 0x665 JUMP JUMPDEST PUSH2 0x6B1 DUP2 DUP6 PUSH2 0x66F JUMP JUMPDEST SWAP4 POP PUSH2 0x6C1 DUP2 DUP6 PUSH1 0x20 DUP7 ADD PUSH2 0x67F JUMP JUMPDEST PUSH2 0x6CA DUP2 PUSH2 0x68D JUMP JUMPDEST DUP5 ADD SWAP2 POP POP SWAP3 SWAP2 POP POP JUMP JUMPDEST PUSH0 PUSH1 0x20 DUP3 ADD SWAP1 POP DUP2 DUP2 SUB PUSH0 DUP4 ADD MSTORE PUSH2 0x6ED DUP2 DUP5 PUSH2 0x69D JUMP JUMPDEST SWAP1 POP SWAP3 SWAP2 POP POP JUMP JUMPDEST PUSH32 0x4E487B7100000000000000000000000000000000000000000000000000000000 PUSH0 MSTORE PUSH1 0x12 PUSH1 0x4 MSTORE PUSH1 0x24 PUSH0 REVERT JUMPDEST PUSH0 PUSH2 0x72C DUP3 PUSH2 0x5D4 JUMP JUMPDEST SWAP2 POP PUSH2 0x737 DUP4 PUSH2 0x5D4 JUMP JUMPDEST SWAP3 POP DUP3 PUSH2 0x747 JUMPI PUSH2 0x746 PUSH2 0x6F5 JUMP JUMPDEST JUMPDEST DUP3 DUP3 MOD SWAP1 POP SWAP3 SWAP2 POP POP JUMP INVALID LOG2 PUSH5 0x6970667358 0x22 SLT KECCAK256 CALLCODE 0xED 0x4E SAR DUP2 0xBE SWAP12 SWAP10 PUSH10 0xF4F97BEE4A03D2F0E893 SUB MSTORE 0xAF 0x1E TLOAD PUSH24 0x8A1F8BF82108FB64736F6C634300081A0033000000000000 "
		},
		"gasEstimates": {
			"creation": {
				"codeDepositCost": "385600",
				"executionCost": "422",
				"totalCost": "386022"
			},
			"external": {
				"AND(uint256)": "infinite",
				"AND2(uint256)": "infinite",
				"OR(uint256)": "infinite",
				"hun(uint256)": "678",
				"oddEven(uint256)": "infinite",
				"thou(uint256)": "infinite",
				"tri(uint256)": "infinite"
			}
		},
		"methodIdentifiers": {
			"AND(uint256)": "32dff23f",
			"AND2(uint256)": "d621b461",
			"OR(uint256)": "abee3d6e",
			"hun(uint256)": "59807014",
			"oddEven(uint256)": "2477bb1c",
			"thou(uint256)": "c8c2df79",
			"tri(uint256)": "ee5b5a56"
		}
	},
	"abi": [
		{
			"inputs": [
				{
					"internalType": "uint256",
					"name": "_n",
					"type": "uint256"
				}
			],
			"name": "AND",
			"outputs": [
				{
					"internalType": "string",
					"name": "",
					"type": "string"
				}
			],
			"stateMutability": "pure",
			"type": "function"
		},
		{
			"inputs": [
				{
					"internalType": "uint256",
					"name": "_n",
					"type": "uint256"
				}
			],
			"name": "AND2",
			"outputs": [
				{
					"internalType": "string",
					"name": "",
					"type": "string"
				}
			],
			"stateMutability": "pure",
			"type": "function"
		},
		{
			"inputs": [
				{
					"internalType": "uint256",
					"name": "_n",
					"type": "uint256"
				}
			],
			"name": "OR",
			"outputs": [
				{
					"internalType": "bool",
					"name": "",
					"type": "bool"
				}
			],
			"stateMutability": "pure",
			"type": "function"
		},
		{
			"inputs": [
				{
					"internalType": "uint256",
					"name": "_n",
					"type": "uint256"
				}
			],
			"name": "hun",
			"outputs": [
				{
					"internalType": "bool",
					"name": "",
					"type": "bool"
				}
			],
			"stateMutability": "pure",
			"type": "function"
		},
		{
			"inputs": [
				{
					"internalType": "uint256",
					"name": "_n",
					"type": "uint256"
				}
			],
			"name": "oddEven",
			"outputs": [
				{
					"internalType": "bool",
					"name": "",
					"type": "bool"
				}
			],
			"stateMutability": "pure",
			"type": "function"
		},
		{
			"inputs": [
				{
					"internalType": "uint256",
					"name": "_n",
					"type": "uint256"
				}
			],
			"name": "thou",
			"outputs": [
				{
					"internalType": "string",
					"name": "",
					"type": "string"
				}
			],
			"stateMutability": "pure",
			"type": "function"
		},
		{
			"inputs": [
				{
					"internalType": "uint256",
					"name": "_n",
					"type": "uint256"
				}
			],
			"name": "tri",
			"outputs": [
				{
					"internalType": "string",
					"name": "",
					"type": "string"
				}
			],
			"stateMutability": "pure",
			"type": "function"
		}
	]
}